S017000032302D31302D312D352D322D302D302E7372656344
S3150800400000000120E54F0008114D0008154D000875
S31508004010194D00081D4D0008214D0008000000003C
S31508004020000000000000000000000000919F00084A
S31508004030254D00080000000021A0000885A0000802
S31508004040355000083550000835500008355000082E
S31508004050355000083550000835500008355000081E
S31508004060355000083550000835500008355000080E
S3150800407035500008355000083550000835500008FE
S31508004080355000083550000835500008000000007B
S31508004090000000000000000000000000294D000894
S315080040A03550000835500008314D000835500008D5
S315080040B03D4D0008494D000835500008554D00088B
S315080040C0614D000835500008355000086D4D000850
S315080040D0355000083550000835500008000000002B
S315080040E0355000083550000835500008000000001B
S315080040F00000000000000000000000003550000825
S3150800410000000000355000083550000835500008FA
S315080041100000000000000000000000000000000091
S31508004120794D00083550000835500008854D0008BF
S3150800413035500008000000000000000000000000E4
S3150800414000000000000000000000000035500008D4
S31508004150355000083550000835500008355000081D
S315080041603550000835500008000000000000000027
S315080041700000000000000000000000000000000031
S315080041800000000035500008000000000000000094
S315080041903550000800000000000000000000000084
S315080041A00000000000000000000000000000000001
S315080041B000000000000000000000000000000000F1
S315080041C000000000000000000000000000000000E1
S315080041D00000000000000000FFFFFFFFEE11AA55D7
S315080041E010B5054C237833B9044B13B10448AFF323
S315080041F000800123237010BD780200200000000013
S3150800420010A6000808B5034B1BB103490348AFF3D2
S31508004210008008BD000000007C02002010A60008EF
S3150800422053B94AB9002908BF00281CBF4FF0FF310F
S315080042304FF0FF3000F074B9ADF1080C6DE904CE0B
S3150800424000F006F8DDF804E0DDE9022304B0704763
S315080042502DE9F047089D04468E46002B4DD18A422B
S31508004260944669D9B2FA82F252B101FA02F3C2F15E
S31508004270200120FA01F10CFA02FC41EA030E9440EF
S315080042804FEA1C48210CBEFBF8F61FFA8CF708FB10
S3150800429016E341EA034306FB07F199420AD91CEBE8
S315080042A0030306F1FF3080F01F81994240F21C811A
S315080042B0023E63445B1AA4B2B3FBF8F008FB103362
S315080042C044EA034400FB07F7A7420AD91CEB040497
S315080042D000F1FF3380F00A81A74240F20781644467
S315080042E0023840EA0640E41B00261DB1D4400023EC
S315080042F0C5E900433146BDE8F0878B4209D9002D50
S3150800430000F0EF800026C5E9000130463146BDE8D9
S31508004310F087B3FA83F6002E4AD18B4202D3824243
S3150800432000F2F980841A61EB030301209E46002DF2
S31508004330E0D0C5E9004EDDE702B9FFDEB2FA82F247
S31508004340002A40F09280A1EB0C014FEA1C471FFAA5
S315080043508CFE0126200CB1FBF7F307FB131140EA8C
S3150800436001410EFB03F0884208D91CEB010103F159
S31508004370FF3802D2884200F2CB804346091AA4B21B
S31508004380B1FBF7F007FB101144EA01440EFB00FEEF
S31508004390A64508D91CEB040400F1FF3102D2A64554
S315080043A000F2BB800846A4EB0E0440EA03409CE7F3
S315080043B0C6F12007B34022FA07FC4CEA030C20FAA0
S315080043C007F401FA06F31C43F9404FEA1C4900FAC0
S315080043D006F3B1FBF9F8200C1FFA8CFE09FB18113D
S315080043E040EA014108FB0EF0884202FA06F20BD9B0
S315080043F01CEB010108F1FF3A80F08880884240F200
S315080044008580A8F102086144091AA4B2B1FBF9F043
S3150800441009FB101144EA014100FB0EFE8E4508D93E
S315080044201CEB010100F1FF346CD28E456AD90238C3
S31508004430614440EA0840A0FB0294A1EB0E01A142A8
S31508004440C846A64656D353D05DB1B3EB080261EB16
S315080044500E0101FA07F722FA06F3F1401F43C5E9F0
S31508004460007100263146BDE8F087C2F12003D84026
S315080044700CFA02FC21FA03F3914001434FEA1C4768
S315080044801FFA8CFEB3FBF7F007FB10360B0C43EA5A
S31508004490064300FB0EF69E4204FA02F408D91CEB0A
S315080044A0030300F1FF382FD29E422DD90238634408
S315080044B09B1B89B2B3FBF7F607FB163341EA0341A8
S315080044C006FB0EF38B4208D91CEB010106F1FF38F7
S315080044D016D28B4214D9023E6144C91A46EA0046EE
S315080044E038E72E46284605E70646E3E61846F8E680
S315080044F04B45A9D2B9EB020864EB0C0E0138A3E7C9
S315080045004646EAE7204694E74046D1E7D0467BE7A9
S31508004510023B614432E7304609E76444023842E721
S31508004520704700BF00B51948194901604FF480313A
S3150800453041601849002385B00122CDE90033CDE951
S315080045400233C0E90A1383600361037680F82030DA
S31508004550C360C26180F83030426100F099FD60B9ED
S3150800456000230122094802936946CDE9003200F08A
S31508004570C5FE28B905B05DF804FB00F0BDFAEFE703
S3150800458000F0BAFA05B05DF804FB00BF94020020FB
S31508004590002001400100000F30B51F4B026889B0AA
S315080045A000249A42CDE90344CDE90544079401D095
S315080045B009B030BD03F58C3300945A6C174842F4A1
S315080045C080725A645A6C02F480720092009A0194BE
S315080045D01A6B42F001021A631A6B02F00102019289
S315080045E0019A02941A6B42F002021A631B6B03F0DB
S315080045F002030293032503A90F2303930495029B41
S3150800460001F0AEF90648059403A9CDE9035501F072
S31508004610A7F909B030BD00BF0020014000000240E4
S315080046200004024000B583B000220E4B0192186BBD
S3150800463040F4800018631B6B03F480030521019383
S315080046403820019B00F01AFF382000F055FF0022A1
S315080046503B20052100F012FF3B2003B05DF804EB78
S3150800466000F04ABF0038024008B504F093F801206C
S3150800467004F0D8FFF9E700BF044B036010B48023A9
S31508004680034C0C605DF8044B13607047E00400208F
S31508004690E002002010B50A4C88B004F091FC0FCC5B
S315080046A00DF1040CACE80F0094E807008CE807004D
S315080046B0002101A804F084FF024B186008B010BD61
S315080046C028A60008DC0200202DE9F04700248AB05D
S315080046D0CDE90544CDE90744554B009409941A6B76
S315080046E0544D554FDFF854A1DFF8549142F00402B7
S315080046F01A631A6B02F004020092009A01941A6B6C
S3150800470042F080021A631A6B02F080020192019A43
S3150800471002941A6B42F001021A631A6B02F0010244
S315080047200292029A03941A6B42F002021A631A6BF7
S3150800473002F002020392039A04941A6B42F00802EA
S315080047401A631B6B03F0080304932246284642F2B9
S31508004750FF01049B01F0FCF9224638464FF2A041BE
S3150800476001F0F6F9224650464FF41F4101F0F0F9E0
S3150800477048462246042101F0EBF9224628464FF422
S31508004780C05101F0E5F94FF0110805A92846FF23A5
S3150800479001260593CDE90744CDF8188001F0E0F825
S315080047A005A928464FF400530593CDE90744069614
S315080047B001F0D6F8284605A94FF4C0530593CDE96C
S315080047C00664089401F0CCF805A938464FF2A043D0
S315080047D00593CDE90684089401F0C2F8504605A968
S315080047E04FF41F430593CDE90744CDF8188001F02F
S315080047F0B7F84022384605A94FF48813CDE90523B2
S31508004800079401F0ADF8042305A94846CDE9053615
S31508004810CDE9074401F0A4F822460521172000F047
S315080048202DFE172000F068FE0AB0BDE8F08700BF2D
S31508004830003802400008024000040240000002401E
S31508004840000C024030B5214B026889B000249A4218
S31508004850CDE90344CDE90544079401D009B030BD3C
S315080048601B4D01942B6B1B4843F002032B632B6BE8
S3150800487003F0020301934FF44073039312234FF09E
S31508004880030C03A904930423CDE906C3019A01F096
S3150800489067F802942B6C43F400132B642B6C03F417
S315080048A000132246052102931F20029B00F0E6FD15
S315080048B01F2000F021FE22460521202000F0DEFD03
S315080048C0202000F019FE09B030BD00BF005400409A
S315080048D0003802400004024030B5002495B0CDE906
S315080048E00A44CDE90344CDE905441F4B01940C94D1
S315080048F00794196C1D4A41F0805119641B6C03F02A
S3150800490080530193019B0294136823F4404343F4B4
S3150800491000431360136803F4404302930922029B81
S31508004920089201234FF48032022509920D934FF421
S3150800493080020623CDE90E5210935422042308A8B8
S31508004940CDE91125139302F099F90F224FF48053FC
S3150800495003A82946CDE90325CDE90543079402F0C6
S31508004960A5FB15B030BD00BF0038024000700040FE
S3150800497008B500F061FBFFF7AFFFFFF7A5FEFFF7ED
S3150800498051FE00F0BBF800F025FA00F05BFAFFF7DD
S31508004990C9FD04F087FCFFF77DFE04F00BFEFEE779
S315080049A0034B02689A4200D0704704F0C3BC00BFAC
S315080049B000300140704700BF38B50368B3F1804F37
S315080049C0044619D03E4A934200D038BD257F042DAF
S315080049D01DD0082DF9D102213A4801F0B3F83A4B17
S315080049E01B68012808BF0022186C18BF0122BDE801
S315080049F03840052104F020BA057F012D47D0022D45
S31508004A0036D0042D23D0082D11D02368DAE70121EA
S31508004A102C4801F097F82C4B1B6801282946D86BBF
S31508004A200CBF0022012204F007FA257FD1E72946A8
S31508004A30264801F087F8264B1B68012808BF002284
S31508004A40186C18BF0122032104F0F6F9DDE72946A0
S31508004A501E4801F077F81E4B1B68012808BF002284
S31508004A60D86B18BF0122022104F0E6F9257FCAE7B0
S31508004A701648294601F066F80128154B18D01B6818
S31508004A800122986B114604F0D7F9257FB9E7294624
S31508004A900E4801F057F80E4B1B68012818BF2A4626
S31508004AA0586B08BF0022002104F0C6F9257FA6E747
S31508004AB01B6801460022986B04F0BEF9257FA0E723
S31508004AC00004004000040240900700200000024055
S31508004AD048070020014801F0A3B900BF940500204B
S31508004AE003F02EBE034B02689A4200D0704700F0CE
S31508004AF0BDBA00BF00480140704700BF0B480C49CB
S31508004B0008B50A220023C0E90013C0E90233C0E948
S31508004B100433C0E90833C0E90A32836102F070FC45
S31508004B2000B908BDBDE80840FFF7E6BFA8060020A3
S31508004B30003001402DE9F043404B026889B000245B
S31508004B409A42CDE90344CDE90544079402D009B059
S31508004B50BDE8F08303F5843301945A6C384E42F469
S31508004B6080525A645A6C02F480520192019A029455
S31508004B701A6B42F001021A631B6B03F001030293DE
S31508004B8010234FF0020903934FF00308012305276A
S31508004B9003A905462B48029ACDF81880CDE9049357
S31508004BA0079700F0DDFEE0232648039303A9CDF816
S31508004BB01090CDF818800594079700F0D1FE224A88
S31508004BC04FF0C063C6E9002330464FF48063C6E958
S31508004BD00244C6E90434C6E90644C6E9084400F0B6
S31508004BE099FC20BB194C1A49EE644FF0C0620023A9
S31508004BF0C4E90012204640214FF48062C4E902133A
S31508004C00C4E90533C4E90733B5632261636200F07A
S31508004C1081FC78B9002205212320AC64A56300F045
S31508004C202DFC232000F068FC09B0BDE8F083FFF7EF
S31508004C3063FFD7E7FFF760FFECE700BF00300140EE
S31508004C40E8050020000002401064024048060020E3
S31508004C505864024082B00E4B00220092596C41F40F
S31508004C6080415964586C00F4804000900098019285
S31508004C70186C40F0805018641B6C03F08053019345
S31508004C80019B0F216FF0010002B000F0F7BB00BFD7
S31508004C900038024030B5014689B000221A2000F0DB
S31508004CA0EDFB1A2000F028FC0025154B02955A6CDE
S31508004CB0144C42F480225A645B6C03F4802301A9E5
S31508004CC003A80293029B02F0AFFA02F09DFA0E4B7C
S31508004CD00E492160A3FB0030830C013B40F2E7320A
S31508004CE02046E26063602561A56003F065F810B1AF
S31508004CF0012009B030BD204602F0CCFD09B030BD18
S31508004D00003802400007002083DE1B4300480140AC
S31508004D10704700BFFEE700BFFEE700BFFEE700BF23
S31508004D20FEE700BF704700BF402000F021BF00BF6C
S31508004D30014802F03FBF00BF00070020014802F00B
S31508004D4039BF00BF48070020014802F033BF00BF43
S31508004D5090070020014801F01DBA00BF9405002005
S31508004D60014801F0C3BE00BF94050020014802F0C7
S31508004D70EDBC00BFA8060020014800F0FDBC00BF3E
S31508004D80E8050020014800F0F7BC00BF48060020EF
S31508004D900E480F4BD0F8882042F47002C0F88820DD
S31508004DA01A68002142F001021A6099601A68A0F197
S31508004DB0BC2022F0847222F48032F0381A605860DF
S31508004DC01A6822F480221A60D960704700ED00E064
S31508004DD00038024000B51A484FF08042002387B0D9
S31508004DE002604FF0FF32CDE90233CDE90433CDE955
S31508004DF00033C0E90133C0E90323836102F0DCFF15
S31508004E0090B94FF480530E48029302A902F01CFE93
S31508004E1090B900230A486946CDE9003303F0F6F84D
S31508004E2028B907B05DF804FBFFF766FEE9E7FFF768
S31508004E3063FE07B05DF804FBFFF75EFEE9E700BF17
S31508004E404807002000B51948194A0260002387B0B0
S31508004E504FF6FF72CDE90233CDE90433CDE90033CD
S31508004E60C0E90133C0E90323836102F0A5FF90B9C5
S31508004E704FF480530D48029302A902F0E5FD90B95C
S31508004E8000230A486946CDE9003303F0BFF828B97C
S31508004E9007B05DF804FBFFF72FFEE9E7FFF72CFEE6
S31508004EA007B05DF804FBFFF727FEE9E79007002047
S31508004EB00004004000B50368B3F1804F83B005D005
S31508004EC0194A934219D003B05DF804FB03F50E3373
S31508004ED000220092196C41F0010119641B6C03F061
S31508004EE0010300931C200521009B00F0C7FA1C2033
S31508004EF003B05DF804EB00F0FFBA0C4B00220192F8
S31508004F00196C41F0020119641B6C03F0020301934A
S31508004F101D200521019B00F0B1FA1D2003B05DF8A4
S31508004F2004EB00F0E9BA00BF000400400038024074
S31508004F3010B50B480B4C00234FF4E1310422C0E9AD
S31508004F400041C0E90233C0E90432C0E9063303F080
S31508004F50F9F900B910BDBDE81040FFF7CDBD00BF97
S31508004F60D80700200044004030B51C4B026889B0C1
S31508004F7000249A42CDE90344CDE90544079401D0BB
S31508004F8009B030BD03F5FA3301941A6C144842F49B
S31508004F9000321A641A6C02F400320192019A0294E1
S31508004FA01A6B42F001021A631B6B03F001030293AA
S31508004FB008220223CDE9032303A907230322CDE907
S31508004FC00623029D00F0CCFC22462146262000F04E
S31508004FD055FA262000F090FA09B030BD004400408A
S31508004FE000000240DFF834D0002103E00C4B5B5888
S31508004FF0435004310B480C4B42189A42F6D30B4ADD
S3150800500002E0002342F8043B094B9A42F9D3FFF722
S31508005010BFFE05F0F3F9FFF7ABFC7047000001206F
S315080050201CA7000800000020780200207802002053
S315080050301C470020FEE7000008B50B4B1A6842F42F
S3150800504000721A601A6842F480621A601A6842F49A
S3150800505080721A60032000F0FFF90020FFF71AFE9D
S31508005060FFF7F8FD002008BD003C0240034A044B48
S3150800507011681B780B441360704700BF180800209E
S3150800508004000020014B1868704700BF180800206C
S31508005090002800F09F8038B5056C04463DB1236CA6
S315080050A0DB060CD5002384F83C30012038BDFFF719
S315080050B073FA6564236C84F83C50DB06F2D4236CDF
S315080050C0484A23F4885323F0020343F00203236477
S315080050D05168236821F44031516051686068014382
S315080050E051605A682569A06822F480725A60596826
S315080050F041EA05215960596821F0407159605A689A
S3150800510002435A609968E06821F4006199609A68D8
S31508005110A16A02439A60344A914252D09868E56A75
S3150800512020F0706098609A6811439960996821F038
S31508005130405199609A682A439A609A6822F0020256
S315080051409A609A68217E42EA41029A6094F8202081
S31508005150002A41D05968626A41F40061596058686A
S3150800516020F460405860511E5A6842EA41325A603B
S31508005170DA6AE169656922F47002DA62DA6A013983
S3150800518042EA0152DA62996821F4007199609968D5
S3150800519094F8302041EA42219960996821F48061A7
S315080051A099609A68002042EA85229A606064236CB6
S315080051B023F0030343F001032364002384F83C30FF
S315080051C038BD9A6822F070629A609A6822F0405256
S315080051D09A60B2E7012070475A6822F400625A6062
S315080051E0C6E700BF002301400100000F10B490F885
S315080051F03C3083B00021012B01916DD00168012359
S3150800520080F83C308B680246D80714D4354B364CA8
S315080052101B688868A4FB03439B0C03EB430340F01D
S31508005220010088600193019B2BB1019B013B01930F
S31508005230019B002BF9D18868136C10F001002ED061
S3150800524023F4E06323F0010343F4807313644B688B
S315080052505B0505D5136C23F4405343F4805313645C
S31508005260136C13F480531CBF536C23F0060353646A
S3150800527000201E4B82F83C006FF022040C605A682E
S3150800528012F01F0216D1886810F040501FD18B68A3
S3150800529043F080438B6003B05DF8044B704743F0DE
S315080052A010031364536C43F00103536403B05DF8B1
S315080052B0044B70470E4B9942F8D18B6813F0405354
S315080052C0F4D18A6842F0804218468A60EEE71046B2
S315080052D003B05DF8044B7047022003B05DF8044B39
S315080052E0704700BF0000002083DE1B4300230140F7
S315080052F0002001400368D86C704700BF30B590F8AD
S315080053003C3083B00022012B019200F09C800123DF
S3150800531080F83C300C680368092C2DD81D698A680A
S3150800532004EB440E4FF0070C0CFA0EFC25EA0C05AC
S315080053301D611D6902FA0EF22A431A614A68062A95
S31508005340A4462FD802EB8202596B053A4FF01F0E7E
S315080053500CFA02FC0EFA02F221EA02025A635A6BAE
S315080053604CEA02025A63394A934230D0002380F845
S315080053703C30184603B030BD1FFA84FC0CEB4C02D7
S31508005380DD68A2F11E0E072202FA0EF225EA0202D3
S31508005390DA608A68DD6802FA0EF22A43DA604A6839
S315080053A0062ACFD90C2A02EB820236D8196B233A81
S315080053B01F250CFA02FC05FA02F221EA02021A6318
S315080053C01A6B4CEA02021A63204A9342CED1122C77
S315080053D032D0A4F11003012BC8D81D4A5368102CEB
S315080053E043F400035360C1D11A4B02F146721B689D
S315080053F002F52E3202F28332A2FB03239B0C03EB47
S3150800540083035B000193019B002BAFD0019B013BFB
S315080054100193019B002BF9D1A8E7D96A413A1F25C8
S315080054200CFA02FC05FA02F221EA0202DA62DA6AE8
S315080054304CEA0202DA6296E7D2F8043343F48003B0
S31508005440C2F8043392E7022003B030BD00200140C1
S3150800545000230140000000200749CA6803024FF6EE
S31508005460FF0003F4E0630240134343F0BF6343F4D1
S315080054700033CB60704700BF00ED00E01C4BDB68D3
S31508005480C3F3022300B5C3F1070EBEF1040F03F1FF
S31508005490040C28BF4FF0040EBCF1060F1BD9033BC2
S315080054A04FF0FF3C0CFA03FC22EA0C024FF0FF3CDB
S315080054B00CFA0EFC21EA0C019940002841EA020187
S315080054C00CDB00F16040090100F56140C9B280F8C3
S315080054D000135DF804FB00221346E7E7054B00F0CE
S315080054E00F0009010344C9B219765DF804FB00BF31
S315080054F000ED00E0FCEC00E0002808DB4109044A66
S3150800550000F01F00012303FA00F042F8210070475B
S3150800551000E100E038B50446FFF7B4FD002C67D07B
S3150800552023680022022184F8351084F834201A688A
S3150800553022F0010205461A6005E0FFF7A3FD431BAA
S31508005540052B39D823681A68D107F6D4D4E901207F
S31508005550E16802430A43D4E90451A0692A430A438D
S31508005560E1691D6802430A4333492940256A2A43EB
S315080055700A43616A042926D01A605A6922F007028A
S315080055801143D8B22D4A59611038A2FB00521209AC
S315080055902B4923F47F73895CE16523F003035F28B5
S315080055A088BF04333F228A40A36500209A600123FE
S315080055B0606584F8353038BD03232022626584F897
S315080055C03530184638BDD4E90B5129430A431A60C9
S315080055D05969A26A21F00701114341F00401002D1F
S315080055E0CFD038B9012A23D032F00202C9D108E057
S315080055F0012038BDB0F5005F0CD0022A03D9032A72
S31508005600BFD1EA01BDD501234022626584F8353051
S31508005610184638BD032AB4D801A050F822F000BFB6
S3150800562007560008035600080756000831560008B2
S31508005630B5F1C07FA5D1E6E73F8010F0ABAAAAAACC
S3150800564084A6000870B490F83440856D012C35D0D6
S3150800565090F835404FF0010C644580F834C005D009
S31508005660002380F8343070BC02207047022680F888
S315080056703560046800264665266826F48026266076
S3150800568063608368402B0EBFA260A160E260C26DB2
S3150800569008BFE1603F239340AB602368026C43F088
S315080056A0160323601AB1236843F0080323602368AE
S315080056B043F001030020236070BC7047022070BCD1
S315080056C0704700BF70B50446866DFFF7DBFC94F89B
S315080056D03530022B06D00023802284F834306265E8
S315080056E0012070BD23681A6822F016021A605A69EA
S315080056F022F080025A61226C054632B31A6822F0FB
S3150800570008021A601A6822F001021A6005E0FFF71B
S31508005710B9FC431B052B0FD823681B6813F001033C
S31508005720F5D1E16D3F228A400121B26084F8351037
S3150800573084F83430184670BD0320202200236265A1
S3150800574084F8343084F8350070BDA26C002AD5D1AF
S31508005750D8E700BF90F83530022B03D08023436585
S31508005760012070470268052380F83530136823F056
S3150800577001030020136070472DE9F04182B0744A96
S31508005780866D156800230193C36D346808229A4014
S315080057902242804604D001680F68780700F18A80A3
S315080057A001229A40224204D0D8F800104969090615
S315080057B078D404229A40224204D0D8F80010096806
S315080057C08F0767D410229A40224204D0D8F80010D6
S315080057D00F68380749D420229A40224217D0D8F8B1
S315080057E000100C68E00612D5B26098F83520052A34
S315080057F073D00B6813F4802F0B6800F090801903A0
S3150800580040F19B80D8F83C300BB140469847D8F811
S3150800581054303BB3D8F85430DA071BD5D8F80020F3
S315080058204C49052388F835301368A1FB051523F084
S315080058300103AD0A136002E01368DB0704D5019B78
S315080058400133AB420193F7D90122002388F83520AA
S3150800585088F83430D8F84C3023B1404602B0BDE859
S31508005860F041184702B0BDE8F081B2600A6812F448
S31508005870802F0A682AD1D70503D40A6822F00802BD
S315080058800A60D8F84020002AA5D040469047D8F8A4
S315080058905C30A0E7B260D8F8542042F00402C8F899
S315080058A054208FE7B260D8F8542042F00202C8F8B4
S315080058B054207EE70F6827F004070F60B260D8F817
S315080058C0542042F00102C8F8542069E71203D8D5DB
S315080058D0D8F84820002AD8D17DE70A6822F01602AF
S315080058E00A604A6922F080024A61D8F8402052B319
S315080058F00A6822F008020A603F2202FA03F3D8F87F
S315080059005010B3600122002388F8352088F8343017
S315080059100029A7D0404602B0BDE8F041084713F475
S3150800592080737FF46FAF0A6822F010020A600122C2
S3150800593088F8352088F8343064E7D8F84430002BE6
S315080059407FF463AF63E7D8F84820002AD0D1D3E7BD
S3150800595000000020B5814E1B90F83500704700BF47
S315080059602DE9F04F00220C68704E85B013464FF0B3
S31508005970010A894604E00133102B02F1020278D0AD
S315080059800AFA03F101EA040BA143F4D1D9F804C0D9
S315080059900CF003014D1E012D6ED9032940F0AE808F
S315080059A09140CD4307683D4029431CF4403F0160C0
S315080059B0E1D05F4D00210391696C41F4804169642F
S315080059C0696C01F480410391039923F0030101F105
S315080059D0804101F59C3103F00307D1F808E0BF00C8
S315080059E00F25BD402EEA0508524DA84217D005F5E9
S315080059F08065A84200F086804F4DA84200F0878057
S31508005A004E4DA84200F08A804D4DA8420CBF4FF07B
S31508005A10040E4FF0070E0EFA07F748EA0708C1F812
S31508005A200880B1686FEA0B071CF4801F0CBF394069
S31508005A304BEA0101B160F5681CF4001F0CBF3D403C
S31508005A404BEA0505F56075681CF4003F0CBF3D4040
S31508005A504BEA0505756031681CF4803F03F10103C4
S31508005A600CBF39404BEA0101102B316002F10202EA
S31508005A7086D105B0BDE8F08FD9F80C50876805FACD
S31508005A8002F8032505FA02FE27EA0E0748EA070781
S31508005A90876047686FEA0E0527EA0B0ECCF30017F6
S31508005AA09F4047EA0E074760C76807EA050ED9F818
S31508005AB00870974047EA0E070229C76001FA02F103
S31508005AC07FF470AF4FEAD30E00EB8E0E03F0070893
S31508005AD0DEF820700097D9F810704FEA880807FAA0
S31508005AE008F701970F2707FA08F8009F27EA08081A
S31508005AF0019F47EA0807CEF8207053E7032595402B
S31508005B00ED43D1E70AFA07F748EA070887E74FF0AF
S31508005B10020E0EFA07F748EA070880E74FF0030E69
S31508005B200EFA07F748EA070879E700BF003C014084
S31508005B30003802400000024000080240000C024003
S31508005B40001002400369194214BF01200020704763
S31508005B5002B9090481617047436901EA030221EA2F
S31508005B60030141EA02418161704700BF704700BFE7
S31508005B70044A5169014200D1704708B55061FFF7E0
S31508005B80F5FF08BD003C0140002800F0B98070B55B
S31508005B9090F83D30044603F0FF02002B00F0988091
S31508005BA02368242284F83D201A6822F001021A602C
S31508005BB01A6842F400421A601A6822F400421A600F
S31508005BC001F012FB63684F498B424FD84E4A904208
S31508005BD07CD94E4D5A00A5FB0035431EB3FBF2F3A4
S31508005BE02268506820F03F0040EA95405060A90CB2
S31508005BF001F1010C116A21F03F0141EA0C01116221
S31508005C00D16940F6FC7E013321F44F4113EA0E0FA9
S31508005C1021F0FF0161D104230B43D361D4E9073096
S31508005C201168034321F0C0010B4313609168D4E95E
S31508005C30030321F40341034321F0FF010B4393605F
S31508005C40D4E90530D168034321F0FF010B43D36043
S31508005C501168002341F0010120201160236484F8B3
S31508005C603D00236384F83E30184670BD284A9042AA
S31508005C702CD9264D274EA5FB002C2268556825F001
S31508005C803F0545EA9C4555604FEA9C414FF4967599
S31508005C9005FB01F1A6FB0151156A890925F03F05A7
S31508005CA0013129431162D169A56821F44F4121F0D8
S31508005CB0FF01ADB9013803EB4303B0FBF3F301333E
S31508005CC0C3F30B03D3B143F40043A5E7012070BD2A
S31508005CD080F83C20FEF7B6FD62E7C3F30B039BE7AB
S31508005CE003EB8303013803EB8303B0FBF3F30133C0
S31508005CF0C3F30B0313B143F440438DE701238BE74A
S31508005D0001207047A08601007F841E0083DE1B43A6
S31508005D10FF083D00D34D621090F83DC00CF0280CEA
S31508005D20BCF1280F30D100292CD0002A2AD030B453
S31508005D3090F83C40012C82B02DD004682568ED0708
S31508005D4024D5256825F400652560292580F83D5069
S31508005D5041622025002180F83E5001644285428D2B
S31508005D60C362019163690193A369019380F83C10AA
S31508005D70019B6368028543F4E0636360084602B0EA
S31508005D8030BC70470120704702207047256845F0EF
S31508005D9001052560D5E70220F1E700BF90F83DC070
S31508005DA00CF0280CBCF1280F30D100292CD0002A81
S31508005DB02AD030B490F83C40012C82B02DD004682B
S31508005DC02568ED0724D5256825F4006525602A256C
S31508005DD080F83D5041622025002180F83E5001643C
S31508005DE04285428DC362019163690193A369019358
S31508005DF080F83C10019B6368028543F4E0636360A6
S31508005E00084602B030BC7047012070470220704730
S31508005E10256845F001052560D5E70220F1E700BFB2
S31508005E2090F83D30202B01D00220704728220368C5
S31508005E3080F83D201A68D20703D41A6842F0010296
S31508005E401A601A6842F480621A605A6842F440720C
S31508005E5000205A60704700BF704700BF704700BFF8
S31508005E60704700BF704700BF704700BF90F83D20DD
S31508005E70016D034659B9C26C0168012A826C0DD0BE
S31508005E80C2F307220A61026D013202657047016D8D
S31508005E90012909D0016D02290ED07047D2B20A61D4
S31508005EA0026D023202657047826C0168D2B20A61DD
S31508005EB0026D013202657047D2B2222A1FD0418D87
S31508005EC089B2C1B9418D89B20029E6D1212AE4D126
S31508005ED0026810B5546824F4E0645460146844F405
S31508005EE0007414602022016380F83D2080F83E107B
S31508005EF0FFF7BAFF10BD212A0AD05B8D70470168EB
S31508005F000A6842F480720A60026D013202657047BF
S31508005F10416A026811F8010B10615A8D5962013AFB
S31508005F2092B25A85704700BF704700BF704700BFDE
S31508005F30704700BF70B53A4B3A491B68806B82B010
S31508005F40DB080022A1FB031301921B0A90F83D10FF
S31508005F50026803EB8303C3EBC303C9B2019305E0ED
S31508005F60019B013B019313689B0506D5019B002BFA
S31508005F70F6D1036C43F020030364446B4CB3836B84
S31508005F800025E563F3B11668DD6326F480661660BE
S31508005F904585256500241C65136823F001031360F5
S31508005FA090F83D30602B2AD001F02801282919D015
S31508005FB02022002380F83D2080F83E30FFF7B6FF08
S31508005FC002B070BD156825F48065156043852365A4
S31508005FD0E2E7836BF3B11568DC6325F48065156029
S31508005FE04485D7E7136843F0010313601368002458
S31508005FF043F480631360046380F83D10DEE70023F2
S31508006000202280F83D2080F83E300364FFF790FF99
S3150800601002B070BD146824F4806414604385BBE73D
S315080060200000002089B5F81410B590F83D2090F8C6
S315080060303E30102B0446D2B239D0D9B2402936D0D8
S3150800604002F0280128293DD023685968080507D495
S31508006050602A05D02021002284F83D1084F83E20CD
S31508006060002222635A6812F4006234D194F83D1073
S31508006070602975D05A69500605D5626A1B6913707E
S31508006080636A013363622046FFF750FF236C1907E2
S3150800609004D02268536823F4E063536094F83D30D3
S315080060A0226C5207DBB201D5282B2FD010BD222A2D
S315080060B0C6D123681A6822F400621A605A68120563
S315080060C0C8D5CDE700232363236884F83D105A68B2
S315080060D012F40062CAD05A68606B22F400625A60F1
S315080060E090F83530012B1ED0284B0365FFF732FB9D
S315080060F00028CBD02268606B1368202123F00103A7
S31508006100136084F83D10036D9847BFE700232049C4
S31508006110E16220222363204684F83D2084F83E303D
S31508006120FEF7D8FC10BDA06B184B0365FFF712FBF2
S315080061300028ABD023685A69510606D5626A1B69DE
S315080061401370626A2368013262621A68A06B22F0D1
S31508006150010220211A6084F83D10036D984795E7DF
S31508006160202184F83D1022645A69520606D5626ACF
S315080061701B691370626A2368013262621A6822F028
S31508006180010220461A60FFF7D3FE7FE7355F000855
S315080061900000FFFF70B5036804465868E56A94F87E
S315080061A03E1094F83D2010298EB0D2B25FFA81FCD9
S315080061B024D0BCF1400F21D0216C002900F0978033
S315080061C05969002511F0020FC1F3400659D086051A
S315080061D05AD5226C02B19D6994F83D2002F0280236
S315080061E0282A00F0218200220C9259690C919B6999
S315080061F00C930C9B84F83C200EB070BD9E695969BF
S3150800620011F0010F1AD1B5F52A0FF5D0B5F12A4FBD
S31508006210F2D00D076ED5850540F18480626C616BFE
S31508006220D2B21A61002900F0E681CA6B002A00F092
S31508006230E2815A6842F400625A60DDE785056FD547
S31508006240E26AB2F52A0F00F0EC81E26AB2F12A4F4F
S3150800625004BF0822E26294F83E20402A00F0DA8160
S315080062602269B2F5804F00F0B581226D002A40F010
S31508006270EF81626CD21102F0060242F0F0021A6156
S31508006280BAE7CD0600F1868002F0F702212A00F06F
S31508006290FF804E0640F13381450540F130814907BC
S315080062A000F1308194F83D10628D92B2C9B2002A8D
S315080062B0A2D0626A1B691370638D626A013B9BB246
S315080062C06385638D01329BB26262002B94D12A29C1
S315080062D092D1226853682225282123F480635360CB
S315080062E02046256384F83D10FFF7BCFD84E79D69C9
S315080062F0596967E78D0715D5850513D594F83E20A6
S31508006300E06A256B94F83D102229D2B200F0B481D8
S3150800631000220A925A690A929B690A930A9B6BE7BA
S315080063200D07E7D5750740F1F6805D682E053FF540
S3150800633063AF0D0640F11681460540F113814D07FE
S3150800634000F1138194F83D20208D94F83E10E56AFB
S31508006350D2B2C9B2002840F03C82212A00F0D3828A
S3150800636040297FF449AF222A7FF446AF628D92B264
S31508006370002A00F0718294F83E20402A00F0FF803F
S31508006380626A12F8011B1961638D6262013B9BB256
S31508006390638531E785057FF577AF94F83D505A68F0
S315080063A022F4E0625A600D965A690D921A6842F014
S315080063B001021A600D9A1A6822F480621A605A68F5
S315080063C01105EDB221D505F0F702222A00F07181F8
S315080063D0606B0268526892B26285628D92B21AB197
S315080063E0226C42F0040222645A6822F400625A605F
S315080063F0FFF7B2FA012808D0606B9B4B0365FFF7DD
S31508006400A9F910B1606B036D9847638D9BB213B3FE
S3150800641023685A6952070AD5626A1B691370628D26
S31508006420636A013A591C92B22368616262855A69A5
S31508006430560609D5626A1B691370638D626A013B49
S3150800644001329BB262626385638D9BB21BB1236C7A
S3150800645043F004032364236C002B40F0D5802A2DD7
S3150800646000F0488194F83D30282B00F04B81236BCF
S31508006470222B02D0222D7FF4BFAE002320222363D5
S31508006480204684F83D2084F83E30FFF7EBFCB3E65F
S315080064900D0628D5460526D54D0727D494F83D0080
S315080064A0618D89B2C0B200293FF4A6AE616A11F8BF
S315080064B0015B1D616162618D013989B26185618DFA
S315080064C089B200297FF498AE29287FF495AE5968D9
S315080064D0282521F4806159602046226384F83D50BE
S315080064E0FFF7BEFC88E649077FF586AE82057FF58D
S315080064F083AE628D92B2002A3FF47EAE40E74A0729
S315080065007FF57AAE86057FF577AE628D92B2002A60
S315080065103FF472AE1BE05A6815053FF56DAE4A06A4
S3150800652033D449077FF568AE82057FF565AEE16A23
S31508006530628D92B2042A00F01981628D92B2032A02
S3150800654000F05981628D92B2022A00F08A81626A4D
S315080065501B691370638D626A013B01329BB26262EA
S31508006560638549E649077FF547AE86057FF544AE5C
S31508006570212A00F00381BCF1400F7FF43DAE20468E
S315080065800EB0BDE87040FFF771BC4605C9D54D078A
S31508006590C1F38002C8D494F83D1022297FF42CAEAA
S315080065A0618D89B2032940F2C581626A1B6913703D
S315080065B0638D626A013B9BB26385638D9BB2013230
S315080065C0032B62627FF418AE2268536823F4806353
S315080065D0536011E694F83D20212A626C16BF42F0FA
S315080065E0010202F0FE02D2B21A61626B1AB1D26BD4
S315080065F0002A7FF41EAEA26B002A3FF4FDADD26BD3
S31508006600002A7FF416AEF7E520460EB0BDE87040C6
S31508006610FFF70ABD226D4ABB626C02F0FE021A61E0
S31508006620EAE50122E26216E65A6822F480625A60B6
S315080066302E066FEA95014FF0000354BFA289228BFC
S3150800664084F83C3001F001012046FEF749FAD3E50B
S31508006650226D012A7FF4D0AD626CD21102F00602D7
S3150800666042F0F1021A61C7E5355F0008626C42F034
S315080066700102D2B21A61BFE5216D11B9402A00F0B4
S31508006680A180226D22B92169B1F5404F00F0A5809D
S31508006690628D92B2002A42D103925A6903929A698C
S315080066A00392039A1A6842F400721A60002323655B
S315080066B0A2E5A06B0268526892B26285628D92B2B8
S315080066C01AB1226C42F0040222645A6822F400626B
S315080066D05A60FFF741F901283FF497AEA06B9D4B2E
S315080066E00365FFF737F800283FF48FAEA06B036DFC
S315080066F098478AE628222363204684F83D20FFF738
S31508006700B1FBAFE600239449E162202223632046C9
S3150800671084F83D2084F83E30FEF7DCF96CE5628D9E
S3150800672092B2012A76D0628D92B2022A00F0528184
S315080067301A6842F480621A605A6812050ED510F576
S31508006740803F07D001381F2808D8844A22FA00F06B
S31508006750C60703D55A6842F480525A600022099245
S315080067605A6909929B690993099B9FE75A68616A66
S3150800677022F480625A601B690B70EBE6E16A94F8B2
S315080067803D20212A7FF438AD628D92B2002A7FF42B
S31508006790F7AD082900F09F80202900F09C8011F5AC
S315080067A0803F00F09880596821F4E0615960112013
S315080067B02023206384F83E20204684F83D30FFF7E6
S315080067C04BFB19E501915A6901929B690193019B5B
S315080067D012E5212A3FF4CAADC2E502925A6902922D
S315080067E09A690292029A1A6842F480721A60236DB4
S315080067F00133236500E55A68042922F480625A6049
S315080068003FF4A5AE02293FF4A2AE1A6822F48062CC
S315080068101A609CE610F5803F00F0FC80082800F01E
S31508006820C980202800F0C680122D00F03281102879
S3150800683000F231814A4A22FA00F0C10740F12B8161
S315080068401A6842F480621A60002206925A69069211
S315080068509B690693069B29E75A6822F480625A6068
S31508006860CAE401291A6800F0D180102900F0CE8008
S31508006870042900F00A81022900F0078142F4007217
S315080068801A60626A1B691370638D626A2168013B2C
S315080068909BB263850B69511C61625370638D2168D5
S315080068A0626A013B9BB263854B68013223F44073ED
S315080068B0202062624B6084F83D0094F83E30402BFD
S315080068C000F0BC800022122384F83E202046236371
S315080068D0FFF7C4FA90E4596821F4E0615960196831
S315080068E00022202041F400711960226384F83D00DB
S315080068F094F83E3084F83E20402B20467FF45FAF64
S31508006900FFF7B2FA78E4082DE5D0202DE3D015F587
S31508006910803FE0D05A6822F4E0625A6011200021D4
S315080069202023206384F83E10204684F83D30FFF784
S3150800693093FA61E4E06A02288ED001298CD80949C5
S315080069400B92096846F2A810B1FBF0F101EB810140
S315080069500B910EE0355F00080000FFFF8180008084
S3150800696014000100000000201A6812F4007200F0FA
S3150800697097800B9A013A0B920B990029F4D1226C55
S31508006980606A42F0200222645A6822F4E0625A6081
S315080069901B690370638D626A013B01329BB220203A
S315080069A06385626284F83D00204684F83E10FFF74E
S315080069B0BDFA21E41A68002122F480621A60079160
S315080069C05A6907929A690792079A1A6842F40072F6
S315080069D01A606BE610283AD91A6822F480621A609F
S315080069E01A6842F400621A605A68160506D510F548
S315080069F0803F37D15A6842F480525A600022089282
S31508006A005A6908929B690893089B4FE622F48062AC
S31508006A101A6036E71A6822F480621A605A6812F415
S31508006A20006227D01A68002122F480621A60049155
S31508006A305A6904929B690493049B37E6002384F8F9
S31508006A403E3020462363FFF76FFAFFF7D5BB254A8A
S31508006A50C240D207C0D51A6842F480621A605A68E2
S31508006A601505CBD501381F28C8D81F4AC240D107FB
S31508006A70C4D5BFE705925A6905929A690592059A9F
S31508006A801A6842F400721A6010E642F480621A60CC
S31508006A90F7E601288ED11A6822F480621A60D3E6D6
S31508006AA01968606A21F480611960596821F4E06107
S31508006AB059601B690370638D013B20219BB2638576
S31508006AC084F83D10636A94F83E10013340296362E6
S31508006AD07FF4F9AE84F83E2020462263FFF724FAB5
S31508006AE0FFF78ABB140001008180008030B5036877
S31508006AF05C695A6890F83E10E50583B05FFA81FC38
S31508006B0033D5D1054FEA122E2FD56FF480725A610C
S31508006B10A2053CD4620572D50121428D90F83DE06C
S31508006B20056BBCF1200F92B25FFA8EFE3DD06FF472
S31508006B308062BCF1100F41F004015A6102D0BCF129
S31508006B40400F03D11A6842F400721A60220504D570
S31508006B506FF4006241F008015A61036C194301643D
S31508006B6003B0BDE83040FFF75FBAA50503D5D105E8
S31508006B704FEA122E17D46505C4F3802103D42405E1
S31508006B8034D403B030BDD105FBD50021C5E70321B8
S31508006B906FF400725A616205BFD42405DDD51EF074
S31508006BA0010FD5D1D9E70221F2E7CAB90EF0F702EB
S31508006BB0212A04D0BEF1280F12D1212D10D190F828
S31508006BC03D20C56A082DD2B21ED0202D1CD0212A00
S31508006BD037D06FF480625A6125050CD50368B7E78C
S31508006BE06FF480625A6141F00401AFE74FEA122E52
S31508006BF01EF0010FACD10029AFD103B030BD250579
S31508006C004FF00101F4D4A8E7282AE0D11A4AC26253
S31508006C105A68019122F4E0625A606FF480625A6100
S31508006C201A68009022F480621A6000232022036307
S31508006C3080F83D2080F83E30FDF74CFFDDE9000185
S31508006C40CAE70D4DC5620263202280F83D20002266
S31508006C5080F83E205A68019122F4E0625A606FF487
S31508006C6080625A611A68009022F480621A60FFF7FF
S31508006C70F7F8DDE90001AFE70000FFFF002800F0A4
S31508006C80A2812DE9F0410368DD0782B004462FD5BD
S31508006C909E498A6802F00C02042A00F0ED808A6890
S31508006CA002F00C02082A00F0E3806368B3F5803F1F
S31508006CB000F0EC80B3F5A02F00F07581934D2A689B
S31508006CC022F480322A602A6822F480222A60002B65
S31508006CD040F0E180FEF7D6F9064605E0FEF7D2F960
S31508006CE0801B642800F201812B689B03F6D4236875
S31508006CF09F0728D5854A916811F00C0F00F09080FF
S31508006D00916801F00C01082900F08680E368002BE1
S31508006D1000F00E817E4B7D4E01221A60FEF7B2F915
S31508006D20054605E0FEF7AEF9401B022800F2DD80B5
S31508006D3033689807F6D53368226923F0F80343EADF
S31508006D40C203336023681A0751D458072FD56F4AF0
S31508006D50136C13F080537FD000256E4E3368D90527
S31508006D6040F1B380A368012B00F0C380052B00F027
S31508006D702C81664E326F22F001023267326F22F0A2
S31508006D8004023267002B40F0B980FEF77BF941F226
S31508006D908838074605E0FEF775F9C01B404500F23E
S31508006DA0A480336F9807F6D4002D40F00681A069B9
S31508006DB0C8B1564DAB6803F00C03082B00F0C98028
S31508006DC0534B002202281A6600F00981FEF75AF989
S31508006DD0044605E0FEF756F9001B022800F28580F6
S31508006DE02B689B01F6D4002002B0BDE8F0816369E8
S31508006DF00BB3474B454E0122C3F8802EFEF742F9E6
S31508006E00054604E0FEF73EF9401B02286DD8736F6D
S31508006E109B07F7D5236898E7526856023FF576AF81
S31508006E203A4A1268950744D5E268012A41D00120FA
S31508006E3002B0BDE8F081364A344EC2F8803EFEF70D
S31508006E4021F9054604E0FEF71DF9401B02284CD837
S31508006E50736F9F07F7D4DDE70193136C43F08053F4
S31508006E601364136C03F080530193019B012574E7A7
S31508006E704A6850027FF519AF244A126891037FF5D4
S31508006E8037AF6268002A7FF433AFD0E71F4A13682A
S31508006E9043F480331360FEF7F5F81C4E054604E00C
S31508006EA0FEF7F0F8401B64281FD833689A03F7D515
S31508006EB01DE7164920690A6822F0F80242EAC0026C
S31508006EC00A601A077FF541AF91E7336843F4807388
S31508006ED03360FEF7D7F807463368DA053FF542AF61
S31508006EE0FEF7D0F8C01B0228F6D9032002B0BDE889
S31508006EF0F081064A136F43F001031367FEF7C2F8E1
S31508006F00024F064641F288380BE000BF00380240BF
S31508006F100000474200700040FEF7B4F8801B404569
S31508006F20E3D83B6F9B07F7D5002D3FF440AF44E00D
S31508006F30424A434E1360FEF7A5F8054604E0FEF7FD
S31508006F40A1F8401B0228D0D833689907F7D42368DC
S31508006F50F9E601283FF448AF6B68E26903F480015B
S31508006F6091427FF464AF226A03F03F0191427FF4B5
S31508006F705EAF616A47F6C0721A40B2EB811F7FF4B2
S31508006F8056AFA26A520803F44031013AB1EB024FF8
S31508006F907FF44DAFE26A03F07063B3EB026F14BF80
S31508006FA00120002020E7264B1A6842F480221A6046
S31508006FB01A6842F480321A606DE7214A136C23F08E
S31508006FC080531364F3E6012070471D4B1A6F42F095
S31508006FD004021A671A6F42F001021A678EE7FEF773
S31508006FE051F8064605E0FEF74DF8801B02283FF6E5
S31508006FF07CAF2B689901F6D4D4E90731626A0B4352
S3150800700043EA8213D4E90A21520843EA0163013AA2
S315080070100A4943EA024301226B600A66FEF732F820
S31508007020074D044605E0FEF72DF8001B02283FF63B
S315080070305CAF2B689A01F6D5D5E600BF000047423B
S3150800704000380240164908B58B6803F00C03042B78
S315080070501BD0082B17D14A684B68496813F480037C
S3150800706002F03F0213D10F48C1F38811A1FB0001BA
S31508007070FDF7D6F80A4B5B68C3F3014301335B009F
S31508007080B0FBF3F008BD074808BD074808BD064829
S31508007090C1F388110023A1FB0001FDF7C1F8E9E758
S315080070A0003802400024F400001BB700002800F056
S315080070B08780484A136803F007038B422DE9F0419D
S315080070C00D46044609D2CBB21370136803F00703C2
S315080070D08B4202D00120BDE8F0812368980714D5B9
S315080070E0590704D53C498A6842F4E0528A601A076F
S315080070F004D539498A6842F460428A603649A068EC
S315080071008A6822F0F00202438A60DF0721D56268A6
S31508007110012A57D0931E012B2F4B1B684DD999076F
S31508007120D8D52D4EB36823F003031343B360FDF798
S31508007130A9FF41F28838074604E0FDF7A3FFC01B04
S31508007140404544D8B368626803F00C03B3EB820F7A
S31508007150F3D1204A136803F00703AB4206D9EBB212
S315080071601370136803F00703AB42B3D123685A07B9
S3150800717006D51949E0688A6822F4E05202438A6013
S315080071801B0707D5144A2169936823F4604343EA29
S31508007190C1039360FFF756FF0F4A104C92681049D7
S315080071A0C2F303120346A25C0E48D34000680B6084
S315080071B0FDF770FD0020BDE8F0819801B1D489E79C
S315080071C001207047044B1B689E03AAD482E703205C
S315080071D081E700BF003C0240003802406CA6000868
S315080071E00000002008000020044B05499B68054A5A
S315080071F00868C3F38223D35CD8407047003802403E
S31508007200000000207CA60008044B05499B68054A37
S315080072100868C3F34233D35CD8407047003802404D
S31508007220000000207CA600080E4B0F2202609A6818
S3150800723002F0030242609A6802F0F00282609A68DD
S3150800724002F4E052C2609B68DB0810B403F4E05312
S31508007250054C036123685DF8044B03F007030B60D4
S31508007260704700BF00380240003C02402DE9F0415B
S3150800727082B01E4614460D460746FDF703FF264410
S31508007280361AFDF7FFFE264B1B68C3F3CB3306FB06
S3150800729003F3804601933A6801E0631C07D19368BB
S315080072A035EA0303F9D0002002B0BDE8F081FDF706
S315080072B0E9FEA0EB0800B04208D2019B002B019B17
S315080072C003F1FF3308BF00260193E4E7D7E900314D
S315080072D05A68B1F5827F22F0E0025A6014D0BA6A81
S315080072E0B2F5005F07D00122002387F8512087F8FE
S315080072F050300320D8E71A6822F400521A601A6838
S3150800730042F400521A60EEE7BA68B2F5004F02D0AE
S31508007310B2F5806FE3D11A6822F040021A60DEE700
S315080073200000002038B513464268B2F5827F04464D
S3150800733006D00A460121FFF799FF78B9002038BD23
S315080073408268B2F5004F1CD0B2F5806F0CD00A46A1
S3150800735020468021FFF78AFF0028EFD0636D43F0AF
S3150800736020030320636538BD05680A46296821F0AD
S31508007370400129600121FFF779FF0028EED100209E
S31508007380DDE70068026822F0400202600A462046ED
S315080073908021FFF76BFF0028D0D0DFE730B5164B0A
S315080073A0164C1B68A4FB033C436883B04FEA5C5C3D
S315080073B04FF47A7505FB0CF5B3F5827F0446019503
S315080073C007D10CE0019B2268013B019393681B06D9
S315080073D002D5019B002BF5D1002003B030BD134622
S315080073E00A468021FFF742FF0028F5D0636D43F077
S315080073F0200303206365F0E700000020819F5E16E6
S3150800740000285CD0416A70B50446002947D000239D
S31508007410C0E9043394F851200023A36202F0FF0068
S31508007420002A42D09C462568A268022384F8513077
S315080074302B6823F040032B60636802F4044203F4CC
S3150800744082731343E26802F400621343226902F06E
S3150800745002021343626902F001021A43E36901F06A
S31508007460100003F03806A169236A03F0800E01F4C0
S31508007470007313433343090C43EA0E0301F0040176
S3150800748043EA0C0301432B606960EB69002023F48F
S3150800749000630122EB61606584F8512070BD436882
S315080074A0B3F5827FB6D0C161B4E784F850002046B0
S315080074B0FDF740FBD4E9091303F4005CB3E70120A8
S315080074C0704700BF38B5044690F8500001286AD0C6
S315080074D0012084F8500094F8510001285FFA80FCD6
S315080074E00ED06068B0F5827F04D00220002384F8AD
S315080074F0503038BDA0680028F7D1BCF1040FF4D18C
S3150800750000294ED0002A4CD0002B4AD094F85100BE
S31508007510216304281CBF052084F8510000206065FB
S31508007520E386E38794F85110A3860429A387C4E960
S31508007530100008BF2149E06C0EBF214B2149224BA0
S31508007540A263224DC0E90F31E38F2168C564002587
S315080075509BB20C310565FEF775F830BB2268A16C45
S31508007560536843F001035360E38E0C32C1E90F0000
S31508007570C1E913009BB20846216BFEF763F8A0B970
S3150800758023681A68520603D41A6842F040021A6041
S315080075905A6842F020025A605A6842F002025A605B
S315080075A0A4E70120A2E7022038BD636D012243F05B
S315080075B010036365104684F8512097E74176000862
S315080075C08576000851760008F1760008617600088D
S315080075D090F85020012A0DD010B40468626803465A
S315080075E0002142F00302626083F8501008465DF8F5
S315080075F0044B70470220704738B50446806C10B1BA
S31508007600FEF760F8A0B90025E06C38B1FEF75AF825
S3150800761020B1636D43F01003012563652268536842
S31508007620012123F00303536084F85110284638BD1E
S31508007630636D43F0100301256365E5E7704700BFF6
S3150800764008B5806BFFF7FAFF08BD00BF704700BF9B
S3150800765008B5806BFFF7FAFF08BD00BF704700BF8B
S31508007660806B026808B5536823F003035360436DC3
S31508007670012143F01003436580F85110FFF7EEFF30
S3150800768008BD00BF38B50546846BFDF7FBFC2B68C3
S315080076901B68DB0517D4236859680246A06821F0E1
S315080076A020015960B0B1596821F00101596064217F
S315080076B02046FFF737FE50B901230022E28784F8F7
S315080076C05130636D7BB92046FDF774F938BD202328
S315080076D06365F1E76168B1F5827FE4D1596821F005
S315080076E003015960E3E72046FFF7B8FF38BD00BF3E
S315080076F038B50546846BFDF7C5FC2B681B68DB05AA
S315080077001BD402462068436823F0200343606421A3
S315080077102046FFF743FE18B1636D43F02003636507
S3150800772021684B68002223F0030301204B60E286A0
S31508007730E28784F85100636D1BB92046FDF730F9DE
S3150800774038BD2046FFF78AFF38BD00BF30B502684E
S315080077505168936813F0400F85B00446C3F380154B
S3150800776005D113F0010F02D011F0400F7AD1980716
S3150800777001D5080670D413F0200FC3F3401049D082
S31508007780880645D575B194F8510003286CD0606D0C
S3150800779040F00400606500200090D0680090906872
S315080077A000900098606D40F001006065002002902E
S315080077B090680290106820F0400010600298C3F3A9
S315080077C00023002B3ED1636D13B3536823F0E00307
S315080077D0536001208B0784F851004DD05368E06C44
S315080077E023F00303536040B1254B0365FDF7B2FF51
S315080077F018B1636D43F040036365A06C40B1204B3C
S315080078000365FDF7A7FF18B1636D43F04003636591
S3150800781005B030BD95B18D06FAD594F85150032DB3
S3150800782022D0656D45F0040565650090D068009026
S31508007830906800900098C3F30023C2E7DD05E7D5FA
S315080078408B06E5D5636D002043F008036365039056
S3150800785093680393039BB6E7636C204605B0BDE8BF
S3150800786030401847036CF9E700230193D368019366
S3150800787093680193019BCBE72046FFF7EFFEC7E726
S315080078808578000808B5806B0023C387C386FFF791
S31508007890E5FE08BD90F83D30012B27D10368154950
S315080078A0022280F83D20DA688B4242F00102DA6053
S315080078B011D0B3F1804F0ED00F4A93420BD002F588
S315080078C08062934207D002F58062934203D002F5A4
S315080078D09A32934204D19A6802F00702062A07D020
S315080078E01A6842F0010200201A60704701207047AA
S315080078F0002070470000014000040040704700BFA8
S315080079008446002946D190F83E3090F84220D8B2F5
S31508007910D3B2012802D1012B02D07047012070474B
S31508007920002946D10222DCF800308CF83E208CF87B
S315080079304220DA6842F00202DA60186A012201F08F
S315080079401F0102FA01F120EA01001862186A3D4A8D
S3150800795001439342196212D0B3F1804F0FD0A2F5BA
S315080079607C4293420BD002F58062934207D002F51F
S315080079708062934203D002F59A32934204D19A6800
S3150800798002F00702062A5BD01A6842F001020020BC
S315080079901A60704704294CD008290BBF90F840306C
S315080079A090F8413090F8442090F84520D8B2D3B2E8
S315080079B0AFE704292AD008291CD002220B1F8CF80D
S315080079C041208CF84520082BA8D801A252F823F0AC
S315080079D0177A00081D7900081D7900081D79000826
S315080079E0FF7900081D7900081D7900081D7900082F
S315080079F0257A000802238CF840308CF84430DCF8ED
S31508007A000030DA6842F00802DA6096E702238CF85A
S31508007A103F308CF84330DCF80030DA6842F0040274
S31508007A20DA608AE7DCF80030DA6842F01002DA60D9
S31508007A3083E790F83F3090F84320D8B2D3B268E78E
S31508007A4000206AE70000014090F83C30012B75D011
S31508007A50024630B40223046882F83D30012082F8D9
S31508007A603C00A36823F47F4323F07703A3600B68E5
S31508007A70602B65D024D8402B7CD04BD9502B17D1FE
S31508007A804868CD68216A236A23F001032362A36943
S31508007A9021F00A0123F0F003014343EA0513A36129
S31508007AA02162A36823F0700343F057030020A36004
S31508007AB00121002382F83D1082F83C3030BC704723
S31508007AC0B3F5805F38D0B3F5005F10D1D1E9015323
S31508007AD0A0682B43CD6820F47F4143EA05230B4376
S31508007AE0A360A36843F480430020A360E0E7702BFB
S31508007AF0DED1D1E90153A0682B43CD6820F47F413C
S31508007B0043EA05230B43A360A36843F077030020E9
S31508007B10A360CDE7202B02D00AD9302BC8D1A168A3
S31508007B2021F070010B4343F007030020A360BFE771
S31508007B3033F01001BCD1F2E70020B9E70220704704
S31508007B40206ACB684D6820F010002062A16921F4F4
S31508007B50704141EA0331236AA16123F0A00343EA95
S31508007B6005132362A36823F0700343F0670300201C
S31508007B70A3609DE74868CD68216A236A23F001035C
S31508007B802362A36921F00A0123F0F003014343EAC3
S31508007B900513A3612162A36823F0700343F047032A
S31508007BA00020A36084E700BF704700BF704700BF8E
S31508007BB0704700BF03681A69910710B5044602D5D5
S31508007BC0DA6892075FD41A69500702D5DA6851074E
S31508007BD046D41A69120702D5DA6810072ED41A692C
S31508007BE0D20602D5DA68D00618D41A69D10702D5A2
S31508007BF0DA68D2075DD41A69100602D5DA68110662
S31508007C005FD41A69520602D5DA68500661D41A6931
S31508007C10910602D5DA68920643D410BD6FF01001BA
S31508007C20082219612277DB6913F4407F204664D065
S31508007C30FCF7C2FE002223682277D6E76FF0080118
S31508007C40042219612277DB699907204652D1FFF78A
S31508007C50ABFF2046FFF7AAFF002223682277BEE77C
S31508007C606FF004010222196122779B6913F4407FA1
S31508007C7020463CD1FFF798FF2046FFF797FF0022E2
S31508007C8023682277A5E76FF00201012219610277BE
S31508007C909B699B0725D0FCF78FFE00222368227775
S31508007CA091E76FF0200220461A61BDE8104000F007
S31508007CB0E5B96FF001021A612046FCF713FF236845
S31508007CC099E76FF080021A61204600F0D9F9236817
S31508007CD097E76FF040021A612046FFF769FF2368AD
S31508007CE095E7FFF761FF2046FFF760FFD5E7FCF74A
S31508007CF063FEC4E7FCF760FEAEE7FFF755FF2046D4
S31508007D00FFF754FF96E700BF2A4A0368904230B44B
S31508007D1039D0B0F1804F21D0A2F57C4290421DD0D7
S31508007D2002F58062904219D002F58062904215D021
S31508007D3002F59A32904215D002F58062904211D02F
S31508007D4002F5806290420DD04D698C680A6823F06E
S31508007D5080032B430360C462826210E04A6823F002
S31508007D6070031343CC684A6923F44073234323F012
S31508007D7080038C6813430A680360C4628262012325
S31508007D8030BC436170474C68CA6823F070032343CC
S31508007D9023F4407313434A6923F0800313430360B3
S31508007DA08B68C3620B6883620B690363012330BC6B
S31508007DB0436170470000014050B310B590F83D305C
S31508007DC0044603F0FF02F3B12146022384F83D304E
S31508007DD051F8040BFFF798FF012384F8463084F81E
S31508007DE03E3084F83F3084F8403084F8413084F8D7
S31508007DF0423084F8433084F8443084F8453084F8B7
S31508007E003D30002010BD80F83C20FDF753F8DBE735
S31508007E100120704750B310B590F83D30044603F082
S31508007E20FF02F3B12146022384F83D3051F8040BD2
S31508007E30FFF76AFF012384F8463084F83E3084F859
S31508007E403F3084F8403084F8413084F8423084F872
S31508007E50433084F8443084F8453084F83D300020B7
S31508007E6010BD80F83C20FFF749FDDBE7012070478D
S31508007E7070B4056A174E25F001050562B04284699B
S31508007E80056A15D0B0F1804F12D0A6F57C46B042EF
S31508007E900ED006F58066B0420AD006F58066B04276
S31508007EA006D006F59A36B04202D044F0010202E046
S31508007EB024F0030422431B0125F00A0422F0F002F1
S31508007EC0DBB201F00A0121431343836170BC0162EE
S31508007ED0704700BF00000140F8B590F83C30012B10
S31508007EE047D0044601200E46154684F83C004AB1A0
S31508007EF0042A18D0082A3ED00C2A60D0002384F819
S31508007F003C30F8BDCB682068D1E90012FFF7B0FF16
S31508007F102368B668996921F00C0199619A69324318
S31508007F2028469A61EAE72368CA681D6A25F010059B
S31508007F30D1E900071D628D68996921F44071120321
S31508007F4041EA072121F4704192B20A43196A9A61FB
S31508007F50000100F0A00021F0A0010143196299690F
S31508007F6021F4406199619A6942EA052200209A61E2
S31508007F70C4E70220F8BD2368F2681D6A25F48075F7
S31508007F80D1E900011D62B568DE6926F00306120113
S31508007F90314321F0F001D2B20A43196ADA610002CC
S31508007FA000F4206021F4206101431962D96921F0A7
S31508007FB00C01D961DA692A430020DA619EE7236851
S31508007FC0CA681D6A25F48055D1E900071D628D68C7
S31508007FD0D96921F44071120341EA072121F470415D
S31508007FE092B20A43196ADA61000300F4204021F4C8
S31508007FF0204101431962D96921F44061D961DA69DE
S3150800800042EA05220020DA6178E700BF90F83C30A2
S31508008010012B2FD00368022230B480F83D205A681D
S315080080200D689C6822F070022A435A60124A9342ED
S3150800803012D0B3F1804F0FD0A2F57C4293420BD0F9
S3150800804002F58062934207D002F58062934203D01C
S3150800805002F59A32934204D14A6824F08004144304
S315080080609C600023012280F83D2080F83C3030BC1B
S31508008070184670470220704700000140704700BF4D
S31508008080704700BF026811692DE9F8430446C068C5
S31508008090A368256921F4405101431161D168E0695B
S315080080A02B43656921F416412B4321F00C01034348
S315080080B00B43D3605369A16923F440730B43B0F5AE
S315080080C0004F53619D4B00F09C809A425AD003F5AD
S315080080D080639A4256D0FFF787F8DFF864826368B0
S315080080E000EB800000EB80009B00B0FBF3F3A8FBDD
S315080080F003235B091F01FFF777F8656800EB80002B
S3150800810000EB8000AD00B0FBF5F5FFF76DF863688E
S3150800811000EB80009B0000EB8000B0FBF3F0A8FBAF
S31508008120003040094FF0640909FB10531B01323334
S31508008130A8FB03235B0903F0F006FFF755F865680B
S3150800814000EB800303EB8303AD00B3FBF5F5FFF704
S315080081504BF8D4E9002300EB800000EB80009B007D
S31508008160B0FBF3F3A8FB03135B0909FB13531B01CD
S315080081703233A8FB0313C3F3431333433B449360DF
S31508008180BDE8F883FFF740F8DFF8B481636800EBD1
S31508008190800000EB80009B00B0FBF3F3A8FB0323F1
S315080081A05B091F01FFF730F8656800EB800000EBFC
S315080081B08000AD00B0FBF5F5FFF726F8636800EB25
S315080081C080009B0000EB8000B0FBF3F0A8FB0030BA
S315080081D040094FF0640909FB10531B013233A8FB11
S315080081E003235B0903F0F006FFF70EF8656800EB5A
S315080081F0800000EB8000AD00B0FBF5F5FFF704F852
S31508008200A7E79A425AD003F580639A4256D0FEF7FA
S31508008210EBFFDFF82C81636800EB800000EB800041
S315080082205B00B0FBF3F3A8FB03235B091F01FEF712
S31508008230DBFF656800EB800000EB80006D00B0FB9B
S31508008240F5F5FEF7D1FF636800EB800000EB8000D0
S315080082505B00B0FBF3F3A8FB03235B094FF064094B
S3150800826009FB1353DB003233A8FB03231B0903F472
S31508008270F876FEF7B9FF656800EB800303EB830326
S315080082806D00B3FBF5F5FEF7AFFFD4E9002300EB6D
S31508008290800000EB80005B00B0FBF3F3A8FB031340
S315080082A05B0909FB1353DB003233A8FB0313C3F343
S315080082B042133B4433449360BDE8F883FEF7A4FFBA
S315080082C0DFF87C80636800EB800000EB80005B00D1
S315080082D0B0FBF3F3A8FB03235B091F01FEF794FF2A
S315080082E0656800EB800000EB80006D00B0FBF5F5DB
S315080082F0FEF78AFF636800EB800000EB80005B00F6
S31508008300B0FBF3F3A8FB03234FF064095B0909FBF1
S315080083101353DB003233A8FB03231B0903F4F87657
S31508008320FEF772FF636800EB80005B0000EB8000DD
S31508008330B0FBF3F5FEF768FFA7E700BF00100140A2
S315080083401F85EB5160B338B590F83930044603F011
S31508008350FF0203B32268242384F83930D36823F450
S3150800836000532046D360FFF78DFE23681A6922F46E
S3150800837090421A615A6922F02A025A61DA6800257F
S31508008380202142F40052DA60E56384F8391084F853
S315080083903A10284638BD80F83820FCF7E5FDD9E7BD
S315080083A00120704790F83A30202B23D101B3FAB157
S315080083B090F83830012B1DD010B400230468816270
S315080083C02221C28580F83830C36380F83A10E16804
S315080083D0828541F48071E160626942F0010262615E
S315080083E01846E36843F02003E3605DF8044B7047E2
S315080083F001207047022070472DE9F0430522A1B0FD
S315080084008846002101F09AF803283C4B04464FF0B1
S3150800841000025AD801921A6C42F001021A641B6CC7
S3150800842003F001030193019B354DC4EBC40305EB2F
S31508008430830655F8233009930223002770680A93A8
S315080084400C9309A973690D930B97FDF789FA96F9A9
S3150800845010003A460521FDF711F896F91000FDF7C8
S315080084604BF8F3680E93B36911930EA82A234FEAC3
S31508008470C409109712970F93FFF79EFC00282FD177
S315080084800EA8FFF7C7FC002831D12026002303A930
S315080084900EA8CDE90363FFF7B9FD58BBA9EB0404A1
S315080084A005EB840500230120CDE90603AA68089395
S315080084B005A90EA8CDF81480FFF70EFDA9680EA829
S315080084C0FFF71EFA21B0BDE8F08302921A6C42F05B
S315080084D002021A641B6C03F002030293029BA3E7D1
S315080084E0FCF70AFB0EA8FFF795FC0028CDD0FCF791
S315080084F003FBCAE7FCF700FBD0E700BF00380240E1
S3150800850050010020F0B5124D124F134E85B00446A7
S315080085102846FCF7EFFE114B04EB440203EB8203FB
S3150800852069469B6800933B78012226F813000323CB
S315080085302846CDE90123FCF7E1FE2846FCF756FE5E
S315080085400A2001F013F836F814003C7005B0F0BDA7
S3150800855094020020FC08002024080020D8000020EF
S315080085600B4610B5052204460021184600F0E6FF22
S31508008570164A32F81030B3F5FA7F84BFA3F5FA73BA
S3150800858022F81030124B53F8201043F82040114BB4
S315080085901B785BB932F81030B3F57A7F06D2A14260
S315080085A008D2641A0C48B0FBF4F010BD0B4B53F814
S315080085B0200010BD0A4AC0EBC00302EB830306483D
S315080085C09B691C44641AB0FBF4F010BD2009002016
S315080085D0C4080020FE08002080841E005C080020D5
S315080085E050010020037813B18278012A00D0704721
S315080085F0C2780B2AFBD10279022A10D0032AF6D1B7
S315080086004379012BF3D0022BF1D18379052BEED8D0
S31508008610194AD0F80710013B42F8231070474279EF
S31508008620012AE4D110B4154C0246237000F1240C3B
S315080086302346917903F8011FD1799971117A197333
S31508008640517A9974917A19760632624551799977F1
S31508008650EFD190F82B200A4B84F82620012290F8B7
S315080086602AC090F82C101A7084F825C084F82710B0
S315080086705DF8044B704700BF5C08002034080020F2
S315080086803008002038B5134A134D0C4611783622A7
S31508008690627002220123A27003222B7022712170BC
S315080086A00E4A63710B21E170234604F1300052F83B
S315080086B0041BC3F806105169C3F80A10083383422D
S315080086C0F5D13621204600F041FF002384F8360014
S315080086D02B7038BD34080020FE0800205C080020F6
S315080086E00020704710B5124B12481A781249134CDD
S315080086F00023C0E9004112014FF48041C0E902326B
S31508008700C0E90413C0E906330362FDF73DFA20B950
S315080087100848FDF785FB38B910BDFCF7EDF90548A3
S31508008720FDF77EFB0028F7D0BDE81040FCF7E4B95A
S315080087303408002094050020E0930400005400400B
S3150800874008B5104B1B78013BDAB2042A04D80E4848
S315080087500E4A30F82330138039B90C490C480823DF
S315080087600222FDF7D9FA40B908BD06490848082388
S315080087700122FDF713FB0028F6D0BDE80840FCF7F8
S31508008780BBB900BF1C0800205C0800202008002098
S31508008790940500202DE9F04F2DED068BBD4CBE4DFE
S315080087A0BE4B87B0A44603F10C072146284640F283
S315080087B0DB5E4FF0000808E0B2F57A7F1A800ED823
S315080087C00233BB4201F1040110D010F8012F043A1C
S315080087D0032AF5D81E88721C764592B2ECD9023364
S315080087E0BB42C1F8008001F10401EED1AC4A537DC9
S315080087F00133DBB2022B537507D900231188137591
S3150800880045F65913994200F0A682A64B93F80090B4
S31508008810B9F1010F7DD0A44B1E7856BBA34FDFF8E4
S31508008820B4829FEDA38ADFEDA3AA9FEDA3AADFED8D
S31508008830A39A9FEDA39ADFEDA38A0DE0022B1DD024
S31508008840032B56D00136F6B2062E04F1040407F1BE
S31508008850220708F108080CD015F8013F012BEDD1C5
S31508008860AB7C012B304625D0FFF74CFE7880206084
S31508008870E8E707B0BDEC068BBDE8F08FAB7C012BB3
S3150800888030463DD0FFF73EFE7880AB799B091BD179
S315080088907B88DFED8D6A07EE103AB8EEC77A27EEC9
S315080088A0087AC7EE287A67EEA67AFCEEE77AC4ED70
S315080088B0007AC7E7FFF726FE0146384600F0BCFDFA
S315080088C00028BFD17888D2E7012B00F06682022BF8
S315080088D0B8D17B8807EE103AB8EEC77A27EE087A41
S315080088E0C7EE2A7A67EE8A7AFCEEE77AC4ED007A52
S315080088F0A8E7B8F80010D8F80400FDF723F9B6E79A
S31508008900FFF700FE0146384600F096FD0028BCD069
S3150800891098E7DFF8C4A1DFF8C4B16C4E6C4F17F8BE
S31508008920012FD24302F0010280215046FDF710F9CB
S315080089303A786FEA520202F001024FF48071584603
S31508008940FDF706F93A786FEA920202F00102402131
S315080089505046FDF7FDF83A786FEAD20202F00102B6
S315080089604FF400715846FDF7F3F83A7809F1FF38E5
S3150800897092095FFA88F800F0C181012A00F01D8289
S31508008980022A00F0268217F8063C5A1E012A40F2EF
S31508008990C781092B00F0CE8101224FF48041304671
S315080089A0FDF7D6F800224FF400413046FDF7D0F81F
S315080089B008F1FF380122B8F1040F00F21782DFE848
S315080089C018F037018301760190010500042150460D
S315080089D0FDF7BEF8012000F0DBFD00220421504619
S315080089E0FDF7B6F8002240215046FDF7B1F80022FF
S315080089F04FF400715846FDF7ABF800228021504627
S31508008A00FDF7A6F800224FF480715846FDF7A0F846
S31508008A1000224FF480513046FDF79AF800224FF4B1
S31508008A2000513046FDF794F800224FF48041304655
S31508008A30FDF78EF800224FF400413046FDF788F81E
S31508008A40B9F1060F40F02E81134F002609E0082BD6
S31508008A5000F06B81072B00F0C1810136F6B2062EB5
S31508008A6010D017F8013F042BA3F1050200F05D8131
S31508008A70012AECD8304601360A21F6B2FFF7BCFCCB
S31508008A80062EEED10026DFF81090DFF8488037462C
S31508008A902AE000BF5C0800203408002020090020D6
S31508008AA00009002030080020FE0800200C000020E5
S31508008AB0D10C4D3F0020CA4400543D4600007C4579
S31508008AC0001063460010A4460018F646000402404B
S31508008AD03A08002020010020000802400000024059
S31508008AE00136F6B2062E17D019F8013F032BF7D137
S31508008AF000213046052200F021FD58F83030029753
S31508008B0008EBC00001364068019301A9F6B2039745
S31508008B10FCF726FF062EE7D1DFF8FCB2BA4FDFF8DE
S31508008B2010A3002603E00136F6B2062E52D01BF833
S31508008B30013F013B012BF6D84FF0000805224146BC
S31508008B40304600F0FBFCB14BBB6201238146FB615A
S31508008B507B61AD48C7F800A04FF48033C7F808809A
S31508008B60C7F8108087F8188087F82080C7F82C8007
S31508008B70C7F80C8087F830807B60FCF789FA0028F4
S31508008B8040F03181A24BCDF800805A6CA14942F4DD
S31508008B9080725A645B6C03F4807309EB490900938D
S31508008BA0009B51F82920019201EB8903032258689A
S31508008BB001A90223CDE902230136FCF7D1FE42467C
S31508008BC012200521FCF75AFCF6B21220FCF794FC99
S31508008BD0062EACD1904EDFF85C82904F02E0904BA7
S31508008BE09E420DD016F8013F092BF8D1FCF7A0F9E3
S31508008BF0012241463846FFF7D5FB894B9E42F1D103
S31508008C00884E894FFFF76EFD06F1180817F8013BE5
S31508008C1031880122002B40F09A8070681A46FCF7CA
S31508008C2097FF08364645F1D1804A00231370F2E5CE
S31508008C3008215046FCF78CFF012000F0A9FC002211
S31508008C4008215046FCF784FF504600224021FCF7D5
S31508008C507FFF584600224FF40071FCF779FF504613
S31508008C6000228021FCF774FF584600224FF48071D9
S31508008C70FCF76EFF304600224FF48051FCF768FF80
S31508008C80304600224FF40051FCF762FF30460022BE
S31508008C904FF48041FCF75CFF00224FF40041304658
S31508008CA0FCF756FF09F101095FFA89F937E6102141
S31508008CB05046FCF74DFF012000F06AFC0022102107
S31508008CC05046FCF745FFBFE702215046FCF740FF38
S31508008CD0012000F05DFC002202215046FCF738FF17
S31508008CE0B2E711465046FCF733FF012000F050FC6E
S31508008CF0002201215046FCF72BFFA5E7304601224A
S31508008D004FF48051FCF724FF01224FF400513046FE
S31508008D10FCF71EFF17F8063C5A1E012A3FF639AE25
S31508008D20304600224FF480413AE600213046FFF7EC
S31508008D3063FB92E6304601224FF48041FCF708FFB8
S31508008D4001224FF400413046FCF702FF30E6706816
S31508008D50FCF7FEFE65E7D6789078117983194E3BC5
S31508008D6000EB062056790B44334401EB062196792D
S31508008D7096761E44D379D3763344167A1677DBB2C1
S31508008D8080B289B29E42D082118353777FF43DAD7B
S31508008D90732988BFCCF80C0037E57B8807EE103AB4
S31508008DA0B8EEC77A27EE087AC7EE297A67EE897A87
S31508008DB0FCEEE77AC4ED007A44E530464FF480517C
S31508008DC0FCF7C6FE00224FF400513046FCF7C0FE01
S31508008DD0D9E500224FF480513046F1E730460021AC
S31508008DE0FFF70AFB39E6FBF787FECBE6202150465C
S31508008DF0FCF7AEFE012000F0CBFB002220215046F6
S31508008E00FCF7A6FEEEE500BF940200200100000F65
S31508008E1000380240D800002034080020D807002077
S31508008E203A080020F80100205908002030080020E0
S31508008E3000200140FD080020F8B50D4607461646F5
S31508008E4028460021052200F079FB544D05EB000C5D
S31508008E5004469CF80130042B41D05A1F012A04D934
S31508008E60082B44D0072B61D0F8BD0522002100F05D
S31508008E7065FB4B4A32F81030B3F5FA7F84BFFA3BEC
S31508008E8022F81030474B1B78002B49D1002E65D1AC
S31508008E90454951F8203041F820709F4271D943491D
S31508008EA0FB1A41F8203032F81030B3F57A7F37D202
S31508008EB03F4B53F820304FF47A7202FB03F33B4AD8
S31508008EC052F82020B3FBF2F3B3F57A7F28D805448D
S31508008ED06A78052A5DD0062A22D1364D23E0014656
S31508008EE03846FFF73DFB334B43F82400F8BD314DB8
S31508008EF00422002155F8206000F020FB2E4B01309B
S31508008F00C0B203EBC00233F830105068FCF71AFE03
S31508008F10F0B9B6F1004F00D0013E45F82460F8BD1F
S31508008F20244D55F8203045F82430F8BD014638461A
S31508008F309CF80D50FFF714FBC0EB001080000128C9
S31508008F401C4B8CBFB0FBF5F0002043F82400F8BD9D
S31508008F506FF000439E4218BF0136DEE7012EA2D10C
S31508008F60114B53F820309F4206D81449C0EBC0066F
S31508008F7001EB860189690F440D49FB1A41F8203037
S31508008F8091E70E49C0EBC00601EB860189690F44DB
S31508008F9085E7084DC3F57A73C5E700BF3408002096
S31508008FA020090020FE080020A8080020E00800206C
S31508008FB08C0800205C0800202001002050010020B9
S31508008FC070B54B4C4B4D4C4E204600224FF4004199
S31508008FD0FCF7BEFD204600224FF40061FCF7B8FD01
S31508008FE0284600222021FCF7B3FD284600224FF42C
S31508008FF08061FCF7ADFD204600224FF48061FCF746
S31508009000A7FD204600224FF48051FCF7A1FD30460B
S3150800901000222021FCF79CFD304600220821FCF79F
S3150800902097FD304600220221FCF792FD30460022C9
S315080090301021FCF78DFD304600220121FCF788FD42
S31508009040304600220421FCF783FD304600224021E9
S31508009050FCF77EFD204600224FF40071FCF778FDF0
S31508009060304600228021FCF773FD204600224FF48B
S315080090708071FCF76DFD284600224FF48051FCF7FD
S3150800908067FD284600224FF40051FCF761FD28468B
S3150800909000224FF48041FCF75BFD284600224FF47E
S315080090A00041FCF755FD204601224FF40041FCF72C
S315080090B04FFD204601224FF40061FCF749FD284682
S315080090C001222021FCF744FD284601224FF4806145
S315080090D0FCF73EFD204601224FF48061FCF738FD7F
S315080090E020460122BDE870404FF48051FCF730BDA0
S315080090F000000240000402400008024010B50D4C72
S315080091002046FEF779FA2046FEF762FA23689B683E
S315080091101B0600D510BD08481021FCF713FD0028D2
S31508009120F8D02046054A0649BDE810403723FEF721
S31508009130C9B900BFA8060020000002403009002077
S315080091406C0900202DE988484A4CDFF84891DFF879
S315080091504881494FDFF844A1484DDFF834B1484EFD
S3150800916053E03B88B3F57A7F63D398F80030012B38
S3150800917069D09AF80030002B3FD029882288688861
S31508009180DFF81CC1A8808B180344ACFB03C35B083B
S31508009190A3F1030E4FF0000C7245A7F800C06980D2
S315080091A02A80A9F8003006DB03339A42CCBF4FF079
S315080091B0000C4FF0010C002388F800C023808AF8C1
S315080091C0003001224FF400513046FCF7C1FCDBF8B1
S315080091D000309B681B060AD42A481021FCF7B2FC0B
S315080091E028B1294A29492A483723FEF76BF900226C
S315080091F04FF400513046FCF7ABFC30464FF40051B3
S31508009200FCF7AAFC012000F00DFA2388B9F8002023
S3150800921001339BB2053A93422380A2D198F80030D5
S31508009220012B21D03B88B3F57A7FA2D201333B804C
S315080092309FE798F800200133012A3B8099D19BB219
S31508009240B3F5167F95D901224FF400513046FCF745
S315080092507FFCFFF745FA00B9388000224FF4005129
S315080092603046FCF775FC84E708490748FFF70AFA11
S31508009270A7E700BFBC090020A8090020B009002004
S315080092800008024000000240300900206C09002056
S31508009290A8060020BE090020C0090020AA0900204F
S315080092A0ABAAAAAA30B51B4D1B4C89B02846012289
S315080092B04FF40051FCF74CFC184A194BC4E900233B
S315080092C040F201520123A26023733621204600F0A2
S315080092D03DF9214684F83600124C134A13483723C1
S315080092E0FEF7F0F80FCC0DF1040CACE80F0094E88B
S315080092F007008CE80700002101A800F061F90C4B73
S31508009300044600224FF4005128461C60FCF720FC56
S3150800931009B030BD000802406C0900200136010082
S315080093200000140A44A6000830090020A8060020F8
S31508009330AC090020F0B53848384D83B001228021A9
S31508009340FCF706FC40F22D1401E0002C61D0102138
S315080093502846FCF7F7FB013CA4B20028F5D0304DAF
S31508009360304C3621204600F0F1F894F83630834226
S3150800937045D002222A702C4E0020207034680B2318
S315080093804FF0010CA168013B11F0020F9BB232D1DC
S3150800939001221046002BF5D185F800C0FFF7AEFE76
S315080093A03468224800230193E3680193A368019374
S315080093B001224FF40051019BFCF7CAFB03273168D1
S315080093C04FF4FA7300E003B38C68013B14F002040F
S315080093D09BB2F8D1164B154801221A704FF400516A
S315080093E02246FCF7B5FB0C482246802103B0BDE8AF
S315080093F0F040FCF7ADBB0028D3D02A70D1E70D4961
S315080094002046FFF7EFF82A78B5E72F70FFF776FEC4
S31508009410D5E7034D2C70A3E7000402400000024084
S31508009420C109002030090020A806002000080240D3
S31508009430AA0900206C0900202DE9F8434578012D7A
S315080094400446884660D9AF1EFBB2C3EBC7736E1ECF
S31508009450681C1844F2B22B4404EB4301520004EB97
S31508009460400000F0F1FF94F820302278A4F8048038
S315080094709A4256D8002384F820300023A11C8C4633
S315080094801A46184604EB420E3CF8028FBEF804E072
S31508009490F04528BF9E4603F1010328BF0246D8B20D
S315080094A038BF96468542EDD800238C461A4618469C
S315080094B004EB42083CF8029FB8F80480C14598BFFF
S315080094C0984603F1010398BF0246D8B288BF904672
S315080094D08542EDD8231DF6B203EB4606002331F884
S315080094E0022FB1421344FAD104EB4E0E04EB48089E
S315080094F0BEF80420B8F804100A449B1A0020B3FBEF
