S017000032302D31302D322D342D302D302D352E7372656341
S315080040000000012061550008694F0008714F00083B
S31508004010794F0008814F0008894F0008000000000A
S3150800402000000000000000000000000091B2000837
S31508004030914F000800000000E1B4000849B50008E7
S31508004040B1550008B1550008B1550008B15500082A
S31508004050B1550008B1550008B1550008B15500081A
S31508004060B1550008B1550008B1550008B15500080A
S31508004070B1550008B1550008B1550008B1550008FA
S31508004080B1550008B1550008B155000800000000F8
S31508004090000000000000000000000000B155000804
S315080040A0B1550008B1550008B1550008A14F0008E0
S315080040B0B54F0008C94F0008B1550008B1550008AA
S315080040C0B1550008B1550008B1550008DD4F000884
S315080040D0B1550008B1550008B155000800000000A8
S315080040E0B1550008B1550008B15500080000000098
S315080040F0000000000000000000000000B1550008A4
S3150800410000000000B1550008F14F0008B15500083D
S315080041100000000000000000000000000000000091
S3150800412005500008B1550008B15500081950000897
S31508004130B155000800000000000000000000000063
S31508004140000000000000000000000000B155000853
S31508004150B1550008B1550008B1550008B155000819
S31508004160B1550008B1550008000000000000000025
S315080041700000000000000000000000000000000031
S3150800418000000000B1550008000000000000000013
S30908004190B15500080F
S315080041A010B5054C237833B9044B13B10448AFF363
S315080041B000800123237010BDAC040020000000001D
S315080041C078BB000808B5034B1BB103490348AFF396
S315080041D0008008BD00000000B004002078BB00087D
S315080041E053B94AB9002908BF00281CBF4FF0FF3150
S315080041F04FF0FF3000F06AB9ADF1080C6DE904CE56
S3150800420000F006F8DDF804E0DDE9022304B07047A3
S315080042102DE9F047089D0C46002B4ED194468C4557
S315080042208646B2FA82F262D94AB1C2F120039140B7
S3150800423020FA03F30CFA02FC194300FA02FE4FEACD
S315080042401C471FFA8CF6B1FBF7F44FEA1E4307FB2F
S31508004250141143EA014304FB06F199420AD91CEBFF
S31508004260030304F1FF3080F01281994240F20F8176
S31508004270023C6344591A1FFA8EF3B1FBF7F007FBA9
S31508004280101143EA014300FB06F69E420AD91CEBCD
S31508004290030300F1FF3180F0FC809E4240F2F98072
S315080042A0634402389B1B40EA044000211DB1D340F9
S315080042B00022C5E90032BDE8F0878B4205D90DB169
S315080042C0C5E9000100210846F5E7B3FA83F100299C
S315080042D046D1A34202D39042C0F0F080861A64EB1E
S315080042E003030120002DE6D0C5E90063E3E7002AB1
S315080042F040F09080A1EB0C044FEA1C481FFA8CF79B
S315080043000121B4FBF8F64FEA1E4308FB164443EABC
S31508004310044307FB06F0984208D91CEB030306F191
S31508004320FF3402D2984200F2CD8026461C1A1FFAA4
S315080043308EF3B4FBF8F008FB104443EA044300FB91
S3150800434007F79F4208D91CEB030300F1FF3402D29A
S315080043509F4200F2B0802046DB1B40EA0640A5E7F4
S31508004360C1F120068B4022FA06F71F4320FA06FC05
S3150800437004FA01F343EA0C03F44000FA01F8380C96
S315080043804FEA1349B4FBF0FE1FFA87FC00FB1E44F4
S3150800439049EA04440EFB0CF9A14502FA01F20AD9CE
S315080043A03C190EF1FF3A80F08480A14540F28180E5
S315080043B0AEF1020E3C44A4EB09041FFA83F9B4FBE0
S315080043C0F0F300FB134449EA044403FB0CFCA44540
S315080043D007D93C1903F1FF3067D2A44565D9023BDA
S315080043E03C4443EA0E40A0FB0293A4EB0C049C4217
S315080043F0CE469C4651D34ED055B1B8EB0E0364EB6E
S315080044000C0404FA06F6CB401E43CC40C5E900640A
S31508004410002150E7C2F1200320FA03F10CFA02FC4E
S3150800442024FA03F394400C434FEA1C4800FA02FEB0
S315080044301FFA8CF7B3FBF8F008FB1031230C43EA9C
S31508004440014300FB07F1994208D91CEB030300F16D
S31508004450FF362CD299422AD9023863445B1AA4B291
S31508004460B3FBF8F108FB113344EA034401FB07F3F5
S31508004470A34208D91CEB040401F1FF3613D2A34268
S3150800448011D902396444E41A41EA004139E704467D
S31508004490F0E6084606E7C845AED2B9EB020E63EB6E
S315080044A0070C0138A8E73146EDE7034699E7304699
S315080044B0D4E7D6467FE7634402384DE706462346E7
S315080044C008460FE7023E634430E700BF704700BF67
S315080044D080B584B000AF3B4600221A605A609A60E5
S315080044E0DA60214B214A1A601F4B4FF480325A601A
S315080044F01D4B00229A601C4B00221A611A4B00229F
S315080045001A76194B002283F82020174B0022DA620C
S31508004510154B174A9A62144B0022DA60124B012295
S31508004520DA61114B002283F830200F4B01225A61C1
S315080045300D4801F081F80346002B01D000F092FBEC
S315080045400A233B6001237B600023BB603B46194678
S31508004550054801F001FA0346002B01D000F082FB62
S3150800456000BF1037BD4680BDC804002000200140AA
S315080045700100000F80B58AB000AF786007F1140318
S3150800458000221A605A609A60DA601A617B681B68B2
S31508004590174A934227D100233B61164B5B6C154A99
S315080045A043F480735364134B5B6C03F480733B6171
S315080045B03B690023FB600F4B1B6B0E4A43F0040359
S315080045C013630C4B1B6B03F00403FB60FB680F23A0
S315080045D07B610323BB610023FB6107F114031946C2
S315080045E0054802F0BBF800BF2837BD4680BD00BFAE
S315080045F000200140003802400008024080B582B021
S3150800460000AF00237B60104B1B6B0F4A43F48003FB
S3150800461013630D4B1B6B03F480037B607B680022DE
S315080046200521382001F06EFC382001F087FC0022B5
S3150800463005213B2001F066FC3B2001F07FFC00BF12
S315080046400837BD4680BD00BF0038024080B485B03B
S3150800465000AFF860B9607A60FB68074A1A60BB6801
S31508004660064A1A607B6880221A6000BF1437BD4666
S315080046705DF8047B704700BF14050020B4050020D0
S31508004680B0B588B000AF04F0C3FD0A4B3C1D1D460B
S315080046900FCD0FC495E8070084E807003B1D0021ED
S315080046A0184605F01CFF0346034A136000BF20376F
S315080046B0BD46B0BD9CBB00081005002080B582B081
S315080046C000AF786004F072FC012005F054FF00BFCB
S315080046D0F8E7000080B58AB000AF07F1140300229E
S315080046E01A605A609A60DA601A6100233B615B4B74
S315080046F01B6B5A4A43F004031363584B1B6B03F0B6
S3150800470004033B613B690023FB60544B1B6B534A14
S3150800471043F080031363514B1B6B03F08003FB606C
S31508004720FB680023BB604D4B1B6B4C4A43F00103EF
S3150800473013634A4B1B6B03F00103BB60BB68002382
S315080047407B60464B1B6B454A43F002031363434B9E
S315080047501B6B03F002037B607B6800233B603F4BC7
S315080047601B6B3E4A43F0080313633C4B1B6B03F079
S3150800477008033B603B6800224FF47D51384802F03D
S3150800478089F900224FF2B041364802F083F9002237
S315080047904FF41841344802F07DF9002204213348C9
S315080047A002F078F94FF47D537B610123BB61002346
S315080047B0FB6100233B6207F114031946284801F000
S315080047C0CDFF4FF2B0437B610123BB610023FB6140
S315080047D000233B6207F114031946224801F0BEFF85
S315080047E04FF418437B610123BB610023FB6100235F
S315080047F03B6207F1140319461B4801F0AFFF042377
S315080048007B610123BB610023FB6100233B6207F147
S3150800481014031946154801F0A1FF40237B610023C4
S31508004820BB610023FB6107F1140319460D4801F02B
S3150800483095FF4FF440737B611223BB610023FB6134
S3150800484003233B6204237B6207F1140319460548D8
S3150800485001F084FF00BF2837BD4680BD00380240FE
S31508004860000802400004024000000240000C02401A
S3150800487080B500AF00F09EFE00F016F8FFF72AFF9D
S31508004880FFF7BCFEFFF724FE00F0F2F900F0E0FBAC
S3150800489000F068FC00F0F6FC05F01AFBFFF7F0FEE6
S315080048A005F016FE00BFFDE780B594B000AF07F12E
S315080048B0200330220021184607F084F807F10C037C
S315080048C000221A605A609A60DA601A610023BB6097
S315080048D0294B1B6C284A43F080531364264B1B6CE8
S315080048E003F08053BB60BB6800237B60234B1B68C7
S315080048F023F44043214A43F4004313601F4B1B68CB
S3150800490003F440437B607B6809233B624FF48033A2
S315080049107B6201237B630223BB634FF48003FB6343
S3150800492006233B6454237B640223BB640423FB6491
S3150800493007F12003184602F0C7F80346002B01D0FA
S3150800494000F090F90F23FB6002233B6100237B6193
S315080049504FF48053BB610023FB6107F10C0302216E
S31508004960184602F029FB0346002B01D000F07AF91D
S3150800497000BF5037BD4680BD003802400070004079
S3150800498080B582B000AF78607B681B68044A9342A2
S3150800499001D105F0FDFA00BF0837BD4680BD00BF4E
S315080049A00030014080B582B000AF78607B681B6834
S315080049B09B4A93425CD17B681B7F012B19D14FF42C
S315080049C08071984802F04EF80346012B08D1964BA1
S315080049D01B685B6B00220521184604F0AFFB43E019
S315080049E0914B1B685B6B01220521184604F0A6FB58
S315080049F03AE07B681B7F022B19D14FF40071894876
S31508004A0002F030F80346012B08D1874B1B689B6BD5
S31508004A1000220321184604F091FB25E0824B1B680F
S31508004A209B6B01220321184604F088FB1CE07B6877
S31508004A301B7F042B18D14FF480617A4802F012F8D4
S31508004A400346012B08D1784B1B68DB6B002201213A
S31508004A50184604F073FB07E0734B1B68DB6B0122F7
S31508004A600121184604F06AFB7B6800221A77D3E016
S31508004A707B681B68B3F1804F73D17B681B7F012B62
S31508004A8018D10121674801F0EDFF0346012B08D133
S31508004A90664B1B685B6B00220021184604F04EFB30
S31508004AA0BAE0624B1B685B6B01220021184604F0D2
S31508004AB045FBB1E07B681B7F022B18D102215948C0
S31508004AC001F0D0FF0346012B08D1584B1B689B6B9E
S31508004AD000220221184604F031FB9DE0534B1B6867
S31508004AE09B6B01220221184604F028FB94E07B68A0
S31508004AF01B7F042B18D104214A4801F0B3FF034653
S31508004B00012B08D1494B1B68DB6B00220421184690
S31508004B1004F014FB80E0454B1B68DB6B0122042183
S31508004B20184604F00BFB77E07B681B7F082B73D1D4
S31508004B3008213C4801F096FF0346012B08D13B4B60
S31508004B401B681B6C00220721184604F0F7FA63E07D
S31508004B50364B1B681B6C01220721184604F0EEFA37
S31508004B605AE07B681B68324A934255D17B681B7FA3
S31508004B70022B18D180212F4801F074FF0346012B20
S31508004B8008D12D4B1B689B6B00220621184604F0A2
S31508004B90D5FA41E0284B1B689B6B01220621184673
S31508004BA004F0CCFA38E07B681B7F042B18D101216E
S31508004BB0224801F057FF0346012B08D11E4B1B68FC
S31508004BC0DB6B00220821184604F0B8FA24E01A4BD9
S31508004BD01B68DB6B01220821184604F0AFFA1BE0BC
S31508004BE07B681B7F082B17D10221144801F03AFF76
S31508004BF00346012B08D1104B1B681B6C00220921A8
S31508004C00184604F09BFA07E00B4B1B681B6C012245
S31508004C100921184604F092FA00BF0837BD4680BD40
S31508004C200000014000000240140900205C09002031
S31508004C300004004000080240A409002000040240C5
S31508004C4080B582B000AF78607B681B68044A9342DF
S31508004C5001D100F0D1FC00BF0837BD4680BD00BFBA
S31508004C60000C004080B400AF72B600BF00BFFDE77D
S31508004C7080B500AF154B164A1A60144B00225A60CD
S31508004C80124B00229A60114B0022DA600F4B002269
S31508004C901A610E4B00225A610C4B00229A610B4B8B
S31508004CA000221A62094B00225A62084B00229A62B5
S31508004CB0064B0A22DA62054802F07CFB0346002B03
S31508004CC001D0FFF7CFFF00BF80BD00BFB4070020AB
S31508004CD00030014080B58AB000AF786007F1140350
S31508004CE000221A605A609A60DA601A617B681B684B
S31508004CF0534A934240F0A08000233B61514B5B6CC2
S31508004D00504A43F4805353644E4B5B6C03F4805310
S31508004D103B613B690023FB604A4B1B6B494A43F0E6
S31508004D2001031363474B1B6B03F00103FB60FB682E
S31508004D3010237B610223BB610123FB6103233B62D2
S31508004D4005237B6207F1140319463F4801F006FD67
S31508004D50E0237B610223BB610023FB6103233B62E3
S31508004D6005237B6207F114031946374801F0F6FC60
S31508004D70364B374A1A60354B4FF0C0625A60334B90
S31508004D8000229A60314B0022DA60304B4FF4806281
S31508004D901A612E4B00225A612C4B00229A612B4B2A
S31508004DA00022DA61294B00221A62284B00225A6235
S31508004DB0264801F0D1F80346002B01D0FFF752FF31
S31508004DC07B68224ADA64214A7B689363214B224A2C
S31508004DD01A60204B4FF0C0625A601E4B40229A6000
S31508004DE01C4B0022DA601B4B4FF480621A61194B88
S31508004DF000225A61174B00229A61164B0022DA618B
S31508004E00144B00221A62134B00225A62114801F011
S31508004E10A3F80346002B01D0FFF724FF7B680D4A51
S31508004E209A640C4A7B68936300220521232001F0CB
S31508004E3069F8232001F082F800BF2837BD4680BDF7
S31508004E400030014000380240000002400C080020F3
S31508004E50106402406C0800205864024080B582B095
S31508004E6000AF00237B60124B5B6C114A43F480430E
S31508004E7053640F4B5B6C03F480437B607B680023B1
S31508004E803B600B4B1B6C0A4A43F080531364084B78
S31508004E901B6C03F080533B603B6800220F216FF0C8
S31508004EA0010001F02FF800BF0837BD4680BD00BFDE
S31508004EB00038024080B58CB000AF78600023FB62F2
S31508004EC00023BB6200227968322001F01BF83220E9
S31508004ED001F034F80023FB601F4B1B6C1E4A43F09D
S31508004EE0080313641C4B1B6C03F00803FB60FB6888
S31508004EF007F1100207F114031146184602F028FAC2
S31508004F0002F012FA03465B00FB62FB6A134AA2FB35
S31508004F1003239B0C013BBB62114B124A1A60104BD0
S31508004F2040F2E732DA600E4ABB6A53600C4B002245
S31508004F301A610B4B00229A60094802F061FF03468A
S31508004F40002B04D1064802F0ABFF034600E001231C
S31508004F5018463037BD4680BD0038024083DE1B4305
S31508004F60CC080020000C004080B400AF00BFFDE76D
S31508004F7080B400AF00BFFDE780B400AF00BFFDE717
S31508004F8080B400AF00BFFDE780B400AF00BFFDE707
S31508004F9080B400AF00BFBD465DF8047B70470000D3
S31508004FA080B500AF024803F051F900BF80BD00BFCD
S31508004FB01409002080B500AF024803F047F900BF86
S31508004FC080BD00BF5C09002080B500AF024803F031
S31508004FD03DF900BF80BD00BFA409002080B500AF21
S31508004FE0024802F0D5FB00BF80BD00BFB407002011
S31508004FF080B500AF024803F029F900BF80BD00BFA5
S31508005000CC08002080B500AF024801F03DF900BF8A
S3150800501080BD00BF0C08002080B500AF024801F033
S3150800502033F900BF80BD00BF6C08002080B400AF14
S31508005030064BD3F88830054A43F47003C2F8883023
S3150800504000BFBD465DF8047B704700BF00ED00E079
S3150800505080B58AB000AF07F1180300221A605A60BB
S315080050609A60DA6007F1100300221A605A603B461C
S3150800507000221A605A609A60DA60384B384A1A6019
S31508005080364B00225A60354B00229A60334B4FF656
S31508005090FF72DA60314B00221A61304B00225A61E6
S315080050A02E4B00229A612D4802F0AAFE0346002BD9
S315080050B001D0FFF7D7FD4FF48053BB6107F1180302
S315080050C01946264803F066FA0346002B01D0FFF777
S315080050D0C9FD224802F046FF0346002B01D0FFF720
S315080050E0C1FD00233B6100237B6107F110031946CC
S315080050F01A4803F093FD0346002B01D0FFF7B2FDD3
S3150800510000233B6001237B600023BB600023FB6018
S315080051103B4600221946114803F0A0F90346002B26
S3150800512001D0FFF79FFD3B46042219460B4803F0C2
S3150800513095F90346002B01D0FFF794FD3B4608225C
S315080051401946064803F08AF90346002B01D0FFF7F3
S3150800515089FD00BF2837BD4680BD00BF1409002061
S315080051600000014080B58AB000AF07F1180300229D
S315080051701A605A609A60DA6007F1100300221A6012
S315080051805A603B4600221A605A609A60DA603C4BC5
S315080051904FF080421A603A4B00225A60384B002280
S315080051A09A60374B4FF0FF32DA60354B00221A61AE
S315080051B0334B00229A61324802F022FE0346002B46
S315080051C001D0FFF74FFD4FF48053BB6107F1180379
S315080051D019462B4803F0DEF90346002B01D0FFF7EA
S315080051E041FD274802F0BEFE0346002B01D0FFF71B
S315080051F039FD00233B6100237B6107F11003194643
S315080052001F4803F00BFD0346002B01D0FFF72AFDCC
S3150800521000233B6001237B600023BB600023FB6007
S315080052203B4600221946164803F018F90346002B98
S3150800523001D0FFF717FD3B4604221946104803F034
S315080052400DF90346002B01D0FFF70CFD3B4608225B
S3150800525019460B4803F002F90346002B01D0FFF765
S3150800526001FD3B460C221946054803F0F7F80346AC
S31508005270002B01D0FFF7F6FC00BF2837BD4680BDDE
S315080052805C09002080B58AB000AF07F11803002238
S315080052901A605A609A60DA6007F1100300221A60F1
S315080052A05A603B4600221A605A609A60DA60364BAA
S315080052B0364A1A60344B00225A60334B00229A60F1
S315080052C0314B4FF6FF72DA602F4B00221A612E4BD4
S315080052D000229A612C4802F093FD0346002B01D068
S315080052E0FFF7C0FC4FF48053BB6107F1180319465A
S315080052F0254803F04FF90346002B01D0FFF7B2FC0F
S31508005300214802F02FFE0346002B01D0FFF7AAFC26
S3150800531000233B6100237B6107F1100319461A48F5
S3150800532003F07CFC0346002B01D0FFF79BFC00230F
S315080053303B6001237B600023BB600023FB603B4688
S3150800534004221946104803F089F80346002B01D0B9
S31508005350FFF788FC3B46082219460B4803F07EF8FF
S315080053600346002B01D0FFF77DFC3B460C2219466D
S31508005370054803F073F80346002B01D0FFF772FCCB
S3150800538000BF2837BD4680BDA409002000040040A0
S3150800539080B58EB000AF786007F1240300221A604A
S315080053A05A609A60DA601A617B681B68664A93429B
S315080053B035D100233B62654B5B6C644A43F00103BD
S315080053C05364624B5B6C03F001033B623B6A002348
S315080053D0FB615E4B1B6B5D4A43F0010313635B4B3A
S315080053E01B6B03F00103FB61FB694FF4E0637B620F
S315080053F00223BB620023FB6200233B6301237B631A
S3150800540007F124031946524801F0A8F9002205219C
S315080054101B2000F077FD1B2000F090FD90E07B68D4
S315080054201B68B3F1804F34D10023BB61474B1B6C1B
S31508005430464A43F001031364444B1B6C03F0010313
S31508005440BB61BB6900237B61404B1B6B3F4A43F042
S31508005450010313633D4B1B6B03F001037B617B69FF
S315080054600F237B620223BB620023FB6200233B639C
S3150800547001237B6307F124031946354801F06EF9C9
S31508005480002205211C2000F03DFD1C2000F056FDE1
S3150800549056E07B681B682F4A934251D100233B6133
S315080054A02A4B1B6C294A43F002031364274B1B6CD7
S315080054B003F002033B613B690023FB60234B1B6B34
S315080054C0224A43F002031363204B1B6B03F00203CB
S315080054D0FB60FB680023BB601C4B1B6B1B4A43F03D
S315080054E004031363194B1B6B03F00403BB60BB680F
S315080054F003237B620223BB620023FB6200233B6318
S3150800550002237B6307F124031946134801F026F9A1
S3150800551080237B620223BB620023FB6200233B637A
S3150800552002237B6307F1240319460C4801F016F998
S31508005530002205211D2000F0E5FC1D2000F0FEFCE0
S3150800554000BF3837BD4680BD000001400038024024
S315080055500000024000040040000402400008024027
S31508005560DFF834D0002103E00C4B5B58435004317C
S315080055700B480C4B42189A42F6D30B4A02E000231A
S3150800558042F8043B094B9A42F9D3FFF74FFD06F060
S3150800559077FAFFF76DF970470000012024BC000870
S315080055A000000020AC040020AC040020C04A002003
S315080055B0FEE7000080B500AF0E4B1B680D4A43F4AA
S315080055C0007313600B4B1B680A4A43F4806313602D
S315080055D0084B1B68074A43F480731360032000F0E6
S315080055E086FC0F20FFF766FCFFF738FC00231846F9
S315080055F080BD00BF003C024080B400AF064B1B785C
S315080056001A46064B1B681344044A136000BFBD467E
S315080056105DF8047B704700BF08000020EC090020F5
S3150800562080B400AF034B1B681846BD465DF8047B83
S31508005630704700BFEC09002080B584B000AF7860E1
S315080056400023FB737B68002B01D1012333E07B68C1
S315080056501B6C002B09D17868FEF78CFF7B6800224B
S315080056605A647B68002283F83C207B681B6C03F035
S315080056701003002B18D17B681B6C23F4885323F086
S31508005680020343F002027B681A64786800F086FA1F
S315080056907B6800225A647B681B6C23F0030343F083
S315080056A001027B681A6401E00123FB737B68002210
S315080056B083F83C20FB7B18461037BD4680BD0000AA
S315080056C080B485B000AF78600023BB607B6893F830
S315080056D03C30012B01D1022397E07B68012283F835
S315080056E03C207B681B689B6803F00103012B18D0DC
S315080056F07B681B689A687B681B6842F001029A609F
S31508005700454B1B68454AA2FB03239A0C13465B00CC
S315080057101344BB6002E0BB68013BBB60BB68002B5F
S31508005720F9D17B681B689B6803F00103012B5FD1E5
S315080057307B681B6C23F4E06323F0010343F4807257
S315080057407B681A647B681B685B6803F48063002BBC
S3150800575007D07B681B6C23F4405343F480527B6864
S315080057601A647B681B6C03F48053B3F5805F06D11B
S315080057707B685B6C23F006027B685A6402E07B68F0
S3150800578000225A647B68002283F83C20244BFB6085
S315080057907B681B686FF022021A60FB685B6803F07F
S315080057A01F03002B0FD17B681B689B6803F04053CF
S315080057B0002B29D17B681B689A687B681B6842F0B6
S315080057C080429A6020E07B681B68164A93421BD188
S315080057D07B681B689B6803F04053002B14D17B68D9
S315080057E01B689A687B681B6842F080429A600BE0E7
S315080057F07B681B6C43F010027B681A647B685B6CE1
S3150800580043F001027B685A64002318461437BD46E4
S315080058105DF8047B704700BF0000002083DE1B4351
S31508005820002301400020014080B584B000AF7860B5
S3150800583039600023FB607B681B689B6803F4806300
S31508005840B3F5806F13D17B681B689B6803F480737C
S31508005850B3F5807F0BD17B681B6C43F020027B6815
S315080058601A647B68002283F83C20012363E0FFF773
S31508005870D7FEF86021E03B68B3F1FF3F1DD03B68D7
S31508005880002B07D0FFF7CCFE0246FB68D31A3A680E
S315080058909A4212D27B681B681B6803F00203022B2C
S315080058A00BD07B681B6C43F004027B681A647B6828
S315080058B0002283F83C2003233DE07B681B681B68B5
S315080058C003F00203022BD6D17B681B686FF0120225
S315080058D01A607B681B6C43F400727B681A647B68E9
S315080058E01B689B6803F04053002B23D17B681B7E03
S315080058F0002B1FD17B681B68DB6A03F47003002B3F
S3150800590006D07B681B689B6803F48063002B11D163
S315080059107B681B6C23F480727B681A647B681B6C3B
S3150800592003F48053002B05D17B681B6C43F00102FE
S315080059307B681A64002318461037BD4680BD80B4BC
S3150800594083B000AF78607B681B68DB6C18460C3741
S31508005950BD465DF8047B704780B485B000AF7860BB
S3150800596039600023BB607B6893F83C30012B01D17A
S31508005970022305E17B68012283F83C203B681B680B
S31508005980092B25D97B681B68D9683B681B689BB2BD
S315080059901A4613465B0013441E3B072202FA03F31A
S315080059A0DA437B681B680A40DA607B681B68D9683B
S315080059B03B689A683B681B689BB2184603465B00BF
S315080059C003441E3B9A407B681B680A43DA6022E060
S315080059D07B681B6819693B681B689BB21A461346A5
S315080059E05B001344072202FA03F3DA437B681B6859
S315080059F00A401A617B681B6819693B689A683B68A4
S31508005A001B689BB2184603465B0003449A407B68B2
S31508005A101B680A431A613B685B68062B24D87B68B7
S31508005A201B68596B3B685A6813469B001344053B31
S31508005A301F2202FA03F3DA437B681B680A405A639B
S31508005A407B681B68596B3B681B689BB218463B68AA
S31508005A505A6813469B001344053B00FA03F27B6819
S31508005A601B680A435A634CE03B685B680C2B24D8D6
S31508005A707B681B68196B3B685A6813469B0013447E
S31508005A80233B1F2202FA03F3DA437B681B680A40AA
S31508005A901A637B681B68196B3B681B689BB21846C0
S31508005AA03B685A6813469B001344233B00FA03F2EB
S31508005AB07B681B680A431A6323E07B681B68D96AFC
S31508005AC03B685A6813469B001344413B1F2202FA5F
S31508005AD003F3DA437B681B680A40DA627B681B6853
S31508005AE0D96A3B681B689BB218463B685A681346D6
S31508005AF09B001344413B00FA03F27B681B680A4388
S31508005B00DA62224BFB607B681B68214A934209D103
S31508005B103B681B68122B05D1FB685B6843F480025F
S31508005B20FB685A607B681B68194A934223D13B6815
S31508005B301B68102B03D03B681B68112B1BD1FB6815
S31508005B405B6843F40002FB685A603B681B68102BCD
S31508005B5011D1104B1B68104AA2FB03239A0C13465B
S31508005B609B0013445B00BB6002E0BB68013BBB6063
S31508005B70BB68002BF9D17B68002283F83C20002300
S31508005B8018461437BD465DF8047B7047002301406C
S31508005B90002001400000002083DE1B4380B485B04E
S31508005BA000AF7860794BFB60FB685B6823F4403292
S31508005BB0FB685A60FB685A687B685B681A43FB682F
S31508005BC05A607B681B685A687B681B6822F4807277
S31508005BD05A607B681B6859687B681B691A027B6870
S31508005BE01B680A435A607B681B685A687B681B688F
S31508005BF022F040725A607B681B6859687B689A680D
S31508005C007B681B680A435A607B681B689A687B68CE
S31508005C101B6822F400629A607B681B6899687B6837
S31508005C20DA687B681B680A439A607B689B6A584AED
S31508005C30934222D07B681B689A687B681B6822F0AF
S31508005C4070629A607B681B6899687B689A6A7B6849
S31508005C501B680A439A607B681B689A687B681B689E
S31508005C6022F040529A607B681B6899687B68DA6AFA
S31508005C707B681B680A439A600FE07B681B689A6812
S31508005C807B681B6822F070629A607B681B689A685A
S31508005C907B681B6822F040529A607B681B689A688A
S31508005CA07B681B6822F002029A607B681B68996809
S31508005CB07B681B7E5A007B681B680A439A607B6870
S31508005CC093F82030002B1BD07B681B685A687B68CA
S31508005CD01B6842F400625A607B681B685A687B68D6
S31508005CE01B6822F460425A607B681B6859687B68A7
S31508005CF05B6A013B5A037B681B680A435A6007E0E4
S31508005D007B681B685A687B681B6822F400625A60C5
S31508005D107B681B68DA6A7B681B6822F47002DA62A1
S31508005D207B681B68D96A7B68DB69013B1A057B6857
S31508005D301B680A43DA627B681B689A687B681B687B
S31508005D4022F400729A607B681B6899687B6893F8EE
S31508005D5030305A027B681B680A439A607B681B6866
S31508005D609A687B681B6822F480629A607B681B6865
S31508005D7099687B685B699A027B681B680A439A6024
S31508005D8000BF1437BD465DF8047B70470023014009
S31508005D900100000F80B485B000AF78607B6803F01F
S31508005DA00703FB600C4BDB68BB60BA684FF6FF0362
S31508005DB01340BB60FB681A02BB68134343F0BF631A
S31508005DC043F40033BB60044ABB68D36000BF143792
S31508005DD0BD465DF8047B704700ED00E080B400AF77
S31508005DE0044BDB681B0A03F007031846BD465DF83B
S31508005DF0047B704700ED00E080B483B000AF034633
S31508005E00FB7197F90730002B0BDBFB7903F01F02B8
S31508005E10074997F907305B09012000FA02F241F8B1
S31508005E20232000BF0C37BD465DF8047B704700BFD2
S31508005E3000E100E080B483B000AF03463960FB712F
S31508005E4097F90730002B0ADB3B68DAB20C4997F959
S31508005E5007301201D2B20B4483F800230AE03B68EC
S31508005E60DAB20849FB7903F00F03043B1201D2B2F8
S31508005E700B441A7600BF0C37BD465DF8047B7047A5
S31508005E8000E100E000ED00E080B489B000AFF86002
S31508005E90B9607A60FB6803F00703FB61FB69C3F12D
S31508005EA00703042B28BF0423BB61FB690433062BB5
S31508005EB002D9FB69033B00E000237B614FF0FF3208
S31508005EC0BB6902FA03F3DA43BB681A407B699A4056
S31508005ED04FF0FF317B6901FA03F3D9437B680B4026
S31508005EE0134318462437BD465DF8047B704780B5D2
S31508005EF082B000AF78607868FFF74CFF00BF0837BC
S31508005F00BD4680BD80B586B000AF0346B9607A60ED
S31508005F10FB7300237B61FFF761FF78617A68B968D4
S31508005F207869FFF7B1FF024697F90F301146184610
S31508005F30FFF780FF00BF1837BD4680BD80B582B029
S31508005F4000AF0346FB7197F907301846FFF754FF71
S31508005F5000BF0837BD4680BD80B586B000AF786003
S31508005F6000237B61FFF75CFB38617B68002B01D15E
S31508005F70012399E07B68022283F835207B6800229A
S31508005F8083F834207B681B681A687B681B6822F0D4
S31508005F9001021A600FE0FFF743FB02463B69D31A7A
S31508005FA0052B08D97B6820225A657B68032283F86B
S31508005FB03520032378E07B681B681B6803F0010320
S31508005FC0002BE8D17B681B681B687B617A69384BB4
S31508005FD013407B617B685A687B689B681A437B68B9
S31508005FE0DB681A437B681B691A437B685B691A433B
S31508005FF07B689B691A437B68DB691A437B681B6A63
S3150800600013437A6913437B617B685B6A042B07D168
S315080060107B68DA6A7B681B6B13437A6913437B6177
S315080060207B681B687A691A607B681B685B697B6199
S315080060307B6923F007037B617B685B6A7A69134394
S315080060407B617B685B6A042B17D17B689B6A7A69DC
S3150800605013437B617B68DB6A002B0ED0786800F0FF
S3150800606001FB0346002B08D07B6840225A657B68F3
S31508006070012283F83520012316E07B681B687A69BC
S315080060805A61786800F0B8FA0346FB607B68DB6DF6
S315080060903F229A40FB689A607B6800225A657B68B3
S315080060A0012283F83520002318461837BD4680BDDF
S315080060B03F8010F080B586B000AFF860B9607A60AE
S315080060C03B600023FB75FB689B6D3B61FB6893F89F
S315080060D03430012B01D1022340E0FB68012283F80A
S315080060E03420FB6893F83530DBB2012B2FD1FB68DF
S315080060F0022283F83520FB6800225A653B687A68D5
S31508006100B968F86800F04AFAFB68DB6D3F229A40E6
S315080061103B699A60FB681B681A68FB681B6842F053
S3150800612016021A60FB681B6C002B07D0FB681B68FD
S315080061301A68FB681B6842F008021A60FB681B684D
S315080061401A68FB681B6842F001021A6005E0FB68E2
S31508006150002283F834200223FB75FB7D1846183786
S31508006160BD4680BD80B584B000AF78607B689B6D06
S31508006170FB60FFF755FAB8607B6893F83530DBB2F9
S31508006180022B08D07B6880225A657B68002283F838
S315080061903420012352E07B681B681A687B681B68F9
S315080061A022F016021A607B681B685A697B681B68AE
S315080061B022F080025A617B681B6C002B03D17B6836
S315080061C09B6C002B07D07B681B681A687B681B686A
S315080061D022F008021A607B681B681A687B681B68CD
S315080061E022F001021A6013E0FFF71AFA0246BB68AA
S315080061F0D31A052B0CD97B6820225A657B680322A3
S3150800620083F835207B68002283F83420032315E0C1
S315080062107B681B681B6803F00103002BE4D17B68CD
S31508006220DB6D3F229A40FB689A607B68012283F8FF
S3150800623035207B68002283F834200023184610375F
S31508006240BD4680BD80B483B000AF78607B6893F8A4
S315080062503530DBB2022B04D07B6880225A650123D5
S315080062600CE07B68052283F835207B681B681A6872
S315080062707B681B6822F001021A60002318460C3757
S31508006280BD465DF8047B704780B586B000AF786080
S315080062900023BB608E4B1B688E4AA2FB03239B0A16
S315080062A07B617B689B6D3B613B691B68FB607B6818
S315080062B0DB6D08229A40FB681340002B1AD07B68D6
S315080062C01B681B6803F00403002B13D07B681B684C
S315080062D01A687B681B6822F004021A607B68DB6D0B
S315080062E008229A403B699A607B685B6D43F001021D
S315080062F07B685A657B68DB6D01229A40FB68134010
S31508006300002B12D07B681B685B6903F08003002BA7
S315080063100BD07B68DB6D01229A403B699A607B68EB
S315080063205B6D43F002027B685A657B68DB6D04226D
S315080063309A40FB681340002B12D07B681B681B68C9
S3150800634003F00203002B0BD07B68DB6D04229A4016
S315080063503B699A607B685B6D43F004027B685A650B
S315080063607B68DB6D10229A40FB681340002B43D0F4
S315080063707B681B681B6803F00803002B3CD07B680E
S31508006380DB6D10229A403B699A607B681B681B6824
S3150800639003F48023002B18D07B681B681B6803F462
S315080063A00023002B08D17B681B6C002B24D07B684C
S315080063B01B6C786898471FE07B689B6C002B1BD08A
S315080063C07B689B6C7868984716E07B681B681B6837
S315080063D003F48073002B07D17B681B681A687B68F7
S315080063E01B6822F008021A607B681B6C002B03D01E
S315080063F07B681B6C786898477B68DB6D20229A401F
S31508006400FB681340002B00F08F807B681B681B68B5
S3150800641003F01003002B00F087807B68DB6D2022D9
S315080064209A403B699A607B6893F83530DBB2052B56
S3150800643036D17B681B681A687B681B6822F01602CF
S315080064401A607B681B685A697B681B6822F08002A1
S315080064505A617B681B6C002B03D17B689B6C002BF5
S3150800646007D07B681B681A687B681B6822F00802DD
S315080064701A607B68DB6D3F229A403B699A607B68AD
S31508006480012283F835207B68002283F834207B6854
S315080064901B6D002B7ED07B681B6D7868984779E06A
S315080064A07B681B681B6803F48023002B1DD07B6860
S315080064B01B681B6803F40023002B0DD17B685B6CFB
S315080064C0002B31D07B685B6C786898472CE000BF5E
S315080064D000000020B5814E1B7B68DB6B002B23D0A8
S315080064E07B68DB6B786898471EE07B681B681B68CF
S315080064F003F48073002B0FD17B681B681A687B68CE
S315080065001B6822F010021A607B68012283F8352086
S315080065107B68002283F834207B68DB6B002B03D072
S315080065207B68DB6B786898477B685B6D002B32D09D
S315080065307B685B6D03F00103002B22D07B68052284
S3150800654083F835207B681B681A687B681B6822F00D
S3150800655001021A60BB680133BB607A699A4207D3A5
S315080065607B681B681B6803F00103002BF2D100E06F
S3150800657000BF7B68012283F835207B68002283F8F8
S3150800658034207B68DB6C002B05D07B68DB6C786875
S31508006590984700E000BF1837BD4680BD80B485B077
S315080065A000AFF860B9607A603B60FB681B681A68E0
S315080065B0FB681B6822F480221A60FB681B683A682D
S315080065C05A60FB689B68402B08D1FB681B687A6891
S315080065D09A60FB681B68BA68DA6007E0FB681B68A4
S315080065E0BA689A60FB681B687A68DA6000BF143775
S315080065F0BD465DF8047B704780B485B000AF78600F
S315080066007B681B68DBB2103B144AA2FB03231B09F9
S31508006610FB60134AFB6813441B781A467B68DA65E5
S31508006620FB68032B09D97B681B6823F47F7323F067
S3150800663003031A1D7B689A6507E07B681B6823F4C9
S315080066407F7323F003037A6893657B689B6D18460E
S315080066501437BD465DF8047B704700BFABAAAAAAEB
S315080066600CBC000880B485B000AF78600023FB73CB
S315080066707B689B6ABB607B689B69002B1FD1BB68E4
S31508006680032B56D801A252F823F000BF9D660008D6
S31508006690AF6600089D660008336700087B68DB6AFA
S315080066A003F08073002B46D00123FB7343E07B681D
S315080066B0DB6AB3F1C07F40D10123FB733DE07B6801
S315080066C09B69B3F5005F21D1BB68032B37D801A2BC
S315080066D052F823F0E5660008EB660008E566000850
S315080066E0FD6600080123FB7330E07B68DB6A03F074
S315080066F08073002B25D00123FB7322E07B68DB6ABD
S31508006700B3F1C07F1FD10123FB731CE0BB68022BCA
S3150800671003D9BB68032B03D018E00123FB7315E0EC
S315080067207B68DB6A03F08073002B0ED00123FB73B2
S315080067300BE000BF0AE000BF08E000BF06E000BFAC
S3150800674004E000BF02E000BF00E000BFFB7B184684
S315080067501437BD465DF8047B704700BF80B489B026
S3150800676000AF7860396000237B6100233B6100231A
S31508006770BB610023FB6159E10122FB6902FA03F3BD
S315080067807B613B681B687A6913403B613A697B69A0
S315080067909A4240F048813B685B6803F00303012B8B
S315080067A005D03B685B6803F00303022B30D17B6896
S315080067B09B68BB61FB695B00032202FA03F3DB43B8
S315080067C0BA691340BB613B68DA68FB695B0002FA89
S315080067D003F3BA691343BB617B68BA699A607B683D
S315080067E05B68BB610122FB6902FA03F3DB43BA6902
S315080067F01340BB613B685B681B0903F00102FB6938
S3150800680002FA03F3BA691343BB617B68BA695A6033
S315080068103B685B6803F00303032B17D07B68DB68D0
S31508006820BB61FB695B00032202FA03F3DB43BA6927
S315080068301340BB613B689A68FB695B0002FA03F385
S31508006840BA691343BB617B68BA69DA603B685B68FF
S3150800685003F00303022B23D1FB69DA087B680832AD
S3150800686053F82230BB61FB6903F007039B000F2234
S3150800687002FA03F3DB43BA691340BB613B681A6942
S31508006880FB6903F007039B0002FA03F3BA69134393
S31508006890BB61FB69DA087B680832B96943F82210DC
S315080068A07B681B68BB61FB695B00032202FA03F382
S315080068B0DB43BA691340BB613B685B6803F00302BC
S315080068C0FB695B0002FA03F3BA691343BB617B6891
S315080068D0BA691A603B685B6803F44033002B00F022
S315080068E0A2800023FB60574B5B6C564A43F48043F7
S315080068F05364544B5B6C03F48043FB60FB68524A59
S31508006900FB699B08023352F82330BB61FB6903F02D
S3150800691003039B000F2202FA03F3DB43BA69134011
S31508006920BB617B68494A934219D07B68484A9342BF
S3150800693013D07B68474A93420DD07B68464A9342F8
S3150800694007D07B68454A934201D1042308E0072310
S3150800695006E0032304E0022302E0012300E000230B
S31508006960FA6902F0030292009340BA691343BB61C5
S315080069703549FB699B080233BA6941F82320384B2D
S315080069809B68BB613B69DB43BA691340BB613B68E3
S315080069905B6803F48013002B03D0BA693B69134381
S315080069A0BB612F4ABB6993602D4BDB68BB613B69B2
S315080069B0DB43BA691340BB613B685B6803F40013A9
S315080069C0002B03D0BA693B691343BB61244ABB69F0
S315080069D0D360234B5B68BB613B69DB43BA691340F1
S315080069E0BB613B685B6803F40033002B03D0BA69CC
S315080069F03B691343BB611A4ABB695360184B1B6852
S31508006A00BB613B69DB43BA691340BB613B685B68A2
S31508006A1003F48033002B03D0BA693B691343BB6187
S31508006A200F4ABB691360FB690133FB61FB690F2BD6
S31508006A307FF6A2AE00BF00BF2437BD465DF8047BD3
S31508006A40704700BF0038024000380140000002408D
S31508006A500004024000080240000C024000100240F8
S31508006A60003C014080B485B000AF78600B467B805F
S31508006A707B681A697B881340002B02D00123FB73BD
S31508006A8001E00023FB73FB7B18461437BD465DF80F
S31508006A90047B704780B483B000AF78600B467B8078
S31508006AA013467B707B78002B03D07A887B689A61C3
S31508006AB003E07B881A047B689A6100BF0C37BD46E1
S31508006AC05DF8047B7047000080B586B000AF78603B
S31508006AD07B68002B01D1012367E27B681B6803F002
S31508006AE00103002B75D0884B9B6803F00C03042B1D
S31508006AF00CD0854B9B6803F00C03082B12D1824BF4
S31508006B005B6803F48003B3F5800F0BD17E4B1B68DB
S31508006B1003F40033002B5BD07B685B68002B57D1EE
S31508006B20012342E27B685B68B3F5803F06D1764B6A
S31508006B301B68754A43F4803313601DE07B685B6805
S31508006B40B3F5A02F0CD1704B1B686F4A43F4802312
S31508006B5013606D4B1B686C4A43F4803313600BE07B
S31508006B60694B1B68684A23F480331360664B1B68BD
S31508006B70654A23F4802313607B685B68002B13D077
S31508006B80FEF74EFD386108E0FEF74AFD02463B690E
S31508006B90D31A642B01D9032307E25B4B1B6803F462
S31508006BA00033002BF0D014E0FEF73AFD386108E018
S31508006BB0FEF736FD02463B69D31A642B01D9032337
S31508006BC0F3E1514B1B6803F40033002BF0D100E0CE
S31508006BD000BF7B681B6803F00203002B63D04A4B97
S31508006BE09B6803F00C03002B0BD0474B9B6803F004
S31508006BF00C03082B1CD1444B5B6803F48003002B61
S31508006C0016D1414B1B6803F00203002B05D07B68A5
S31508006C10DB68012B01D00123C7E13B4B1B6823F03E
S31508006C20F8027B681B69DB00374913430B603AE0BF
S31508006C307B68DB68002B20D0344B01221A60FEF7F4
S31508006C40EFFC386108E0FEF7EBFC02463B69D31A15
S31508006C50022B01D90323A8E12B4B1B6803F002037F
S31508006C60002BF0D0284B1B6823F0F8027B681B69C1
S31508006C70DB00254913430B6015E0244B00221A60FC
S31508006C80FEF7CEFC386108E0FEF7CAFC02463B690F
S31508006C90D31A022B01D9032387E11B4B1B6803F088
S31508006CA00203002BF0D17B681B6803F00803002B56
S31508006CB036D07B685B69002B16D0154B01221A600B
S31508006CC0FEF7AEFC386108E0FEF7AAFC02463B690F
S31508006CD0D31A022B01D9032367E10B4B5B6F03F031
S31508006CE00203002BF0D01BE0094B00221A60FEF7C6
S31508006CF097FC38610EE0FEF793FC02463B69D31A0F
S31508006D00022B07D9032350E100380240000047420E
S31508006D10800E4742884B5B6F03F00203002BEAD1D3
S31508006D207B681B6803F00403002B00F097800023A0
S31508006D30FB75814B1B6C03F08053002B0FD100238E
S31508006D40BB607D4B1B6C7C4A43F0805313647A4BC3
S31508006D501B6C03F08053BB60BB680123FB75774B44
S31508006D601B6803F48073002B18D1744B1B68734A95
S31508006D7043F480731360FEF753FC386108E0FEF7AE
S31508006D804FFC02463B69D31A022B01D903230CE1B7
S31508006D906A4B1B6803F48073002BF0D07B689B68F2
S31508006DA0012B06D1644B1B6F634A43F0010313673B
S31508006DB01CE07B689B68052B0CD15F4B1B6F5E4AFA
S31508006DC043F0040313675C4B1B6F5B4A43F00103F4
S31508006DD013670BE0584B1B6F574A23F001031367E1
S31508006DE0554B1B6F544A23F0040313677B689B6853
S31508006DF0002B15D0FEF714FC38610AE0FEF710FCEC
S31508006E0002463B69D31A41F28832934201D90323D9
S31508006E10CBE0494B1B6F03F00203002BEED014E0C6
S31508006E20FEF7FEFB38610AE0FEF7FAFB02463B690D
S31508006E30D31A41F28832934201D90323B5E03E4B77
S31508006E401B6F03F00203002BEED1FB7D012B05D14E
S31508006E50394B1B6C384A23F0805313647B689B6953
S31508006E60002B00F0A180344B9B6803F00C03082B21
S31508006E705CD07B689B69022B41D1314B00221A609A
S31508006E80FEF7CEFB386108E0FEF7CAFB02463B690F
S31508006E90D31A022B01D9032387E0274B1B6803F07B
S31508006EA00073002BF0D17B68DA697B681B6A1A438A
S31508006EB07B685B6A9B011A437B689B6A5B08013B9C
S31508006EC01B041A437B68DB6A1B061B4913434B608A
S31508006ED01B4B01221A60FEF7A3FB386108E0FEF798
S31508006EE09FFB02463B69D31A022B01D903235CE0B8
S31508006EF0114B1B6803F00073002BF0D054E0104BC5
S31508006F0000221A60FEF78CFB386108E0FEF788FB62
S31508006F1002463B69D31A022B01D9032345E0064BE7
S31508006F201B6803F00073002BF0D13DE07B689B697A
S31508006F30012B07D1012338E00038024000700040D9
S31508006F40600047421B4B5B68FB607B689B69012BB3
S31508006F5028D0FB6803F480027B68DB699A4221D15A
S31508006F60FB6803F03F027B681B6A9A421AD1FA68EB
S31508006F7047F6C07313407A68526A9201934211D158
S31508006F80FB6803F440327B689B6A5B08013B1B0481
S31508006F909A4207D1FB6803F070627B68DB6A1B06BE
S31508006FA09A4201D0012300E0002318461837BD464F
S31508006FB080BD00BF0038024080B584B000AF78605D
S31508006FC039607B68002B01D10123CCE0684B1B6834
S31508006FD003F007033A689A420CD9654B3A68D2B26D
S31508006FE01A70634B1B6803F007033A689A4201D08C
S31508006FF00123B8E07B681B6803F00203002B20D04E
S315080070007B681B6803F00403002B05D0594B9B686B
S31508007010584A43F4E05393607B681B6803F00803FF
S31508007020002B05D0534B9B68524A43F46043936048
S31508007030504B9B6823F0F0027B689B684D491343CD
S315080070408B607B681B6803F00103002B44D07B68C8
S315080070505B68012B07D1474B1B6803F40033002BF1
S3150800706019D101237FE07B685B68022B03D07B681C
S315080070705B68032B07D13F4B1B6803F00073002B9B
S3150800708009D101236FE03B4B1B6803F00203002B79
S3150800709001D1012367E0374B9B6823F003027B6825
S315080070A05B68344913438B60FEF7BAFAF8600AE066
S315080070B0FEF7B6FA0246FB68D31A41F288329342C3
S315080070C001D903234FE02B4B9B6803F00C027B6826
S315080070D05B689B009A42EBD1254B1B6803F00703BC
S315080070E03A689A420CD2224B3A68D2B21A70204BAE
S315080070F01B6803F007033A689A4201D0012332E07D
S315080071007B681B6803F00403002B08D0194B9B68A7
S3150800711023F4E0527B68DB68164913438B607B686F
S315080071201B6803F00803002B09D0124B9B6823F455
S3150800713060427B681B69DB000E4913438B6000F0D5
S3150800714021F802460B4B9B681B0903F00F030A49FB
S31508007150CB5C22FA03F3094A1360094B1B681846ED
S31508007160FDF7A8FE002318461037BD4680BD00BFB0
S31508007170003C024000380240F4BB00080000002032
S31508007180040000202DE9B04F90B000AF00237B63C8
S315080071900023FB6300233B630023BB63594B9B68B7
S315080071A003F00C03082B0DD0082B00F2A180002B4E
S315080071B002D0042B03D09BE0534BBB639BE0534B9D
S315080071C0BB6398E04F4B5B6803F03F037B634D4B13
S315080071D05B6803F48003002B28D04A4B5B689B0945
S315080071E000223B627A623B6AC3F308000021474BE0
S315080071F003FB01F2002300FB03F31344434AA0FBFD
S315080072000212FA620A46BA62FA6A1344FB627B6B96
S315080072100022BB61FA61D7E90623D7E90A01FCF720
S31508007220DFFF02460B461346FB6353E0354B5B68AC
S315080072309B0900223B617A613B69C3F3080A4FF058
S31508007240000B52465B464FF000004FF00001590113
S3150800725041EAD261500102460B46B2EB0A0863EBDB
S315080072600B094FF000024FF000034FEA891343EA77
S3150800727098634FEA8812B2EB080463EB09054FF0EE
S3150800728000024FF00003EB0043EA5473E200144691
S315080072901D4614EB0A033B6045EB0B037B604FF07E
S315080072A000024FF00003D7E9004529468B02214624
S315080072B043EA915321468A02104619467B6B0022FF
S315080072C0BB60FA60D7E90223FCF78AFF02460B4641
S315080072D01346FB630B4B5B681B0C03F0030301337C
S315080072E05B003B63FA6B3B6BB2FBF3F3BB6302E0F9
S315080072F0054BBB6300BFBB6B18464037BD46BDE8B0
S31508007300B08F00BF003802400024F400001BB7000D
S3150800731080B400AF034B1B681846BD465DF8047B76
S31508007320704700BF0000002080B500AFFFF7F0FFF0
S315080073300246054B9B689B0A03F007030349CB5C8F
S3150800734022FA03F3184680BD0038024004BC000840
S3150800735080B483B000AF786039607B680F221A600A
S31508007360124B9B6803F003027B685A600F4B9B68BD
S3150800737003F0F0027B689A600C4B9B6803F4E052BA
S315080073807B68DA60094B9B68DB0803F4E0527B688C
S315080073901A61074B1B6803F007023B681A6000BFB7
S315080073A00C37BD465DF8047B704700BF00380240C5
S315080073B0003C024080B582B000AF78607B68002B45
S315080073C001D101237BE07B685B6A002B08D17B68CF
S315080073D05B68B3F5827F09D07B680022DA6105E035
S315080073E07B6800221A617B6800225A617B6800224A
S315080073F09A627B6893F85130DBB2002B06D17B6822
S31508007400002283F850207868FDF764FC7B68022226
S3150800741083F851207B681B681A687B681B6822F012
S3150800742040021A607B685B6803F482727B689B681B
S3150800743003F404431A437B68DB6803F400631A43C6
S315080074407B681B6903F002031A437B685B6903F0D8
S3150800745001031A437B689B6903F400731A437B682C
S31508007460DB6903F038031A437B681B6A03F0800361
S3150800747042EA03017B689B6A03F400527B681B6837
S315080074800A431A607B689B691B0C03F004017B683E
S315080074905B6A03F010027B681B680A435A607B68C4
S315080074A01B68DA697B681B6822F40062DA617B680C
S315080074B000225A657B68012283F85120002318466A
S315080074C00837BD4680BD000080B586B000AFF860BD
S315080074D0B9607A607B800023FB75FB6893F85030AF
S315080074E0012B01D10223E3E0FB68012283F8502037
S315080074F0FB6893F85130BB75FB685B683B61BB7DE5
S31508007500012B0DD03B69B3F5827F06D1FB689B68DA
S31508007510002B02D1BB7D042B02D00223FB75C2E0EF
S31508007520BB68002B05D07B68002B02D07B88002B1C
S3150800753002D10123FB75B6E0FB6893F85130DBB244
S31508007540042B03D0FB68052283F85120FB68002230
S315080075505A65FB68BA681A63FB687A889A86FB6874
S315080075607A88DA86FB687A689A63FB687A889A87E3
S31508007570FB687A88DA87FB6800221A64FB680022AF
S315080075805A64FB6893F85130DBB2042B08D1FB68C8
S31508007590DB6C494A1A64FB68DB6C484ADA6307E025
S315080075A0FB68DB6C464A1A64FB68DB6C454ADA639F
S315080075B0FB68DB6C444ADA64FB68DB6C00221A65FC
S315080075C0FB68D86CFB681B680C331946FB689B6B19
S315080075D01A46FB68DB8F9BB2FEF76CFD0346002B51
S315080075E00CD0FB685B6D43F01002FB685A650123FB
S315080075F0FB75FB68012283F8512054E0FB681B6881
S315080076005A68FB681B6842F001025A60FB689B6C6B
S3150800761000221A64FB689B6C0022DA63FB689B6C89
S315080076200022DA64FB689B6C00221A65FB68986C7A
S31508007630FB681B6B1946FB681B680C331A46FB680C
S31508007640DB8E9BB2FEF736FD0346002B0CD0FB689B
S315080076505B6D43F01002FB685A650123FB75FB68F6
S31508007660012283F851201EE0FB681B681B6803F0A3
S315080076704003402B07D0FB681B681A68FB681B6829
S3150800768042F040021A60FB681B685A68FB681B6870
S3150800769042F020025A60FB681B685A68FB681B6840
S315080076A042F002025A60FB68002283F85020FB7DF4
S315080076B018461837BD4680BD017B0008C979000801
S315080076C01D7B0008717A0008397B000880B483B0F6
S315080076D000AF78607B6893F85030012B01D1022304
S315080076E010E07B68012283F850207B681B685A6883
S315080076F07B681B6842F003025A607B68002283F8A5
S315080077005020002318460C37BD465DF8047B7047A9
S3150800771080B584B000AF78600023FB737B689B6CF0
S31508007720002B0FD07B689B6C1846FEF71BFD0346A3
S31508007730002B07D07B685B6D43F010027B685A65A7
S315080077400123FB737B68DB6C002B0FD07B68DB6C3B
S315080077501846FEF707FD0346002B07D07B685B6DCE
S3150800776043F010027B685A650123FB737B681B682C
S315080077705A687B681B6822F003025A607B680122FC
S3150800778083F85120FB7B18461037BD4680BD0000A4
S3150800779080B588B000AF78607B681B685B68FB6162
S315080077A07B681B689B68BB61BB6903F04003002BC1
S315080077B00ED1BB6903F00103002B09D0FB6903F066
S315080077C04003002B04D07B681B6C78689847CEE092
S315080077D0BB6903F00203002B09D0FB6903F08003A1
S315080077E0002B04D07B685B6C78689847BFE0BB6960
S315080077F003F02003002B0AD1BB6903F04003002BDA
S3150800780005D1BB6903F48073002B00F0B080FB69D7
S3150800781003F02003002B00F0AA80BB6903F04003A5
S31508007820002B23D07B6893F85130DBB2032B11D0A1
S315080078307B685B6D43F004027B685A6500237B61B5
S315080078407B681B68DB687B617B681B689B687B6160
S315080078507B690BE000233B617B681B68DB683B6147
S315080078607B681B689B683B613B6980E0BB6903F0EA
S315080078702003002B14D07B685B6D43F001027B6804
S315080078805A650023FB607B681B689B68FB607B6806
S315080078901B681A687B681B6822F040021A60FB683E
S315080078A0BB6903F48073002B0CD07B685B6D43F0D7
S315080078B008027B685A650023BB607B681B689B6867
S315080078C0BB60BB687B685B6D002B4FD07B681B6811
S315080078D05A687B681B6822F0E0025A607B680122BE
S315080078E083F85120FB6903F00203002B04D1FB69DE
S315080078F003F00103002B34D07B681B685A687B6849
S315080079001B6822F003025A607B68DB6C002B11D0DF
S315080079107B68DB6C174A1A657B68DB6C1846FEF7D2
S3150800792091FC0346002B05D07B685B6D43F0400253
S315080079307B685A657B689B6C002B16D07B689B6CB2
S315080079400C4A1A657B689B6C1846FEF77BFC034657
S31508007950002B0AD07B685B6D43F040027B685A6552
S3150800796003E0786800F026F800E000BF00BF203783
S31508007970BD4680BD797B000880B483B000AF7860CF
S3150800798000BF0C37BD465DF8047B704780B483B0F2
S3150800799000AF786000BF0C37BD465DF8047B7047C2
S315080079A080B483B000AF786000BF0C37BD465DF881
S315080079B0047B704780B483B000AF786000BF0C3793
S315080079C0BD465DF8047B704780B584B000AF78602B
S315080079D07B689B6BFB60FDF723FEB8607B681B68C2
S315080079E01B6803F48073B3F5807F3BD0FB681B6884
S315080079F05A68FB681B6822F020025A60FB689B687D
S31508007A00002B0DD1FB685B68B3F5827F08D1FB6854
S31508007A101B685A68FB681B6822F003025A6007E075
S31508007A20FB681B685A68FB681B6822F001025A60EB
S31508007A30BA686421F86800F03BF90346002B02D0C7
S31508007A40FB6820225A65FB680022DA87FB68012258
S31508007A5083F85120FB685B6D002B03D0F868FFF7AD
S31508007A60A9FF02E0F868FFF787FF1037BD4680BD1B
S31508007A7080B584B000AF78607B689B6BFB60FDF7D0
S31508007A80CFFDB8607B681B681B6803F48073B3F589
S31508007A90807F2FD0FB681B685A68FB681B6822F03A
S31508007AA020025A60BA686421F86800F067F903464C
S31508007AB0002B05D0FB685B6D43F02002FB685A6516
S31508007AC0FB681B685A68FB681B6822F003025A6049
S31508007AD0FB680022DA86FB680022DA87FB68012247
S31508007AE083F85120FB685B6D002B03D0F868FFF71D
S31508007AF061FF02E0F868FCF743FF1037BD4680BD1A
S31508007B0080B584B000AF78607B689B6BFB60F868D3
S31508007B10FFF73CFF00BF1037BD4680BD80B584B077
S31508007B2000AF78607B689B6BFB60F868FFF738FFEF
S31508007B3000BF1037BD4680BD80B584B000AF786001
S31508007B407B689B6BFB60FB681B685A68FB681B6855
S31508007B5022F003025A60FB685B6D43F01002FB6873
S31508007B605A65FB68012283F85120F868FFF722FF5F
S31508007B7000BF1037BD4680BD80B584B000AF7860C1
S31508007B807B689B6BFB60FB680022DA87FB68002238
S31508007B90DA86F868FFF70EFF00BF1037BD4680BDCE
S31508007BA080B588B000AFF860B9603B601346FB71DA
S31508007BB0FDF736FD0246BB6A9B1A3A681344FB6119
S31508007BC0FDF72EFDB861394B1B685B011B0DFA6981
S31508007BD002FB03F37B6154E03B68B3F1FF3F50D0EF
S31508007BE0FDF71EFD0246BB69D31AFA699A4202D905
S31508007BF0FB69002B3DD1FB681B685A68FB681B684C
S31508007C0022F0E0025A60FB685B68B3F5827F11D107
S31508007C10FB689B68B3F5004F04D0FB689B68B3F517
S31508007C20806F07D1FB681B681A68FB681B6822F01F
S31508007C3040021A60FB689B6AB3F5005F0FD1FB68C8
S31508007C401B681A68FB681B6822F400521A60FB68F6
S31508007C501B681A68FB681B6842F400521A60FB68C6
S31508007C60012283F85120FB68002283F85020032361
S31508007C7017E07B69002B01D10023FB617B69013B7F
S31508007C807B61FB681B689A68BB681340BA689A42AE
S31508007C900CBF01230023DBB21A46FB799A429BD11B
S31508007CA0002318462037BD4680BD00BF00000020CF
S31508007CB080B586B002AFF860B9607A60FB685B6829
S31508007CC0B3F5827F11D1FB689B68B3F5004F04D0EA
S31508007CD0FB689B68B3F5806F07D1FB681B681A6859
S31508007CE0FB681B6822F040021A60FB685B68B3F504
S31508007CF0827F2AD1FB689B68B3F5806F12D07B68B8
S31508007D000093BB6800228021F868FFF749FF034605
S31508007D10002B2DD0FB685B6D43F02002FB685A658B
S31508007D20032326E07B680093BB6800220121F868DC
S31508007D30FFF736FF0346002B1AD0FB685B6D43F04E
S31508007D402002FB685A65032313E07B680093BB682F
S31508007D5000220121F868FFF723FF0346002B07D00E
S31508007D60FB685B6D43F02002FB685A65032300E05D
S31508007D70002318461037BD4680BD000080B588B080
S31508007D8002AFF860B9607A601B4B1B681B4AA2FBFE
S31508007D9003235B0D4FF47A7202FB03F37B61FB68E6
S31508007DA05B68B3F5827F12D17B680093BB680022BB
S31508007DB08021F868FFF7F4FE0346002B16D0FB680F
S31508007DC05B6D43F02002FB685A6503230FE07B696D
S31508007DD0002B0AD07B69013B7B61FB681B689B68AB
S31508007DE003F08003802BF2D000E000BF0023184682
S31508007DF01837BD4680BD00BF00000020819F5E1673
S31508007E0080B582B000AF78607B68002B01D1012372
S31508007E1041E07B6893F83D30DBB2002B06D17B68E6
S31508007E20002283F83C207868FDF7B2FA7B680222C4
S31508007E3083F83D207B681A687B6804331946104628
S31508007E4000F08EFC7B68012283F846207B680122BD
S31508007E5083F83E207B68012283F83F207B68012255
S31508007E6083F840207B68012283F841207B68012241
S31508007E7083F842207B68012283F843207B6801222D
S31508007E8083F844207B68012283F845207B68012219
S31508007E9083F83D20002318460837BD4680BD0000FC
S31508007EA080B485B000AF78607B6893F83D30DBB26C
S31508007EB0012B01D0012344E07B68022283F83D2090
S31508007EC07B681B68DA687B681B6842F00102DA6027
S31508007ED07B681B681E4A934218D07B681B68B3F1FF
S31508007EE0804F13D07B681B681A4A93420ED07B6872
S31508007EF01B68194A934209D07B681B68174A934244
S31508007F0004D07B681B68164A934211D17B681B68AC
S31508007F109B6803F00703FB60FB68062B10D07B68A1
S31508007F201B681A687B681B6842F001021A6007E042
S31508007F307B681B681A687B681B6842F001021A6036
S31508007F40002318461437BD465DF8047B704700BF0A
S31508007F50000001400004004000080040000C0040FA
S31508007F600040014080B582B000AF78607B68002B86
S31508007F7001D1012341E07B6893F83D30DBB2002B49
S31508007F8006D17B68002283F83C20786800F039F82F
S31508007F907B68022283F83D207B681A687B68043375
S31508007FA01946104600F0DCFB7B68012283F8462060
S31508007FB07B68012283F83E207B68012283F83F20F4
S31508007FC07B68012283F840207B68012283F84120E0
S31508007FD07B68012283F842207B68012283F84320CC
S31508007FE07B68012283F844207B68012283F84520B8
S31508007FF07B68012283F83D20002318460837BD46D2
S3150800800080BD80B483B000AF786000BF0C37BD4632
S315080080105DF8047B7047000080B584B000AF7860D7
S3150800802039600023FB733B68002B04D17B6893F807
S315080080303E30DBB213E03B68042B04D17B6893F82F
S315080080403F30DBB20BE03B68082B04D17B6893F822
S315080080504030DBB203E07B6893F84130DBB2BB7398
S315080080603B68002B04D17B6893F84230DBB213E0FF
S315080080703B68042B04D17B6893F84330DBB20BE0F2
S315080080803B68082B04D17B6893F84430DBB203E0E5
S315080080907B6893F84530DBB27B73BB7B012B02D13F
S315080080A07B7B012B01D00123C2E03B68002B04D166
S315080080B07B68022283F83E2013E03B68042B04D138
S315080080C07B68022283F83F200BE03B68082B04D12B
S315080080D07B68022283F8402003E07B68022283F84B
S315080080E041203B68002B04D17B68022283F842209A
S315080080F013E03B68042B04D17B68022283F84320F3
S315080081000BE03B68082B04D17B68022283F84420E5
S3150800811003E07B68022283F845203B680C2B41D894
S3150800812001A252F823F000BF5D810008A58100086E
S31508008130A5810008A58100086F810008A5810008AF
S31508008140A5810008A581000881810008A58100088D
S31508008150A5810008A5810008938100087B681B6833
S31508008160DA687B681B6842F00202DA601DE07B6809
S315080081701B68DA687B681B6842F00402DA6014E060
S315080081807B681B68DA687B681B6842F00802DA605D
S315080081900BE07B681B68DA687B681B6842F0100294
S315080081A0DA6002E00123FB7300BFFB7B002B3ED1A4
S315080081B07B681B6801223968184600F009FD7B6850
S315080081C01B681D4A934218D07B681B68B3F1804F21
S315080081D013D07B681B68194A93420ED07B681B68CC
S315080081E0174A934209D07B681B68164A934204D003
S315080081F07B681B68144A934211D17B681B689B688D
S3150800820003F00703BB60BB68062B10D07B681B68AE
S315080082101A687B681B6842F001021A6007E07B68EF
S315080082201B681A687B681B6842F001021A60FB7BB0
S3150800823018461037BD4680BD0000014000040040C6
S3150800824000080040000C00400040014080B582B0A4
S3150800825000AF78607B681B681B6903F00203022B7A
S3150800826022D17B681B68DB6803F00203022B1BD153
S315080082707B681B686FF002021A617B6801221A7715
S315080082807B681B689B6903F00303002B03D078689F
S31508008290FCF788FB05E0786800F043FA786800F098
S315080082A04AFA7B6800221A777B681B681B6903F009
S315080082B00403042B22D17B681B68DB6803F00403E4
S315080082C0042B1BD17B681B686FF004021A617B685C
S315080082D002221A777B681B689B6903F44073002B9C
S315080082E003D07868FCF75EFB05E0786800F019FAB9
S315080082F0786800F020FA7B6800221A777B681B688A
S315080083001B6903F00803082B22D17B681B68DB680E
S3150800831003F00803082B1BD17B681B686FF0080263
S315080083201A617B6804221A777B681B68DB6903F08D
S315080083300303002B03D07868FCF734FB05E0786864
S3150800834000F0EFF9786800F0F6F97B6800221A77F2
S315080083507B681B681B6903F01003102B22D17B680E
S315080083601B68DB6803F01003102B1BD17B681B68A6
S315080083706FF010021A617B6808221A777B681B68FF
S31508008380DB6903F44073002B03D07868FCF70AFB1B
S3150800839005E0786800F0C5F9786800F0CCF97B68E4
S315080083A000221A777B681B681B6903F00103012BFF
S315080083B00ED17B681B68DB6803F00103012B07D12C
S315080083C07B681B686FF001021A617868FCF738FC55
S315080083D07B681B681B6903F08003802B0ED17B68C2
S315080083E01B68DB6803F08003802B07D17B681B685A
S315080083F06FF080021A61786800F088FC7B681B6859
S315080084001B6903F04003402B0ED17B681B68DB68B1
S3150800841003F04003402B07D17B681B686FF04002CE
S315080084201A61786800F091F97B681B681B6903F08C
S315080084302003202B0ED17B681B68DB6803F0200322
S31508008440202B07D17B681B686FF020021A617868B9
S3150800845000F052FC00BF0837BD4680BD80B586B027
S3150800846000AFF860B9607A600023FB75FB6893F883
S315080084703C30012B01D1022388E0FB68012283F8F6
S315080084803C207B68002B1BD1FB681868BB68196801
S31508008490BB685A68BB68DB6800F0E2F9FB681B68D2
S315080084A09A69FB681B6822F00C029A61FB681B68D4
S315080084B09969BB689A68FB681B680A439A6160E019
S315080084C07B68042B1CD1FB681868BB681968BB68F5
S315080084D05A68BB68DB6800F05AFAFB681B689A6939
S315080084E0FB681B6822F440629A61FB681B689969FD
S315080084F0BB689B681A02FB681B680A439A6140E0DE
S315080085007B68082B1BD1FB681868BB681968BB68B1
S315080085105A68BB68DB6800F0A7FAFB681B68DA696B
S31508008520FB681B6822F00C02DA61FB681B68D969D4
S31508008530BB689A68FB681B680A43DA6121E07B68B6
S315080085400C2B1CD1FB681868BB681968BB685A688D
S31508008550BB68DB6800F0C4FAFB681B68DA69FB686D
S315080085601B6822F44062DA61FB681B68D969BB683C
S315080085709B681A02FB681B680A43DA6101E001235B
S31508008580FB75FB68002283F83C20FB7D18461837EC
S31508008590BD4680BD80B584B000AF786039600023E1
S315080085A0FB737B6893F83C30012B01D10223B4E0BE
S315080085B07B68012283F83C207B68022283F83D20F1
S315080085C07B681B689B68BB60BB6823F07703BB604E
S315080085D0BB6823F47F43BB607B681B68BA689A60F4
S315080085E03B681B68B3F5005F3ED0B3F5005F00F249
S315080085F08780B3F5805F00F08680B3F5805F7FD80B
S31508008600702B1AD0702B7BD8602B50D0602B77D864
S31508008610502B3CD0502B73D8402B58D0402B6FD8BA
S31508008620302B64D0302B6BD8202B60D0202B67D80A
S31508008630002B5CD0102B5AD062E07B6818683B6828
S3150800864099683B685A683B68DB6800F0A1FA7B6862
S315080086501B689B68BB60BB6843F07703BB607B689D
S315080086601B68BA689A604FE07B6818683B68996827
S315080086703B685A683B68DB6800F08AFA7B681B68C7
S315080086809A687B681B6842F480429A603CE07B6883
S3150800869018683B6859683B68DB681A4600F048F971
S315080086A07B681B685021184600F057FA2CE07B6857
S315080086B018683B6859683B68DB681A4600F0A4F9F5
S315080086C07B681B686021184600F047FA1CE07B6847
S315080086D018683B6859683B68DB681A4600F028F951
S315080086E07B681B684021184600F037FA0CE07B6867
S315080086F01A683B681B681946104600F02EFA03E014
S315080087000123FB7300E000BF7B68012283F83D204C
S315080087107B68002283F83C20FB7B18461037BD4651
S3150800872080BD80B483B000AF786000BF0C37BD460B
S315080087305DF8047B704780B483B000AF786000BFF3
S315080087400C37BD465DF8047B704780B483B000AF34
S31508008750786000BF0C37BD465DF8047B70470000A3
S3150800876080B485B000AF786039607B681B68FB60B1
S315080087707B68344A93420FD07B68B3F1804F0BD0A5
S315080087807B68314A934207D07B68304A934203D0CC
S315080087907B682F4A934208D1FB6823F07003FB607D
S315080087A03B685B68FA681343FB607B68254A93421B
S315080087B01BD07B68B3F1804F17D07B68224A93425F
S315080087C013D07B68214A93420FD07B68204A934294
S315080087D00BD07B681F4A934207D07B681E4A934298
S315080087E003D07B681D4A934208D1FB6823F4407383
S315080087F0FB603B68DB68FA681343FB60FB6823F0A1
S3150800880080023B685B691343FB607B68FA681A6001
S315080088103B689A687B68DA623B681A687B689A6282
S315080088207B68084A934203D13B681A697B681A63D6
S315080088307B6801225A6100BF1437BD465DF8047B88
S31508008840704700BF000001400004004000080040D7
S31508008850000C00400040014000440140004801402F
S3150800886080B487B000AFF860B9607A603B60FB6897
S315080088701B6A23F00102FB681A62FB689B697B612D
S31508008880FB681B6A3B61FB68244A934213D0FB686A
S31508008890B3F1804F0FD0FB68214A93420BD0FB6897
S315080088A0204A934207D0FB681F4A934203D0FB68CD
S315080088B01E4A934201D1012300E00023002B08D071
S315080088C07B6923F003037B617A697B6813437B61C9
S315080088D003E07B6943F001037B617B6923F0F003C6
S315080088E07B613B681B01DBB27A6913437B613B6999
S315080088F023F00A033B61BB6803F00A033A69134392
S315080089003B61FB687A699A61FB683A691A6200BF3B
S315080089101C37BD465DF8047B704700BF0000014068
S315080089200004004000080040000C004000400140E0
S3150800893080B487B000AFF860B9607A60FB681B6ADC
S315080089407B61FB681B6A23F00102FB681A62FB68FD
S315080089509B693B613B6923F0F0033B617B681B0124
S315080089603A6913433B617B6923F00A037B617A69A1
S31508008970BB6813437B61FB683A699A61FB687A694D
S315080089801A6200BF1C37BD465DF8047B704780B489
S3150800899087B000AFF860B9607A603B60FB681B6A15
S315080089A023F01002FB681A62FB689B697B61FB680F
S315080089B01B6A3B617B6923F440737B617B681B02FE
S315080089C07A6913437B617B6923F470437B613B6857
S315080089D01B039BB27A6913437B613B6923F0A003AF
S315080089E03B61BB681B0103F0A0033A6913433B6173
S315080089F0FB687A699A61FB683A691A6200BF1C3794
S31508008A00BD465DF8047B704780B487B000AFF86058
S31508008A10B9607A60FB681B6A23F01002FB681A6269
S31508008A20FB689B697B61FB681B6A3B617B6923F476
S31508008A3070437B617B681B037A6913437B613B69DF
S31508008A4023F0A0033B61BB681B013A6913433B61F2
S31508008A50FB687A699A61FB683A691A6200BF1C3733
S31508008A60BD465DF8047B704780B487B000AFF860F8
S31508008A70B9607A603B60FB681B6A23F48072FB6806
S31508008A801A62FB68DB697B61FB681B6A3B617B6971
S31508008A9023F003037B617A697B6813437B617B69F7
S31508008AA023F0F0037B613B681B01DBB27A69134351
S31508008AB07B613B6923F420633B61BB681B0203F4BB
S31508008AC020633A6913433B61FB687A69DA61FB689C
S31508008AD03A691A6200BF1C37BD465DF8047B7047C9
S31508008AE080B487B000AFF860B9607A603B60FB6815
S31508008AF01B6A23F48052FB681A62FB68DB697B6198
S31508008B00FB681B6A3B617B6923F440737B617B6866
S31508008B101B027A6913437B617B6923F470437B618B
S31508008B203B681B039BB27A6913437B613B6923F459
S31508008B3020433B61BB681B0303F420433A69134394
S31508008B403B61FB687A69DA61FB683A691A6200BFB9
S31508008B501C37BD465DF8047B704780B485B000AF0E
S31508008B60786039607B689B68FB60FB6823F070035C
S31508008B70FB603A68FB68134343F00703FB607B68B6
S31508008B80FA689A6000BF1437BD465DF8047B7047E3
S31508008B9080B487B000AFF860B9607A603B60FB6864
S31508008BA09B687B617B6923F47F437B613B681A0280
S31508008BB07B681A43BB6813437A6913437B61FB6876
S31508008BC07A699A6000BF1C37BD465DF8047B70471A
S31508008BD080B487B000AFF860B9607A60BB6803F00C
S31508008BE01F03012202FA03F37B61FB681A6A7B6999
S31508008BF0DB431A40FB681A62FB681A6ABB6803F013
S31508008C001F03796801FA03F31A43FB681A6200BF67
S31508008C101C37BD465DF8047B7047000080B485B0FC
S31508008C2000AF786039607B6893F83C30012B01D13E
S31508008C30022350E07B68012283F83C207B680222ED
S31508008C4083F83D207B681B685B68FB607B681B6854
S31508008C509B68BB60FB6823F07003FB603B681B687E
S31508008C60FA681343FB607B681B68FA685A607B687E
S31508008C701B681C4A934218D07B681B68B3F1804F67
S31508008C8013D07B681B68184A93420ED07B681B6812
S31508008C90164A934209D07B681B68154A934204D04A
S31508008CA07B681B68134A93420CD1BB6823F0800388
S31508008CB0BB603B685B68BA681343BB607B681B682C
S31508008CC0BA689A607B68012283F83D207B68002297
S31508008CD083F83C20002318461437BD465DF8047B0C
S31508008CE0704700BF00000140000400400008004033
S31508008CF0000C00400040014080B483B000AF7860AB
S31508008D0000BF0C37BD465DF8047B704780B483B05E
S31508008D1000AF786000BF0C37BD465DF8047B70472E
S31508008D2080B485B000AF786039607B681B78002B0B
S31508008D3000F09B807B6802331B78012B40F09580FE
S31508008D407B6803331B780C2B40F08F807B680433D9
S31508008D501B78022B40F089807B6805331B78012B32
S31508008D6040F083800023FB734AE00023BB7341E095
S31508008D70FA7BBB7B6049D2000A4413441B78002B5C
S31508008D800ED0FA7BBB7B5C49D2000A4413441B789D
S31508008D901A467B6813441B7803F00103DBB200E034
S31508008DA000233B73FA7BBB7B5449D2000A44134425
S31508008DB01B78002B0DD0FA7BBB7B5049D2000A44A6
S31508008DC013441B781A467B6813441B789B08DBB24E
S31508008DD000E00023FB72FA7BBB7B387BF97A014300
S31508008DE0C8B24749D2000A44134402461A70BB7BEC
S31508008DF00133BB73BB7B072BBAD9FB7B0133FB73F0
S31508008E00FB7B022BB1D900237B7321E07B7B9B0084
S31508008E1006337A681A447B7B11783A4AD1547B7BAD
S31508008E209B0008337A681A447B7B1178354A1344C9
S31508008E300A461A757B7B9B0009337A681A447B7B42
S31508008E401178304A13440A469A777B7B01337B7341
S31508008E507B7B092BDAD97B6893F82E20294B83F87C
S31508008E602820294B01221A703FE07B681B78002BCB
S31508008E7013D07B6802331B78012B0ED17B68033332
S31508008E801B780C2B09D17B6804331B78032B04D180
S31508008E907B6805331B78012B27D07B681B78002B52
S31508008EA023D07B6802331B78012B1ED17B680333E2
S31508008EB01B780C2B19D17B6804331B78032B14D130
S31508008EC07B6805331B78022B0FD17B6806331B782A
S31508008ED0092B0AD87B6806331B78013B7A68D2F8D7
S31508008EE007200A4941F82320FFE700BF1437BD468B
S31508008EF05DF8047B704700BF40040020280400206A
S31508008F005C0A0020F0090020450A00201C0A0020FF
S31508008F1090B585B000AF786039601E4B01221A7093
S31508008F203B6801221A703B68013331221A703B688C
S31508008F30023302221A703B6803330C221A703B680C
S31508008F40043303221A703B68053301221A70002382
S31508008F50FB730CE0FA7BFB7B9B00063339680B44FA
S31508008F600D4951F822201A60FB7B0133FB73FB7B0A
S31508008F70092BEFD93B6803F131043121386801F038
S31508008F8055FA03462370034B00221A7000BF1437A4
S31508008F90BD4690BD440A00201C0A002080B400AFDC
S31508008FA000231846BD465DF8047B704790B583B02C
S31508008FB000AF00F009FD10215648FDF753FD0346A2
S31508008FC0002B03D1544B01221A7002E0524B0322A4
S31508008FD01A70524B1B78012B08D100F093F900F058
S31508008FE0A3FA00F03BFD4D4B00221A704C4B1B7840
S31508008FF0002B40F08B800023FB7183E0FB79494A04
S31508009000D35C012B21D1FA791346DB009B1ADB00CE
S31508009010454A9C18FB79184600F03AFD034619465E
S31508009020204601F043F90346002B65D1FA793E49FB
S315080090301346DB009B1ADB000B4402331A88FB79C4
S3150800904011463A4A42F8231059E0FB79354AD35C6F
S31508009050022B40D1FA791346DB009B1ADB00324A11
S315080090609C18FB79184600F013FD0346194620465E
S3150800907001F01CF90346002B40D1FA792A49134618
S31508009080DB009B1ADB000B4402331B8807EE903A81
S31508009090B8EEE77A264BD3ED007A67EE276A254BBA
S315080090A01B6807EE903AF8EE677A86EEA77A224BA7
S315080090B01A68204B1B68134407EE903AF8EE677A55
S315080090C067EE277AFCEEE77AFB7917EE901A174ACD
S315080090D042F8231013E0FB79124AD35C032B0ED116
S315080090E0FB79184600F014FD03461A46FB7911462B
S315080090F00E4A42F8231002E000BF00E000BFFB79E9
S315080091000133FB71FB79092B7FF678AF00BF0C376B
S31508009110BD4690BD00000240460A0020450A0020D0
S31508009120440A0020F0090020EC0100201C0A002057
S315080091301C040020240400202004002090B583B0DD
S3150800914000AF78600B46FB701346BB70FB780922AC
S315080091500021184601F04EF90346FB70FB782A4AAF
S31508009160D35C042B0CD1BA78FB781946786800F0E2
S31508009170EDFC0246FB781146244A42F823103EE0ED
S31508009180FB78214AD35C052B04D0FB781E4AD35CB6
S31508009190062B0CD1BA78FB781946786800F09EFD44
S315080091A00246FB781146194A42F8231027E0FB7855
S315080091B0154AD35C082B0ED1FB78144A52F82320A3
S315080091C0FC78B978FB78184600F046FD03460F4A46
S315080091D042F8243013E0FB780B4AD35C072B0ED1F8
S315080091E0F978FB78084A13441B7DBA78786800F04A
S315080091F049FE0246FB781146044A42F8231000BF8E
S315080092000C37BD4690BD00BFF00900201C0A00209F
S3150800921080B500AF002220213648FDF73BFC00222E
S3150800922004213548FDF736FC00224FF40061334827
S31508009230FDF730FC00224FF480613048FDF72AFC28
S3150800924000224FF400412E48FDF724FC00224FF47B
S3150800925080512B48FDF71EFC00224FF4004125489B
S31508009260FDF718FC00224FF480412248FDF712FC56
S3150800927000224FF480511F48FDF70CFC00224FF4E2
S3150800928000511C48FDF706FC00224FF400711B48EC
S31508009290FDF700FC00224FF480711848FDF7FAFB31
S315080092A0002240211548FDF7F5FB00224FF4006126
S315080092B01348FDF7EFFB00224FF480510F48FDF7E6
S315080092C0E9FB00224FF480610A48FDF7E3FB01221F
S315080092D020210848FDF7DEFB012204210648FDF798
S315080092E0D9FB01224FF400610448FDF7D3FB00BF08
S315080092F080BD00BF00040240000C02400008024086
S315080093000000024080B582B000AF0023FB71F9E08F
S31508009310FB79814A12F8333003F00103002B0CBFA6
S3150800932001230023DBB21A464FF400717B48FDF790
S31508009330B1FBFB79784ADB0013445B7803F0010341
S31508009340002B0CBF01230023DBB21A464FF48071B1
S315080093507248FDF79FFBFB796F4ADB0013449B7944
S3150800936003F00103002B0CBF01230023DBB21A46CE
S3150800937040216A48FDF78EFBFB79674ADB001344F8
S31508009380DB7903F00103002B0CBF01230023DBB2BA
S315080093901A464FF400616248FDF77CFBFB795E4A8A
S315080093A0DB0013449B7803F00103002B0CBF012359
S315080093B00023DBB21A464FF400415A48FDF76AFB10
S315080093C0FB79554ADB001344DB7803F00103002BD5
S315080093D00CBF01230023DBB21A464FF480415148E3
S315080093E0FDF758FBFB794C4ADB0013441B7903F065
S315080093F00103002B0CBF01230023DBB21A464FF4EE
S3150800940080514848FDF746FBFB79434ADB00134485
S315080094105B7903F00103002B0CBF01230023DBB2A9
S315080094201A464FF400513F48FDF734FBFB79022BEF
S3150800943026D0022B34DC002B02D0012B10D02FE0D3
S3150800944001224FF480613548FDF724FB012001F025
S315080094500DF800224FF480613048FDF71BFB1FE032
S3150800946001224FF400412E48FDF714FB012000F0BD
S31508009470FDFF00224FF400412948FDF70BFB0FE0E2
S3150800948001224FF480512648FDF704FB012000F025
S31508009490EDFF00224FF480512148FDF7FBFA00BF8B
S315080094A000224FF400711D48FDF7F4FA00224FF42C
S315080094B080711A48FDF7EEFA002240211748FDF799
S315080094C0E9FA00224FF400611548FDF7E3FA002295
S315080094D04FF400411348FDF7DDFA00224FF48041AE
S315080094E01048FDF7D7FA00224FF480510D48FDF7D2
S315080094F0D1FA00224FF400510A48FDF7CBFAFB795E
S315080095000133FB71FB79022B7FF602AF00BF00BF68
