S017000032302D31302D312D352D302D302D362E7372656340
S3150800400000000120055000081D4D0008214D00083C
S31508004010254D0008294D00082D4D00080000000018
S31508004020000000000000000000000000D19A00080F
S31508004030314D000800000000619B0008C59B000880
S3150800404055500008555000085550000855500008AE
S31508004050555000085550000855500008555000089E
S31508004060555000085550000855500008555000088E
S31508004070555000085550000855500008555000087E
S31508004080555000085550000855500008000000001B
S31508004090000000000000000000000000354D000888
S315080040A055500008555000083D4D00085550000869
S315080040B0854D0008914D00085550000855500008D8
S315080040C05550000855500008555000089D4D0008E9
S315080040D05550000855500008494D000800000000DA
S315080040E055500008555000085550000800000000BB
S315080040F00000000000000000000000005550000805
S31508004100000000005550000855500008555000089A
S315080041100000000000000000000000000000000091
S31508004120A94D00085550000855500008B54D00081F
S3150800413055500008000000000000000000000000C4
S3150800414000000000000000000000000055500008B4
S31508004150555000085550000855500008555000089D
S3150800416055500008555000080000000000000000E7
S315080041700000000000000000000000000000000031
S315080041800000000055500008000000000000000074
S315080041905550000800000000000000000000000064
S315080041A00000000000000000000000000000000001
S315080041B000000000000000000000000000000000F1
S315080041C000000000000000000000000000000000E1
S315080041D00000000000000000FFFFFFFFEE11AA55D7
S315080041E010B5054C237833B9044B13B10448AFF323
S315080041F000800123237010BD10020020000000007B
S31508004200EC9F000808B5034B1BB103490348AFF3FD
S31508004210008008BD0000000014020020EC9F000882
S3150800422053B94AB9002908BF00281CBF4FF0FF310F
S315080042304FF0FF3000F072B9ADF1080C6DE904CE0D
S3150800424000F006F8DDF804E0DDE9022304B0704763
S315080042502DE9F047089E04468846002B4BD18A4232
S31508004260154667D9B2FA82F24AB1C2F1200701FAB5
S3150800427002F320FA07F7954047EA030894404FEA05
S31508004280154E230CB8FBFEF71FFA85FC0EFB1788A4
S3150800429043EA084307FB0CF1994209D9EB1807F1E1
S315080042A0FF3080F01B81994240F21881023F2B446F
S315080042B05B1AA4B2B3FBFEF00EFB103344EA0344C8
S315080042C000FB0CFCA44509D92C1900F1FF3380F03A
S315080042D00781A44540F2048102382C4440EA07408D
S315080042E0A4EB0C0400271EB1D4400023C6E9004302
S315080042F03946BDE8F0878B4209D9002E00F0EB80DD
S315080043000027C6E9000138463946BDE8F087B3FA02
S3150800431083F7002F47D18B4202D3824200F2FA80FC
S31508004320841A61EB030301209846002EE0D0C6E903
S315080043300048DDE702B9FFDEB2FA82F2002A40F051
S315080043408F80491B4FEA154E1FFA85F80127B1FBE6
S31508004350FEFC230C0EFB1C1143EA014308FB0CF17F
S31508004360994207D9EB180CF1FF3002D2994200F2B4
S31508004370CD808446591AA3B2B1FBFEF00EFB101489
S3150800438043EA044408FB00F8A04507D92C1900F1B4
S31508004390FF3302D2A04500F2B6801846A4EB080403
S315080043A040EA0C409FE7C7F1200CBB4022FA0CFEFE
S315080043B04EEA030E01FA07F420FA0CF521FA0CF37B
S315080043C04FEA1E482543B3FBF8F92C0C08FB1933B2
S315080043D01FFA8EFA44EA034309FB0AF49C4202FADE
S315080043E007F200FA07F10BD91EEB030309F1FF30B8
S315080043F080F087809C4240F28480A9F102097344C8
S315080044001B1BADB2B3FBF8F008FB103345EA0344B7
S3150800441000FB0AFAA24508D91EEB040400F1FF3393
S315080044206BD2A24569D90238744440EA0940A0FB18
S315080044300289A4EB0A044C45C2464B4654D351D0D4
S31508004440002E69D0B1EB0A0564EB030404FA0CFCF0
S31508004450FD40FC404CEA0505C6E90054002747E73D
S31508004460C2F1200320FA03F7954001FA02F021FA77
S3150800447003F34FEA154E3843010CB3FBFEF71FFA58
S3150800448085F80EFB173341EA034107FB08F38B4215
S3150800449004FA02F407D9691807F1FF3C2FD28B42B8
S315080044A02DD9023F2944CB1A81B2B3FBFEF00EFB8D
S315080044B0103341EA034100FB08F38B4207D9691818
S315080044C000F1FF3C17D28B4215D902382944C91A84
S315080044D040EA07473BE73746304609E70746E7E637
S315080044E01846FBE64145ABD2B8EB020A69EB0E0269
S315080044F001381346A4E76046E9E7184695E7674694
S31508004500D1E781467CE702382C4447E7ACF1020C38
S315080045102B442FE7384608E73746E9E6704700BFD9
S3150800452010B5174B174A184C1A6084B04FF48031EF
S3150800453000225960184601219C629A6000921A610D
S315080045401A7683F82020DA62DA6083F83020CDE91B
S3150800455001220392D961596100F0AAFD68B90023C6
S315080045600122694606480093CDE9012300F0C2FE00
S3150800457008B100F0C7FA04B010BD00F0C3FAEEE7C0
S31508004580584C0020002001400100000F30B5026899
S315080045901E4B89B000249A42CDE90344CDE905446F
S315080045A0079401D009B030BD03F58C3300945A6CDA
S315080045B0174842F480725A645A6C02F48072009268
S315080045C0009A01941A6B42F001021A631A6B02F000
S315080045D001020192019A02941A6B42F002021A63CE
S315080045E01B6B03F00203029303250F2303A9029A08
S315080045F0CDE9033501F088F903A906480594CDE904
S31508004600035501F081F909B030BD00BF0020014013
S31508004610000002400004024010B582B000240F4B8F
S3150800462001941A6B42F480021A631B6B03F480032D
S315080046302246019305213820019B00F015FF3820FA
S3150800464000F048FF224605213B2000F00DFF3B20E5
S3150800465002B0BDE8104000F03DBF00BF0038024080
S3150800466008B502F0A9FF012003F036FFF9E700BFFD
S3150800467010B58AB003F098FB03F098FE20220021BB
S3150800468002A805F0AAFC084B01934FF4006418230E
S3150800469001AA00210548CDE9064303F0C3FE044BF1
S315080046A018600AB010BD00BF04A0000861460008E3
S315080046B0A04C00202DE9F04700248AB0CDE9054436
S315080046C0CDE90744534B009409941A6B524D534F46
S315080046D0DFF850A1DFF8509142F004021A631A6B12
S315080046E002F004020092009A01941A6B42F08002CA
S315080046F01A631A6B02F080020192019A02941A6BED
S3150800470042F001021A631A6B02F001020292029A3F
S3150800471003941A6B42F002021A631A6B02F0020241
S315080047200392039A04941A6B42F008021A631B6BED
S3150800473003F0080304932246284642F2FF01049B2D
S3150800474001F0C8F9224638464FF2A04101F0C2F9F5
S31508004750224650464FF41F4101F0BCF9224648460E
S31508004760042101F0B7F9224628464FF4C05101F05A
S31508004770B1F94FF0110805A92846FF230126CDE90E
S315080047800538CDE9074401F0BFF805A928464FF4D6
S315080047900053CDE90536CDE9074401F0B5F82846BA
S315080047A005A94FF4C0530593CDE90664089401F0B2
S315080047B0ABF805A938464FF2A0430593CDE9068420
S315080047C0089401F0A1F8504605A94FF41F43059334
S315080047D0CDE90684089401F097F8114B0794402216
S315080047E0384605A9CDE9052301F08EF8042305A965
S315080047F048460593CDE90664089401F085F82246F3
S315080048000521172000F030FE172000F063FE0AB0DD
S31508004810BDE8F08700380240000802400004024064
S315080048200000111000000240000C02400C4B0D4A1B
S3150800483010B54FF480410C4C1A60184600225C6093
S315080048401961C3E90222C3E90522C3E9072201F077
S3150800485053F900B910BDBDE8104000F053B900BFC8
S31508004860A44C002000540040A086010070B50268E0
S31508004870184B88B000249A42CDE90344CDE9054493
S31508004880079401D008B070BD134D01942B6B1348E3
S3150800489043F002032B632B6B03F0020301934FF4DF
S315080048A040730393122201230492059303220423DF
S315080048B003A9CDE90623019E01F026F802942B6C84
S315080048C043F400132B642B6C03F400130293029B2E
S315080048D008B070BD00540040003802400004024091
S315080048E030B5002495B0CDE90A44CDE90444CDE9B4
S315080048F006441F4B01940C940394196C1D4A41F00D
S31508004900805119641B6C03F080530193019B029438
S31508004910136823F4404343F400431360136803F415
S3150800492040430293092308934FF4803101224FF440
S3150800493080030225029809910D92062154220F93AD
S3150800494008A804231091119213930E95129501F05D
S315080049508BF90F224FF4805303A82946CDE9045456
S3150800496007940392069301F06FFB15B030BD00BFA4
S31508004970003802400070004008B500F06DFBFFF7F4
S31508004980AFFFFFF797FEFFF747FEFFF74FFF00F071
S31508004990BBF800F037FA00F069FAFFF7C1FD03F03B
S315080049A08BFBFFF765FE03F01BFDFEE70268034B72
S315080049B09A4200D0704703F0C9BB00BF00300140DF
S315080049C0704700BF38B50368B3F1804F044617D067
S315080049D0434A934200D038BD257F042D1BD0082DAD
S315080049E0F9D102213F4801F06FF83F4B1B680128B7
S315080049F0586A6ED001220521BDE8384003F016B981
S31508004A00057F012D45D0022D34D0042D21D0082D47
S31508004A1011D02368DCE70121324801F055F8324B02
S31508004A201B6801282946586A0CBF0022012203F098
S31508004A30FDF8257FD3E729462C4801F045F82A4B8F
S31508004A401B680128186C3ED00122032103F0EEF8FA
S31508004A50DFE72946254801F037F8234B1B6801286C
S31508004A6008BF0022D86B18BF0122022103F0DEF826
S31508004A70257FCCE729461D4801F026F81A4B012860
S31508004A801B6818D00122986B114603F0CFF8257FD2
S31508004A90BBE72946154801F017F8134B01281B6890
S31508004AA00CBF00222A46586B0CBF1146002103F0A2
S31508004AB0BDF8257FA7E79B6B01460022184603F041
S31508004AC0B5F8257FA1E70022032103F0AFF8236894
S31508004AD07EE700220521BDE8384003F0A7B800BFED
S31508004AE00004004000040240904E002000000240EE
S31508004AF00268034B9A4200D0704700F0C7BA00BF5D
S31508004B0000480140704700BF08B50C4B0C4A1A60B4
S31508004B100A2100221846D962C3E90122C3E9032201
S31508004B20C3E90522C3E908229A6201F011FC00B91B
S31508004B3008BDBDE80840FFF7E5BF00BFF84C0020F8
S31508004B40003001402DE9F04302683F4B89B000244C
S31508004B509A42CDE90344CDE90544079402D009B049
S31508004B60BDE8F08303F5843301945A6C374D42F45B
S31508004B7080525A645A6C02F480520192019A029445
S31508004B801A6B42F001021A631B6B03F001030293CE
S31508004B90102201234FF002094FF0030802990392ED
S31508004BA0052703A906462A48CDE90493CDE90687D1
S31508004BB000F0AAFEE02303A925480393CDF8109038
S31508004BC0CDE90687059400F09FFE2249AC604FF0B8
S31508004BD0C0624FF480632846EC60C5E90544C5E920
S31508004BE007446C62C5E900122B6100F081FC20BB0A
S31508004BF0194C1A4820604FF0C06340214FF4806278
S31508004C006360F56400232046AE63A160C4E90332FD
S31508004C10C4E90533C4E90733636200F069FC78B96F
S31508004C2000220521B4642320A66300F01DFC23207E
S31508004C3000F050FC09B0BDE8F083FFF763FFD7E743
S31508004C40FFF760FFECE700BF00300140504D002041
S31508004C500000024010640240B04D00205864024033
S31508004C6082B00E4B00220092596C41F4804159647F
S31508004C70596C01F48041009100990192196C41F038
S31508004C80805119641B6C03F080530193019B0F211B
S31508004C906FF0010002B000F0E7BB00BF0038024029
S31508004CA030B5014689B000221A2000F0DDFB1A2033
S31508004CB000F010FC0025154B02955A6C144C42F472
S31508004CC080225A645B6C03F4802301A9029303A82B
S31508004CD0029B01F073FA01F061FA0E4B0E49256149
S31508004CE0A3FB00239B0C013B40F2E7322046C4E9B4
S31508004CF001352160E26001F035FF10B1012009B0ED
S31508004D0030BD204601F044FD09B030BD00380240F0
S31508004D10104E002083DE1B4300480140704700BF49
S31508004D20FEE700BFFEE700BFFEE700BFFEE700BFE5
S31508004D30704700BF402000F0D3BE00BF014801F015
S31508004D401BBE00BF104E002010B50D4C23681B6813
S31508004D509B0682B0204603D402F012FA02B010BDB8
S31508004D6002F00EFA236802A85B6800F8013D03F01A
S31508004D70B9F82268D36843F02003D36002B010BDA7
S31508004D80D04E0020014801F0F7BD00BF904E00202C
S31508004D90014801F0F1BD00BF504E0020014801F066
S31508004DA04BBC00BFF84C0020014800F0D7BC00BF40
S31508004DB0504D0020014800F0D1BC00BFB04D002086
S31508004DC00D490E4BD1F888200D4842F47002C1F8FF
S31508004DD088201A68002142F001021A6099601A6850
S31508004DE022F0847222F480321A6058601A6822F41B
S31508004DF080221A60D960704700ED00E00038024052
S31508004E001030002400B5184A87B000234FF08041BF
S31508004E101046C2E9001302930093C2E902331361F4
S31508004E209361CDE903330593019301F09BFEB8B96D
S31508004E304FF4805302A90C48029301F0F1FC60B9C3
S31508004E40002369460848CDE9003301F081FF08B11F
S31508004E50FFF758FE07B05DF804FBFFF753FEEFE7D0
S31508004E60FFF750FEE4E700BF904E002000B5174A52
S31508004E70174B136087B000231046536002930093C4
S31508004E80C2E9023313619361CDE9033305930193B4
S31508004E9001F068FEB8B94FF4805302A90B48029393
S31508004EA001F0BEFC60B9002369460848CDE9003325
S31508004EB001F04EFF08B1FFF725FE07B05DF804FBC9
S31508004EC0FFF720FEEFE7FFF71DFEE4E7504E002050
S31508004ED00004004000B50368B3F1804F83B01BD0CF
S31508004EE0194A934202D003B05DF804FB0022174B1F
S31508004EF00192196C41F0020119641B6C03F002035C
S31508004F00019305211D20019B00F0AEFA1D2003B078
S31508004F105DF804EB00F0DEBA002203F50E330092CA
S31508004F20196C41F0010119641B6C03F0010300932D
S31508004F3005211C20009B00F097FA1C2003B05DF8A1
S31508004F4004EB00F0C7BA00BF000400400038024076
S31508004F500B4B0C4A10B504211A604FF4E1340022B9
S31508004F6018465C605961C3E902221A61C3E9062240
S31508004F7002F070F800B910BDBDE81040FFF7C2BDD9
S31508004F80D04E00200044004070B502681B4B88B024
S31508004F9000249A42CDE90344CDE90544079401D09B
S31508004FA008B070BD03F5FA3301941A6C144842F43C
S31508004FB000321A641A6C02F400320192019A0294C1
S31508004FC01A6B42F001021A631B6B03F0010302938A
S31508004FD0082303A90322039302250723CDE9062301
S31508004FE0029E049500F090FC22462146262000F0F9
S31508004FF03BFA262000F06EFA08B070BD0044004067
S3150800500000000240DFF834D0002103E00C4B5B5867
S31508005010435004310B480C4B42189A42F6D30B4ABC
S3150800502002E0002342F8043B094B9A42F9D3FFF702
S31508005030C7FE04F0A3FFFFF79FFC7047000001209E
S3150800504084A00008000000201002002010020020A2
S31508005050E84F0020FEE7000008B50B4B1A6842F43B
S3150800506000721A601A6842F480621A601A6842F47A
S3150800507080721A60032000F0E5F90020FFF710FEA1
S31508005080FFF7EEFD002008BD003C0240034A044B32
S3150800509011681B780B441360704700BF104F00203F
S315080050A004000020014B1868704700BF104F00200D
S315080050B0002800F09180F8B5056C0446002D00F034
S315080050C08180236CDB0604D50023012084F83C305C
S315080050D0F8BD226C4D4923684D4D22F4885222F0C2
S315080050E0020242F0020222644A6822F440324A600E
S315080050F04A68606802434A6058682169A768E66892
S3150800510020F4807058605A6842EA01225A6058684A
S3150800511020F0407058605968A06A39435960996808
S3150800512021F4006199609A68A84242EA06029A60E8
S3150800513054D09968E56A21F0706199609A681043BD
S315080051409860996821F0405199609A682A439A6054
S315080051509968257E94F8200021F0020199609A68E2
S3150800516042EA45029A605A68002840D122F4006251
S315080051705A60DA6AE56994F83070666922F4700252
S31508005180DA62D86A013D40EA0550D862986820F488
S3150800519000709860996841EA47219960996821F4F6
S315080051A0806199609A68002042EA86229A60606463
S315080051B0236C23F0030343F001032364002384F8DC
S315080051C03C30F8BDFFF7E2F96564236C84F83C507F
S315080051D0DB063FF579AF7CE7012070479A6822F035
S315080051E070629A609A6822F040529A60B0E742F478
S315080051F00062616A5A605A6822F460425A605A68C4
S31508005200013942EA41325A60B3E700BF0023014040
S315080052100100000F10B490F83C3083B00022012B37
S31508005220019255D0026893680121DB0780F83C108B
S3150800523014D42A4B2A4C1B689168A4FB03439B0C85
S3150800524003EB430341F0010191600193019B2BB1EC
S31508005250019B013B0193019B002BF9D19368DC0765
S3150800526025D5036C23F4E06323F0010343F480732C
S3150800527003645368590505D5036C23F4405343F476
S3150800528080530364036C13F480531CBF436C23F0F0
S315080052900603436400246FF02201124B80F83C4059
S315080052A011605B68DB0607D00F4B9A4204D00020DA
S315080052B003B05DF8044B7047906810F04050F6D183
S315080052C0936843F08043936003B05DF8044B7047DE
S315080052D0022003B05DF8044B704700BF00000020B1
S315080052E083DE1B4300230140002001400368D86C7D
S315080052F0704700BFF0B490F83C3082B00022012B12
S31508005300019200F095800D688A6803680124092DCA
S31508005310AFB280F83C4029D81C6905EB45064FF02A
S31508005320070C0CFA06FC24EA0C041C611C6902FA38
S3150800533006F626431E614E68062E06EB86022AD816
S31508005340596B053A1F24944021EA04015963596BA5
S3150800535007FA02F20A435A63374A93422DD00023CA
S3150800536080F83C30184602B0F0BC704707EB470699
S31508005370DC681E3E4FF0070C0CFA06FC24EA0C0407
S31508005380DC60DC6802FA06F62643DE604E68062E06
S3150800539006EB8602D4D90C2E35D8A2F123041F2198
S315080053A01A6BA14022EA01021A63196B07FA04F282
S315080053B00A431A63204A9342D1D1122D31D0A5F15E
S315080053C01003012BCBD81D4A5368102D43F4000354
S315080053D05360C4D11A4B02F1467202F52E321B688D
S315080053E002F28332A2FB03239B0C03EB83035B00CD
S315080053F00193019B002BB2D0019B013B0193019BBA
S31508005400002BF9D1ABE7A2F141011F24DA6A8C40DF
S3150800541022EA0402DA62DC6A07FA01F22243DA6255
S315080054209AE7D2F8043343F48003C2F8043396E7C4
S31508005430022002B0F0BC7047002001400023014062
S3150800544000000020074AD3684FF6FF010B40000210
S3150800545043F0BF6300F4E06043F400330343D360D2
S31508005460704700BF00ED00E0184BDB68C3F302236A
S3150800547030B4C3F10705042D03F1040428BF04253D
S31508005480062C19D9033B4FF0FF349C4022EA04044A
S315080054904FF0FF32AA4021EA020101FA03F2224341
S315080054A012010028D2B20ADB00F1604000F5614023
S315080054B080F8002330BC704700242346E8E7044BF5
S315080054C000F00F0003441A7630BC704700ED00E088
S315080054D0FCEC00E0002807DB00F01F01012340096F
S315080054E0024A8B4042F82030704700BF00E100E0D6
S315080054F0F8B50446FFF7D6FD002C54D002222368DF
S3150800550084F835201A68002122F0010284F8341044
S3150800551005461A6005E0FFF7C5FD401B05283BD880
S3150800552023681A68D107F6D4D4E90126D4E90351C9
S31508005530324360691F682A43D4E906650A43024371
S31508005540216A354832432A430A43616A38400429A6
S3150800555042EA000229D01A605A6922F0070211436A
S31508005560DAB22E485961103AA0FB021212092C49E8
S3150800557023F47F73895CE16523F00303032A88BF5C
S3150800558004333F228A4001250021A36508469A6014
S31508005590616584F83550F8BD0323202262651846F4
S315080055A084F83530F8BD0120F8BDD4E90B01014374
S315080055B00A43A56A1A605A6945F0040122F00702EF
S315080055C011430028CCD07EB1B6F5005F16D0022D67
S315080055D003D9032DC4D1C201C2D501234022626575
S315080055E0184684F83530F8BD012D03D0F3D3022DC3
S315080055F0B6D1F0E7B0F1C07FB2D1EEE7032DAFD850
S3150800560001A252F825F000BFDB550008D75500085F
S31508005610DB550008F55500083F8010F0ABAAAAAA8A
S3150800562028A00008F0B490F83440012C39D090F83E
S315080056303540866D0125AC4280F834502BD104687C
S315080056400227002580F8357045652568876825F4A2
S315080056508025402F256063600ABFA260A160E160D3
S31508005660C16D18BFE2603F238B40026CB3602368AC
S3150800567043F016032360636943F0800363611AB13C
S31508005680236843F008032360236843F0010323607B
S315080056900020F0BC7047002380F83430F0BC0220AC
S315080056A070470220F0BC704770B50446866DFFF758
S315080056B0F9FC94F83530022B06D080220023626567
S315080056C084F83430012070BD2368216C1A6822F0F2
S315080056D016021A605A6922F0800205465A6131B3E9
S315080056E01A6822F008021A601A6822F001021A6083
S315080056F005E0FFF7D7FC401B05280FD823681B6871
S3150800570013F00103F5D1E16D3F228A400121B26011
S31508005710184684F8343084F8351070BD20220023EA
S315080057200320626584F8343084F8350070BDA26CB5
S31508005730002AD5D1D8E700BF90F83530022B03D020
S3150800574080234365012070470268052380F83530B9
S31508005750136823F00103136000207047F0B583B087
S315080057600023876D0193C36D3D68654908229A40F9
S315080057702A4204460E6803D001680868400759D4CF
S3150800578001229A402A4203D021684969080674D43E
S3150800579004229A402A4203D021680968890766D4F8
S315080057A010229A402A4203D02168086800074BD481
S315080057B020229A402A4214D021680868C00610D5CB
S315080057C0BA6094F83520052A63D00B6813F4802F45
S315080057D00B687ED0190340F18980E36B0BB1204634
S315080057E09847636D23B3636DDA071AD505232268D4
S315080057F084F835301368434923F00103A1FB0616E4
S315080058001360B60A02E01368DB0704D5019B01336F
S31508005810B3420193F7D90022012384F8342084F88F
S315080058203530E36C23B1204603B0BDE8F040184795
S3150800583003B0F0BD086820F004000860BA60626D25
S3150800584042F0010262659BE7BA600A6812F4802F8B
S315080058500A6818D1D20503D40A6822F008020A6039
S31508005860226C002AA4D020469047E36DA0E7BA60D0
S31508005870626D42F00402626592E7BA60626D42F0B8
S315080058800202626584E71103EAD5A26C002AEAD10E
S315080058908EE70A68206C22F016020A604A6922F02E
S315080058A080024A6138B30A6822F008020A603F2279
S315080058B0216D02FA03F300200122BB6084F834004C
S315080058C084F835200029B3D0204603B0BDE8F0405F
S315080058D0084713F4807380D10A68012022F0100269
S315080058E00A6084F8343084F8350076E7636C002B58
S315080058F07FF475AF75E7A26C002AD4D1D7E700BF4D
S3150800590000000020B5814E1B2DE9F04FDFF8B4C129
S31508005910D1F8008083B08E4600254FF0010902E0D9
S315080059200135102D7ED009FA05F308EA03018B42EA
S31508005930F6D1DEF8044024F0100ABAF1020F74D04A
S315080059406F000322D0F800B0BA40D24304F0030631
S3150800595002EA0B0BBE400AF1FF3A46EA0B06BAF119
S31508005960010F066040F28280C668DEF808303240D1
S31508005970BB401343E700C360D2D54D4A00230193C9
S31508005980536C43F480435364536C25F0030606F1C5
S31508005990804603F4804306F59C36019305F003021E
S315080059A0019BB76892000F23934027EA0303414FF0
S315080059B0B84211D007F58067B8426AD03E4FB84260
S315080059C06BD03E4FB8426DD03D4FB8420CBF04274E
S315080059D0072707FA02F21343B360DCF80030CA431C
S315080059E0E60354BF13400B43CCF80030DCF8043010
S315080059F0A70354BF13400B43CCF80430DCF8083037
S31508005A00E60254BF13400B43CCF80830DCF80C30E0
S31508005A10A40205F1010554BF13400B43102DCCF821
S31508005A200C3080D103B0BDE8F08FEF0800EB870794
S31508005A3005F007063A6AB6004FF00F0B0BFA06FB9D
S31508005A4022EA0B0ADEF81020B24042EA0A023A625B
S31508005A506F000322D0F800A0BA40D24304F0030630
S31508005A6002EA0A0ABE4046EA0A060660866806EAA6
S31508005A70020ADEF80C60BE4046EA0A068660D0F8DE
S31508005A8004A0C4F300162AEA0303AE401E43466088
S31508005A906AE709FA02F213439EE7022707FA02F2B7
S31508005AA0134399E7032707FA02F2134394E700BF63
S31508005AB0003802400000024000080240000C024084
S31508005AC000100240003C01400369194214BF01203E
S31508005AD00020704702B9090481617047704700BF0A
S31508005AE0044A5169014200D1704708B55061FFF771
S31508005AF0F5FF08BD003C0140002800F09780F8B586
S31508005B0090F83D30044603F0FF02002B00F0878032
S31508005B102268242384F83D30136823F001031360B8
S31508005B2000F02CFB61684B4B99424BD84A4B984284
S31508005B307AD92268494B5568A3FB00639B0C25F06C
S31508005B403F051D435560156A013325F03F052B4374
S31508005B501362D5694900431EB3FBF1F30133C3F35E
S31508005B600B0325F44F45042B38BF042325F0FF0506
S31508005B702B43D361D4E907351068216920F0C000AA
S31508005B802B43034313609068E568636920F4034078
S31508005B9020F0FF00294301439160D168A06921F0F4
S31508005BA0FF0103430B43D3601168002341F0010151
S31508005BB0202511601846236484F83D50236384F831
S31508005BC03E30F8BD264B98422ED92268234B56689C
S31508005BD0244FA3FB00539D0C26F03F062E434FF49B
S31508005BE09673566003FB05F3A7FB0353156AA6686D
S31508005BF09B0925F03F0501332B431362D56925F42C
S31508005C004F45013825F0FF0596B901EB4101B0FB78
S31508005C10F1F00130C0F30B00C0B90123A8E780F802
S31508005C203C20FEF723FE73E70120F8BD01207047EC
S31508005C3001EB810101EB8101B0FBF1F00130C0F30A
S31508005C400B000028E9D040F4404391E740F40043B4
S31508005C508EE700BFA08601007F841E0083DE1B43FB
S31508005C60FF083D00D34D6210002800F032812DE96F
S31508005C70F0410368DD0782B004462FD5AC498A682F
S31508005C8002F00C02042A00F0EA808A6802F00C028C
S31508005C90082A00F0E0806368B3F5803F00F0E980E9
S31508005CA0B3F5A02F00F05481A14D2A6822F4803262
S31508005CB02A602A6822F480222A60002B40F0DE80BF
S31508005CC0FFF7F0F9064605E0FFF7ECF9801B6428B4
S31508005CD000F2F2802B689B03F6D423689F0775D4DD
S31508005CE01A0715D56369002B00F0A580914B904DD6
S31508005CF001221A60FFF7D6F9064605E0FFF7D2F942
S31508005D00801B022800F2D8806B6F9B07F6D52368A4
S31508005D1058073BD5864A136C13F0805340F0DB8056
S31508005D200193136C43F080531364136C03F0805390
S31508005D300193019B0126804D2A68D10540F1AC806C
S31508005D40A368012B00F0C980052B00F00B81784D64
S31508005D502A6F22F001022A672A6F22F004022A67B4
S31508005D60002B40F0BF80FFF79DF941F28837804647
S31508005D7006E0FFF797F9A0EB0800B84200F29C800E
S31508005D802B6F9807F5D4002E40F0DC80A269CAB1C3
S31508005D90674DA96801F00C01082948D0022A674A0C
S31508005DA04FF00001116000F0E780FFF77BF92C4601
S31508005DB0054604E0FFF776F9401B02287CD82368DD
S31508005DC09B01F7D4002002B0BDE8F081584A9168DB
S31508005DD011F00C0F24D0916801F00C0108291CD091
S31508005DE0E368002B00F09280554B514D01221A6052
S31508005DF0FFF758F9064604E0FFF754F9801B022816
S31508005E005AD82B689807F7D52B68226923F0F80328
S31508005E1043EAC2032B60236862E752685602DFD45E
S31508005E20434A126895074BD5E268012A48D00120F3
S31508005E3002B0BDE8F0813F4A3D4D1360FFF732F9E5
S31508005E40064604E0FFF72EF9801B022834D86B6F4C
S31508005E509F07F7D45BE74A6850027FF51CAF344AC0
S31508005E60126891037FF53AAF6268002A7FF436AF6D
S31508005E70DDE72F4A136843F480331360FFF712F9FE
S31508005E802B4D064604E0FFF70DF9801B642813D84E
S31508005E902B689A03F7D520E72A6842F480722A60AD
S31508005EA0FFF700F907462B68DA053FF549AFFFF714
S31508005EB0F9F8C01B0228F6D9032002B0BDE8F08124
S31508005EC01B4920690A6822F0F80242EAC0020A6001
S31508005ED006E70120704700262DE7154A136F43F0A1
S31508005EE001031367FFF7DEF8114D804641F2883744
S31508005EF005E0FFF7D7F8A0EB0800B842DCD82B6F0F
S31508005F009B07F6D5002E3FF441AF1BE00C4A084D1F
S31508005F101360FFF7C7F8064604E0FFF7C3F8801BCF
S31508005F200228C9D82B689907F7D42368D8E600BF92
S31508005F3000380240800E4742007000406000474229
S31508005F4000004742234A136C23F0805313641DE76D
S31508005F50204B1A6842F480221A601A6842F480328A
S31508005F601A608BE71B4B1A6F42F004021A671A6F06
S31508005F7042F001021A67B5E7FFF794F8064604E00F
S31508005F80FFF790F8801B022896D82B689901F7D45A
S31508005F90D4E90736D4E90902E16A0E4C334343EAE9
S31508005FA08013520843EA0163013A0B4943EA024364
S31508005FB001226B600A60FFF775F8054605E0FFF7F2
S31508005FC071F8401B02283FF677AF23689A01F6D589
S31508005FD0F8E600BF0038024060004742174908B596
S31508005FE08B6803F00C03042B1BD0082B17D14A68C7
S31508005FF04B6813F4800302F03F0214D14968104835
S31508006000C1F38811A1FB0001FEF70AF90B4B5B6887
S31508006010C3F3014301335B00B0FBF3F008BD084846
S3150800602008BD084808BD4B680648C3F38813A3FB98
S3150800603000010023FEF7F4F8E8E700BF0038024045
S315080060400024F400001BB70060B1484A136803F047
S315080060500F038B4208D2CBB21370136803F00F03F9
S315080060608B4201D00120704703682DE9F0419D0756
S3150800607014D55C0704D53E4CA26842F4E052A260EF
S315080060801A0704D53A4CA26842F46042A260384C1A
S315080060908568A26822F0F0022A43A260DF07044658
S315080060A00D4622D54268012A56D0931E012B304B45
S315080060B01B6858D9990725D52D4EB36823F00303D5
S315080060C01343B360FEF7EEFF41F28837804605E0DA
S315080060D0FEF7E8FFA0EB0800B84242D8B36862684A
S315080060E003F00C03B3EB820FF2D1204A136803F0D6
S315080060F00F03AB4209D9EBB21370136803F00F0311
S31508006100AB4202D00120BDE8F08123685A0706D5C4
S315080061101749E0688A6822F4E05202438A601B073E
S3150800612011D4FFF75BFF124B12499B68124AC3F35F
S315080061300313CB5C20FA03F300201360FEF7B0FDCF
S315080061400020BDE8F0810A4A2169936823F4604378
S3150800615043EAC1039360E4E7054B1B689E03ABD48F
S31508006160D0E70320EDE79801A6D4CBE7003C024030
S315080061700038024010A0000800000020044B054A21
S315080061809B680549C3F382230868D35CD8407047E7
S315080061900038024020A0000800000020044B054AF1
S315080061A09B680549C3F342330868D35CD8407047F7
S315080061B00038024020A00008000000200E4B0F22E5
S315080061C002609A6802F0030242609A6802F0F002DE
S315080061D082609A6802F4E052C2609B68DB0810B4D9
S315080061E003F4E053054C036123685DF8044B03F0A0
S315080061F00F030B60704700BF00380240003C0240A6
S315080062002DE9F04107460D46164698463C6801E0DA
S31508006210731C06D1A06835EA0003F9D00020BDE852
S31508006220F081FEF73FFFA0EB08008642EED8D7E9DB
S3150800623000315A68B1F5827F22F0E0025A6014D024
S31508006240BA6AB2F5005F07D00122002387F8512009
S3150800625087F850300320E2E71A6822F400521A60E1
S315080062601A6842F400521A60EEE7BA68B2F5004FAF
S3150800627002D0B2F5806FE3D11A6822F040021A60A4
S31508006280DEE700BF70B54568B5F5827F044613465C
S3150800629006D00A460121FFF7B3FF98B9002070BD62
S315080062A08268B2F5004F13D0B2F5806F15D1066833
S315080062B0356825F040050A4635600121FFF7A0FF3D
S315080062C00028EBD0636D43F020036365032070BD9F
S315080062D00068026822F0400202600A4620468021D1
S315080062E0FFF78EFF0028EDD10020D8E7164B30B512
S315080062F01B68164DA5FB03535B0D4FF47A7505FB1A
S3150800630003F3456883B0B5F5827F0446019307D148
S315080063100CE0019B2268013B019393681B0602D59A
S31508006320019B002BF5D1002003B030BD13460A4669
S315080063308021FFF765FF0028F5D0636D43F0200341
S3150800634063650320F0E700BF00000020819F5E160A
S3150800635000283BD090F85120002370B502F0FF01C9
S315080063600446836262B31846D4E90135D4E90321A9
S315080063702B4313436269E569266A0B431343A269F3
S3150800638021682B43022584F85150334302F40075E3
S315080063900E682B43120C656A02F0040203432A4373
S315080063A026F040060E600B604A60CB69002223F493
S315080063B000630125CB611046626584F8515070BDB3
S315080063C080F85010FEF7BEFBA06ACDE701207047A3
S315080063D038B590F85040012C4ED0044690F851003C
S315080063E00125C0B2A84284F850500DD06568B5F5AD
S315080063F0827F04D00220002384F8503038BDA56877
S31508006400002DF7D10428F5D1002933D0002A31D040
S31508006410002B2FD094F85100216304281CBF0520B7
S3150800642084F8510000206065E386E38794F85150AC
S31508006430A386042DA387C4E9100008BF2149E06C90
S315080064400EBF214B2149224BA263224DC0E90F31D1
S315080064502168E38FC56400250C310565FFF7E2F86E
S3150800646060B1636D012243F010036365104684F83A
S315080064705120C0E70120BEE7022038BD2268A56C7E
S315080064805368216B43F001035360E38E2864E86385
S31508006490C5E913000C322846FFF7C4F80028E0D1F6
S315080064A023681A68520603D41A6842F040021A6032
S315080064B05A6842F020025A605A6842F002025A604C
S315080064C099E700BF45650008896500085565000815
S315080064D0DD6500086565000890F85020012A034626
S315080064E009D000684268002142F00302426008466B
S315080064F083F8501070470220704700BF38B504462D
S31508006500806C10B1FFF7D0F8A0B90025E06C38B15F
S31508006510FFF7CAF820B1636D43F0100363650125E0
S3150800652022685368012123F003035360284684F840
S31508006530511038BD636D43F0100363650125E5E727
S31508006540704700BF08B5806BFFF7FAFF08BD00BFAC
S31508006550704700BF08B5806BFFF7FAFF08BD00BF9C
S31508006560704700BF08B5836B19684A6822F00302B2
S315080065704A605A6D012142F010025A65184683F89E
S315080065805110FFF7EDFF08BD38B50546846BFEF7D9
S3150800659089FD2B681B68DB0517D42368596821F029
S315080065A020015960596821F00301024659602046C6
S315080065B06421FFF767FE08B12023636501230022E3
S315080065C0E28784F85130636D1BB92046FEF7F8F967
S315080065D038BD2046FFF7C4FF38BD00BF38B50546AD
S315080065E0846BFEF75FFD2B681B68DB051BD42168EF
S315080065F04B6823F0200302464B6020466421FFF7D0
S3150800660075FE18B1636D43F02003636521684B6816
S31508006610002223F0030301204B60E286E28784F818
S315080066205100636D1BB92046FEF7C0F938BD2046F8
S31508006630FFF796FF38BD00BF30B501684D688B6817
S31508006640C3F3801485B0024654B913F0010F07D07E
S3150800665015F0400F04D0036C05B0BDE8304018476C
S31508006660980707D5280605D5536C104605B0BDE82A
S3150800667030401847C3F3401000283DD1002C4ED0B7
S31508006680AC0637D592F85140032C5AD0546D44F0D5
S31508006690040454650090C8680090886800900098C3
S315080066A0C3F30023002B3ED1536D1BB34B6814462E
S315080066B023F0E0030122AD074B6084F8512048D04F
S315080066C04B68E06C23F003034B6040B12A4B03652B
S315080066D0FFF732F818B1636D43F040036365A06CA9
S315080066E040B1254B0365FFF727F818B1636D43F0F2
S315080066F04003636505B030BDA806FBD5ECB9C3F306
S315080067000023506D002440F001005065029488680B
S315080067100290086820F0400008600298C2E7DC058D
S31508006720E8D5AB06E6D5536D002043F0080353655C
S3150800673003908B680393039BB6E792F851000328EE
S315080067400BD100230193CB6801938B680193019BBE
S31508006750D0E72046FFF704FFCCE7506D002440F051
S31508006760040050650094C868009088680090C3F3D8
S3150800677000230098C5E700BF7D67000808B5836B4E
S315080067800022DA871846DA86FFF7EAFE08BD00BF58
S315080067900368DA6842F00102DA609A6802F00702D2
S315080067A0062A03D01A6842F001021A6000207047D0
S315080067B0704700BF03680C290CD8DFE801F0070B07
S315080067C00B0B2B0B0B0B260B0B0B2100DA6842F07D
S315080067D00202DA60186A01F01F020121914020EADC
S315080067E0010018621A6A114319629A6802F00702D0
S315080067F0062A03D01A6842F001021A600020704780
S31508006800DA6842F01002DA60E4E7DA6842F0080271
S31508006810DA60DFE7DA6842F00402DA60DAE700BF36
S3150800682090F83C30012B5AD002220368F0B480F865
S315080068303D209A680C6822F47F4222F077020125EF
S31508006840402C80F83C509A6074D04AD9602C2DD0E0
S3150800685056D9702C1AD0B4F5005F0ED1D1E9015281
S31508006860CC6899682A4342EA042221F47F410A4304
S315080068709A609A6842F480429A600023012280F85E
S315080068803D2080F83C30F0BC18467047D1E90152EB
S31508006890CC6899682A4342EA042221F47F410A43D4
S315080068A09A609A6842F077029A60E6E71C6A4D6831
S315080068B0CE6824F010041C6299691A6A21F47041A2
S315080068C022F0A00242EA051241EA063199611A62EB
S315080068D09A6822F0700242F067029A60CDE70220B9
S315080068E07047102C04D03DD9202C01D0302CC4D1AF
S315080068F09A6844F0070422F0700214439C60BCE7CF
S31508006900502CBAD11D6A1E6A4C68CF6826F001065B
S315080069101E629A6925F00A0122F0F00242EA07127D
S3150800692021439A6119629A6822F0700242F057026E
S315080069309A60A2E71D6A1E6A4C68CF6826F00106AF
S315080069401E629A6925F00A0122F0F00242EA07124D
S3150800695021439A6119629A6822F0700242F047024E
S315080069609A608AE7002CC3D087E700BF704700BF4C
S31508006970704700BF704700BF03681A69910710B5D2
S31508006980044602D5DA6892075FD41A69500702D519
S31508006990DA68510746D41A69120702D5DA68100769
S315080069A02ED41A69D20602D5DA68D00618D41A691E
S315080069B0D10702D5DA68D2075DD41A69100602D55E
S315080069C0DA6811065FD41A69520602D5DA685006E3
S315080069D061D41A69910602D5DA68920643D410BDC5
S315080069E06FF010021A61DB69082213F4407F2277E0
S315080069F0204664D0FDF7E6FF002223682277D6E713
S31508006A006FF008021A61DB6904229907227720468B
S31508006A1052D1FFF7ABFF2046FFF7AAFF00222368F3
S31508006A202277BEE76FF004021A619B69022213F40B
S31508006A30407F227720463CD1FFF798FF2046FFF794
S31508006A4097FF002223682277A5E76FF002021A61F2
S31508006A509B6901229B07027725D0FDF7B3FF002229
S31508006A602368227791E76FF0200220461A61BDE875
S31508006A70104000F08FB96FF001021A612046FEF748
S31508006A8037F8236899E76FF080021A61204600F00C
S31508006A9083F9236897E76FF040021A612046FFF7EB
S31508006AA069FF236895E7FFF761FF2046FFF760FF58
S31508006AB0D5E7FDF787FFC4E7FDF784FFAEE7FFF7E5
S31508006AC055FF2046FFF754FF96E700BFF0B4244D64
S31508006AD003684E698C680A68A8422DD0B0F1804FC9
S31508006AE018D0A5F57C45A84214D005F58065A842BE
S31508006AF010D005F58065A8420CD005F59A35A84250
S31508006B000CD005F58065A84208D005F58065A84231
S31508006B1008D103E04D6823F070032B43C96823F4BA
S31508006B2040730B4323F08003334303600123C4629D
S31508006B308262F0BC436170474F68CD6823F07003EA
S31508006B403B4323F440732B4323F080033343036012
S31508006B50C46282620B69036301234361F0BC704718
S31508006B6000000140B8B190F83D3010B503F0FF02BF
S31508006B7004465BB1022384F83D302068211DFFF7E7
S31508006B80A5FF012384F83D30002010BD80F83C2085
S31508006B90FEF7A0F9EEE70120704700BFB8B190F8FC
S31508006BA03D3010B503F0FF0204465BB1022384F8BA
S31508006BB03D302068211DFFF789FF012384F83D3009
S31508006BC0002010BD80F83C20FFF7F2FDEEE701201B
S31508006BD0704700BF70B4046A174E24F001040462BB
S31508006BE0B0428469056A15D0B0F1804F12D0A6F577
S31508006BF07C46B0420ED006F58066B0420AD006F54D
S31508006C008066B04206D006F59A36B04202D044F005
S31508006C10010202E024F0030422431B0125F00A04C2
S31508006C20DBB222F0F00201F00A012143134383612B
S31508006C3070BC0162704700BF00000140F8B590F8CB
S31508006C403C30012B64D00D4602231646012280F8FB
S31508006C503C2080F83D300446D1E900120068EB6814
S31508006C6056B3042EAD6833D0082E066A52D026F4E1
S31508006C7080560662C669076A26F440761B0309032E
S31508006C8046EA02229BB201F4204122F4704227F41C
S31508006C90204713433943C3610162C36923F4406340
S31508006CA0C361C36943EA0525C5610123002084F849
S31508006CB03D3084F83C00F8BDFFF78CFF2368A868D0
S31508006CC0996921F00C0199619A6902439A61ECE786
S31508006CD0066A26F0100606628669076A26F4407672
S31508006CE01B03090146EA02229BB201F0A00122F425
S31508006CF0704227F0A0071A4339438261016283690B
S31508006D0023F440638361836943EA05258561CCE7FB
S31508006D100220F8BD26F480760662C669076A26F060
S31508006D2003061B0109023243DBB201F4206122F09B
S31508006D30F00227F420671A433943C2610162C36926
S31508006D4023F00C03C361C3691D43C561ADE700BFEA
S31508006D5090F83C20012A1AD070B40222046880F800
S31508006D603D20D1E9006503466068A26820F07001FD
S31508006D7022F0800231432A43012600256160284615
S31508006D80A26083F83D6083F83C5070BC70470220CF
S31508006D90704700BF704700BF704700BF026811699F
S31508006DA02DE9F843C568836821F440510446294310
S31508006DB000691161D16865690343E06921F41641E8
S31508006DC02B4321F00C0103430B43D3605369A1699C
S31508006DD023F440730B43B0F5004F53619B4B00F00F
S31508006DE09A809A4259D003F580639A4255D0FFF7A4
S31508006DF0C5F9974F636800EB800000EB80009B00A5
S31508006E00B0FBF3F3A7FB03235B091D01FFF7B6F9F4
S31508006E10666800EB800000EB8000B600B0FBF6F673
S31508006E20FFF7ACF9636800EB800000EB80009B007D
S31508006E30B0FBF3F3A7FB03235B094FF0640909FBD7
S31508006E4013631B013233A7FB03235B0903F0F00628
S31508006E50FFF794F9626800EB800000EB800093006E
S31508006E60B0FBF3F8FFF78AF9D4E9002300EB8000BA
S31508006E709B0000EB8000B0FBF3F0A7FB0030400955
S31508006E8009FB10831B013233A7FB0313C3F3431318
S31508006E9033432B449360BDE8F883FFF77FF96C4FC3
S31508006EA0636800EB800000EB80009B00B0FBF3F307
S31508006EB0A7FB03235B091D01FFF770F9666800EB62
S31508006EC0800000EB8000B600B0FBF6F6FFF766F927
S31508006ED0636800EB800000EB80009B00B0FBF3F3D7
S31508006EE0A7FB03234FF064095B0909FB13631B0126
S31508006EF03233A7FB03235B0903F0F006FFF74EF9CD
S31508006F00626800EB8000930000EB8000B0FBF3F8AA
S31508006F10FFF744F9A8E79A4259D003F580639A42E5
S31508006F2055D0FFF72BF94A4F636800EB800000EB5A
S31508006F3080005B00B0FBF3F3A7FB03235B091E018C
S31508006F40FFF71CF9656800EB800000EB80006D0018
S31508006F50B0FBF5F5FFF712F9636800EB800000EB6C
S31508006F6080005B00B0FBF3F3A7FB03235B094FF03C
S31508006F70640909FB1353DB003233A7FB03231B0900
S31508006F8003F4F875FFF7FAF8626800EB800000EB87
S31508006F9080005300B0FBF3F8FFF7F0F8D4E90023BC
S31508006FA000EB800000EB80005B00B0FBF3F3A7FB6F
S31508006FB003135B0909FB1383DB003233A7FB0313B7
S31508006FC0C3F3421333442B449360BDE8F883FFF7B9
S31508006FD0E5F81F4F636800EB800000EB80005B005C
S31508006FE0B0FBF3F3A7FB03235B091E01FFF7D6F8F3
S31508006FF0656800EB800000EB80006D00B0FBF5F5DE
S31508007000FFF7CCF8636800EB800000EB80005B00BC
S31508007010B0FBF3F3A7FB03234FF064095B0909FBF5
S315080070201353DB003233A7FB03231B0903F4F8755C
S31508007030FFF7B4F8626800EB8000530000EB8000AD
S31508007040B0FBF3F8FFF7AAF8A8E700BF0010014065
S315080070501F85EB5160B338B590F83930044603F014
S31508007060FF0203B32268242384F83930D36823F453
S315080070700053D3602046FFF791FE23681A6922F46D
S3150800708090421A615A6922F02A025A61DA68002582
S31508007090202142F40052DA602846E56384F8391064
S315080070A084F83A1038BD80F83820FDF76DFFD9E727
S315080070B00120704790F83A30202B20D109B302B34B
S315080070C090F83830012B1AD030B400230468C285F2
S315080070D02225C36380F83A50E568828545F48075B1
S315080070E0816280F83830E560626942F001026261C7
S315080070F0E26842F020021846E26030BC704702207F
S3150800710070470120704700BF704700BF704700BF37
S3150800711010B584680169836A0268B4F5805F20D077
S315080071205C1C52688462C9B91A70C38D013B9BB254
S31508007130C3858BB90268D16821F02001D160D16876
S3150800714021F48071D1605169202421F00101516137
S3150800715080F83A40FFF7DAFF002010BD02F07F0200
S31508007160E2E7526829B9C2F3080223F8022B8362C0
S31508007170DBE7D2B223F8012B8362D6E7704700BF5C
S3150800718003681A6870B51607DD68596904464AD057
S3150800719011F001011E464FD0D00705D5EB0503D5E2
S315080071A0E36B43F00103E363500702F0020375D56E
S315080071B061B1E16B41F00201E16302F00801002BC5
S315080071C071D119B1E36B43F00803E363E36B002B5A
S315080071D031D0900601D5A90671D47569E26B1207FC
S315080071E002D415F0400577D0F36823F49073F36062
S315080071F07369202223F00103736184F83A207369C6
S315080072005B0658D57369606B23F0400373610028E9
S3150800721051D03A4B0365FEF78FFA60B1606BBDE853
S315080072207040036D1847910609D5AE0607D590F844
S315080072303A30222B4CD070BD15F4907FACD116068F
S315080072400ED45106F7D56A06F5D5DA68202122F05C
S315080072504002DA60204684F83910FFF755FF70BD02
S315080072602806EED594F83920212AE4D1A168226AA5
S31508007270B1F5805F35D0511C216212785A60E28CD4
S31508007280013A92B2E284002AD5D1DA6822F0800265
S31508007290DA60DA6842F04002DA6070BD43B100296C
S315080072A094D002F00801E36B43F00403E36388E734
S315080072B013078BD585E72046FFF760FF70BD94F866
S315080072C03A30222B89D12046FFF722FF266884E729
S315080072D0BDE87040FFF71CBF2046FFF74FFFE56388
S315080072E070BD11882069C1F30801596010B90232CE
S315080072F02262C4E701322262C1E700BF01730008B7
S3150800730008B5836B0022DA851846DA84FFF736FF5C
S3150800731008BD00BF2DE9F04305229FB0894600212C
S3150800732001F000F8032807464FF00002364B5AD8FA
S3150800733001921A6C42F001021A641B6C03F00103F5
S315080073400193019B314CFE00F31B9B00E518E258A4
S3150800735068686B6909924FF00008022209A90D9323
S315080073600A92CDE90B82FEF7CFFA4246052195F936
S315080073701000FEF779F895F91000FEF7ABF8EA6801
S31508007380AB69CDF840802A210EA8CDF848800E9228
S3150800739011930F91FFF7E6FB002832D10EA8FFF7ED
S315080073A0FDFB58BB2022002303A90EA803920493D1
S315080073B0FFF7CEFC08B1FDF7A5FBF61B04EB860428
S315080073C001200023A268069005A90EA8CDE9073377
S315080073D0CDF81490FFF732FCA1680EA8FFF7EAF97A
S315080073E01FB0BDE8F08302921A6C42F002021A64DA
S315080073F01B6C03F002030293029BA3E7FDF782FBD3
S31508007400D0E7FDF77FFBC9E7003802404C010020B2
S31508007410F0B5124D124F134E85B004462846FDF7B7
S3150800742065FF114B3A7804EB440103EB810326F818
S3150800743012009B680093012203236946284601929D
S315080074400293FDF757FF2846FDF7E4FE0A2000F0F1
S3150800745081FF36F814003C7005B0F0BD584C00208A
S31508007460AC0200202C020020D400002038B50522EA
S3150800747004460846002100F055FF144A144932F81C
S3150800748010300978B3F5FA7F84BFA3F5FA7322F8AA
S315080074901030104B53F8205043F8204059B932F8B1
S315080074A01030B3F57A7F06D2A54208D2641B0A4883
S315080074B0B0FBF4F038BD094B53F8200038BD084B33
S315080074C0054823445D1BB0FBF5F038BDB00200202B
S315080074D0AD0200205802002080841E00704F002054
S315080074E080F0FA020378012B00D07047D0F80230FA
S315080074F0012B0BD0032BF8D18379052BF5D8013B4B
S31508007500164AD0F8071042F82310704730B4144DC5
S3150800751003462A4600F12404997902F8011BD97911
S315080075205171197AD172597A5174997AD175D97A71
S3150800753051770633A342EFD10A4990F82A4090F8CA
S315080075402B2090F82C3085F824400120087085F807
S31508007550252085F8263030BC704700BF704F0020C4
S31508007560484F00203802002038B50C460F4D104A07
S315080075703620022301216070C4F8023029702346A0
S31508007580217004F1300052F8041BC3F80610516943
S31508007590C3F80A1008338342F5D13621204600F095
S315080075A0C9FE002384F836002B7038BDAD020020D2
S315080075B0704F0020002070472DE9F04F2DED068B07
S315080075C0C14DC24CDFF82CC3002387B029461F469D
S315080075D040F2DB5607E0B2F57A7F24F813200DD87F
S315080075E00133062B0FD011F8012B043A032AF7D8DA
S315080075F034F81300421CB04292B2ECD94CF823700E
S315080076000133062BEFD1B24A537D0133DBB2022B8D
S31508007610537506D9118845F65913002099421075F5
S3150800762064D0DFF8E88298F80030012B00F08C80EF
S31508007630A84B1C7864BB9FEDA88ADFEDA8AA9FED2E
S31508007640A8AADFEDA89A9FEDA89ADFEDA88A06E01A
S31508007650022B22D0032B6BD00134062C18D015F838
S31508007660013B012BE0B2F3D104EB04167700FFF7D8
S31508007670CFFE9F4E3E440146304600F0E7FD002807
S31508007680EAD19C4B728843F824200134062CE6D1B3
S3150800769007B0BDEC068BBDE8F08F04EB0416770047
S315080076A0FFF7B6FE924E3E440146304600F0CEFD48
S315080076B00028D1D16B799B0900F06B82012B00F071
S315080076C08082022BC8D1738807EE103AB8EEC77AC3
S315080076D0884B27EE087AC7EE2A7A67EE8A7AFCEE96
S315080076E0E77A17EE902A43F82420B5E79078D778FA
S315080076F01179567994799476C3194E3B0B443344E1
S315080077001C44D379D3762344147A1477DBB200EB7E
S31508007710072001EB062180B289B29C42D0821183F0
S3150800772053777FF47EAF732984BF724BD86078E7AE
S31508007730714B03EBC40233F834105068FEF7C4F9F2
S315080077406C4B43F8240087E76C4C6D4FDFF8B8A103
S315080077506C4E4FF0000B6278D24302F00102802192
S315080077603846FEF7B7F962786FEA520202F001026C
S315080077704FF480715046FEF7ADF914F8012F6FEA01
S31508007780920202F0010240213846FEF7A3F9227858
S315080077906FEAD20202F001024FF400715046FEF77A
S315080077A099F9227892095FFA8BF961D0012A7FD07C
S315080077B0022A7CD014F8063C5A1E012A69D9092BDC
S315080077C04FF001024FF48041304667D0FEF782F948
S315080077D000224FF400413046FEF77CF909F1FF39E3
S315080077E00122B9F1040F06D8DFE819F0C601B9017C
S315080077F0AC019F01920020213846FEF76BF9012063
S3150800780000F0BEFD002220213846FEF763F900226B
S3150800781040213846FEF75EF900224FF400715046C3
S31508007820FEF758F9002280213846FEF753F9002260
S315080078304FF480715046FEF74DF900224FF48051FF
S315080078403046FEF747F900224FF400513046FEF75E
S3150800785041F900224FF480413046FEF73BF90022F9
S315080078604FF400413046FEF735F90BF1010B72E78C
S3150800787001224FF480513046FEF72CF901224FF4CD
S3150800788000513046FEF726F914F8063C5A1E012A1E
S3150800789095D800224FF48041304697E7FEF71AF94B
S315080078A001224FF400413046FEF714F996E700220C
S315080078B030464FF48051FEF70DF900224FF400517F
S315080078C03046FEF707F975E7484F0020B00200205A
S315080078D0204F0020AD020020D10C4D3F0020CA44A5
S315080078E000543D4600007C45001063460010A4463F
S315080078F008000020704F00201C0100204D4F00207A
S31508007900000802400004024000000240380200203D
S315080079100421B548B54EFEF7DDF8012000F030FD2C
S3150800792000220421B048FEF7D5F800224021AE48CF
S31508007930FEF7D0F800224FF40071AD48FEF7CAF8FA
S3150800794000228021A848FEF7C5F800224FF480716E
S31508007950A748FEF7BFF800224FF48051A548FEF766
S31508007960B9F800224FF40051A248FEF7B3F80022F6
S315080079704FF480419F48FEF7ADF800224FF40041CE
S315080079809C48FEF7A7F800240AE0012A40F2C880BE
S31508007990082B0BD0072B09D00134E4B2062C0DD0E6
S315080079A016F8013B042BA3F10502EED1204601345B
S315080079B00021E4B2FFF7AEFC062CF1D100248B4E71
S315080079C0DFF85C92274603E00134E4B2062C17D0B0
S315080079D016F8013B032BF7D105220021204600F0BB
S315080079E0A1FC09EBC002013459F8303050680297FF
S315080079F001A9E4B203970193FDF786FF062CE7D1A8
S31508007A00DFF8E8917C4C7D4F4FF0000A06E00AF15A
S31508007A1001005FFA80FABAF1060F54D019F8013B53
S31508007A20013B012BF3D84FF0000B0522594650466F
S31508007A3000F078FC4FF480310646714A61606E4862
S31508007A4027600121A262C4F808B0C4F810B084F80F
S31508007A5018B084F820B0C4F82CB0C4F80CB084F878
S31508007A6030B0E1616161FDF723FB002840F0A68094
S31508007A706449CDF800B0486C634B40F480704864A4
S31508007A80486C06EB460200F4807053F8221000900A
S31508007A9003EB820201915068009B0322022301A98D
S31508007AA0CDE90223FDF730FF5A4605211220FDF7DE
S31508007AB0DBFC1220FDF70EFD0AF101005FFA80FAE1
S31508007AC0BAF1060FAAD1514EDFF85891504FB41F9C
S31508007AD001E0B4420CD014F8013B092BF9D1FDF7AB
S31508007AE037FA012249463846FFF7E4FAB442F2D19A
S31508007AF0DFF83491474F00243B1919F8016B5B688E
S31508007B0037F804C032466146184606B101220834E1
S31508007B10FDF7E0FF182CEFD1002388F8003087E541
S31508007B200A212046FFF7F6FB36E711463846FDF7E9
S31508007B30D1FF012000F024FC002201213846FDF780
S31508007B40C9FF64E610213846FDF7C4FF012000F09E
S31508007B5017FC002210213846FDF7BCFF57E6022124
S31508007B603846FDF7B7FF012000F00AFC0022022183
S31508007B703846FDF7AFFF4AE608213846FDF7AAFF63
S31508007B80012000F0FDFB002208213846FDF7A2FF80
S31508007B903DE67388DFED206A07EE103AB8EEC77A3D
S31508007BA01E4B27EE087AC7EE287A67EEA67AFCEE11
S31508007BB0E77A17EE902A43F824204DE5FCF7A2FF52
S31508007BC056E7738807EE103AB8EEC77A134B27EED6
S31508007BD0087AC7EE297A67EE897AFCEEE77A17EE15
S31508007BE0902A43F8242037E500080240484F002031
S31508007BF00000024000040240584C002000200140CA
S31508007C000100000F00380240D40000204E4F00202B
S31508007C10D04E0020F40100200018F646704F0020D0
S31508007C201C010020444F00206C4F0020F8B5064682
S31508007C30174608460522002100F074FB514D2B5CBF
S31508007C40042B044619D05A1F012A1ED9082B51D0D5
S31508007C50072B00D0F8BD0544214630462D7BFFF79B
S31508007C6005FCC0EB001080000128474B8CBFB0FB19
S31508007C70F5F0002043F82400F8BD30462146FFF70A
S31508007C80F5FB414B43F82400F8BD0522002100F01E
S31508007C9049FB3E4A32F81030B3F5FA7F84BFFA3B07
S31508007CA022F810303A4B1B78F3B9002F41D0012F38
S31508007CB052D032F81030B3F57A7F15D2354A364BA2
S31508007CC052F8201053F820204FF47A7303FB01F37F
S31508007CD0B3FBF2F3B3F57A7F06D82A5C052A4CD0B3
S31508007CE0062A01D1284D02E0274D55F8203045F8DF
S31508007CF02430F8BD244D0422002155F8206000F0F8
S31508007D0011FB264B0130C0B203EBC00233F830102A
S31508007D105068FDF7D9FE30B9B6F1004F00D0013EE4
S31508007D2045F82460F8BD6FF000439E4218BF01363F
S31508007D30F6E71B4951F8203041F820609E4204D9E5
S31508007D401549F61A41F82060B3E71649124F31442F
S31508007D50CB1A47F82030ACE7114B53F820309E4237
S31508007D6004D90C49F31A41F82030A2E70D49094F06
S31508007D703144CB1A47F820309BE7C3F57A73024D96
S31508007D80B5E700BF484F0020704F0020B002002022
S31508007D90AD0200203C020020900200201C010020B9
S31508007DA07402002080F0FA0270B54B4C4B4D4C4ED5
S31508007DB0204600224FF40041FDF78CFE20460022A3
S31508007DC04FF40061FDF786FE284600222021FDF7C4
S31508007DD081FE284600224FF48061FDF77BFE20468F
S31508007DE000224FF48061FDF775FE204600224FF40D
S31508007DF08051FDF76FFE304600222021FDF76AFE0E
S31508007E00304600220821FDF765FE30460022022191
S31508007E10FDF760FE304600221021FDF75BFE304676
S31508007E2000220121FDF756FE304600220421FDF707
S31508007E3051FE304600224021FDF74CFE2046002226
S31508007E404FF40071FDF746FE304600228021FDF70B
S31508007E5041FE204600224FF48071FDF73BFE28467E
S31508007E6000224FF48051FDF735FE284600224FF4D4
S31508007E700051FDF72FFE284600224FF48041FDF7FA
S31508007E8029FE284600224FF40041FDF723FE20462E
S31508007E9001224FF40041FDF71DFE204601224FF452
S31508007EA00061FDF717FE284601222021FDF712FE84
S31508007EB0284601224FF48061FDF70CFE2046012278
S31508007EC04FF48061FDF706FE204601224FF48051EB
S31508007ED0BDE87040FDF7FEBD000002400004024008
S31508007EE000080240074B197D4A1CD2B20F2A1A75A0
S31508007EF088BF0F22007888BF1A75002258545A7511
S31508007F00704700BF204F0020012808D04FF05003CB
S31508007F1083F31188BFF36F8FBFF34F8FFEE72DE909
S31508007F20804883B0464C0190DFF83481DFF83491FD
S31508007F30444FDFF834A1444DDFF820B1434E41E009
S31508007F403B88B3F57A7F02D201339BB23B80012985
S31508007F505ED0B3F52F7F46D89AF800307BB32888D1
S31508007F6022886988DFF804C1688083180B44ACFB53
S31508007F7003C35B08A3F1030C002062452A80A9808D
S31508007F80A8F8003038803FDB03339A423CDC019B7B
S31508007F9089F80030002323808AF8003001224FF444
S31508007FA000513046FDF796FDDBF800309B681B064E
S31508007FB033D500224FF400513046FDF78BFD0120E2
S31508007FC001F0A6F92388B8F8002099F800100133C3
S31508007FD09BB2501F83422380B2D101292AD03B8805
S31508007FE0B3F57A7FB0D301224FF400513046FDF73E
S31508007FF071FDFFF7DFFA00B9388000224FF400510F
S315080080003046FDF767FDA7E7002389F80030C1E78A
S3150800801002EB820293429CDDE5E710210C48FDF74E
S3150800802053FD0028C5D037230A4A0B490B48FEF7EB
S31508008030CFF9BEE708490748FFF796FAAEE700BF4B
S315080080404C030020380300204003002000080240AB
S3150800805000000240C0020020FC020020F84C00206C
S315080080604E030020500300203A030020ABAAAAAA18
S3150800807010B50D4C2046FEF741FA2046FEF72CFABD
S3150800808023689B681B0600D510BD10210748FDF71D
S315080080901BFD0028F8D020463723054A0549BDE8C8
S315080080A01040FEF795B900BFF84C002000000240CA
S315080080B0C0020020FC02002070B51A4D1A4C82B08E
S315080080C0284601224FF40051FDF704FD174A184BC4
S315080080D02360012640F20153C4E901232673204692
S315080080E0362100F027F9214684F836003723114A4D
S315080080F01148FEF76DF90024104B0193009433469E
S315080081004FF400720E490F4800F05AFF0E4B2246F4
S3150800811018604FF40051284602B0BDE87040FDF7DC
S31508008120D9BC00BF00080240FC0200200000140A67
S3150800813001360100C0020020F84C00203C03002054
S3150800814030A00008097F0008A04F0020F0B50122E2
S3150800815083B080213548364DFDF7BCFC40F22D141E
S3150800816001E0002C5FD010212846FDF7ADFC013C4C
S31508008170A4B20028F5D02F4D2F4F3621384600F0EF
S31508008180D9F897F83630834243D002222A702B4E0C
S315080081900020346838700B230127A168013B11F0D1
S315080081A0020F9BB231D101221046002BF5D12F7058
S315080081B0FFF75EFF3468224800230193E3680193C2
S315080081C0A368019301224FF40051019BFDF782FC3D
S315080081D0032731684FF4FA7300E003B38C68013B58
S315080081E014F002049BB2F8D1164B15482246012515
S315080081F04FF400511D70FDF76DFC0C482246802196
S3150800820003B0BDE8F040FDF765BC0028D3D02A705E
S31508008210D1E70D493846FFF765F92A78B7E72F7091
S31508008220FFF726FFD5E7034D2C70A5E700040240AB
S3150800823000000240A44F0020C0020020F84C002095
S31508008240000802403A030020FC020020F0B502466E
S31508008250407801280CD94500841EAB1CE4B21544AD
S315080082601344A5EB440433F8025D5D80A342FAD1BA
S3150800827092F82030147891809C4249D8002382F8DD
S315080082802030002849D0941C19461D46264602EB84
S31508008290410736F802CFBF88BC4528BF1F4603F101
S315080082A0010328BF2946DDB238BF0F46A842EED8DB
S315080082B0002319461D46264602EB410C36F802EF06
S315080082C0BCF804C0E64598BF9C4603F1010398BF75
S315080082D02946DDB288BF8C46A842EDD8451EEBB2CA
S315080082E0151D05EB4305002334F8021FA5420B4470
S315080082F0FAD102EB470702EB4C0CBC88BCF8041019
S315080083001B1B591A831E0020B1FBF3F35380F0BDE3
S31508008310013382F820300120F0BD84460746034623
S31508008320E7E700BF884203D9904228BF1046704746
S315080083300846704759B1013950FA81F2431E0020A8
S3150800834013F8011F08449342C0B2F9D17047084692
S31508008350704700BF10F1FF304FF004020ED382B011
S315080083600192019B2BB1019B013B0193019B002BC1
S31508008370F9D110F1FF30F3D202B07047704700BF51
S3150800838010F1FF304FF084020ED382B00192019BA8
S315080083902BB1019B013B0193019B002BF9D110F1F5
S315080083A0FF30F3D202B07047704700BFEFF3058382
S315080083B083B9EFF310836BB9084B1868022803D00A
S315080083C028B901221A607047EFF3118313B94FF0E9
S315080083D0FF3070476FF00500704700BFB0050020FA
S315080083E0EFF30583C3B910B5EFF310848CB90C4BC2
S315080083F01A68022A07D0012A08D102221A6000F058
S3150800840013FE204610BDEFF3118313B94FF0FF306A
S3150800841010BD6FF0050010BD6FF00500704700BF76
S31508008420B0050020F0B587B000240594EFF3058564
S31508008430002D35D1EFF31083002B38D1254B1B685F
S31508008440022B30D098B30B4600218DF81310E2B1F9
S31508008450116899B394696CB3651E372D20D8556891
S31508008460ED071DD455693DBB8027D2E9026C46B39A
S31508008470BCF15B0F1BD91269CAB1C5B1CDE901269A
S3150800848000943A4600F064FD0BE0802218240DF1B2
S31508008490130105ADCDE9004500F092FD012806D08F
S315080084A0002007B0F0BDEFF31183002BCAD0059862
S315080084B007B0F0BD1824D2E7AF08D6E70DF11301CF
S315080084C0C8E7BCF1000FF2D11269002AEFD1BAB29F
S315080084D0DFE700BFB005002008B5EFF3058383B9D1
S315080084E0EFF310836BB9084B1B68022B05D000B954
S315080084F008BD00F00DFF002008BDEFF31183002B27
S31508008500F5D06FF0050008BDB0050020044B0360E8
S3150800851010B48023034C0C6013605DF8044B70475D
S315080085205405002054030020054B036010B44FF493
S315080085308073044C0C6013605DF8044B704700BFF1
S31508008540B4090020B405002000F108034FF0FF31FC
S315080085500022816002604360C0E90333704700BFB0
S3150800856000230361704700BF4368026810B49C6823
S315080085708C609C684B600132616099605DF8044BC1
S3150800858008610260704700BF30B40D686B1C11D0DB
S3150800859000F1080200E01A4653681C68AC42FAD992
S315080085A004684B60013499608A6051600861046010
S315080085B030BC704702695368F2E700BF42688168B9
S315080085C0036910B4916081685C684A601A688442DD
S315080085D008BF5960013A002101611A6018685DF800
S315080085E0044B704770B51646026C856B044632B963
S315080085F006680135002E2DD00020A56370BD86B90A
S31508008600806801F0DFFCA368216C62680B44934222
S3150800861005F10105A360EFD32368A3603046A5637F
S3150800862070BDC06801F0CEFC226CE3682168524236
S3150800863013448B42E36002D263681A44E260022E56
S3150800864003D001350020A56370BD002DD4D10125C6
S315080086500020D2E7406800F0A9FF6660CDE700BFBA
S31508008660026C72B10B46C16810B444681144A14249
S31508008670C16024BF0168C1605DF8044B184601F06B
S31508008680A1BC704770B5054601F034FA95F8454027
S3150800869064B2002C16DD6B6AA3B105F1240605E069
S315080086A0013CE3B25CB26BB16B6A5BB1304600F079
S315080086B0D1FE0028F4D0013C00F062FFE3B25CB2C0
S315080086C0002BF1D1FF2385F8453001F035FA01F08A
S315080086D011FA95F8444064B2002C16DD2B69A3B153
S315080086E005F1100605E0013CE3B25CB26BB12B69FB
S315080086F05BB1304600F0AEFE0028F4D0013C00F035
S315080087003FFFE3B25CB2002BF1D1FF2385F844307A
S31508008710BDE8704001F010BA38B5E0B104460D4620
S3150800872001F0E8F9D4E90F132268A26001FB03F10E
S31508008730CB1A134400200A44FF21A063E36084F89F
S315080087404410626084F8451075B92369ABB901F025
S31508008750F3F9012038BD4FF0500383F31188BFF3B6
S315080087606F8FBFF34F8FFEE704F11000FFF7ECFEA3
S3150800877004F12400FFF7E8FEE9E704F1100000F031
S3150800878069FE0028E3D0044B4FF080521A60BFF30D
S315080087904F8FBFF36F8FDAE704ED00E030B583B093
S315080087A09DF8185040B94FF0500383F31188BFF372
S315080087B06F8FBFF34F8FFEE77BB182B3B1B1502401
S315080087C00194019C502C1AD04FF0500383F3118862
S315080087D0BFF36F8FBFF34F8FFEE74FF0500383F35E
S315080087E01188BFF36F8FBFF34F8FFEE74FF050032B
S315080087F083F31188BFF36F8FBFF34F8FFEE7012412
S315080088001A6083F84640C3E90F01012118461C4641
S31508008810FFF782FF204684F84C5003B030BD41B1C3
S315080088204FF0500383F31188BFF36F8FBFF34F8F59
S31508008830FEE750220192019A502AC5D101221B60F7
S3150800884083F84620DFE700BF2DE9F04784B00192A0
S31508008850002800F09980002900F08980022B0BD1AE
S31508008860C26B012A08D04FF0500383F31188BFF377
S315080088706F8FBFF34F8FFEE704461F46894600F009
S3150800888085FE50B9019E4EB14FF0500383F311880F
S31508008890BFF36F8FBFF34F8FFEE70026DFF820A1E7
S315080088A04FF0000807E001F047F92046FFF7EAFE17
S315080088B000F0ACFC012601F01DF9A26BE36B9A42AD
S315080088C03FD3022F3DD0019D002D66D016B902A8D0
S315080088D000F004FE01F030F900F0E8FB01F00AF9B7
S315080088E094F84430FF2B08BF84F8448094F8453048
S315080088F0FF2B08BF84F8458001F01EF901A902A8DC
S3150800890000F0F8FD002853D101F0F4F8A26BE36BF0
S315080089109A42C8D101F010F9019904F1100000F04B
S315080089205FFD2046FFF7AEFE00F070FC0028C1D1BF
S315080089304FF08053CAF80030BFF34F8FBFF36F8FE5
S31508008940B8E73A4649462046FFF74CFE636A43BBFA
S3150800895038B11B4B4FF080521A60BFF34F8FBFF3ED
S315080089606F8F01F0E9F8012004B0BDE8F087026CCA
S31508008970002A3FF473AF4FF0500383F31188BFF317
S315080089806F8FBFF34F8FFEE74FF0500383F31188C5
S31508008990BFF36F8FBFF34F8FFEE701F0CDF8284680
S315080089A0E2E704F1240000F055FD0028D1D1D8E70C
S315080089B02046FFF767FE00F029FC0020D4E700BF39
S315080089C004ED00E02DE9F843002835D041B3022B29
S315080089D00BD1C46B012C08D04FF0500383F31188D8
S315080089E0BFF36F8FBFF34F8FFEE704461F469046CF
S315080089F0894601F0A3F9EFF311864FF0500383F38C
S31508008A001188BFF36F8FBFF34F8FA26BE36B9A4248
S31508008A101BD3022F19D0002086F31188BDE8F883EE
S31508008A20046C002CD3D04FF0500383F31188BFF3A6
S31508008A306F8FBFF34F8FFEE74FF0500383F3118814
S31508008A40BFF36F8FBFF34F8FFEE794F845503A4652
S31508008A5049466DB22046FFF7C5FD6B1C08D06B1C56
S31508008A605BB284F84530012086F31188BDE8F883A7
S31508008A70636A002BF7D004F1240000F0EBFC002811
S31508008A80F1D0B8F1000FEED00120C8F80000C3E716
S31508008A902DE9F04385B00192002800F0998000295D
S31508008AA000F0898004460F4600F070FD50B9019B1E
S31508008AB043B14FF0500383F31188BFF36F8FBFF3B1
S31508008AC04F8FFEE701F016F8A56B002D48D1019BE4
S31508008AD0002B6AD002A800F001FDDFF824912E468B
S31508008AE004F1240812E001F005F8A36B002B46D028
S31508008AF001F022F82046FFF7C5FD00F087FB00F0DD
S31508008B00F9FFA56B65BB019B002B4ED001F014F84D
S31508008B1000F0CCFA00F0EEFF94F84430FF2B08BFC3
S31508008B2084F8446094F84530FF2B08BF84F8456004
S31508008B3001F002F801A902A800F0DCFC0028D2D056
S31508008B402046FFF79FFD00F061FB00F0D3FFA36B03
S31508008B505BB300F0F1FF00F0CDFFA56B002DD2D07E
S31508008B6039462046013DFFF77BFDA5632369002BA7
S31508008B7037D100F0E1FF012005B0BDE8F08300F031
S31508008B80DBFF0199404600F02BFC2046FFF77AFDF3
S31508008B9000F03CFB0028DED14FF08053C9F80030C6
S31508008BA0BFF34F8FBFF36F8FD5E700F0C5FF0020E7
S31508008BB005B0BDE8F083036C002B3FF473AF4FF0AC
S31508008BC0500383F31188BFF36F8FBFF34F8FFEE710
S31508008BD04FF0500383F31188BFF36F8FBFF34F8FA6
S31508008BE0FEE704F1100000F035FC0028C1D0044B64
S31508008BF04FF080521A60BFF34F8FBFF36F8FB8E7FD
S31508008C0004ED00E030B4084A002352F8334002EB82
S31508008C10C30524B10133082BF7D130BC704768600F
S31508008C2042F8331030BC7047A84F002070B5044690
S31508008C300D46164600F05EFF94F84430FF2B04BF3D
S31508008C40002384F8443094F84530FF2B04BF0023F2
S31508008C5084F8453000F070FFA36B2BB932462946DD
S31508008C6004F1240000F0D6FB2046BDE87040FFF76B
S31508008C7009BD00BF2DE9F843054600F03BFF344A1D
S31508008C80344E1368013313603368002B31D0324CED
S31508008C90E86A236833B3314F3149324AD1F800C004
S31508008CA01368844503F1010338BF086000EB8000B0
S31508008CB06B6407EB8000291D1360FFF755FC00F075
S31508008CC03BFF236863B13268EB6AD26A9A4207D2DD
S31508008CD0254B4FF080521A60BFF34F8FBFF36F8F4B
S31508008CE0BDE8F88333681D4FDB6A834298BF356059
S31508008CF0D2E735601368012B03D0E86A174F164C84
S31508008D00CAE7164F3C4607F58C6820461434FFF729
S31508008D101BFC4445F9D1DFF86890DFF868800E4CF3
S31508008D204846FFF711FC4046FFF70EFC0F48FFF7D1
S31508008D300BFC0F48FFF708FC0E48FFF705FC0E4A28
S31508008D400E4BC2F80090E86AC3F80080A4E700BF9B
S31508008D507C0E0020100A0020D80E00201C0A0020D5
S31508008D60900E00208C0E002004ED00E0C40E0020BA
S31508008D70F00E0020DC0E0020140A0020180A00203D
S31508008D80940E0020A80E002090F8593063B1012BEC
S31508008D9014D0022B14D04FF0500383F31188BFF37D
S31508008DA06F8FBFF34F8FFEE710B50446006B01F0D7
S31508008DB0ADF82046BDE8104001F0A8B801F0A6B805
S31508008DC0704700BF80B5154C154E164DDFF858A0F4
S31508008DD0DFF858904FF0805811E000F08BFEF368EA
S31508008DE0DF68381DFFF7EAFB2B68013B2B60236819
S31508008DF0013B236000F0A0FE3846FFF7C5FF236855
S31508008E00002BEAD1DAF80030012BF8D9C9F800802E
S31508008E10BFF34F8FBFF36F8FF1E700BF800E0020BF
S31508008E20F00E00207C0E00201C0A002004ED00E055
S31508008E30034A044B1268D268D26852681A607047AF
S31508008E40140A0020BC0E00202DE9F0470A9C4FEAC0
S31508008E5082098A464A46A5210746206B9846DDE9D7
S31508008E60085601F0BAF8236BA9F10409994429F0C8
S31508008E7007090AF1FF330AF10F0104F1330201E091
S31508008E808B4206D013F8010F02F8010F1878002854
S31508008E90F6D1372D28BF37254FF0000AE562E5647D
S31508008EA0201D84F843A0C4F850A0FFF759FBC5F16C
S31508008EB0380504F11800FFF753FBC4F854A0A56160
S31508008EC0246184F858A0646242463946484600F050
S31508008ED0E3FD206006B13460BDE8F087F8B5164BAF
S31508008EE0164E1C6833680546181D0F46FFF766FBC5
S31508008EF06B1C17D0336864195C600BD2104B18686A
S31508008F0031680431FFF740FB0E4B1A68A24288BF4E
S31508008F101C60F8BD0C4B18683168BDE8F840043190
S31508008F20FFF732BB002FE5D0316808480431BDE8A9
S31508008F30F840FFF719BB00BF040F0020100A0020F5
S31508008F40140A0020BC0E0020180A0020DC0E00209F
S31508008F50F0B587B0DDE90C650E9CBDB16CB15C2738
S31508008F600497049F5C2F1AD04FF0500383F311889F
S31508008F70BFF36F8FBFF34F8FFEE74FF0500383F3B6
S31508008F801188BFF36F8FBFF34F8FFEE74FF0500383
S31508008F9083F31188BFF36F8FBFF34F8FFEE7256307
S31508008FA0022705AD0294009684F859700195FFF7DB
S31508008FB04BFF2046FFF75EFE059807B0F0BD00BFE1
S31508008FC02DE9F043074685B090001646884699462F
S31508008FD000F00AFF20B305465C2000F005FF0446B2
S31508008FE0B0B105634FF0000C0D9D84F859C001958A
S31508008FF00C9D02944B463246414638460095FFF78B
S3150800900023FF2046FFF736FE012005B0BDE8F083B2
S31508009010284600F07BFF4FF0FF3005B0BDE8F0832F
S315080090204FF0FF30F1E700BF30B589B0002407AA3A
S3150800903006A905A8CDE90544FFF768FA05A807C8F3
S315080090402346CDE90110009413491448FFF780FF21
S3150800905000B300F049FB01280AD001301AD14FF0BD
S31508009060500383F31188BFF36F8FBFF34F8FFEE76B
S315080090704FF0500383F31188BFF36F8FBFF34F8F01
S315080090800749084A084B4FF0FF350D6010601C6011
S3150800909000F0CCFD09B030BD5CA00008C58D000805
S315080090A0BC0E0020D80E0020040F0020024A1368C8
S315080090B001331360704700BF880E0020014B186803
S315080090C0704700BF040F00202DE9F84F444B1B687A
S315080090D0CBB9444B1F6801371F600FB3424E336844
S315080090E0BB422BD9DFF81C81DFF81C910024D9F884
S315080090F00030DB6A03EB83039B0058F80330022B2E
S3150800910028BF012404E0394A136801331360002498
S31508009110374B1B68002B0CBF20460120BDE8F88F93
S31508009120344D2B681B68002B45D04FF0500383F352
S315080091301188BFF36F8FBFF34F8FFEE72D4DDFF812
S31508009140C480DFF8C49000242BE02B68DB68D3F8D2
S315080091500CA0DAF804200AF1040B9742584628D3E3
S31508009160FFF72CFADAF828200AF118000AB1FFF7F7
S3150800917025FA214BDAF82C201B689A4288BF1E4B29
S3150800918002EB8200594608EB800088BF1A60FFF799
S31508009190EBF9D9F80010DAF82C20CB6A9A4228BFE6
S315080091A001242B681B68002BCFD14FF0FF333360A7
S315080091B09DE732609BE7114B2968114A18682860B9
S315080091C019601368013313602B681B6823B9064EB0
S315080091D04FF0FF33336082E7FFF72AFE7EE700BFD2
S315080091E0880E0020040F0020BC0E0020840E0020EC
S315080091F0080F0020140A0020900E0020180A0020EC
S31508009200C00E00201C0A0020100A00202DE9F04795
S31508009210344C236843B94FF0500383F31188BFF3E6
S315080092206F8FBFF34F8FFEE700F064FC2368013BA6
S315080092302360246864BB2C4B1B684BB32B4E2C4F06
S315080092402C4DDFF8C490DFF8C4803B6833B3FB6865
S31508009250DC6804F1040A04F11800FFF7AFF9504678
S31508009260FFF7ACF9E36A2A6803EB83009342514699
S3150800927009EB800088BF2B60FFF776F9D8F8003035
S31508009280E26ADB6A9A424FF00103DED33360DCE719
S31508009290002400F051FC2046BDE8F0873CB1164B8F
S315080092A01B681B68DBB9154B4FF0FF321A60144D6B
S315080092B02C683CB10127FFF707FF00B13760013C76
S315080092C0F9D12C603368002BE2D00E4B4FF0805258
S315080092D01A60BFF34F8FBFF36F8F0124D9E7FFF7EB
S315080092E0A7FDE4E7880E00207C0E0020080F00206A
S315080092F0C40E0020900E0020140A0020BC0E002088
S31508009300840E002004ED00E01C0A0020100A00204C
S3150800931008B598B10E4B196841B14FF0500383F365
S315080093201188BFF36F8FBFF34F8FFEE71A680132BC
S315080093301A60FFF7D3FDFFF769FF38B9054B4FF001
S3150800934080521A60BFF34F8FBFF36F8F08BD00BFFF
S31508009350880E002004ED00E01C4B1B6813BB1C4A5A
S315080093601C4830B41C4C1360226893009918890075
S31508009370415839B9D2B1013A9300991850F82110D9
S315080093800029F7D013449B00C51808336968496853
S3150800939069600344994212D0104BC968196022606B
S315080093A030BC70470A4B01221A6070474FF05003D1
S315080093B083F31188BFF36F8FBFF34F8FFEE7142334
S315080093C003FB020049684160E6E700BF880E0020FB
S315080093D0080F00201C0A0020900E0020100A00200A
S315080093E040B94FF0500383F31188BFF36F8FBFF373
S315080093F04F8FFEE710B5064B0C4619681831FFF774
S31508009400C3F820460121BDE81040FFF767BD00BF3D
S31508009410100A002038B588B10D4B0D461968144658
S315080094201831FFF7A1F8002C08BF2846214618BFB7
S315080094304FF0FF30BDE83840FFF750BD4FF05003FE
S3150800944083F31188BFF36F8FBFF34F8FFEE700BF1B
S31508009450100A002038B5C368DC6824B304F118057F
S315080094602846FFF7ABF8174B1B682BBB251D28466C
S31508009470FFF7A4F8144AE36A116814488B4288BFB8
S31508009480136003EB8303294600EB8300FFF76CF8B0
S315080094900F4BE26A1B68DB6A9A4283BF0D4B0120B9
S315080094A01860002038BD4FF0500383F31188BFF3CE
S315080094B06F8FBFF34F8FFEE729460748FFF754F82B
S315080094C0E6E700BF880E0020900E00201C0A002048
S315080094D0100A0020080F0020C40E0020034A044B7F
S315080094E012681B68C0E90023704700BFC00E002041
S315080094F0040F0020F8B540B3F1B10D46044600F05C
