S017000032302D31302D312D352D302D302D392E737265633D
S31508004000000001200D500008194D00081D4D00083C
S31508004010214D0008254D0008294D00080000000024
S31508004020000000000000000000000000619C00087D
S315080040302D4D000800000000F19C0008559D000861
S315080040405D5000085D5000085D5000085D5000088E
S315080040505D5000085D5000085D5000085D5000087E
S315080040605D5000085D5000085D5000085D5000086E
S315080040705D5000085D5000085D5000085D5000085E
S315080040805D5000085D5000085D5000080000000003
S31508004090000000000000000000000000314D00088C
S315080040A05D5000085D500008394D00085D50000855
S315080040B0854D0008914D00085D5000085D500008C8
S315080040C05D5000085D5000085D5000089D4D0008D1
S315080040D05D5000085D500008454D000800000000CE
S315080040E05D5000085D5000085D50000800000000A3
S315080040F00000000000000000000000005D500008FD
S31508004100000000005D5000085D5000085D50000882
S315080041100000000000000000000000000000000091
S31508004120A94D00085D5000085D500008B54D00080F
S315080041305D500008000000000000000000000000BC
S315080041400000000000000000000000005D500008AC
S315080041505D5000085D5000085D5000085D5000087D
S315080041605D5000085D5000080000000000000000D7
S315080041700000000000000000000000000000000031
S31508004180000000005D50000800000000000000006C
S315080041905D5000080000000000000000000000005C
S315080041A00000000000000000000000000000000001
S315080041B000000000000000000000000000000000F1
S315080041C000000000000000000000000000000000E1
S315080041D00000000000000000FFFFFFFFEE11AA55D7
S315080041E010B5054C237833B9044B13B10448AFF323
S315080041F000800123237010BD10020020000000007B
S31508004200B8A1000808B5034B1BB103490348AFF32F
S31508004210008008BD0000000014020020B8A10008B4
S3150800422053B94AB9002908BF00281CBF4FF0FF310F
S315080042304FF0FF3000F074B9ADF1080C6DE904CE0B
S3150800424000F006F8DDF804E0DDE9022304B0704763
S315080042502DE9F047089D04468E46002B4DD18A422B
S31508004260944669D9B2FA82F252B101FA02F3C2F15E
S31508004270200120FA01F10CFA02FC41EA030E9440EF
S315080042804FEA1C48210CBEFBF8F61FFA8CF708FB10
S3150800429016E341EA034306FB07F199420AD91CEBE8
S315080042A0030306F1FF3080F01F81994240F21C811A
S315080042B0023E63445B1AA4B2B3FBF8F008FB103362
S315080042C044EA034400FB07F7A7420AD91CEB040497
S315080042D000F1FF3380F00A81A74240F20781644467
S315080042E0023840EA0640E41B00261DB1D4400023EC
S315080042F0C5E900433146BDE8F0878B4209D9002D50
S3150800430000F0EF800026C5E9000130463146BDE8D9
S31508004310F087B3FA83F6002E4AD18B4202D3824243
S3150800432000F2F980841A61EB030301209E46002DF2
S31508004330E0D0C5E9004EDDE702B9FFDEB2FA82F247
S31508004340002A40F09280A1EB0C014FEA1C471FFAA5
S315080043508CFE0126200CB1FBF7F307FB131140EA8C
S3150800436001410EFB03F0884208D91CEB010103F159
S31508004370FF3802D2884200F2CB804346091AA4B21B
S31508004380B1FBF7F007FB101144EA01440EFB00FEEF
S31508004390A64508D91CEB040400F1FF3102D2A64554
S315080043A000F2BB800846A4EB0E0440EA03409CE7F3
S315080043B0C6F12007B34022FA07FC4CEA030C20FAA0
S315080043C007F401FA06F31C43F9404FEA1C4900FAC0
S315080043D006F3B1FBF9F8200C1FFA8CFE09FB18113D
S315080043E040EA014108FB0EF0884202FA06F20BD9B0
S315080043F01CEB010108F1FF3A80F08880884240F200
S315080044008580A8F102086144091AA4B2B1FBF9F043
S3150800441009FB101144EA014100FB0EFE8E4508D93E
S315080044201CEB010100F1FF346CD28E456AD90238C3
S31508004430614440EA0840A0FB0294A1EB0E01A142A8
S31508004440C846A64656D353D05DB1B3EB080261EB16
S315080044500E0101FA07F722FA06F3F1401F43C5E9F0
S31508004460007100263146BDE8F087C2F12003D84026
S315080044700CFA02FC21FA03F3914001434FEA1C4768
S315080044801FFA8CFEB3FBF7F007FB10360B0C43EA5A
S31508004490064300FB0EF69E4204FA02F408D91CEB0A
S315080044A0030300F1FF382FD29E422DD90238634408
S315080044B09B1B89B2B3FBF7F607FB163341EA0341A8
S315080044C006FB0EF38B4208D91CEB010106F1FF38F7
S315080044D016D28B4214D9023E6144C91A46EA0046EE
S315080044E038E72E46284605E70646E3E61846F8E680
S315080044F04B45A9D2B9EB020864EB0C0E0138A3E7C9
S315080045004646EAE7204694E74046D1E7D0467BE7A9
S31508004510023B614432E7304609E76444023842E721
S31508004520704700BF00B51948194901604FF480313A
S3150800453041601849002385B00122CDE90033CDE951
S315080045400233C0E90A1383600361037680F82030DA
S31508004550C360C26180F83030426100F0ADFD60B9D9
S3150800456000230122094802936946CDE9003200F08A
S31508004570C1FE28B905B05DF804FB00F0C1FAEFE703
S3150800458000F0BEFA05B05DF804FB00BF2C0200205F
S31508004590002001400100000F30B51F4B026889B0AA
S315080045A000249A42CDE90344CDE90544079401D095
S315080045B009B030BD03F58C3300945A6C174842F4A1
S315080045C080725A645A6C02F480720092009A0194BE
S315080045D01A6B42F001021A631A6B02F00102019289
S315080045E0019A02941A6B42F002021A631B6B03F0DB
S315080045F002030293032503A90F2303930495029B41
S3150800460001F0AAF90648059403A9CDE9035501F076
S31508004610A3F909B030BD00BF0020014000000240E8
S315080046200004024000B583B000220E4B0192186BBD
S3150800463040F4800018631B6B03F480030521019383
S315080046403820019B00F016FF382000F051FF0022A9
S315080046503B20052100F00EFF3B2003B05DF804EB7C
S3150800466000F046BF0038024008B503F027F80120DD
S3150800467003F0D6FFF9E700BF10B58AB003F024FCB3
S3150800468003F030FF2022002102A805F08DFD4FF42B
S31508004690006118230691064C0648079301AA0021D3
S315080046A0019403F05BFF044B18600AB010BD00BF0D
S315080046B0D0A1000869460008740200202DE9F047D9
S315080046C000248AB0CDE90544CDE90744544B00944B
S315080046D009941A6B534D544FDFF854A1DFF85491DF
S315080046E042F004021A631A6B02F004020092009A5E
S315080046F001941A6B42F080021A631A6B02F0800268
S315080047000192019A02941A6B42F001021A631A6B1B
S3150800471002F001020292029A03941A6B42F0020214
S315080047201A631A6B02F002020392039A04941A6B34
S3150800473042F008021A631B6B03F00803049322462F
S31508004740284642F2FF01049B01F00EFA224638463B
S315080047504FF2A04101F008FA224650464FF41F4195
S3150800476001F002FA48462246042101F0FDF92246E4
S3150800477028464FF4C05101F0F7F94FF0110805A982
S315080047802846FF2301260593CDE90744CDF818806E
S3150800479001F0E2F805A928464FF400530593CDE940
S315080047A00744069601F0D8F8284605A94FF4C053E1
S315080047B00593CDE90664089401F0CEF805A93846B4
S315080047C04FF2A0430593CDE90684089401F0C4F896
S315080047D0504605A94FF41F430593CDE90744CDF884
S315080047E0188001F0B9F8114A0794384605A94023FC
S315080047F0CDE9053201F0B0F8042305A94846CDE90C
S315080048000536CDE9074401F0A7F822460521172009
S3150800481000F030FE172000F06BFE0AB0BDE8F08706
S31508004820003802400008024000040240000011104F
S3150800483000000240000C024010B50B480B4C0C4916
S3150800484000234FF48042C0E90041C0E90233C0E9C1
S315080048500423C0E90633036201F098F900B910BDD4
S31508004860BDE8104000F04CB9780200200054004022
S31508004870A086010030B51A4B026889B000249A4216
S31508004880CDE90344CDE90544079401D009B030BD0C
S31508004890144D01942B6B144843F002032B632B6BC6
S315080048A003F0020301934FF44073019A0393122213
S315080048B00123CDE904234FF0030C042303A9CDE912
S315080048C006C301F049F802942B6C43F400132B64D9
S315080048D02B6C03F400130293029B09B030BD00BF92
S315080048E000540040003802400004024030B500245D
S315080048F095B0CDE90A44CDE90344CDE905441F4BFB
S3150800490001940C940794196C1D4A41F0805119645E
S315080049101B6C03F080530193019B0294136823F4E4
S31508004920404343F400431360136803F4404302937F
S315080049300922029B089201234FF48032022509922C
S315080049400D934FF480020623CDE90E52109354229C
S31508004950042308A8CDE91125139301F0D7F90F22EE
S315080049604FF4805303A82946CDE90325CDE905432D
S31508004970079401F0B7FB15B030BD00BF0038024000
S315080049800070004008B500F06BFBFFF7AFFFFFF7BC
S3150800499095FEFFF747FEFFF74FFF00F0B3F800F06C
S315080049A031FA00F065FAFFF7BDFD03F011FCFFF7D9
S315080049B063FE03F0B1FDFEE7034B02689A4200D09E
S315080049C0704703F04FBC00BF00300140704700BF7E
S315080049D038B50368B3F1804F044619D03E4A93426E
S315080049E000D038BD257F042D1DD0082DF9D1022110
S315080049F03A4801F0B3F83A4B1B68012808BF002271
S31508004A00186C18BF0122BDE83840052103F09CB98F
S31508004A10057F012D47D0022D36D0042D23D0082D31
S31508004A2011D02368DAE701212C4801F097F82C4BBE
S31508004A301B6801282946D86B0CBF0022012203F007
S31508004A4083F9257FD1E72946264801F087F8264BC2
S31508004A501B68012808BF0022186C18BF0122032111
S31508004A6003F072F9DDE729461E4801F077F81E4B78
S31508004A701B68012808BF0022D86B18BF0122022133
S31508004A8003F062F9257FCAE71648294601F066F859
S31508004A900128154B18D01B680122986B114603F0A4
S31508004AA053F9257FB9E729460E4801F057F80E4B0A
S31508004AB01B68012818BF2A46586B08BF0022002128
S31508004AC003F042F9257FA6E71B6801460022986B8A
S31508004AD003F03AF9257FA0E70004004000040240ED
S31508004AE0640400200000024024040020034B0268EE
S31508004AF09A4200D0704700F0CDBA00BF0048014086
S31508004B00704700BF0B480C4908B50A220023C0E9C4
S31508004B100013C0E90233C0E90433C0E90833C0E929
S31508004B200A32836101F06AFC00B908BDBDE8084095
S31508004B30FFF7E6BF8C030020003001402DE9F04363
S31508004B40404B026889B000249A42CDE90344CDE976
S31508004B500544079402D009B0BDE8F08303F5843311
S31508004B6001945A6C384E42F480525A645A6C02F4D4
S31508004B7080520192019A02941A6B42F001021A635A
S31508004B801B6B03F00103029310234FF002090393F2
S31508004B904FF003080123052703A905462B48029A67
S31508004BA0CDF81880CDE90493079700F0D5FEE023E9
S31508004BB02648039303A9CDF81090CDF818800594DC
S31508004BC0079700F0C9FE224A4FF0C063C6E90023E2
S31508004BD030464FF48063C6E90244C6E90434C6E9A0
S31508004BE00644C6E9084400F091FC20BB194C1A4952
S31508004BF0EE644FF0C0620023C4E90012204640214B
S31508004C004FF48062C4E90213C4E90533C4E90733E3
S31508004C10B5632261636200F079FC78B90022052148
S31508004C202320AC64A56300F025FC232000F060FC7B
S31508004C3009B0BDE8F083FFF763FFD7E7FFF760FF2A
S31508004C40ECE700BF00300140CC0200200000024023
S31508004C50106402402C0300205864024082B00E4BB8
S31508004C6000220092596C41F480415964586C00F452
S31508004C708040009000980192186C40F080501864AB
S31508004C801B6C03F080530193019B0F216FF0010009
S31508004C9002B000F0EFBB00BF0038024030B5014655
S31508004CA089B000221A2000F0E5FB1A2000F020FC4B
S31508004CB00025154B02955A6C144C42F480225A640E
S31508004CC05B6C03F4802301A903A80293029B01F0FD
S31508004CD0C3FA01F0B1FA0E4B0E492160A3FB00306E
S31508004CE0830C013B40F2E7322046E26063602561AF
S31508004CF0A56001F099FF10B1012009B030BD20462A
S31508004D0001F098FD09B030BD00380240E4030020E8
S31508004D1083DE1B4300480140704700BFFEE700BF23
S31508004D20FEE700BFFEE700BFFEE700BF704700BF13
S31508004D30402000F01FBF00BF014801F073BE00BF4E
S31508004D40E403002010B50E4C23681B689B0682B04E
S31508004D50204604D402B0BDE8104002F08DBA02F035
S31508004D608BFA23680DF107005B688DF8073003F0AE
S31508004D7049F92268D36843F02003D36002B010BD16
S31508004D80A4040020014801F04DBE00BF2404002001
S31508004D90014801F047BE00BF64040020014801F045
S31508004DA0A5BC00BF8C030020014800F0E5BC00BF8D
S31508004DB0CC020020014800F0DFBC00BF2C03002015
S31508004DC00E480F4BD0F8882042F47002C0F88820AD
S31508004DD01A68002142F001021A6099601A68A0F167
S31508004DE0BC2022F0847222F48032F0381A605860AF
S31508004DF01A6822F480221A60D960704700ED00E034
S31508004E000038024000B51948002387B04FF08042A9
S31508004E10CDE90233CDE90433CDE90033C0E90023F7
S31508004E20C0E902330361836101F0FEFE90B94FF4D5
S31508004E3080530E48029302A901F04AFD90B9002357
S31508004E400A486946CDE9003301F0EEFF28B907B0F4
S31508004E505DF804FBFFF754FEE9E7FFF751FE07B0DC
S31508004E605DF804FBFFF74CFEE9E700BF24040020C9
S31508004E7000B51848184A002387B0CDE90233CDE9B2
S31508004E800433CDE90033C0E90023C0E902330361E6
S31508004E90836101F0C9FE90B94FF480530D4802931F
S31508004EA002A901F015FD90B900230A486946CDE923
S31508004EB0003301F0B9FF28B907B05DF804FBFFF726
S31508004EC01FFEE9E7FFF71CFE07B05DF804FBFFF7D6
S31508004ED017FEE9E7640400200004004000B50368F3
S31508004EE0B3F1804F83B005D0194A934219D003B065
S31508004EF05DF804FB03F50E3300220092196C41F0AD
S31508004F00010119641B6C03F0010300931C200521A1
S31508004F10009B00F0AFFA1C2003B05DF804EB00F02C
S31508004F20E7BA0C4B00220192196C41F00201196490
S31508004F301B6C03F0020301931D200521019B00F061
S31508004F4099FA1D2003B05DF804EB00F0D1BA00BF52
S31508004F50000400400038024010B50B480B4C0023F3
S31508004F604FF4E1310422C0E90041C0E90233C0E947
S31508004F700432C0E9063302F0DBF800B910BDBDE81B
S31508004F801040FFF7BDBD00BFA40400200044004048
S31508004F9030B51C4B026889B000249A42CDE9034417
S31508004FA0CDE90544079401D009B030BD03F5FA33BD
S31508004FB001941A6C144842F400321A641A6C02F40A
S31508004FC000320192019A02941A6B42F001021A63A6
S31508004FD01B6B03F00103029308220223CDE9032386
S31508004FE003A907230322CDE90623029D00F0B4FC9A
S31508004FF022462146262000F03DFA262000F078FABF
S3150800500009B030BD0044004000000240DFF834D04B
S31508005010002103E00C4B5B58435004310B480C4B02
S3150800502042189A42F6D30B4A02E0002342F8043BA0
S31508005030094B9A42F9D3FFF7C3FE05F069F8FFF763
S31508005040A1FC70470000012050A2000800000020C3
S315080050501002002010020020D04F0020FEE70000BA
S3150800506008B50B4B1A6842F400721A601A6842F4C3
S3150800507080621A601A6842F480721A60032000F08F
S31508005080E7F90020FFF70AFEFFF7E8FD002008BD54
S31508005090003C0240034A044B11681B780B4413601A
S315080050A0704700BFE404002004000020014B186884
S315080050B0704700BFE4040020002800F09F8038B540
S315080050C0056C04463DB1236CDB060CD5002384F839
S315080050D03C30012038BDFFF75FFA6564236C84F81D
S315080050E03C50DB06F2D4236C484A23F4885323F059
S315080050F0020343F0020323645168236821F4403114
S31508005100516051686068014351605A682569A06812
S3150800511022F480725A60596841EA05215960596833
S3150800512021F0407159605A6802435A609968E068EC
S3150800513021F4006199609A68A16A02439A60344A28
S31508005140914252D09868E56A20F0706098609A6833
S3150800515011439960996821F0405199609A682A43E9
S315080051609A609A6822F002029A609A68217E42EA58
S3150800517041029A6094F82020002A41D05968626A50
S3150800518041F400615960586820F460405860511E27
S315080051905A6842EA41325A60DA6AE169656922F474
S315080051A07002DA62DA6A013942EA0152DA62996809
S315080051B021F400719960996894F8302041EA4221F7
S315080051C09960996821F4806199609A68002042EA9A
S315080051D085229A606064236C23F0030343F001037D
S315080051E02364002384F83C3038BD9A6822F0706244
S315080051F09A609A6822F040529A60B2E70120704796
S315080052005A6822F400625A60C6E700BF00230140CC
S315080052100100000F10B490F83C3083B00022012B37
S31508005220019256D00123026880F83C309368DB0768
S3150800523014D42A4B2A4C1B689168A4FB03439B0C85
S3150800524003EB430341F0010191600193019B2BB1EC
S31508005250019B013B0193019B002BF9D19368DC0765
S3150800526026D5036C23F4E06323F0010343F480732B
S3150800527003645368590505D5036C23F4405343F476
S3150800528080530364036C13F480531CBF436C23F0F0
S31508005290060343644FF0000C124B80F83CC06FF0D5
S315080052A0220111605B68DB0607D00F4B9A4204D0D7
S315080052B0002003B05DF8044B7047906810F040502A
S315080052C0F6D1936843F08043936003B05DF8044BCE
S315080052D07047022003B05DF8044B704700000020B9
S315080052E083DE1B4300230140002001400368D86C7D
S315080052F0704700BF30B590F83C3083B00022012BD0
S31508005300019200F09C80012380F83C300C68036809
S31508005310092C2DD81D698A6804EB440E4FF0070C3A
S315080053200CFA0EFC25EA0C051D611D6902FA0EF23F
S315080053302A431A614A68062AA4462FD802EB820233
S31508005340596B053A4FF01F0E0CFA02FC0EFA02F2E0
S3150800535021EA02025A635A6B4CEA02025A63394A34
S31508005360934230D0002380F83C30184603B030BD55
S315080053701FFA84FC0CEB4C02DD68A2F11E0E072214
S3150800538002FA0EF225EA0202DA608A68DD6802FA93
S315080053900EF22A43DA604A68062ACFD90C2A02EBAB
S315080053A0820236D8196B233A1F250CFA02FC05FA35
S315080053B002F221EA02021A631A6B4CEA02021A6323
S315080053C0204A9342CED1122C32D0A4F11003012BDD
S315080053D0C8D81D4A5368102C43F400035360C1D142
S315080053E01A4B02F146721B6802F52E3202F283321C
S315080053F0A2FB03239B0C03EB83035B000193019B36
S31508005400002BAFD0019B013B0193019B002BF9D1E7
S31508005410A8E7D96A413A1F250CFA02FC05FA02F2F6
S3150800542021EA0202DA62DA6A4CEA0202DA6296E7EC
S31508005430D2F8043343F48003C2F8043392E7022017
S3150800544003B030BD002001400023014000000020C9
S315080054500749CA6803024FF6FF0003F4E0630240F7
S31508005460134343F0BF6343F40033CB60704700BF78
S3150800547000ED00E01C4BDB68C3F3022300B5C3F163
S31508005480070EBEF1040F03F1040C28BF4FF0040EFB
S31508005490BCF1060F1BD9033B4FF0FF3C0CFA03FC8B
S315080054A022EA0C024FF0FF3C0CFA0EFC21EA0C0132
S315080054B09940002841EA02010CDB00F1604009012D
S315080054C000F56140C9B280F800135DF804FB0022BC
S315080054D01346E7E7054B00F00F0009010344C9B27C
S315080054E019765DF804FB00BF00ED00E0FCEC00E077
S315080054F0002808DB4109044A00F01F00012303FACB
S3150800550000F042F82100704700E100E038B5044693
S31508005510FFF7CCFD002C67D023680222002184F80F
S31508005520341084F835201A6822F0010205461A60FC
S3150800553005E0FFF7BBFD431B052B39D823681A681E
S31508005540D107F6D4D4E90120E16802430A43D4E935
S315080055500451A0692A430A43E1691D6802430A43C4
S3150800556033492940256A2A430A43616A042926D011
S315080055701A605A6922F007021143D8B22D4A5961B6
S315080055801038A2FB005212092B4923F47F73895C59
S31508005590E16523F003035F2888BF04333F228A406E
S315080055A0A36500209A600123606584F8353038BD0C
S315080055B003232022626584F83530184638BDD4E9BD
S315080055C00B5129430A431A605969A26A21F0070157
S315080055D0114341F00401002DCFD038B9012A23D058
S315080055E032F00202C9D108E0012038BDB0F5005FEB
S315080055F00CD0022A03D9032ABFD1EA01BDD501235B
S315080056004022626584F83530184638BD032AB4D876
S3150800561001A050F822F000BFFF550008FB5500080E
S31508005620FF55000829560008B5F1C07FA5D1E6E761
S315080056303F8010F0ABAAAAAAF4A1000870B490F8AB
S315080056403440856D012C39D090F835404FF0010C67
S31508005650644580F834C005D0002380F8343070BC27
S3150800566002207047022680F83560046800264665E1
S31508005670266826F48026266063608368402B0EBF62
S31508005680A260A160E260C26D08BFE1603F2393405B
S31508005690AB602368026C43F016032360636943F02A
S315080056A0800363611AB1236843F008032360236803
S315080056B043F001030020236070BC7047022070BCD1
S315080056C0704700BF70B50446866DFFF7EFFC94F887
S315080056D03530022B06D00023802284F834306265E8
S315080056E0012070BD23681A6822F016021A605A69EA
S315080056F022F080025A61226C054632B31A6822F0FB
S3150800570008021A601A6822F001021A6005E0FFF71B
S31508005710CDFC431B052B0FD823681B6813F0010328
S31508005720F5D1E16D3F228A400121B26084F8343018
S3150800573084F83510184670BD0320202200236265C0
S3150800574084F8343084F8350070BDA26C002AD5D1AF
S31508005750D8E700BF90F83530022B03D08023436585
S31508005760012070470268052380F83530136823F056
S3150800577001030020136070472DE9F04182B0744A96
S31508005780866D156800230193C36D346808229A4014
S315080057902242804604D001680F68780700F18A80A3
S315080057A001229A40224204D0D8F800104969090615
S315080057B078D404229A40224204D0D8F80010096806
S315080057C08F0767D410229A40224204D0D8F80010D6
S315080057D00F68380749D420229A40224217D0D8F8B1
S315080057E000100C68E00612D5B26098F83520052A34
S315080057F073D00B6813F4802F0B6800F090801903A0
S3150800580040F19B80D8F83C300BB140469847D8F811
S3150800581054303BB3D8F85430DA071BD5D8F80020F3
S315080058204C49052388F835301368A1FB051523F084
S315080058300103AD0A136002E01368DB0704D5019B78
S315080058400133AB420193F7D90022012388F83420AB
S3150800585088F83530D8F84C3023B1404602B0BDE858
S31508005860F041184702B0BDE8F081B2600A6812F448
S31508005870802F0A682AD1D70503D40A6822F00802BD
S315080058800A60D8F84020002AA5D040469047D8F8A4
S315080058905C30A0E7B260D8F8542042F00402C8F899
S315080058A054208FE7B260D8F8542042F00202C8F8B4
S315080058B054207EE70F6827F004070F60B260D8F817
S315080058C0542042F00102C8F8542069E71203D8D5DB
S315080058D0D8F84820002AD8D17DE70A6822F01602AF
S315080058E00A604A6922F080024A61D8F8402052B319
S315080058F00A6822F008020A603F2202FA03F3D8F87F
S315080059005010B3600022012388F8342088F8353017
S315080059100029A7D0404602B0BDE8F041084713F475
S3150800592080737FF46FAF0A6822F010020A600122C2
S3150800593088F8343088F8352064E7D8F84430002BE6
S315080059407FF463AF63E7D8F84820002AD0D1D3E7BD
S3150800595000000020B5814E1B2DE9F04F00230D688D
S3150800596083B04FF0010803E00133102B00F0958057
S3150800597008FA03F232EA050402EA050CF4D14E6885
S3150800598026F01009B9F1020F00F08A80D0F800B0AD
S315080059904FEA430E032404FA0EF406F0030A2BEA30
S315080059A0040B09F1FF390AFA0EFA4AEA0B0AB9F1A9
S315080059B0010F6FEA0404C0F800A040F29A80C2689A
S315080059C014408A6802FA0EF22243F700C260CBD569
S315080059D05C4C5D4F00220192626C42F48042626424
S315080059E0626C02F480420192019A23F0030202F1EA
S315080059F0804202F59C3203F00309D2F808E04FEA28
S31508005A0089090F2404FA09F4B8422EEA040417D0C7
S31508005A1007F58067B84200F082804C4FB84200F024
S31508005A2083804B4FB84200F086804A4FB8420CBF7D
S31508005A304FF0040E4FF0070E0EFA09F944EA09046E
S31508005A409460454A12686FEA0C0EF403424C54BF40
S31508005A500EEA02024CEA020222606468B2033E4A77
S31508005A6054BF0EEA04044CEA0404546094683A4AA3
S31508005A70F70254BF0EEA04044CEA04049460D268A0
S31508005A80B40203F10103344C54BF0EEA02024CEA95
S31508005A900202102BE2607FF46BAF03B0BDE8F08F13
S31508005AA04FEAD30E00EB8E0E0C69DEF820A003F049
S31508005AB007094FEA89094FF00F0B04FA09F40BFAA4
S31508005AC009F92AEA090944EA0904CEF82040D0F877
S31508005AD000A04FEA430E032404FA0EF406F0030965
S31508005AE02AEA040A09FA0EF949EA0A09E443C0F857
S31508005AF00090D0F808A0CF680AEA040A07FA0EF957
S31508005B0049EA0A09C0F80890D0F8049029EA020977
S31508005B10C6F300129A4042EA090242604FE708FAC1
S31508005B2009F944EA09048BE74FF0020E0EFA09F95F
S31508005B3044EA090484E74FF0030E0EFA09F944EA29
S31508005B4009047DE7003802400000024000080240D0
S31508005B50000C024000100240003C01400369194253
S31508005B6014BF01200020704702B9090481617047FB
S31508005B70704700BF044A5169014200D1704708B511
S31508005B805061FFF7F5FF08BD003C0140002800F012
S31508005B90B18070B590F83D30044603F0FF02002B43
S31508005BA000F090802268242384F83D30136823F09F
S31508005BB00103136000F030FB63684F498B424FD8EE
S31508005BC04E4A90427CD94E4D5A00A5FB0035431EDD
S31508005BD0B3FBF2F32268506820F03F0040EA954094
S31508005BE05060A90C01F1010C116A21F03F0141EA4C
S31508005BF00C011162D16940F6FC7E013321F44F4154
S31508005C0013EA0E0F21F0FF0161D104230B43D36180
S31508005C10D4E907301168034321F0C0010B43136030
S31508005C209168D4E9030321F40341034321F0FF01FA
S31508005C300B439360D4E90530D168034321F0FF0193
S31508005C400B43D3601168002341F001012020116045
S31508005C50236484F83D00236384F83E30184670BDFB
S31508005C60284A90422CD9264D274EA5FB002C22689F
S31508005C70556825F03F0545EA9C4555604FEA9C4125
S31508005C804FF4967505FB01F1A6FB0151156A8909C2
S31508005C9025F03F05013129431162D169A56821F430
S31508005CA04F4121F0FF01ADB9013803EB4303B0FBC7
S31508005CB0F3F30133C3F30B03D3B143F40043A5E76E
S31508005CC0012070BD80F83C20FEF7D4FD6AE7C3F3D7
S31508005CD00B039BE703EB8303013803EB8303B0FB5A
S31508005CE0F3F30133C3F30B0313B143F440438DE7D6
S31508005CF001238BE701207047A08601007F841E00E0
S31508005D0083DE1B43FF083D00D34D6210002800F0D8
S31508005D1068812DE9F0410368DD0782B004462FD576
S31508005D209E498A6802F00C02042A00F0ED808A680F
S31508005D3002F00C02082A00F0E3806368B3F5803F9E
S31508005D4000F0EC80B3F5A02F00F04D81934D2A6842
S31508005D5022F480322A602A6822F480222A60002BE4
S31508005D6040F0E180FFF7A2F9064605E0FFF79EF945
S31508005D70801B642800F201812B689B03F6D42368F4
S31508005D809F0728D5854A916811F00C0F00F09A8074
S31508005D90916801F00C01082900F09080E368002B57
S31508005DA000F00E817E4B7D4E01221A60FFF77EF9C8
S31508005DB0054605E0FFF77AF9401B022800F2DD8068
S31508005DC033689807F6D53368226923F0F80343EA5F
S31508005DD0C203336023681A075BD458073AD56F4A5B
S31508005DE0136C13F0805340F089800193136C43F0D1
S31508005DF080531364136C03F080530193019B0125B0
S31508005E00684E3368D90540F1A880A368012B00F0D5
S31508005E10B880052B00F02381604E326F22F0010214
S31508005E203267326F22F004023267002B40F0AE80F0
S31508005E30FFF73CF941F28838074605E0FFF736F9DF
S31508005E40C01B404500F29980336F9807F6D4002DA1
S31508005E5040F0D380A369C3B1504DAA6802F00C0282
S31508005E60082A36D0022B4E4B4FF000021A6600F075
S31508005E70CA80FFF71BF9044604E0FFF717F9001B71
S31508005E8002287AD82B689B01F7D4002002B0BDE817
S31508005E90F08163690BB3424B404E0122C3F8802E52
S31508005EA0FFF704F9054604E0FFF700F9401B02284E
S31508005EB063D8736F9B07F7D523688EE75268560237
S31508005EC03FF56CAF354A126895073AD5E268012A5C
S31508005ED037D0012002B0BDE8F081314A2F4EC2F812
S31508005EE0803EFFF7E3F8054604E0FFF7DFF8401BBE
S31508005EF0022842D8736F9F07F7D4DDE700257FE7AE
S31508005F004A6850027FF519AF244A126891037FF553
S31508005F1037AF6268002A7FF433AFDAE71F4A13689F
S31508005F2043F480331360FFF7C1F81C4E054604E0BE
S31508005F30FFF7BCF8401B64281FD833689A03F7D5C7
S31508005F401DE7164920690A6822F0F80242EAC002EB
S31508005F500A601A077FF541AF9BE7336843F48073FD
S31508005F603360FFF7A3F807463368DA053FF54DAF08
S31508005F70FFF79CF8C01B0228F6D9032002B0BDE83B
S31508005F80F081064A136F43F001031367FFF78EF893
S31508005F90024F064641F288380BE000BF003802403F
S31508005FA00000474200700040FFF780F8801B40451C
S31508005FB0E3D83B6F9B07F7D5002D3FF44BAF1CE0AA
S31508005FC02C4A2D4E1360FFF771F8054604E0FFF7DB
S31508005FD06DF8401B0228D0D833689907F7D4236890
S31508005FE0F9E601207047244B1A6842F480221A60A9
S31508005FF01A6842F480321A6095E71F4A136C23F038
S315080060008053136426E7FFF751F8064604E0FFF7C6
S315080060104DF8801B0228B0D82B689901F7D4D4E92B
S315080060200731626A0B4343EA8213D4E90A2152080C
S3150800603043EA0163013A0F4943EA024301226B60CE
S315080060400A66FFF733F80C4D044604E0FFF72EF80E
S31508006050001B022891D82B689A01F7D515E7064B3D
S315080060601A6F42F004021A671A6F42F001021A67A1
S315080060708CE700BF0000474200380240164908B5C1
S315080060808B6803F00C03042B1BD0082B17D14A6826
S315080060904B68496813F4800302F03F0213D10F4896
S315080060A0C1F38811A1FB0001FEF7BAF80A4B5B6839
S315080060B0C3F3014301335B00B0FBF3F008BD0748A7
S315080060C008BD074808BD0648C1F388110023A1FB8F
S315080060D00001FEF7A5F8E9E7003802400024F400BD
S315080060E0001BB700002800F08680474A136803F0B3
S315080060F00F038B422DE9F0410D46044609D2CBB277
S315080061001370136803F00F038B4202D00120BDE819
S31508006110F0812368980714D5590704D53B498A683E
S3150800612042F4E0528A601A0704D538498A6842F46C
S3150800613060428A603549A0688A6822F0F002024304
S315080061408A60DF0721D56268012A56D0931E012B83
S315080061502E4B1B684CD99907D8D52C4EB36823F01B
S3150800616003031343B360FEF7A1FF41F288380746DD
S3150800617004E0FEF79BFFC01B404543D8B36862683E
S3150800618003F00C03B3EB820FF3D11F4A136803F035
S315080061900F03AB4206D9EBB21370136803F00F0373
S315080061A0AB42B3D123685A0706D51849E0688A680E
S315080061B022F4E05202438A601B0707D5134A216975
S315080061C0936823F4604343EAC1039360FFF756FFDD
S315080061D00E4A0F4C92680F49C2F303120346A25C9B
S315080061E00020D3400B60FEF759FD0020BDE8F08182
S315080061F09801B2D48AE701207047044B1B689E03B6
S31508006200ABD483E7032082E7003C02400038024013
S31508006210DCA1000800000020044B05499B68054ADC
S315080062200868C3F38223D35CD8407047003802401D
S3150800623000000020ECA10008044B05499B68054AAC
S315080062400868C3F34233D35CD8407047003802402D
S3150800625000000020ECA100080E4B0F2202609A688D
S3150800626002F0030242609A6802F0F00282609A68BD
S3150800627002F4E052C2609B68DB0810B403F4E053F2
S31508006280054C036123685DF8044B03F00F030B60AC
S31508006290704700BF00380240003C02402DE9F0413B
S315080062A007460D46164698463A6801E0731C06D11D
S315080062B0946835EA0403F9D00020BDE8F081FEF7BA
S315080062C0F5FEA0EB08008642EED8D7E900315A68F9
S315080062D0B1F5827F22F0E0025A6014D0BA6AB2F5AC
S315080062E0005F07D00122002387F8512087F8503035
S315080062F00320E2E71A6822F400521A601A6842F488
S3150800630000521A60EEE7BA68B2F5004F02D0B2F54D
S31508006310806FE3D11A6822F040021A60DEE700BFF8
S3150800632038B513464268B2F5827F044606D00A4657
S315080063300121FFF7B3FF78B9002038BD8268B2F5AE
S31508006340004F1CD0B2F5806F0CD00A46204680213B
S31508006350FFF7A4FF0028EFD0636D43F02003032066
S31508006360636538BD05680A46296821F04001296039
S315080063700121FFF793FF0028EED10020DDE7006832
S31508006380026822F0400202600A4620468021FFF792
S3150800639085FF0028D0D0DFE730B5164B164C1B68B2
S315080063A0A4FB033C436883B04FEA5C5C4FF47A7500
S315080063B005FB0CF5B3F5827F0446019507D10CE081
S315080063C0019B2268013B019393681B0602D5019B3A
S315080063D0002BF5D1002003B030BD13460A468021B4
S315080063E0FFF75CFF0028F5D0636D43F02003032018
S315080063F06365F0E700000020819F5E1600283BD009
S3150800640038B590F8512000230446836202F0FF0154
S3150800641062B31846D4E90131E26825680B43134391
S31508006420D4E904120B431343E269022184F851109C
S315080064301343226A29681343A26921F0400129609F
S3150800644002F4007C616A120C43EA0C0302F00402AF
S3150800645003430A432B606A60EB69002023F4006358
S315080064600122EB61606584F8512038BD80F8501030
S31508006470FEF764FBA06ACDE70120704738B50446ED
S3150800648090F8500001286AD0012084F8500094F84A
S31508006490510001285FFA80FC0ED06068B0F5827F53
S315080064A004D00220002384F8503038BDA0680028A4
S315080064B0F7D1BCF1040FF4D100294ED0002A4CD0F4
S315080064C0002B4AD094F85100216304281CBF0520EC
S315080064D084F8510000206065E386E38794F851103C
S315080064E0A3860429A387C4E9100008BF2149E06CE4
S315080064F00EBF214B2149224BA263224DC0E90F3121
S31508006500E38F2168C56400259BB20C310565FFF74A
S3150800651095F830BB2268A16C536843F001035360B9
S31508006520E38E0C32C1E90F00C1E913009BB208469D
S31508006530216BFFF783F8A0B923681A68520603D4BB
S315080065401A6842F040021A605A6842F020025A60FD
S315080065505A6842F002025A60A4E70120A2E7022024
S3150800656038BD636D012243F010036365104684F855
S31508006570512097E7F96500083D6600080966000896
S31508006580916600081966000890F85020012A0DD077
S3150800659010B4046862680346002142F00302626090
S315080065A083F8501008465DF8044B70470220704780
S315080065B038B50446806C10B1FFF784F8A0B90025F9
S315080065C0E06C38B1FFF77EF820B1636D43F0100335
S315080065D00125636522685368012123F0030353608C
S315080065E084F85110284638BD636D43F01003012521
S315080065F06365E5E7704700BF08B5806BFFF7FAFFEC
S3150800660008BD00BF704700BF08B5806BFFF7FAFFEB
S3150800661008BD00BF704700BF806B026808B55368A5
S3150800662023F003035360436D012143F010034365D0
S3150800663080F85110FFF7EEFF08BD00BF38B50446D5
S31508006640856BFEF733FD23681B68DB0517D42B68BB
S315080066500246586820F020005860586820F0030069
S31508006660586064212846FFF75BFE08B120236B6556
S3150800667001230022EA8785F851306B6D1BB928463D
S31508006680FEF7A4F938BD2846FFF7C4FF38BD00BF9A
S3150800669038B50546846BFEF709FD2B681B68DB05D4
S315080066A01BD402462068436823F020034360642114
S315080066B02046FFF771FE18B1636D43F0200363654A
S315080066C021684B68002223F0030301204B60E28611
S315080066D0E28784F85100636D1BB92046FEF76CF912
S315080066E038BD2046FFF796FF38BD00BF30B50268B3
S315080066F05168936813F0400F85B00446C3F38015BC
S3150800670005D113F0010F02D011F0400F7AD1980786
S3150800671001D5080670D413F0200FC3F3401049D0F2
S31508006720880645D575B194F8510003286CD0606D7C
S3150800673040F00400606500200090D06800909068E2
S3150800674000900098606D40F001006065002002909E
S3150800675090680290106820F0400010600298C3F319
S315080067600023002B3ED1636D13B3536823F0E00377
S31508006770536001208B0784F851004DD05368E06CB4
S3150800678023F00303536040B1254B0365FEF7E2FF90
S3150800679018B1636D43F040036365A06C40B1204BAC
S315080067A00365FEF7D7FF18B1636D43F040036365D1
S315080067B005B030BD95B18D06FAD594F85150032D24
S315080067C022D0656D45F0040565650090D068009097
S315080067D0906800900098C3F30023C2E7DD05E7D56B
S315080067E08B06E5D5636D002043F0080363650390C7
S315080067F093680393039BB6E7636C204605B0BDE830
S3150800680030401847036CF9E700230193D3680193D6
S3150800681093680193019BCBE72046FFF7FBFEC7E78A
S315080068202568000808B5806B0023C387C386FFF771
S31508006830F1FE08BD0368DA6842F00102DA609A6878
S3150800684002F00702062A03D01A6842F001021A600B
S3150800685000207047704700BF0C2908D8DFE801F010
S31508006860310707072B070707250707071F000368D0
S31508006870186A012201F01F0102FA01F120EA01005B
S3150800688018621A6A114319629A6802F00702062A00
S3150800689003D01A6842F001021A60002070470368A4
S315080068A0DA6842F01002DA60E2E70368DA6842F072
S315080068B00802DA60DCE70368DA6842F00402DA60A4
S315080068C0D6E70368DA6842F00202DA60D0E700BF6A
S315080068D090F83C30012B74D030B4026801240223AE
S315080068E080F83C4080F83D3094680B6824F47F4477
S315080068F024F07704602B946065D031D8402B48D0BB
S3150800690021D9502B16D14C68CD68116A21F00A019D
S315080069102143146A24F001041462936923F0F003F6
S3150800692043EA051393611162936823F0700343F0F9
S31508006930570393600023012280F83D2080F83C30FD
S3150800694030BC18467047202B02D01ED9302BF1D107
S31508006950916821F070010B4343F007039360E9E760
S31508006960702B49D0B3F5005FE4D1D1E9015394689F
S315080069702B43CD6824F47F4143EA05230B439360F8
S31508006980936843F480439360D4E733F01001D1D180
S31508006990DEE74C68CD68116A21F00A012143146AC2
S315080069A024F001041462936923F0F00343EA051303
S315080069B093611162936823F0700343F04703936071
S315080069C0B8E702207047146ACB684D6824F01004B3
S315080069D01462916921F4704141EA0331136A9161A5
S315080069E023F0A00343EA05131362936823F07003A8
S315080069F043F0670393609DE7D1E9015394682B43FD
S31508006A00CD6824F47F4143EA05230B4393609368DA
S31508006A1043F0770393608DE7704700BF704700BF68
S31508006A20704700BF03681A69910710B5044602D576
S31508006A30DA6892075FD41A69500702D5DA685107EF
S31508006A4046D41A69120702D5DA6810072ED41A69CD
S31508006A50D20602D5DA68D00618D41A69D10702D543
S31508006A60DA68D2075DD41A69100602D5DA68110603
S31508006A705FD41A69520602D5DA68500661D41A69D3
S31508006A80910602D5DA68920643D410BD6FF010015C
S31508006A90082219612277DB6913F4407F204664D007
S31508006AA0FDF796FF002223682277D6E76FF00801E4
S31508006AB0042219612277DB699907204652D1FFF72C
S31508006AC0ABFF2046FFF7AAFF002223682277BEE71E
S31508006AD06FF004010222196122779B6913F4407F43
S31508006AE020463CD1FFF798FF2046FFF797FF002284
S31508006AF023682277A5E76FF0020101221961027760
S31508006B009B699B0725D0FDF763FF00222368227740
S31508006B1091E76FF0200220461A61BDE8104000F0A8
S31508006B20A3B96FF001021A612046FDF7DFFF23685B
S31508006B3099E76FF080021A61204600F097F92368FA
S31508006B4097E76FF040021A612046FFF769FF23684E
S31508006B5095E7FFF761FF2046FFF760FFD5E7FDF7EA
S31508006B6037FFC4E7FDF734FFAEE7FFF755FF2046CA
S31508006B70FFF754FF96E700BF2A4A0368904230B4ED
S31508006B8039D0B0F1804F21D0A2F57C4290421DD079
S31508006B9002F58062904219D002F58062904215D0C3
S31508006BA002F59A32904215D002F58062904211D0D1
S31508006BB002F5806290420DD04D698C680A6823F010
S31508006BC080032B430360C462826210E04A6823F0A4
S31508006BD070031343CC684A6923F44073234323F0B4
S31508006BE080038C6813430A680360C46282620123C7
S31508006BF030BC436170474C68CA6823F0700323436E
S31508006C0023F4407313434A6923F080031343036054
S31508006C108B68C3620B6883620B690363012330BC0C
S31508006C204361704700000140C0B110B590F83D308F
S31508006C30044603F0FF0263B12146022384F83D307F
S31508006C4051F8040BFFF798FF012384F83D30002024
S31508006C5010BD80F83C20FEF741F9EDE701207047AA
S31508006C60C0B110B590F83D30044603F0FF0263B199
S31508006C702146022384F83D3051F8040BFFF77CFFC8
S31508006C80012384F83D30002010BD80F83C20FFF732
S31508006C90E1FDEDE70120704770B4056A174E25F04F
S31508006CA001050562B0428469056A15D0B0F1804FC6
S31508006CB012D0A6F57C46B0420ED006F58066B042E4
S31508006CC00AD006F58066B04206D006F59A36B04276
S31508006CD002D044F0010202E024F0030422431B011F
S31508006CE025F00A0422F0F002DBB201F00A01214382
S31508006CF01343836170BC0162704700BF0000014006
S31508006D00F8B590F83C30012B00F08C800D46022334
S31508006D100121044680F83C1080F83D3072B3042AFD
S31508006D20036828683AD0082A5BD01E6A6F68EA6842
S31508006D30AD6826F480561E62D96921F440711203A3
S31508006D4041EA072121F4704192B20A43196ADA61CD
S31508006D50000300F4204021F4204101431962D96957
S31508006D6021F44061D961DA6942EA0522DA61002034
S31508006D70012384F83D3084F83C00F8BDD5E90012BB
S31508006D80EB680068FFF788FF2368A868996921F00F
S31508006D900C0199619A6902439A61E8E71E6A6F686D
S31508006DA0EA68AD6826F010061E62996921F44071FA
S31508006DB0120341EA072121F4704192B20A43196A83
S31508006DC09A61000100F0A00021F0A00101431962B8
S31508006DD0996921F4406199619A6942EA05229A61A2
S31508006DE0C5E71E6A6968EA68AD6826F480761E6299
S31508006DF0DE6926F003061201314321F0F001D2B212
S31508006E000A43196ADA61000200F4206021F420615D
S31508006E1001431962D96921F00C01D961DA692A435B
S31508006E20DA61A4E70220F8BD90F83C30012B19D0AE
S31508006E3030B40223046880F83D3062680D68A368A0
S31508006E40496822F070022A4323F0800362600B43EC
S31508006E5000220121A36080F83D1080F83C2030BC58
S31508006E601046704702207047704700BF704700BF42
S31508006E70026811692DE9F8430446C068A3682569C4
S31508006E8021F4405101431161D168E0692B436569DA
S31508006E9021F416412B4321F00C0103430B43D36025
S31508006EA05369A16923F440730B43B0F5004F53614E
S31508006EB09D4B00F09C809A425AD003F580639A4213
S31508006EC056D0FFF7A9F9DFF86482636800EB800003
S31508006ED000EB80009B00B0FBF3F3A8FB03235B09E0
S31508006EE01F01FFF799F9656800EB800000EB800049
S31508006EF0AD00B0FBF5F5FFF78FF9636800EB80008E
S31508006F009B0000EB8000B0FBF3F0A8FB00304009C3
S31508006F104FF0640909FB10531B013233A8FB032306
S31508006F205B0903F0F006FFF777F9656800EB800365
S31508006F3003EB8303AD00B3FBF5F5FFF76DF9D4E971
S31508006F40002300EB800000EB80009B00B0FBF3F30E
S31508006F50A8FB03135B0909FB13531B013233A8FB78
S31508006F600313C3F3431333433B449360BDE8F883E9
S31508006F70FFF762F9DFF8B481636800EB800000EB85
S31508006F8080009B00B0FBF3F3A8FB03235B091F01FA
S31508006F90FFF752F9656800EB800000EB8000AD0052
S31508006FA0B0FBF5F5FFF748F9636800EB80009B0036
S31508006FB000EB8000B0FBF3F0A8FB003040094FF06F
S31508006FC0640909FB10531B013233A8FB03235B0931
S31508006FD003F0F006FFF730F9656800EB800000EB78
S31508006FE08000AD00B0FBF5F5FFF726F9A7E79A4252
S31508006FF05AD003F580639A4256D0FFF70DF9DFF8A9
S315080070002C81636800EB800000EB80005B00B0FB1E
S31508007010F3F3A8FB03235B091F01FFF7FDF8656877
S3150800702000EB800000EB80006D00B0FBF5F5FFF784
S31508007030F3F8636800EB800000EB80005B00B0FBB0
S31508007040F3F3A8FB03235B094FF0640909FB135309
S31508007050DB003233A8FB03231B0903F4F876FFF79A
S31508007060DBF8656800EB800303EB83036D00B3FB75
S31508007070F5F5FFF7D1F8D4E9002300EB800000EB23
S3150800708080005B00B0FBF3F3A8FB03135B0909FB65
S315080070901353DB003233A8FB0313C3F342133B44F9
S315080070A033449360BDE8F883FFF7C6F8DFF87C80C1
S315080070B0636800EB800000EB80005B00B0FBF3F335
S315080070C0A8FB03235B091F01FFF7B6F8656800EB09
S315080070D0800000EB80006D00B0FBF5F5FFF7ACF81B
S315080070E0636800EB800000EB80005B00B0FBF3F305
S315080070F0A8FB03234FF064095B0909FB1353DB0064
S315080071003233A8FB03231B0903F4F876FFF794F838
S31508007110636800EB80005B0000EB8000B0FBF3F5D2
S31508007120FFF78AF8A7E700BF001001401F85EB515B
S3150800713060B338B590F83930044603F0FF0203B35C
S315080071402268242384F83930D36823F40053204670
S31508007150D360FFF78DFE23681A6922F490421A61FC
S315080071605A6922F02A025A61DA680025202142F477
S315080071700052DA60E56384F8391084F83A10284634
S3150800718038BD80F83820FDF703FFD9E7012070479E
S3150800719090F83A30202B23D101B3FAB190F8383061
S315080071A0012B1DD010B40023046881622221C285F8
S315080071B080F83830C36380F83A10E168828541F474
S315080071C08071E160626942F0010262611846E36813
S315080071D043F02003E3605DF8044B704701207047D5
S315080071E002207047704700BF704700BF08B590F887
S315080071F03A30222B22D18368B3F5805F1FD003690A
S3150800720043BB836A0268591C526881621A70C38D2F
S31508007210013B9BB2C3858BB90368DA6822F020026A
S31508007220DA60DA6822F48072DA605A69202122F07C
S3150800723001025A6180F83A10FFF7D6FF08BD0269C5
S31508007240836A82B902685268C2F3080223F8022BDD
S315080072508362DCE70368826A5B68511C03F07F037C
S3150800726081621370D3E702685268D2B223F8012B01
S315080072708362CCE7704700BF03681A6870B51607C3
S31508007280DD68596904460CD1960601D5A9066BD462
S31508007290100601D5290640D4560601D5680658D4E5
S315080072A070BD01F0010105F490700843F0D0D607CF
S315080072B005D5E80503D5E06B40F00100E063560705
S315080072C020D559B1E16B900741F00201E16376D50B
S315080072D0E16B41F00401E163110719D4E16B002960
S315080072E0DED0920601D5AE066CD45A69E56B02F07B
S315080072F0400205F0080515433AD12046FFF7BAFFC4
S31508007300E56370BD960753D41007E7D50029E5D085
S31508007310E16B41F00801E163E0E794F83920212A9E
S31508007320BED1A268B2F5805F226A50D0511C216294
S3150800733012785A60E28C013A92B2E284002AAFD1FE
S31508007340DA6822F08002DA60DA6842F04002DA602F
S3150800735070BDDA68202122F04002DA60204684F8FF
S315080073603910FFF73FFF70BDBDE87040FFF73EBF1D
S31508007370DA6822F49072DA605A69202122F0010252
S315080073805A6184F83A105A69550614D55A69606BD9
S3150800739022F040025A6170B1134B0365FEF7DAF921
S315080073A000283FF47DAF606BBDE87040036D184759
S315080073B000298DD192E72046FFF75CFF70BD1107C3
S315080073C08CD5A5E72046FFF711FF23688DE71188BE
S315080073D02069C1F30801596010B902322262A9E78F
S315080073E001322262A6E700BFED73000808B5806B7C
S315080073F00023C385C384FFF73DFF08BD2DE9F0438D
S3150800740005229FB08846002101F030F803283C4B3E
S3150800741004464FF000025AD801921A6C42F0010253
S315080074201A641B6C03F001030193019B354DC4EBF1
S31508007430C40305EB830655F8233009930223002776
S3150800744070680A930C9309A973690D930B97FEF755
S3150800745083FA96F910003A460521FEF70BF896F9D5
S315080074601000FEF745F8F3680E93B36911930EA85A
S315080074702A234FEAC409109712970F93FFF7D4FBF4
S3150800748000282FD10EA8FFF7EBFB002831D12026C4
S31508007490002303A90EA8CDE90363FFF7C5FC58BB73
S315080074A0A9EB040405EB840500230120CDE90603B6
S315080074B0AA68089305A90EA8CDF81480FFF720FC42
S315080074C0A9680EA8FFF7C8F91FB0BDE8F0830292B5
S315080074D01A6C42F002021A641B6C03F00203029350
S315080074E0029BA3E7FDF70CFB0EA8FFF7B9FB0028E4
S315080074F0CDD0FDF705FBCAE7FDF702FBD0E700BFD5
S31508007500003802404C010020F0B5124D124F134EC0
S3150800751085B004462846FDF7E9FE114B04EB440204
S3150800752003EB820369469B6800933B78012226F8A1
S31508007530130003232846CDE90123FDF7DBFE284681
S31508007540FDF768FE0A2000F0A9FF36F814003C7023
S3150800755005B0F0BD2C020020C0050020E80400207C
S31508007560D40000200B4610B5052204460021184613
S3150800757000F07CFF164A32F81030B3F5FA7F84BF64
S31508007580A3F5FA7322F81030124B53F8201043F87B
S315080075902040114B1B785BB932F81030B3F57A7F6F
S315080075A006D2A14208D2641A0C48B0FBF4F010BD0A
S315080075B00B4B53F8200010BD0A4AC0EBC00302EB80
S315080075C0830306489B691C44641AB0FBF4F010BD9B
S315080075D0E405002088050020C205002080841E00DE
S315080075E0200500204C0100200378012B00D07047AD
S315080075F0D0F80230012B0BD0032BF8D18379052B59
S31508007600F5D8174AD0F80710013B42F823107047FF
S3150800761010B4144C0346224600F1240C997902F85A
S31508007620011BD9795171197AD172597A5174997A9B
S31508007630D1750633634559795177EFD190F82B20E8
S31508007640094B84F82520012290F82AC090F82C10BE
S315080076501A7084F824C084F826105DF8044B704725
S3150800766020050020F8040020F404002038B50C4654
S3150800767002220F4DC4F80220012143F201630D4A8C
S315080076802970238004F13001234652F8040BC3F80D
S3150800769006005069C3F80A0008338B42F5D1362133
S315080076A0204600F0EBFE002384F836002B7038BD28
S315080076B0C205002020050020002070472DE9F04F64
S315080076C02DED068BDFF838A3C14DC24989B00AF102
S315080076D006042F462846524640F2DB5C4FF0000E61
S315080076E009E0B3F57A7F0B800FD8A24200F10400B7
S315080076F001F1020111D012F8013B043B032BF4D827
S315080077000E88731C66459BB2EBD9A242C0F800E00E
S3150800771001F1020100F10400EDD1AF4A537D0133B6
S31508007720DBB2022B537507D900231188137545F66A
S315080077305913994200F08682A84B1B78012B66D014
S31508007740A74B1B78ABBBA74FDFF8C4829FEDA68A71
S31508007750DFEDA6AA9FEDA6AADFEDA69A9FEDA69A4B
S31508007760DFEDA68AA64E0BE0022B27D0032B46D0C8
S31508007770A64207F1220705F1040508F1080818D002
S31508007780A6EB0A0016F8013B012BC0B2ECD1FFF7B5
S31508007790BBFE0146384600F0E7FD0028E8D17B88A5
S315080077A02B60A64207F1220705F1040508F108082F
S315080077B0E6D109B0BDEC068BBDE8F08FFFF7A4FE55
S315080077C00146384600F0D0FD0028D1D173799B09CF
S315080077D000F05982012B00F08182022BC8D17B88E8
S315080077E007EE103AB8EEC77A27EE087AC7EE2A7A75
S315080077F067EE8A7AFCEEE77AC5ED007AB8E7B8F85C
S315080078000010D8F80400FEF7A9F92860B0E77D4F04
S31508007810DFF80092DFF800B27B4E0195984617F81C
S31508007820012FD24302F0010280214846FEF79CF957
S315080078303A786FEA520202F001024FF48071584614
S31508007840FEF792F93A786FEA920202F001024021B5
S315080078504846FEF789F93A786FEAD20202F0010241
S315080078604FF400715846FEF77FF93A7808F1FF356C
S315080078709209EDB200F0B981012A00F01682022AB7
S3150800788000F01F8217F8063C5A1E012A40F2BF81F3
S31508007890092B00F0C68101224FF480413046FEF7DD
S315080078A063F900224FF400413046FEF75DF9013DC9
S315080078B00122042D00F22282DFE815F031017D0154
S315080078C070018A01050004214846FEF74DF901209A
S315080078D000F0F6FD002204214846FEF745F900228D
S315080078E040214846FEF740F900224FF400715846F9
S315080078F0FEF73AF9002280214846FEF735F90022BC
S315080079004FF480715846FEF72FF900224FF4805144
S315080079103046FEF729F900224FF400513046FEF7AB
S3150800792023F900224FF480413046FEF71DF9002264
S315080079304FF400413046FEF717F9B8F1060F40F04C
S315080079402881019D2E4F002609E0082B00F064814E
S31508007950072B00F0BB810136F6B2062E10D017F8B9
S31508007960013B042BA3F1050200F05681012AECD84D
S31508007970304601360A21F6B2FFF740FD062EEED153
S315080079800026DFF87C90DFF88880374603E001366A
S31508007990F6B2062E17D019F8013B032BF7D10021B2
S315080079A03046052200F062FD58F83030049708EB9F
S315080079B0C00001364068039303A9F6B20597FDF7A0
S315080079C0CBFF062EE7D1DFF83890104F002629E0C6
S315080079D020050020E4050020C4050020F40400204A
S315080079E0C205002008000020D10C4D3F0020CA44E3
S315080079F000543D4600007C45001063460010A4462E
S31508007A00F8040020FD040020000402402C02002097
S31508007A101C01002000080240000002400136F6B2B0
S31508007A20062E52D019F8013B013B012BF6D84FF030
S31508007A30000805224146304600F018FDB64B3B606B
S31508007A40B64BBB6201238346FB617B61B448C7F82A
S31508007A5008804FF48033C7F8108087F8188087F8B5
S31508007A602080C7F82C80C7F80C8087F830807B60A8
S31508007A70FDF722FB002840F02E81AA4BCDF808809E
S31508007A805A6CA94942F480725A645B6C03F4807399
S31508007A900BEB4B0B0293029B51F82B20039201EB45
S31508007AA08B030322586803A90223CDE90423013670
S31508007AB0FDF752FF424612200521FDF7DBFCF6B220
S31508007AC01220FDF715FD062EACD1984EDFF874820C
S31508007AD0974F01E0A6420CD016F8013B092BF9D1C5
S31508007AE0FDF73AFA012241463846FFF751FBA6420E
S31508007AF0F2D1904E904F06F1180817F8013B3188DD
S31508007B000122002B40F09A8070681A46FEF72CF87E
S31508007B1008364645F1D1894A0023137010E6082134
S31508007B204846FEF721F8012000F0CAFC0022082189
S31508007B304846FEF719F8484600224021FEF714F891
S31508007B40584600224FF40071FEF70EF84846002208
S31508007B508021FEF709F8584600224FF48071FEF797
S31508007B6003F8304600224FF48051FDF7FDFF3046FA
S31508007B7000224FF40051FDF7F7FF304600224FF47C
S31508007B808041FDF7F1FF00224FF400413046FDF732
S31508007B90EBFF08F101085FFA88F840E6102148462D
S31508007BA0FDF7E2FF012000F08BFC00221021484679
S31508007BB0FDF7DAFFBFE702214846FDF7D5FF0120AA
S31508007BC000F07EFC002202214846FDF7CDFFB2E711
S31508007BD011464846FDF7C8FF012000F071FC002257
S31508007BE001214846FDF7C0FFA5E7304601224FF4BC
S31508007BF08051FDF7B9FF01224FF400513046FDF7D9
S31508007C00B3FF17F8063C5A1E012A3FF641AE304626
S31508007C1000224FF4804142E600213046FFF7EEFB92
S31508007C2099E6304601224FF48041FDF79DFF012277
S31508007C304FF400413046FDF797FF38E67068FDF7C8
S31508007C4093FF65E7D6789078117983194E3B00EB58
S31508007C50062056790B44334401EB0621967996762D
S31508007C601E44D379D3763344167A1677DBB280B2BC
S31508007C7089B29E42D082118353777FF45DAD732912
S31508007C8088BFF86058E57B88DFED2D6A07EE103A65
S31508007C90B8EEC77A27EE087AC7EE287A67EEA67A8C
S31508007CA0FCEEE77AC5ED007A62E530464FF480517E
S31508007CB0FDF75AFF00224FF400513046FDF754FFF6
S31508007CC0E0E500224FF480513046F1E730460021C6
S31508007CD0FFF794FB3FE6FCF713FFCEE67B8807EE3B
S31508007CE0103AB8EEC77A27EE087AC7EE297A67EE11
S31508007CF0897AFCEEE77AC5ED007A39E5202148460F
S31508007D00FDF732FF012000F0DBFB00222021484668
S31508007D10FDF72AFFE3E500BF002001400100000F40
S31508007D202C02002000380240D4000020F80400206D
S31508007D30A4040020F40100201C050020F4040020FF
S31508007D400018F646C1050020F8B50D461346074645
S31508007D500021284605221D4600F088FB514E335C5B
S31508007D60042B044640D05A1F012A04D9082B43D0B5
S31508007D70072B60D0F8BD0522002100F077FB4A4AA0
S31508007D8032F81030B3F5FA7F84BFFA3B22F8103088
S31508007D90464B1B78002B48D1002D64D1444951F835
S31508007DA0203041F820709F4270D94249FB1A41F8A9
S31508007DB0203032F81030B3F57A7F36D23E4B53F87E
S31508007DC020304FF47A7202FB03F33A4A52F8202025
S31508007DD0B3FBF2F3B3F57A7F27D8325C052A5DD078
S31508007DE0062A22D1354E23E001463846FFF7BAFB6C
S31508007DF0324B43F82400F8BD304E0422002156F8D1
S31508007E00205000F033FB2E4B0130C0B203EBC0020A
S31508007E1033F830105068FDF7A1FEF0B9B5F1004F00
S31508007E2000D0013D46F82450F8BD244E56F82030BF
S31508007E3046F82430F8BD3318014638461D7BFFF74F
S31508007E4091FBC0EB0010800001281C4B8CBFB0FBD7
S31508007E50F5F0002043F82400F8BD6FF000439D427A
S31508007E6018BF0135DEE7012DA3D1114B53F8203099
S31508007E709F4206D81349C0EBC00501EB8501896905
S31508007E800F440D49FB1A41F8203092E70D49C0EB23
S31508007E90C00501EB850189690F4486E7074EC3F5DE
S31508007EA07A73C5E7F8040020E4050020C20500201F
S31508007EB06C050020A40500205005002020050020A0
S31508007EC01C0100204C01002070B54B4C4B4D4C4E0C
S31508007ED0204600224FF40041FDF746FE20460022C8
S31508007EE04FF40061FDF740FE284600222021FDF7E9
S31508007EF03BFE284600224FF48061FDF735FE2046FA
S31508007F0000224FF48061FDF72FFE204600224FF431
S31508007F108051FDF729FE304600222021FDF724FE78
S31508007F20304600220821FDF71FFE304600220221B6
S31508007F30FDF71AFE304600221021FDF715FE3046E1
S31508007F4000220121FDF710FE304600220421FDF72C
S31508007F500BFE304600224021FDF706FE2046002291
S31508007F604FF40071FDF700FE304600228021FDF730
S31508007F70FBFD204600224FF48071FDF7F5FD2846EB
S31508007F8000224FF48051FDF7EFFD284600224FF4FA
S31508007F900051FDF7E9FD284600224FF48041FDF720
S31508007FA0E3FD284600224FF40041FDF7DDFD20469B
S31508007FB001224FF40041FDF7D7FD204601224FF478
S31508007FC00061FDF7D1FD284601222021FDF7CCFDF1
S31508007FD0284601224FF48061FDF7C6FD204601229E
S31508007FE04FF48061FDF7C0FD20460122BDE87040D0
S31508007FF04FF48051FDF7B8BD00000240000402406E
S3150800800000080240074B197D4A1CD2B20F2A1A757E
S3150800801088BF0F22007888BF1A75002258545A75EF
S31508008020704700BFC405002010B50D4C2046FEF76A
S31508008030BFFA2046FEF7A8FA23689B681B0600D5F8
S3150800804010BD08481021FDF789FD0028F8D0204604
S31508008050054A0649BDE810403723FEF70FBA00BFA8
S315080080608C03002000000240F405002030060020A2
S3150800807001282DE9884808D04FF0500383F311886A
S31508008080BFF36F8FBFF34F8FFEE7454C454FDFF8C1
S315080080903481454EDFF83091444DDFF824B1DFF8DE
S315080080A02CA149E03388B3F57A7F58D398F8003085
S315080080B0012B5ED099F80030002B3AD02888228808
S315080080C0B5F802C0688083183948A5F804C0634427
S315080080D0A0FB03035B08D81E0021824231802A8058
S315080080E03B8004DB03339A42CCBF002101210023E5
S315080080F088F80010238089F8003001224FF40051D7
S315080081005046FDF731FDDBF800309B681B060AD4A4
S3150800811028481021FDF722FD28B1274A2749284873
S315080081203723FEF7ABF900224FF400515046FDF70E
S315080081301BFD012001F09CF923883A8801339BB284
S31508008140053A93422380ADD198F80030012B21D00F
S315080081503388B3F57A7FADD201333380AAE798F82E
S3150800816000200133012A3380A4D19BB2B3F5167FD0
S31508008170A0D901224FF400515046FDF7F5FCFFF750
S315080081809BFA00B9308000224FF400515046FDF7A3
S31508008190EBFC8FE709490848FFF768FAADE700BF27
S315080081A084060020860600206C060020780600203B
S315080081B0ABAAAAAA00000240F40500203006002057
S315080081C08C030020880600206E0600200008024066
S315080081D070B51A4D1A4C82B0284601224FF4005148
S315080081E0FDF7C2FC174A184B0126C4E9002340F2E2
S315080081F00153A36026733621204600F03FF9214635
S3150800820084F83600114A12483723FEF737F9114B1E
S31508008210114912480024CDE900434FF40072334651
S3150800822000F058FF0E4B064622464FF400512846EA
S315080082301E6002B0BDE87040FDF796BC000802401B
S3150800824030060020013601000000140AF40500205B
S315080082508C03002074060020FCA100087180000829
S3150800826070060020F0B53848384D83B001228021C9
S31508008270FDF77AFC40F22D1401E0002C61D01021A4
S315080082802846FDF76BFC013CA4B20028F5D0304D1A
S31508008290304C3621204600F0F1F894F83630834207
S315080082A045D002222A702C4E0020207034680B23F9
S315080082B04FF0010CA168013B11F0020F9BB232D1BD
S315080082C001221046002BF5D185F800C0FFF7ACFE59
S315080082D03468224800230193E3680193A368019355
S315080082E001224FF40051019BFDF73EFC032731683C
S315080082F04FF4FA7300E003B38C68013B14F00204F0
S315080083009BB2F8D1164B154801221A704FF400514A
S315080083102246FDF729FC0C482246802103B0BDE819
S31508008320F040FDF721BC0028D3D02A70D1E70D49CB
S315080083302046FFF759F92A78B5E72F70FFF774FE3C
S31508008340D5E7034D2C70A3E7000402400000024065
S3150800835089060020F40500208C030020000802404E
S315080083606E060020300600202DE9F8434578012DD9
S315080083700446884660D9AF1EFBB2C3EBC7736E1EB0
S31508008380681C1844F2B22B4404EB4301520004EB78
S31508008390400001F0EFFE94F820302278A4F804801B
S315080083A09A4256D8002384F820300023A11C8C4614
S315080083B01A46184604EB420E3CF8028FBEF804E053
S315080083C0F04528BF9E4603F1010328BF0246D8B2EE
S315080083D038BF96468542EDD800238C461A4618467D
S315080083E004EB42083CF8029FB8F80480C14598BFE0
S315080083F0984603F1010398BF0246D8B288BF904653
S315080084008542EDD8231DF6B203EB4606002331F864
S31508008410022FB1421344FAD104EB4E0E04EB48087E
S31508008420BEF80420B8F804100A449B1A0020B3FBCF
S31508008430F7F76780BDE8F88390F820300278A180C6
S315080084409A4206D8002380F8203045B1AF1E6E1E2A
S31508008450ABE7013384F820300120BDE8F883A8464D
S31508008460AE462B466FF00107D6E700BF884203D910
S31508008470904228BF104670470846704759B10139DF
S31508008480431E50FA81F1002013F8012F10448B4245
S31508008490C0B2F9D170470846704700BF78B182B0BC
S315080084A0421E04210191019B2BB1019B013B0193C3
S315080084B0019B002BF9D1013AF4D202B070477047FC
S315080084C078B182B0421E84210191019B2BB1019B98
S315080084D0013B0193019B002BF9D1013AF4D202B07A
S315080084E070477047EFF3058383B9EFF310836BB9D1
S315080084F0084B1868022803D028B901221A60704769
S31508008500EFF3118313B94FF0FF3070476FF0050092
S31508008510704700BFE8080020EFF30583C3B910B51C
S31508008520EFF310848CB90C4B1A68022A07D0012A7B
S3150800853008D102221A6000F0FFFD204610BDEFF3B5
S31508008540118313B94FF0FF3010BD6FF0050010BD51
S315080085506FF00500704700BFE8080020F0B587B047
S3150800856000240594EFF30585002D3BD1EFF3108326
S31508008570002B3ED1294B1B68022B36D0002838D059
S3150800858000238DF8133002B31468002C39D0936990
S31508008590002B31D05D1E372D24D85568ED0721D420
S315080085A055695DBB4FF0800C96686EB3D7685B2F34
S315080085B01FD91269EAB1E5B1CDE9012600936246F1
S315080085C00B46214600F04EFD0DE0802218230DF1E2
S315080085D0130400930B46214605AC019400F07AFD7E
S315080085E0012806D0002007B0F0BDEFF31183002B59
S315080085F0C4D0059807B0F0BD1823CEE74FEA950C0E
S31508008600D2E70DF11304C2E7D568002DF1D112693E
S31508008610002AEED11FFA8CF2DBE700BFE80800203B
S3150800862008B5EFF3058363B9EFF310834BB9084B2D
S315080086301B68022B01D038B908BDEFF31183002B54
S31508008640F9D06FF0050008BD00F012FF002008BD44
S31508008650E8080020044B036010B48023034C0C6028
S315080086605DF8044B136070478C0800208C060020C8
S31508008670054B036010B44FF48073044C0C605DF82E
S31508008680044B1360704700BFEC0C0020EC08002078
S3150800869000F108034FF0FF310022C0E90131C0E9BB
S315080086A003330260704700BF00230361704700BFB1
S315080086B043689A688A60026810B49C684B60013205
S315080086C0616099605DF8044B08610260704700BFFD
S315080086D030B40D686B1C10D000F108031C465B68AB
S315080086E01A68AA42FAD902684B60013299608C600E
S315080086F06160086130BC0260704704696368F2E72C
S31508008700036910B4D0E901125C688A60844251603A
S3150800871008BF5A601A685DF8044B0021013A0161E6
S315080087201A601868704700BF70B50446006CA66BDF
S3150800873020B925684DB30136A66370BD15460246B5
S315080087407DB9A06801F008FDA368226C134462682D
S31508008750A360934224BF2368A36001362846A66314
S3150800876070BDE06801F0F8FC226CE36851429B1A80
S315080087702268E360934202D263680B44E360022DE9
S3150800878008D001360020A66370BD606800F0CEFFF1
S315080087906560D0E7012E38BF01260020CCE700BF70
S315080087A070B5054601F06EFA95F845305CB2002CB6
S315080087B014DD05F1240603E0631EDAB25CB26AB181
S315080087C06B6A304653B100F0FFFE0028F4D000F083
S315080087D097FF631EDAB25CB2002AF1D1FF2385F84F
S315080087E0453001F071FA01F04DFA95F844305CB263
S315080087F0002C14DD05F1100603E0631EDAB25CB244
S315080088006AB12B69304653B100F0DEFE0028F4D079
S3150800881000F076FF631EDAB25CB2002AF1D1FF23BC
S3150800882085F84430BDE8704001F04EBA38B5E0B17D
S3150800883004460D4601F026FAD4E90F23216803FB06
S3150800884002F2D31A0A4462600022A2630B44FF2292
S3150800885084F84420C4E9021384F8452075B92369CD
S31508008860C3B901F031FA012038BD4FF0500383F344
S315080088701188BFF36F8FBFF34F8FFEE704F1100027
S31508008880FFF706FF04F12400FFF702FF01F01CFAC8
S31508008890012038BD04F1100000F096FE0028E0D053
S315080088A04FF0E0234FF08052C3F8042DBFF34F8FEB
S315080088B0BFF36F8FD5E700BF30B585B09DF8204070
S315080088C040B94FF0500383F31188BFF36F8FBFF39E
S315080088D04F8FFEE77BB102B3B1B150250395039DD7
S315080088E0502D25D04FF0500383F31188BFF36F8FB7
S315080088F0BFF34F8FFEE74FF0500383F31188BFF3A2
S315080089006F8FBFF34F8FFEE74FF0500383F3118845
S31508008910BFF36F8FBFF34F8FFEE7D9B9502203928B
S31508008920039A502ADED1012283F846201A4603E02C
S315080089304FF0010C83F846C0C3E90F011A60012104
S3150800894018460193FFF772FF019B184683F84C40BF
S3150800895005B030BD4FF0500383F31188BFF36F8F16
S31508008960BFF34F8FFEE700BF2DE9F04385B00192B4
S31508008970002875D088461E460446002964D0022E73
S315080089800BD1E36B012B08D04FF0500383F311880A
S31508008990BFF36F8FBFF34F8FFEE700F0B7FE0546B4
S315080089A0002866D000254FF0000907E001F08CF991
S315080089B02046FFF7F5FE00F04BFD012501F062F9B0
S315080089C0A26BE36B9A4264D3022E62D0019F002FFA
S315080089D077D0002D59D001F077F900F0F3FB01F0BC
S315080089E051F994F84430FF2B08BF84F8449094F862
S315080089F04530FF2B08BF84F8459001F065F901A9B9
S31508008A0002A800F035FE00285FD101F03BF9A26B01
S31508008A10E36B9A42CAD101F057F9019904F11000A3
S31508008A2000F09AFD2046FFF7BBFE00F011FD002876
S31508008A30C3D14FF0E0234FF08052C3F8042DBFF3A3
S31508008A404F8FBFF36F8FB8E7036C002B97D04FF0AB
S31508008A50500383F31188BFF36F8FBFF34F8FFEE781
S31508008A604FF0500383F31188BFF36F8FBFF34F8F17
S31508008A70FEE7019B002B96D04FF0500383F3118835
S31508008A80BFF36F8FBFF34F8FFEE702A800F0E4FD38
S31508008A90A1E7324641462046FFF746FE636ADBB940
S31508008AA048B14FF0E0234FF08052C3F8042DBFF3CE
S31508008AB04F8FBFF36F8F01F007F9012005B0BDE8AE
S31508008AC0F08301F001F93846F8E72046FFF768FE1B
S31508008AD000F0BEFC0020F1E704F1240000F074FD6C
S31508008AE00028E8D0DDE700BF00284AD02DE9F0418C
S31508008AF00E4617461D46044621B3022D0BD1E36BDD
S31508008B00012B08D04FF0500383F31188BFF36F8F02
S31508008B10BFF34F8FFEE701F0D1F9EFF311884FF05D
S31508008B20500383F31188BFF36F8FBFF34F8FA26B88
S31508008B30E36B9A4212D3022D10D0002088F31188D5
S31508008B40BDE8F081036C002BD7D04FF0500383F3B8
S31508008B501188BFF36F8FBFF34F8FFEE72A4694F84D
S31508008B60455031466DB22046FFF7DEFD6B1C11D02D
S31508008B706B1C5BB284F84530012088F31188BDE888
S31508008B80F0814FF0500383F31188BFF36F8FBFF363
S31508008B904F8FFEE7636A002BEED004F1240000F045
S31508008BA013FD0028E8D0002FE6D001203860C5E77D
S31508008BB02DE9F04385B00192002800F0A0800D460B
S31508008BC00446002947D000F0A1FD00284FD001F047
S31508008BD059F8A66B002E67D1019B002B35D002A849
S31508008BE000F03AFD374604F124084FF0E02901F079
S31508008BF06BF800F0E7FA01F045F894F84430FF2BDB
S31508008C0008BF84F8447094F84530FF2B08BF84F8F1
S31508008C10457001F059F801A902A800F029FD0028BD
S31508008C2031D101F02FF8A36B002B52D001F04CF88C
S31508008C302046FFF7B5FD00F00BFC01F023F8A66B04
S31508008C40002E31D1019B002BD1D101F03DF8002037
S31508008C5005B0BDE8F083036C002BB4D04FF0500389
S31508008C6083F31188BFF36F8FBFF34F8FFEE7019B26
S31508008C70002BACD04FF0500383F31188BFF36F8FEE
S31508008C80BFF34F8FFEE72046FFF78AFD00F0E0FBB3
S31508008C9000F0F8FFA36B002BD7D001F015F800F011
S31508008CA0F1FFA66B002ECDD0226C52B1E168636845
S31508008CB011449942E16024BF2168E160284601F029
S31508008CC04BFA013EA663236913BB00F0FDFF0120A2
S31508008CD0BEE700F0F9FF0199404600F03DFC20464A
S31508008CE0FFF75EFD00F0B4FB0028D8D14FF08053A3
S31508008CF0C9F8043DBFF34F8FBFF36F8FCFE74FF02F
S31508008D00500383F31188BFF36F8FBFF34F8FFEE7CE
S31508008D1004F1100000F058FC0028D6D04FF0E023EC
S31508008D204FF08052C3F8042DBFF34F8FBFF36F8FF8
S31508008D30CBE700BF10B4094C002354F833202AB1FE
S31508008D400133082BF9D15DF8044B704704EBC302D5
S31508008D5044F8331050605DF8044B7047480D002006
S31508008D6070B504460E46154600F08CFF94F844305C
S31508008D70FF2B04BF002384F8443094F84530FF2BBA
S31508008D8004BF002384F8453000F09EFFA36B23B18F
S31508008D902046BDE87040FFF703BD04F124002A46CB
S31508008DA0314600F0F3FB2046BDE87040FFF7F8BCFB
S31508008DB02DE9F843054600F065FF344A344E13683A
S31508008DC0013313603368002B32D0324C23683BB32F
S31508008DD0E86A314F314A32491368013313606B64CC
S31508008DE00B68834238BF086000EB800007EB800001
S31508008DF0291DFFF75DFC00F067FF236873B1326831
S31508008E00EB6AD26A9A4209D24FF0E0234FF08052B9
S31508008E10C3F8042DBFF34F8FBFF36F8FBDE8F883F8
S31508008E203368E86ADB6A1C4F834298BF3560D1E72E
S31508008E3035601368012B03D0E86A174F154CC9E74C
S31508008E40154F3C4607F58C6820461434FFF720FC7E
S31508008E50A045F9D1DFF86090DFF860800D4C4846F0
S31508008E60FFF716FC4046FFF713FC0E48FFF710FC09
S31508008E700D48FFF70DFC0D48FFF70AFC0C4BE86A96
S31508008E80C3F800900B4BC3F80080A3E7F411002049
S31508008E90880D002050120020940D00200412002096
S31508008EA0081200203C1200206812002054120020EC
S31508008EB08C0D0020900D00200C120020201200209E
S31508008EC0F8B5164B164E1C6833680546181D0F462E
S31508008ED0FFF716FC6B1C17D0336864195C6007D360
S31508008EE0104B18683168BDE8F8400431FFF7F0BB4D
S31508008EF00D4B186831680431FFF7EAFB0B4B1A680B
S31508008F00A24288BF1C60F8BD002FE5D0316808482A
S31508008F10BDE8F8400431FFF7CBBB00BF7C12002048
S31508008F20880D0020900D00208C0D002034120020A2
S31508008F30541200202DE9F0470A9DDDF824804FEAF7
S31508008F4082090C464A46A5210646286B1F4601F0AB
S31508008F502BF92B6BA9F10409994429F0070904F1A7
S31508008F60FF3C04F10F0105F1330E1CF8014F0EF812
S31508008F70014F0CB18C45F8D1089C372C28BF3724F3
S31508008F804FF0000AEC62EC64281D85F843A0C5F88A
S31508008F9050A0FFF789FBC4F1380405F11800FFF764
S31508008FA083FBC5F854A0AC6185F858A02D616D62A5
S31508008FB03A463146484600F03DFE2860B8F1000FB3
S31508008FC001D0C8F80050BDE8F08700BF80B5214C35
S31508008FD0214E224D224F4FF0E0294FF0805823684A
S31508008FE053B300F04FFEF368D3F80CA00AF104005F
S31508008FF0FFF786FB2B68013B2B602368013B236048
S3150800900000F062FE9AF8593063B1012B1ED0022B8C
S31508009010E5D04FF0500383F31188BFF36F8FBFF38A
S315080090204F8FFEE7DAF8300001F038F8504601F0C5
S3150800903035F82368002BD4D13B68012BCFD9C9F862
S31508009040048DBFF34F8FBFF36F8FC8E7504601F00B
S3150800905025F8C4E7F811002068120020F411002052
S31508009060940D002030B587B00B9CC4B10C9D6DB132
S315080090705C250595059D5C2D1AD04FF0500383F3AA
S315080090801188BFF36F8FBFF34F8FFEE74FF0500382
S3150800909083F31188BFF36F8FBFF34F8FFEE74FF04F
S315080090A0500383F31188BFF36F8FBFF34F8FFEE72B
S315080090B00C9D2C63022485F8594004ACCDE9014582
S315080090C00A9C0094FFF736FF0C98FFF771FE049888
S315080090D007B030BD2DE9F043074685B09000154628
S315080090E08846994600F04AFFD8B104465C2000F04D
S315080090F045FF0646D0B10463002486F859400D9C06
S3150800910001940C9C02964B462A46414638460094E2
S31508009110FFF710FF3046FFF74BFE012005B0BDE80C
S31508009120F0834FF0FF3005B0BDE8F083204600F02D
S31508009130B5FF4FF0FF30F1E730B589B0002407AA34
S3150800914006A905A8CDE90544FFF784FADDE9050374
S31508009150079A17490094CDE9013016482346FFF7C8
S3150800916081FFC0B100F05EFB012816D14FF0500315
S3150800917083F31188BFF36F8FBFF34F8F0E490F4AE2
S315080091800F4B4FF0FF350D6010601C6009B0BDE84D
S31508009190304000F009BE09B030BD0130FBD14FF0B8
S315080091A0500383F31188BFF36F8FBFF34F8FFEE72A
S315080091B028A20008CD8F0008341200205012002083
S315080091C07C120020024A136801331360704700BFFF
S315080091D000120020014B1868704700BF7C1200205F
S315080091E02DE9F04F4C4B1B6883B0002B46D14B4BF7
S315080091F01E6801361E60002E4ED0DFF838B1DBF847
S315080092000030B34255D8464FDFF82C913B68DFF85B
S315080092102CA11D68002D70D0DFF82481002522E0DE
S315080092200191FFF76DFAA36A019904F1180013B1C9
S31508009230FFF766FA0199E06AD8F80030984288BFC5
S31508009240C8F8000000EB800009EB8000FFF730FA51
S31508009250DAF80030E26ADB6A9A4228BF01253B68E1
S315080092601B68002B49D03B68DB68DC686368211DF6
S315080092709E420846D4D2CBF800301FE0294A13682C
S31508009280013300251360284B1B68002B0CBF2846AA
S31508009290012003B0BDE8F08F214B1A681268CAB1E5
S315080092A04FF0500383F31188BFF36F8FBFF34F8FCF
S315080092B0FEE7DFF88490DFF884A00025DAF80030AE
S315080092C0DB6A03EB83039B0059F80330022B28BFA4
S315080092D00125D8E7154A18681168196014491060FD
S315080092E00A6801320A601A6812685AB9DFF844B087
S315080092F04FF0FF33CBF8003081E74FF0FF33CBF860
S315080093000030DBE71B68DFF82CB0DB68DB685B68DE
S31508009310CBF8003073E700BF001200207C12002053
S315080093208C0D0020FC11002080120020900D0020DA
S315080093303812002034120020940D0020880D0020D9
S31508009340081200202DE9F04F83B000F09BFC364B45
S315080093501A68013A1A601B68002B55D1334B1B68F3
S31508009360002B51D0324D2B68002B5AD0314EDFF8E6
S31508009370D880314FDFF8D4904FF0010AEB68DC68EB
S3150800938004F1040B04F11800FFF7BAF95846FFF781
S31508009390B7F9E36A326803EB83009342594608EB50
S315080093A0800088BF3360FFF783F93B68E26ADB6AAF
S315080093B09A4228BFC9F800A02B68002BDED11F4BA4
S315080093C01A68126842B31A681D4BD268D268526886
S315080093D01A601C4E346844B10125FFF701FF08B135
S315080093E0C9F80050013CF8D13460D9F800305BB1B7
S315080093F04FF0E0234FF08052C3F8042DBFF34F8F90
S31508009400BFF36F8F012000E00020019000F05CFCA4
S31508009410019803B0BDE8F08F094B4FF0FF321A6090
S31508009420D7E7DFF82890D4E700120020F4110020CF
S315080094303C12002008120020880D00208C0D002008
S3150800944034120020FC110020940D00208012002008
S31508009450064B1B6843B94FF0500383F31188BFF3DB
S315080094606F8FBFF34F8FFEE7FFF76CBF0012002028
S3150800947010B550B94FF0E0234FF08052C3F8042DD1
S31508009480BFF34F8FBFF36F8F10BD104C216841B1EA
S315080094904FF0500383F31188BFF36F8FBFF34F8FDD
S315080094A0FEE7236801332360FFF70AFD236843B903
S315080094B04FF0500383F31188BFF36F8FBFF34F8FBD
S315080094C0FEE7FFF73FFF0028D4D010BD00120020AA
S315080094D01C4B1B681BB11C4B01221A6070471A4AA9
S315080094E01A4910B41A4C1360236803EB83029200DE
S315080094F098008A5842B9DBB1013B03EB8302980016
