S017000032302D31302D332D322D302D302D312E7372656346
S3150800400000000120FD4D0008714D0008774D00089D
S315080040107D4D0008834D0008894D0008000000000A
S3150800402000000000000000000000000011910008D8
S315080040308F4D00080000000061930008C99300082E
S315080040404D4E00084D4E00084D4E00084D4E0008D6
S315080040504D4E00084D4E00084D4E00084D4E0008C6
S315080040604D4E00084D4E00084D4E00084D4E0008B6
S315080040704D4E00084D4E00084D4E00084D4E0008A6
S315080040804D4E00084D4E00084D4E00080000000039
S315080040900000000000000000000000004D4E00086F
S315080040A04D4E00084D4E00089D4D00084D4E000827
S315080040B04D4E00084D4E00084D4E00084D4E000866
S315080040C04D4E00084D4E00084D4E00084D4E000856
S315080040D04D4E00084D4E00084D4E000800000000E9
S315080040E04D4E00084D4E00084D4E000800000000D9
S315080040F00000000000000000000000004D4E00080F
S31508004100000000004D4E00084D4E00084D4E0008B8
S315080041100000000000000000000000000000000091
S31508004120B14D00084D4E00084D4E0008C54D00081B
S315080041304D4E0008000000000000000000000000CE
S315080041400000000000000000000000004D4E0008BE
S315080041504D4E00084D4E00084D4E00084D4E0008C5
S315080041604D4E00084D4E00080000000000000000FB
S315080041700000000000000000000000000000000031
S31508004180000000004D4E000800000000000000007E
S309080041904D4E00087A
S315080041A010B5054C237833B9044B13B10448AFF363
S315080041B000800123237010BD0002002000000000CB
S315080041C01C9A000808B5034B1BB103490348AFF313
S315080041D0008008BD00000000040200201C9A0008A8
S315080041E053B94AB9002908BF00281CBF4FF0FF3150
S315080041F04FF0FF3000F074B9ADF1080C6DE904CE4C
S3150800420000F006F8DDF804E0DDE9022304B07047A3
S315080042102DE9F047089D04468E46002B4DD18A426B
S31508004220944669D9B2FA82F252B101FA02F3C2F19E
S31508004230200120FA01F10CFA02FC41EA030E94402F
S315080042404FEA1C48210CBEFBF8F61FFA8CF708FB50
S3150800425016E341EA034306FB07F199420AD91CEB28
S31508004260030306F1FF3080F01F81994240F21C815A
S31508004270023E63445B1AA4B2B3FBF8F008FB1033A2
S3150800428044EA034400FB07F7A7420AD91CEB0404D7
S3150800429000F1FF3380F00A81A74240F207816444A7
S315080042A0023840EA0640E41B00261DB1D44000232C
S315080042B0C5E900433146BDE8F0878B4209D9002D90
S315080042C000F0EF800026C5E9000130463146BDE81A
S315080042D0F087B3FA83F6002E4AD18B4202D3824284
S315080042E000F2F980841A61EB030301209E46002D33
S315080042F0E0D0C5E9004EDDE702B9FFDEB2FA82F288
S31508004300002A40F09280A1EB0C014FEA1C471FFAE5
S315080043108CFE0126200CB1FBF7F307FB131140EACC
S3150800432001410EFB03F0884208D91CEB010103F199
S31508004330FF3802D2884200F2CB804346091AA4B25B
S31508004340B1FBF7F007FB101144EA01440EFB00FE2F
S31508004350A64508D91CEB040400F1FF3102D2A64594
S3150800436000F2BB800846A4EB0E0440EA03409CE733
S31508004370C6F12007B34022FA07FC4CEA030C20FAE0
S3150800438007F401FA06F31C43F9404FEA1C4900FA00
S3150800439006F3B1FBF9F8200C1FFA8CFE09FB18117D
S315080043A040EA014108FB0EF0884202FA06F20BD9F0
S315080043B01CEB010108F1FF3A80F08880884240F240
S315080043C08580A8F102086144091AA4B2B1FBF9F084
S315080043D009FB101144EA014100FB0EFE8E4508D97F
S315080043E01CEB010100F1FF346CD28E456AD9023804
S315080043F0614440EA0840A0FB0294A1EB0E01A142E9
S31508004400C846A64656D353D05DB1B3EB080261EB56
S315080044100E0101FA07F722FA06F3F1401F43C5E930
S31508004420007100263146BDE8F087C2F12003D84066
S315080044300CFA02FC21FA03F3914001434FEA1C47A8
S315080044401FFA8CFEB3FBF7F007FB10360B0C43EA9A
S31508004450064300FB0EF69E4204FA02F408D91CEB4A
S31508004460030300F1FF382FD29E422DD90238634448
S315080044709B1B89B2B3FBF7F607FB163341EA0341E8
S3150800448006FB0EF38B4208D91CEB010106F1FF3837
S3150800449016D28B4214D9023E6144C91A46EA00462E
S315080044A038E72E46284605E70646E3E61846F8E6C0
S315080044B04B45A9D2B9EB020864EB0C0E0138A3E709
S315080044C04646EAE7204694E74046D1E7D0467BE7EA
S315080044D0023B614432E7304609E76444023842E762
S315080044E0704700BF80B584B000AF3B4600221A6013
S315080044F05A609A60DA60214B214A1A601F4B4FF4C2
S3150800450040325A601D4B00229A601C4B00221A61E9
S315080045101A4B00221A76194B002283F82020174BD3
S315080045200022DA62154B174A9A62144B0022DA60A7
S31508004530124B0122DA61114B002283F830200F4B0F
S3150800454001225A610D4800F0C5FC0346002B01D034
S3150800455000F0A6FA00233B6001237B600023BB60C2
S315080045603B461946054800F0BBFD0346002B01D023
S3150800457000F096FA00BF1037BD4680BD1C02002029
S31508004580002001400100000F80B58CB000AF7860B4
S3150800459007F11C0300221A605A609A60DA601A61F1
S315080045A07B681B68314A93425BD10023BB61304B61
S315080045B05B6C2F4A43F4807353642D4B5B6C03F496
S315080045C08073BB61BB6900237B61294B1B6B284A3F
S315080045D043F004031363264B1B6B03F004037B6150
S315080045E07B6900233B61224B1B6B214A43F0010385
S315080045F013631F4B1B6B03F001033B613B690023ED
S31508004600FB601B4B1B6B1A4A43F002031363184BE0
S315080046101B6B03F00203FB60FB683323FB61032378
S315080046203B6200237B6207F11C031946114801F01F
S3150800463037FC0F23FB6103233B6200237B6207F1F0
S315080046401C0319460C4801F02BFC0323FB610323CA
S315080046503B6200237B6207F11C031946074801F0F9
S315080046601FFC00BF3037BD4680BD00BF002001409B
S3150800467000380240000802400000024000040240E0
S3150800468080B582B000AF00237B60104B1B6B0F4ACE
S3150800469043F4800313630D4B1B6B03F480037B60A9
S315080046A07B6800220521382000F0F0FF382001F051
S315080046B009F8002205213B2000F0E8FF3B2001F025
S315080046C001F800BF0837BD4680BD00BF003802406C
S315080046D080B485B000AFF860B9607A60FB68074AB5
S315080046E01A60BB68064A1A607B6880221A6000BF97
S315080046F01437BD465DF8047B704700BF680200208A
S315080047001C030020B0B588B000AF03F085FA0A4B49
S315080047103C1D1D460FCD0FC495E8070084E8070029
S315080047203B1D0021184603F026FE0346034A136084
S3150800473000BF2037BD46B0BD409A0008640200207D
S3150800474080B582B000AF78600A2003F060FE03F0FF
S31508004750A3FA012003F05BFEF9E7000080B58AB0F2
S3150800476000AF07F1140300221A605A609A60DA60F3
S315080047701A6100233B61384B1B6B374A43F004032D
S315080047801363354B1B6B03F004033B613B69002342
S31508004790FB60314B1B6B304A43F0800313632E4B8F
S315080047A01B6B03F08003FB60FB680023BB602A4B8E
S315080047B01B6B294A43F001031363274B1B6B03F05A
S315080047C00103BB60BB6800237B60234B1B6B224A3B
S315080047D043F002031363204B1B6B03F002037B6059
S315080047E07B6800224FF400511C4801F0F5FC0022BA
S315080047F04FF442511A4801F0EFFC4FF400537B6125
S315080048000123BB610023FB6100233B6207F114030C
S315080048101946124801F044FB4FF442537B610123C9
S31508004820BB610023FB6100233B6207F114031946B1
S315080048300B4801F035FB40237B610023BB61002355
S31508004840FB6107F114031946054801F029FB00BF6F
S315080048502837BD4680BD00BF003802400008024028
S315080048600004024080B500AF124B134A1A60114B80
S31508004870124A5A600F4B00229A600E4B0022DA60E9
S315080048800C4B4FF480421A610A4B00225A61094BBD
S3150800489000229A61074B0022DA61064B00221A624F
S315080048A0044801F0CDFC0346002B01D000F0F8F8CF
S315080048B000BF80BD1C05002000540040A0860100F2
S315080048C080B58AB000AF786007F1140300221A6039
S315080048D05A609A60DA601A617B681B68194A9342C3
S315080048E02CD100233B61184B1B6B174A43F002037C
S315080048F01363154B1B6B03F002033B613B694FF4D3
S3150800490040737B611223BB610023FB6103233B6277
S3150800491004237B6207F1140319460C4801F0C0FA18
S315080049200023FB60084B1B6C074A43F4001313640F
S31508004930054B1B6C03F40013FB60FB6800BF2837AC
S31508004940BD4680BD005400400038024000040240C5
S3150800495080B500AF00F07CFA00F012F8FFF7C2FD50
S31508004960FFF7FCFEFFF78CFE00F0A0F8FFF77AFFD2
S3150800497003F010FAFFF7C6FE03F0F6FCFEE70000A8
S3150800498080B594B000AF07F1200330220021184605
S3150800499004F07AFF07F10C0300221A605A609A6045
S315080049A0DA601A610023BB60294B1B6C284A43F066
S315080049B080531364264B1B6C03F08053BB60BB68A3
S315080049C000237B60234B1B6823F44043214A43F4AE
S315080049D0004313601F4B1B6803F440437B607B68EE
S315080049E009233B624FF480337B6201237B630223F6
S315080049F0BB634FF48003FB6306233B6454237B6449
S31508004A000223BB640423FB6407F12003184601F064
S31508004A105BFD0346002B01D000F042F80F23FB6034
S31508004A2002233B6100237B614FF48053BB61002363
S31508004A30FB6107F10C030221184601F0BDFF03468E
S31508004A40002B01D000F02CF800BF5037BD4680BDC2
S31508004A50003802400070004080B582B000AF786030
S31508004A607B681B68044A934201D103F0F3F900BF3F
S31508004A700837BD4680BD00BF0030014080B582B012
S31508004A8000AF78607B681B68044A934201D100F046
S31508004A9001FA00BF0837BD4680BD00BF0048014087
S31508004AA080B400AF72B600BFFEE7000080B500AF65
S31508004AB0154B164A1A60144B00225A60124B0022F4
S31508004AC09A60114B0022DA600F4B00221A610E4BD6
S31508004AD000225A610C4B00229A610B4B00221A6283
S31508004AE0094B00225A62084B00229A62064B0A2298
S31508004AF0DA62054802F072F90346002B01D0FFF787
S31508004B00CFFF00BF80BD00BF700500200030014008
S31508004B1080B58AB000AF786007F1140300221A60E6
S31508004B205A609A60DA601A617B681B68474A934242
S31508004B3040F0888000233B61454B5B6C444A43F454
S31508004B4080535364424B5B6C03F480533B613B696F
S31508004B500023FB603E4B1B6B3D4A43F00103136386
S31508004B603B4B1B6B03F00103FB60FB68F0237B6187
S31508004B700223BB610023FB6103233B6205237B629F
S31508004B8007F114031946334801F08AF9324B334AC0
S31508004B901A60314B4FF0C0625A602F4B00229A6060
S31508004BA02D4B0022DA602C4B4FF480621A612A4B97
S31508004BB000225A61284B00229A61274B0022DA61AB
S31508004BC0254B00221A62244B00225A62224800F022
S31508004BD087FD0346002B01D0FFF762FF7B681E4A5C
S31508004BE0DA641D4A7B6893631D4B1E4A1A601C4B88
S31508004BF04FF0C0625A601A4B40229A60184B002246
S31508004C00DA60174B4FF480621A61154B00225A611D
S31508004C10134B00229A61124B0022DA61104B0022D4
S31508004C201A620F4B00225A620D4800F059FD0346DE
S31508004C30002B01D0FFF734FF7B68094A9A64084ABB
S31508004C407B68936300BF2837BD4680BD00300140AE
S31508004C500038024000000240C805002010640240E7
S31508004C60280600205864024080B582B000AF0023B1
S31508004C707B60124B5B6C114A43F4804353640F4BC1
S31508004C805B6C03F480437B607B6800233B600B4BC3
S31508004C901B6C0A4A43F080531364084B1B6C03F0E1
S31508004CA080533B603B6800220F216FF0010000F043
S31508004CB0EDFC00BF0837BD4680BD00BF0038024086
S31508004CC080B58CB000AF78600023FB620023BB621E
S31508004CD0002279681A2000F0D9FC1A2000F0F2FCAC
S31508004CE00023FB601E4B5B6C1D4A43F48023536410
S31508004CF01B4B5B6C03F48023FB60FB6807F1100217
S31508004D0007F114031146184602F036F802F020F8A7
S31508004D10F862FB6A134AA2FB03239B0C013BBB62A6
S31508004D20114B124A1A60104B40F2E732DA600E4A0B
S31508004D30BB6A53600C4B00221A610B4B00229A6027
S31508004D40094802F069FC0346002B04D1064802F024
S31508004D50BDFC034600E0012318463037BD4680BD3A
S31508004D600038024083DE1B438806002000480140C5
S31508004D7080B400AFFEE780B400AFFEE780B400AFB2
S31508004D80FEE780B400AFFEE780B400AFFEE780B46C
S31508004D9000AF00BFBD465DF8047B704780B500AF25
S31508004DA0024802F0F5FC00BF80BD00BF880600205F
S31508004DB080B500AF024800F009FE00BF80BD00BF05
S31508004DC0C805002080B500AF024800F0FFFD00BF0F
S31508004DD080BD00BF2806002080B400AF064BD3F87C
S31508004DE08830054A43F47003C2F8883000BFBD46D0
S31508004DF05DF8047B704700BF00ED00E0DFF834D0B3
S31508004E000D480E490E4A002302E0D458C450043314
S31508004E10C4188C42F9D30B4A0B4C002301E01360EB
S31508004E200432A242FBD3FFF7D7FF04F007FDFFF7D2
S31508004E308FFD7047000001200000002000020020BE
S31508004E40289B000800020020FC440020FEE7000022
S31508004E5080B500AF0E4B1B680D4A43F40073136010
S31508004E600B4B1B680A4A43F480631360084B1B68A4
S31508004E70074A43F480731360032000F0FCFB0F20FD
S31508004E80FFF71EFFFFF7F0FE0023184680BD00BFA0
S31508004E90003C024080B400AF064B1B781A46064B0E
S31508004EA01B681344044A136000BFBD465DF8047BC3
S31508004EB0704700BF08000020D006002080B400AF6D
S31508004EC0034B1B681846BD465DF8047B704700BF58
S31508004ED0D006002080B584B000AF78600023FB734D
S31508004EE07B68002B01D1012333E07B681B6C002B08
S31508004EF009D17868FFF748FB7B6800225A647B680B
S31508004F00002283F83C207B681B6C03F01003002BFF
S31508004F1018D17B681B6C23F4885323F0020343F0F3
S31508004F2002027B681A64786800F0FCF97B68002244
S31508004F305A647B681B6C23F0030343F001027B6809
S31508004F401A6401E00123FB737B68002283F83C2086
S31508004F50FB7B18461037BD4680BD000080B485B07F
S31508004F6000AF78600023BB607B6893F83C30012B68
S31508004F7001D1022397E07B68012283F83C207B68F5
S31508004F801B689B6803F00103012B18D07B681B681C
S31508004F909A687B681B6842F001029A60454B1B6859
S31508004FA0454AA2FB03239A0C13465B001344BB60D5
S31508004FB002E0BB68013BBB60BB68002BF9D17B688C
S31508004FC01B689B6803F00103012B5FD17B681B6C90
S31508004FD023F4E06323F0010343F480727B681A64C8
S31508004FE07B681B685B6803F48063002B07D07B68CB
S31508004FF01B6C23F4405343F480527B681A647B6825
S315080050001B6C03F48053B3F5805F06D17B685B6C39
S3150800501023F006027B685A6402E07B6800225A6421
S315080050207B68002283F83C20244BFB607B681B6866
S315080050306FF022021A60FB685B6803F01F03002BFF
S315080050400FD17B681B689B6803F04053002B29D15E
S315080050507B681B689A687B681B6842F080429A6086
S3150800506020E07B681B68164A93421BD17B681B6845
S315080050709B6803F04053002B14D17B681B689A6821
S315080050807B681B6842F080429A600BE07B681B6C69
S3150800509043F010027B681A647B685B6C43F001027C
S315080050A07B685A64002318461437BD465DF8047BAE
S315080050B0704700BF0000002083DE1B430023014029
S315080050C00020014080B483B000AF78607B681B681D
S315080050D0DB6C18460C37BD465DF8047B704700004C
S315080050E080B485B000AF786039600023BB607B6808
S315080050F093F83C30012B01D1022305E17B6801229C
S3150800510083F83C203B681B68092B25D97B681B68FC
S31508005110D9683B681B689BB21A4613465B00134462
S315080051201E3B072202FA03F3DA437B681B680A4030
S31508005130DA607B681B68D9683B689A683B681B68B5
S315080051409BB2184603465B0003441E3B9A407B68A5
S315080051501B680A43DA6022E07B681B6819693B68AA
S315080051601B689BB21A4613465B001344072202FAD1
S3150800517003F3DA437B681B680A401A617B681B687D
S3150800518019693B689A683B681B689BB218460346D0
S315080051905B0003449A407B681B680A431A613B68B4
S315080051A05B68062B24D87B681B68596B3B685A6872
S315080051B013469B001344053B1F2202FA03F3DA4306
S315080051C07B681B680A405A637B681B68596B3B6897
S315080051D01B689BB218463B685A6813469B001344E3
S315080051E0053B00FA03F27B681B680A435A634CE0E6
S315080051F03B685B680C2B24D87B681B68196B3B687B
S315080052005A6813469B001344233B1F2202FA03F3F2
S31508005210DA437B681B680A401A637B681B68196B4C
S315080052203B681B689BB218463B685A6813469B0046
S315080052301344233B00FA03F27B681B680A431A638C
S3150800524023E07B681B68D96A3B685A6813469B004B
S315080052501344413B1F2202FA03F3DA437B681B68B7
S315080052600A40DA627B681B68D96A3B681B689BB28E
S3150800527018463B685A6813469B001344413B00FA9C
S3150800528003F27B681B680A43DA62224BFB607B6881
S315080052901B68214A934209D13B681B68122B05D12A
S315080052A0FB685B6843F48002FB685A607B681B688E
S315080052B0194A934223D13B681B68102B03D03B68DD
S315080052C01B68112B1BD1FB685B6843F40002FB6863
S315080052D05A603B681B68102B11D1104B1B68104A8B
S315080052E0A2FB03239A0C13469B0013445B00BB6086
S315080052F002E0BB68013BBB60BB68002BF9D17B6849
S31508005300002283F83C20002318461437BD465DF872
S31508005310047B704700230140002001400000002064
S3150800532083DE1B4380B485B000AF7860794BFB60A1
S31508005330FB685B6823F44032FB685A60FB685A686E
S315080053407B685B681A43FB685A607B681B685A6807
S315080053507B681B6822F480725A607B681B685968F0
S315080053607B681B691A027B681B680A435A607B685C
S315080053701B685A687B681B6822F040725A607B6813
S315080053801B6859687B689A687B681B680A435A6079
S315080053907B681B689A687B681B6822F400629A60BF
S315080053A07B681B6899687B68DA687B681B680A43B0
S315080053B09A607B689B6A584A934222D07B681B682E
S315080053C09A687B681B6822F070629A607B681B6823
S315080053D099687B689A6A7B681B680A439A607B6847
S315080053E01B689A687B681B6822F040529A607B6843
S315080053F01B6899687B68DA6A7B681B680A439A6047
S315080054000FE07B681B689A687B681B6822F07062ED
S315080054109A607B681B689A687B681B6822F0405212
S315080054209A607B681B689A687B681B6822F0020290
S315080054309A607B681B6899687B681B7E5A007B6844
S315080054401B680A439A607B6893F82030002B1BD0B0
S315080054507B681B685A687B681B6842F400625A605E
S315080054607B681B685A687B681B6822F460425A602E
S315080054707B681B6859687B685B6A013B5A037B68D3
S315080054801B680A435A6007E07B681B685A687B6892
S315080054901B6822F400625A607B681B68DA6A7B68BC
S315080054A01B6822F47002DA627B681B68D96A7B681B
S315080054B0DB69013B1A057B681B680A43DA627B686D
S315080054C01B689A687B681B6822F400729A607B687E
S315080054D01B6899687B6893F830305A027B681B68AA
S315080054E00A439A607B681B689A687B681B6822F483
S315080054F080629A607B681B6899687B685B699A0218
S315080055007B681B680A439A6000BF1437BD465DF87E
S31508005510047B7047002301400100000F80B485B06A
S3150800552000AF78607B6803F00703FB600C4BDB6811
S31508005530BB60BA684FF6FF031340BB60FB681A02EC
S31508005540BB68134343F0BF6343F40033BB60044AAC
S31508005550BB68D36000BF1437BD465DF8047B70474F
S3150800556000ED00E080B400AF044BDB681B0A03F0D3
S3150800557007031846BD465DF8047B704700ED00E05A
S3150800558080B483B000AF0346FB7197F90730002B50
S315080055900BDBFB7903F01F02074997F907305B0914
S315080055A0012000FA02F241F8232000BF0C37BD465D
S315080055B05DF8047B704700BF00E100E080B483B06B
S315080055C000AF03463960FB7197F90730002B0ADBF9
S315080055D03B68DAB20C4997F907301201D2B20B448C
S315080055E083F800230AE03B68DAB20849FB7903F03E
S315080055F00F03043B1201D2B20B441A7600BF0C37D4
S31508005600BD465DF8047B704700E100E000ED00E070
S3150800561080B489B000AFF860B9607A60FB6803F0BF
S315080056200703FB61FB69C3F10703042B28BF0423A7
S31508005630BB61FB690433062B02D9FB69033B00E017
S3150800564000237B614FF0FF32BB6902FA03F3DA43AA
S31508005650BB681A407B699A404FF0FF317B6901FAB3
S3150800566003F3D9437B680B40134318462437BD46DA
S315080056705DF8047B704780B582B000AF78607868C3
S31508005680FFF74CFF00BF0837BD4680BD80B586B022
S3150800569000AF0346B9607A60FB7300237B61FFF7AE
S315080056A061FF78617A68B9687869FFF7B1FF0246E1
S315080056B097F90F3011461846FFF780FF00BF1837D5
S315080056C0BD4680BD80B582B000AF0346FB7197F931
S315080056D007301846FFF754FF00BF0837BD4680BDA0
S315080056E080B586B000AF786000237B61FFF7E6FBE4
S315080056F038617B68002B01D1012399E07B6802227F
S3150800570083F835207B68002283F834207B681B6881
S315080057101A687B681B6822F001021A600FE0FFF71F
S31508005720CDFB02463B69D31A052B08D97B68202294
S315080057305A657B68032283F83520032378E07B6863
S315080057401B681B6803F00103002BE8D17B681B6804
S315080057501B687B617A69384B13407B617B685A68A2
S315080057607B689B681A437B68DB681A437B681B69FE
S315080057701A437B685B691A437B689B691A437B6893
S31508005780DB691A437B681B6A13437A6913437B6197
S315080057907B685B6A042B07D17B68DA6A7B681B6BBC
S315080057A013437A6913437B617B681B687A691A60BD
S315080057B07B681B685B697B617B6923F007037B61F8
S315080057C07B685B6A7A6913437B617B685B6A042B37
S315080057D017D17B689B6A7A6913437B617B68DB6AAE
S315080057E0002B0ED0786800F0DFFA0346002B08D0AD
S315080057F07B6840225A657B68012283F8352001239D
S3150800580016E07B681B687A695A61786800F096FA30
S315080058100346FB607B68DB6D3F229A40FB689A6013
S315080058207B6800225A657B68012283F835200023AD
S3150800583018461837BD4680BD3F8010F080B586B043
S3150800584000AFF860B9607A603B600023FB75FB68BF
S315080058509B6D3B61FB6893F83430012B01D1022321
S3150800586040E0FB68012283F83420FB6893F8353062
S31508005870DBB2012B2FD1FB68022283F83520FB68A7
S3150800588000225A653B687A68B968F86800F028FA11
S31508005890FB68DB6D3F229A403B699A60FB681B6890
S315080058A01A68FB681B6842F016021A60FB681B6CD4
S315080058B0002B07D0FB681B681A68FB681B6842F058
S315080058C008021A60FB681B681A68FB681B6842F0C6
S315080058D001021A6005E0FB68002283F834200223DF
S315080058E0FB75FB7D18461837BD4680BD80B584B06C
S315080058F000AF78607B689B6DFB60FFF7DFFAB860E6
S315080059007B6893F83530DBB2022B08D07B6880229F
S315080059105A657B68002283F83420012352E07B68AD
S315080059201B681A687B681B6822F016021A607B6877
S315080059301B685A697B681B6822F080025A617B687B
S315080059401B6C002B03D17B689B6C002B07D07B68F4
S315080059501B681A687B681B6822F008021A607B6855
S315080059601B681A687B681B6822F001021A6013E03C
S31508005970FFF7A4FA0246BB68D31A052B0CD97B6835
S3150800598020225A657B68032283F835207B6800222B
S3150800599083F83420032315E07B681B681B6803F033
S315080059A00103002BE4D17B68DB6D3F229A40FB683C
S315080059B09A607B68012283F835207B68002283F889
S315080059C03420002318461037BD4680BD80B586B002
S315080059D000AF78600023BB608E4B1B688E4AA2FB23
S315080059E003239B0A7B617B689B6D3B613B691B6854
S315080059F0FB607B68DB6D08229A40FB681340002B2E
S31508005A001AD07B681B681B6803F00403002B13D0AD
S31508005A107B681B681A687B681B6822F004021A6098
S31508005A207B68DB6D08229A403B699A607B685B6DF0
S31508005A3043F001027B685A657B68DB6D01229A4058
S31508005A40FB681340002B12D07B681B685B6903F068
S31508005A508003002B0BD07B68DB6D01229A403B69E3
S31508005A609A607B685B6D43F002027B685A657B68C7
S31508005A70DB6D04229A40FB681340002B12D07B682A
S31508005A801B681B6803F00203002B0BD07B68DB6DD9
S31508005A9004229A403B699A607B685B6D43F0040276
S31508005AA07B685A657B68DB6D10229A40FB68134059
S31508005AB0002B43D07B681B681B6803F00803002B88
S31508005AC03CD07B68DB6D10229A403B699A607B6804
S31508005AD01B681B6803F48023002B18D07B681B689F
S31508005AE01B6803F40023002B08D17B681B6C002B72
S31508005AF024D07B681B6C786898471FE07B689B6C92
S31508005B00002B1BD07B689B6C7868984716E07B68EF
S31508005B101B681B6803F48073002B07D17B681B681E
S31508005B201A687B681B6822F008021A607B681B6C7F
S31508005B30002B03D07B681B6C786898477B68DB6D05
S31508005B4020229A40FB681340002B00F08F807B6868
S31508005B501B681B6803F01003002B00F087807B6826
S31508005B60DB6D20229A403B699A607B6893F8353052
S31508005B70DBB2052B36D17B681B681A687B681B6805
S31508005B8022F016021A607B681B685A697B681B68D4
S31508005B9022F080025A617B681B6C002B03D17B685C
S31508005BA09B6C002B07D07B681B681A687B681B6890
S31508005BB022F008021A607B68DB6D3F229A403B6937
S31508005BC09A607B68012283F835207B68002283F877
S31508005BD034207B681B6D002B7ED07B681B6D786834
S31508005BE0984779E07B681B681B6803F48023002BC1
S31508005BF01DD07B681B681B6803F40023002B0DD19E
S31508005C007B685B6C002B31D07B685B6C7868984747
S31508005C102CE000BF00000020B5814E1B7B68DB6BC3
S31508005C20002B23D07B68DB6B786898471EE07B687F
S31508005C301B681B6803F48073002B0FD17B681B68F5
S31508005C401A687B681B6822F010021A607B680122BA
S31508005C5083F835207B68002283F834207B68DB6B69
S31508005C60002B03D07B68DB6B786898477B685B6D95
S31508005C70002B32D07B685B6D03F00103002B22D02A
S31508005C807B68052283F835207B681B681A687B6861
S31508005C901B6822F001021A60BB680133BB607A698F
S31508005CA09A4207D37B681B681B6803F00103002B25
S31508005CB0F2D100E000BF7B68012283F835207B68BB
S31508005CC0002283F834207B68DB6C002B05D07B68C8
S31508005CD0DB6C7868984700E000BF1837BD4680BD82
S31508005CE080B485B000AFF860B9607A603B60FB6845
S31508005CF01B681A68FB681B6822F480221A60FB6816
S31508005D001B683A685A60FB689B68402B08D1FB6899
S31508005D101B687A689A60FB681B68BA68DA6007E0ED
S31508005D20FB681B68BA689A60FB681B687A68DA6061
S31508005D3000BF1437BD465DF8047B704780B485B054
S31508005D4000AF78607B681B68DBB2103B144AA2FB85
S31508005D5003231B09FB60134AFB6813441B781A4686
S31508005D607B68DA65FB68032B09D97B681B6823F413
S31508005D707F7323F003031A1D7B689A6507E07B6827
S31508005D801B6823F47F7323F003037A6893657B68A3
S31508005D909B6D18461437BD465DF8047B704700BFF7
S31508005DA0ABAAAAAAB09A000880B485B000AF7860FA
S31508005DB00023FB737B689B6ABB607B689B69002B2F
S31508005DC01FD1BB68032B56D801A252F823F000BF97
S31508005DD0E15D0008F35D0008E15D0008775E0008F4
S31508005DE07B68DB6A03F08073002B46D00123FB73C4
S31508005DF043E07B68DB6AB3F1C07F40D10123FB73C4
S31508005E003DE07B689B69B3F5005F21D1BB68032B36
S31508005E1037D801A252F823F0295E00082F5E000841
S31508005E20295E0008415E00080123FB7330E07B68A9
S31508005E30DB6A03F08073002B25D00123FB7322E075
S31508005E407B68DB6AB3F1C07F1FD10123FB731CE0BB
S31508005E50BB68022B03D9BB68032B03D018E00123C8
S31508005E60FB7315E07B68DB6A03F08073002B0ED0AA
S31508005E700123FB730BE000BF0AE000BF08E000BF88
S31508005E8006E000BF04E000BF02E000BF00E000BF7C
S31508005E90FB7B18461437BD465DF8047B704700BF88
S31508005EA080B489B000AF7860396000237B61002335
S31508005EB03B610023BB610023FB6159E10122FB69B9
S31508005EC002FA03F37B613B681B687A6913403B61FE
S31508005ED03A697B699A4240F048813B685B6803F0FF
S31508005EE00303012B05D03B685B6803F00303022B11
S31508005EF030D17B689B68BB61FB695B00032202FAB1
S31508005F0003F3DB43BA691340BB613B68DA68FB6994
S31508005F105B0002FA03F3BA691343BB617B68BA698B
S31508005F209A607B685B68BB610122FB6902FA03F32E
S31508005F30DB43BA691340BB613B685B681B0903F026
S31508005F400102FB6902FA03F3BA691343BB617B6872
S31508005F50BA695A603B685B6803F00303032B17D0E2
S31508005F607B68DB68BB61FB695B00032202FA03F30B
S31508005F70DB43BA691340BB613B689A68FB695B00FF
S31508005F8002FA03F3BA691343BB617B68BA69DA603C
S31508005F903B685B6803F00303022B23D1FB69DA082D
S31508005FA07B68083253F82230BB61FB6903F00703AC
S31508005FB09B000F2202FA03F3DB43BA691340BB6165
S31508005FC03B681A69FB6903F007039B0002FA03F3AF
S31508005FD0BA691343BB61FB69DA087B680832B96999
S31508005FE043F822107B681B68BB61FB695B000322D0
S31508005FF002FA03F3DB43BA691340BB613B685B688B
S3150800600003F00302FB695B0002FA03F3BA69134360
S31508006010BB617B68BA691A603B685B6803F4403306
S31508006020002B00F0A2800023FB60574B5B6C564A9E
S3150800603043F480435364544B5B6C03F48043FB6026
S31508006040FB68524AFB699B08023352F82330BB614E
S31508006050FB6903F003039B000F2202FA03F3DB43F9
S31508006060BA691340BB617B68494A934219D07B6879
S31508006070484A934213D07B68474A93420DD07B68BF
S31508006080464A934207D07B68454A934201D1042386
S3150800609008E0072306E0032304E0022302E00123C5
S315080060A000E00023FA6902F0030292009340BA69FD
S315080060B01343BB613549FB699B080233BA6941F84A
S315080060C02320384B9B68BB613B69DB43BA691340A5
S315080060D0BB613B685B6803F48013002B03D0BA6985
S315080060E03B691343BB612F4ABB6993602D4BDB6841
S315080060F0BB613B69DB43BA691340BB613B685B68BC
S3150800610003F40013002B03D0BA693B691343BB6140
S31508006110244ABB69D360234B5B68BB613B69DB439D
S31508006120BA691340BB613B685B6803F40033002B14
S3150800613003D0BA693B691343BB611A4ABB6953600A
S31508006140184B1B68BB613B69DB43BA691340BB61EB
S315080061503B685B6803F48033002B03D0BA693B695C
S315080061601343BB610F4ABB691360FB690133FB61CB
S31508006170FB690F2B7FF6A2AE00BF00BF2437BD46D2
S315080061805DF8047B704700BF0038024000380140C4
S31508006190000002400004024000080240000C0240D1
S315080061A000100240003C014080B485B000AF786022
S315080061B00B467B807B681A697B881340002B02D0CC
S315080061C00123FB7301E00023FB73FB7B184614379E
S315080061D0BD465DF8047B704780B483B000AF786035
S315080061E00B467B8013467B707B78002B03D07A881E
S315080061F07B689A6103E07B881A047B689A6100BF12
S315080062000C37BD465DF8047B704780B485B000AF97
S3150800621078600B467B807B685B69FB607A88FB68E5
S3150800622013401A04FB68D9437B880B401A437B68E2
S315080062309A6100BF1437BD465DF8047B70470000BD
S3150800624080B584B000AF78607B68002B01D101234C
S315080062502BE17B6893F83D30DBB2002B06D17B68D7
S31508006260002283F83C207868FEF72AFB7B68242204
S3150800627083F83D207B681B681A687B681B6822F0D8
S3150800628001021A607B681B681A687B681B6842F4FF
S3150800629000421A607B681B681A687B681B6822F4D0
S315080062A000421A6000F040FDF8607B685B68814A2E
S315080062B0934207D8FB68804A934294BF0123002380
S315080062C0DBB206E0FB687D4A934294BF01230023B4
S315080062D0DBB2002B01D00123E7E0FB68784AA2FB7A
S315080062E003239B0CBB607B681B685B6823F03F013C
S315080062F07B681B68BA680A435A607B681B681B6A16
S3150800630023F03F017B685B686A4A934202D8BB6800
S31508006310013309E0BB684FF4967202FB03F3694A3E
S31508006320A2FB03239B0901337A6812680B431362A5
S315080063307B681B68DB6923F44F4222F0FF027B6807
S315080063405B685C498B4219D8FB68591E7B685B6899
S315080063505B00B1FBF3F3591C40F6FC730B40002BB2
S315080063600AD0FB68591E7B685B685B00B1FBF3F3D8
S315080063700133C3F30B0351E004234FE07B689B68AA
S31508006380002B11D1FB68581E7B6859680B465B00C9
S315080063900B44B0FBF3F30133C3F30B03002B0CBF21
S315080063A001230023DBB212E0FB68581E7B6859689C
S315080063B00B469B000B4499000B44B0FBF3F30133E7
S315080063C0C3F30B03002B0CBF01230023DBB2002B06
S315080063D001D0012322E07B689B68002B0ED1FB6865
S315080063E0581E7B6859680B465B000B44B0FBF3F3F9
S315080063F00133C3F30B0343F400430FE0FB68581E55
S315080064007B6859680B469B000B4499000B44B0FB0C
S31508006410F3F30133C3F30B0343F440437968096884
S315080064201343CB617B681B681B6823F0C0017B683C
S31508006430DA697B681B6A1A437B681B680A431A6019
S315080064407B681B689B6823F4034323F0FF037A6881
S3150800645011697A68D26811437A6812680B439360A7
S315080064607B681B68DB6823F0FF017B685A697B68D9
S315080064709B691A437B681B680A43DA607B681B685A
S315080064801A687B681B6842F001021A607B68002262
S315080064901A647B68202283F83D207B6800221A63F1
S315080064A07B68002283F83E20002318461037BD4635
S315080064B080BD00BFA08601007F841E00FF083D0046
S315080064C083DE1B43D34D621080B586B000AF78607B
S315080064D07B68002B01D1012367E27B681B6803F008
S315080064E00103002B75D0884B9B6803F00C03042B23
S315080064F00CD0854B9B6803F00C03082B12D1824BFA
S315080065005B6803F48003B3F5800F0BD17E4B1B68E1
S3150800651003F40033002B5BD07B685B68002B57D1F4
S31508006520012342E27B685B68B3F5803F06D1764B70
S315080065301B68754A43F4803313601DE07B685B680B
S31508006540B3F5A02F0CD1704B1B686F4A43F4802318
S3150800655013606D4B1B686C4A43F4803313600BE081
S31508006560694B1B68684A23F480331360664B1B68C3
S31508006570654A23F4802313607B685B68002B13D07D
S31508006580FEF79CFC386108E0FEF798FC02463B697A
S31508006590D31A642B01D9032307E25B4B1B6803F468
S315080065A00033002BF0D014E0FEF788FC386108E0D1
S315080065B0FEF784FC02463B69D31A642B01D90323F0
S315080065C0F3E1514B1B6803F40033002BF0D100E0D4
S315080065D000BF7B681B6803F00203002B63D04A4B9D
S315080065E09B6803F00C03002B0BD0474B9B6803F00A
S315080065F00C03082B1CD1444B5B6803F48003002B67
S3150800660016D1414B1B6803F00203002B05D07B68AB
S31508006610DB68012B01D00123C7E13B4B1B6823F044
S31508006620F8027B681B69DB00374913430B603AE0C5
S315080066307B68DB68002B20D0344B01221A60FEF7FA
S315080066403DFC386108E0FEF739FC02463B69D31A7F
S31508006650022B01D90323A8E12B4B1B6803F0020385
S31508006660002BF0D0284B1B6823F0F8027B681B69C7
S31508006670DB00254913430B6015E0244B00221A6002
S31508006680FEF71CFC386108E0FEF718FC02463B6979
S31508006690D31A022B01D9032387E11B4B1B6803F08E
S315080066A00203002BF0D17B681B6803F00803002B5C
S315080066B036D07B685B69002B16D0154B01221A6011
S315080066C0FEF7FCFB386108E0FEF7F8FB02463B697B
S315080066D0D31A022B01D9032367E10B4B5B6F03F037
S315080066E00203002BF0D01BE0094B00221A60FEF7CC
S315080066F0E5FB38610EE0FEF7E1FB02463B69D31A7B
S31508006700022B07D9032350E1003802400000474214
S31508006710800E4742884B5B6F03F00203002BEAD1D9
S315080067207B681B6803F00403002B00F097800023A6
S31508006730FB75814B1B6C03F08053002B0FD1002394
S31508006740BB607D4B1B6C7C4A43F0805313647A4BC9
S315080067501B6C03F08053BB60BB680123FB75774B4A
S315080067601B6803F48073002B18D1744B1B68734A9B
S3150800677043F480731360FEF7A1FB386108E0FEF767
S315080067809DFB02463B69D31A022B01D903230CE170
S315080067906A4B1B6803F48073002BF0D07B689B68F8
S315080067A0012B06D1644B1B6F634A43F00103136741
S315080067B01CE07B689B68052B0CD15F4B1B6F5E4A00
S315080067C043F0040313675C4B1B6F5B4A43F00103FA
S315080067D013670BE0584B1B6F574A23F001031367E7
S315080067E0554B1B6F544A23F0040313677B689B6859
S315080067F0002B15D0FEF762FB38610AE0FEF75EFB58
S3150800680002463B69D31A41F28832934201D90323DF
S31508006810CBE0494B1B6F03F00203002BEED014E0CC
S31508006820FEF74CFB38610AE0FEF748FB02463B6977
S31508006830D31A41F28832934201D90323B5E03E4B7D
S315080068401B6F03F00203002BEED1FB7D012B05D154
S31508006850394B1B6C384A23F0805313647B689B6959
S31508006860002B00F0A180344B9B6803F00C03082B27
S315080068705CD07B689B69022B41D1314B00221A60A0
S31508006880FEF71CFB386108E0FEF718FB02463B6979
S31508006890D31A022B01D9032387E0274B1B6803F081
S315080068A00073002BF0D17B68DA697B681B6A1A4390
S315080068B07B685B6A9B011A437B689B6A5B08013BA2
S315080068C01B041A437B68DB6A1B061B4913434B6090
S315080068D01B4B01221A60FEF7F1FA386108E0FEF751
S315080068E0EDFA02463B69D31A022B01D903235CE071
S315080068F0114B1B6803F00073002BF0D054E0104BCB
S3150800690000221A60FEF7DAFA386108E0FEF7D6FACE
S3150800691002463B69D31A022B01D9032345E0064BED
S315080069201B6803F00073002BF0D13DE07B689B6980
S31508006930012B07D1012338E00038024000700040DF
S31508006940600047421B4B5B68FB607B689B69012BB9
S3150800695028D0FB6803F480027B68DB699A4221D160
S31508006960FB6803F03F027B681B6A9A421AD1FA68F1
S3150800697047F6C07313407A68526A9201934211D15E
S31508006980FB6803F440327B689B6A5B08013B1B0487
S315080069909A4207D1FB6803F070627B68DB6A1B06C4
S315080069A09A4201D0012300E0002318461837BD4655
S315080069B080BD00BF0038024080B584B000AF786063
S315080069C039607B68002B01D10123CCE0684B1B683A
S315080069D003F007033A689A420CD9654B3A68D2B273
S315080069E01A70634B1B6803F007033A689A4201D092
S315080069F00123B8E07B681B6803F00203002B20D054
S31508006A007B681B6803F00403002B05D0594B9B6871
S31508006A10584A43F4E05393607B681B6803F0080305
S31508006A20002B05D0534B9B68524A43F4604393604E
S31508006A30504B9B6823F0F0027B689B684D491343D3
S31508006A408B607B681B6803F00103002B44D07B68CE
S31508006A505B68012B07D1474B1B6803F40033002BF7
S31508006A6019D101237FE07B685B68022B03D07B6822
S31508006A705B68032B07D13F4B1B6803F00073002BA1
S31508006A8009D101236FE03B4B1B6803F00203002B7F
S31508006A9001D1012367E0374B9B6823F003027B682B
S31508006AA05B68344913438B60FEF708FAF8600AE01E
S31508006AB0FEF704FA0246FB68D31A41F2883293427B
S31508006AC001D903234FE02B4B9B6803F00C027B682C
S31508006AD05B689B009A42EBD1254B1B6803F00703C2
S31508006AE03A689A420CD2224B3A68D2B21A70204BB4
S31508006AF01B6803F007033A689A4201D0012332E083
S31508006B007B681B6803F00403002B08D0194B9B68AD
S31508006B1023F4E0527B68DB68164913438B607B6875
S31508006B201B6803F00803002B09D0124B9B6823F45B
S31508006B3060427B681B69DB000E4913438B6000F0DB
S31508006B4021F802460B4B9B681B0903F00F030A4901
S31508006B50CB5C22FA03F3094A1360094B1B681846F3
S31508006B60FEF7AEF8002318461037BD4680BD00BFB5
S31508006B70003C024000380240989A000800000020B5
S31508006B80040000202DE9B04F90B000AF00237B63CE
S31508006B900023FB6300233B630023BB63594B9B68BD
S31508006BA003F00C03082B0DD0082B00F2A180002B54
S31508006BB002D0042B03D09BE0534BBB639BE0534BA3
S31508006BC0BB6398E04F4B5B6803F03F037B634D4B19
S31508006BD05B6803F48003002B28D04A4B5B689B094B
S31508006BE000223B627A623B6AC3F308000021474BE6
S31508006BF003FB01F2002300FB03F31344434AA0FB03
S31508006C000212FA620A46BA62FA6A1344FB627B6B9C
S31508006C100022BB61FA61D7E90623D7E90A01FDF725
S31508006C20DFFA02460B461346FB6353E0354B5B68B7
S31508006C309B0900223B617A613B69C3F3080A4FF05E
S31508006C40000B52465B464FF000004FF00001590119
S31508006C5041EAD261500102460B46B2EB0A0863EBE1
S31508006C600B094FF000024FF000034FEA891343EA7D
S31508006C7098634FEA8812B2EB080463EB09054FF0F4
S31508006C8000024FF00003EB0043EA5473E200144697
S31508006C901D4614EB0A033B6045EB0B037B604FF084
S31508006CA000024FF00003D7E9004529468B0221462A
S31508006CB043EA915321468A02104619467B6B002205
S31508006CC0BB60FA60D7E90223FDF78AFA02460B464B
S31508006CD01346FB630B4B5B681B0C03F00303013382
S31508006CE05B003B63FA6B3B6BB2FBF3F3BB6302E0FF
S31508006CF0054BBB6300BFBB6B18464037BD46BDE8B6
S31508006D00B08F00BF003802400024F400001BB70013
S31508006D1080B400AF034B1B681846BD465DF8047B7C
S31508006D20704700BF0000002080B500AFFFF7F0FFF6
S31508006D300246054B9B689B0A03F007030349CB5C95
S31508006D4022FA03F3184680BD00380240A89A0008C4
S31508006D5080B500AFFFF7DCFF0246054B9B685B0B6F
S31508006D6003F007030349CB5C22FA03F3184680BDF8
S31508006D7000380240A89A000880B483B000AF786053
S31508006D8039607B680F221A60124B9B6803F0030276
S31508006D907B685A600F4B9B6803F0F0027B689A6029
S31508006DA00C4B9B6803F4E0527B68DA60094B9B68DE
S31508006DB0DB0803F4E0527B681A61074B1B6803F093
S31508006DC007023B681A6000BF0C37BD465DF8047BB6
S31508006DD0704700BF00380240003C024080B582B0D0
S31508006DE000AF78607B68002B01D101237BE07B68CC
S31508006DF05B6A002B08D17B685B68B3F5827F09D094
S31508006E007B680022DA6105E07B6800221A617B68EC
S31508006E1000225A617B6800229A627B6893F8513097
S31508006E20DBB2002B06D17B68002283F850207868F5
S31508006E30FDF76EFE7B68022283F851207B681B688B
S31508006E401A687B681B6822F040021A607B685B68D8
S31508006E5003F482727B689B6803F404431A437B68D5
S31508006E60DB6803F400631A437B681B6903F00203BB
S31508006E701A437B685B6903F001031A437B689B69C5
S31508006E8003F400731A437B68DB6903F038031A437B
S31508006E907B681B6A03F0800342EA03017B689B6AEE
S31508006EA003F400527B681B680A431A607B689B6977
S31508006EB01B0C03F004017B685B6A03F010027B6815
S31508006EC01B680A435A607B681B68DA697B681B681B
S31508006ED022F40062DA617B6800225A657B68012227
S31508006EE083F85120002318460837BD4680BD0000A8
S31508006EF080B586B000AFF860B9607A607B80002301
S31508006F00FB75FB6893F85030012B01D10223E3E0AF
S31508006F10FB68012283F85020FB6893F85130BB7553
S31508006F20FB685B683B61BB7D012B0DD03B69B3F504
S31508006F30827F06D1FB689B68002B02D1BB7D042BA0
S31508006F4002D00223FB75C2E0BB68002B05D07B6824
S31508006F50002B02D07B88002B02D10123FB75B6E0FB
S31508006F60FB6893F85130DBB2042B03D0FB6805228B
S31508006F7083F85120FB6800225A65FB68BA681A63D1
S31508006F80FB687A889A86FB687A88DA86FB687A6864
S31508006F909A63FB687A889A87FB687A88DA87FB6837
S31508006FA000221A64FB6800225A64FB6893F8513081
S31508006FB0DBB2042B08D1FB68DB6C494A1A64FB6810
S31508006FC0DB6C484ADA6307E0FB68DB6C464A1A64FE
S31508006FD0FB68DB6C454ADA63FB68DB6C444ADA64B7
S31508006FE0FB68DB6C00221A65FB68D86CFB681B68BB
S31508006FF00C331946FB689B6B1A46FB68DB8F9BB202
S31508007000FEF71CFC0346002B0CD0FB685B6D43F0B7
S315080070101002FB685A650123FB75FB68012283F899
S31508007020512054E0FB681B685A68FB681B6842F0ED
S3150800703001025A60FB689B6C00221A64FB689B6C11
S315080070400022DA63FB689B6C0022DA64FB689B6C9F
S3150800705000221A65FB68986CFB681B6B1946FB686F
S315080070601B680C331A46FB68DB8E9BB2FEF7E6FB01
S315080070700346002B0CD0FB685B6D43F01002FB68DF
S315080070805A650123FB75FB68012283F851201EE02F
S31508007090FB681B681B6803F04003402B07D0FB689E
S315080070A01B681A68FB681B6842F040021A60FB6896
S315080070B01B685A68FB681B6842F020025A60FB6826
S315080070C01B685A68FB681B6842F002025A60FB6834
S315080070D0002283F85020FB7D18461837BD4680BD30
S315080070E03F730008077200085B730008AF72000858
S315080070F07773000880B483B000AF78607B6893F834
S315080071005030012B01D1022310E07B68012283F85D
S3150800711050207B681B685A687B681B6842F003022C
S315080071205A607B68002283F85020002318460C37E3
S31508007130BD465DF8047B704780B584B000AF7860C3
S315080071400023FB737B689B6C002B0FD07B689B6CC2
S315080071501846FEF7CBFB0346002B07D07B685B6D12
S3150800716043F010027B685A650123FB737B68DB6C6E
S31508007170002B0FD07B68DB6C1846FEF7B7FB03467F
S31508007180002B07D07B685B6D43F010027B685A655D
S315080071900123FB737B681B685A687B681B6822F0AF
S315080071A003025A607B68012283F85120FB7B18464C
S315080071B01037BD4680BD80B483B000AF786000BF8D
S315080071C00C37BD465DF8047B704780B483B000AFCA
S315080071D0786000BF0C37BD465DF8047B704780B405
S315080071E083B000AF786000BF0C37BD465DF8047BFE
S315080071F0704780B483B000AF786000BF0C37BD46D7
S315080072005DF8047B704780B584B000AF78607B6812
S315080072109B6BFB60FDF752FEB8607B681B681B68BA
S3150800722003F48073B3F5807F3BD0FB681B685A680C
S31508007230FB681B6822F020025A60FB689B68002BDB
S315080072400DD1FB685B68B3F5827F08D1FB681B68C4
S315080072505A68FB681B6822F003025A6007E0FB685D
S315080072601B685A68FB681B6822F001025A60BA68F4
S315080072706421F86800F028F90346002B02D0FB6861
S3150800728020225A65FB680022DA87FB68012283F808
S315080072905120FB685B6D002B03D0F868FFF7A9FF48
S315080072A002E0F868FFF787FF1037BD4680BD80B556
S315080072B084B000AF78607B689B6BFB60FDF7FEFDD2
S315080072C0B8607B681B681B6803F48073B3F5807F1E
S315080072D02FD0FB681B685A68FB681B6822F02002DF
S315080072E05A60BA686421F86800F054F90346002B1E
S315080072F005D0FB685B6D43F02002FB685A65FB68A6
S315080073001B685A68FB681B6822F003025A60FB6810
S315080073100022DA86FB680022DA87FB68012283F8F6
S315080073205120FB685B6D002B03D0F868FFF761FFFF
S3150800733002E0F868FDF790FB1037BD4680BD80B5C2
S3150800734084B000AF78607B689B6BFB60F868FFF7DA
S315080073503CFF00BF1037BD4680BD80B584B000AF86
S3150800736078607B689B6BFB60F868FFF738FF00BFA7
S315080073701037BD4680BD80B584B000AF78607B68A5
S315080073809B6BFB60FB681B685A68FB681B6822F0EE
S3150800739003025A60FB685B6D43F01002FB685A658E
S315080073A0FB68012283F85120F868FFF722FF00BF27
S315080073B01037BD4680BD000080B588B000AFF860C4
S315080073C0B9603B601346FB71FDF778FD0246BB6A60
S315080073D09B1A3A681344FB61FDF770FDB861394B97
S315080073E01B685B011B0DFA6902FB03F37B6154E022
S315080073F03B68B3F1FF3F50D0FDF760FD0246BB691D
S31508007400D31AFA699A4202D9FB69002B3DD1FB6867
S315080074101B685A68FB681B6822F0E0025A60FB6822
S315080074205B68B3F5827F11D1FB689B68B3F5004FA3
S3150800743004D0FB689B68B3F5806F07D1FB681B68AF
S315080074401A68FB681B6822F040021A60FB689B6A90
S31508007450B3F5005F0FD1FB681B681A68FB681B68E9
S3150800746022F400521A60FB681B681A68FB681B68DE
S3150800747042F400521A60FB68012283F85120FB6827
S31508007480002283F85020032317E07B69002B01D1E3
S315080074900023FB617B69013B7B61FB681B689A687B
S315080074A0BB681340BA689A420CBF01230023DBB2BB
S315080074B01A46FB799A429BD1002318462037BD46C7
S315080074C080BD00BF0000002080B586B002AFF8601E
S315080074D0B9607A60FB685B68B3F5827F11D1FB6897
S315080074E09B68B3F5004F04D0FB689B68B3F5806FC3
S315080074F007D1FB681B681A68FB681B6822F0400204
S315080075001A60FB685B68B3F5827F2AD1FB689B68C3
S31508007510B3F5806F12D07B680093BB680022802188
S31508007520F868FFF749FF0346002B2DD0FB685B6D13
S3150800753043F02002FB685A65032326E07B68009324
S31508007540BB6800220121F868FFF736FF0346002BC7
S315080075501AD0FB685B6D43F02002FB685A6503236B
S3150800756013E07B680093BB6800220121F868FFF7E7
S3150800757023FF0346002B07D0FB685B6D43F0200210
S31508007580FB685A65032300E0002318461037BD46FA
S3150800759080BD000080B588B002AFF860B9607A6037
S315080075A01B4B1B681B4AA2FB03235B0D4FF47A7225
S315080075B002FB03F37B61FB685B68B3F5827F12D13C
S315080075C07B680093BB6800228021F868FFF7F4FE09
S315080075D00346002B16D0FB685B6D43F02002FB6860
S315080075E05A6503230FE07B69002B0AD07B69013BB0
S315080075F07B61FB681B689B6803F08003802BF2D0D5
S3150800760000E000BF002318461837BD4680BD00BFFE
S3150800761000000020819F5E1680B582B000AF7860BA
S315080076207B68002B01D1012341E07B6893F83D304C
S31508007630DBB2002B06D17B68002283F83C207868F1
S3150800764000F039F87B68022283F83D207B681A68C7
S315080076507B6804331946104600F0CAF97B68012294
S3150800766083F846207B68012283F83E207B68012246
S3150800767083F83F207B68012283F840207B6801223B
S3150800768083F841207B68012283F842207B68012227
S3150800769083F843207B68012283F844207B68012213
S315080076A083F845207B68012283F83D20002318468D
S315080076B00837BD4680BD80B483B000AF786000BF90
S315080076C00C37BD465DF8047B7047000080B485B072
S315080076D000AF78607B6893F83D30DBB2012B01D0B0
S315080076E0012344E07B68022283F83D207B681B68FF
S315080076F0DA687B681B6842F00102DA607B681B68FF
S315080077001E4A934218D07B681B68B3F1804F13D08A
S315080077107B681B681A4A93420ED07B681B68194A15
S31508007720934209D07B681B68174A934204D07B684A
S315080077301B68164A934211D17B681B689B6803F045
S315080077400703FB60FB68062B10D07B681B681A686A
S315080077507B681B6842F001021A6007E07B681B68B9
S315080077601A687B681B6842F001021A6000231846F3
S315080077701437BD465DF8047B704700BF0000014022
S315080077800004004000080040000C00400040014092
S3150800779080B582B000AF78607B681B681B6903F010
S315080077A00203022B22D17B681B68DB6803F0020305
S315080077B0022B1BD17B681B686FF002021A617B687B
S315080077C001221A777B681B689B6903F00303002B69
S315080077D003D0786800F0EEF805E0786800F0E0F885
S315080077E0786800F0F1F87B6800221A777B681B68D6
S315080077F01B6903F00403042B22D17B681B68DB6832
S3150800780003F00403042B1BD17B681B686FF004028A
S315080078101A617B6802221A777B681B689B6903F4E6
S315080078204073002B03D0786800F0C4F805E0786848
S3150800783000F0B6F8786800F0C7F87B6800221A7777
S315080078407B681B681B6903F00803082B22D17B6839
S315080078501B68DB6803F00803082B1BD17B681B68D1
S315080078606FF008021A617B6804221A777B681B6826
S31508007870DB6903F00303002B03D0786800F09AF85D
S3150800788005E0786800F08CF8786800F09DF87B6869
S3150800789000221A777B681B681B6903F01003102BFC
S315080078A022D17B681B68DB6803F01003102B1BD101
S315080078B07B681B686FF010021A617B6808221A77CA
S315080078C07B681B68DB6903F44073002B03D0786878
S315080078D000F070F805E0786800F062F8786800F063
S315080078E073F87B6800221A777B681B681B6903F0AC
S315080078F00103012B0ED17B681B68DB6803F00103CB
S31508007900012B07D17B681B686FF001021A61786842
S31508007910FDF7B4F87B681B681B6903F08003802BAE
S315080079200ED17B681B68DB6803F08003802B07D1C8
S315080079307B681B686FF080021A61786800F0E2F8CD
S315080079407B681B681B6903F04003402B0ED17B68DC
S315080079501B68DB6803F04003402B07D17B681B6874
S315080079606FF040021A61786800F038F87B681B6887
S315080079701B6903F02003202B0ED17B681B68DB688C
S3150800798003F02003202B07D17B681B686FF02002C9
S315080079901A61786800F0ACF800BF0837BD4680BDAC
S315080079A080B483B000AF786000BF0C37BD465DF881
S315080079B0047B704780B483B000AF786000BF0C3793
S315080079C0BD465DF8047B704780B483B000AF78602D
S315080079D000BF0C37BD465DF8047B704780B483B0A2
S315080079E000AF786000BF0C37BD465DF8047B704772
S315080079F080B485B000AF786039607B681B68FB602F
S31508007A007B68344A93420FD07B68B3F1804F0BD022
S31508007A107B68314A934207D07B68304A934203D049
S31508007A207B682F4A934208D1FB6823F07003FB60FA
S31508007A303B685B68FA681343FB607B68254A934298
S31508007A401BD07B68B3F1804F17D07B68224A9342DC
S31508007A5013D07B68214A93420FD07B68204A934211
S31508007A600BD07B681F4A934207D07B681E4A934215
S31508007A7003D07B681D4A934208D1FB6823F4407300
S31508007A80FB603B68DB68FA681343FB60FB6823F01E
S31508007A9080023B685B691343FB607B68FA681A607F
S31508007AA03B689A687B68DA623B681A687B689A6200
S31508007AB07B68084A934203D13B681A697B681A6354
S31508007AC07B6801225A6100BF1437BD465DF8047B06
S31508007AD0704700BF00000140000400400008004055
S31508007AE0000C0040004001400044014000480140AD
S31508007AF080B483B000AF786000BF0C37BD465DF830
S31508007B00047B704780B483B000AF786000BF0C3741
S31508007B10BD465DF8047B704780B483B000AF7860DB
S31508007B203960174B01221A707B681B78012B1ED10E
S31508007B307B6802331B78012B19D17B6803331B78CA
S31508007B400D2B14D17B6804331B78022B0FD17B686D
S31508007B5005331B78012B0AD17B681A7C094B9A726C
S31508007B607B685A7C074BDA72074B01221A70044B62
S31508007B7000221A7000BF0C37BD465DF8047B7047BB
S31508007B801D070020D40600201C07002090B585B0EC
S31508007B9000AF786039603B6801221A703B68013390
S31508007BA020221A703B68023302221A703B6803339C
S31508007BB00D221A703B68043303221A703B6805339A
S31508007BC001221A700023FB730CE0FA7BFB7B5B0037
S31508007BD0063339680B440B4931F812201A80FB7BAF
S31508007BE00133FB73FB7B092BEFD93B6803F12004B8
S31508007BF02021386800F066FB0346237000BF14375F
S31508007C00BD4690BDE006002080B400AF01231846AB
S31508007C10BD465DF8047B704780B400AF00BFBD4623
S31508007C205DF8047B7047000080B582B000AF002382
S31508007C30FB7125E0FB79164A13449B7A002B0ED17B
S31508007C40FB79144ADB0013445868FB79114A52F849
S31508007C5033309BB200221946FEF7BEFA0DE0FB79D7
S31508007C600C4ADB0013445868FB790A4A52F8333049
S31508007C709BB201221946FEF7AFFAFB790133FB7175
S31508007C80FB79012BD6D900BF00BF0837BD4680BD9A
S31508007C90D40600200C00002090B583B000AF1E4B20
S31508007CA01B78012B04D1FFF7BFFF1B4B00221A706C
S31508007CB00023FB7128E0FA7913461B0113445B0085
S31508007CC0164A9C18FB79184600F02CF80346194604
S31508007CD0204600F053FA0346002B11D1FA790F49D2
S31508007CE013461B0113445B000B4402331A88FB79C5
S31508007CF0114689000A4491B2094A22F8131000E095
S31508007D0000BFFB790133FB71FB79092BD3D900BF7F
S31508007D1000BF0C37BD4690BD1C070020440000205C
S31508007D20E006002080B586B000AF0346FB71154813
S31508007D30FDF7C8F90146144B1B781A4689B2134B4E
S31508007D4023F81210FB79124A52F82330BB6001233C
S31508007D50FB6003233B6107F1080319460948FDF751
S31508007D60BFF90848FDF7FAF80A2000F0CBFA064AE8
S31508007D70FB791370FB79054A32F813301846183721
S31508007D80BD4680BD1C0200201E07002020070020DB
S31508007D901C000020B0B588B000AF01224FF4005196
S31508007DA02548FEF719FA254B01221A70234B202283
S31508007DB05A70234B65221A60204B14229A711F4B66
S31508007DC00A22DA711D4B03221A721C4B02225A72BE
S31508007DD01A4B00229A72194B0022DA72174B0122AB
S31508007DE01A732021154800F06DFA03461A46134BFC
S31508007DF083F820202123134A10491348FFF778F8FF
S31508007E00124B3C1D1D460FCD0FC495E8070084E8AC
S31508007E1007003B1D0021184600F0ADFA03460C4A40
S31508007E20136000224FF400510348FEF7D5F900BF4E
S31508007E302037BD46B0BD00BF000802403407002009
S31508007E40360700205C07002070050020749A000899
S31508007E509407002080B582B000AF012280214048F7
S31508007E60FEF7BAF90023FB800AE0FB880133FB80A2
S31508007E70FB88B3F5967F03D93A4B00221A7006E0C1
S31508007E8010213948FEF790F90346002BEDD0202142
S31508007E90364800F017FA03461A46344B93F8203052
S31508007EA09A4204D132493148FFF736FE02E02D4B9B
S31508007EB002221A702D4B00221A700023FB800BE059
S31508007EC0284B01221A70FB880133FB80FB880A2B9A
S31508007ED002D900F015F906E0264B1B689B6803F0EB
S31508007EE00203022BECD100233B60224B1B68DB68A4
S31508007EF03B60204B1B689B683B603B6801224FF444
S31508007F0000511D48FEF768F90023FB800EE0FB8848
S31508007F100133FB80FB88B3F5FA7F07D3114B0322A5
S31508007F201A7000F0EDF80023FB8000BF114B1B68A8
S31508007F309B6803F00203022BE9D0104B01221A704A
S31508007F4000224FF400510C48FEF746F90022802122
S31508007F500348FEF741F900BF0837BD4680BD00BF9C
S31508007F600004024082070020000002405C0700204F
S31508007F703407002070050020000802409007002002
S31508007F8080B582B000AF786000F00CF84FF400516D
S31508007F900348FEF73AF9012000F039FAF4E700BF82
S31508007FA00008024080B500AF4A4B1B8801339AB2DD
S31508007FB0484B1A80474B1B881A46474B1B88053B7C
S31508007FC09A4208D1454B1B78012B04D144494548B0
S31508007FD0FFF7DCFD68E0444B1B88B3F57A7F05D2D2
S31508007FE0414B1B8801339AB23F4B1A803B4B1B7897
S31508007FF0012B18D13C4B1B88B3F5167F13D90122E8
S315080080004FF400513948FEF7E7F8FFF7FDFD034640
S31508008010002B02D1344B00221A8000224FF4005163
S315080080203248FEF7D9F8324B1B78002B4FD02E4B2F
S3150800803000221A802F4B5A882E4B9A802D4B1A886D
S315080080402C4B5A80234B1A882A4B1A80294B1B889B
S315080080501A46284B5B881344264A92881344264AB4
S3150800806082FB0312DB17D31A9AB21B4B1A80194BE1
S315080080701B881A46184B1B88033B9A4207DB154B8D
S315080080801B881A46144B1B8803339A4203DD134B8D
S3150800809000221A7002E0114B01221A700D4B0022C1
S315080080A01A80134B00221A7001224FF400510F4810
S315080080B0FEF792F821230B4A0949104800F036F8D2
S315080080C000224FF400510948FEF786F800E000BF89
S315080080D080BD00BF980700209A0700209C07002053
S315080080E0340700205C0700209E0700200008024095
S315080080F09007002084070020565555557005002026
S3150800810080B500AF0648FFF717F80548FEF7F2FFF7
S315080081102123044A0449024800F008F800BF80BD3C
S31508008120700500205C0700203407002080B584B065
S3150800813000AFF860B9607A60FB700E4B1B689B68ED
S3150800814003F08003802B0ED010210B48FEF72CF885
S315080081500346002B09D0FB789BB27A68B968F868A1
S31508008160FEF7C6FE02E000BF00E000BF1037BD46BE
S3150800817080BD00BF700500200000024080B487B0B3
S3150800818000AF78600B467B800023FB750023BB7528
S315080081907B685B787B750FE07B7D023B7A7D511EA1
S315080081A07A685B00134498887A684B001344024641
S315080081B09A807B7D013B7B757B7D012BECD87B68A8
S315080081C07A889A807B6893F820207B681B789A4285
S315080081D009D27B6893F820300133DAB27B6883F8DA
S315080081E02020012368E07B68002283F820200023F2
S315080081F03B7510E03B7D7A685B0013449A88FB7DEB
S3150800820079685B000B449B889A4201D33B7DFB75DA
S315080082103B7D01333B757B685B783A7D9A42E9D3AF
S315080082200023FB7410E0FB7C7A685B0013449A8891
S31508008230BB7D79685B000B449B889A4201D8FB7C1E
S31508008240BB75FB7C0133FB747B685B78FA7C9A42CE
S31508008250E9D30023FB600023FB720BE0FB7A7A6804
S315080082605B0013449B881A46FB681344FB60FB7A41
S315080082700133FB727B685B78FA7A9A42EED3FB7D10
S315080082807A685B0013449B881A46FB689B1AFB6056
S31508008290BB7D7A685B0013449B881A46FB689B1A69
S315080082A0FB607B685B78023B1A46FB68B3FBF2F31C
S315080082B09AB27B685A80002318461C37BD465DF87B
S315080082C0047B704780B485B000AF78600B46FB70BE
S315080082D00023FB730023BB7309E0BB7B7A68134456
S315080082E01A78FB7B1344FB73BB7B0133BB73BA7BE6
S315080082F0FB789A42F1D3FB7B18461437BD465DF8E6
S31508008300047B704780B485B000AF786008E004232A
S31508008310FB6002E0FB68013BFB60FB68002BF9D1C0
S315080083207B685A1E7A60002BF1D100BF00BF143754
S31508008330BD465DF8047B704780B485B000AF034640
S31508008340FB800023FB60B7F90630842B05D0B7F90C
S315080083500620FB6813440333FB60FB681846143792
S31508008360BD465DF8047B704780B500AF00F0FEFAA5
S315080083700023184680BDF0B589B004AF786039602F
S315080083807B685B69002B20D07B689B69002B1CD01F
S315080083907B685C687B681D687B681E697B68B3F9C7
S315080083A008301846FFF7C8FF01467B685B697A689C
S315080083B092690292019300913B683246294620460B
S315080083C000F0EDF80346FB601CE07B685C687B68A0
S315080083D01D687B681B699EB27B68B3F9083018462E
S315080083E0FFF7AAFF024607F10C03019300923B68C8
S315080083F032462946204600F02FF90346012B01D0C4
S31508008400002300E0FB6818461437BD46F0BD80B56A
S3150800841084B000AF78607B68FB60FB68002B01D0F6
S31508008420FB6800E00123184600F06CFA00231846A2
S315080084301037BD4680BD80B483B000AF78607B68D6
S3150800844003F108027B685A607B684FF0FF329A6036
S315080084507B6803F108027B68DA607B6803F108022F
S315080084607B681A617B6800221A6000BF0C37BD461C
S315080084705DF8047B704780B483B000AF78607B6892
S3150800848000221A6100BF0C37BD465DF8047B7047B1
S3150800849080B485B000AF786039607B685B68FB6044
S315080084A03B68FA685A60FB689A683B689A60FB689A
S315080084B09B683A685A60FB683A689A603B687A68CB
S315080084C01A617B681B685A1C7B681A6000BF1437E0
S315080084D0BD465DF8047B704780B485B000AF786010
S315080084E039603B681B68BB60BB68B3F1FF3F03D1CB
S315080084F07B681B69FB600CE07B680833FB6002E065
S31508008500FB685B68FB60FB685B681B68BA689A4235
S31508008510F6D2FB685A683B685A603B685B683A68FB
S315080085209A603B68FA689A60FB683A685A603B68E2
S315080085307A681A617B681B685A1C7B681A6000BFD8
S315080085401437BD465DF8047B704780B485B000AF2C
S3150800855078607B681B69FB607B685B687A689268F1
S315080085609A607B689B687A6852685A60FB685B68A1
S315080085707A689A4203D17B689A68FB685A607B6876
S3150800858000221A61FB681B685A1EFB681A60FB68A2
S315080085901B6818461437BD465DF8047B704780B5DE
S315080085A08EB004AFF860B9607A603B607B6B002BD5
S315080085B00AD14FF0500383F31188BFF36F8FBFF3CF
S315080085C04F8F3B6200BFFEE7BB6B002B0AD14FF013
S315080085D0500383F31188BFF36F8FBFF34F8FFB618F
S315080085E000BFFEE7B4233B613B69B42B0AD04FF0CA
S315080085F0500383F31188BFF36F8FBFF34F8FBB61AF
S3150800860000BFFEE73B69BB6B002B1ED07B6B002BC4
S315080086101BD0BB6B7B627B6A7A6B1A637B6A02220E
S3150800862083F8B120002303937B6A029307F11403AE
S3150800863001933B6B00933B687A68B968F86800F069
S3150800864051F8786A00F0F4F801E000237B617B6951
S3150800865018462837BD4680BD80B58CB004AFF86093
S31508008660B9603B601346FB80FB889B00184600F008
S31508008670FBFE78617B69002B0ED0B42000F0F4FE77
S31508008680F861FB69002B03D0FB697A691A6305E078
S31508008690786900F0B5FF01E00023FB61FB69002B58
S315080086A017D0FB69002283F8B120FA8800230393C8
S315080086B0FB690293FB6A0193BB6A00933B68B9683E
S315080086C0F86800F00FF8F86900F0B2F80123BB610A
S315080086D002E04FF0FF33BB61BB6918462037BD4641
S315080086E080BD000080B588B000AFF860B9607A60D8
S315080086F03B603B6B186B7B689B001A46A52101F013
S31508008700C3F83B6B1A6B7B6803F18043013B9B0004
S315080087101344BB61BB6923F00703BB61BB6903F064
S315080087200703002B0AD04FF0500383F31188BFF3D9
S315080087306F8FBFF34F8F7B6100BFFEE7BB68002BCF
S315080087401FD00023FB6112E0BA68FB69134419784D
S315080087503A6BFB69134434330A461A70BA68FB69E4
S3150800876013441B78002B06D0FB690133FB61FB69B8
S315080087700F2BE9D900E000BF3B6B002283F84320AA
S3150800878003E03B6B002283F83420BB6A062B01D931
S315080087900623BB623B6BBA6ADA623B6BBA6A5A64F7
S315080087A03B6B00229A643B6B04331846FFF763FE63
S315080087B03B6B18331846FFF75EFE3B6B3A6B1A6144
S315080087C0BB6AC3F107023B6B9A613B6B3A6B5A6211
S315080087D03B6B0022C3F8AC203B6B002283F8B02029
S315080087E03B6B4C3360220021184601F04DF83B6B79
S315080087F00C4A1A653B6B0C4A5A653B6B0B4A9A65E1
S315080088003A68F968B86900F01FFC02463B6B1A60C3
S31508008810FB6A002B02D0FB6A3A6B1A6000BF20374E
S31508008820BD4680BDD89A0008F89A0008B89A00088C
S3150800883080B582B000AF786000F034FD2A4B1B6823
S315080088400133294A1360294B1B68002B09D1274A93
S315080088507B681360244B1B68012B10D100F0CCFAFF
S315080088600DE0234B1B68002B09D1204B1B68DA6AE5
S315080088707B68DB6A9A4202D81C4A7B6813601D4BE8
S315080088801B6801331B4A13607B68DB6A01229A4026
S31508008890194B1B681343184A13607B68DA6A134638
S315080088A09B0013449B00154A1A447B6804331946F7
S315080088B01046FFF7EDFD00F025FD0D4B1B68002B5C
S315080088C00ED00A4B1B68DA6A7B68DB6A9A4207D2C3
S315080088D00B4B4FF080521A60BFF34F8FBFF36F8F69
S315080088E000BF0837BD4680BDA0080020A0070020AD
S315080088F0AC080020BC080020A8080020A407002017
S3150800890004ED00E080B584B000AF78600023FB601A
S315080089107B68002B17D0134B1B68002B0AD04FF02F
S31508008920500383F31188BFF36F8FBFF34F8FBB607C
S3150800893000BFFEE700F084F80021786800F01EFB0F
S3150800894000F08CF8F860FB68002B07D1064B4FF057
S3150800895080521A60BFF34F8FBFF36F8F00BF103777
S31508008960BD4680BDC808002004ED00E080B58AB089
S3150800897004AF0023BB6000237B603A46391D07F12C
S3150800898008031846FBF7A4FE39687B68BA680292A2
S3150800899001930023009300230A4621492148FFF743
S315080089A0FEFD0346204A13601F4B1B68002B02D0AE
S315080089B001237B6101E000237B617B69012B1BD1CD
S315080089C04FF0500383F31188BFF36F8FBFF34F8FB8
S315080089D03B6100BF154B1B684C33154A1360154B9A
S315080089E04FF0FF321A60144B01221A60134B002213
S315080089F01A6000F0B5FB0EE07B69B3F1FF3F0AD1C0
S31508008A004FF0500383F31188BFF36F8FBFF34F8F77
S31508008A10FB6000BFFEE700BF1837BD4680BD00BF3C
S31508008A20909A0008C98D0008C4080020A0070020F5
S31508008A309C010020C0080020AC080020A4080020E3
S31508008A4080B400AF044B1B680133034A136000BFB0
S31508008A50BD465DF8047B7047C808002080B584B021
S31508008A6000AF0023FB600023BB60414B1B68002B53
S31508008A700AD14FF0500383F31188BFF36F8FBFF30A
S31508008A804F8F3B6000BFFEE700F00CFC384B1B68BD
S31508008A90013B374A1360364B1B68002B61D1354BB7
S31508008AA01B68002B5DD02EE0334BDB68DB68FB6070
S31508008AB0FB6818331846FFF748FDFB680433184669
S31508008AC0FFF743FDFB68DB6A01229A402B4B1B68C4
S31508008AD013432A4A1360FB68DA6A13469B00134459
S31508008AE09B00274A1A44FB68043319461046FFF7C9
S31508008AF0CFFCFB68DA6A234B1B68DB6A9A4202D30F
S31508008B00214B01221A601C4B1B68002BCCD1FB6839
S31508008B10002B01D000F012FA1C4B1B687B607B68A7
S31508008B20002B10D000F036F80346002B02D0164B67
S31508008B3001221A607B68013B7B607B68002BF1D1C0
S31508008B40124B00221A60104B1B68002B09D0012318
S31508008B50BB600F4B4FF080521A60BFF34F8FBFF3C5
S31508008B606F8F00F0CFFBBB6818461037BD4680BD37
S31508008B70C8080020A008002060080020A8080020D7
S31508008B80A4070020A0070020B4080020B008002091
S31508008B9004ED00E080B586B000AF00237B614E4B44
S31508008BA01B68002B40F08E804C4B1B6801333B61E1
S31508008BB04A4A3B6913603B69002B20D1484B1B6826
S31508008BC01B68002B0AD04FF0500383F31188BFF3BC
S31508008BD06F8FBFF34F8F3B6000BFFEE7404B1B68AC
S31508008BE0FB60404B1B683E4A13603E4AFB681360B5
S31508008BF03D4B1B6801333C4A136000F09FF93B4B21
S31508008C001B683A699A4248D3354B1B681B68002B88
S31508008C1004D1364B4FF0FF321A603EE0304B1B68EA
S31508008C20DB68DB68BB60BB685B687B603A697B684E
S31508008C309A4203D22D4A7B6813602EE0BB68043340
S31508008C401846FFF782FCBB689B6A002B04D0BB68FA
S31508008C5018331846FFF779FCBB68DB6A01229A408D
S31508008C60234B1B681343224A1360BB68DA6A134610
S31508008C709B0013449B001F4A1A44BB6804331946D9
S31508008C801046FFF705FCBB68DA6A1B4B1B68DB6AF4
S31508008C909A42B9D301237B61B6E7174B1B68DA6A98
S31508008CA0144913469B0013449B000B441B68012B75
S31508008CB001D901237B61114B1B68002B07D00123C7
S31508008CC07B6104E00E4B1B6801330D4A13607B6918
S31508008CD018461837BD4680BDC8080020A4080020DD
S31508008CE0580800205C080020B8080020C0080020AA
S31508008CF0A8080020A4070020A0070020B408002028
S31508008D00B008002080B487B000AF294B1B68002B41
S31508008D1003D0284B01221A6044E0264B00221A6031
S31508008D20254B1B68FB60FB68B3FA83F3FB72FB7A7F
S31508008D30C3F11F037B6121497A6913469B001344DB
S31508008D409B000B441B68002B0AD14FF0500383F39A
S31508008D501188BFF36F8FBFF34F8F7B6000BFFEE7AD
S31508008D607A6913469B0013449B00144A13443B61DB
S31508008D703B695B685A683B695A603B695A683B6954
S31508008D8008339A4204D13B695B685A683B695A6062
S31508008D903B695B68DB680A4A1360094B1B684C33FE
S31508008DA0084A136000BF1C37BD465DF8047B704750
S31508008DB0C8080020B4080020A8080020A40700203E
S31508008DC0A00700209C01002080B582B000AF786023
S31508008DD000F052F8064B1B68012BF9D9054B4FF0EA
S31508008DE080521A60BFF34F8FBFF36F8FF0E700BF53
S31508008DF0A407002004ED00E080B582B000AF002390
S31508008E007B600CE07A6813469B0013449B00124A69
S31508008E1013441846FFF70FFB7B6801337B607B68BA
S31508008E20062BEFD90D48FFF706FB0D48FFF703FBA6
S31508008E300C48FFF700FB0C48FFF7FDFA0B48FFF755
S31508008E40FAFA0B4B054A1A600A4B054A1A6000BF24
S31508008E500837BD4680BD00BFA407002030080020A3
S31508008E604408002060080020740800208C080020B0
S31508008E70580800205C08002080B582B000AF19E0D1
S31508008E8000F010FA104BDB68DB687B607B68043304
S31508008E901846FFF75AFB0D4B1B68013B0B4A13603C
S31508008EA00B4B1B68013B0A4A136000F02BFA7868E3
S31508008EB000F010F8064B1B68002BE1D100BF00BF7D
S31508008EC00837BD4680BD00BF74080020A0080020F2
S31508008ED08808002080B584B000AF78607B684C3382
S31508008EE0184600F0E7FC7B6893F8B130002B08D1F0
S31508008EF07B681B6B184600F083FB786800F080FBE4
S31508008F0018E07B6893F8B130012B03D1786800F03C
S31508008F1077FB0FE07B6893F8B130022B0AD04FF04D
S31508008F20500383F31188BFF36F8FBFF34F8FFB6036
S31508008F3000BFFEE700BF1037BD4680BD80B483B0D2
S31508008F4000AF0C4B1B681B68002B04D10A4B4FF073
S31508008F50FF321A6008E0074B1B68DB68DB687B603A
S31508008F607B685B68044A136000BF0C37BD465DF832
S31508008F70047B704758080020C008002080B584B0DC
S31508008F8000AF78603960294B1B68FB60284B1B686B
S31508008F9004331846FFF7D9FA0346002B0BD1244BA6
S31508008FA01B68DB6A012202FA03F3DA43214B1B68CA
S31508008FB01340204A13607B68B3F1FF3F0AD13B6830
S31508008FC0002B07D01A4B1B68043319461A48FFF7BB
S31508008FD05FFA26E0FA687B681344BB60144B1B688B
S31508008FE0BA685A60BA68FB689A4209D2134B1A687B
S31508008FF00F4B1B68043319461046FFF76DFA10E04D
S315080090000F4B1A680A4B1B68043319461046FFF7BC
S3150800901063FA0C4B1B68BA689A4202D2094ABB68C3
S31508009020136000BF1037BD4680BD00BFA4080020EE
S31508009030A0070020A80800208C0800205C08002053
S3150800904058080020C008002080B485B000AFF8603A
S31508009050B9607A60FB68043BFB60FB684FF080727E
S315080090601A60FB68043BFB60BB6823F00102FB68DF
S315080090701A60FB68043BFB600C4AFB681A60FB68D5
S31508009080143BFB607A68FB681A60FB68043BFB606C
S31508009090FB686FF002021A60FB68203BFB60FB6806
S315080090A018461437BD465DF8047B7047B190000832
S315080090B080B485B000AF00237B60124B1B68B3F108
S315080090C0FF3F0AD04FF0500383F31188BFF36F8F29
S315080090D0BFF34F8FFB6000BFFEE74FF0500383F3EB
S315080090E01188BFF36F8FBFF34F8FBB6000BF00BF00
S315080090F07B68002BFCD000BF00BF1437BD465DF867
S31508009100047B704798010020000000000000000062
S31508009110074B19680868B0E8F04F80F30988BFF371
S315080091206F8F4FF0000080F311887047AFF300800F
S31508009130A007002000BF00BF08480068006880F349
S3150800914008884FF0000080F3148862B661B6BFF352
S315080091504F8FBFF36F8F00DF00BF00BF08ED00E041
S3150800916080B586B000AF464B1B68464A93420AD183
S315080091704FF0500383F31188BFF36F8FBFF34F8F00
S315080091803B6100BFFEE73E4B1B683F4A93420AD14C
S315080091904FF0500383F31188BFF36F8FBFF34F8FE0
S315080091A0FB6000BFFEE7394B7B617B691B78DBB24E
S315080091B07B607B69FF221A707B691B78DBB2FB70C8
S315080091C0FB78DBB203F05003DAB2314B1A70314B3D
S315080091D007221A6009E02F4B1B68013B2D4A1360D2
S315080091E0FB78DBB25B00DBB2FB70FB78DBB203F02B
S315080091F08003802BEFD0274B1B68C3F10703042B92
S315080092000AD04FF0500383F31188BFF36F8FBFF373
S315080092104F8FBB6000BFFEE71E4B1B681B021D4A33
S3150800922013601C4B1B6803F4E0631A4A13607B68DF
S31508009230DAB27B691A70184B1B68174A43F4700335
S315080092401360154B1B68144A43F07043136000F013
S31508009250DDF8124B00221A6000F0FCF8104B1B6870
S315080092600F4A43F040431360FFF766FFFFF74AFDD6
S31508009270FFF71EFF002318461837BD4680BD00BFFE
S3150800928000ED00E071C20F4170C20F4100E400E03A
S31508009290CC080020D008002020ED00E0980100202E
S315080092A034EF00E080B483B000AF4FF0500383F38F
S315080092B01188BFF36F8FBFF34F8F7B6000BF0F4BD3
S315080092C01B6801330D4A13600C4B1B68012B0FD129
S315080092D00B4B1B68DBB2002B0AD04FF0500383F30D
S315080092E01188BFF36F8FBFF34F8F3B6000BFFEE758
S315080092F000BF0C37BD465DF8047B70479801002017
S3150800930004ED00E080B483B000AF124B1B68002B5D
S315080093100AD14FF0500383F31188BFF36F8FBFF361
S315080093204F8F7B6000BFFEE70A4B1B68013B094A6B
S315080093301360084B1B68002B05D100233B603B6874
S3150800934083F3118800BF00BF0C37BD465DF8047B68
S31508009350704700BF980100200000000000000000D0
S31508009360EFF30980BFF36F8F154B1A681EF0100FC5
S3150800937008BF20ED108A20E9F04F10602DE909009A
S315080093804FF0500080F31188BFF34F8FBFF36F8FF4
S31508009390FFF7B8FC4FF0000080F3118809BC196884
S315080093A00868B0E8F04F1EF0100F08BFB0EC108A3E
S315080093B080F30988BFF36F8F704700BFAFF3008053
S315080093C0A007002000BF00BF80B582B000AF4FF0F5
S315080093D0500383F31188BFF36F8FBFF34F8F7B6002
S315080093E000BFFFF7D7FB0346002B03D0064B4FF011
S315080093F080521A6000233B603B6883F3118800BFE4
S3150800940000BF0837BD4680BD04ED00E080B400AF5C
S315080094100B4B00221A600B4B00221A600A4B1B6882
S315080094200A4AA2FB03239B09094A013B1360044B22
S3150800943007221A6000BFBD465DF8047B704700BF6F
S3150800944010E000E018E000E000000020D34D6210B4
S3150800945014E000E0DFF80C00016841F470010160D7
S31508009460704700BF88ED00E080B58AB000AF78602D
S315080094700023FB61FFF7E4FA5B4B1B68002B01D165
S3150800948000F020F9594B1A687B681340002B40F00E
S3150800949093807B68002B1DD008227B6813447B6071
S315080094A07B6803F00703002B14D07B6823F00703BF
S315080094B008337B607B6803F00703002B0AD04FF064
S315080094C0500383F31188BFF36F8FBFF34F8F7B6110
S315080094D000BFFEE77B68002B6ED0454B1B687A6899
S315080094E09A4269D8434B3B62424B1B687B6204E055
S315080094F07B6A3B627B6A1B687B627B6A5B687A680D
S315080095009A4203D97B6A1B68002BF1D1364B1B683C
