S017000032302D31302D312D342D302D302D352E7372656342
S3150800400000000120D14E0008D94C0008DD4C0008FC
S31508004010E14C0008E54C0008E94C000800000000E7
S3150800402000000000000000000000000001930008E6
S31508004030ED4C00080000000091930008F593000875
S31508004040214F0008214F0008214F0008214F000882
S31508004050214F0008214F0008214F0008214F000872
S31508004060214F0008214F0008214F0008214F000862
S31508004070214F0008214F0008214F0008214F000852
S31508004080214F0008214F0008214F000800000000BA
S31508004090000000000000000000000000F14C0008CD
S315080040A0214F0008214F0008F94C0008214F00084D
S315080040B0054D0008114D0008214F0008214F000842
S315080040C0214F0008214F0008214F00081D4D000808
S315080040D0214F0008214F0008214F0008000000006A
S315080040E0214F0008214F0008214F0008000000005A
S315080040F0000000000000000000000000214F00083A
S3150800410000000000214F0008214F0008214F000839
S315080041100000000000000000000000000000000091
S31508004120294D0008214F0008214F0008354D000889
S31508004130214F0008000000000000000000000000F9
S31508004140000000000000000000000000214F0008E9
S31508004150214F0008214F0008214F0008214F000871
S31508004160214F0008214F0008000000000000000051
S315080041700000000000000000000000000000000031
S3150800418000000000214F00080000000000000000A9
S31508004190214F000800000000000000000000000099
S315080041A00000000000000000000000000000000001
S315080041B000000000000000000000000000000000F1
S315080041C000000000000000000000000000000000E1
S315080041D00000000000000000FFFFFFFFEE11AA55D7
S315080041E010B5054C237833B9044B13B10448AFF323
S315080041F000800123237010BDF80100200000000094
S315080042001C98000808B5034B1BB103490348AFF3D4
S31508004210008008BD00000000FC0100201C98000872
S3150800422053B94AB9002908BF00281CBF4FF0FF310F
S315080042304FF0FF3000F072B9ADF1080C6DE904CE0D
S3150800424000F006F8DDF804E0DDE9022304B0704763
S315080042502DE9F047089E04468846002B4BD18A4232
S31508004260154667D9B2FA82F24AB1C2F1200701FAB5
S3150800427002F320FA07F7954047EA030894404FEA05
S31508004280154E230CB8FBFEF71FFA85FC0EFB1788A4
S3150800429043EA084307FB0CF1994209D9EB1807F1E1
S315080042A0FF3080F01B81994240F21881023F2B446F
S315080042B05B1AA4B2B3FBFEF00EFB103344EA0344C8
S315080042C000FB0CFCA44509D92C1900F1FF3380F03A
S315080042D00781A44540F2048102382C4440EA07408D
S315080042E0A4EB0C0400271EB1D4400023C6E9004302
S315080042F03946BDE8F0878B4209D9002E00F0EB80DD
S315080043000027C6E9000138463946BDE8F087B3FA02
S3150800431083F7002F47D18B4202D3824200F2FA80FC
S31508004320841A61EB030301209846002EE0D0C6E903
S315080043300048DDE702B9FFDEB2FA82F2002A40F051
S315080043408F80491B4FEA154E1FFA85F80127B1FBE6
S31508004350FEFC230C0EFB1C1143EA014308FB0CF17F
S31508004360994207D9EB180CF1FF3002D2994200F2B4
S31508004370CD808446591AA3B2B1FBFEF00EFB101489
S3150800438043EA044408FB00F8A04507D92C1900F1B4
S31508004390FF3302D2A04500F2B6801846A4EB080403
S315080043A040EA0C409FE7C7F1200CBB4022FA0CFEFE
S315080043B04EEA030E01FA07F420FA0CF521FA0CF37B
S315080043C04FEA1E482543B3FBF8F92C0C08FB1933B2
S315080043D01FFA8EFA44EA034309FB0AF49C4202FADE
S315080043E007F200FA07F10BD91EEB030309F1FF30B8
S315080043F080F087809C4240F28480A9F102097344C8
S315080044001B1BADB2B3FBF8F008FB103345EA0344B7
S3150800441000FB0AFAA24508D91EEB040400F1FF3393
S315080044206BD2A24569D90238744440EA0940A0FB18
S315080044300289A4EB0A044C45C2464B4654D351D0D4
S31508004440002E69D0B1EB0A0564EB030404FA0CFCF0
S31508004450FD40FC404CEA0505C6E90054002747E73D
S31508004460C2F1200320FA03F7954001FA02F021FA77
S3150800447003F34FEA154E3843010CB3FBFEF71FFA58
S3150800448085F80EFB173341EA034107FB08F38B4215
S3150800449004FA02F407D9691807F1FF3C2FD28B42B8
S315080044A02DD9023F2944CB1A81B2B3FBFEF00EFB8D
S315080044B0103341EA034100FB08F38B4207D9691818
S315080044C000F1FF3C17D28B4215D902382944C91A84
S315080044D040EA07473BE73746304609E70746E7E637
S315080044E01846FBE64145ABD2B8EB020A69EB0E0269
S315080044F001381346A4E76046E9E7184695E7674694
S31508004500D1E781467CE702382C4447E7ACF1020C38
S315080045102B442FE7384608E73746E9E6704700BFD9
S3150800452010B5174B174A184C1A6084B04FF48031EF
S3150800453000225960184601219C629A6000921A610D
S315080045401A7683F82020DA62DA6083F83020CDE91B
S3150800455001220392D961596100F010FD68B9002360
S315080045600122694606480093CDE9012300F028FE9A
S3150800457008B100F0A5FA04B010BD00F0A1FAEEE704
S31508004580404C0020002001400100000F30B50268B1
S315080045901E4B89B000249A42CDE90344CDE905446F
S315080045A0079401D009B030BD03F58C3300945A6CDA
S315080045B0174842F480725A645A6C02F48072009268
S315080045C0009A01941A6B42F001021A631A6B02F000
S315080045D001020192019A02941A6B42F002021A63CE
S315080045E01B6B03F00203029303250F2303A9029A08
S315080045F0CDE9033501F0EEF803A906480594CDE99F
S31508004600035501F0E7F809B030BD00BF00200140AE
S31508004610000002400004024010B582B000240F4B8F
S3150800462001941A6B42F480021A631B6B03F480032D
S315080046302246019305213820019B00F07BFE382095
S3150800464000F0AEFE224605213B2000F073FE3B201B
S3150800465002B0BDE8104000F0A3BE00BF003802401B
S3150800466008B502F053FC012003F04EFBF9E700BF42
S3150800467010B58AB002F0C0FF03F0B0FA202200217C
S3150800468002A805F0C2F8084B01934FF400641823FA
S3150800469001AA00210548CDE9064303F0DBFA044BDD
S315080046A018600AB010BD00BF3498000861460008BB
S315080046B0884C00202DE9F04100248AB0CDE9054454
S315080046C0CDE90744434B009409941A6B424F434D76
S315080046D0DFF8108142F004021A631A6B02F0040232
S315080046E00092009A01941A6B42F080021A631A6BC0
S315080046F002F080020192019A02941A6B42F00102BA
S315080047001A631A6B02F001020292029A03941A6B58
S3150800471042F002021A631A6B02F002020392039A2B
S3150800472004941A6B42F008021A631B6B03F0080321
S3150800473004932246384642F2FF01049B01F030F901
S31508004740224628464FF2A04101F02AF92246404661
S315080047504FF41F4101F024F9112605A93846FF2315
S31508004760CDE90536CDE9074401F034F84FF4005297
S31508004770384605A90123CDE90523CDE9074401F00B
S3150800478029F805A928464FF2A0430593CDE9066402
S31508004790089401F01FF8404605A94FF41F430593F6
S315080047A0CDE90664089401F015F80D4B079405A9A0
S315080047B028464022CDE9052301F00CF822460521BA
S315080047C0172000F0B7FD172000F0EAFD0AB0BDE893
S315080047D0F08100BF00380240000802400004024091
S315080047E000001110000002400C4B0D4A10B54FF4A2
S315080047F080410C4C1A60184600225C601961C3E9B6
S315080048000222C3E90522C3E9072201F0DBF800B951
S3150800481010BDBDE8104000F053B900BF8C4C002015
S3150800482000540040A086010070B50268184B88B095
S3150800483000249A42CDE90344CDE90544079401D002
S3150800484008B070BD134D01942B6B134843F0020357
S315080048502B632B6B03F0020301934FF4407303930E
S3150800486012220123049205930322042303A9CDE906
S315080048700623019E00F0AEFF02942B6C43F400134E
S315080048802B642B6C03F400130293029B08B070BDD3
S3150800489000540040003802400004024030B50024AD
S315080048A095B0CDE90A44CDE90444CDE906441F4B49
S315080048B001940C940394196C1D4A41F080511964B3
S315080048C01B6C03F080530193019B0294136823F435
S315080048D0404343F400431360136803F440430293D0
S315080048E0092308934FF4803101224FF480030225EF
S315080048F0029809910D92062154220F9308A80423C1
S315080049001091119213930E95129501F013F90F2237
S315080049104FF4805303A82946CDE90454079403921B
S31508004920069301F0F7FA15B030BD00BF0038024013
S315080049300070004008B500F0F5FAFFF7AFFFFFF783
S31508004940B9FEFFF769FEFFF74FFF00F0BBF800F06E
S3150800495019FA00F04BFAFFF7E3FD02F0C5FFFFF77F
S3150800496087FE03F055F9FEE70268034B9A4200D02A
S31508004970704703F003B800BF00300140704700BF1E
S3150800498038B50368B3F1804F044617D0434A9342BB
S3150800499000D038BD257F042D1BD0082DF9D1022162
S315080049A03F4800F0F7FF3F4B1B680128586A6ED056
S315080049B001220521BDE8384002F060BD057F012DC2
S315080049C045D0022D34D0042D21D0082D11D02368CE
S315080049D0DCE70121324800F0DDFF324B1B68012875
S315080049E02946586A0CBF0022012202F047FD257F9E
S315080049F0D3E729462C4800F0CDFF2A4B1B6801282F
S31508004A00186C3ED00122032102F038FDDFE7294663
S31508004A10254800F0BFFF234B1B68012808BF00226A
S31508004A20D86B18BF0122022102F028FD257FCCE7AA
S31508004A3029461D4800F0AEFF1A4B01281B6818D0FE
S31508004A400122986B114602F019FD257FBBE729461E
S31508004A50154800F09FFF134B01281B680CBF002266
S31508004A602A46586B0CBF1146002102F007FD257F28
S31508004A70A7E79B6B01460022184602F0FFFC257F3C
S31508004A80A1E70022032102F0F9FC23687EE7002251
S31508004A900521BDE8384002F0F1BC00BF0004004023
S31508004AA000040240784E0020000002400268034BD2
S31508004AB09A4200D0704700F04FBA00BF0048014044
S31508004AC0704700BF08B50C4B0C4A1A600A21002231
S31508004AD01846D962C3E90122C3E90322C3E90522BC
S31508004AE0C3E908229A6201F099FB00B908BDBDE83E
S31508004AF00840FFF7E5BF00BFE04C0020003001404A
S31508004B002DE9F04302683F4B89B000249A42CDE96B
S31508004B100344CDE90544079402D009B0BDE8F08303
S31508004B2003F5843301945A6C374D42F480525A6423
S31508004B305A6C02F480520192019A02941A6B42F05E
S31508004B4001021A631B6B03F001030293102201236F
S31508004B504FF002094FF0030802990392052703A9AB
S31508004B6006462A48CDE90493CDE9068700F032FEC9
S31508004B70E02303A925480393CDF81090CDE90687CD
S31508004B80059400F027FE2249AC604FF0C0624FF44E
S31508004B9080632846EC60C5E90544C5E907446C62AC
S31508004BA0C5E900122B6100F009FC20BB194C1A4814
S31508004BB020604FF0C06340214FF480626360F56463
S31508004BC000232046AE63A160C4E90332C4E9053375
S31508004BD0C4E90733636200F0F1FB78B900220521C6
S31508004BE0B4642320A66300F0A5FB232000F0D8FBBD
S31508004BF009B0BDE8F083FFF763FFD7E7FFF760FF6B
S31508004C00ECE700BF00300140384D002000000240AC
S31508004C1010640240984D00205864024082B00E4B42
S31508004C2000220092596C41F480415964596C01F490
S31508004C308041009100990192196C41F080511964E4
S31508004C401B6C03F080530193019B0F216FF0010049
S31508004C5002B000F06FBB00BF0038024030B5014615
S31508004C6089B000221A2000F065FB1A2000F098FB94
S31508004C700025154B02955A6C144C42F480225A644E
S31508004C805B6C03F4802301A9029303A8029B01F03D
S31508004C90FBF901F0E9F90E4B0E492561A3FB002348
S31508004CA09B0C013B40F2E7322046C4E901352160FE
S31508004CB0E26001F0BDFE10B1012009B030BD20460A
S31508004CC001F0CCFC09B030BD00380240F84D002098
S31508004CD083DE1B4300480140704700BFFEE700BF64
S31508004CE0FEE700BFFEE700BFFEE700BF704700BF54
S31508004CF0402000F05BBE00BF014801F0A3BD00BF25
S31508004D00F84D0020014801F09DBD00BF784E0020F7
S31508004D10014801F097BD00BF384E0020014801F058
S31508004D20F1BB00BFE04C0020014800F07DBC00BF8D
S31508004D30384D0020014800F077BC00BF984D002090
S31508004D400D490E4BD1F888200D4842F47002C1F87F
S31508004D5088201A68002142F001021A6099601A68D0
S31508004D6022F0847222F480321A6058601A6822F49B
S31508004D7080221A60D960704700ED00E000380240D2
S31508004D801030002400B5184A87B000234FF0804140
S31508004D901046C2E9001302930093C2E90233136175
S31508004DA09361CDE903330593019301F041FEB8B948
S31508004DB04FF4805302A90C48029301F097FC60B99E
S31508004DC0002369460848CDE9003301F027FF08B1FA
S31508004DD0FFF776FE07B05DF804FBFFF771FEEFE715
S31508004DE0FFF76EFEE4E700BF784E002000B5174ACD
S31508004DF0174B136087B00023104653600293009345
S31508004E00C2E9023313619361CDE903330593019334
S31508004E1001F00EFEB8B94FF4805302A90B4802936D
S31508004E2001F064FC60B9002369460848CDE90033FF
S31508004E3001F0F4FE08B1FFF743FE07B05DF804FB86
S31508004E40FFF73EFEEFE7FFF73BFEE4E7384E0020AC
S31508004E500004004000B50368B3F1804F83B01BD04F
S31508004E60194A934202D003B05DF804FB0022174B9F
S31508004E700192196C41F0020119641B6C03F00203DC
S31508004E80019305211D20019B00F054FA1D2003B053
S31508004E905DF804EB00F084BA002203F50E330092A5
S31508004EA0196C41F0010119641B6C03F001030093AE
S31508004EB005211C20009B00F03DFA1C2003B05DF87C
S31508004EC004EB00F06DBA00BF000400400038024051
S31508004ED0DFF834D0002103E00C4B5B584350043113
S31508004EE00B480C4B42189A42F6D30B4A02E00023B1
S31508004EF042F8043B094B9A42F9D3FFF721FF04F025
S31508004F0055FCFFF717FD704700000120B49800080C
S31508004F1000000020F8010020F80100206C4F002056
S31508004F20FEE7000008B50B4B1A6842F400721A60D7
S31508004F301A6842F480621A601A6842F480721A602B
S31508004F40032000F0E5F90020FFF788FEFFF766FE6C
S31508004F50002008BD003C0240034A044B11681B7838
S31508004F600B441360704700BFB84E002004000020B1
S31508004F70014B1868704700BFB84E0020002800F0A3
S31508004F809180F8B5056C0446002D00F08180236CED
S31508004F90DB0604D50023012084F83C30F8BD226CDA
S31508004FA04D4923684D4D22F4885222F0020242F000
S31508004FB0020222644A6822F440324A604A686068FB
S31508004FC002434A6058682169A768E66820F4807039
S31508004FD058605A6842EA01225A60586820F04070C0
S31508004FE058605968A06A39435960996821F4006184
S31508004FF099609A68A84242EA06029A6054D099686B
S31508005000E56A21F0706199609A681043986099681A
S3150800501021F0405199609A682A439A609968257EDA
S3150800502094F8200021F0020199609A6842EA450244
S315080050309A605A68002840D122F400625A60DA6AF7
S31508005040E56994F83070666922F47002DA62D86A03
S31508005050013D40EA0550D862986820F400709860CF
S31508005060996841EA47219960996821F480619960B5
S315080050709A68002042EA86229A606064236C23F0CC
S31508005080030343F001032364002384F83C30F8BD8E
S31508005090FFF77CFA6564236C84F83C50DB063FF521
S315080050A079AF7CE7012070479A6822F070629A60AF
S315080050B09A6822F040529A60B0E742F40062616A48
S315080050C05A605A6822F460425A605A68013942EABC
S315080050D041325A60B3E700BF002301400100000FC8
S315080050E010B490F83C3083B00022012B019255D0C1
S315080050F0026893680121DB0780F83C1014D42A4B18
S315080051002A4C1B689168A4FB03439B0C03EB4303DF
S3150800511041F0010191600193019B2BB1019B013B79
S315080051200193019B002BF9D19368DC0725D5036C05
S3150800513023F4E06323F0010343F4807303645368A4
S31508005140590505D5036C23F4405343F4805303648F
S31508005150036C13F480531CBF436C23F006034364AB
S3150800516000246FF02201124B80F83C4011605B6806
S31508005170DB0607D00F4B9A4204D0002003B05DF837
S31508005180044B7047906810F04050F6D1936843F08E
S315080051908043936003B05DF8044B7047022003B068
S315080051A05DF8044B704700BF0000002083DE1B43F8
S315080051B000230140002001400368D86C704700BFF7
S315080051C0F0B490F83C3082B00022012B019200F036
S315080051D095800D688A6803680124092DAFB280F8A6
S315080051E03C4029D81C6905EB45064FF0070C0CFA1C
S315080051F006FC24EA0C041C611C6902FA06F626431E
S315080052001E614E68062E06EB86022AD8596B053AA9
S315080052101F24944021EA04015963596B07FA02F2E4
S315080052200A435A63374A93422DD0002380F83C300C
S31508005230184602B0F0BC704707EB4706DC681E3E0E
S315080052404FF0070C0CFA06FC24EA0C04DC60DC6858
S3150800525002FA06F62643DE604E68062E06EB86023E
S31508005260D4D90C2E35D8A2F123041F211A6BA140DC
S3150800527022EA01021A63196B07FA04F20A431A634F
S31508005280204A9342D1D1122D31D0A5F11003012B1A
S31508005290CBD81D4A5368102D43F400035360C4D17C
S315080052A01A4B02F1467202F52E321B6802F283325D
S315080052B0A2FB03239B0C03EB83035B000193019B77
S315080052C0002BB2D0019B013B0193019B002BF9D126
S315080052D0ABE7A2F141011F24DA6A8C4022EA0402F4
S315080052E0DA62DC6A07FA01F22243DA629AE7D2F84E
S315080052F0043343F48003C2F8043396E7022002B06D
S31508005300F0BC704700200140002301400000002047
S31508005310074AD3684FF6FF010B40000243F0BF630C
S3150800532000F4E06043F400330343D360704700BFE2
S3150800533000ED00E0184BDB68C3F3022330B4C3F179
S315080053400705042D03F1040428BF0425062C19D9E2
S31508005350033B4FF0FF349C4022EA04044FF0FF322F
S31508005360AA4021EA020101FA03F2224312010028A7
S31508005370D2B20ADB00F1604000F5614080F80023F4
S3150800538030BC704700242346E8E7044B00F00F00C2
S3150800539003441A7630BC704700ED00E0FCEC00E0F0
S315080053A0002807DB00F01F0101234009024A8B4051
S315080053B042F82030704700BF00E100E0F8B5044627
S315080053C0FFF7D6FD002C54D00222236884F8352036
S315080053D01A68002122F0010284F8341005461A6082
S315080053E005E0FFF7C5FD401B05283BD823681A686A
S315080053F0D107F6D4D4E90126D4E9035132436069CA
S315080054001F682A43D4E906650A430243216A3548D8
S3150800541032432A430A43616A3840042942EA0002B1
S3150800542029D01A605A6922F007021143DAB22E48C7
S315080054305961103AA0FB021212092C4923F47F7312
S31508005440895CE16523F00303032A88BF04333F22FE
S315080054508A4001250021A36508469A60616584F89B
S315080054603550F8BD032320226265184684F8353086
S31508005470F8BD0120F8BDD4E90B0101430A43A56A2A
S315080054801A605A6945F0040122F007021143002800
S31508005490CCD07EB1B6F5005F16D0022D03D9032D08
S315080054A0C4D1C201C2D5012340226265184684F8D8
S315080054B03530F8BD012D03D0F3D3022DB6D1F0E770
S315080054C0B0F1C07FB2D1EEE7032DAFD801A252F8F2
S315080054D025F000BFA7540008A3540008A7540008E5
S315080054E0C15400083F8010F0ABAAAAAA5898000831
S315080054F0F0B490F83440012C39D090F83540866DD8
S315080055000125AC4280F834502BD1046802270025C7
S3150800551080F8357045652568876825F48025402F0D
S31508005520256063600ABFA260A160E160C16D18BF13
S31508005530E2603F238B40026CB360236843F0160396
S315080055402360636943F0800363611AB1236843F0FB
S3150800555008032360236843F0010323600020F0BC9E
S315080055607047002380F83430F0BC022070470220D0
S31508005570F0BC704770B50446866DFFF7F9FC94F8E1
S315080055803530022B06D080220023626584F8343039
S31508005590012070BD2368216C1A6822F016021A6071
S315080055A05A6922F0800205465A6131B31A6822F018
S315080055B008021A601A6822F001021A6005E0FFF76D
S315080055C0D7FC401B05280FD823681B6813F0010376
S315080055D0F5D1E16D3F228A400121B260184684F870
S315080055E0343084F8351070BD20220023032062650C
S315080055F084F8343084F8350070BDA26C002AD5D101
S31508005600D8E700BF90F83530022B03D080234365D6
S31508005610012070470268052380F83530136823F0A7
S315080056200103136000207047F0B583B00023876D2F
S315080056300193C36D3D68654908229A402A4204468B
S315080056400E6803D001680868400759D401229A40B9
S315080056502A4203D021684969080674D404229A406C
S315080056602A4203D021680968890766D410229A401D
S315080056702A4203D02168086800074BD420229A40A2
S315080056802A4214D021680868C00610D5BA6094F872
S315080056903520052A63D00B6813F4802F0B687ED05B
S315080056A0190340F18980E36B0BB120469847636D77
S315080056B023B3636DDA071AD50523226884F83530D3
S315080056C01368434923F00103A1FB06161360B60AC3
S315080056D002E01368DB0704D5019B0133B34201934B
S315080056E0F7D90022012384F8342084F83530E36C96
S315080056F023B1204603B0BDE8F040184703B0F0BD1B
S31508005700086820F004000860BA60626D42F0010281
S3150800571062659BE7BA600A6812F4802F0A6818D196
S31508005720D20503D40A6822F008020A60226C002A0D
S31508005730A4D020469047E36DA0E7BA60626D42F0B8
S315080057400402626592E7BA60626D42F0020262651F
S3150800575084E71103EAD5A26C002AEAD18EE70A6823
S31508005760206C22F016020A604A6922F080024A6119
S3150800577038B30A6822F008020A603F22216D02FA4D
S3150800578003F300200122BB6084F8340084F8352036
S315080057900029B3D0204603B0BDE8F040084713F40B
S315080057A0807380D10A68012022F010020A6084F80A
S315080057B0343084F8350076E7636C002B7FF475AFD8
S315080057C075E7A26C002AD4D1D7E700BF00000020F5
S315080057D0B5814E1B2DE9F04FDFF8B4C1D1F8008032
S315080057E083B08E4600254FF0010902E00135102DE1
S315080057F07ED009FA05F308EA03018B42F6D1DEF8F2
S31508005800044024F0100ABAF1020F74D06F00032284
S31508005810D0F800B0BA40D24304F0030602EA0B0BF4
S31508005820BE400AF1FF3A46EA0B06BAF1010F0660D6
S3150800583040F28280C668DEF808303240BB40134327
S31508005840E700C360D2D54D4A00230193536C43F455
S3150800585080435364536C25F0030606F1804603F42F
S31508005860804306F59C36019305F00302019BB76851
S3150800587092000F23934027EA0303414FB84211D001
S3150800588007F58067B8426AD03E4FB8426BD03E4FA4
S31508005890B8426DD03D4FB8420CBF0427072707FA18
S315080058A002F21343B360DCF80030CA43E60354BF80
S315080058B013400B43CCF80030DCF80430A70354BF80
S315080058C013400B43CCF80430DCF80830E60254BF2A
S315080058D013400B43CCF80830DCF80C30A40205F171
S315080058E0010554BF13400B43102DCCF80C3080D162
S315080058F003B0BDE8F08FEF0800EB870705F0070651
S315080059003A6AB6004FF00F0B0BFA06FB22EA0B0AAF
S31508005910DEF81020B24042EA0A023A626F00032219
S31508005920D0F800A0BA40D24304F0030602EA0A0AF5
S31508005930BE4046EA0A060660866806EA020ADEF8F5
S315080059400C60BE4046EA0A068660D0F804A0C4F396
S3150800595000162AEA0303AE401E4346606AE709FAC0
S3150800596002F213439EE7022707FA02F2134399E766
S31508005970032707FA02F2134394E700BF00380240F0
S315080059800000024000080240000C024000100240DD
S31508005990003C01400369194214BF012000207047EA
S315080059A002B9090481617047704700BF044A51690A
S315080059B0014200D1704708B55061FFF7F5FF08BDF1
S315080059C0003C0140002800F09780F8B590F83D307B
S315080059D0044603F0FF02002B00F087802268242388
S315080059E084F83D30136823F00103136000F02CFBA4
S315080059F061684B4B99424BD84A4B98427AD92268F0
S31508005A00494B5568A3FB00639B0C25F03F051D43D6
S31508005A105560156A013325F03F052B431362D56996
S31508005A204900431EB3FBF1F30133C3F30B0325F41B
S31508005A304F45042B38BF042325F0FF052B43D361BC
S31508005A40D4E907351068216920F0C0002B430343C9
S31508005A5013609068E568636920F4034020F0FF004E
S31508005A60294301439160D168A06921F0FF010343EE
S31508005A700B43D3601168002341F001012025116012
S31508005A801846236484F83D50236384F83E30F8BDF5
S31508005A90264B98422ED92268234B5668244FA3FBDF
S31508005AA000539D0C26F03F062E434FF4967356601E
S31508005AB003FB05F3A7FB0353156AA6689B0925F0A4
S31508005AC03F0501332B431362D56925F44F45013849
S31508005AD025F0FF0596B901EB4101B0FBF1F0013065
S31508005AE0C0F30B00C0B90123A8E780F83C20FEF7F5
S31508005AF09BFE73E70120F8BD0120704701EB810189
S31508005B0001EB8101B0FBF1F00130C0F30B00002876
S31508005B10E9D040F4404391E740F400438EE700BFE4
S31508005B20A08601007F841E0083DE1B43FF083D001C
S31508005B30D34D6210002800F032812DE9F041036848
S31508005B40DD0782B004462FD5AC498A6802F00C02FC
S31508005B50042A00F0EA808A6802F00C02082A00F09B
S31508005B60E0806368B3F5803F00F0E980B3F5A02FC5
S31508005B7000F05481A14D2A6822F480322A602A68EE
S31508005B8022F480222A60002B40F0DE80FFF7F0F92D
S31508005B90064605E0FFF7ECF9801B642800F2F28060
S31508005BA02B689B03F6D423689F0775D41A0715D567
S31508005BB06369002B00F0A580914B904D01221A6075
S31508005BC0FFF7D6F9064605E0FFF7D2F9801B02284B
S31508005BD000F2D8806B6F9B07F6D5236858073BD52C
S31508005BE0864A136C13F0805340F0DB800193136CE4
S31508005BF043F080531364136C03F080530193019BA5
S31508005C000126804D2A68D10540F1AC80A368012B96
S31508005C1000F0C980052B00F00B81784D2A6F22F021
S31508005C2001022A672A6F22F004022A67002B40F035
S31508005C30BF80FFF79DF941F28837804606E0FFF7F7
S31508005C4097F9A0EB0800B84200F29C802B6F9807E2
S31508005C50F5D4002E40F0DC80A269CAB1674DA96868
S31508005C6001F00C01082948D0022A674A4FF00001C2
S31508005C70116000F0E780FFF77BF92C46054604E043
S31508005C80FFF776F9401B02287CD823689B01F7D4D6
S31508005C90002002B0BDE8F081584A916811F00C0F57
S31508005CA024D0916801F00C0108291CD0E368002B68
S31508005CB000F09280554B514D01221A60FFF758F9B2
S31508005CC0064604E0FFF754F9801B02285AD82B68C9
S31508005CD09807F7D52B68226923F0F80343EAC2032D
S31508005CE02B60236862E752685602DFD4434A12687B
S31508005CF095074BD5E268012A48D0012002B0BDE8D5
S31508005D00F0813F4A3D4D1360FFF732F9064604E03D
S31508005D10FFF72EF9801B022834D86B6F9F07F7D43C
S31508005D205BE74A6850027FF51CAF344A1268910354
S31508005D307FF53AAF6268002A7FF436AFDDE72F4A6F
S31508005D40136843F480331360FFF712F92B4D0646A8
S31508005D5004E0FFF70DF9801B642813D82B689A0313
S31508005D60F7D520E72A6842F480722A60FFF700F91F
S31508005D7007462B68DA053FF549AFFFF7F9F8C01B68
S31508005D800228F6D9032002B0BDE8F0811B49206934
S31508005D900A6822F0F80242EAC0020A6006E7012011
S31508005DA0704700262DE7154A136F43F00103136762
S31508005DB0FFF7DEF8114D804641F2883705E0FFF718
S31508005DC0D7F8A0EB0800B842DCD82B6F9B07F6D5AE
S31508005DD0002E3FF441AF1BE00C4A084D1360FFF755
S31508005DE0C7F8064604E0FFF7C3F8801B0228C9D89F
S31508005DF02B689907F7D42368D8E600BF0038024015
S31508005E00800E47420070004060004742000047424B
S31508005E10234A136C23F0805313641DE7204B1A683A
S31508005E2042F480221A601A6842F480321A608BE7BC
S31508005E301B4B1A6F42F004021A671A6F42F00102EE
S31508005E401A67B5E7FFF794F8064604E0FFF790F8F7
S31508005E50801B022896D82B689901F7D4D4E907360F
S31508005E60D4E90902E16A0E4C334343EA8013520827
S31508005E7043EA0163013A0B4943EA024301226B6094
S31508005E800A60FFF775F8054605E0FFF771F8401B4D
S31508005E9002283FF677AF23689A01F6D5F8E600BFE1
S31508005EA00038024060004742174908B58B6803F07E
S31508005EB00C03042B1BD0082B17D14A684B6813F424
S31508005EC0800302F03F0214D149681048C1F38811D3
S31508005ED0A1FB0001FEF7A4F90B4B5B68C3F3014372
S31508005EE001335B00B0FBF3F008BD084808BD08485D
S31508005EF008BD4B680648C3F38813A3FB00010023BB
S31508005F00FEF78EF9E8E700BF003802400024F400E7
S31508005F10001BB70060B1484A136803F00F038B42B1
S31508005F2008D2CBB21370136803F00F038B4201D06B
S31508005F300120704703682DE9F0419D0714D55C07D9
S31508005F4004D53E4CA26842F4E052A2601A0704D572
S31508005F503A4CA26842F46042A260384C8568A2684E
S31508005F6022F0F0022A43A260DF0704460D4622D536
S31508005F704268012A56D0931E012B304B1B6858D90C
S31508005F80990725D52D4EB36823F003031343B36051
S31508005F90FEF7EEFF41F28837804605E0FEF7E8FF98
S31508005FA0A0EB0800B84242D8B368626803F00C0355
S31508005FB0B3EB820FF2D1204A136803F00F03AB420A
S31508005FC009D9EBB21370136803F00F03AB4202D082
S31508005FD00120BDE8F08123685A0706D51749E0680D
S31508005FE08A6822F4E05202438A601B0711D4FFF73D
S31508005FF05BFF124B12499B68124AC3F30313CB5C2F
S3150800600020FA03F300201360FEF728FE0020BDE8FF
S31508006010F0810A4A2169936823F4604343EAC1037D
S315080060209360E4E7054B1B689E03ABD4D0E70320D7
S31508006030EDE79801A6D4CBE7003C024000380240C1
S315080060404098000800000020044B054A9B68054953
S31508006050C3F382230868D35CD840704700380240EF
S315080060605098000800000020044B054A9B68054923
S31508006070C3F342330868D35CD840704700380240FF
S3150800608050980008000000200E4B0F2202609A6804
S3150800609002F0030242609A6802F0F00282609A688F
S315080060A002F4E052C2609B68DB0810B403F4E053C4
S315080060B0054C036123685DF8044B03F00F030B607E
S315080060C0704700BF00380240003C02402DE9F0410D
S315080060D007460D46164698463C6801E0731C06D1ED
S315080060E0A06835EA0003F9D00020BDE8F081FEF784
S315080060F03FFFA0EB08008642EED8D7E900315A6880
S31508006100B1F5827F22F0E0025A6014D0BA6AB2F57D
S31508006110005F07D00122002387F8512087F8503006
S315080061200320E2E71A6822F400521A601A6842F459
S3150800613000521A60EEE7BA68B2F5004F02D0B2F51F
S31508006140806FE3D11A6822F040021A60DEE700BFCA
S3150800615070B54568B5F5827F0446134606D00A46EB
S315080061600121FFF7B3FF98B9002070BD8268B2F528
S31508006170004F13D0B2F5806F15D10668356825F043
S3150800618040050A4635600121FFF7A0FF0028EBD03D
S31508006190636D43F020036365032070BD00680268E1
S315080061A022F0400202600A4620468021FFF78EFF51
S315080061B00028EDD10020D8E7164B30B51B68164DE0
S315080061C0A5FB03535B0D4FF47A7505FB03F345688E
S315080061D083B0B5F5827F0446019307D10CE0019B95
S315080061E02268013B019393681B0602D5019B002B8D
S315080061F0F5D1002003B030BD13460A468021FFF7CB
S3150800620065FF0028F5D0636D43F02003636503201E
S31508006210F0E700BF00000020819F5E1600283BD0F3
S3150800622090F85120002370B502F0FF0104468362FE
S3150800623062B31846D4E90135D4E903212B43134345
S315080062406269E569266A0B431343A26921682B43F1
S31508006250022584F85150334302F400750E682B4327
S31508006260120C656A02F0040203432A4326F040062C
S315080062700E600B604A60CB69002223F40063012597
S31508006280CB611046626584F8515070BD80F8501095
S31508006290FEF736FCA06ACDE70120704738B590F8BE
S315080062A05040012C4ED0044690F851000125C0B24A
S315080062B0A84284F850500DD06568B5F5827F04D0A1
S315080062C00220002384F8503038BDA568002DF7D188
S315080062D00428F5D1002933D0002A31D0002B2FD03D
S315080062E094F85100216304281CBF052084F8510046
S315080062F000206065E386E38794F85150A386042D51
S31508006300A387C4E9100008BF2149E06C0EBF214BE2
S315080063102149224BA263224DC0E90F312168E38F40
S31508006320C56400250C310565FFF7E2F860B1636DB9
S31508006330012243F010036365104684F85120C0E734
S315080063400120BEE7022038BD2268A56C5368216B80
S3150800635043F001035360E38E2864E863C5E913003C
S315080063600C322846FFF7C4F80028E0D123681A68DB
S31508006370520603D41A6842F040021A605A6842F07C
S3150800638020025A605A6842F002025A6099E700BF32
S31508006390116400085564000821640008A96400080F
S315080063A03164000890F85020012A034609D0006895
S315080063B04268002142F003024260084683F8501002
S315080063C070470220704700BF38B50446806C10B18C
S315080063D0FFF7D0F8A0B90025E06C38B1FFF7CAF886
S315080063E020B1636D43F01003636501252268536885
S315080063F0012123F003035360284684F8511038BD61
S31508006400636D43F0100363650125E5E7704700BF38
S3150800641008B5806BFFF7FAFF08BD00BF704700BFDD
S3150800642008B5806BFFF7FAFF08BD00BF704700BFCD
S3150800643008B5836B19684A6822F003024A605A6DE8
S31508006440012142F010025A65184683F85110FFF7E9
S31508006450EDFF08BD38B50546846BFEF789FD2B6848
S315080064601B68DB0517D42368596821F02001596099
S31508006470596821F003010246596020466421FFF756
S3150800648067FE08B12023636501230022E28784F8AA
S315080064905130636D1BB92046FEF770FA38BD2046A9
S315080064A0FFF7C4FF38BD00BF38B50546846BFEF755
S315080064B05FFD2B681B68DB051BD421684B6823F03E
S315080064C0200302464B6020466421FFF775FE18B18B
S315080064D0636D43F02003636521684B68002223F04F
S315080064E0030301204B60E286E28784F85100636D5E
S315080064F01BB92046FEF738FA38BD2046FFF796FF47
S3150800650038BD00BF30B501684D688B68C3F3801489
S3150800651085B0024654B913F0010F07D015F0400FA5
S3150800652004D0036C05B0BDE830401847980707D576
S31508006530280605D5536C104605B0BDE83040184707
S31508006540C3F3401000283DD1002C4ED0AC0637D5F9
S3150800655092F85140032C5AD0546D44F00404546503
S315080065600090C8680090886800900098C3F30023DC
S31508006570002B3ED1536D1BB34B68144623F0E00342
S315080065800122AD074B6084F8512048D04B68E06C77
S3150800659023F003034B6040B12A4B0365FFF732F83B
S315080065A018B1636D43F040036365A06C40B1254B99
S315080065B00365FFF727F818B1636D43F04003636579
S315080065C005B030BDA806FBD5ECB9C3F30023506D62
S315080065D0002440F00100506502948868029008681B
S315080065E020F0400008600298C2E7DC05E8D5AB0653
S315080065F0E6D5536D002043F00803536503908B6876
S315080066000393039BB6E792F8510003280BD10023A6
S315080066100193CB6801938B680193019BD0E72046D1
S31508006620FFF704FFCCE7506D002440F004005065E6
S315080066300094C868009088680090C3F30023009807
S31508006640C5E700BF4966000808B5836B0022DA87EC
S315080066501846DA86FFF7EAFE08BD00BF0368DA685F
S3150800666042F00102DA609A6802F00702062A03D0AD
S315080066701A6842F001021A6000207047704700BF8E
S3150800668003680C290CD8DFE801F0070B0B0B2B0B62
S315080066900B0B260B0B0B2100DA6842F00202DA60BC
S315080066A0186A01F01F020121914020EA01001862D0
S315080066B01A6A114319629A6802F00702062A03D079
S315080066C01A6842F001021A6000207047DA6842F040
S315080066D01002DA60E4E7DA6842F00802DA60DFE717
S315080066E0DA6842F00402DA60DAE700BF90F83C3074
S315080066F0012B5AD002220368F0B480F83D209A682C
S315080067000C6822F47F4222F077020125402C80F89B
S315080067103C509A6074D04AD9602C2DD056D9702C2A
S315080067201AD0B4F5005F0ED1D1E90152CC68996848
S315080067302A4342EA042221F47F410A439A609A686E
S3150800674042F480429A600023012280F83D2080F8B6
S315080067503C30F0BC18467047D1E90152CC689968BC
S315080067602A4342EA042221F47F410A439A609A683E
S3150800677042F077029A60E6E71C6A4D68CE6824F014
S3150800678010041C6299691A6A21F4704122F0A00269
S3150800679042EA051241EA063199611A629A6822F0BC
S315080067A0700242F067029A60CDE702207047102C0B
S315080067B004D03DD9202C01D0302CC4D19A6844F09D
S315080067C0070422F0700214439C60BCE7502CBAD12F
S315080067D01D6A1E6A4C68CF6826F001061E629A6911
S315080067E025F00A0122F0F00242EA071221439A61D3
S315080067F019629A6822F0700242F057029A60A2E77C
S315080068001D6A1E6A4C68CF6826F001061E629A69E0
S3150800681025F00A0122F0F00242EA071221439A61A2
S3150800682019629A6822F0700242F047029A608AE773
S31508006830002CC3D087E700BF704700BF704700BF72
S31508006840704700BF03681A69910710B5044602D558
S31508006850DA6892075FD41A69500702D5DA685107D1
S3150800686046D41A69120702D5DA6810072ED41A69AF
S31508006870D20602D5DA68D00618D41A69D10702D525
S31508006880DA68D2075DD41A69100602D5DA681106E5
S315080068905FD41A69520602D5DA68500661D41A69B5
S315080068A0910602D5DA68920643D410BD6FF010023D
S315080068B01A61DB69082213F4407F2277204664D0E8
S315080068C0FEF75EF8002223682277D6E76FF0080203
S315080068D01A61DB69042299072277204652D1FFF70D
S315080068E0ABFF2046FFF7AAFF002223682277BEE700
S315080068F06FF004021A619B69022213F4407F227723
S3150800690020463CD1FFF798FF2046FFF797FF002265
S3150800691023682277A5E76FF002021A619B690122B4
S315080069209B07027725D0FEF72BF8002223682277EB
S3150800693091E76FF0200220461A61BDE8104000F08A
S315080069408FB96FF001021A612046FEF7AFF8236887
S3150800695099E76FF080021A61204600F083F92368F0
S3150800696097E76FF040021A612046FFF769FF236830
S3150800697095E7FFF761FF2046FFF760FFD5E7FDF7CC
S31508006980FFFFC4E7FDF7FCFFAEE7FFF755FF20461C
S31508006990FFF754FF96E700BFF0B4244D03684E692D
S315080069A08C680A68A8422DD0B0F1804F18D0A5F59A
S315080069B07C45A84214D005F58065A84210D005F597
S315080069C08065A8420CD005F59A35A8420CD005F585
S315080069D08065A84208D005F58065A84208D103E07D
S315080069E04D6823F070032B43C96823F440730B43A7
S315080069F023F08003334303600123C4628262F0BC40
S31508006A00436170474F68CD6823F070033B4323F416
S31508006A1040732B4323F0800333430360C4628262CE
S31508006A200B69036301234361F0BC70470000014012
S31508006A30B8B190F83D3010B503F0FF0204465BB1DB
S31508006A40022384F83D302068211DFFF7A5FF0123A6
S31508006A5084F83D30002010BD80F83C20FEF7FAF996
S31508006A60EEE70120704700BFB8B190F83D3010B589
S31508006A7003F0FF0204465BB1022384F83D30206828
S31508006A80211DFFF789FF012384F83D30002010BD42
S31508006A9080F83C20FFF7F2FDEEE70120704700BFC3
S31508006AA070B4046A174E24F001040462B042846983
S31508006AB0056A15D0B0F1804F12D0A6F57C46B042D3
S31508006AC00ED006F58066B0420AD006F58066B0425A
S31508006AD006D006F59A36B04202D044F0010202E02A
S31508006AE024F0030422431B0125F00A04DBB222F03A
S31508006AF0F00201F00A0121431343836170BC01626D
S31508006B00704700BF00000140F8B590F83C30012BF3
S31508006B1064D00D4602231646012280F83C2080F8F0
S31508006B203D300446D1E900120068EB6856B3042EDE
S31508006B30AD6833D0082E066A52D026F4805606620F
S31508006B40C669076A26F440761B03090346EA022249
S31508006B509BB201F4204122F4704227F420471343E4
S31508006B603943C3610162C36923F44063C361C369DE
S31508006B7043EA0525C5610123002084F83D3084F8E1
S31508006B803C00F8BDFFF78CFF2368A868996921F0D7
S31508006B900C0199619A6902439A61ECE7066A26F044
S31508006BA0100606628669076A26F440761B03090101
S31508006BB046EA02229BB201F0A00122F4704227F0B5
S31508006BC0A0071A43394382610162836923F440634B
S31508006BD08361836943EA05258561CCE70220F8BD10
S31508006BE026F480760662C669076A26F003061B0144
S31508006BF009023243DBB201F4206122F0F00227F4E5
S31508006C0020671A433943C2610162C36923F00C0342
S31508006C10C361C3691D43C561ADE700BF90F83C2059
S31508006C20012A1AD070B40222046880F83D20D1E9FE
S31508006C30006503466068A26820F0700122F08002B1
S31508006C4031432A430126002561602846A26083F85D
S31508006C503D6083F83C5070BC70470220704700BF07
S31508006C60704700BF704700BF2DE9F04305229FB06B
S31508006C708946002100F06EFF032807464FF0000200
S31508006C80364B5AD801921A6C42F001021A641B6CF0
S31508006C9003F001030193019B314CFE00F31B9B009B
S31508006CA0E518E25868686B6909924FF000080222F5
S31508006CB009A90D930A92CDE90B82FEF78BFD424690
S31508006CC0052195F91000FEF735FB95F91000FEF73A
S31508006CD067FBEA68AB69CDF840802A210EA8CDF893
S31508006CE048800E9211930F91FFF7A2FE002832D129
S31508006CF00EA8FFF7B9FE58BB2022002303A90EA849
S31508006D0003920493FFF78AFF08B1FDF7D9FEF61B35
S31508006D1004EB860401200023A268069005A90EA8A4
S31508006D20CDE90733CDF81490FFF7EEFEA1680EA85B
S31508006D30FFF7A6FC1FB0BDE8F08302921A6C42F07A
S31508006D4002021A641B6C03F002030293029BA3E778
S31508006D50FDF7B6FED0E7FDF7B3FEC9E700380240F7
S31508006D604C010020F0B5124D124F134E85B0044663
S31508006D702846FEF721FA114B3A7804EB440103EB57
S31508006D80810326F812009B680093012203236946B3
S31508006D90284601920293FEF713FA2846FEF7A0F951
S31508006DA00A2000F0EFFE36F814003C7005B0F0BD7E
S31508006DB0404C00209402002014020020D400002039
S31508006DC038B5052204460846002100F0C3FE144AD9
S31508006DD0144932F810300978B3F5FA7F84BFA3F561
S31508006DE0FA7322F81030104B53F8205043F820401D
S31508006DF059B932F81030B3F57A7F06D2A54208D2CF
S31508006E00641B0A48B0FBF4F038BD094B53F8200060
S31508006E1038BD084B054823445D1BB0FBF5F038BD6B
S31508006E2098020020950200204002002080841E005F
S31508006E30F44E002080F0FA020378012B00D0704748
S31508006E40D0F80230012B0BD0032BF8D18379052B10
S31508006E50F5D8013B164AD0F8071042F823107047B8
S31508006E6030B4144D03462A4600F12404997902F8F1
S31508006E70011BD9795171197AD172597A5174997A53
S31508006E80D175D97A51770633A342EFD10A4990F8DA
S31508006E902A4090F82B2090F82C3085F824400120C1
S31508006EA0087085F8252085F8263030BC704700BF65
S31508006EB0F44E0020CC4E00202002002038B50C46A7
S31508006EC00F4D104A3620022301216070C4F80230A3
S31508006ED029702346217004F1300052F8041BC3F8C8
S31508006EE006105169C3F80A1008338342F5D13621D2
S31508006EF0204600F037FE002384F836002B7038BD94
S31508006F0095020020F44E0020002070472DE9F04F2E
S31508006F102DED068BCD4DCE4CDFF858C3002387B038
S31508006F2029461F4640F2DB5607E0B2F57A7F24F879
S31508006F3013200DD80133062B0FD011F8012B043A74
S31508006F40032AF7D834F81300421CB04292B2ECD99F
S31508006F504CF823700133062BEFD1DFF8308398F80D
S31508006F600030012B69D0BB4B1C7864BB9FEDBA8AF5
S31508006F70DFEDBAAA9FEDBAAADFEDBA9A9FEDBA9AE3
S31508006F80DFEDBA8A06E0022B22D0032B49D0013462
S31508006F90062C18D015F8013B012BE0B2F3D104EB0F
S31508006FA004167700FFF7DEFEB14E3E440146304632
S31508006FB000F064FD0028EAD1AE4B728843F824201D
S31508006FC00134062CE6D107B0BDEC068BBDE8F08F80
S31508006FD004EB04167700FFF7C5FEA54E3E440146AE
S31508006FE0304600F04BFD0028D1D16B799B0900F0A3
S31508006FF00A82012B00F01F82022BC8D1738807EE84
S31508007000103AB8EEC77A9B4B27EE087AC7EE2A7A6B
S3150800701067EE8A7AFCEEE77A17EE902A43F8242080
S31508007020B5E7954B03EBC40233F834105068FEF706
S31508007030B1FC904B43F82400A9E7904C904FDFF839
S3150800704048A2904E4FF0000B6278D24302F001023C
S3150800705080213846FEF7A4FC62786FEA520202F0F5
S3150800706001024FF480715046FEF79AFC14F8012F7E
S315080070706FEA920202F0010240213846FEF790FCC0
S3150800708022786FEAD20202F001024FF400715046EC
S31508007090FEF786FC227892095FFA8BF95FD0012AFF
S315080070A06BD0022A68D014F8063C013B012B94BF2A
S315080070B0002201224FF480413046FEF771FC09F1A7
S315080070C0FF3900224FF400413046FEF769FC0122E1
S315080070D0B9F1040F06D8DFE819F089017C016F01C0
S315080070E062015C0020213846FEF75AFC012000F0B8
S315080070F05FFD002220213846FEF752FC002240217F
S315080071003846FEF74DFC00224FF400715046FEF754
S3150800711047FC002280213846FEF742FC00224FF445
S3150800712080715046FEF73CFC00224FF480513046F1
S31508007130FEF736FC00224FF400513046FEF730FCCD
S3150800714000224FF480413046FEF72AFC00224FF415
S3150800715000413046FEF724FC0BF1010B74E730467C
S3150800716001224FF48051FEF71BFC01224FF4005117
S315080071703046FEF715FC96E7002230464FF480515C
S31508007180FEF70EFC00224FF400513046FEF708FCCD
S3150800719089E704213A482D4EFEF702FC012000F04B
S315080071A007FD002204213648FEF7FAFB002240219B
S315080071B03348FEF7F5FB00224FF400713248FEF71C
S315080071C0EFFB002280212E48FEF7EAFB00224FF44F
S315080071D080712D48FEF7E4FB00224FF480512948C0
S315080071E0FEF7DEFB00224FF400512648FEF7D8FBD7
S315080071F000224FF480412348FEF7D2FB00224FF4C9
S3150800720000412048FEF7CCFB00240AE0012A40F2A0
S31508007210C180082B0BD0072B09D00134E4B2062C09
S315080072200DD016F8013B042BA3F10502EED120463A
S3150800723001340021E4B2FFF717FD062CF1D1002432
S31508007240024EDFF83490274626E000BFCC4E0020D9
S315080072509802002095020020D10C4D3F0020CA4418
S3150800726000543D4600007C45001063460010A446C5
S3150800727008000020F44E00201C010020D14E0020FA
S3150800728000080240000402400000024020020020DC
S315080072900134E4B2062C17D016F8013B032BF7D1BC
S315080072A005220021204600F055FC09EBC0020134F6
S315080072B059F830305068029701A9E4B20397019350
S315080072C0FEF788FA062CE7D1DFF8AC91634C644FD9
S315080072D04FF0000A06E00AF101005FFA80FABAF1F7
S315080072E0060F53D019F8013B013B012BF3D84FF099
S315080072F0000B05225946504600F02CFC4FF480310D
S315080073000646584A6160554827600121A262C4F8BA
S3150800731008B0C4F810B084F818B084F820B0C4F8DF
S315080073202CB0C4F80CB084F830B0E1616161FDF7A7
S3150800733025FE00287CD14C49CDF800B0486C4B4B53
S3150800734040F480704864486C06EB460200F480708E
S3150800735053F82210009003EB820201915068009BBB
S315080073600322022301A9CDE90223FEF733FA5A467E
S3150800737005211220FDF7DEFF1220FEF711F80AF1AB
S3150800738001005FFA80FABAF1060FABD1002388F83C
S315080073900030E8E50A212046FFF766FC3DE711467E
S315080073A03846FEF7FDFA012000F002FC0022012112
S315080073B03846FEF7F5FAA1E610213846FEF7F0FA48
S315080073C0012000F0F5FB002210213846FEF7E8FA06
S315080073D094E602213846FEF7E3FA012000F0E8FBBE
S315080073E0002202213846FEF7DBFA87E608213846EE
S315080073F0FEF7D6FA012000F0DBFB0022082138460A
S31508007400FEF7CEFA7AE67388DFED196A07EE103AC8
S31508007410B8EEC77A174B27EE087AC7EE287A67EED2
S31508007420A67AFCEEE77A17EE902A43F82420AEE512
S31508007430FDF746FB7FE7738807EE103AB8EEC77A82
S315080074400C4B27EE087AC7EE297A67EE897AFCEEA6
S31508007450E77A17EE902A43F8242098E5404C002056
S31508007460002001400100000F00380240D40000202F
S315080074700018F646F44E0020CC4E0020F8B5064615
S31508007480174608460522002100F064FB514D2B5C87
S31508007490042B044619D05A1F012A1ED9082B51D08D
S315080074A0072B00D0F8BD0544214630462D7BFFF753
S315080074B087FCC0EB001080000128474B8CBFB0FB4F
S315080074C0F5F0002043F82400F8BD30462146FFF7C2
S315080074D077FC414B43F82400F8BD0522002100F053
S315080074E039FB3E4A32F81030B3F5FA7F84BFFA3BCF
S315080074F022F810303A4B1B78F3B9002F41D0012FF0
S3150800750052D032F81030B3F57A7F15D2354A364B59
S3150800751052F8201053F820204FF47A7303FB01F336
S31508007520B3FBF2F3B3F57A7F06D82A5C052A4CD06A
S31508007530062A01D1284D02E0274D55F8203045F896
S315080075402430F8BD244D0422002155F8206000F0AF
S3150800755001FB264B0130C0B203EBC00233F83010F2
S315080075605068FEF717FA30B9B6F1004F00D0013E61
S3150800757045F82460F8BD6FF000439E4218BF0136F7
S31508007580F6E71B4951F8203041F820609E4204D99D
S315080075901549F61A41F82060B3E71649124F3144E7
S315080075A0CB1A47F82030ACE7114B53F820309E42EF
S315080075B004D90C49F31A41F82030A2E70D49094FBE
S315080075C03144CB1A47F820309BE7C3F57A73024D4E
S315080075D0B5E700BFCC4E0020F44E002098020020EC
S315080075E09502002024020020780200201C010020B9
S315080075F05C02002080F0FA0270B54B4C4B4D4C4EA5
S31508007600204600224FF40041FEF7CAF92046002220
S315080076104FF40061FEF7C4F9284600222021FEF740
S31508007620BFF9284600224FF48061FEF7B9F92046D3
S3150800763000224FF48061FEF7B3F9204600224FF48A
S315080076408051FEF7ADF9304600222021FEF7A8F951
S31508007650304600220821FEF7A3F93046002202210F
S31508007660FEF79EF9304600221021FEF799F93046BA
S3150800767000220121FEF794F9304600220421FEF784
S315080076808FF9304600224021FEF78AF9204600226B
S315080076904FF40071FEF784F9304600228021FEF788
S315080076A07FF9204600224FF48071FEF779F92846C3
S315080076B000224FF48051FEF773F9284600224FF452
S315080076C00051FEF76DF9284600224FF48041FEF777
S315080076D067F9284600224FF40041FEF761F9204673
S315080076E001224FF40041FEF75BF9204601224FF4D0
S315080076F00061FEF755F9284601222021FEF750F9C8
S31508007700284601224FF48061FEF74AF920460122F5
S315080077104FF48061FEF744F9204601224FF4805168
S31508007720BDE87040FEF73CB9000002400004024084
S3150800773000080240012808D04FF0500383F311884F
S31508007740BFF36F8FBFF34F8FFEE72DE9804883B0F5
S31508007750474C0190DFF83881DFF83891454DDFF85E
S3150800776038A1454EDFF824B1444F49E002EB420206
S31508007770934256DD01224FF400513846FEF710F9C0
S31508007780FFF7C2FB00B9288000224FF400513846A3
S31508007790FEF706F99AF800307BB33088228871889C
S315080077A0DFF8F8C0708083180B44ACFB03C35B0892
S315080077B0A3F1030C002062453280B180A8F800309E
S315080077C0288033DB03339A4230DC019B89F800308A
S315080077D0002323808AF8003001224FF400513846EE
S315080077E0FEF7DEF8DBF800309B681B062DD5002275
S315080077F04FF400513846FEF7D3F8012001F0A0F9FE
S315080078002388B8F8002099F8001001339BB2501F5E
S31508007810834223800ED02B8801339BB201292B800B
S31508007820A4D040F271229342A4D8B3E7002389F882
S315080078300030CDE7012915D02B8801339BB240F2E1
S31508007840712293422B8095D8A4E710210C48FEF7A5
S31508007850A1F80028CBD037230A4A0B490B48FEF774
S315080078601DFDC4E708490748FFF728FBB4E700BF32
S3150800787034030020200300202803002000080240CB
S3150800788000000240A8020020E4020020E04C00208C
S31508007890360300203803002022030020ABAAAAAA38
S315080078A010B50D4C2046FEF78FFD2046FEF77AFDF3
S315080078B023689B681B0600D510BD10210748FEF7F4
S315080078C069F80028F8D020463723054A0549BDE857
S315080078D01040FEF7E3BC00BFE04C00200000024069
S315080078E0A8020020E402002070B51A4D1A4C82B096
S315080078F0284601224FF40051FEF752F8174A184B52
S315080079002360012640F20143C4E901232673204679
S31508007910362100F027F9214684F836003723114A24
S315080079201148FEF7BBFC0024104B01930094334624
S315080079304FF400720E490F4800F05AFF0E4B2246CC
S3150800794018604FF40051284602B0BDE87040FEF7B3
S3150800795027B800BF00080240E40200200000140A0D
S3150800796001360100A8020020E04C00202403002074
S315080079706098000835770008244F0020F0B50122EA
S3150800798083B080213548364DFEF70AF840F22D14AB
S3150800799001E0002C5FD010212846FDF7FBFF013CD3
S315080079A0A4B20028F5D02F4D2F4F3621384600F0C7
S315080079B0D9F897F83630834243D002222A702B4EE4
S315080079C00020346838700B230127A168013B11F0A9
S315080079D0020F9BB231D101221046002BF5D12F7030
S315080079E0FFF75EFF3468224800230193E36801939A
S315080079F0A368019301224FF40051019BFDF7D0FFC4
S31508007A00032731684FF4FA7300E003B38C68013B2F
S31508007A1014F002049BB2F8D1164B154822460125EC
S31508007A204FF400511D70FDF7BBFF0C48224680211C
S31508007A3003B0BDE8F040FDF7B3BF0028D3D02A70E5
S31508007A40D1E70D493846FFF7F7F92A78B7E72F70D7
S31508007A50FFF726FFD5E7034D2C70A5E70004024083
S31508007A6000000240284F0020A8020020E04C002019
S31508007A700008024022030020E4020020F0B5024676
S31508007A80407801280CD94500841EAB1CE4B2154485
S31508007A901344A5EB440433F8025D5D80A342FAD192
S31508007AA092F82030147891809C4249D8002382F8B5
S31508007AB02030002849D0941C19461D46264602EB5C
S31508007AC0410736F802CFBF88BC4528BF1F4603F1D9
S31508007AD0010328BF2946DDB238BF0F46A842EED8B3
S31508007AE0002319461D46264602EB410C36F802EFDE
S31508007AF0BCF804C0E64598BF9C4603F1010398BF4D
S31508007B002946DDB288BF8C46A842EDD8451EEBB2A1
S31508007B10151D05EB4305002334F8021FA5420B4447
S31508007B20FAD102EB470702EB4C0CBC88BCF80410F0
S31508007B301B1B591A831E0020B1FBF3F35380F0BDBB
S31508007B40013382F820300120F0BD844607460346FB
S31508007B50E7E700BF884203D9904228BF104670471E
S31508007B600846704759B1013950FA81F2431E002080
S31508007B7013F8011F08449342C0B2F9D1704708466A
S31508007B80704700BF10F1FF304FF004020ED382B0E9
S31508007B900192019B2BB1019B013B0193019B002B99
S31508007BA0F9D110F1FF30F3D202B07047704700BF29
S31508007BB010F1FF304FF084020ED382B00192019B80
S31508007BC02BB1019B013B0193019B002BF9D110F1CD
S31508007BD0FF30F3D202B07047704700BFEFF305835A
S31508007BE083B9EFF310836BB9084B1868022803D0E2
S31508007BF028B901221A607047EFF3118313B94FF0C1
S31508007C00FF3070476FF00500704700BF98050020E9
S31508007C10EFF30583C3B910B5EFF310848CB90C4B99
S31508007C201A68022A07D0012A08D102221A6000F02F
S31508007C3013FE204610BDEFF3118313B94FF0FF3042
S31508007C4010BD6FF0050010BD6FF00500704700BF4E
S31508007C5098050020F0B587B000240594EFF3058554
S31508007C60002D35D1EFF31083002B38D1254B1B6837
S31508007C70022B30D098B30B4600218DF81310E2B1D1
S31508007C80116899B394696CB3651E372D20D8556869
S31508007C90ED071DD455693DBB8027D2E9026C46B372
S31508007CA0BCF15B0F1BD91269CAB1C5B1CDE9012672
S31508007CB000943A4600F064FD0BE0802218240DF18A
S31508007CC0130105ADCDE9004500F092FD012806D067
S31508007CD0002007B0F0BDEFF31183002BCAD005983A
S31508007CE007B0F0BD1824D2E7AF08D6E70DF11301A7
S31508007CF0C8E7BCF1000FF2D11269002AEFD1BAB277
S31508007D00DFE700BF9805002008B5EFF3058383B9C0
S31508007D10EFF310836BB9084B1B68022B05D000B92B
S31508007D2008BD00F00DFF002008BDEFF31183002BFE
S31508007D30F5D06FF0050008BD98050020044B0360D8
S31508007D4010B48023034C0C6013605DF8044B704735
S31508007D503C0500203C030020054B036010B44FF49B
S31508007D608073044C0C6013605DF8044B704700BFC9
S31508007D709C0900209C05002000F108034FF0FF3104
S31508007D800022816002604360C0E90333704700BF88
S31508007D9000230361704700BF4368026810B49C68FB
S31508007DA08C609C684B600132616099605DF8044B99
S31508007DB008610260704700BF30B40D686B1C11D0B3
S31508007DC000F1080200E01A4653681C68AC42FAD96A
S31508007DD004684B60013499608A60516008610460E8
S31508007DE030BC704702695368F2E700BF4268816891
S31508007DF0036910B4916081685C684A601A688442B5
S31508007E0008BF5960013A002101611A6018685DF8D7
S31508007E10044B704770B51646026C856B044632B93A
S31508007E2006680135002E2DD00020A56370BD86B9E1
S31508007E30806801F0DFFCA368216C62680B449342FA
S31508007E4005F10105A360EFD32368A3603046A56357
S31508007E5070BDC06801F0CEFC226CE368216852420E
S31508007E6013448B42E36002D263681A44E260022E2E
S31508007E7003D001350020A56370BD002DD4D101259E
S31508007E800020D2E7406800F0A9FF6660CDE700BF92
S31508007E90026C72B10B46C16810B444681144A14221
S31508007EA0C16024BF0168C1605DF8044B184601F043
S31508007EB0A1BC704770B5054601F034FA95F84540FF
S31508007EC064B2002C16DD6B6AA3B105F1240605E041
S31508007ED0013CE3B25CB26BB16B6A5BB1304600F051
S31508007EE0D1FE0028F4D0013C00F062FFE3B25CB298
S31508007EF0002BF1D1FF2385F8453001F035FA01F062
S31508007F0011FA95F8444064B2002C16DD2B69A3B12A
S31508007F1005F1100605E0013CE3B25CB26BB12B69D2
S31508007F205BB1304600F0AEFE0028F4D0013C00F00C
S31508007F303FFFE3B25CB2002BF1D1FF2385F8443052
S31508007F40BDE8704001F010BA38B5E0B104460D46F8
S31508007F5001F0E8F9D4E90F132268A26001FB03F1E6
S31508007F60CB1A134400200A44FF21A063E36084F877
S31508007F704410626084F8451075B92369ABB901F0FD
S31508007F80F3F9012038BD4FF0500383F31188BFF38E
S31508007F906F8FBFF34F8FFEE704F11000FFF7ECFE7B
S31508007FA004F12400FFF7E8FEE9E704F1100000F009
S31508007FB069FE0028E3D0044B4FF080521A60BFF3E5
S31508007FC04F8FBFF36F8FDAE704ED00E030B583B06B
S31508007FD09DF8185040B94FF0500383F31188BFF34A
S31508007FE06F8FBFF34F8FFEE77BB182B3B1B15024D9
S31508007FF00194019C502C1AD04FF0500383F311883A
S31508008000BFF36F8FBFF34F8FFEE74FF0500383F335
S315080080101188BFF36F8FBFF34F8FFEE74FF0500302
S3150800802083F31188BFF36F8FBFF34F8FFEE70124E9
S315080080301A6083F84640C3E90F01012118461C4619
S31508008040FFF782FF204684F84C5003B030BD41B19B
S315080080504FF0500383F31188BFF36F8FBFF34F8F31
S31508008060FEE750220192019A502AC5D101221B60CF
S3150800807083F84620DFE700BF2DE9F04784B0019278
S31508008080002800F09980002900F08980022B0BD186
S31508008090C26B012A08D04FF0500383F31188BFF34F
S315080080A06F8FBFF34F8FFEE704461F46894600F0E1
S315080080B085FE50B9019E4EB14FF0500383F31188E7
S315080080C0BFF36F8FBFF34F8FFEE70026DFF820A1BF
S315080080D04FF0000807E001F047F92046FFF7EAFEEF
S315080080E000F0ACFC012601F01DF9A26BE36B9A4285
S315080080F03FD3022F3DD0019D002D66D016B902A8A8
S3150800810000F004FE01F030F900F0E8FB01F00AF98E
S3150800811094F84430FF2B08BF84F8448094F845301F
S31508008120FF2B08BF84F8458001F01EF901A902A8B3
S3150800813000F0F8FD002853D101F0F4F8A26BE36BC8
S315080081409A42C8D101F010F9019904F1100000F023
S315080081505FFD2046FFF7AEFE00F070FC0028C1D197
S315080081604FF08053CAF80030BFF34F8FBFF36F8FBD
S31508008170B8E73A4649462046FFF74CFE636A43BBD2
S3150800818038B11B4B4FF080521A60BFF34F8FBFF3C5
S315080081906F8F01F0E9F8012004B0BDE8F087026CA2
S315080081A0002A3FF473AF4FF0500383F31188BFF3EF
S315080081B06F8FBFF34F8FFEE74FF0500383F311889D
S315080081C0BFF36F8FBFF34F8FFEE701F0CDF8284658
S315080081D0E2E704F1240000F055FD0028D1D1D8E7E4
S315080081E02046FFF767FE00F029FC0020D4E700BF11
S315080081F004ED00E02DE9F843002835D041B3022B01
S315080082000BD1C46B012C08D04FF0500383F31188AF
S31508008210BFF36F8FBFF34F8FFEE704461F469046A6
S31508008220894601F0A3F9EFF311864FF0500383F363
S315080082301188BFF36F8FBFF34F8FA26BE36B9A4220
S315080082401BD3022F19D0002086F31188BDE8F883C6
S31508008250046C002CD3D04FF0500383F31188BFF37E
S315080082606F8FBFF34F8FFEE74FF0500383F31188EC
S31508008270BFF36F8FBFF34F8FFEE794F845503A462A
S3150800828049466DB22046FFF7C5FD6B1C08D06B1C2E
S315080082905BB284F84530012086F31188BDE8F8837F
S315080082A0636A002BF7D004F1240000F0EBFC0028E9
S315080082B0F1D0B8F1000FEED00120C8F80000C3E7EE
S315080082C02DE9F04385B00192002800F09980002935
S315080082D000F0898004460F4600F070FD50B9019BF6
S315080082E043B14FF0500383F31188BFF36F8FBFF389
S315080082F04F8FFEE701F016F8A56B002D48D1019BBC
S31508008300002B6AD002A800F001FDDFF824912E4662
S3150800831004F1240812E001F005F8A36B002B46D0FF
S3150800832001F022F82046FFF7C5FD00F087FB00F0B4
S31508008330F9FFA56B65BB019B002B4ED001F014F825
S3150800834000F0CCFA00F0EEFF94F84430FF2B08BF9B
S3150800835084F8446094F84530FF2B08BF84F84560DC
S3150800836001F002F801A902A800F0DCFC0028D2D02E
S315080083702046FFF79FFD00F061FB00F0D3FFA36BDB
S315080083805BB300F0F1FF00F0CDFFA56B002DD2D056
S3150800839039462046013DFFF77BFDA5632369002B7F
S315080083A037D100F0E1FF012005B0BDE8F08300F009
S315080083B0DBFF0199404600F02BFC2046FFF77AFDCB
S315080083C000F03CFB0028DED14FF08053C9F800309E
S315080083D0BFF34F8FBFF36F8FD5E700F0C5FF0020BF
S315080083E005B0BDE8F083036C002B3FF473AF4FF084
S315080083F0500383F31188BFF36F8FBFF34F8FFEE7E8
S315080084004FF0500383F31188BFF36F8FBFF34F8F7D
S31508008410FEE704F1100000F035FC0028C1D0044B3B
S315080084204FF080521A60BFF34F8FBFF36F8FB8E7D4
S3150800843004ED00E030B4084A002352F8334002EB5A
S31508008440C30524B10133082BF7D130BC70476860E7
S3150800845042F8331030BC70472C4F002070B50446E4
S315080084600D46164600F05EFF94F84430FF2B04BF15
S31508008470002384F8443094F84530FF2B04BF0023CA
S3150800848084F8453000F070FFA36B2BB932462946B5
S3150800849004F1240000F0D6FB2046BDE87040FFF743
S315080084A009BD00BF2DE9F843054600F03BFF344AF5
S315080084B0344E1368013313603368002B31D0324CC5
S315080084C0E86A236833B3314F3149324AD1F800C0DC
S315080084D01368844503F1010338BF086000EB800088
S315080084E06B6407EB8000291D1360FFF755FC00F04D
S315080084F03BFF236863B13268EB6AD26A9A4207D2B5
S31508008500254B4FF080521A60BFF34F8FBFF36F8F22
S31508008510BDE8F88333681D4FDB6A834298BF356030
S31508008520D2E735601368012B03D0E86A174F164C5B
S31508008530CAE7164F3C4607F58C6820461434FFF701
S315080085401BFC4445F9D1DFF86890DFF868800E4CCB
S315080085504846FFF711FC4046FFF70EFC0F48FFF7A9
S315080085600BFC0F48FFF708FC0E48FFF705FC0E4A00
S315080085700E4BC2F80090E86AC3F80080A4E700BF73
S31508008580640E0020F8090020C00E0020040A00200E
S31508008590780E0020740E002004ED00E0AC0E0020DA
S315080085A0D80E0020C40E0020FC090020000A002076
S315080085B07C0E0020900E002090F8593063B1012BF4
S315080085C014D0022B14D04FF0500383F31188BFF355
S315080085D06F8FBFF34F8FFEE710B50446006B01F0AF
S315080085E0ADF82046BDE8104001F0A8B801F0A6B8DD
S315080085F0704700BF80B5154C154E164DDFF858A0CC
S31508008600DFF858904FF0805811E000F08BFEF368C1
S31508008610DF68381DFFF7EAFB2B68013B2B602368F0
S31508008620013B236000F0A0FE3846FFF7C5FF23682C
S31508008630002BEAD1DAF80030012BF8D9C9F8008006
S31508008640BFF34F8FBFF36F8FF1E700BF680E0020AF
S31508008650D80E0020640E0020040A002004ED00E075
S31508008660034A044B1268D268D26852681A60704787
S31508008670FC090020A40E00202DE9F0470A9C4FEAC9
S3150800868082098A464A46A5210746206B9846DDE9AF
S31508008690085601F0BAF8236BA9F10409994429F0A0
S315080086A007090AF1FF330AF10F0104F1330201E069
S315080086B08B4206D013F8010F02F8010F187800282C
S315080086C0F6D1372D28BF37254FF0000AE562E56455
S315080086D0201D84F843A0C4F850A0FFF759FBC5F144
S315080086E0380504F11800FFF753FBC4F854A0A56138
S315080086F0246184F858A0646242463946484600F028
S31508008700E3FD206006B13460BDE8F087F8B5164B86
S31508008710164E1C6833680546181D0F46FFF766FB9C
S315080087206B1C17D0336864195C600BD2104B186841
S3150800873031680431FFF740FB0E4B1A68A24288BF26
S315080087401C60F8BD0C4B18683168BDE8F840043168
S31508008750FFF732BB002FE5D0316808480431BDE881
S31508008760F840FFF719BB00BFEC0E0020F8090020FF
S31508008770FC090020A40E0020000A0020C40E0020D8
S31508008780F0B587B0DDE90C650E9CBDB16CB15C2710
S315080087900497049F5C2F1AD04FF0500383F3118877
S315080087A0BFF36F8FBFF34F8FFEE74FF0500383F38E
S315080087B01188BFF36F8FBFF34F8FFEE74FF050035B
S315080087C083F31188BFF36F8FBFF34F8FFEE72563DF
S315080087D0022705AD0294009684F859700195FFF7B3
S315080087E04BFF2046FFF75EFE059807B0F0BD00BFB9
S315080087F02DE9F043074685B0900016468846994607
S3150800880000F00AFF20B305465C2000F005FF044689
S31508008810B0B105634FF0000C0D9D84F859C0019561
S315080088200C9D02944B463246414638460095FFF762
S3150800883023FF2046FFF736FE012005B0BDE8F0838A
S31508008840284600F07BFF4FF0FF3005B0BDE8F08307
S315080088504FF0FF30F1E700BF30B589B0002407AA12
S3150800886006A905A8CDE90544FFF768FA05A807C8CB
S315080088702346CDE90110009413491448FFF780FFF9
S3150800888000B300F049FB01280AD001301AD14FF095
S31508008890500383F31188BFF36F8FBFF34F8FFEE743
S315080088A04FF0500383F31188BFF36F8FBFF34F8FD9
S315080088B00749084A084B4FF0FF350D6010601C60E9
S315080088C000F0CCFD09B030BD8C980008F58500088D
S315080088D0A40E0020C00E0020EC0E0020024A1368E9
S315080088E001331360704700BF700E0020014B1868F3
S315080088F0704700BFEC0E00202DE9F84F444B1B686B
S31508008900CBB9444B1F6801371F600FB3424E33681B
S31508008910BB422BD9DFF81C81DFF81C910024D9F85B
S315080089200030DB6A03EB83039B0058F80330022B05
S3150800893028BF012404E0394A136801331360002470
S31508008940374B1B68002B0CBF20460120BDE8F88F6B
S31508008950344D2B681B68002B45D04FF0500383F32A
S315080089601188BFF36F8FBFF34F8FFEE72D4DDFF8EA
S31508008970C480DFF8C49000242BE02B68DB68D3F8AA
S315080089800CA0DAF804200AF1040B9742584628D3BB
S31508008990FFF72CFADAF828200AF118000AB1FFF7CF
S315080089A025FA214BDAF82C201B689A4288BF1E4B01
S315080089B002EB8200594608EB800088BF1A60FFF771
S315080089C0EBF9D9F80010DAF82C20CB6A9A4228BFBE
S315080089D001242B681B68002BCFD14FF0FF3333607F
S315080089E09DE732609BE7114B2968114A1868286091
S315080089F019601368013313602B681B6823B9064E88
S31508008A004FF0FF33336082E7FFF72AFE7EE700BFA9
S31508008A10700E0020EC0E0020A40E00206C0E002024
S31508008A20F00E0020FC090020780E0020000A002025
S31508008A30A80E0020040A0020F80900202DE9F047B6
S31508008A40344C236843B94FF0500383F31188BFF3BE
S31508008A506F8FBFF34F8FFEE700F064FC2368013B7E
S31508008A602360246864BB2C4B1B684BB32B4E2C4FDE
S31508008A702C4DDFF8C490DFF8C4803B6833B3FB683D
S31508008A80DC6804F1040A04F11800FFF7AFF9504650
S31508008A90FFF7ACF9E36A2A6803EB83009342514671
S31508008AA009EB800088BF2B60FFF776F9D8F800300D
S31508008AB0E26ADB6A9A424FF00103DED33360DCE7F1
S31508008AC0002400F051FC2046BDE8F0873CB1164B67
S31508008AD01B681B68DBB9154B4FF0FF321A60144D43
S31508008AE02C683CB10127FFF707FF00B13760013C4E
S31508008AF0F9D12C603368002BE2D00E4B4FF0805230
S31508008B001A60BFF34F8FBFF36F8F0124D9E7FFF7C2
S31508008B10A7FDE4E7700E0020640E0020F00E00208A
S31508008B20AC0E0020780E0020FC090020A40E0020C0
S31508008B306C0E002004ED00E0040A0020F80900206D
S31508008B4008B598B10E4B196841B14FF0500383F33D
S31508008B501188BFF36F8FBFF34F8FFEE71A68013294
S31508008B601A60FFF7D3FDFFF769FF38B9054B4FF0D9
S31508008B7080521A60BFF34F8FBFF36F8F08BD00BFD7
S31508008B80700E002004ED00E01C4B1B6813BB1C4A4A
S31508008B901C4830B41C4C136022689300991889004D
S31508008BA0415839B9D2B1013A9300991850F82110B1
S31508008BB00029F7D013449B00C5180833696849682B
S31508008BC069600344994212D0104BC9681960226043
S31508008BD030BC70470A4B01221A6070474FF05003A9
S31508008BE083F31188BFF36F8FBFF34F8FFEE714230C
S31508008BF003FB020049684160E6E700BF700E0020EB
S31508008C00F00E0020040A0020780E0020F809002043
S31508008C1040B94FF0500383F31188BFF36F8FBFF34A
S31508008C204F8FFEE710B5064B0C4619681831FFF74B
S31508008C30C3F820460121BDE81040FFF767BD00BF15
S31508008C40F809002038B588B10D4B0D461968144649
S31508008C501831FFF7A1F8002C08BF2846214618BF8F
S31508008C604FF0FF30BDE83840FFF750BD4FF05003D6
S31508008C7083F31188BFF36F8FBFF34F8FFEE700BFF3
S31508008C80F809002038B5C368DC6824B304F1180570
S31508008C902846FFF7ABF8174B1B682BBB251D284644
S31508008CA0FFF7A4F8144AE36A116814488B4288BF90
S31508008CB0136003EB8303294600EB8300FFF76CF888
S31508008CC00F4BE26A1B68DB6A9A4283BF0D4B012091
S31508008CD01860002038BD4FF0500383F31188BFF3A6
S31508008CE06F8FBFF34F8FFEE729460748FFF754F803
S31508008CF0E6E700BF700E0020780E0020040A002068
S31508008D00F8090020F00E0020AC0E0020034A044BA0
S31508008D1012681B68C0E90023704700BFA80E002030
S31508008D20EC0E0020F8B540B3F1B10D46044600F04C
S31508008D30F9FADFF878C02B686768DCF800605A1C17
S31508008D40A6EB070022D018492268D1F800E0724540
S31508008D5001D0B74225D983421AD800232B600125B2
S31508008D6000F002FB2846F8BD4FF0500383F3118844
S31508008D70BFF36F8FBFF34F8FFEE74FF0500383F3B8
S31508008D801188BFF36F8FBFF34F8FFEE70025E7E724
S31508008D900968DCF800201B1A2B600025C4E90012BC
S31508008DA0DEE70125DCE700BFA80E0020EC0E002058
S31508008DB0014B01221A607047F00E0020054B1B6814
S31508008DC033B1054B1B68002B0CBF022000207047EF
S31508008DD001207047C00E0020700E002068B138B51B
S31508008DE01C4B1C6884420AD04FF0500383F3118849
S31508008DF0BFF36F8FBFF34F8FFEE700207047236DD9
S31508008E0043B94FF0500383F31188BFF36F8FBFF355
S31508008E104F8FFEE7E16AE26C013B9142236500D081
S31508008E200BB1002038BD251D2846FEF7DFFF0A4A8C
S31508008E30E36C1168E3628B42C3F1380088BF1360A4
S31508008E40064AA061142000FB03202946FEF7A4FF6A
S31508008E50012038BDF8090020780E0020040A0020F9
S31508008E60F0B5144C83B000F05DFA256825B103B05F
S31508008E70BDE8F04000F078BA0F4F104E3846FEF7BE
S31508008E807BFF3046FEF778FF0D4A0E4900950E4BDC
S31508008E9017600E600D4A10210A20FFF797F8206028
S31508008EA00028E4D00A49FFF7C5FA03B0BDE8F04048
S31508008EB000F05ABA181000209C0F0020B00F0020AE
S31508008EC0F40E0020F80E0020C80F0020FC0E00202B
S31508008ED094980008914208B50061416005D88169F7
S31508008EE0D21A8A420CD3012008BD9A4201D299426D
S31508008EF0F9D2074B011D1868FEF75EFF002008BD72
S31508008F00044B011D1868FEF757FF002008BD00BF77
S31508008F10F40E0020F80E002010B588B0FFF7A0FF69
S31508008F20124B1B68CBB1002407AA06A905A8CDE9F0
S31508008F300544FEF711FFDDE905300221CDE90010F1
S31508008F400293079A0A490B482346FFF719FC0A4B6E
S31508008F50186010B1012008B010BD4FF0500383F31C
S31508008F601188BFF36F8FBFF34F8FFEE718100020ED
S31508008F709C980008719000081C100020C0B170B5BC
S31508008F80164D0446286884B080B1164605291A4647
S31508008F90CDE90016029414DCFFF710FF022816D05C
S31508008FA0002328681A466946FFF766F804B070BDBC
S31508008FB04FF0500383F31188BFF36F8FBFF34F8FC2
S31508008FC0FEE700236946FFF715F904B070BD286867
S31508008FD0089A00236946FFF74FF8E7E718100020BC
S31508008FE02DE9F043DFF8849083B04FF000080CE0D9
S31508008FF0DB68DC681F68251D2846FEF7F7FE636AEE
S3150800900020469847E369012B0CD0D9F800301A6836
S31508009010002AEDD1144A1168C9F80010136003B08C
S31508009020BDE8F083A66907EB060C002367453A46B8
S315080090301946204608D2C4F804C02461D9F80000AD
S315080090402946FEF7B9FEE0E7CDF80080FFF796FF60
S315080090500028DAD14FF0500383F31188BFF36F8FDE
S31508009060BFF34F8FFEE700BFF80E0020F40E002076
S315080090702DE9F04F704F714E714DDFF8CC9187B0E6
S315080090804FF001083B681C68002C52D0DB681C684E
S31508009090FFF724FCFFF72AFC32688242824659D839
S315080090A0844230606BD90022A4EB0A012868FFF7D6
S315080090B0D5F9FFF7C3FC38B9624A4FF080531360FD
S315080090C0BFF34F8FBFF36F8F002202A92868FFF7FF
S315080090D0F7F80028D6D0029B049C002B07DA039BDE
S315080090E0059920469847029B002BEDDB049C636993
S315080090F013B1201DFEF77AFEFFF7F8FB3368984296
S3150800910082462ED3029BC6F800A0092BDCD808FAA3
S3150800911003F313F4047B27D113F0C70F42D19B0640
S31508009120D2D594F82C30002BCED1204600F006FB81
S31508009130CAE7FFF7D3FBFFF7D9FB326882428246BC
S3150800914008D8D9F80020C6F800A01268B2FA82F248
S315080091505209A9E7FFF744FFC6F800A0FFF76EFC1F
S31508009160B2E7FFF73DFFCDE70399A16100293ED09D
S315080091705144204653465246FFF7ACFEA4E7FFF794
S315080091805DFC3A68D268D2F80CB00BF10400FEF721
S315080091902DFEDBF81C20012A32D0DBF82430584695
S315080091A0984791E7039BA169524619442046FFF761
S315080091B091FE002888D0636A20469847E369012B08
S315080091C082D1A369039ACDF800B01A4420465B46BB
S315080091D05946FFF7D3FE00287FF476AF4FF05003C9
S315080091E083F31188BFF36F8FBFF34F8FFEE74FF0FE
S315080091F0500383F31188BFF36F8FBFF34F8FFEE7DA
S31508009200DBF818105246214423465846FFF762FEFB
S315080092100028C2D000232246009319465846FFF775
S31508009220ADFE0028B9D14FF0500383F31188BFF380
S315080092306F8FBFF34F8FFEE7F40E0020C40F002098
S315080092401810002004ED00E0F80E00200E4B1B68F5
S3150800925082B000220133019208D04FF0500383F305
S315080092601188BFF36F8FBFF34F8FFEE74FF05003A0
S3150800927083F31188BFF36F8FBFF34F8F019B002BCA
S31508009280FCD002B0704700BFF4010020084800680F
S31508009290006880F308884FF0000080F3148862B6EF
S315080092A061B6BFF34F8FBFF36F8F00DF00BF0000BB
S315080092B008ED00E0DFF80C00016841F47001016078
S315080092C07047000088ED00E030B421F001014FF04E
S315080092D08075074C40F80C4C6FF0020340F8202CC0
S315080092E040E9021540F8243C30BC4438704700BFBA
S315080092F04D92000800000000000000000000000079
S31508009300074B19680868B0E8F04F80F30988BFF37F
S315080093106F8F4FF0000080F311887047AFF300801D
S31508009320F80900204FF0500383F31188BFF36F8FBD
S31508009330BFF34F8F0A4A13680133012B136000D01D
S315080093407047084B1B6813F0FF0FF9D04FF0500316
S3150800935083F31188BFF36F8FBFF34F8FFEE700BF0C
S31508009360F401002004ED00E0084A136843B94FF001
S31508009370500383F31188BFF36F8FBFF34F8FFEE758
S31508009380013B13600BB983F311887047F401002081
S31508009390EFF30980BFF36F8F154B1A681EF0100F95
S315080093A008BF20ED108A20E9F04F10602DE909006A
S315080093B04FF0500080F31188BFF34F8FBFF36F8FC4
S315080093C0FFF7E2FB4FF0000080F3118809BC19682B
S315080093D00868B0E8F04F1EF0100F08BFB0EC108A0E
S315080093E080F30988BFF36F8F704700BFAFF3008023
S315080093F0F809002008B54FF0500383F31188BFF32E
S315080094006F8FBFF34F8FFFF777FA18B1034B4FF003
S3150800941080521A60002383F3118808BD04ED00E02A
S3150800942030B4094A094D0A4B0A4C0B480021116011
S3150800943029601B68A4FB03139B09013B07210360F2
S3150800944030BC1160704700BF10E000E018E000E093
S3150800945000000020D34D621014E000E03A4B3B4A6E
S315080094601968914240D01A68394B9A4233D010B5E0
S31508009470384B39481A78394C82B0D2B2FF2101925A
S3150800948019701B78DBB28DF803309DF803309DF810
S315080094900320072103F0500301601106237011D53C
S315080094A0062300E00B469DF803205200D2B28DF841
S315080094B003209DF80320120603F1FF31F2D4032B93
S315080094C003601AD04FF0500383F31188BFF36F8FF0
S315080094D0BFF34F8FFEE74FF0500383F31188BFF3B6
S315080094E06F8FBFF34F8FFEE74FF0500383F311885A
S315080094F0BFF36F8FBFF34F8FFEE70199154C184ADC
