S017000032302D32302D332D322D302D302D312E7372656345
S315080040000000012069500008594E00085F4E00085C
S31508004010654E00086B4E0008714E0008000000004F
S3150800402000000000000000000000000031B2000897
S31508004030774E00080000000081B40008E9B40008C3
S31508004040B9500008B9500008B9500008B95000081E
S31508004050B9500008B9500008B9500008B95000080E
S31508004060B9500008B9500008B9500008B9500008FE
S31508004070B9500008B9500008B9500008B9500008EE
S31508004080B9500008B9500008B950000800000000EF
S31508004090000000000000000000000000B950000801
S315080040A0B9500008854E0008A14E0008B95000080E
S315080040B0B9500008B9500008B9500008B9500008AE
S315080040C0B9500008B9500008B9500008B95000089E
S315080040D0B9500008B9500008B9500008000000009F
S315080040E0B9500008B9500008B9500008000000008F
S315080040F0000000000000000000000000B9500008A1
S3150800410000000000B9500008B9500008B95000086E
S315080041100000000000000000000000000000000091
S31508004120BD4E0008B9500008B9500008D14E000825
S31508004130B950000800000000000000000000000060
S31508004140000000000000000000000000B950000850
S31508004150B9500008B9500008B9500008B95000080D
S31508004160B9500008B950000800000000000000001F
S315080041700000000000000000000000000000000031
S3150800418000000000B9500008000000000000000010
S31508004190B950000800000000000000000000000000
S315080041A00000000000000000000000000000000001
S315080041B000000000000000000000000000000000F1
S315080041C000000000000000000000000000000000E1
S315080041D00000000000000000FFFFFFFFEE11AA55D7
S315080041E010B5054C237833B9044B13B10448AFF323
S315080041F000800123237010BDA807002000000000DE
S3150800420044BB000808B5034B1BB103490348AFF389
S31508004210008008BD00000000AC07002044BB000871
S3150800422053B94AB9002908BF00281CBF4FF0FF310F
S315080042304FF0FF3000F06EB9ADF1080C6DE904CE11
S3150800424000F006F8DDF804E0DDE9022304B0704763
S315080042502DE9F047089D04468C46002B40F08380E4
S315080042608A42174647D9B2FA82F242B1C2F1200011
S3150800427024FA00F09140974040EA010C94404FEA36
S315080042801748230CBCFBF8F61FFA87FE08FB16C175
S3150800429043EA014306FB0EF1994209D9FB1806F1D8
S315080042A0FF3080F01981994240F21681023E3B4464
S315080042B05B1AA4B2B3FBF8F008FB103344EA0344D4
S315080042C000FB0EFEA64509D93C1900F1FF3380F024
S315080042D00581A64540F2028102383C4440EA064080
S315080042E0A4EB0E0400261DB1D4400023C5E9004303
S315080042F03146BDE8F08702B9FFDEB2FA82F2002A3B
S3150800430050D1CB1B4FEA174E1FFA87F80126B3FB8D
S31508004310FEFC210C0EFB1C3341EA034108FB0CF39F
S315080043208B4207D979180CF1FF3002D28B4200F282
S31508004330E9808446C91AA3B2B1FBFEF00EFB101140
S3150800434043EA014408FB00F8A04507D93C1900F1E7
S31508004350FF3302D2A04500F2D9801846A4EB080420
S3150800436040EA0C40BFE78B4209D9002D00F0B18026
S315080043700026C5E9000130463146BDE8F087B3FAA4
S3150800438083F6002E4AD18B4202D3824200F2B880CD
S31508004390841A61EB030101208C46002DA8D0C5E9DB
S315080043A0004CA5E7C2F1200320FA03F6974001FA6C
S315080043B002F04FEA174ED9403043030CB1FBFEF624
S315080043C01FFA87F80EFB161143EA014306FB08F1AC
S315080043D0994204FA02F409D9FB1806F1FF3C80F069
S315080043E08D80994240F28A80023E3B445B1A81B234
S315080043F0B3FBFEF00EFB103341EA034100FB08F362
S315080044008B4207D9791800F1FF3C73D28B4271D9D8
S3150800441002383944CB1A40EA064678E7C6F1200C3A
S3150800442003FA06F422FA0CF31C4320FA0CF701FAF5
S3150800443006F34FEA144E21FA0CF11F433B0CB1FB6D
S31508004440FEF91FFA84F80EFB191143EA014109FB2C
S3150800445008FA8A4502FA06F200FA06F308D961183C
S3150800446009F1FF3048D28A4546D9A9F10209214403
S31508004470A1EB0A01BFB2B1FBFEF00EFB101147EA31
S31508004480014700FB08F8B84507D9E71900F1FF31DD
S315080044902ED2B8452CD90238274440EA0940A7EB62
S315080044A00807A0FB02894F45C64649461AD317D0C6
S315080044B05DB1B3EB0E0267EB010707FA0CFCF2409D
S315080044C04CEA0202F740C5E9002700263146BDE856
S315080044D0F0872E4628460BE70646E9E61846FDE627
S315080044E04345E5D2B8EB020E69EB04010138DFE774
S315080044F00846D2E760468DE78146B9E7664675E71E
S3150800450030464AE7ACF1020C394413E702383C441A
S3150800451024E700BF704700BF80B584B000AF3B46B4
S3150800452000221A605A609A60DA60214B214A1A60A2
S315080045301F4B4FF480325A601D4B00229A601C4B69
S3150800454000221A611A4B00221A76194B002283F8A8
S315080045502020174B0022DA62154B174A9A62144B31
S315080045600022DA60124B0122DA61114B002283F82D
S3150800457030200F4B01225A610D4800F0E1FD034639
S31508004580002B01D000F0DEFA06233B6001237B6096
S315080045900023BB603B461946054800F061FF034609
S315080045A0002B01D000F0CEFA00BF1037BD4680BD03
S315080045B06C480020002001400100000F80B58AB039
S315080045C000AF786007F1140300221A605A609A60F7
S315080045D0DA601A617B681B68244A934241D100233A
S315080045E03B61234B5B6C224A43F480735364204B34
S315080045F05B6C03F480733B613B690023FB601C4BD7
S315080046001B6B1B4A43F004031363194B1B6B03F024
S315080046100403FB60FB680023BB60154B1B6B144A45
S3150800462043F001031363124B1B6B03F00103BB60DA
S31508004630BB682A237B610323BB610023FB6107F167
S31508004640140319460B4801F0EBFD40237B61032355
S31508004650BB610023FB6107F114031946064801F004
S31508004660DFFD00BF2837BD4680BD00BF00200140E2
S3150800467000380240000802400000024080B582B0BF
S3150800468000AF00237B60104B1B6B0F4A43F480037B
S3150800469013630D4B1B6B03F480037B607B6800225E
S315080046A00521382001F0B2F9382001F0CBF90022B3
S315080046B005213B2001F0AAF93B2001F0C3F900BF10
S315080046C00837BD4680BD00BF0038024080B485B0BB
S315080046D000AFF860B9607A60FB68074A1A60BB6881
S315080046E0064A1A607B6880221A6000BF1437BD46E6
S315080046F05DF8047B704700BFC407002078080020D7
S31508004700B0B58EB000AF144B07F11C041D460FCD93
S315080047100FC495E8070084E8070007F11C03002189
S31508004720184605F0BAFE03460C4A13600C4B3C4685
S315080047301D460FCD0FC495E8070084E807003B46E1
S315080047400021184605F0A9FE0346064A136000BF75
S315080047503837BD46B0BD00BF74BB0008B44800205A
S3150800476090BB0008B848002080B582B000AF7860DA
S3150800477004F016F904F090F904F050FB012005F056
S31508004780D8FEF7E780B582B000AF786004F0D6FFB0
S31508004790052005F0CEFEF9E780B58AB000AF07F12F
S315080047A0140300221A605A609A60DA601A610023BC
S315080047B03B61434B1B6B424A43F004031363404B74
S315080047C01B6B03F004033B613B690023FB603C4B16
S315080047D01B6B3B4A43F080031363394B1B6B03F097
S315080047E08003FB60FB680023BB60354B1B6B344AB8
S315080047F043F001031363324B1B6B03F00103BB60E9
S31508004800BB6800237B602E4B1B6B2D4A43F00203CB
S3150800481013632B4B1B6B03F002037B607B68002240
S315080048204FF40051274801F097FE4FF400537B617F
S315080048300123BB610023FB6100233B6207F11403DC
S315080048401946204801F0ECFC95237B610023BB61E7
S315080048500023FB6107F1140319461A4801F0E0FC2E
S315080048604FF408637B610023BB610023FB6107F1FA
S3150800487014031946144801F0D3FC4CF203037B6178
S315080048800023BB610023FB6107F1140319460F4897
S3150800489001F0C6FC4FF480637B611223BB610023E1
S315080048A0FB6103233B6204237B6207F11403194669
S315080048B0064801F0B5FC00BF2837BD4680BD00BFDD
S315080048C0003802400008024000000240000402408E
S315080048D080B594B000AF00F0F1FB00F09BF8FFF74D
S315080048E05BFFFFF7CBFEFFF717FE00F033F905F085
S315080048F0F1F9FFF705FF05F0C9FD00237B60414B81
S315080049001B6C404A43F0040313643E4B1B6C03F0D4
S3150800491004037B607B6800233B603A4B1B6B394A78
S3150800492043F002031363374B1B6B03F002033B6030
S315080049303B6807F11C0300221A605A609A60DA6025
S315080049401A615A619A61304B304A1A602E4B962288
S315080049505A602D4B00229A602B4B4FF47A72DA601C
S31508004960294B00221A61284B00229A61264802F038
S31508004970ABFE4FF480533B6407F1400319462248C7
S3150800498003F01EFA204802F051FF2023BB630023E0
S31508004990FB6307F1380319461B4803F0CDFD602376
S315080049A0FB6100233B6200237B620023FB6207F165
S315080049B01C0300221946144803F040F907F11C03AA
S315080049C008221946104803F039F94FF4A073BB6062
S315080049D00123FB6000233B6100237B610223BB614B
S315080049E007F1080319460A4801F01AFC01224FF498
S315080049F08071074801F0B0FD01224021044801F00A
S31508004A00ABFDF3E7003802401C4A002000080040CE
S31508004A100004024080B594B000AF07F120033022AD
S31508004A200021184606F0C0FF07F10C0300221A60A1
S31508004A305A609A60DA601A610023BB60294B1B6CC6
S31508004A40284A43F080531364264B1B6C03F08053AB
S31508004A50BB60BB6800237B60234B1B6823F4404381
S31508004A60214A43F4004313601F4B1B6803F4404379
S31508004A707B607B6809233B624FF480337B620123AA
S31508004A807B630223BB634FF48003FB6306233B640B
S31508004A9054237B640223BB640423FB6407F12003CD
S31508004AA0184601F08DFD0346002B01D000F04AF8A8
S31508004AB00F23FB6002233B6100237B614FF4805385
S31508004AC0BB610023FB6107F10C030221184601F0C4
S31508004AD0EFFF0346002B01D000F034F800BF503733
S31508004AE0BD4680BD003802400070004080B582B0E7
S31508004AF000AF78607B681B68044A934201D105F0D1
S31508004B004BF900BF0837BD4680BD00BF00300140E5
S31508004B1080B582B000AF78607B681B68074A93420D
S31508004B2001D100F0EDFA7B681B68054A934201D172
S31508004B3004F08EF900BF0837BD4680BD0048014025
S31508004B400044014080B400AF00BFBD465DF8047B59
S31508004B507047000080B500AF154B164A1A60144B13
S31508004B6000225A60124B00229A60114B0022DA602A
S31508004B700F4B00221A610E4B00225A610C4B002281
S31508004B809A610B4B00221A62094B00225A62084BA3
S31508004B9000229A62064B0A22DA62054802F076F982
S31508004BA00346002B01D0FFF7CDFF00BF80BD00BF35
S31508004BB0BC4800200030014080B58AB000AF78605C
S31508004BC007F1140300221A605A609A60DA601A61C3
S31508004BD07B681B68564A934240F0A68000233B61D7
S31508004BE0544B5B6C534A43F480535364514B5B6C90
S31508004BF003F480533B613B690023FB604D4B1B6B01
S31508004C004C4A43F0010313634A4B1B6B03F0010341
S31508004C10FB60FB680023BB60464B1B6B454A43F0B1
S31508004C2002031363434B1B6B03F00203BB60BB68B1
S31508004C3030237B610223BB610023FB6103233B62B4
S31508004C4005237B6207F1140319463B4801F0E8FA8D
S31508004C5030237B610223BB610023FB6103233B6294
S31508004C6005237B6207F114031946344801F0D8FA84
S31508004C70334B344A1A60324B4FF0C0625A60304B9D
S31508004C8000229A602E4B0022DA602D4B4FF4806288
S31508004C901A612B4B00225A61294B00229A61284B34
S31508004CA00022DA61264B00221A62254B00225A623C
S31508004CB0234800F0D5FE0346002B01D0FFF742FF3C
S31508004CC07B681F4ADA641E4A7B6893631E4B1F4A39
S31508004CD01A601D4B4FF0C0625A601B4B40229A6007
S31508004CE0194B0022DA60184B4FF480621A61164B92
S31508004CF000225A61144B00229A61134B0022DA6192
S31508004D00114B00221A62104B00225A620E4800F01C
S31508004D10A7FE0346002B01D0FFF714FF7B680A4A5B
S31508004D209A64094A7B68936300BF2837BD4680BDED
S31508004D3000300140003802400000024000040240F2
S31508004D401449002010640240744900205864024047
S31508004D5080B582B000AF00237B60124B5B6C114AB2
S31508004D6043F4804353640F4B5B6C03F480437B60CE
S31508004D707B6800233B600B4B1B6C0A4A43F080534D
S31508004D801364084B1B6C03F080533B603B6800229E
S31508004D900F216FF0010000F039FE00BF0837BD464D
S31508004DA080BD00BF0038024080B58CB000AF786087
S31508004DB00023FB620023BB62002279681A2000F0F8
S31508004DC025FE1A2000F03EFE0023FB601E4B5B6C9E
S31508004DD01D4A43F4802353641B4B5B6C03F4802306
S31508004DE0FB60FB6807F1100207F114031146184629
S31508004DF002F01AF802F004F8F862FB6A134AA2FBFA
S31508004E0003239B0C013BBB62114B124A1A60104BE1
S31508004E1040F2E732DA600E4ABB6A53600C4B002256
S31508004E201A610B4B00229A60094802F04DFC0346B2
S31508004E30002B04D1064802F097FC034600E0012344
S31508004E4018463037BD4680BD0038024083DE1B4316
S31508004E50D44900200048014080B400AFFEE780B482
S31508004E6000AFFEE780B400AFFEE780B400AFFEE710
S31508004E7080B400AFFEE780B400AF00BFBD465DF862
S31508004E80047B704780B500AF034802F0CFFD0348A6
S31508004E9002F0CCFD00BF80BD3C4B0020644A0020D8
S31508004EA080B500AF034802F0C1FD034802F0BEFD1D
S31508004EB000BF80BD3C4B0020D449002080B500AF20
S31508004EC0024800F043FF00BF80BD00BF1449002020
S31508004ED080B500AF024800F039FF00BF80BD00BFB3
S31508004EE07449002080B400AF064BD3F88830054AD1
S31508004EF043F47003C2F8883000BFBD465DF8047BF2
S31508004F00704700BF00ED00E080B586B000AF78605E
S31508004F107B681B682A4A93421ED100237B61294B72
S31508004F205B6C284A43F001035364264B5B6C03F021
S31508004F3001037B617B6900220521192000F066FDCB
S31508004F40192000F07FFD002200211A2000F05EFDE6
S31508004F501A2000F077FD2EE07B681B681A4A9342F8
S31508004F600ED100233B61174B1B6C164A43F0020314
S31508004F701364144B1B6C03F002033B613B691AE094
S31508004F807B681B68114A934215D10023FB600D4BC1
S31508004F905B6C0C4A43F4003353640A4B5B6C03F4B2
S31508004FA00033FB60FB6800220521192000F02EFD66
S31508004FB0192000F047FD00BF1837BD4680BD00BF69
S31508004FC0000001400038024000040040004401404F
S31508004FD080B487B000AF78607B681B68B3F1804FF8
S31508004FE00ED100237B611D4B1B6C1C4A43F0010349
S31508004FF013641A4B1B6C03F001037B617B6926E083
S315080050007B681B68164A93420ED100233B61134BFB
S315080050101B6C124A43F004031364104B1B6C03F019
S3150800502004033B613B6912E07B681B680D4A9342A7
S315080050300DD10023FB60094B1B6C084A43F008039B
S315080050401364064B1B6C03F00803FB60FB6800BF88
S315080050501C37BD465DF8047B704700BF0038024028
S3150800506000080040000C0040DFF834D00D480E4917
S315080050700E4A002302E0D458C4500433C4188C42A4
S31508005080F9D30B4A0B4C002301E013600432A24209
S31508005090FBD3FFF727FF06F061FCFFF719FC704703
S315080050A00000012000000020A807002070BC0008AE
S315080050B0A8070020E44C0020FEE7000080B500AFFA
S315080050C00E4B1B680D4A43F4007313600B4B1B68A9
S315080050D00A4A43F480631360084B1B68074A43F483
S315080050E080731360032000F086FC0020FFF75CFE47
S315080050F0FFF72EFE0023184680BD00BF003C024085
S3150800510080B400AF064B1B781A46064B1B6813443F
S31508005110044A136000BFBD465DF8047B704700BFB4
S3150800512008000020CC4B002080B400AF034B1B685E
S315080051301846BD465DF8047B704700BFCC4B00207F
S3150800514080B584B000AF78600023FB737B68002BC2
S3150800515001D1012333E07B681B6C002B09D17868E9
S31508005160FFF72CFA7B6800225A647B68002283F8D2
S315080051703C207B681B6C03F01003002B18D17B685E
S315080051801B6C23F4885323F0020343F002027B6866
S315080051901A64786800F086FA7B6800225A647B688D
S315080051A01B6C23F0030343F001027B681A6401E0D9
S315080051B00123FB737B68002283F83C20FB7B18469F
S315080051C01037BD4680BD000080B485B000AF78605A
S315080051D00023BB607B6893F83C30012B01D1022386
S315080051E097E07B68012283F83C207B681B689B68F4
S315080051F003F00103012B18D07B681B689A687B684B
S315080052001B6842F001029A60454B1B68454AA2FB9F
S3150800521003239A0C13465B001344BB6002E0BB6889
S31508005220013BBB60BB68002BF9D17B681B689B6898
S3150800523003F00103012B5FD17B681B6C23F4E06349
S3150800524023F0010343F480727B681A647B681B6849
S315080052505B6803F48063002B07D07B681B6C23F420
S31508005260405343F480527B681A647B681B6C03F4D2
S315080052708053B3F5805F06D17B685B6C23F006022A
S315080052807B685A6402E07B6800225A647B680022C5
S3150800529083F83C20244BFB607B681B686FF0220276
S315080052A01A60FB685B6803F01F03002B0FD17B684D
S315080052B01B689B6803F04053002B29D17B681B6849
S315080052C09A687B681B6842F080429A6020E07B6897
S315080052D01B68164A93421BD17B681B689B6803F0C0
S315080052E04053002B14D17B681B689A687B681B683F
S315080052F042F080429A600BE07B681B6C43F0100218
S315080053007B681A647B685B6C43F001027B685A64AD
S31508005310002318461437BD465DF8047B704700BF66
S315080053200000002083DE1B430023014000200140CB
S3150800533080B584B000AF786039600023FB607B6875
S315080053401B689B6803F48063B3F5806F13D17B6891
S315080053501B689B6803F48073B3F5807F0BD17B6869
S315080053601B6C43F020027B681A647B68002283F872
S315080053703C20012363E0FFF7D7FEF86021E03B6895
S31508005380B3F1FF3F1DD03B68002B07D0FFF7CCFEDB
S315080053900246FB68D31A3A689A4212D27B681B689F
S315080053A01B6803F00203022B0BD07B681B6C43F0CF
S315080053B004027B681A647B68002283F83C20032376
S315080053C03DE07B681B681B6803F00203022BD6D1FD
S315080053D07B681B686FF012021A607B681B6C43F4CB
S315080053E000727B681A647B681B689B6803F04053ED
S315080053F0002B23D17B681B7E002B1FD17B681B6883
S31508005400DB6A03F47003002B06D07B681B689B6875
S3150800541003F48063002B11D17B681B6C23F4807224
S315080054207B681A647B681B6C03F48053002B05D1D8
S315080054307B681B6C43F001027B681A6400231846DC
S315080054401037BD4680BD80B483B000AF78607B68F6
S315080054501B68DB6C18460C37BD465DF8047B704745
S3150800546080B485B000AF786039600023BB607B6884
S3150800547093F83C30012B01D1022305E17B68012218
S3150800548083F83C203B681B68092B25D97B681B6879
S31508005490D9683B681B689BB21A4613465B001344DF
S315080054A01E3B072202FA03F3DA437B681B680A40AD
S315080054B0DA607B681B68D9683B689A683B681B6832
S315080054C09BB2184603465B0003441E3B9A407B6822
S315080054D01B680A43DA6022E07B681B6819693B6827
S315080054E01B689BB21A4613465B001344072202FA4E
S315080054F003F3DA437B681B680A401A617B681B68FA
S3150800550019693B689A683B681B689BB2184603464C
S315080055105B0003449A407B681B680A431A613B6830
S315080055205B68062B24D87B681B68596B3B685A68EE
S3150800553013469B001344053B1F2202FA03F3DA4382
S315080055407B681B680A405A637B681B68596B3B6813
S315080055501B689BB218463B685A6813469B0013445F
S31508005560053B00FA03F27B681B680A435A634CE062
S315080055703B685B680C2B24D87B681B68196B3B68F7
S315080055805A6813469B001344233B1F2202FA03F36F
S31508005590DA437B681B680A401A637B681B68196BC9
S315080055A03B681B689BB218463B685A6813469B00C3
S315080055B01344233B00FA03F27B681B680A431A6309
S315080055C023E07B681B68D96A3B685A6813469B00C8
S315080055D01344413B1F2202FA03F3DA437B681B6834
S315080055E00A40DA627B681B68D96A3B681B689BB20B
S315080055F018463B685A6813469B001344413B00FA19
S3150800560003F27B681B680A43DA62224BFB607B68FD
S315080056101B68214A934209D13B681B68122B05D1A6
S31508005620FB685B6843F48002FB685A607B681B680A
S31508005630194A934223D13B681B68102B03D03B6859
S315080056401B68112B1BD1FB685B6843F40002FB68DF
S315080056505A603B681B68102B11D1104B1B68104A07
S31508005660A2FB03239A0C13469B0013445B00BB6002
S3150800567002E0BB68013BBB60BB68002BF9D17B68C5
S31508005680002283F83C20002318461437BD465DF8EF
S31508005690047B7047002301400020014000000020E1
S315080056A083DE1B4380B485B000AF7860794BFB601E
S315080056B0FB685B6823F44032FB685A60FB685A68EB
S315080056C07B685B681A43FB685A607B681B685A6884
S315080056D07B681B6822F480725A607B681B6859686D
S315080056E07B681B691A027B681B680A435A607B68D9
S315080056F01B685A687B681B6822F040725A607B6890
S315080057001B6859687B689A687B681B680A435A60F5
S315080057107B681B689A687B681B6822F400629A603B
S315080057207B681B6899687B68DA687B681B680A432C
S315080057309A607B689B6A584A934222D07B681B68AA
S315080057409A687B681B6822F070629A607B681B689F
S3150800575099687B689A6A7B681B680A439A607B68C3
S315080057601B689A687B681B6822F040529A607B68BF
S315080057701B6899687B68DA6A7B681B680A439A60C3
S315080057800FE07B681B689A687B681B6822F070626A
S315080057909A607B681B689A687B681B6822F040528F
S315080057A09A607B681B689A687B681B6822F002020D
S315080057B09A607B681B6899687B681B7E5A007B68C1
S315080057C01B680A439A607B6893F82030002B1BD02D
S315080057D07B681B685A687B681B6842F400625A60DB
S315080057E07B681B685A687B681B6822F460425A60AB
S315080057F07B681B6859687B685B6A013B5A037B6850
S315080058001B680A435A6007E07B681B685A687B680E
S315080058101B6822F400625A607B681B68DA6A7B6838
S315080058201B6822F47002DA627B681B68D96A7B6897
S31508005830DB69013B1A057B681B680A43DA627B68E9
S315080058401B689A687B681B6822F400729A607B68FA
S315080058501B6899687B6893F830305A027B681B6826
S315080058600A439A607B681B689A687B681B6822F4FF
S3150800587080629A607B681B6899687B685B699A0294
S315080058807B681B680A439A6000BF1437BD465DF8FB
S31508005890047B7047002301400100000F80B485B0E7
S315080058A000AF78607B6803F00703FB600C4BDB688E
S315080058B0BB60BA684FF6FF031340BB60FB681A0269
S315080058C0BB68134343F0BF6343F40033BB60044A29
S315080058D0BB68D36000BF1437BD465DF8047B7047CC
S315080058E000ED00E080B400AF044BDB681B0A03F050
S315080058F007031846BD465DF8047B704700ED00E0D7
S3150800590080B483B000AF0346FB7197F90730002BCC
S315080059100BDBFB7903F01F02074997F907305B0990
S31508005920012000FA02F241F8232000BF0C37BD46D9
S315080059305DF8047B704700BF00E100E080B483B0E7
S3150800594000AF03463960FB7197F90730002B0ADB75
S315080059503B68DAB20C4997F907301201D2B20B4408
S3150800596083F800230AE03B68DAB20849FB7903F0BA
S315080059700F03043B1201D2B20B441A7600BF0C3750
S31508005980BD465DF8047B704700E100E000ED00E0ED
S3150800599080B489B000AFF860B9607A60FB6803F03C
S315080059A00703FB61FB69C3F10703042B28BF042324
S315080059B0BB61FB690433062B02D9FB69033B00E094
S315080059C000237B614FF0FF32BB6902FA03F3DA4327
S315080059D0BB681A407B699A404FF0FF317B6901FA30
S315080059E003F3D9437B680B40134318462437BD4657
S315080059F05DF8047B704780B582B000AF7860786840
S31508005A00FFF74CFF00BF0837BD4680BD80B586B09E
S31508005A1000AF0346B9607A60FB7300237B61FFF72A
S31508005A2061FF78617A68B9687869FFF7B1FF02465D
S31508005A3097F90F3011461846FFF780FF00BF183751
S31508005A40BD4680BD80B582B000AF0346FB7197F9AD
S31508005A5007301846FFF754FF00BF0837BD4680BD1C
S31508005A6080B586B000AF786000237B61FFF75CFBEA
S31508005A7038617B68002B01D1012399E07B680222FB
S31508005A8083F835207B68002283F834207B681B68FE
S31508005A901A687B681B6822F001021A600FE0FFF79C
S31508005AA043FB02463B69D31A052B08D97B6820229B
S31508005AB05A657B68032283F83520032378E07B68E0
S31508005AC01B681B6803F00103002BE8D17B681B6881
S31508005AD01B687B617A69384B13407B617B685A681F
S31508005AE07B689B681A437B68DB681A437B681B697B
S31508005AF01A437B685B691A437B689B691A437B6810
S31508005B00DB691A437B681B6A13437A6913437B6113
S31508005B107B685B6A042B07D17B68DA6A7B681B6B38
S31508005B2013437A6913437B617B681B687A691A6039
S31508005B307B681B685B697B617B6923F007037B6174
S31508005B407B685B6A7A6913437B617B685B6A042BB3
S31508005B5017D17B689B6A7A6913437B617B68DB6A2A
S31508005B60002B0ED0786800F0DFFA0346002B08D029
S31508005B707B6840225A657B68012283F83520012319
S31508005B8016E07B681B687A695A61786800F096FAAD
S31508005B900346FB607B68DB6D3F229A40FB689A6090
S31508005BA07B6800225A657B68012283F8352000232A
S31508005BB018461837BD4680BD3F8010F080B586B0C0
S31508005BC000AFF860B9607A603B600023FB75FB683C
S31508005BD09B6D3B61FB6893F83430012B01D102239E
S31508005BE040E0FB68012283F83420FB6893F83530DF
S31508005BF0DBB2012B2FD1FB68022283F83520FB6824
S31508005C0000225A653B687A68B968F86800F028FA8D
S31508005C10FB68DB6D3F229A403B699A60FB681B680C
S31508005C201A68FB681B6842F016021A60FB681B6C50
S31508005C30002B07D0FB681B681A68FB681B6842F0D4
S31508005C4008021A60FB681B681A68FB681B6842F042
S31508005C5001021A6005E0FB68002283F8342002235B
S31508005C60FB75FB7D18461837BD4680BD80B584B0E8
S31508005C7000AF78607B689B6DFB60FFF755FAB860EC
S31508005C807B6893F83530DBB2022B08D07B6880221C
S31508005C905A657B68002283F83420012352E07B682A
S31508005CA01B681A687B681B6822F016021A607B68F4
S31508005CB01B685A697B681B6822F080025A617B68F8
S31508005CC01B6C002B03D17B689B6C002B07D07B6871
S31508005CD01B681A687B681B6822F008021A607B68D2
S31508005CE01B681A687B681B6822F001021A6013E0B9
S31508005CF0FFF71AFA0246BB68D31A052B0CD97B683C
S31508005D0020225A657B68032283F835207B680022A7
S31508005D1083F83420032315E07B681B681B6803F0AF
S31508005D200103002BE4D17B68DB6D3F229A40FB68B8
S31508005D309A607B68012283F835207B68002283F805
S31508005D403420002318461037BD4680BD80B586B07E
S31508005D5000AF78600023BB60924B1B68924AA2FB97
S31508005D6003239B0A7B617B689B6D3B613B691B68D0
S31508005D70FB607B68DB6D08229A40FB681340002BAA
S31508005D801AD07B681B681B6803F00403002B13D02A
S31508005D907B681B681A687B681B6822F004021A6015
S31508005DA07B68DB6D08229A403B699A607B685B6D6D
S31508005DB043F001027B685A657B68DB6D01229A40D5
S31508005DC0FB681340002B12D07B681B685B6903F0E5
S31508005DD08003002B0BD07B68DB6D01229A403B6960
S31508005DE09A607B685B6D43F002027B685A657B6844
S31508005DF0DB6D04229A40FB681340002B12D07B68A7
S31508005E001B681B6803F00203002B0BD07B68DB6D55
S31508005E1004229A403B699A607B685B6D43F00402F2
S31508005E207B685A657B68DB6D10229A40FB681340D5
S31508005E30002B43D07B681B681B6803F00803002B04
S31508005E403CD07B68DB6D10229A403B699A607B6880
S31508005E501B681B6803F48023002B18D07B681B681B
S31508005E601B6803F40023002B08D17B681B6C002BEE
S31508005E7024D07B681B6C786898471FE07B689B6C0E
S31508005E80002B1BD07B689B6C7868984716E07B686C
S31508005E901B681B6803F48073002B07D17B681B689B
S31508005EA01A687B681B6822F008021A607B681B6CFC
S31508005EB0002B03D07B681B6C786898477B68DB6D82
S31508005EC020229A40FB681340002B00F08E807B68E6
S31508005ED01B681B6803F01003002B00F086807B68A4
S31508005EE0DB6D20229A403B699A607B6893F83530CF
S31508005EF0DBB2052B36D17B681B681A687B681B6882
S31508005F0022F016021A607B681B685A697B681B6850
S31508005F1022F080025A617B681B6C002B03D17B68D8
S31508005F209B6C002B07D07B681B681A687B681B680C
S31508005F3022F008021A607B68DB6D3F229A403B69B3
S31508005F409A607B68012283F835207B68002283F8F3
S31508005F5034207B681B6D002B7DD07B681B6D7868B1
S31508005F60984778E07B681B681B6803F48023002B3E
S31508005F701CD07B681B681B6803F40023002B08D120
S31508005F807B685B6C002B30D07B685B6C78689847C5
S31508005F902BE07B68DB6B002B27D07B68DB6B786894
S31508005FA0984722E000000020B5814E1B7B681B68DD
S31508005FB01B6803F48073002B0FD17B681B681A6873
S31508005FC07B681B6822F010021A607B68012283F83E
S31508005FD035207B68002283F834207B68DB6B002B36
S31508005FE003D07B68DB6B786898477B685B6D002B12
S31508005FF032D07B685B6D03F00103002B22D07B68EF
S31508006000052283F835207B681B681A687B681B683D
S3150800601022F001021A60BB680133BB607A699A42B2
S3150800602007D37B681B681B6803F00103002BF2D1BA
S3150800603000E000BF7B68012283F835207B680022D8
S3150800604083F834207B68DB6C002B05D07B68DB6C1F
S315080060507868984700E000BF1837BD4680BD00BF86
S3150800606080B485B000AFF860B9607A603B60FB68C1
S315080060701B681A68FB681B6822F480221A60FB6892
S315080060801B683A685A60FB689B68402B08D1FB6816
S315080060901B687A689A60FB681B68BA68DA6007E06A
S315080060A0FB681B68BA689A60FB681B687A68DA60DE
S315080060B000BF1437BD465DF8047B704780B485B0D1
S315080060C000AF78607B681B68DBB2103B144AA2FB02
S315080060D003231B09FB60134AFB6813441B781A4603
S315080060E07B68DA65FB68032B09D97B681B6823F490
S315080060F07F7323F003031A1D7B689A6507E07B68A4
S315080061001B6823F47F7323F003037A6893657B681F
S315080061109B6D18461437BD465DF8047B704700BF73
S31508006120ABAAAAAAF8BB000880B485B000AF78600D
S315080061300023FB737B689B6ABB607B689B69002BAB
S315080061401FD1BB68032B56D801A252F823F000BF13
S31508006150616100087361000861610008F761000861
S315080061607B68DB6A03F08073002B46D00123FB7340
S3150800617043E07B68DB6AB3F1C07F40D10123FB7340
S315080061803DE07B689B69B3F5005F21D1BB68032BB3
S3150800619037D801A252F823F0A9610008AF610008B8
S315080061A0A9610008C16100080123FB7330E07B6820
S315080061B0DB6A03F08073002B25D00123FB7322E0F2
S315080061C07B68DB6AB3F1C07F1FD10123FB731CE038
S315080061D0BB68022B03D9BB68032B03D018E0012345
S315080061E0FB7315E07B68DB6A03F08073002B0ED027
S315080061F00123FB730BE000BF0AE000BF08E000BF05
S3150800620006E000BF04E000BF02E000BF00E000BFF8
S31508006210FB7B18461437BD465DF8047B704700BF04
S3150800622080B489B000AF7860396000237B610023B1
S315080062303B610023BB610023FB6159E10122FB6935
S3150800624002FA03F37B613B681B687A6913403B617A
S315080062503A697B699A4240F048813B685B6803F07B
S315080062600303012B05D03B685B6803F00303022B8D
S3150800627030D17B689B68BB61FB695B00032202FA2D
S3150800628003F3DB43BA691340BB613B68DA68FB6911
S315080062905B0002FA03F3BA691343BB617B68BA6908
S315080062A09A607B685B68BB610122FB6902FA03F3AB
S315080062B0DB43BA691340BB613B685B681B0903F0A3
S315080062C00102FB6902FA03F3BA691343BB617B68EF
S315080062D0BA695A603B685B6803F00303032B17D05F
S315080062E07B68DB68BB61FB695B00032202FA03F388
S315080062F0DB43BA691340BB613B689A68FB695B007C
S3150800630002FA03F3BA691343BB617B68BA69DA60B8
S315080063103B685B6803F00303022B23D1FB69DA08A9
S315080063207B68083253F82230BB61FB6903F0070328
S315080063309B000F2202FA03F3DB43BA691340BB61E1
S315080063403B681A69FB6903F007039B0002FA03F32B
S31508006350BA691343BB61FB69DA087B680832B96915
S3150800636043F822107B681B68BB61FB695B0003224C
S3150800637002FA03F3DB43BA691340BB613B685B6807
S3150800638003F00302FB695B0002FA03F3BA691343DD
S31508006390BB617B68BA691A603B685B6803F4403383
S315080063A0002B00F0A2800023FB60574B5B6C564A1B
S315080063B043F480435364544B5B6C03F48043FB60A3
S315080063C0FB68524AFB699B08023352F82330BB61CB
S315080063D0FB6903F003039B000F2202FA03F3DB4376
S315080063E0BA691340BB617B68494A934219D07B68F6
S315080063F0484A934213D07B68474A93420DD07B683C
S31508006400464A934207D07B68454A934201D1042302
S3150800641008E0072306E0032304E0022302E0012341
S3150800642000E00023FA6902F0030292009340BA6979
S315080064301343BB613549FB699B080233BA6941F8C6
S315080064402320384B1B68BB613B69DB43BA691340A1
S31508006450BB613B685B6803F48033002B03D0BA69E1
S315080064603B691343BB612F4ABB6913602D4B5B68BD
S31508006470BB613B69DB43BA691340BB613B685B6838
S3150800648003F40033002B03D0BA693B691343BB619D
S31508006490244ABB695360234B9B68BB613B69DB435A
S315080064A0BA691340BB613B685B6803F48013002B31
S315080064B003D0BA693B691343BB611A4ABB69936047
S315080064C0184BDB68BB613B69DB43BA691340BB61A8
S315080064D03B685B6803F40013002B03D0BA693B6979
S315080064E01343BB610F4ABB69D360FB690133FB6188
S315080064F0FB690F2B7FF6A2AE00BF00BF2437BD464F
S315080065005DF8047B704700BF003802400038014040
S31508006510000002400004024000080240000C02404D
S3150800652000100240003C014080B485B000AF78609E
S315080065300B467B807B681A697B881340002B02D048
S315080065400123FB7301E00023FB73FB7B184614371A
S31508006550BD465DF8047B704780B483B000AF7860B1
S315080065600B467B8013467B707B78002B03D07A889A
S315080065707B689A6103E07B881A047B689A6100BF8E
S315080065800C37BD465DF8047B704780B485B000AF14
S3150800659078600B467B807B685B69FB607A88FB6862
S315080065A013401A04FB68D9437B880B401A437B685F
S315080065B09A6100BF1437BD465DF8047B704700003A
S315080065C080B586B000AF78607B68002B01D10123C7
S315080065D064E27B681B6803F00103002B75D0A34BAC
S315080065E09B6803F00C03042B0CD0A04B9B6803F0AC
S315080065F00C03082B12D19D4B5B6803F48003B3F59B
S31508006600800F0BD1994B1B6803F40033002B5BD02A
S315080066107B685B68002B57D101233FE27B685B6888
S31508006620B3F5803F06D1914B1B68904A43F48033FB
S3150800663013601DE07B685B68B3F5A02F0CD18B4B0C
S315080066401B688A4A43F480231360884B1B68874A71
S3150800665043F4803313600BE0844B1B68834A23F4AE
S3150800666080331360814B1B68804A23F480231360B0
S315080066707B685B68002B13D0FEF756FD386108E08F
S31508006680FEF752FD02463B69D31A642B01D9032350
S3150800669004E2764B1B6803F40033002BF0D014E0B9
S315080066A0FEF742FD386108E0FEF73EFD02463B690B
S315080066B0D31A642B01D90323F0E16C4B1B6803F44E
S315080066C00033002BF0D100E000BF7B681B6803F0A5
S315080066D00203002B63D0654B9B6803F00C03002B69
S315080066E00BD0624B9B6803F00C03082B1CD15F4B45
S315080066F05B6803F48003002B16D15C4B1B6803F020
S315080067000203002B05D07B68DB68012B01D001232F
S31508006710C4E1564B1B6823F0F8027B681B69DB0053
S31508006720524913430B603AE07B68DB68002B20D0A4
S315080067304F4B01221A60FEF7F7FC386108E0FEF7B6
S31508006740F3FC02463B69D31A022B01D90323A5E1C0
S31508006750464B1B6803F00203002BF0D0434B1B6823
S3150800676023F0F8027B681B69DB00404913430B6082
S3150800677015E03F4B00221A60FEF7D6FC386108E0A8
S31508006780FEF7D2FC02463B69D31A022B01D9032332
S3150800679084E1364B1B6803F00203002BF0D17B68BB
S315080067A01B6803F00803002B30D07B685B69002B5D
S315080067B016D0304B01221A60FEF7B6FC386108E0A5
S315080067C0FEF7B2FC02463B69D31A022B01D9032312
S315080067D064E1264B5B6F03F00203002BF0D015E053
S315080067E0244B00221A60FEF79FFC386108E0FEF78A
S315080067F09BFC02463B69D31A022B01D903234DE1C0
S315080068001A4B5B6F03F00203002BF0D17B681B6801
S3150800681003F00403002B00F0A0800023FB75134B44
S315080068201B6C03F08053002B0FD10023BB600F4B6A
S315080068301B6C0E4A43F0805313640C4B1B6C03F01D
S315080068408053BB60BB680123FB750B4B1B6803F4C5
S315080068508073002B21D1084B1B68074A43F48073C9
S315080068601360FEF761FC386111E000BF0038024092
S3150800687000004742800E474200700040FEF754FC75
S3150800688002463B69D31A022B01D9032306E1854B3D
S315080068901B6803F48073002BF0D07B689B68012B80
S315080068A006D1814B1B6F804A43F0010313671CE036
S315080068B07B689B68052B0CD17B4B1B6F7A4A43F090
S315080068C004031367784B1B6F774A43F0010313677A
S315080068D00BE0754B1B6F744A23F001031367724B69
S315080068E01B6F714A23F0040313677B689B68002BB0
S315080068F015D0FEF719FC38610AE0FEF715FC0246CA
S315080069003B69D31A41F28832934201D90323C5E081
S31508006910654B1B6F03F00203002BEED014E0FEF765
S3150800692003FC38610AE0FEF7FFFB02463B69D31A0F
S3150800693041F28832934201D90323AFE05A4B1B6FC9
S3150800694003F00203002BEED1FB7D012B05D1564B3C
S315080069501B6C554A23F0805313647B689B69002B94
S3150800696000F09B80504B9B6803F00C03082B5CD00F
S315080069707B689B69022B41D14C4B00221A60FEF7BB
S31508006980D3FB386108E0FEF7CFFB02463B69D31A12
S31508006990022B01D9032381E0434B1B6803F00073E4
S315080069A0002BF0D17B68DA697B681B6A1A437B681F
S315080069B05B6A9B011A437B689B6A5B08013B1B0465
S315080069C01A437B68DB6A1B06374913434B60374B10
S315080069D001221A60FEF7A8FB386108E0FEF7A4FB5F
S315080069E002463B69D31A022B01D9032356E02E4BE4
S315080069F01B6803F00073002BF0D04EE02B4B0022EF
S31508006A001A60FEF791FB386108E0FEF78DFB024637
S31508006A103B69D31A022B01D903233FE0224B1B689B
S31508006A2003F00073002BF0D137E07B689B69012BDC
S31508006A3001D1012332E01C4B5B68FB607B689B69D4
S31508006A40012B28D0FB6803F480027B68DB699A4235
S31508006A5021D1FB6803F03F027B681B6A9A421AD170
S31508006A60FA6847F6C07313407A68526A92019342ED
S31508006A7011D1FB6803F440327B689B6A5B08013BD3
S31508006A801B049A4207D1FB6803F070627B68DB6AD5
S31508006A901B069A4201D0012300E000231846183746
S31508006AA0BD4680BD00700040003802406000474285
S31508006AB080B584B000AF786039607B68002B01D15F
S31508006AC00123CCE0684B1B6803F007033A689A4237
S31508006AD00CD9654B3A68D2B21A70634B1B6803F03F
S31508006AE007033A689A4201D00123B8E07B681B681D
S31508006AF003F00203002B20D07B681B6803F0040315
S31508006B00002B05D0594B9B68584A43F4E0539360D1
S31508006B107B681B6803F00803002B05D0534B9B6862
S31508006B20524A43F460439360504B9B6823F0F0024B
S31508006B307B689B684D4913438B607B681B6803F031
S31508006B400103002B44D07B685B68012B07D1474BB8
S31508006B501B6803F40033002B19D101237FE07B68FF
S31508006B605B68022B03D07B685B68032B07D13F4B1E
S31508006B701B6803F00073002B09D101236FE03B4B20
S31508006B801B6803F00203002B01D1012367E0374B92
S31508006B909B6823F003027B685B68344913438B6068
S31508006BA0FEF7C2FAF8600AE0FEF7BEFA0246FB688C
S31508006BB0D31A41F28832934201D903234FE02B4B73
S31508006BC09B6803F00C027B685B689B009A42EBD1DA
S31508006BD0254B1B6803F007033A689A420CD2224BEE
S31508006BE03A68D2B21A70204B1B6803F007033A685A
S31508006BF09A4201D0012332E07B681B6803F0040344
S31508006C00002B08D0194B9B6823F4E0527B68DB689D
S31508006C10164913438B607B681B6803F00803002B37
S31508006C2009D0124B9B6823F460427B681B69DB0022
S31508006C300E4913438B6000F021F802460B4B9B6804
S31508006C401B0903F00F030A49CB5C22FA03F3094A2E
S31508006C501360094B1B681846FEF7A6F8002318466A
S31508006C601037BD4680BD00BF003C024000380240D8
S31508006C70E0BB00080000002004000020B0B584B086
S31508006C8000AF002179600021F960002139600021F8
S31508006C90B9605249896801F00C0108290DD0082904
S31508006CA000F29480002902D0042903D08EE04C4BD0
S31508006CB0BB608EE04B4BBB608BE04849496801F0EE
S31508006CC03F0179604549496801F48001002924D0CB
S31508006CD042494968890908464FF0000140F2FF1405
S31508006CE04FF0000500EA040201EA05033D4901FBED
S31508006CF003F0002101FB02F144183A49A2FB010105
S31508006D00631819467B681A464FF00003FDF788FAA0
S31508006D1002460B461346FB604AE0304B5B689B090C
S31508006D201A464FF0000340F2FF104FF0000102EA46
S31508006D30000403EA0105204629464FF000024FF0F9
S31508006D4000034B0143EAD063420110461946001B73
S31508006D5061EB05014FF000024FF000038B0143EA97
S31508006D6090638201121A63EB01034FF000004FF0A3
S31508006D700001D90041EA5271D00002460B461219A9
S31508006D8045EB03034FF000004FF00001990241EA7A
S31508006D909251900202460B46104619467B681A46DF
S31508006DA04FF00003FDF73CFA02460B461346FB601C
S31508006DB00A4B5B681B0C03F0030301335B003B6063
S31508006DC0FA683B68B2FBF3F3BB6002E0044BBB60B6
S31508006DD000BFBB6818461037BD46B0BD0038024034
S31508006DE00024F400001BB70080B400AF034B1B68F7
S31508006DF01846BD465DF8047B704700BF00000020BA
S31508006E0080B500AFFFF7F0FF0246054B9B685B0BAA
S31508006E1003F007030349CB5C22FA03F3184680BD47
S31508006E2000380240F0BB000880B483B000AF786039
S31508006E3039607B680F221A60124B9B6803F00302C5
S31508006E407B685A600F4B9B6803F0F0027B689A6078
S31508006E500C4B9B6803F4E0527B68DA60094B9B682D
S31508006E60DB0803F4E0527B681A61074B1B6803F0E2
S31508006E7007023B681A6000BF0C37BD465DF8047B05
S31508006E80704700BF00380240003C024080B582B01F
S31508006E9000AF78607B68002B01D101237BE07B681B
S31508006EA05B6A002B08D17B685B68B3F5827F09D0E3
S31508006EB07B680022DA6105E07B6800221A617B683C
S31508006EC000225A617B6800229A627B6893F85130E7
S31508006ED0DBB2002B06D17B68002283F85020786845
S31508006EE0FDF76AFE7B68022283F851207B681B68DF
S31508006EF01A687B681B6822F040021A607B685B6828
S31508006F0003F482727B689B6803F404431A437B6824
S31508006F10DB6803F400631A437B681B6903F002030A
S31508006F201A437B685B6903F001031A437B689B6914
S31508006F3003F400731A437B68DB6903F038031A43CA
S31508006F407B681B6A03F0800342EA03017B689B6A3D
S31508006F5003F400527B681B680A431A607B689B69C6
S31508006F601B0C03F004017B685B6A03F010027B6864
S31508006F701B680A435A607B681B68DA697B681B686A
S31508006F8022F40062DA617B6800225A657B68012276
S31508006F9083F85120002318460837BD4680BD0000F7
S31508006FA080B586B000AFF860B9607A607B80002350
S31508006FB0FB75FB6893F85030012B01D10223E3E0FF
S31508006FC0FB68012283F85020FB6893F85130BB75A3
S31508006FD0FB685B683B61BB7D012B0DD03B69B3F554
S31508006FE0827F06D1FB689B68002B02D1BB7D042BF0
S31508006FF002D00223FB75C2E0BB68002B05D07B6874
S31508007000002B02D07B88002B02D10123FB75B6E04A
S31508007010FB6893F85130DBB2042B03D0FB680522DA
S3150800702083F85120FB6800225A65FB68BA681A6320
S31508007030FB687A889A86FB687A88DA86FB687A68B3
S315080070409A63FB687A889A87FB687A88DA87FB6886
S3150800705000221A64FB6800225A64FB6893F85130D0
S31508007060DBB2042B08D1FB68DB6C494A1A64FB685F
S31508007070DB6C484ADA6307E0FB68DB6C464A1A644D
S31508007080FB68DB6C454ADA63FB68DB6C444ADA6406
S31508007090FB68DB6C00221A65FB68D86CFB681B680A
S315080070A00C331946FB689B6B1A46FB68DB8F9BB251
S315080070B0FEF784FD0346002B0CD0FB685B6D43F09E
S315080070C01002FB685A650123FB75FB68012283F8E9
S315080070D0512054E0FB681B685A68FB681B6842F03D
S315080070E001025A60FB689B6C00221A64FB689B6C61
S315080070F00022DA63FB689B6C0022DA64FB689B6CEF
S3150800710000221A65FB68986CFB681B6B1946FB68BE
S315080071101B680C331A46FB68DB8E9BB2FEF74EFDE6
S315080071200346002B0CD0FB685B6D43F01002FB682E
S315080071305A650123FB75FB68012283F851201EE07E
S31508007140FB681B681B6803F04003402B07D0FB68ED
S315080071501B681A68FB681B6842F040021A60FB68E5
S315080071601B685A68FB681B6842F020025A60FB6875
S315080071701B685A68FB681B6842F002025A60FB6883
S31508007180002283F85020FB7D18461837BD4680BD7F
S31508007190EF730008B77200080B7400085F730008E5
S315080071A02774000880B483B000AF78607B6893F8D2
S315080071B05030012B01D1022310E07B68012283F8AD
S315080071C050207B681B685A687B681B6842F003027C
S315080071D05A607B68002283F85020002318460C3733
S315080071E0BD465DF8047B704780B584B000AF786013
S315080071F00023FB737B689B6C002B0FD07B689B6C12
S315080072001846FEF733FD0346002B07D07B685B6DF7
S3150800721043F010027B685A650123FB737B68DB6CBD
S31508007220002B0FD07B68DB6C1846FEF71FFD034664
S31508007230002B07D07B685B6D43F010027B685A65AC
S315080072400123FB737B681B685A687B681B6822F0FE
S3150800725003025A607B68012283F85120FB7B18469B
S315080072601037BD4680BD80B483B000AF786000BFDC
S315080072700C37BD465DF8047B704780B483B000AF19
S31508007280786000BF0C37BD465DF8047B704780B454
S3150800729083B000AF786000BF0C37BD465DF8047B4D
S315080072A0704780B483B000AF786000BF0C37BD4626
S315080072B05DF8047B704780B584B000AF78607B6862
S315080072C09B6BFB60FDF730FFB8607B681B681B682B
S315080072D003F48073B3F5807F3BD0FB681B685A685C
S315080072E0FB681B6822F020025A60FB689B68002B2B
S315080072F00DD1FB685B68B3F5827F08D1FB681B6814
S315080073005A68FB681B6822F003025A6007E0FB68AC
S315080073101B685A68FB681B6822F001025A60BA6843
S315080073206421F86800F028F90346002B02D0FB68B0
S3150800733020225A65FB680022DA87FB68012283F857
S315080073405120FB685B6D002B03D0F868FFF7A9FF97
S3150800735002E0F868FFF787FF1037BD4680BD80B5A5
S3150800736084B000AF78607B689B6BFB60FDF7DCFE42
S31508007370B8607B681B681B6803F48073B3F5807F6D
S315080073802FD0FB681B685A68FB681B6822F020022E
S315080073905A60BA686421F86800F054F90346002B6D
S315080073A005D0FB685B6D43F02002FB685A65FB68F5
S315080073B01B685A68FB681B6822F003025A60FB6860
S315080073C00022DA86FB680022DA87FB68012283F846
S315080073D05120FB685B6D002B03D0F868FFF761FF4F
S315080073E002E0F868FDF782FB1037BD4680BD80B520
S315080073F084B000AF78607B689B6BFB60F868FFF72A
S315080074003CFF00BF1037BD4680BD80B584B000AFD5
S3150800741078607B689B6BFB60F868FFF738FF00BFF6
S315080074201037BD4680BD80B584B000AF78607B68F4
S315080074309B6BFB60FB681B685A68FB681B6822F03D
S3150800744003025A60FB685B6D43F01002FB685A65DD
S31508007450FB68012283F85120F868FFF722FF00BF76
S315080074601037BD4680BD000080B588B000AFF86013
S31508007470B9603B601346FB71FDF756FE0246BB6AD0
S315080074809B1A3A681344FB61FDF74EFEB861394B07
S315080074901B685B011B0DFA6902FB03F37B6154E071
S315080074A03B68B3F1FF3F50D0FDF73EFE0246BB698D
S315080074B0D31AFA699A4202D9FB69002B3DD1FB68B7
S315080074C01B685A68FB681B6822F0E0025A60FB6872
S315080074D05B68B3F5827F11D1FB689B68B3F5004FF3
S315080074E004D0FB689B68B3F5806F07D1FB681B68FF
S315080074F01A68FB681B6822F040021A60FB689B6AE0
S31508007500B3F5005F0FD1FB681B681A68FB681B6838
S3150800751022F400521A60FB681B681A68FB681B682D
S3150800752042F400521A60FB68012283F85120FB6876
S31508007530002283F85020032317E07B69002B01D132
S315080075400023FB617B69013B7B61FB681B689A68CA
S31508007550BB681340BA689A420CBF01230023DBB20A
S315080075601A46FB799A429BD1002318462037BD4616
S3150800757080BD00BF0000002080B586B002AFF8606D
S31508007580B9607A60FB685B68B3F5827F11D1FB68E6
S315080075909B68B3F5004F04D0FB689B68B3F5806F12
S315080075A007D1FB681B681A68FB681B6822F0400253
S315080075B01A60FB685B68B3F5827F2AD1FB689B6813
S315080075C0B3F5806F12D07B680093BB6800228021D8
S315080075D0F868FFF749FF0346002B2DD0FB685B6D63
S315080075E043F02002FB685A65032326E07B68009374
S315080075F0BB6800220121F868FFF736FF0346002B17
S315080076001AD0FB685B6D43F02002FB685A650323BA
S3150800761013E07B680093BB6800220121F868FFF736
S3150800762023FF0346002B07D0FB685B6D43F020025F
S31508007630FB685A65032300E0002318461037BD4649
S3150800764080BD000080B588B002AFF860B9607A6086
S315080076501B4B1B681B4AA2FB03235B0D4FF47A7274
S3150800766002FB03F37B61FB685B68B3F5827F12D18B
S315080076707B680093BB6800228021F868FFF7F4FE58
S315080076800346002B16D0FB685B6D43F02002FB68AF
S315080076905A6503230FE07B69002B0AD07B69013BFF
S315080076A07B61FB681B689B6803F08003802BF2D024
S315080076B000E000BF002318461837BD4680BD00BF4E
S315080076C000000020819F5E1680B582B000AF78600A
S315080076D07B68002B01D1012341E07B6893F83D309C
S315080076E0DBB2002B06D17B68002283F83C20786841
S315080076F0FDF70AFC7B68022283F83D207B681A683E
S315080077007B6804331946104600F04AFC7B68012260
S3150800771083F846207B68012283F83E207B68012295
S3150800772083F83F207B68012283F840207B6801228A
S3150800773083F841207B68012283F842207B68012276
S3150800774083F843207B68012283F844207B68012262
S3150800775083F845207B68012283F83D2000231846DC
S315080077600837BD4680BD000080B485B000AF78609C
S315080077707B6893F83D30DBB2012B01D0012344E04E
S315080077807B68022283F83D207B681B68DA687B6881
S315080077901B6842F00102DA607B681B681E4A934246
S315080077A018D07B681B68B3F1804F13D07B681B68C1
S315080077B01A4A93420ED07B681B68194A934209D02D
S315080077C07B681B68174A934204D07B681B68164A75
S315080077D0934211D17B681B689B6803F00703FB6023
S315080077E0FB68062B10D07B681B681A687B681B68C9
S315080077F042F001021A6007E07B681B681A687B681A
S315080078001B6842F001021A60002318461437BD4669
S315080078105DF8047B704700BF00000140000400408B
S3150800782000080040000C00400040014080B582B0CE
S3150800783000AF78607B68002B01D1012341E07B68AB
S3150800784093F83D30DBB2002B06D17B68002283F823
S315080078503C207868FDF7BCFB7B68022283F83D2054
S315080078607B681A687B6804331946104600F098FB53
S315080078707B68012283F846207B68012283F83E2034
S315080078807B68012283F83F207B68012283F8402029
S315080078907B68012283F841207B68012283F8422015
S315080078A07B68012283F843207B68012283F8442001
S315080078B07B68012283F845207B68012283F83D20F6
S315080078C0002318460837BD4680BD000080B584B041
S315080078D000AF786039603B68002B09D17B6893F864
S315080078E03E30DBB2012B14BF01230023DBB222E0BA
S315080078F03B68042B09D17B6893F83F30DBB2012B38
S3150800790014BF01230023DBB215E03B68082B09D11D
S315080079107B6893F84030DBB2012B14BF01230023A8
S31508007920DBB208E07B6893F84130DBB2012B14BF69
S3150800793001230023DBB2002B01D0012368E03B685A
S31508007940002B04D17B68022283F83E2013E03B68B3
S31508007950042B04D17B68022283F83F200BE03B68A6
S31508007960082B04D17B68022283F8402003E07B6859
S31508007970022283F841207B681B6801223968184671
S3150800798000F0B4FD7B681B68234A934207D17B68E5
S315080079901B685A6C7B681B6842F400425A647B6811
S315080079A01B681D4A934218D07B681B68B3F1804F49
S315080079B013D07B681B68194A93420ED07B681B68F4
S315080079C0174A934209D07B681B68164A934204D02B
S315080079D07B681B68144A934211D17B681B689B68B5
S315080079E003F00703FB60FB68062B10D07B681B6857
S315080079F01A687B681B6842F001021A6007E07B6818
S31508007A001B681A687B681B6842F001021A6000232B
S31508007A1018461037BD4680BD0000014000040040EE
S31508007A2000080040000C00400040014080B582B0CC
S31508007A3000AF78607B681B681B6903F00203022BA2
S31508007A4022D17B681B68DB6803F00203022B1BD17B
S31508007A507B681B686FF002021A617B6801221A773D
S31508007A607B681B689B6903F00303002B03D07868C7
S31508007A7000F077FA05E0786800F069FA786800F0AF
S31508007A807AFA7B6800221A777B681B681B6903F001
S31508007A900403042B22D17B681B68DB6803F004030C
S31508007AA0042B1BD17B681B686FF004021A617B6884
S31508007AB002221A777B681B689B6903F44073002BC4
S31508007AC003D0786800F04DFA05E0786800F03FFAD0
S31508007AD0786800F050FA7B6800221A777B681B6882
S31508007AE01B6903F00803082B22D17B681B68DB6837
S31508007AF003F00803082B1BD17B681B686FF008028C
S31508007B001A617B6804221A777B681B68DB6903F0B5
S31508007B100303002B03D0786800F023FA05E07868A1
S31508007B2000F015FA786800F026FA7B6800221A77C2
S31508007B307B681B681B6903F01003102B22D17B6836
S31508007B401B68DB6803F01003102B1BD17B681B68CE
S31508007B506FF010021A617B6808221A777B681B6827
S31508007B60DB6903F44073002B03D0786800F0F9F959
S31508007B7005E0786800F0EBF9786800F0FCF97B68B6
S31508007B8000221A777B681B681B6903F00103012B27
S31508007B900ED17B681B68DB6803F00103012B07D154
S31508007BA07B681B686FF001021A617868FCF7B0FF02
S31508007BB07B681B681B6903F08003802B0ED17B68EA
S31508007BC01B68DB6803F08003802B07D17B681B6882
S31508007BD06FF080021A61786800F026FD7B681B68E2
S31508007BE01B6903F04003402B0ED17B681B68DB68DA
S31508007BF003F04003402B07D17B681B686FF04002F7
S31508007C001A61786800F0C1F97B681B681B6903F084
S31508007C102003202B0ED17B681B68DB6803F020034A
S31508007C20202B07D17B681B686FF020021A617868E1
S31508007C3000F0F0FC00BF0837BD4680BD80B586B0B1
S31508007C4000AFF860B9607A600023FB75FB6893F8AB
S31508007C503C30012B01D10223AEE0FB68012283F8F8
S31508007C603C207B680C2B00F29F8001A252F823F07F
S31508007C70A57C0008A97D0008A97D0008A97D000843
S31508007C80E57C0008A97D0008A97D0008A97D0008F3
S31508007C90277D0008A97D0008A97D0008A97D0008A0
S31508007CA0677D0008FB681B68B968184600F0F8F994
S31508007CB0FB681B689A69FB681B6842F008029A61B0
S31508007CC0FB681B689A69FB681B6822F004029A61C4
S31508007CD0FB681B689969BB681A69FB681B680A43D5
S31508007CE09A6164E0FB681B68B968184600F03EFABA
S31508007CF0FB681B689A69FB681B6842F400629A6114
S31508007D00FB681B689A69FB681B6822F480629A61A3
S31508007D10FB681B689969BB681B691A02FB681B68C4
S31508007D200A439A6143E0FB681B68B968184600F085
S31508007D3089FAFB681B68DA69FB681B6842F0080267
S31508007D40DA61FB681B68DA69FB681B6822F00402C3
S31508007D50DA61FB681B68D969BB681A69FB681B6826
S31508007D600A43DA6123E0FB681B68B968184600F025
S31508007D70D3FAFB681B68DA69FB681B6842F4006281
S31508007D80DA61FB681B68DA69FB681B6822F48062A3
S31508007D90DA61FB681B68D969BB681B691A02FB684C
S31508007DA01B680A43DA6102E00123FB7500BFFB6822
S31508007DB0002283F83C20FB7D18461837BD4680BD57
S31508007DC080B584B000AF786039600023FB737B68A8
S31508007DD093F83C30012B01D10223B4E07B680122E1
S31508007DE083F83C207B68022283F83D207B681B6869
S31508007DF09B68BB60BB6823F07703BB60BB6823F452
S31508007E007F43BB607B681B68BA689A603B681B68DF
S31508007E10B3F5005F3ED0B3F5005F00F28780B3F597
S31508007E20805F00F08680B3F5805F7FD8702B1AD00C
S31508007E30702B7BD8602B50D0602B77D8502B3CD03A
S31508007E40502B73D8402B58D0402B6FD8302B64D08A
S31508007E50302B6BD8202B60D0202B67D8002B5CD01A
S31508007E60102B5AD062E07B6818683B6899683B68B3
S31508007E705A683B68DB6800F019FB7B681B689B68DF
S31508007E80BB60BB6843F07703BB607B681B68BA6856
S31508007E909A604FE07B6818683B6899683B685A683F
S31508007EA03B68DB6800F002FB7B681B689A687B68A6
S31508007EB01B6842F480429A603CE07B6818683B681D
S31508007EC059683B68DB681A4600F076FA7B681B68D7
S31508007ED05021184600F0CFFA2CE07B6818683B68FA
S31508007EE059683B68DB681A4600F095FA7B681B6898
S31508007EF06021184600F0BFFA1CE07B6818683B68EA
S31508007F0059683B68DB681A4600F056FA7B681B68B6
S31508007F104021184600F0AFFA0CE07B681A683B6807
S31508007F201B681946104600F0A6FA03E00123FB7306
S31508007F3000E000BF7B68012283F83D207B680022B1
S31508007F4083F83C20FB7B18461037BD4680BD80B4BD
S31508007F5083B000AF786000BF0C37BD465DF8047B80
S31508007F60704780B483B000AF786000BF0C37BD4659
S31508007F705DF8047B704780B483B000AF786000BFBB
S31508007F800C37BD465DF8047B704780B483B000AFFC
S31508007F90786000BF0C37BD465DF8047B704700006B
S31508007FA080B485B000AF786039607B681B68FB6079
S31508007FB07B68344A93420FD07B68B3F1804F0BD06D
S31508007FC07B68314A934207D07B68304A934203D094
S31508007FD07B682F4A934208D1FB6823F07003FB6045
S31508007FE03B685B68FA681343FB607B68254A9342E3
S31508007FF01BD07B68B3F1804F17D07B68224A934227
S3150800800013D07B68214A93420FD07B68204A93425B
S315080080100BD07B681F4A934207D07B681E4A93425F
S3150800802003D07B681D4A934208D1FB6823F440734A
S31508008030FB603B68DB68FA681343FB60FB6823F068
S3150800804080023B685B691343FB607B68FA681A60C9
S315080080503B689A687B68DA623B681A687B689A624A
S315080080607B68084A934203D13B681A697B681A639E
S315080080707B6801225A6100BF1437BD465DF8047B50
S31508008080704700BF0000014000040040000800409F
S31508008090000C0040004001400044014000480140F7
S315080080A080B487B000AF786039607B681B6A23F0BC
S315080080B001027B681A627B681B6A7B617B685B6866
S315080080C03B617B689B69FB60FB6823F07003FB6080
S315080080D0FB6823F00303FB603B681B68FA681343DD
S315080080E0FB607B6923F002037B613B689B687A69C6
S315080080F013437B617B681C4A93420CD17B6923F04E
S3150800810008037B613B68DB687A6913437B617B699B
S3150800811023F004037B617B68134A934211D13B69C0
S3150800812023F480733B613B6923F400733B613B682E
S315080081305B693A6913433B613B689B693A69134338
S315080081403B617B683A695A607B68FA689A613B6862
S315080081505A687B685A637B687A691A6200BF1C375B
S31508008160BD465DF8047B70470000014080B487B0C7
S3150800817000AF786039607B681B6A23F010027B6861
S315080081801A627B681B6A7B617B685B683B617B68FC
S315080081909B69FB60FB6823F4E043FB60FB6823F400
S315080081A04073FB603B681B681B02FA681343FB605D
S315080081B07B6923F020037B613B689B681B017A6916
S315080081C013437B617B681E4A93420DD17B6923F07A
S315080081D080037B613B68DB681B017A6913437B611B
S315080081E07B6923F040037B617B68154A934213D170
S315080081F03B6923F480633B613B6923F400633B617D
S315080082003B685B699B003A6913433B613B689B6922
S315080082109B003A6913433B617B683A695A607B68FD
S31508008220FA689A613B685A687B689A637B687A69D8
S315080082301A6200BF1C37BD465DF8047B704700BF55
S315080082400000014080B487B000AF786039607B6871
S315080082501B6A23F480727B681A627B681B6A7B61DF
S315080082607B685B683B617B68DB69FB60FB6823F0C6
S315080082707003FB60FB6823F00303FB603B681B6825
S31508008280FA681343FB607B6923F400737B613B68E0
S315080082909B681B027A6913437B617B681D4A93427C
S315080082A00DD17B6923F400637B613B68DB681B02A5
S315080082B07A6913437B617B6923F480637B617B68FE
S315080082C0144A934213D13B6923F480533B613B69BB
S315080082D023F400533B613B685B691B013A6913430E
S315080082E03B613B689B691B013A6913433B617B68A9
S315080082F03A695A607B68FA68DA613B685A687B684B
S31508008300DA637B687A691A6200BF1C37BD465DF876
S31508008310047B70470000014080B487B000AF7860E6
S3150800832039607B681B6A23F480527B681A627B6813
S315080083301B6A3B617B685B687B617B68DB69FB600A
S31508008340FB6823F4E043FB60FB6823F44073FB609F
S315080083503B681B681B02FA681343FB603B6923F4FE
S3150800836000533B613B689B681B033A6913433B61B7
S315080083707B68104A934209D17B6923F480437B6169
S315080083803B685B699B017A6913437B617B687A6901
S315080083905A607B68FA68DA613B685A687B681A64CF
S315080083A07B683A691A6200BF1C37BD465DF8047BD4
S315080083B0704700BF0000014080B487B000AFF86086
S315080083C0B9607A60FB681B6A7B61FB681B6A23F0ED
S315080083D00102FB681A62FB689B693B613B6923F0F3
S315080083E0F0033B617B681B013A6913433B617B6978
S315080083F023F00A037B617A69BB6813437B61FB68D8
S315080084003A699A61FB687A691A6200BF1C37BD46E9
S315080084105DF8047B704780B487B000AFF860B96038
S315080084207A60FB681B6A23F01002FB681A62FB6815
S315080084309B697B61FB681B6A3B617B6923F470431C
S315080084407B617B681B037A6913437B613B6923F075
S31508008450A0033B61BB681B013A6913433B61FB6898
S315080084607A699A61FB683A691A6200BF1C37BD4689
S315080084705DF8047B704780B485B000AF78603960DA
S315080084807B689B68FB60FB6823F07003FB603A68B7
S31508008490FB68134343F00703FB607B68FA689A603E
S315080084A000BF1437BD465DF8047B704780B487B0BB
S315080084B000AFF860B9607A603B60FB689B687B61D7
S315080084C07B6923F47F437B613B681A027B681A4306
S315080084D0BB6813437A6913437B61FB687A699A60C0
S315080084E000BF1C37BD465DF8047B704780B487B073
S315080084F000AFF860B9607A60BB6803F01F03012219
S3150800850002FA03F37B61FB681A6A7B69DB431A404C
S31508008510FB681A62FB681A6ABB6803F01F0379686E
S3150800852001FA03F31A43FB681A6200BF1C37BD46FB
S315080085305DF8047B7047000080B485B000AF7860B2
S3150800854039607B6893F83C30012B01D1022350E057
S315080085507B68012283F83C207B68022283F83D2051
S315080085607B681B685B68FB607B681B689B68BB60F5
S31508008570FB6823F07003FB603B681B68FA681343CB
S31508008580FB607B681B68FA685A607B681B681C4A34
S31508008590934218D07B681B68B3F1804F13D07B6871
S315080085A01B68184A93420ED07B681B68164A93428A
S315080085B009D07B681B68154A934204D07B681B6800
S315080085C0134A93420CD1BB6823F08003BB603B6817
S315080085D05B68BA681343BB607B681B68BA689A60B5
S315080085E07B68012283F83D207B68002283F83C20C3
S315080085F0002318461437BD465DF8047B704700BF54
S31508008600000001400004004000080040000C004043
S315080086100040014080B483B000AF786000BF0C37DB
S31508008620BD465DF8047B704780B483B000AF7860C0
S3150800863000BF0C37BD465DF8047B704780B485B033
S3150800864000AF78603960664B01221A707B681B7828
S31508008650012B35D17B6802331B78012B30D17B681F
S3150800866003331B78172B2BD17B6804331B78022B1B
S3150800867026D17B6805331B78012B21D10023FB7398
S3150800868010E0FB7B06337A681344FA7B1878554961
S3150800869013465B001344DB000B4402461A70FB7B4F
S315080086A00133FB73FB7B092BEBD94F4BDB7C43F088
S315080086B01003DAB24C4BDA744C4B01221A7086E07E
S315080086C07B681B78012B47D17B6802331B78012B0B
S315080086D042D17B6803331B78172B3DD17B68043363
S315080086E01B78022B38D17B6805331B78022B33D1D4
S315080086F00023BB7322E0BB7B5B0006337A68134416
S31508008700BA7B1888374913465B001344DB000B44D1
S31508008710083302461A80BB7B5B001A337A68134417
S31508008720BA7B18882F4913465B001344DB000B44B9
S315080087300A3302461A80BB7B0133BB73BB7B092B0A
S31508008740D9D9294BDB7C23F01003DAB2264BDA742D
S31508008750264B01221A703AE07B681B78012B36D12A
S315080087607B6802331B78012B31D17B6803331B7876
S31508008770172B2CD17B6804331B78032B27D17B68F6
S3150800878005331B78012B1FD100237B7312E07B7BFB
S315080087905B0006337A6813447A7B188811491346B6
S315080087A05B001344DB000B44023302461A807B7BD2
S315080087B001337B737B7B092BE9D90D4B01221A7098
S315080087C00C4B01221A7002E07B681B78012B044BC4
S315080087D000221A7000BF1437BD465DF8047B704747
S315080087E07B0A0020D04B0020C04C0020790A0020CC
S315080087F0780A00207A0A002080B582B000AF786037
S3150800880039603968786800F005F800BF0837BD4652
S3150800881080BD000090B583B000AF786039603B68D2
S3150800882001221A703B68013330221A703B68023302
S3150800883002221A703B68033317221A703B68043306
S3150800884004221A703B68053301221A703B68063306
S315080088503A4AB2F900201A803B680833374A9288A8
S315080088601A803B680A33354A92891A803B680C336A
S31508008870324A52891A803B6816331968304B5B7D39
S3150800888003F00F023B6816330A431A603B68163337
S3150800889019682B4B93F82D301B01DAB23B68163357
S315080088A00A431A603B6816331968254B93F8453016
S315080088B01B0203F470623B6816330A431A603B686E
S315080088C0163319681E4B93F85D301B039AB23B6842
S315080088D016330A431A603B6816331968184B93F81F
S315080088E075301B0403F470223B6816330A431A607A
S315080088F03B6816331968124B93F88D301B0503F441
S3150800890070023B6816330A431A603B6816331968C7
S315080089100A4BDB7C1B0603F0F8523B6816330A4306
S315080089201A603B6803F130043021386801F076FD9F
S315080089300346237000BF0C37BD4690BDC04C0020CF
S31508008940D04B002080B582B000AF134B1B78002BAC
S3150800895001D100231BE00023FB7107E0FB791121FD
S31508008960184600F0C9F8FB790133FB71FB79092B2E
S31508008970F4D90A4B9B7C0133DAB2084B9A74074B3D
S31508008980DB7C43F00803DAB2044BDA740123184699
S315080089900837BD4680BD00BF7A0A0020C04C0020BB
S315080089A080B489B000AF0023FB613A4B5B6C394A4F
S315080089B043F001035364374B5B6C03F00103FB611F
S315080089C0FB690023BB61334B1B6C324A43F001033E
S315080089D01364304B1B6C03F00103BB61BB690023B6
S315080089E07B612C4B1B6C2B4A43F002031364294B07
S315080089F01B6C03F002037B617B6900233B61254BFB
S31508008A001B6C244A43F004031364224B1B6C03F0CB
S31508008A1004033B613B690023FB601E4B1B6C1D4A2C
S31508008A2043F0080313641B4B1B6C03F00803FB603D
S31508008A30FB680023BB60174B1B6B164A43F0010308
S31508008A401363144B1B6B03F00103BB60BB68002365
S31508008A507B60104B1B6B0F4A43F0020313630D4BED
S31508008A601B6B03F002037B607B6800233B60094BAA
S31508008A701B6B084A43F004031363064B1B6B03F096
S31508008A8004033B603B6800BF2437BD465DF8047BA2
S31508008A90704700BF0038024080B582B000AF134B64
S31508008AA01B78012B1ED1124B1B78012B1AD10F4BA9
S31508008AB000221A7000F0B8FF0023FB710FE0FA7964
S31508008AC00C4913465B001344DB000B441A78FB7908
S31508008AD01146184600F010F8FB790133FB71FB7953
S31508008AE0092BECD900BF0837BD4680BD790A00209E
S31508008AF07A0A0020D04B0020B0B596B000AF0346E6
S31508008B000A46FB711346BB71BB7903F00F03DBB250
S31508008B10013B87F8573097F85730032B00F27481DA
S31508008B20BB791B09DBB2013B87F8563097F85630FC
S31508008B30002B00F06B8197F85630042B00F2668103
S31508008B40FA7997F85600F97997F85640B14D0B46D9
S31508008B509B000B4423445B012B4418331968AD4C26
S31508008B6013469B00134403445B0123441C331B68D0
S31508008B700B60FA7997F85610A64813469B001344DB
S31508008B800B445B01034418331B6800229A60FA7988
S31508008B9097F856109F4813469B0013440B445B01F5
S31508008BA0034418331B6800221A61FA7997F856109D
S31508008BB0984813469B0013440B445B01034418333F
S31508008BC01B6800225A61FA7997F85610914813469D
S31508008BD09B0013440B445B01034418331B684FF492
S31508008BE07A72DA6097F857308B4A32F81340FA7976
S31508008BF097F85610874813469B0013440B445B01AD
S31508008C00034418331B6822465A60FA7997F85610B7
S31508008C10804813469B0013440B445B0103441833F6
S31508008C201B681846FEF750FD4FF480537B64FA79AB
S31508008C3097F85610774813469B0013440B445B017C
S31508008C40034418331B6807F1440211461846FFF718
S31508008C50B7F8FA7997F856106E4813469B001344EE
S31508008C600B445B01034418331B681846FEF7DEFD08
S31508008C702023FB6300233B64FA7997F8561065486E
S31508008C8013469B0013440B445B01034418331B68CB
S31508008C9007F13C0211461846FFF74EFC07F1200380
S31508008CA000221A605A609A60DA601A615A619A61FB
S31508008CB060233B6200237B620023BB6200233B6385
S31508008CC0FA7997F85610534813469B0013440B44F9
S31508008CD05B01034418331868FA7997F856104D4C17
S31508008CE013469B0013440B445B01234414331A6850
S31508008CF007F120031946FEF7A1FFFA7997F85610EF
S31508008D00444813469B0013440B445B0103441B88E9
S31508008D10FB60FA7997F856103E4813469B001344B1
S31508008D200B445B0103440C331B683B6100237B61E6
S31508008D300223BB61FA7997F85610364813469B000A
S31508008D4013440B445B01034410331B68FB61FA7937
S31508008D5097F856102F4813469B0013440B445B01A3
S31508008D60034404331868FA7997F85610294C1346C1
S31508008D709B0013440B445B0123441C88FA7997F83B
S31508008D805610244D13469B0013440B445B012B4499
S31508008D9008331B781A462146FDF7DEFBFA7997F861
S31508008DA056101C4813469B0013440B445B010344AE
S31508008DB004331B6807F10C0211461846FDF730FA12
S31508008DC097F85630012B03D097F85630032B1ED14F
S31508008DD0FA7997F856100F4813469B0013440B442C
S31508008DE05B01034418331868FA7997F85610094C4A
S31508008DF013469B0013440B445B01234414331B683E
S31508008E001946FEF763FD02E000BF00E000BF5837D1
S31508008E10BD46B0BD000100205800002080B582B0D4
S31508008E2000AF0A4B1B78012B0CD10023FB7106E01F
S31508008E30FB79184600F01AF8FB790133FB71FB79C8
S31508008E40092BF5D900BF0837BD4680BD780A002032
S31508008E5080B500AF044B1B78012B02D1002000F02F
S31508008E60DFFB00BF80BD00BF780A002090B585B043
S31508008E7000AF0346FB71FA79AD4913465B0013440C
S31508008E80DB000B4414331B78012B00F0BF83FA79FF
S31508008E90A74913465B001344DB000B441B781B09E8
S31508008EA0DBB2013BFB73FB7B032B00F2B183FB7B3D
S31508008EB0012B40F0FB80FA799D4913465B00134469
S31508008EC0DB000B4402331B88B3F57A7F80F087807A
S31508008ED0FA79F97B974813469B0013440B445B01C8
S31508008EE0034414331B68002B17D1FA7990491346AB
S31508008EF05B001344DB000B4402331C88FA79F97BC8
S31508008F008C4813469B0013440B445B0103441833F7
S31508008F101B681B6822465A637BE3FA79F97B854806
S31508008F2013469B0013440B445B01034414331B682C
S31508008F30042B17D1FA797E4913465B001344DB00EC
S31508008F400B4402331C88FA79F97B7A4813469B004E
S31508008F5013440B445B01034418331B681A68234601
S31508008F60936356E3FA79F97B724813469B001344D8
S31508008F700B445B01034414331B68082B17D1FA7999
S31508008F806B4913465B001344DB000B4402331C8811
S31508008F90FA79F97B674813469B0013440B445B0137
S31508008FA0034418331B681A682346D36331E3FA79F6
S31508008FB05F4913465B001344DB000B4402331C88ED
S31508008FC0FA79F97B5B4813469B0013440B445B0113
S31508008FD0034418331B681A682346136419E3FA799D
S31508008FE0F97B544813469B0013440B445B01034426
S31508008FF014331B68002B0FD1FA79F97B4D481346B9
S315080090009B0013440B445B01034418331B681B681D
S3150800901040F2E9325A63FCE2FA79F97B454813468D
S315080090209B0013440B445B01034414331B68042B55
S315080090300FD1FA79F97B3F4813469B0013440B443A
S315080090405B01034418331B681A6840F2E9339363DB
S31508009050DFE2FA79F97B374813469B0013440B4441
S315080090605B01034414331B68082B0FD1FA79F97B8B
S31508009070304813469B0013440B445B0103441833E2
S315080090801B681A6840F2E933D363C2E2FA79F97BBE
S31508009090284813469B0013440B445B0103441833CA
S315080090A01B681A6840F2E9331364B2E2FB7B022BB1
S315080090B042D1FA791E4913465B001344DB000B4480
S315080090C002331B88002B19D1FA79F97B1948134604
S315080090D09B0013440B445B01034404331868FA7974
S315080090E0F97B144C13469B0013440B445B01234441
S315080090F01B8800221946FDF72FFA8AE2FA79F97BCE
S315080091000C4813469B0013440B445B010344043389
S315080091101868FA79F97B074C13469B0013440B44ED
S315080091205B0123441B8801221946FDF715FA70E2F4
S31508009130D04B002000010020FB7B032B40F0698206
S31508009140FA79A84913465B001344DB000B44023343
S315080091501B88002B00F04A81FA79A24913465B0066
S315080091601344DB000B4402331B88B3F57A7F80F087
S315080091703D81FA799B4913465B001344DB000B4497
S315080091800C331988FA79974813465B001344DB00B9
S3150800919003440A331B88994280F09B80FA799149E7
S315080091A013465B001344DB000B440C331B88013366
S315080091B098B28C4913465B001344DB000B440C330E
S315080091C002461A80FA79F97B874813469B001344AE
S315080091D00B445B01034414331B68002B17D1FA793F
S315080091E0804913465B001344DB000B4408331C8894
S315080091F0FA79F97B7C4813469B0013440B445B01C0
S31508009200034418331B681B6822465A6301E2FA793D
S31508009210F97B754813469B0013440B445B010344D2
S3150800922014331B68042B17D1FA796E4913465B0071
S315080092301344DB000B4408331C88FA79F97B6A4827
S3150800924013469B0013440B445B01034418331B6805
S315080092501A6823469363C3E0FA79F97B6248134692
S315080092609B0013440B445B01034414331B68082B0F
S3150800927017D1FA795B4913465B001344DB000B44AC
S3150800928008331C88FA79F97B574813469B00134420
S315080092900B445B01034418331B681A682346D363DF
S315080092A09EE0FA794F4913465B001344DB000B44F2
S315080092B008331C88FA79F97B4B4813469B001344FC
S315080092C00B445B01034418331B681A68234613646E
S315080092D09FE1FA79F97B444813469B0013440B44F3
S315080092E05B01034414331B68002B17D1FA793D49F7
S315080092F013465B001344DB000B4402331C88FA79DF
S31508009300F97B394813469B0013440B445B0103441D
S3150800931018331B681B6822465A637AE1FA79F97B87
S31508009320314813469B0013440B445B010344143332
S315080093301B68042B17D1FA792A4913465B00134494
S31508009340DB000B4402331C88FA79F97B264813465E
S315080093509B0013440B445B01034418331B681A68CB
S315080093602346936355E1FA79F97B1F4813469B0018
S3150800937013440B445B01034414331B68082B17D1B1
S31508009380FA79184913465B001344DB000B44023391
S315080093901C88FA79F97B144813469B0013440B443E
S315080093A05B01034418331B681A682346D36330E10C
S315080093B0FA790C4913465B001344DB000B4402336D
S315080093C01C88FA79F97B084813469B0013440B441A
S315080093D05B01034418331B681A682346136418E1B3
S315080093E017E100BFD04B002000010020FA798A4916
S315080093F013465B001344DB000B4402331B88B3F5AA
S315080094007A7F66D3FA79F97B844813469B0013441E
S315080094100B445B01034414331B68002B0FD1FA7904
S31508009420F97B7E4813469B0013440B445B010344B7
S3150800943018331B681B6840F2E9325A63E9E0FA7987
S31508009440F97B764813469B0013440B445B0103449F
S3150800945014331B68042B0FD1FA79F97B6F4813462E
S315080094609B0013440B445B01034418331B681A68BA
S3150800947040F2E9339363CCE0FA79F97B67481346FF
S315080094809B0013440B445B01034414331B68082BED
S315080094900FD1FA79F97B614813469B0013440B44B4
S315080094A05B01034418331B681A6840F2E933D36337
S315080094B0AFE0FA79F97B594813469B0013440B44ED
S315080094C05B01034418331B681A6840F2E9331364D6
S315080094D09FE0FA79504913465B001344DB000B44BE
S315080094E002331B88002B40F09480FA794A491346C8
S315080094F05B001344DB000B440C3300221A80FA7914
