S017000032302D32302D322D362D312D312D312E7372656340
S315080040000000012061500008014B0008054B00081C
S31508004010094B00080D4B0008114B00080000000072
S315080040200000000000000000000000009188000861
S31508004030154B000800000000218900088589000842
S31508004040B1500008B1500008B1500008B15000083E
S31508004050B1500008B1500008B1500008B15000082E
S31508004060B1500008B1500008B1500008B15000081E
S31508004070B1500008B1500008B1500008B15000080E
S31508004080B1500008B1500008B15000080000000007
S31508004090000000000000000000000000B150000809
S315080040A0B1500008B1500008194B0008B15000087B
S315080040B0B1500008B1500008B1500008B1500008CE
S315080040C0B1500008B1500008B1500008354B00083F
S315080040D0B1500008B1500008B150000800000000B7
S315080040E0B1500008B1500008B150000800000000A7
S315080040F0000000000000000000000000B1500008A9
S3150800410000000000B1500008B1500008B150000886
S315080041100000000000000000000000000000000091
S31508004120414B0008B1500008B15000084D4B00083B
S31508004130B150000800000000000000000000000068
S31508004140000000000000000000000000B150000858
S31508004150B1500008B1500008B1500008B15000082D
S31508004160B1500008B150000800000000000000002F
S315080041700000000000000000000000000000000031
S3150800418000000000B1500008000000000000000018
S31508004190B150000800000000000000000000000008
S315080041A00000000000000000000000000000000001
S315080041B000000000000000000000000000000000F1
S315080041C000000000000000000000000000000000E1
S315080041D00000000000000000FFFFFFFFEE11AA55D7
S315080041E010B5054C237833B9044B13B10448AFF323
S315080041F000800123237010BDB40D002000000000CC
S31508004200408D000808B5034B1BB103490348AFF3BB
S31508004210008008BD00000000B80D0020408D000891
S3150800422053B94AB9002908BF00281CBF4FF0FF310F
S315080042304FF0FF3000F06EB9ADF1080C6DE904CE11
S3150800424000F006F8DDF804E0DDE9022304B0704763
S315080042502DE9F047089D04468C46002B40F08380E4
S315080042608A42174647D9B2FA82F242B1C2F1200011
S3150800427024FA00F09140974040EA010C94404FEA36
S315080042801748230CBCFBF8F61FFA87FE08FB16C175
S3150800429043EA014306FB0EF1994209D9FB1806F1D8
S315080042A0FF3080F01981994240F21681023E3B4464
S315080042B05B1AA4B2B3FBF8F008FB103344EA0344D4
S315080042C000FB0EFEA64509D93C1900F1FF3380F024
S315080042D00581A64540F2028102383C4440EA064080
S315080042E0A4EB0E0400261DB1D4400023C5E9004303
S315080042F03146BDE8F08702B9FFDEB2FA82F2002A3B
S3150800430050D1CB1B4FEA174E1FFA87F80126B3FB8D
S31508004310FEFC210C0EFB1C3341EA034108FB0CF39F
S315080043208B4207D979180CF1FF3002D28B4200F282
S31508004330E9808446C91AA3B2B1FBFEF00EFB101140
S3150800434043EA014408FB00F8A04507D93C1900F1E7
S31508004350FF3302D2A04500F2D9801846A4EB080420
S3150800436040EA0C40BFE78B4209D9002D00F0B18026
S315080043700026C5E9000130463146BDE8F087B3FAA4
S3150800438083F6002E4AD18B4202D3824200F2B880CD
S31508004390841A61EB030101208C46002DA8D0C5E9DB
S315080043A0004CA5E7C2F1200320FA03F6974001FA6C
S315080043B002F04FEA174ED9403043030CB1FBFEF624
S315080043C01FFA87F80EFB161143EA014306FB08F1AC
S315080043D0994204FA02F409D9FB1806F1FF3C80F069
S315080043E08D80994240F28A80023E3B445B1A81B234
S315080043F0B3FBFEF00EFB103341EA034100FB08F362
S315080044008B4207D9791800F1FF3C73D28B4271D9D8
S3150800441002383944CB1A40EA064678E7C6F1200C3A
S3150800442003FA06F422FA0CF31C4320FA0CF701FAF5
S3150800443006F34FEA144E21FA0CF11F433B0CB1FB6D
S31508004440FEF91FFA84F80EFB191143EA014109FB2C
S3150800445008FA8A4502FA06F200FA06F308D961183C
S3150800446009F1FF3048D28A4546D9A9F10209214403
S31508004470A1EB0A01BFB2B1FBFEF00EFB101147EA31
S31508004480014700FB08F8B84507D9E71900F1FF31DD
S315080044902ED2B8452CD90238274440EA0940A7EB62
S315080044A00807A0FB02894F45C64649461AD317D0C6
S315080044B05DB1B3EB0E0267EB010707FA0CFCF2409D
S315080044C04CEA0202F740C5E9002700263146BDE856
S315080044D0F0872E4628460BE70646E9E61846FDE627
S315080044E04345E5D2B8EB020E69EB04010138DFE774
S315080044F00846D2E760468DE78146B9E7664675E71E
S3150800450030464AE7ACF1020C394413E702383C441A
S3150800451024E700BF704700BF0E480F4B0F4910B580
S31508004520012203604FF48034002344608162836073
S315080045300361037680F82030C362C36080F83030A8
S31508004540C261426100F0E2FD00B910BDBDE810404D
S3150800455000F0C2B9F84D0020002001400100000F0C
S31508004560F0B50268324B8BB000249A42CDE9054477
S31508004570CDE90744099401D00BB0F0BD03F58C339F
S3150800458001945A6C2B4842F480725A645A6C02F4AD
S3150800459080720192019A02941A6B42F004021A631D
S315080045A01A6B02F004020292029A03941A6B42F002
S315080045B002021A631A6B02F002020392039A049427
S315080045C01A6B42F001021A631B6B079403F001038E
S315080045D0032504933F2705A9049BCF26CDE9057536
S315080045E001F024FA05A914480596CDE9065401F008
S315080045F01DFA05A911480794CDE9055501F016FAE3
S3150800460005A90C480794CDE9057501F00FFA05A927
S3150800461009480794CDE9056501F008FA07480794A3
S3150800462005A9CDE9055501F001FA0BB0F0BD00BFAB
S315080046300020014000080240000002400004024039
S3150800464000B583B000220E4B0192196B41F480012C
S3150800465019631B6B03F48003019305213820019B22
S3150800466000F07CFF382000F0B1FF002205213B2036
S3150800467000F074FF3B2003B05DF804EB00F0A6BF22
S315080046800038024008B502F00BFE02F019FE02F0EF
S3150800469061FE012003F07CFCF7E700BF08B502F0D5
S315080046A043FF052003F074FCF9E700BF044B0360E1
S315080046B010B48023034C0C605DF8044B13607047FC
S315080046C0D00F0020D00D002070B5104C26460FCE16
S315080046D08EB06D460FC596E8070085E807000021ED
S315080046E0684603F029FC1C3406460FCC07AD0FC5F7
S315080046F094E80700064B85E80700002107A81E6016
S3150800470003F01AFC034B18600EB070BD588D0008F4
S31508004710404E0020444E0020F0B500248BB0CDE971
S315080047200544CDE907442B4B019409941A6B2A4E8C
S315080047302A4D42F004021A631A6B02F0040201922F
S31508004740019A02941A6B42F080021A631A6B02F0FD
S3150800475080020292029A03941A6B42F001021A63CB
S315080047601A6B02F001020392039A04941A6B42F040
S3150800477002021A631B6B03F00203049330460122FC
S315080047804FF40051049B01F04BFA224628464FF499
S31508004790005101F045FA4FF40057304605A90126A5
S315080047A0CDE90744CDE9057601F040F90C4B0794AD
S315080047B04FF4805205A92846CDE9052301F036F9BC
S315080047C005A92846CDE90576CDE9074401F02EF975
S315080047D00BB0F0BD00380240000802400004024059
S315080047E00000111030B5002495B0CDE90A44CDE992
S315080047F00444CDE906441F4B01940C940394196CA8
S315080048001D4A41F0805119641B6C03F080530193D3
S31508004810019B0294136823F4404343F40043136056
S31508004820136803F440430293092308934FF4803135
S3150800483001224FF480030225029809910D92062160
S3150800484054220F9308A804231091119213930E95DE
S31508004850129501F0E9F90F224FF4805303A829466F
S31508004860CDE9045407940392069301F0F3FB15B0BF
S3150800487030BD00BF003802400070004008B500F0A7
S3150800488019FCFFF7AFFF00F069FA00F0F9FA00F03B
S315080048906FFBFFF741FEFFF73FFFFFF7D1FE00F082
S315080048A01DF803F07DF9FFF70FFF03F03FFBFEE766
S315080048B0034B02689A4200D0704703F0ABB900BFB9
S315080048C000300140034B02689A4200D0704700F05E
S315080048D00BBC00BF00480140704700BF0B4808B535
S315080048E00B4B03600A220023C0E90133C0E90333F6
S315080048F0C0E90533C0E90833C262836201F020FDCE
S3150800490000B908BDBDE80840FFF7E6BF484E0020DD
S31508004910003001402DE9F0470268434B88B0002477
S315080049209A42CDE90344CDE90544079402D008B07C
S31508004930BDE8F08703F5843300945A6C3B4E42F485
S3150800494080525A645A6C02F480520092009A01947A
S315080049501A6B42F001021A631A6B02F00102019205
S31508004960019A02941A6B42F002021A631B6B0594B1
S3150800497003F0020302934FF0300A4FF002094FF09A
S315080049800308052703A905462948029BCDE903A97B
S31508004990CDE9068701F04AF82648059403A9CDE92A
S315080049A003A9CDE9068701F041F82349B4604FF021
S315080049B0C0624FF480633046C6E90544C6E9074439
S315080049C0C6E90012F4607462336100F00DFE20BB84
S315080049D01A4C1B4820604FF0C06340214FF4806298
S315080049E06360EE6400232046C4E90332C4E9053354
S315080049F0C4E90733B563A160636200F0F5FD78B9D1
S31508004A0000220521AC642320A56300F0A7FD23201E
S31508004A1000F0DCFD08B0BDE8F087FFF75DFFD7E7DB
S31508004A20FFF75AFFECE700BF00300140A04E002018
S31508004A30000002400004024010640240004F0020BB
S31508004A405864024082B00E4B00220092596C41F421
S31508004A5080415964596C01F4804100910099019292
S31508004A60196C41F0805119641B6C03F08053019353
S31508004A70019B0F216FF0010002B000F06FBD00BF6F
S31508004A800038024030B5014689B000221A2000F0ED
S31508004A9065FD1A2000F09AFD0025154B02955A6C03
S31508004AA0144C42F480225A645B6C03F4802301A9F7
S31508004AB0029303A8029B01F07BFB01F069FB0E4BF6
S31508004AC00E492561A3FB0030830C013B40F2E73217
S31508004AD02046C4E901352160E26002F0ABF810B166
S31508004AE0012009B030BD204601F0C2FE09B030BD34
S31508004AF000380240604F002083DE1B430048014017
S31508004B00704700BFFEE700BFFEE700BFFEE700BF35
S31508004B10FEE700BF704700BF08B5044801F08EFFE6
S31508004B20BDE80840024801F089BF00BF20500020B8
S31508004B30604F0020014801F079BD00BF484E0020B3
S31508004B40014800F083BE00BFA04E0020014800F0D7
S31508004B507DBE00BF004F00200D490E4BD1F88820BE
S31508004B600D4842F47002C1F888201A68002142F004
S31508004B7001021A6099601A6822F0847222F480325F
S31508004B801A6058601A6822F480221A60D960704741
S31508004B9000ED00E0003802401030002400B52E4A2F
S31508004BA00368934285B01AD0B3F1804F2DD02B4AB3
S31508004BB0934205D02A4A93423ED005B05DF804FBDD
S31508004BC0284B002202921A6C42F002021A641B6CED
S31508004BD003F002030293029B05B05DF804FB002272
S31508004BE0204B0092596C41F0010159645B6C03F04B
S31508004BF00103009311461A20009B00F0AFFC1A200F
S31508004C0005B05DF804EB00F0E1BC002203F50E33B5
S31508004C100192196C41F0010119641B6C03F0010340
S31508004C20019305211C20019B00F098FC1C2005B06F
S31508004C305DF804EB00F0CABC0A4B002203921A6C1A
S31508004C4042F004021A641B6C03F004030393039BEB
S31508004C5005B05DF804FB00BF0000014000040040F9
S31508004C60000800400038024070B50268344988B030
S31508004C7000238A42CDE90333CDE90533079323D0D0
S31508004C80B2F1804F3AD02F498A4246D02E498A42FD
S31508004C9001D008B070BD2D4A0293116B2C4841F023
S31508004CA002011163126B059302F002020292029D41
S31508004CB003A94FF470740222CDE9034206930792C2
S31508004CC000F0B4FE08B070BD204A0093116B21486D
S31508004CD041F001011163126B059302F00102009283
S31508004CE003A901224FF470650224CDE90354009EFE
S31508004CF00693079200F09AFE08B070BD0122154887
S31508004D00059303A94FF470750224CDE90354CDE940
S31508004D10062200F08BFE08B070BD0C4A0193116B99
S31508004D200D4841F004011163126B059302F0040269
S31508004D300192019D03A94FF470740222BCE700BFDB
S31508004D40000001400004004000080040003802400E
S31508004D5000040240000002400008024010B500248A
S31508004D6096B021460EA82022CDE90344CDE9054494
S31508004D70CDE90844CDE90A44CDE90C4401940794E9
S31508004D80029403F0D5FF3C483C4B0360C0E901445C
S31508004D90C0E90344C0E9054401F04CFF00284BD1A3
S31508004DA04FF480533448039303A901F09BFD002870
S31508004DB05ED1314801F05AFF002856D100232E480B
S31508004DC001A9CDE9013302F017F800284AD10022DB
S31508004DD060232948079307A9CDE90822CDE90A22C5
S31508004DE0CDE90C2201F08CFF002838D12248042294
S31508004DF007A901F085FF78BB1F48082207A901F01B
S31508004E007FFF30BB1C4807A90C2201F079FFE8B9DF
S31508004E1000234FF40052184812930EA9CDE90E3319
S31508004E20CDE910331593139202F020F838B91248D9
S31508004E30FFF71AFF16B010BDFFF74EFDB0E7FFF7F4
S31508004E404BFD0D48FFF710FF16B010BDFFF744FDE8
S31508004E50DEE7FFF741FDD5E7FFF73EFDCCE7FFF7B5
S31508004E603BFDC3E7FFF738FDB1E7FFF735FDA5E7DB
S31508004E70FFF732FD9DE700BF2050002000000140EB
S31508004E8000B53948394A8FB00023C0E90023C0E984
S31508004E900233CDE90433CDE90833CDE90A33CDE948
S31508004EA00C3303930193079303618361069302937B
S31508004EB001F0C0FE002839D14FF480532A480393E5
S31508004EC003A901F00FFD00284AD1274801F0CEFEBC
S31508004ED0002842D10023244801A9CDE9013301F075
S31508004EE08BFF002836D1002260231F480B9207A9A2
S31508004EF0CDE90822079301F003FF40BB1A480422B4
S31508004F0007A901F0FDFEF8B91748082207A901F01C
S31508004F10F7FEB0B9144807A90C2201F0F1FE40B912
S31508004F201148FFF7A1FE0FB05DF804FBFFF7D4FCAC
S31508004F30C2E7FFF7D1FC0C48FFF796FE0FB05DF805
S31508004F4004FBFFF7C9FCE5E7FFF7C6FCDCE7FFF75C
S31508004F50C3FCD3E7FFF7C0FCC5E7FFF7BDFCB9E71D
S31508004F60FFF7BAFCB1E700BFE04F0020000400409D
S31508004F7000B53948394A8FB00023C0E90023C0E993
S31508004F800233CDE90433CDE90833CDE90A33CDE957
S31508004F900C3303930193079303618361069302938A
S31508004FA001F048FE002839D14FF480532A4803936C
S31508004FB003A901F097FC00284AD1274801F056FEBC
S31508004FC0002842D10023244801A9CDE9013301F084
S31508004FD013FF002836D1002260231F480B9207A929
S31508004FE0CDE90822079301F08BFE40BB1A4804223C
S31508004FF007A901F085FEF8B91748082207A901F0A4
S315080050007FFEB0B9144807A90C2201F079FE40B911
S315080050101148FFF729FE0FB05DF804FBFFF75CFCAB
S31508005020C2E7FFF759FC0C48FFF71EFE0FB05DF804
S3150800503004FBFFF751FCE5E7FFF74EFCDCE7FFF75B
S315080050404BFCD3E7FFF748FCC5E7FFF745FCB9E794
S31508005050FFF742FCB1E700BFA04F00200008004060
S31508005060DFF834D0002103E00C4B5B584350043181
S315080050700B480C4B42189A42F6D30B4A02E000231F
S3150800508042F8043B094B9A42F9D3FFF765FD03F052
S315080050902BFEFFF7F3FB7047000001200C8E00087B
S315080050A000000020B40D0020B40D0020845100201B
S315080050B0FEE7000008B50B4B1A6842F400721A6046
S315080050C01A6842F480621A601A6842F480721A609A
S315080050D0032000F02FFA0020FFF7D4FCFFF7B2FCFC
S315080050E0002008BD003C0240034A044B11681B78A7
S315080050F00B441360704700BFA05000200400002036
S31508005100014B1868704700BFA0500020002800F027
S31508005110A080F8B5056C04463DB1236CDB060CD5BA
S31508005120002384F83C300120F8BDFFF719FA6564BE
S31508005130236C84F83C50DB06F2D4226C4849236879
S31508005140484D22F4885222F0020242F002022264FA
S315080051504A6822F440324A604A68606802434A60F4
S3150800516058682169A768E66820F4807058605A680C
S3150800517042EA01225A60586820F04070586059681F
S31508005180A06A39435960996821F4006199609A6860
S31508005190A84242EA06029A6052D09968E56A21F066
S315080051A0706199609A6810439860996821F0405137
S315080051B099609A682A439A609A6822F002029A606D
S315080051C09A68217E42EA41029A6094F82020002AD1
S315080051D041D05A68616A42F400625A605A6822F4F9
S315080051E060425A605A68013942EA41325A60DA6ABC
S315080051F0E069656922F47002DA62D96A013841EA1F
S315080052000051D962996821F400719960996894F8F7
S31508005210302041EA42219960996821F480619960B9
S315080052209A68002042EA85229A606064236C23F01B
S31508005230030343F001032364002384F83C30F8BDDC
S315080052409A6822F070629A609A6822F040529A60D0
S31508005250B2E7012070475A6822F400625A60C6E72E
S31508005260002301400100000F10B490F83C3083B0D1
S315080052700022012B019255D00123026880F83C30A8
S315080052809368DB0714D42A4B2A4C1B689168A4FB45
S3150800529003439B0C03EB430341F001019160019327
S315080052A0019B2BB1019B013B0193019B002BF9D17B
S315080052B09368DC0725D5036C23F4E06323F0010328
S315080052C043F4807303645368590505D5036C23F4C6
S315080052D0405343F480530364036C13F480531CBF98
S315080052E0436C23F0060343640024134B80F83C40C8
S315080052F06FF0220111605B68DB0607D00F4B9A42FC
S3150800530004D0002003B05DF8044B7047906810F095
S315080053104050F6D1936843F08043936003B05DF83C
S31508005320044B7047022003B05DF8044B704700BF7A
S315080053300000002083DE1B430023014000200140BB
S3150800534003689A68520570B505460C4602D59B68EF
S31508005350DE053AD4FFF7D4FE06462A6801E0601C4B
S3150800536024D113689907FAD56FF0120313602B6CD2
S3150800537043F400732B64936813F0405F14D1287EBE
S3150800538090B9D36A13F4700F02D093685A050BD4F8
S315080053902B6C23F480732B642B6CDB0404D42B6CEA
S315080053A043F001032B6470BD002070BD24B1FFF7E4
S315080053B0A7FE801BA042D0D92B6C002243F0040321
S315080053C085F83C202B64032070BD036C002243F053
S315080053D0200380F83C200364012070BD0368D86C64
S315080053E0704700BFF0B490F83C3082B00022012B21
S315080053F0019200F09480012380F83C300D68092D55
S3150800540029D804688B68226905EB45070726BE403C
S3150800541022EA060222612269BB40134323614B68D4
S31508005420062B2E462CD803EB8303626B053B1F2104
S31508005430994022EA01026263626B06FA03F3134398
S315080054406363394B9C422FD0002380F83C301846C2
S3150800545002B0F0BC704704688B68E768AEB206EB2A
S3150800546046021E3A4FF0070C0CFA02FC27EA0C0714
S31508005470E760E76893403B43E3604B68062BD2D965
S315080054800C2B37D803EB8303A3F123011F22236BCD
S315080054908A4023EA02032363236B06FA01F11943C0
S315080054A0214B21639C42CFD1122D32D0A5F1100396
S315080054B0012BC9D81D4A5368102D43F400035360C5
S315080054C0C2D11B4B02F146721B6802F52E3202F25C
S315080054D08332A2FB03239B0C03EB83035B0001933C
S315080054E0019B002BB0D0019B013B0193019B002B34
S315080054F0F9D1A9E703EB8302413AE36A1F219140F8
S3150800550023EA0103E362E36A06FA02F11943E16258
S3150800551097E7064A536843F48003536094E70220EA
S3150800552002B0F0BC704700BF0020014000230140D4
S31508005530000000200849CA6810B400024FF6FF04AC
S31508005540224000F4E063134343F0BF6343F400339F
S315080055505DF8044BCB60704700ED00E0194BDB6843
S31508005560C3F3022330B4C3F10705042D03F1040481
S3150800557028BF0425062C19D9033B4FF0FF349C405D
S3150800558022EA04024FF0FF34AC4021EA04019940B4
S31508005590002841EA02010CDB00F1604000F5614099
S315080055A00901C9B280F8001330BC704700221346BF
S315080055B0E8E7054B00F00F0009010344C9B2197664
S315080055C030BC704700ED00E0FCEC00E0002807DB8B
S315080055D000F01F01034A400901238B4042F820309E
S315080055E0704700BF00E100E0F8B50446FFF788FD04
S315080055F0002C54D023680222002184F8341084F841
S3150800560035201A6822F0010205461A6005E0FFF700
S3150800561077FD431B052B3BD823681A68D107F6D4B8
S31508005620D4E90126D4E90350324361691F682A4345
S31508005630D4E9066502430A43206A354932432A43B8
S315080056400243606A3940042841EA020129D01960F8
S315080056505A6922F007021043DAB22E495861103A05
S31508005660A1FB020109092C4823F47F73415CE1651B
S3150800567023F003035F2A88BF04333F228A400125AB
S315080056800021A3659A60616584F835500846F8BD1F
S3150800569003232022626584F835301846F8BD0120B8
S315080056A0F8BDD4E90B5028430143A26A196058692A
S315080056B020F00700104340F00400002DCCD07EB146
S315080056C0B6F5005F12D0022A03D9032AC4D1EA012B
S315080056D0C2D501234022626584F835301846F8BDE4
S315080056E0012A11D032F00202B6D1F0E7032AB3D864
S315080056F001A151F822F000BFD3560008CF56000882
S31508005700D356000809570008B5F1C07FA4D1E0E7D1
S315080057103F8010F0ABAAAAAAC08D0008F0B490F892
S315080057203440866D012C34D090F835400125AC42C2
S3150800573080F8345005D0002380F83430F0BC0220BD
S31508005740704704680227002580F835704565256886
S31508005750876825F48025402F256063600ABFA2600C
S31508005760A160E160C16D18BFE2603F238B40026C07
S31508005770B360236843F0160323601AB1236843F025
S3150800578008032360236843F0010323600020F0BC6C
S3150800579070470220F0BC704770B50446866DFFF767
S315080057A0AFFC94F83530022B06D00023802284F80B
S315080057B034306265012070BD2368216C1A6822F0B6
S315080057C016021A605A6922F0800205465A6131B3F8
S315080057D01A6822F008021A601A6822F001021A6092
S315080057E005E0FFF78DFC431B052B0FD823681B68C4
S315080057F013F00103F5D1E16D3F228A400121B26021
S3150800580084F8343084F83510184670BD20220023F9
S315080058100320626584F8343084F8350070BDA26CC4
S31508005820002AD5D1D8E700BF90F83530022B03D02F
S3150800583080234365012070470268052380F83530C8
S31508005840136823F001031360002070472DE9F04127
S3150800585082B00023866D0193C36D346871490822AE
S315080058609A4022420D68804604D001680F6878077E
S3150800587000F18A8001229A40224204D0D8F800100A
S315080058804969090678D404229A40224204D0D8F8F5
S31508005890001009688F0767D410229A40224204D064
S315080058A0D8F800100F68380749D420229A402242B7
S315080058B017D0D8F800100C68E00612D5B26098F830
S315080058C03520052A73D00B6813F4802F0B6800F077
S315080058D09080190340F19B80D8F83C300BB14046C4
S315080058E09847D8F854303BB3D8F85430DA071BD564
S315080058F0D8F800204C49052388F835301368A1FBF1
S31508005900051523F001031360AD0A02E01368DB07EF
S3150800591004D5019B0133AB420193F7D90022012339
S3150800592088F8342088F83530D8F84C3023B140460A
S3150800593002B0BDE8F041184702B0BDE8F081B26098
S315080059400A6812F4802F0A682AD1D70503D40A6890
S3150800595022F008020A60D8F84020002AA5D040465E
S315080059609047D8F85C30A0E7B260D8F8542042F0E7
S315080059700402C8F854208FE7B260D8F8542042F0E1
S315080059800202C8F854207EE70F6827F004070F6064
S31508005990B260D8F8542042F00102C8F8542069E7EA
S315080059A01203D8D5D8F84820002AD8D17DE70A6846
S315080059B0D8F8404022F016020A604A6922F08002AE
S315080059C04A6154B30A6822F008020A603F22D8F8EE
S315080059D0501002FA03F300240122B36088F8344019
S315080059E088F835200029A7D0404602B0BDE8F04126
S315080059F0084713F480737FF46FAF0A68012422F016
S31508005A0010020A6088F8343088F8354064E7D8F818
S31508005A104430002B7FF463AF63E7D8F84820002AA8
S31508005A20D0D1D3E700000020B5814E1B2DE9F04FF9
S31508005A30DFF8DCC10D6885B000234FF0010B03E0E9
S31508005A400133102B00F08A800BFA03F202EA050AEA
S31508005A50AA43F5D14C6824F0100E0EF1FF32012A44
S31508005A604FEA43067DD9C7680322B24027EA020EE9
S31508005A708F68B74047EA0E07D2430192C760D0F84D
S31508005A8000E0019A04F0030707FA06F60EEA020E8A
S31508005A9046EA0E06E7000660D2D5584E0022039263
S31508005AA0726C42F480427264726C23F0030707F149
S31508005AB0804702F4804207F59C37039203F00306F9
S31508005AC0039AD7F808E0B6000F22B2402EEA020879
S31508005AD04B4A904215D002F5806290427BD0494AE3
S31508005AE090427DD0484A904200F08180474A9042D1
S31508005AF00CBF4FF0040E4FF0070E0EFA06F648EAF2
S31508005B000608C7F80880DCF80020E6036FEA0A07EB
S31508005B1054BF3A404AEA0202CCF80020DCF8046096
S31508005B20A20354BF3E404AEA0606CCF80460DCF8F5
S31508005B300860E20254BF3E404AEA0606CCF808600E
S31508005B40DCF80C20A40203F1010354BF3A404AEAE8
S31508005B500202102BCCF80C207FF476AF05B0BDE816
S31508005B60F08F87688A684FF0030808FA06F827EA6C
S31508005B700809CF68B74047EA09078760D0F8049054
S31508005B80C4F3001729EA0A099F4047EA090747604C
S31508005B90C768B24027EA08071743BEF1020F6FEA43
S31508005BA008020192C7607FF46AAF4FEAD30800EB98
S31508005BB0880803F00707BA00D8F820900F694FF055
S31508005BC00F0E0EFA02FE29EA0E0E974047EA0E0756
S31508005BD0C8F8207053E70BFA06F648EA060890E775
S31508005BE04FF0020E0EFA06F648EA060889E74FF065
S31508005BF0030E0EFA06F648EA060882E7003802405F
S31508005C000000024000080240000C0240001002405A
S31508005C10003C01400369194214BF01200020704767
S31508005C2002B9090481617047002800F09F812DE9B7
S31508005C30F0410368DD0782B004462FD5AC498A686F
S31508005C4002F00C02042A00F0EC808A6802F00C02CA
S31508005C50082A00F0E2806368B3F5803F00F0EB8025
S31508005C60B3F5A02F00F07281A14D2A6822F4803284
S31508005C702A602A6822F480222A60002B40F0E080FD
S31508005C80FFF73EFA064605E0FFF73AFA801B642856
S31508005C9000F200812B689B03F6D423689F0728D55A
S31508005CA0934A916811F00C0F00F09080916801F00A
S31508005CB00C01082900F08680E368002B00F00681B5
S31508005CC08C4B8B4E01221A60FFF71AFA054605E03F
S31508005CD0FFF716FA401B022800F2DC8033689807A3
S31508005CE0F6D53368226923F0F80343EAC203336022
S31508005CF023681A0752D458072FD57D4A136C13F018
S31508005D0080537ED000257C4E3368D90540F1B28099
S31508005D10A368012B00F0C280052B00F02981744E80
S31508005D20326F22F001023267326F22F004023267C4
S31508005D30002B40F0B880FFF7E3F941F288380746B0
S31508005D4005E0FFF7DDF9C01B404500F2A380336F7D
S31508005D509807F6D4002D40F00381A069D0B1644DB0
S31508005D60AB6803F00C03082B00F0CC80634B0022D1
S31508005D7002281A6000F00681FFF7C2F92C4605468C
S31508005D8005E0FFF7BDF9401B022800F2838023686F
S31508005D909B01F6D4002002B0BDE8F081636903B325
S31508005DA0574B534E01221A60FFF7AAF9054604E03D
S31508005DB0FFF7A6F9401B02286CD8736F9B07F7D527
S31508005DC0236898E7526856023FF576AF484A126844
S31508005DD0950743D5E268012A40D0012002B0BDE804
S31508005DE0F081474A424E1360FFF78AF9054604E0F8
S31508005DF0FFF786F9401B02284CD8736F9F07F7D424
S31508005E00DEE70193136C43F080531364136C03F0BD
S31508005E1080530193019B012575E74A6850027FF577
S31508005E201AAF334A126891037FF538AF6268002AC1
S31508005E307FF434AFD1E72E4A136843F480331360F6
S31508005E40FFF75EF92A4E054604E0FFF759F9401BAD
S31508005E5064281FD833689A03F7D51EE724492069B2
S31508005E600A6822F0F80242EAC0020A601A077FF5B9
S31508005E7042AF93E7336843F480733360FFF740F922
S31508005E8007463368DA053FF543AFFFF739F9C01B14
S31508005E900228F6D9032002B0BDE8F081144A136F30
S31508005EA043F001031367FFF72BF9114F064641F23A
S31508005EB0883804E0FFF724F9801B4045EAD83B6F91
S31508005EC09B07F7D5002D3FF448AF49E0094A084E2D
S31508005ED01360FFF715F9054604E0FFF711F9401BB3
S31508005EE00228D7D833689907F7D4236801E700BF93
S31508005EF000380240000047420070004060004742F8
S31508005F00800E474201283FF446AFAB68E26903F4C6
S31508005F10800191427FF461AF226A03F03F0191420A
S31508005F207FF45BAF616A47F6C0721A408A427FF413
S31508005F3054AFA26A03F4403191427FF44EAFE06A4F
S31508005F4003F07063181A18BF012024E7244B1A6857
S31508005F5042F480221A601A6842F480321A606FE7A7
S31508005F601F4A136C23F080531364F6E6012070472A
S31508005F701B4B1A6F42F004021A671A6F42F00102AD
S31508005F801A6790E7FFF7BCF8064605E0FFF7B8F88A
S31508005F90801B02283FF67EAF2B689901F6D4D4E918
S31508005FA00736D4E90902E16A334343EA8013520803
S31508005FB043EA0163013A0B49094E43EA02430122C7
S31508005FC06B600A60FFF79CF8044605E0FFF798F84F
S31508005FD0001B02283FF65EAF33689A01F6D5D9E66C
S31508005FE00038024060004742174908B58B6803F03D
S31508005FF00C03042B1BD0082B17D14A684B6813F4E3
S31508006000800302F03F0214D149681048C1F3881191
S31508006010A1FB0001FEF704F90B4B5B68C3F30143D0
S3150800602001335B00B0FBF3F008BD084808BD08481B
S3150800603008BD4B680648C3F38813A3FB0001002379
S31508006040FEF7EEF8E8E700BF003802400024F40047
S31508006050001BB700002800F08780484A136803F041
S315080060600F038B422DE9F0410D46044609D2CBB207
S315080060701370136803F00F038B4202D00120BDE8AA
S31508006080F0812368980714D5590704D53C498A68CE
S3150800609042F4E0528A601A0704D539498A6842F4FC
S315080060A060428A603649A0688A6822F0F002024394
S315080060B08A60DF0721D56268012A57D0931E012B13
S315080060C02F4B1B684DD99907D8D52D4EB36823F0A9
S315080060D003031343B360FFF713F841F28838074602
S315080060E004E0FFF70DF8C01B404544D8B368626862
S315080060F003F00C03B3EB820FF3D1204A136803F0C5
S315080061000F03AB4206D9EBB21370136803F00F0303
S31508006110AB42B3D123685A0706D51949E0688A689D
S3150800612022F4E05202438A601B0707D5144A216904
S31508006130936823F4604343EAC1039360FFF754FF6F
S315080061400F4A104C92681049C2F303120346A25C28
S315080061500E48D34000680B60FEF794FC0020BDE8AB
S31508006160F0819801B1D489E701207047044B1B6878
S315080061709E03AAD482E7032081E700BF003C0240C1
S3150800618000380240A88D0008000000200800002002
S31508006190044B054A9B680549C3F342330868D35C38
S315080061A0D840704700380240B88D0008000000202B
S315080061B00E4B0F2202609A6802F0030242609A6848
S315080061C002F0F00282609A6802F4E052C2609B68AC
S315080061D0DB0810B403F4E053054C036123685DF84B
S315080061E0044B03F00F030B60704700BF00380240F2
S315080061F0003C02402DE9F04107460D4616469846F2
S315080062003A6801E0731C06D1946835EA0403F9D0AC
S315080062100020BDE8F081FEF773FFA0EB0800864278
S31508006220EED8D7E900315A68B1F5827F22F0E0024C
S315080062305A6013D0BA6AB2F5005F07D11A6822F419
S3150800624000521A601A6842F400521A6001220023AA
S3150800625087F8512087F850300320DAE7BA68B2F594
S31508006260004F02D0B2F5806FE4D11A6822F04002DE
S315080062701A60DFE770B54568B5F5827F04461346B0
S3150800628006D00A460121FFF7B5FF98B9002070BD70
S315080062908268B2F5004F13D0B2F5806F15D1066843
S315080062A0356825F040050A4635600121FFF7A2FF4B
S315080062B00028EBD0636D43F020036365032070BDAF
S315080062C00068026822F0400202600A4620468021E1
S315080062D0FFF790FF0028EDD10020D8E770B5164CDF
S315080062E0164B2568A3FB0535436882B06D0D4FF440
S315080062F07A7606FB05F5B3F5827F0446019507D144
S315080063000CE0019B2268013B019393681B0602D5AA
S31508006310019B002BF5D1002002B070BD13460A463A
S315080063208021FFF767FF0028F5D0636D43F020034F
S3150800633063650320F0E700BF00000020819F5E161A
S3150800634000283BD070B590F851200023044602F08F
S31508006350FF01836262B31846D4E90135D4E9032103
S315080063602B4313436269E569266A0B431343A26903
S3150800637021682B43022584F85150334302F40075F3
S315080063800E682B43120C656A02F0040203432A4383
S3150800639026F040060E600B604A60CB69002223F4A3
S315080063A000630125CB61626584F85150104670BDC3
S315080063B080F85010FEF7AEFAA06ACDE701207047C4
S315080063C070B5044690F85000012868D094F851003A
S315080063D00125A842C6B284F850500DD06068B0F5C1
S315080063E0827F04D00220002384F8503070BDA06854
S315080063F00028F7D1042EF5D100294ED0002A4CD01A
S31508006400002B4AD094F85100216304281CBF0520AC
S3150800641084F8510000206065E386E38794F85150BC
S31508006420A386042DA387C4E9100008BF2149E06CA0
S315080064300EBF214B2149224BA263224DC0E90F31E1
S31508006440E38F2168C56400259BB20C310565FFF70B
S3150800645065F930BB2268A56C5368216B43F00103CC
S315080064605360E38E2864C5E91300E8630C329BB2D7
S315080064702846FFF753F9A0B923681A68520603D4C9
S315080064801A6842F040021A605A6842F020025A60BE
S315080064905A6842F002025A60A5E70120A3E70220E3
S315080064A070BD636D012243F010036365104684F8DE
S315080064B0512098E7396500087D6500084965000898
S315080064C0D16500085965000890F85020012A03464E
S315080064D009D000684268002142F00302426008467B
S315080064E083F8501070470220704700BF38B504463D
S315080064F0806C10B1FFF750F9A0B90025E06C38B1EF
S31508006500FFF74AF920B1636D43F01003636501256F
S3150800651022685368012123F00303536084F851105D
S31508006520284638BD636D43F0100363650125E5E72A
S31508006530704700BF704700BF08B5806BFFF7FAFFCA
S3150800654008BD00BF704700BF08B5806BFFF7FAFFAC
S3150800655008BD00BF704700BF806B026808B5536866
S3150800656023F003035360436D012143F01003436591
S3150800657080F85110FFF7EEFF08BD00BF38B5044696
S31508006580856BFEF7BDFD23681B68DB0517D42B68F2
S31508006590596821F020015960596821F00301024623
S315080065A0596028466421FFF765FE08B120236B650C
S315080065B001230022EA8785F851306B6D1BB92846FE
S315080065C0FFF7B6FF38BD2846FFF7C4FF38BD00BF42
S315080065D038B50546846BFEF793FD2B681B68DB050B
S315080065E01BD421684B6823F0200302464B602046E3
S315080065F06421FFF773FE18B1636D43F020036365EA
S3150800660021684B68002223F0030301204B60E286D1
S31508006610E28784F85100636D1BB92046FEF748F9F6
S3150800662038BD2046FFF796FF38BD00BF30B5026873
S315080066305168936813F0400F85B00446C3F380157C
S3150800664005D113F0010F02D011F0400F7AD1980747
S3150800665001D5080670D413F0200FC3F3401049D0B3
S31508006660880645D575B194F8510003286CD0606D3D
S31508006670002540F0040060650095D0680090906899
S3150800668000900098606D002540F001006065029555
S3150800669090680290106820F0400010600298C3F3DA
S315080066A00023002B3ED1636D13B3536823F0E00338
S315080066B0536001208B0784F851004DD05368E06C75
S315080066C023F00303536040B1254B0365FFF7ACF88D
S315080066D018B1636D43F040036365A06C40B1204B6D
S315080066E00365FFF7A1F818B1636D43F040036365CE
S315080066F005B030BD95B18D06FAD594F85150032DE5
S3150800670022D0656D45F0040565650090D068009057
S31508006710906800900098C3F30023C2E7DD05E7D52B
S315080067208B06E5D5636D002043F008036365039087
S3150800673093680393039BB6E7636C204605B0BDE8F0
S3150800674030401847036CF9E700230193D368019397
S3150800675093680193019BCBE72046FFF7FBFEC7E74B
S315080067606567000808B5806B0023C387C386FFF7F3
S31508006770F1FE08BD036A23F001030362F0B4036A5D
S31508006780114E476882698D680C6823F0020322F06F
S315080067907302B04243EA050342EA040206D0496896
S315080067A047608261F0BC416303627047D1E90545E1
S315080067B0CE6823F0080327F4407733432C4323F0AD
S315080067C004032743EBE700BF00000140036A23F4F4
S315080067D080730362F0B4036A124E4768C2698D6813
S315080067E00C6823F4007322F07302B04243EA0523CF
S315080067F042EA040206D049684760C261F0BCC16338
S3150800680003627047D1E90545CE6823F4006327F48F
S31508006810405743EA06232C4323F4806347EA0417C8
S31508006820E9E700BF00000140036A23F480530362CE
S31508006830F0B4036A0D4F4668C2698D680C6823F484
S31508006840005322F4E642B84243EA053342EA0422F8
S3150800685006D049684660C261F0BC016403627047AD
S315080068604C6926F4804646EA8416F2E700000140A1
S315080068700368DA6842F00102DA609A6802F00702F1
S31508006880062A03D01A6842F001021A6000207047EF
S3150800689003680122186A01F01F0102FA01F120EAD1
S315080068A0010010B418621A6A0B4C1143A34219620C
S315080068B00CD09A6802F00702062A03D01A6842F03A
S315080068C001021A6000205DF8044B70475A6C42F4C6
S315080068D000425A64EDE700BF00000140704700BF60
S315080068E0FFF7D6BF90F83C30012B74D0F0B402689D
S315080068F00124022380F83C4080F83D3094680B68F8
S3150800690024F47F4424F07704602B946065D031D852
S31508006910402B48D021D9502B16D1156A166A4C68D7
S31508006920CF6826F001061662936925F00A0123F05E
S31508006930F00343EA0713214393611162936823F036
S31508006940700343F0570393600023012280F83D202B
S3150800695080F83C30F0BC18467047202B02D01ED970
S31508006960302BF1D1916821F070010B4343F00703F6
S315080069709360E9E7702B49D0B3F5005FE4D1D1E91C
S315080069800153CC6891682B4343EA042321F47F41E1
S315080069900B439360936843F480439360D4E733F0E2
S315080069A01001D1D1DEE7156A166A4C68CF6826F061
S315080069B001061662936925F00A0123F0F00343EAFB
S315080069C00713214393611162936823F0700343F020
S315080069D047039360B8E702207047146A4D68CE688B
S315080069E024F0100414629169136A21F4704123F0AB
S315080069F0A00343EA051341EA0631916113629368DD
S31508006A0023F0700343F0670393609DE7D1E90153D0
S31508006A10CC6891682B4343EA042321F47F410B4356
S31508006A209360936843F0770393608DE7704700BFE0
S31508006A30704700BF704700BF704700BF03681A69F8
S31508006A40910710B5044602D5DA6892075FD41A6929
S31508006A50500702D5DA68510746D41A69120702D5D3
S31508006A60DA6810072ED41A69D20602D5DA68D00673
S31508006A7018D41A69D10702D5DA68D2075DD41A691B
S31508006A80100602D5DA6811065FD41A69520602D5CD
S31508006A90DA68500661D41A69910602D5DA68920650
S31508006AA043D410BD6FF01001082219612277DB6903
S31508006AB013F4407F204664D0FFF7BAFF002223680C
S31508006AC02277D6E76FF00801042219612277DB697D
S31508006AD09907204652D1FFF7A9FF2046FFF7AAFFDC
S31508006AE0002223682277BEE76FF0040102221961AB
S31508006AF022779B6913F4407F20463CD1FFF796FF27
S31508006B002046FFF797FF002223682277A5E76FF054
S31508006B1002010122196102779B699B0725D0FFF7BD
S31508006B2087FF00222368227791E76FF0200220462C
S31508006B301A61BDE8104000F0C3B96FF001021A618E
S31508006B402046FDF7BFFE236899E76FF080021A61B9
S31508006B50204600F0B7F9236897E76FF040021A61FC
S31508006B602046FFF769FF236895E7FFF75FFF204692
S31508006B70FFF760FFD5E7FFF75BFFC4E7FFF758FFAE
S31508006B80AEE7FFF753FF2046FFF754FF96E700BF2F
S31508006B90274A0368904270B433D0B0F1804F1BD0B7
S31508006BA0A2F57C42904217D002F58062904213D03B
S31508006BB002F5806290420FD002F59A3290420FD0C9
S31508006BC002F5806290420BD002F58062904207D0AF
S31508006BD04D698C680A680AE04A6823F07003134313
S31508006BE0CE684D698C680A6823F44073334323F0F2
S31508006BF080032B4303600123C462826270BC436135
S31508006C0070474D68CC684A6923F070032B4323F418
S31508006C104073234323F08003134303608B68C362E6
S31508006C200B6883620B690363012370BC4361704779
S31508006C3000000140C0B110B590F83D30044603F09D
S31508006C40FF0263B10223214684F83D3051F8040B54
S31508006C50FFF79EFF012384F83D30002010BD80F821
S31508006C603C20FDF79BFFEDE701207047C0B110B54A
S31508006C7090F83D30044603F0FF0263B10223214633
S31508006C8084F83D3051F8040BFFF782FF012384F89E
S31508006C903D30002010BD80F83C20FFF71FFEEDE7D1
S31508006CA001207047036A23F010030362F0B4036AF5
S31508006CB0124E476882698D680C6823F0200322F417
S31508006CC0E642B04243EA051342EA042206D049687E
S31508006CD047608261F0BC816303627047D1E905456C
S31508006CE0CE6823F0800327F4406743EA06132C4353
S31508006CF023F0400347EA8407E9E700BF00000140A4
S31508006D0038B590F83C30012B74D00D46022301218A
S31508006D10044680F83C1080F83D300C2A19D8DFE884
S31508006D2002F00718181838181818511818181F00DC
S31508006D3000682946FFF71EFD23682869996941F00E
S31508006D4008019961996921F0040199619A690243D8
S31508006D509A610123002084F83D3084F83C0038BD50
S31508006D6000682946FFF760FD23682869D96941F458
S31508006D700061D961D96921F48061D961DA6942EA89
S31508006D800022DA610020012384F83D3084F83C00B3
S31508006D90E5E700682946FFF785FF236828699969AA
S31508006DA041F400619961996921F4806199619A6950
S31508006DB042EA00229A610020012384F83D3084F8D3
S31508006DC03C00CCE700682946FFF700FD23682869E0
S31508006DD0D96941F00801D961D96921F00401D9615D
S31508006DE0DA690243DA610020012384F83D3084F829
S31508006DF03C00B4E7022038BD90F83C30012B2ED079
S31508006E000368022230B480F83D205A680C68154D94
S31508006E1022F070022243AB429C685A6011D0B3F14B
S31508006E20804F0ED0104A93420BD002F580629342EF
S31508006E3007D002F58062934203D002F59A32934254
S31508006E4004D14A6824F0800414439C60002301227C
S31508006E5080F83D2080F83C3030BC18467047022048
S31508006E60704700BF000001400004004090F83C3025
S31508006E70012B22D030B4D1E90253044623F44073DF
S31508006E80D1E900202B4323F48063034323F40063F2
S31508006E90D1E90450134323F480532B4323F40053BE
S31508006EA0C9692268034323F480430B4300215364D2
S31508006EB084F83C10084630BC70470220704700BF73
S31508006EC0704700BF704700BF2DE9F04F11F00F0261
S31508006ED01CBF02F1FF32D2B20D0993B000F08280D6
S31508006EE005F1FF395FFA89F9023D5FFA85FA4D46E1
S31508006EF0DFF8E481714909EBC00308EB8313C60088
S31508006F005B688B4200F089806D498B426ED06D4973
S31508006F108B4200F0A98006EB090308EB83136A4845
S31508006F20196B814200F08680B1F1804F00F08F80A6
S31508006F30664B994200F0A580654B994200F0AF80F8
S31508006F4006EB090308EB8314DFF890C1E06A3CF806
S31508006F50122001274FF0020E4FF47A7C0E97002775
S31508006F60CDF840E00F97C0E9047780E886104FEA2D
S31508006F70831BFFF75FFE4FF4805309A9E06A099364
S31508006F80FFF7B0FCE06AFFF771FE202307A9E06A65
S31508006F9008970793FFF730FFD4E9037338F80B1007
S31508006FA0227A60681193CDE90D17FEF739FE6068FD
S31508006FB00DA9FEF73BFDD4E90837A18A227FA0690F
S31508006FC01197CDE90D13FEF72BFEA0690DA9FEF763
S31508006FD02DFDBAF1020F16D9063D012D13D913B0AE
S31508006FE0BDE8F08F4FF0FF0AA94681E7394B00212B
S31508006FF00591196B41F0020119631B6B03F002033B
S315080070000593059B87E74E4408EB8618D8E90A10CE
S31508007010FFF766FC13B0BDE8F08F2E4B00210491F4
S31508007020196B41F0010119631B6B03F0010304930B
S31508007030049B70E7274B00200090586C40F0010035
S3150800704058645B6C03F001030093009B78E7214BBF
S3150800705000200190186C40F0010018641B6C03F0C6
S3150800706001030193019B6BE71A4B00210691196BEB
S3150800707041F0040119631B6B03F004030693069B96
S3150800708049E703F50D3300200290186C40F0020022
S3150800709018641B6C03F002030293029B50E703F586
S315080070A00C3300200390186C40F0040018641B6C25
S315080070B003F004030393039B42E700BF000002406A
S315080070C0000402400008024000000140000400409D
S315080070D0000800400038024064000020300D0020FF
S315080070E0314B01221A700278012A02D000221A7046
S315080070F07047D0F80220652AF0B433D06F2A05D03D
S31508007100662A1BD000221A70F0BC70472749021D58
S31508007110103032F8024FCC8194890C82904201F1EA
S315080071202001F6D1224923484A7C22F01002012484
S315080071304A74002204701A70F0BC70471B4900F1AB
S3150800714008022C3032F8025C52F8064B4C60824238
S315080071504D8001F12001F5D1174818490122027026
S315080071600A70CFE7114A411D00F10A054FF47A6704
S315080071700B3011F8014F147035F8024F661EB6F53C
S315080071807A6F34BF94819781884202F12002F0D148
S31508007190074908484A7C42F0100201244A74002232
S315080071A004701A70F0BC704729100020A450002003
S315080071B068510020251000202610002027100020E6
S315080071C038B50C4642F60133254923808A88254B73
S315080071D00888E0806725C4F802502281DA7F487C57
S315080071E002F00F01C4F8161093F83F201201D2B22C
S315080071F00A44C4F8162093F85F10090201F4706176
S315080072000A44C4F8162093F87F10090389B211447A
S31508007210C4F8161093F89F20120402F47022114441
S31508007220C4F8161093F8BF200006120500F0F850AF
S3150800723002F4700202430A44C4F8162004F1140149
S3150800724004F10802588922F8020F8A4203F1200342
S31508007250F8D12B21204600F059FE84F82B0038BDC2
S3150800726068510020A45000200B4B187890B110B537
S315080072700024E0B211210134FFF726FE062CF8D1CE
S31508007280064B197C5A7C013142F0080219745A746B
S31508007290012010BD704700BF27100020685100204C
S315080072A0064B4FF47A629A819A85A3F84C20A3F884
S315080072B06C20A3F88C20A3F8AC207047A4500020BB
S315080072C01E4B1A78012A00D070471D4A1278012AE7
S315080072D0FAD12DE9F0431B4D1B4E1C4C002185B0FD
S315080072E0174605F10C0819704FF00209736B0093E5
S315080072F0694620460197CDF80890FEF773F82046B0
S31508007300FDF7B2FF4FF4FA712046FEF719F820464A
S31508007310FEF764F825F8020B454506F50076E5D133
S315080073200B4D00246301E0B2E95C0134FFF7CCFDA4
S31508007330062CF7D105B0BDE8F08300BF2510002064
S31508007340271000200C00002064000020F84D0020C3
S31508007350A4500020714B1B78012B00D070472DE9F3
S31508007360F047DFF8C0A16E4C00255646A94640F204
S31508007370E63840F2E937A37F012B1ED023781B0994
S315080073801BD0581F5A1E0128D1B21FD9023B022B07
S3150800739030D8638801EBC502B3F57A7F0AEB82120F
S315080073A052D2D2E90A12126800295FD0042900F0E5
S315080073B0828008290CBFD36313640135062D04F1B6
S315080073C0200406F50076D6D1BDE8F087628842BB70
S315080073D001EBC5010AEB8113880101353AF8001063
S315080073E05868FEF71DFC062D04F1200406F5007604
S315080073F0C1D1E9E70629E0D16288531E9BB243450D
S3150800740028D8638A218A99423AD9D6F8A82101331D
S315080074106382D6F8AC31002A58D11B68E2895A63D0
S31508007420CBE701EBC50293010AEB82123AF8031087
S31508007430506801350122FEF7F3FB062D04F12004FE
S3150800744006F5007697D1BFE7936A8BB9D36A1B68AE
S315080074505F63B2E7B2F57A7FD6F8A83118D2A4F8F6
S315080074601290002B3AD1D6F8AC2112685363A4E7E0
S31508007470042B1CD0082BD36A1B6816D01F649CE704
S31508007480D6F8A831CBB9D6F8AC311B685A6394E75D
S3150800749023B9D6F8AC311B685F638EE7042B29D075
S315080074A0082BD6F8AC311B68E8D1DF6385E7D36AC9
S315080074B01B689F6381E793637FE7042B29D0082B1A
S315080074C0D6F8AC311B6807D01A6476E7042A1CD0B4
S315080074D0082A1B68E289F7D1DA636EE7042B0ED017
S315080074E0082BD6F8AC311B680CBFC3F83C90C3F820
S315080074F0409062E7D6F8AC311B689F635DE7D6F823
S31508007500AC311B68C3F8389057E71B68E2899A6361
S3150800751053E7D6F8AC311B689A634EE7261000206D
S31508007520A4500020640000202DE9F04FA84DDFF894
S31508007530BC92A84E8BB005F1C00BA8462C46CA468D
S31508007540012718E0DAF838300693CDE90777FDF712
S3150800755049FF3046FDF788FE4FF4FA713046FDF7CD
S31508007560EFFE18B93046FDF739FF208320345C4515
S315080075700AF5007A0DD0A37F012B06A93046E1D182
S31508007580E37F63810023238120345C450AF5007A72
S31508007590F1D101230F2206A98E480692CDE90733B9
S315080075A0FDF720FF8B48FDF75FFE8A484FF4FA7116
S315080075B0FDF7C6FE0346002840F0C781864A85487F
S315080075C01178012900F00782FDF708FF07EE900AF7
S315080075D09FED827A824E834CF8EE677A304667EEE4
S315080075E0877AFCEEE77A17EE903A99B200F086FBB6
S315080075F0002800F03A810622012306A9754806925A
S31508007600CDE90733FDF7EEFE7248FDF72DFE71480A
S315080076104FF4FA71FDF794FE002800F07A81DFF83E
S31508007620D0A19AF800004101034618F8011011F09C
S315080076300F0108EB401643D0B77F0139012FC9B2B5
S3150800764000F0CE81684E0A1D06EB42060392F688C4
S31508007650002E00F0CD81644A04950631002602EB1F
S31508007660810205945B4F154634460FE0FDF7B6FEDA
S315080076705D4B039A03EB42030136D988F3B28B427A
S3150800768004441E4680F068819AF800306A680892B9
S3150800769009EB432306A95B6B06933846FDF7A2FE62
S315080076A03846FDF7E1FD4FF4FA713846FDF748FE16
S315080076B003463846002BD9D0DDE904549AF8003041
S315080076C0A188042B9ABF0133DBB20023B1F5967F5C
S315080076D08AF80030E3880FD9B3F5FA7F00F2E48020
S315080076E001339BB2B3F5FA7FE38080F0DD8022890F
S315080076F09A420AD2238108E0002B00F0B980013BA8
S315080077009BB2E380002B00F0B3800027304EB846CA
S3150800771040F2DB5A4FF0010908E09A420EDBA6F860
S3150800772014800137062F06F1200617D0B189B6F95D
S3150800773008204B428A421BB2F8B2EEDDB28A531CCD
S315080077409BB25245B38200F2CA80F28A9A42E8D2C4
S315080077500137062FF38206F12006E7D11C490023DC
S31508007760B1F90820002A03EB020001F12001D6BF77
S315080077709B1A83B29BB25945F2D143F6982293429B
S31508007780638140F2C380A28940F2DB51531C9BB24D
S315080077908A42A38140F2DB800D4F00264FF0010894
S315080077A0F0B287F81E8000210136FFF78DFB062E02
S315080077B007F12007F4D10023A381637C43F0040377
S315080077C063740027024EB8464FF0010923E000BF54
S315080077D0A4500020F84D002018000020E54C4E3F2C
S315080077E0680D002068510020300D0020640000203C
S315080077F024100020728B531C9BB2012A4FF0000103
S31508007800738378D8B28B9A4200D2B3830137062F96
S3150800781006F120060BD0338BB3F57A7FF8B2E9D898
S315080078200137062FA6F81A8006F12006F3D1B4F917
S3150800783000305A2B11DD00260127F0B2AF77002160
S315080078400136FFF741FB062E05F12005F5D1627CCE
S31508007850B4F9003042F002026274B4F902209A4286
S31508007860B8BF63800BB0BDE8F08F7388A380C2E60B
S31508007870DFF8888198F80030012B7FF446AF5E4E1A
S3150800788000273178F8B2FFF71FFBB37F013723F0E3
S315080078900103062FB37706F12006F2D1002363749D
S315080078A088F80030E38030E7544B534F01221A70B2
S315080078B04FF47A73E3800026BB7F43F00103F0B2EE
S315080078C0BB7700210136FFF7FFFA062E07F12007DE
S315080078D0F2D1627CE38842F00102627407E7002174
S315080078E086F81E90FFF7F0FAF37FA6F8148043F0A7
S315080078F00103F37715E786F81E90FFF7E5FAF37F9D
S31508007900A6F81A8043F00203F3777FE70023A381E2
S3150800791057E73B483B4EFDF761FDA3883A49B4F962
S315080079200020009280B2C31A08809BB237493848B3
S31508007930112200F05FFA81B2304600F0DFF9002824
S315080079407FF46DAE7388238069E6324C53E6E2898C
S315080079509A4238BFE38130E72346DDE904549AF8B2
S3150800796000002D4EB3FBF1F100EB001089B206EBD7
S31508007970400000F0C3F99AF8003000287FF4A0AE62
S3150800798009EB432999F83C10012903EB031106EB8F
S31508007990410628D02149708831F81310DFED206A96
S315080079A09FED206A9FED207A0A1A07EE902AF8EED4
S315080079B0E77A08EB431867EEA67AC7EE866AC6EE3C
S315080079C0877AFDEEE77A17EE902A11B2A8F8081022
S315080079D0A8F80A1074E60F4C1370FDF7FFFC0AE6C8
S315080079E0002131816CE60D48718830F81300D5E71F
S315080079F031463346B5E700BFA450002028100020C2
S31508007A00F84D00208C0D0020645100204000002015
S31508007A101C00002068510020640C00200C00002087
S31508007A20E54C4E3F000048420AD7A33B10B50D4C23
S31508007A302046FEF75BFD2046FEF746FD23689B6859
S31508007A401B0600D510BD08481021FEF7E3F80028EC
S31508007A50F8D02046054A0649BDE810402C23FEF713
S31508007A60AFBC00BF484E0020000002402C1000208A
S31508007A706010002001282DE9884808D04FF05003EF
S31508007A8083F31188BFF36F8FBFF34F8FFEE7394C2F
S31508007A90394FDFF8FC80394EDFF8F890384DDFF8BB
S31508007AA0ECA0DFF8F4B03CE03388B3F57A7F4BD32B
S31508007AB098F80030012B51D099F8003073B3288814
S31508007AC022886988DFF8D4C0688083180B44ACFB29
S31508007AD003C35B08A3F1030C002062452A80A98032
S31508007AE03B80308004DB03339A42CCBF0020012060
S31508007AF0002388F80000238089F80030DAF800307F
S31508007B009B681B060AD410215846FEF783F828B14D
S31508007B101C4A1D491D482C23FEF752FC012000F083
S31508007B20FDFD23883A8801339BB2053A93422380A8
S31508007B30BAD198F80030012B16D03388B3F57A7F7E
S31508007B40BAD201333380B7E798F800200133012A07
S31508007B503380B1D19BB2B3F5167FADD9FFF784FB5D
S31508007B600028A9D13080A7E707490648FFF728FB70
S31508007B70C4E700BFA8100020AA1000209210002019
S31508007B809C1000202C10002060100020484E002079
S31508007B90AC1000209410002000000240ABAAAAAA4C
S31508007BA030B5134C134A144B236083B040F202637A
S31508007BB0012520462B21C4E90123257300F0A6F9E7
S31508007BC0214684F82B000D4A0D482C23FEF7F8FBB6
S31508007BD00C4B019300222B4600920B490B484FF49D
S31508007BE0007200F0EDFB0A4B186003B030BD00BF11
S31508007BF06010002000001414012B65002C100020D2
S31508007C00484E002098100020C88D0008757A000894
S31508007C107C510020F0B53248324D83B001224FF432
S31508007C200051FDF7FDFF40F22D1401E0002C53D062
S31508007C3010212846FDF7EEFF013CA4B20028F5D036
S31508007C40294D2A4F2B21384600F060F997F82B303A
S31508007C50834236D002222A70254E002431683C70B1
S31508007C600B2301278868013B10F0020F9BB224D131
S31508007C7001221446002BF5D12F70FFF7D7FE316885
S31508007C8000230193CB6801938B680193019B03241E
S31508007C904FF4FA7300E0D3B18A68013B12F002028E
S31508007CA09BB2F8D1134B0E4801244FF400511C70B7
S31508007CB003B0BDE8F040FDF7B3BF002CE0D02A7052
S31508007CC0DEE70D493846FFF70BFA2A78C4E72C7029
S31508007CD0FFF7ACFE3168DBE7034D2C70B1E700BF58
S31508007CE00004024000000240805100202C100020B1
S31508007CF0484E002094100020601000202DE9F04125
S31508007D004478012C024663D96500A61EAB1C0544BF
S31508007D10F0B21344A5EB400533F8020D5880AB4288
S31508007D20FAD192F820301078918098424AD80023E8
S31508007D3082F820300023901C074619461D4602EBA0
S31508007D40410C37F802EFBCF804C0E64528BF9C464C
S31508007D5003F1010328BF2946DDB238BF8C46AC4281
S31508007D60EDD8002319461D46074602EB410E37F8A3
S31508007D70028FBEF804E0F04598BF9E4603F1010362
S31508007D8098BF2946DDB288BF8E46AC42EDD8013C85
S31508007D90E3B2141D04EB4304002330F8021F8442A7
S31508007DA00B44FAD102EB4C0C02EB4E0EBCF8041055
S31508007DB0BEF8040001445B1A0020B3FBF6F65680B1
S31508007DC0BDE8F081013382F820300120BDE8F0815A
S31508007DD090F82030007891809842F3D8002382F8F2
S31508007DE020302CB9A646A44623466FF00106D9E7EB
S31508007DF0A61E9FE72DE9F0430688BDF91CC09E42E2
S31508007E005ED202F1004E0EF1FF3E30F81E409C4253
S31508007E104AD9012A88BF012472D9651EB342EDB238
S31508007E2027B24FEA440843D330F8149099453FD90E
S31508007E3001EB4505A9EB0303A9EB060607EE103A85
S31508007E4007EE906AB8EEC77AF8EEE77A31F90830A5
S31508007E50B5F9002031F91E00B1F9001087EE876ADE
S31508007E609A1A814207EE902AB8EEE77A07EE903A18
S31508007E70C7EE066AF8EEE77A07EE101A77EEE67AA4
S31508007E80B8EEC77AB4EEE77A1EDAF1EE10FA08D53C
S31508007E9007EE100AB8EEC77AB4EEE77AF1EE10FAF2
S31508007EA01EDC6046BDE8F08331F91E00BDE8F083AC
S31508007EB00134E5B295422C4619D230F81760ACE782
S31508007EC0B1F90000BDE8F083F1EE10FAE9DD07EE3E
S31508007ED0100AB8EEC77AB4EEE77AF1EE10FAE0D5F2
S31508007EE0FDEEE77A17EE903A18B2BDE8F08330F85F
S31508007EF0159030F817604FEA450801EB470599E7F2
S31508007F00B0F802900D464FF0020893E759B10139CF
S31508007F1050FA81F1431E002013F8012F10448B42BA
S31508007F20C0B2F9D170470846704700BF08B500F0DF
S31508007F307BFA002008BD00BF70B5446986B00246CA
S31508007F400B468CB186697EB1B0F908501269842D4A
S31508007F5014BF03350025D0E90010CDE90146009588
S31508007F6000F0F6F906B070BDB2F90840842C14BFCB
S31508007F700334002405ADD2E90010128ACDE9004584
S31508007F8000F01EFA01280CBF0598002006B070BD47
S31508007F9008B5012838BF012000F0C0FB002008BD45
S31508007FA000F108034FF0FF310022C0E90333816076
S31508007FB002604360704700BF00230361704700BF3B
S31508007FC04368026810B49C688C609C684B600132F8
S31508007FD0616099605DF8044B08610260704700BFF4
S31508007FE030B40D686B1C10D000F108031C465B68A2
S31508007FF01A68AA42FAD902684B60013299608C6005
S315080080006160086130BC0260704704696368F2E722
S31508008010036910B4D0E901125C688A608442516031
S3150800802008BF5A601A685DF8044B0021013A0161DD
S315080080301A601868704700BF2DE9F041044600F041
S3150800804039FC384A384D1368013313602B68002B06
S3150800805031D0364E33683BB3E36A354A354F11683B
S31508008060D7F800C034480131116001229A4003EB69
S31508008070830342EA0C0200EB8300211D3A60FFF7F6
S315080080809FFF00F039FC336863B12A68E36AD26A55
S315080080909A4207D2294B4FF080521A60BFF34F8F8E
S315080080A0BFF36F8FBDE8F0812A68E36AD26A9A4205
S315080080B098BF2C60D1E72C601368012B02D0E36AC5
S315080080C01A4ECAE71C48DFF8A8801D4F174EFFF75F
S315080080D067FF1C48FFF764FF1B48FFF761FF1B4853
S315080080E0FFF75EFF1A48FFF75BFF1A48FFF758FFCE
S315080080F01948FFF755FF4046FFF752FF3846FFF786
S315080081004FFF1648FFF74CFF1548FFF749FF15487C
S31508008110FFF746FF144B154AC2F800801F60E36A52
S315080081209BE700BF48110020B0100020A4110020D2
S31508008130581100205C110020BC10002004ED00E05E
S3150800814074110020D0100020E4100020F810002040
S315080081500C1100202011002034110020901100205D
S31508008160BC110020A8110020B8100020B41000206F
S3150800817060110020034A044B1268D268D26852681C
S315080081801A607047B4100020881100202DE9F84FB6
S315080081900C9C4FEA820B0D465A46A5218046206B59
S315080081A09946DDE90A6A00F0C3FD236BABF1040BBF
S315080081B09B446A1E05F10F012BF0070B04F13305EA
S315080081C012F8013F05F8013F17780FB18A42F7D137
S315080081D0062E28BF06260025E6626664201D84F85A
S315080081E04350A564FFF7E8FEC6F1070604F1180038
S315080081F0FFF7E2FEE564A661246184F850506462E4
S315080082004A464146584600F027FB2060BAF1000F5F
S3150800821001D0CAF80040BDE8F88F00BF90F8513089
S3150800822063B1012B15D0022B12D04FF0500383F304
S315080082301188BFF36F8FBFF34F8FFEE710B5044663
S31508008240006B00F019FD2046BDE8104000F014BD93
S31508008250704700F011BD00BF80B5154C154E164D80
S31508008260164FDFF85C904FF0805813E000F022FBC1
S31508008270F368D3F80CA00AF10400FFF7C9FE2B68CF
S31508008280013B2B602368013B236000F035FB504619
S31508008290FFF7C4FF2368002BE8D13B68012BF9D907
S315080082A0C9F80080BFF34F8FBFF36F8FF2E700BFA7
S315080082B04C110020BC11002048110020BC100020E1
S315080082C004ED00E0F8B51B4B1B4E1D6833680446E9
S315080082D0181D0F46FFF79CFE40B933681749D86A40
S315080082E00B680122824023EA02030B60631C17D045
S315080082F033682C195C6007D3114B18683168BDE8E0
S31508008300F8400431FFF76CBE0E4B1868316804312B
S31508008310FFF766FE0C4B1A68A24288BF1C60F8BDC0
S31508008320002FE5D031680948BDE8F8400431FFF769
S3150800833047BE00BFD0110020B01000205C110020FD
S31508008340B8100020B410002088110020A8110020C1
S31508008350F0B587B0DDE90C650E9CBDB16CB154274C
S315080083600497049F542F1AD04FF0500383F31188B3
S31508008370BFF36F8FBFF34F8FFEE74FF0500383F3C2
S315080083801188BFF36F8FBFF34F8FFEE74FF050038F
S3150800839083F31188BFF36F8FBFF34F8FFEE7256313
S315080083A0022705AD0294009684F851700195FFF7EF
S315080083B0EDFE2046FFF740FE059807B0F0BD00BF6A
S315080083C02DE9F043074685B090001546884699463C
S315080083D000F0C2FBE0B10446542000F0BDFB06469F
S315080083E0D8B104634FF0000C0D9C86F851C0019477
S315080083F00C9C02964B462A46414638460094FFF79F
S31508008400C5FE3046FFF718FE012005B0BDE8F0832B
S315080084104FF0FF3005B0BDE8F083204600F02CFC95
S315080084204FF0FF30F1E700BF30B589B0002407AA46
S3150800843006A905A8CDE90544FCF738F9DDE90512D2
S315080084400F480094CDE901212346079A0D49FFF705
S315080084507FFF90B14FF0500383F31188BFF36F8FFE
S31508008460BFF34F8F0848094A094B4FF0FF350121E2
S31508008470056011601C6000F0B9FA09B030BD00BF94
S3150800848059820008F48D000888110020A4110020E4
S31508008490D0110020024A136801331360704700BFE9
S315080084A0541100202DE9F04F4B4B1B6883B0002B6D
S315080084B04DD14A4B1E6801361E60002E55D0484DD8
S315080084C02B68B34266D8DFF82891D9F800301C68C3
S315080084D0002C77D0434FDFF82481DFF824A100244D
S315080084E027E00191FFF794FDDBF8282001990BF1AD
S315080084F0180012B1FFF78CFD0199DBF82C00DAF8A9
S3150800850000300122824000EB80001A4307EB80000E
S31508008510CAF80020FFF754FDD8F80020D9F8000063
S31508008520DBF82C10D26A0368914228BF0124002B7D
S315080085304BD0D9F80030DB68D3F80CB0DBF8042050
S315080085400BF1040196420846CBD22A6026E0264A59
S315080085501368013313600024244B1B68002B0CBFDF
S315080085602046012003B0BDE8F08F214B1A68126837
S31508008570FAB9204A1868204914681C6010600A680D
S3150800858001320A601B681B681BBB154D4FF0FF3391
S315080085902B6095E7134FDFF864800024D8F8003085
S315080085A0DB6A03EB83039B00FB58022B28BF0124DD
S315080085B0D2E74FF0500383F31188BFF36F8FBFF3F1
S315080085C04F8FFEE7074FDFF834804FF0FF332B60FD
S315080085D0E4E7FFF7CFFD72E754110020D011002021
S315080085E088110020BC10002050110020D411002052
S315080085F0B4100020B81000208C110020B010002004
S315080086005C1100202DE9F84F394C236843B94FF027
S31508008610500383F31188BFF36F8FBFF34F8FFEE7C5
S3150800862000F048F92368013B23602368002B3CD1FE
S31508008630304B1B68002B38D02F4E3368002B3AD0AE
S31508008640DFF8CC80DFF8CC90DFF8CCA02B4D0127E3
S31508008650F368DC6804F1040B04F11800FFF7D8FC92
S315080086605846FFF7D5FCE06AD8F8002007FA00F369
S3150800867000EB80001343594609EB8000C8F8003028
S31508008680FFF79EFCDAF80030E26ADB6A9A4228BFF6
S315080086902F603368002BDBD1194B1B681B681BBB8B
S315080086A0184B4FF0FF321A6006E0002400F024F958
S315080086B02046BDE8F88F114D134E34683CB10127AA
S315080086C0FFF7F0FE00B12F60013CF9D134602B684A
S315080086D0002BEAD00D4B4FF080521A60BFF34F8F34
S315080086E0BFF36F8F0124E1E7FFF744FDE4E700BF1E
S315080086F0541100204811002090110020D4110020A8
S31508008700B4100020881100205011002004ED00E06C
S315080087105C110020BC100020B010002008B598B1EC
S315080087200E4B196841B14FF0500383F31188BFF31C
S315080087306F8FBFF34F8FFEE71A6801321A60FFF793
S31508008740C1FDFFF75FFF38B9054B4FF080521A603D
S31508008750BFF34F8FBFF36F8F08BD00BF54110020C2
S3150800876004ED00E0184B1B681BB1184B01221A6078
S3150800877070471649164A0B601368B3FA83F3DBB2DF
S31508008780C3F11F0303EB830312499A0001EB83032A
S31508008790885840B94FF0500383F31188BFF36F8FA1
S315080087A0BFF34F8FFEE710B45C6802F108006268F9
S315080087B05A6001448A4204BF52685A60064BD2681E
S315080087C05DF8044B1A60704754110020D41100203C
S315080087D05C110020BC100020B0100020084800687A
S315080087E0006880F308884FF0000080F3148862B6AA
S315080087F061B6BFF34F8FBFF36F8F00DF00BF000076
S3150800880008ED00E0DFF80C00016841F47001016032
S315080088107047000088ED00E00E4B1B6882B000220E
S315080088200133019208D04FF0500383F31188BFF348
S315080088306F8FBFF34F8FFEE74FF0500383F3118816
S31508008840BFF36F8FBFF34F8F019B002BFCD002B095
S31508008850704700BFB00D002030B421F00101094C6B
S3150800886040F80C4C4FF080756FF0020340F8045C3A
S3150800887040F8081C40F8202C40F8243C30BC44380A
S31508008880704700BF198800080000000000000000BB
S31508008890074B19680868B0E8F04F80F30988BFF3FA
S315080088A06F8F4FF0000080F311887047AFF3008098
S315080088B0B01000204FF0500383F31188BFF36F8F79
S315080088C0BFF34F8F0A4A13680133012B136000D098
S315080088D07047084B1B6813F0FF0FF9D04FF0500391
S315080088E083F31188BFF36F8FBFF34F8FFEE700BF87
S315080088F0B00D002004ED00E0084A136843B94FF0B4
S31508008900500383F31188BFF36F8FBFF34F8FFEE7D2
S31508008910013B13600BB983F311887047B00D002033
S31508008920EFF30980BFF36F8F154B1A681EF0100F0F
S3150800893008BF20ED108A20E9F04F10602DE90900E4
S315080089404FF0500080F31188BFF34F8FBFF36F8F3E
S31508008950FFF708FF4FF0000080F3118809BC19687B
S315080089600868B0E8F04F1EF0100F08BFB0EC108A88
S3150800897080F30988BFF36F8F704700BFAFF300809D
S31508008980B010002008B54FF0500383F31188BFF3E9
S315080089906F8FBFF34F8FFFF785FD18B1034B4FF06D
S315080089A080521A60002383F3118808BD04ED00E0A5
S315080089B030B4094A094D0A4B0A4C0B48002111608C
S315080089C029601B68A4FB03139B09013B072103606D
S315080089D030BC1160704700BF10E000E018E000E00E
S315080089E000000020D34D621014E000E0394B3A4AEB
S315080089F01968914240D01A68384B9A4233D010B55C
S31508008A00374B384C1A78384982B0D2B2FF200192D7
S31508008A1018701B78DBB28DF803309DF803309DF88B
S31508008A20032003F05003072023701406086048BF8C
S31508008A3006220FD59DF803305B00DBB28DF80330B4
S31508008A409DF803000006134602F1FF32F2D4032B09
S31508008A501BD00B604FF0500383F31188BFF36F8F61
S31508008A60BFF34F8FFEE74FF0500383F31188BFF330
S31508008A706F8FBFF34F8FFEE74FF0500383F31188D4
S31508008A80BFF36F8FBFF34F8FFEE7019A1448174B5A
S31508008A90D2B24FF440740C6002701A6842F4700245
S31508008AA01A601A6842F070421A60FFF781FF104B8D
S31508008AB000241C60FFF7A6FE0E4A136843F04043E5
S31508008AC01360FFF78BFEFFF74DFEFFF7A5FE204666
S31508008AD002B010BD00ED00E071C20F4170C20F4137
S31508008AE000E400E0D8110020DC11002020ED00E0B1
S31508008AF0B00D002034EF00E010B4154B1A461B6881
S31508008B008342FBD351685418A0420AD041684418DE
S31508008B10A3420DD0904203605DF8044B18BF106065
S31508008B2070474068014410464418A3425160F1D189
S31508008B30084C2468A342EDD0D3E90034904221447E
S31508008B40036041605DF8044B18BF1060704700BFB2
S31508008B50F04D0020E01100202DE9F041404F044679
S31508008B60FFF798FC3B68002B39D03E4B1D682C421A
S31508008B702FD174B304F1080361071CBF23F0070360
S31508008B80083333B3DFF8EC80D8F800609E4220D370
S31508008B9035490C6803E0206820B12146044662681E
S31508008BA09A42F8D33868A04213D020680F68086044
S31508008BB0D11A102907F1080739D9E018420731D028
S31508008BC04FF0500383F31188BFF36F8FBFF34F8FB6
S31508008BD0FEE7FFF717FD00273846BDE8F081234B6F
S31508008BE0234E214D580714BFDA1D1A4603F5705354
S31508008BF0A3F1080323F007031E483B6018BF22F0C1
S31508008C00070211469A1A32600260164E0020C3E91E
S31508008C10000068604A604FF000420B6032602960CD
S31508008C201546A4E741606360FFF766FF626810486F
S31508008C300168B61A00232A438E42C4E9003238BFB7
S31508008C400660C8F80060FFF7DDFC7B07C4D04FF06C
S31508008C50500383F31188BFF36F8FBFF34F8FFEE77F
S31508008C60E0110020E44D0020F04D0020E411002022
S31508008C70EC4D0020E84D0020E0B1194A50F8043CBC
S31508008C801268134210B504460BD050F8081C91B16F
S31508008C904FF0500383F31188BFF36F8FBFF34F8FE5
S31508008CA0FEE74FF0500383F31188BFF36F8FBFF3CE
S31508008CB04F8FFEE7704723EA020340F8043CFFF7AC
S31508008CC0E9FB084A54F8043C1168A4F108000B446F
S31508008CD01360FFF711FFBDE81040FFF793BC00BF14
S31508008CE0E44D0020E84D002070B50D4D0D4C641B79
S31508008CF0A4100026A64209D10B4D0C4C00F020F812
S31508008D00641BA4100026A64205D170BD55F8043B85
S31508008D1098470136EEE755F8043B98470136F2E7DF
S31508008D20048E0008048E0008048E0008088E0008C9
S31508008D3002440346934200D1704703F8011BF9E742
S31508008D40F8B500BFF8BC08BC9E467047F8B500BF2A
S30D08008D50F8BC08BC9E467047FA
S31508008D58908D000885460008000000000000000005
S31508008D680002000000000000000000009C8D0008BA
S31508008D789D460008FDFF00000000000000020000F4
S31508008D880000000000000000636F6E74726F6C5478
S31508008D9861736B006D6F6E69746F725461736B00E3
S31508008DA80000000000000000010203040607080985
S31508008DB8000000000102030400061016000610163B
S31508008DC84D6F64756C65436F6D6D756E6963617417
S31508008DD8696F6E5F436F6E6E656374696F6E506F09
S31508008DE86C6C696E675461736B00000049444C45A6
S30908008DF80000000069
S30D08008DFC54B4FF7F01000000DA
S30908008E04054200080D
S30908008E08E14100082E
S31508008E0C0024F40001000000100000004B074B077B
S31508008E1C4B074B074B074B070100000000000001EE
S31508008E2C00020003000400050006000700080009FC
S31508008E3C000A000B000C000D000E000F00100000BD
S31508008E4C9600690050003F0036002D0026002000D1
S31508008E5C190012000C000500FEFFF5FFEBFFDCFF06
S31508008E6CDCFF000040000000000402400000000087
S31508008E7C0100000000000000800000000004024011
S31508008E8C00000000010000000000000004000000C3
S31508008E9CA04F002000080040010000000E00000052
S31508008EAC00000000800000000004024001000000E1
S31508008EBC0100000000000000400000000004024011
S31508008ECC0000000002000000020000000000000084
S31508008EDCA04F002000080040010000000E00000012
S31508008EEC00000000400000000004024000000000E2
S31508008EFC0100000000000000800000000004024091
S31508008F0C000000000200000002000000040000003F
S31508008F1CA04F002000080040010000000E000000D1
S31508008F2C00000000400000000004024001000000A0
S31508008F3C0100000000000000800000000004024050
S31508008F4C00000000020000000200000004000000FF
S31508008F5CA04F002000080040010000000E00000091
S31508008F6C0000000080000000000402400000000021
S31508008F7C0100000000000000400000000004024050
S31508008F8C00000000010000000000000004000000C2
S31508008F9CA04F002000080040010000000E00000051
S31508008FAC00000000800000000004024001000000E0
S31508008FBC0100000000000000400000000004024010
S31508008FCC0100000001000000000000000400000081
S31508008FDCA04F002000080040010000000E00000011
S31508008FEC00000000800000000004024001000000A0
S31508008FFC01000000000000004000000000040240D0
S3150800900C0000000002000000020000000000000042
S3150800901CA04F002000080040010000000E000000D0
S3150800902C000000004000000000040240010000009F
S3150800903C010000000000000080000000000402404F
S3150800904C00000000020000000200000004000000FE
S3150800905CA04F002000080040010000000E00000090
S3150800906C000000000001000000040240000000009F
S3150800907C010000000000000000020000000402408D
S3150800908C0000000001000000000000000C000000B9
S3150800909CA04F00200008004000000000030000005C
S315080090AC010000000002000000040240010000005C
S315080090BC010000000000000000010000000402404E
S315080090CC000000000200000002000000080000007A
S315080090DCA04F00200008004000000000030000001C
S315080090EC010000000001000000040240000000001E
S315080090FC010000000000000000020000000402400D
S3150800910C0000000002000000020000000C00000035
S3150800911CA04F0020000800400000000003000000DB
S3150800912C01000000000100000004024001000000DC
S3150800913C01000000000000000002000000040240CC
S3150800914C0000000002000000020000000C000000F5
S3150800915CA04F00200008004000000000030000009B
S3150800916C010000000002000000040240000000009C
S3150800917C010000000000000000010000000402408D
S3150800918C0000000001000000000000000C000000B8
S3150800919CA04F00200008004000000000030000005B
S315080091AC010000000002000000040240010000005B
S315080091BC010000000000000000010000000402404D
S315080091CC0100000001000000000000000C00000077
S315080091DCA04F00200008004000000000030000001B
S315080091EC010000000002000000040240010000001B
S315080091FC010000000000000000010000000402400D
S3150800920C0000000002000000020000000800000038
S3150800921CA04F0020000800400000000003000000DA
S3150800922C01000000000100000004024001000000DB
S3150800923C01000000000000000002000000040240CB
S3150800924C0000000002000000020000000C000000F4
S3150800925CA04F00200008004000000000030000009A
S3150800926C0100000040000000000802400000000059
S3150800927C0100000000000000800000000008024009
S3150800928C00000000010000000000000004000000BF
S3150800929CE04F0020000400400B000000080000000E
S315080092AC01000000800000000008024001000000D8
S315080092BC0100000000000000400000000008024009
S315080092CC0000000002000000020000000000000080
S315080092DCE04F0020000400400B00000008000000CE
S315080092EC01000000400000000008024000000000D9
S315080092FC0100000000000000800000000008024089
S3150800930C000000000200000002000000040000003B
S3150800931CE04F0020000400400B000000080000008D
S3150800932C0100000040000000000802400100000097
S3150800933C0100000000000000800000000008024048
S3150800934C00000000020000000200000004000000FB
S3150800935CE04F0020000400400B000000080000004D
S3150800936C0100000080000000000802400000000018
S3150800937C0100000000000000400000000008024048
S3150800938C00000000010000000000000004000000BE
S3150800939CE04F0020000400400B000000080000000D
S315080093AC01000000800000000008024001000000D7
S315080093BC0100000000000000400000000008024008
S315080093CC010000000100000000000000040000007D
S315080093DCE04F0020000400400B00000008000000CD
S315080093EC0100000080000000000802400100000097
S315080093FC01000000000000004000000000080240C8
S3150800940C000000000200000002000000000000003E
S3150800941CE04F0020000400400B000000080000008C
S3150800942C0100000040000000000802400100000096
S3150800943C0100000000000000800000000008024047
S3150800944C00000000020000000200000004000000FA
S3150800945CE04F0020000400400B000000080000004C
S3150800946C0100000000010000000802400000000096
S3150800947C0100000000000000000200000008024085
S3150800948C0000000001000000000000000C000000B5
S3150800949CE04F0020000400400C0000000200000011
S315080094AC0000000000020000000802400100000055
S315080094BC0100000000000000000100000008024046
S315080094CC0000000002000000020000000800000076
S315080094DCE04F0020000400400C00000002000000D1
