S017000032302D32302D322D372D322D312D312E737265633E
S315080040000000012049520008394C00083D4C0008C0
S31508004010414C0008454C0008494C000800000000C7
S31508004020000000000000000000000000B1A2000827
S315080040304D4C00080000000041A30008A5A3000895
S315080040409952000899520008995200089952000896
S315080040509952000899520008995200089952000886
S315080040609952000899520008995200089952000876
S315080040709952000899520008995200089952000866
S315080040809952000899520008995200080000000049
S31508004090000000000000000000000000995200081F
S315080040A099520008514C00086D4C000899520008B6
S315080040B09952000899520008995200089952000826
S315080040C099520008894C0008954C0008A14C000834
S315080040D099520008995200089952000800000000F9
S315080040E099520008995200089952000800000000E9
S315080040F000000000000000000000000099520008BF
S3150800410000000000995200089952000899520008C8
S315080041100000000000000000000000000000000091
S31508004120AD4C00089952000899520008B94C00088D
S31508004130995200080000000000000000000000007E
S31508004140000000000000000000000000995200086E
S315080041509952000899520008995200089952000885
S31508004160995200089952000800000000000000005B
S315080041700000000000000000000000000000000031
S31508004180000000009952000800000000000000002E
S31508004190995200080000000000000000000000001E
S315080041A00000000000000000000000000000000001
S315080041B000000000000000000000000000000000F1
S315080041C000000000000000000000000000000000E1
S315080041D00000000000000000FFFFFFFFEE11AA55D7
S315080041E010B5054C237833B9044B13B10448AFF323
S315080041F000800123237010BD30100020000000004D
S31508004200F0A8000808B5034B1BB103490348AFF3F0
S31508004210008008BD0000000034100020F0A8000847
S3150800422053B94AB9002908BF00281CBF4FF0FF310F
S315080042304FF0FF3000F06AB9ADF1080C6DE904CE15
S3150800424000F006F8DDF804E0DDE9022304B0704763
S315080042502DE9F047089D0C46002B4ED194468C4517
S315080042608646B2FA82F262D94AB1C2F12003914077
S3150800427020FA03F30CFA02FC194300FA02FE4FEA8D
S315080042801C471FFA8CF6B1FBF7F44FEA1E4307FBEF
S31508004290141143EA014304FB06F199420AD91CEBBF
S315080042A0030304F1FF3080F01281994240F20F8136
S315080042B0023C6344591A1FFA8EF3B1FBF7F007FB69
S315080042C0101143EA014300FB06F69E420AD91CEB8D
S315080042D0030300F1FF3180F0FC809E4240F2F98032
S315080042E0634402389B1B40EA044000211DB1D340B9
S315080042F00022C5E90032BDE8F0878B4205D90DB129
S31508004300C5E9000100210846F5E7B3FA83F100295B
S3150800431046D1A34202D39042C0F0F080861A64EBDD
S3150800432003030120002DE6D0C5E90063E3E7002A70
S3150800433040F09080A1EB0C044FEA1C481FFA8CF75A
S315080043400121B4FBF8F64FEA1E4308FB164443EA7C
S31508004350044307FB06F0984208D91CEB030306F151
S31508004360FF3402D2984200F2CD8026461C1A1FFA64
S315080043708EF3B4FBF8F008FB104443EA044300FB51
S3150800438007F79F4208D91CEB030300F1FF3402D25A
S315080043909F4200F2B0802046DB1B40EA0640A5E7B4
S315080043A0C1F120068B4022FA06F71F4320FA06FCC5
S315080043B004FA01F343EA0C03F44000FA01F8380C56
S315080043C04FEA1349B4FBF0FE1FFA87FC00FB1E44B4
S315080043D049EA04440EFB0CF9A14502FA01F20AD98E
S315080043E03C190EF1FF3A80F08480A14540F28180A5
S315080043F0AEF1020E3C44A4EB09041FFA83F9B4FBA0
S31508004400F0F300FB134449EA044403FB0CFCA445FF
S3150800441007D93C1903F1FF3067D2A44565D9023B99
S315080044203C4443EA0E40A0FB0293A4EB0C049C42D6
S31508004430CE469C4651D34ED055B1B8EB0E0364EB2D
S315080044400C0404FA06F6CB401E43CC40C5E90064CA
S31508004450002150E7C2F1200320FA03F10CFA02FC0E
S3150800446024FA03F394400C434FEA1C4800FA02FE70
S315080044701FFA8CF7B3FBF8F008FB1031230C43EA5C
S31508004480014300FB07F1994208D91CEB030300F12D
S31508004490FF362CD299422AD9023863445B1AA4B251
S315080044A0B3FBF8F108FB113344EA034401FB07F3B5
S315080044B0A34208D91CEB040401F1FF3613D2A34228
S315080044C011D902396444E41A41EA004139E704463D
S315080044D0F0E6084606E7C845AED2B9EB020E63EB2E
S315080044E0070C0138A8E73146EDE7034699E7304659
S315080044F0D4E7D6467FE7634402384DE706462346A7
S3150800450008460FE7023E634430E700BF704700BF26
S3150800451000B51D481D4901600122002385B04FF4EE
S3150800452080310261C2614261194A0376CDE90033DE
S31508004530CDE90233C0E9011380F82030C36080F862
S3150800454030300023C0E90A2300F0D4FE68B99FED95
S315080045500C7B00230C48029369468DED007B01F025
S315080045603FF828B905B05DF804FB00F051FAEEE70C
S3150800457000F04EFA05B05DF804FB00BFAFF300800B
S315080045800A00000001000000501000200020014031
S315080045900100000F10B53D4B02688EB000249A4208
S315080045A0CDE90844CDE90A440C9401D00EB010BDFB
S315080045B003F58C3300945A6C354842F480725A6479
S315080045C05A6C02F480720092009A01941A6B42F0B7
S315080045D004021A631A6B02F004020192019A029409
S315080045E01A6B42F002021A631A6B02F00202029276
S315080045F0029A03941A6B42F001021A631A6B02F0CC
S3150800460001020392039A04945A6C42F480725A6423
S315080046105A6C02F480720492049A05941A6B42F05A
S3150800462004021A631A6B02F004020592059A0694AC
S315080046301A6B42F001021A631A6B02F00102069223
S31508004640069A07941A6B42F002021A631B6B03F070
S315080046500203079308A93F220323CDE90823079BF2
S3150800466001F0CAFA08A9DF2203230A480A94CDE909
S31508004670082301F0C1FA0322032307480A9408A96C
S31508004680CDE9082301F0B8FA0EB010BD00200140AC
S3150800469000080240000002400004024010B582B043
S315080046A000240F4B01941A6B42F480021A631B6BA9
S315080046B003F480032246052101933820019B01F06B
S315080046C049F8382001F082F822463B20052101F0FE
S315080046D041F83B2002B0BDE8104001F077B800BFB2
S315080046E00038024008B504F095F804F0A9F804F07B
S315080046F02DF9012005F036F9F7E700BF08B504F0F3
S31508004700EFFCFCE7044B036010B48023034C0C60F9
S315080047105DF8044B1360704798120020981000202B
S3150800472010B5124CA646BEE80F008EB0EC46ACE8B3
S315080047300F009EE807008CE807000021684605F090
S31508004740E1F80B4B04F11C0C1860BCE80F0007AC31
S315080047500FC49CE8070084E80700002107A805F0B5
S31508004760D1F8044B18600EB010BD00BF08A90008A8
S315080047703C1300203813002070B500248AB0CDE918
S315080047800444CDE906442D4B009408941A6B2C4E2C
S315080047902C4D42F004021A631A6B02F004020092CE
S315080047A0009A01941A6B42F080021A631A6B02F09F
S315080047B080020192019A02941A6B42F001021A636E
S315080047C01A6B02F001020292029A03941A6B42F0E3
S315080047D002021A631B6B03F002030393304601229D
S315080047E04FF40051039B01F003FB224628464FF481
S315080047F0604101F0FDFA30464FF40053012604A942
S31508004800CDE90436CDE9064401F0F6F94FF48052B5
S3150800481004A928464FF48813CDE90423069401F029
S31508004820EBF94FF4604304A92846CDE90436CDE9EF
S31508004830064401F0E1F90AB070BD00BF0038024035
S315080048400008024000040240F0B5274B026889B010
S3150800485000249A42CDE90244CDE90444069401D0E5
S3150800486009B0F0BD214D00942B6B214843F002039B
S315080048702B632B6B03F0020300934FF48062122321
S31508004880CDE902230126009B032702A904230693E8
S31508004890CDE9046701F0B0F9092302A906930822B5
S315080048A012231348CDE90223CDE9046701F0A4F9E0
S315080048B001942B6C43F480032B642B6C03F4800364
S315080048C02246052101932120019B00F043FF212068
S315080048D000F07CFF22460521222000F03BFF222023
S315080048E000F074FF09B0F0BD0058004000380240DF
S315080048F00004024030B5002495B0CDE90A44CDE95C
S315080049000344CDE905441F4B01940C940794196C94
S315080049101D4A41F0805119641B6C03F080530193C2
S31508004920019B0294136823F4404343F40043136045
S31508004930136803F44043029309224FF48033022597
S31508004940CDE9082301224FF48003CDE90D250F9305
S3150800495006225423CDE9102308A80423CDE91253CF
S31508004960029902F0BFFA0F224FF4805303A8294692
S31508004970CDE90325CDE90543079402F0C9FC15B036
S3150800498030BD00BF003802400070004008B500F096
S3150800499085FCFFF7AFFF00F0B7F900F0B9FA00F0B1
S315080049A053FB00F0D1FBFFF7B3FDFFF7E5FEFFF77A
S315080049B075FE00F02FF804F0D7FDFFF7B1FE04F0FE
S315080049C09BFFFEE7034B02689A4200D0704704F04B
S315080049D015BE00BF003001400B4A0368934203D05E
S315080049E00A4A934209D0704710B5044600F070FC95
S315080049F02368064A934202D010BD04F02DBBBDE8D9
S31508004A00104004F029BB00BF0048014000440140A3
S31508004A10704700BF0B480C4908B50A220023C0E9B5
S31508004A200013C0E90233C0E90433C0E90833C0E91A
S31508004A300A32836102F016FE00B908BDBDE80840D7
S31508004A40FFF7E6BF58140020003001402DE9F04179
S31508004A50434B02688AB000249A42CDE90444CDE962
S31508004A600644089402D00AB0BDE8F08103F5843301
S31508004A7001945A6C3B4E42F480525A645A6C02F4C2
S31508004A8080520192019A02941A6B42F001021A634B
S31508004A901A6B02F001020292029A03941A6B42F010
S31508004AA002021A631B6B03F00203039348F2200207
S31508004AB002234FF00308052704A905462A48CDE92D
S31508004AC00423CDE90787039B01F096F830220223D9
S31508004AD02648CDF81C8004A9CDE904230694089736
S31508004AE001F08AF8224A4FF0C063C6E9002330462F
S31508004AF04FF48063C6E90244C6E90434C6E90644AD
S31508004B00C6E9084400F070FE20BB1A4C1A49EE6448
S31508004B104FF0C0620023C4E90012204640214FF43A
S31508004B208062C4E90213C4E90533C4E90733B563EF
S31508004B302261636200F058FE78B90022052123201D
S31508004B40AC64A56300F006FE232000F03FFE0AB021
S31508004B50BDE8F081FFF75CFFD7E7FFF759FFECE701
S31508004B6000300140F4130020000002400004024017
S31508004B7010640240941300205864024082B00E4B21
S31508004B8000220092596C41F480415964586C00F433
S31508004B908040009000980192186C40F0805018648C
S31508004BA01B6C03F080530193019B0F216FF00100EA
S31508004BB002B000F0CFBD00BF0038024030B5014654
S31508004BC089B000221A2000F0C5FD1A2000F0FEFD6B
S31508004BD00025154B02955A6C144C42F480225A64EF
S31508004BE05B6C03F4802301A903A80293029B02F0DD
S31508004BF04DFC02F03BFC0E4B0E492160A3FB002343
S31508004C009B0C013B40F2E7322046E2606360256177
S31508004C10A56003F00FFA10B1012009B030BD204697
S31508004C2002F0CCFF09B030BD00380240B0140020B5
S31508004C3083DE1B4300480140704700BFFEE700BF04
S31508004C40FEE700BFFEE700BFFEE700BF704700BFF4
S31508004C5008B5044803F0F6F8BDE80840024803F032
S31508004C60F1B800BFD0150020F814002008B5044894
S31508004C7003F0E8F8BDE80840024803F0E3B800BFCF
S31508004C80D0150020B0140020014801F09BBB00BFDE
S31508004C9040130020014802F069B800BF4013002005
S31508004CA0014802F087BE00BF58140020014800F0F2
S31508004CB0C9BE00BFF4130020014800F0C3BE00BF00
S31508004CC0941300200E480F4BD0F8882042F4700247
S31508004CD0C0F888201A68002142F001021A6099601B
S31508004CE01A68A0F1BC2022F0847222F48032F038CF
S31508004CF01A6058601A6822F480221A60D9607047D0
S31508004D0000ED00E00038024010B50F480F4C0023B4
S31508004D10012140F29F12C0E90041C0E90232036155
S31508004D2003F088F920B9084802F048FF38B910BDE1
S31508004D30FFF76EFE044802F041FF0028F7D0BDE8F1
S31508004D401040FFF765BE00BFF8140020004401407C
S31508004D5010B52E4A0368934284B026D02C4A934253
S31508004D6007D02C4A934212D02B4A93423CD004B027
S31508004D7010BD2A4B002201921A6C42F002021A64F4
S31508004D801B6C03F002030193019B04B010BD234B77
S31508004D90002202921A6C42F004021A641B6C03F099
S31508004DA004030293029B04B010BD00241B4B00941D
S31508004DB0596C41F0010159645B6C03F0010322460A
S31508004DC0052100931920009B00F0C4FC192000F06F
S31508004DD0FDFC1A202246214600F0BCFC1A2004B02D
S31508004DE0BDE8104000F0F2BC0C4B00220392596C4F
S31508004DF041F4003159645B6C03F4003319200393C2
S31508004E000521039B00F0A6FC1920E8E700000140F5
S31508004E1000040040000800400044014000380240F9
S31508004E2000B5026832498BB000238A42CDE90433C3
S31508004E30CDE90633089308D02E498A421DD02E495B
S31508004E408A4232D00BB05DF804FB2C4A0193136BEF
S31508004E502B4843F001031363136B9FED217B03F08B
S31508004E600103019304A901238DED047B019A08939C
S31508004E7000F0C2FE0BB05DF804FB204A0293136BE8
S31508004E80204843F004031363136B9FED177B03F06D
S31508004E900403029304A902238DED047B029A089366
S31508004EA000F0AAFE0BB05DF804FB144A0393136BDB
S31508004EB0154843F002031363136B9FED0B7B03F056
S31508004EC00203039304A902238DED047B039A089336
S31508004ED000F092FE0BB05DF804FB00BFAFF3008054
S31508004EE0000F000002000000C003000002000000DE
S31508004EF0000001400004004000080040003802405D
S31508004F0000000240000802400004024000000000C1
S31508004F1010B5002496B0202221460EA8CDE90344F8
S31508004F20CDE90744CDE90944CDE90B440294009440
S31508004F3006940594019405F001FC4148414A8461B0
S31508004F404FF6FF73C0E90024C0E90243C0E90444F0
S31508004F5003F070F800284ED14FF480533848029376
S31508004F6002A902F0BDFE002861D1354803F090F889
S31508004F70002859D10022002331486946CDE900238B
S31508004F8003F042F900284CD1002000210022CDE987
S31508004F900A0160232A48069306A9CDE90722099241
S31508004FA00C9203F0D1F8002838D12548042206A926
S31508004FB003F0CAF878BB2248082206A903F0C4F809
S31508004FC030BB1F480C2206A903F0BEF8E8B99FEDCE
S31508004FD01A7B00231A4815930EA98DED127BCDE98D
S31508004FE00E33CDE9103303F047F938B91448FFF703
S31508004FF017FF16B010BDFFF70BFDADE7FFF708FD6D
S315080050000F48FFF70DFF16B010BDFFF701FDDEE7ED
S31508005010FFF7FEFCD5E7FFF7FBFCCCE7FFF7F8FC4C
S31508005020C3E7FFF7F5FCAFE7FFF7F2FCA2E7FFF7E8
S31508005030EFFC9AE7AFF300800000000000200000B4
S31508005040D01500200000014000B53D488FB0002370
S31508005050CDE90233CDE90433CDE90033CDE9063392
S31508005060CDE90833CDE90A33C0E901330C9303616E
S315080050708361344B03604FF6FF73C36002F0DAFFB7
S3150800508000283BD14FF480532D48029302A902F021
S3150800509027FE00284CD12A4802F0FAFF002844D1FE
S315080050A00022002326486946CDE9002303F0ACF820
S315080050B0002837D19FED207B00222148089206A9B7
S315080050C08DED067B0A9203F03FF840BB1C4804228C
S315080050D006A903F039F8F8B91948082206A903F011
S315080050E033F8B0B916480C2206A903F02DF840B9D2
S315080050F01348FFF795FE0FB05DF804FBFFF788FC31
S31508005100C0E7FFF785FC0E48FFF78AFE0FB05DF88B
S3150800511004FBFFF77DFCE5E7FFF77AFCDCE7FFF722
S3150800512077FCD3E7FFF774FCC4E7FFF771FCB7E732
S31508005130FFF76EFCAFE700BF60000000000000004C
S31508005140881500200004004000B53D488FB00023B4
S31508005150CDE90233CDE90433CDE90033CDE9063391
S31508005160CDE90833CDE90A33C0E901330C9303616D
S315080051708361344B03604FF6FF73C36002F05AFF36
S3150800518000283BD14FF480532D48029302A902F020
S31508005190A7FD00284CD12A4802F07AFF002844D1FE
S315080051A00022002326486946CDE9002303F02CF89F
S315080051B0002837D19FED207B00222148089206A9B6
S315080051C08DED067B0A9202F0BFFF40BB1C48042205
S315080051D006A902F0B9FFF8B91948082206A902F08B
S315080051E0B3FFB0B916480C2206A902F0ADFF40B9C4
S315080051F01348FFF715FE0FB05DF804FBFFF708FC30
S31508005200C0E7FFF705FC0E48FFF70AFE0FB05DF88A
S3150800521004FBFFF7FDFBE5E7FFF7FAFBDCE7FFF723
S31508005220F7FBD3E7FFF7F4FBC4E7FFF7F1FBB7E7B4
S31508005230FFF7EEFBAFE700BF6000000000000000CC
S315080052404015002000080040DFF834D0002103E0B4
S315080052500C4B5B58435004310B480C4B42189A428E
S31508005260F6D30B4A02E0002342F8043B094B9A4264
S31508005270F9D3FFF727FD05F0BFFAFFF787FB70475D
S3150800528000000120C4A900080000002030100020FA
S31508005290301000204C560020FEE7000008B50B4BE6
S315080052A01A6842F400721A601A6842F480621A6038
S315080052B01A6842F480721A60032000F039FA0F2047
S315080052C0FFF77CFCFFF75AFC002008BD003C0240B3
S315080052D0034A044B11681B780B441360704700BFE0
S315080052E01816002004000020014B1868704700BFFC
S315080052F018160020002800F09E8038B5056C044674
S315080053003DB1236CDB060CD5002384F83C30012024
S3150800531038BDFFF73FF96564236C84F83C50DB061B
S31508005320F2D4236C474A23F4885323F0020343F04C
S31508005330020323645168236821F44031516051689F
S315080053406068014351605A682069A16822F4807236
S315080053505A605A6842EA00225A605A68E06822F09F
S3150800536040725A605A680A435A609A68A16A22F4D7
S3150800537000629A609A6802439A60334A91429A6830
S3150800538051D022F07062E06A9A609A681143996077
S315080053909A6822F040529A609A6802439A609A681C
S315080053A022F002029A609A68217E42EA41029A60D5
S315080053B094F82020002A40D05A68616A42F40062B4
S315080053C05A605A6822F460425A605A68013942EAB9
S315080053D041325A60DA6AE16922F47002DA62DA6AFC
S315080053E0013942EA0152DA629A68616922F4007266
S315080053F09A609A6894F8300042EA40229A609A685D
S3150800540022F480629A609A68002042EA81229A60B1
S315080054106064236C23F0030343F001032364002331
S3150800542084F83C3038BD22F070629A609A6822F09F
S3150800543040529A60B3E7012070475A6822F4006226
S315080054405A60C7E7002301400100000F10B490F826
S315080054503C3083B00022012B01925AD00123026806
S3150800546080F83C309368DC0714D42C4B2C4C1B6812
S315080054709168A4FB03439B0C03EB430341F0010132
S3150800548091600193019B2BB1019B013B0193019B09
S31508005490002BF9D1936813F0010F036C2DD023F478
S315080054A0E06323F0010343F48073036453685905EA
S315080054B005D5036C23F4405343F480530364036C0B
S315080054C013F480531CBF436C23F006034364002483
S315080054D0144B80F83C406FF0220111605B68DB06D4
S315080054E002D0114B9A420FD1936813F0405F0BD14B
S315080054F0936843F08043936006E043F01003036427
S31508005500436C43F001034364002003B05DF8044B89
S315080055107047022003B05DF8044B70470000002076
S3150800552083DE1B43002301400020014003689A687C
S31508005530520570B505460C4602D59B68DE0542D471
S31508005540FFF7D2FE2A68064601E0601C23D11368DD
S315080055509907FAD56FF0120313602B6C43F40073A6
S315080055602B64936813F0405F13D12B7E8BB9D36AF3
S3150800557013F4700F02D093685A050AD42B6C23F4DF
S3150800558080732B642B6CDB0403D42B6C43F0010370
S315080055902B64002070BD5CB9136813F00203D6D1E2
S315080055A02A6C85F83C3042F004022A64032070BD58
S315080055B0FFF79AFE801BA0422A68C8D9136813F021
S315080055C00203C4D1ECE7036C002243F0200380F801
S315080055D03C200364012070BD0368D86C704700BF87
S315080055E070B590F83C3082B00246012B4FF00000AF
S315080055F0019000F09380012382F83C300D6813680F
S315080056008C68092DA8B228D81E6905EB450E4FF0FF
S31508005610070C0CFA0EFC26EA0C061E611E6904FA33
S315080056200EF434431C614C68062C04EB84012AD81A
S315080056305C6B05394FF01F0C88400CFA01F124EA1F
S3150800564001015963596B0843586336498B422BD07D
S31508005650002082F83C0002B070BD00EB400CDE680A
S31508005660ACF11E0C4FF0070E04FA0CF40EFA0CFC03
S3150800567026EA0C06DE60DE683443DC604C68062CDD
S3150800568004EB8401D4D90C2C34D81C6B23391F267F
S31508005690884006FA01F124EA01011963196B0843E7
S315080056A0204918638B42D3D1122D30D0A5F11003AF
S315080056B0012BCDD81C494B68102D43F400034B60D1
S315080056C0C6D11A4B01F146711B6801F52E3101F25C
S315080056D08331A1FB03139B0C03EB83035B0001934C
S315080056E0019B002BB4D0019B013B0193019B002B2E
S315080056F0F9D1ADE7DC6A41391F26884006FA01F17F
S3150800570024EA0101D962D96A0843D8629DE7D1F82B
S31508005710043343F48003C1F8043399E7022002B046
S3150800572070BD00BF0020014000230140000000209A
S315080057300749CA6803024FF6FF0003F4E063024014
S31508005740134343F0BF6343F40033CB60704700BF95
S3150800575000ED00E01B4BDB68C3F3022300B5C3F181
S31508005760070EBEF1040F03F1040C28BF4FF0040E18
S31508005770BCF1060F1CD9A3F1030C4FF0FF3303FA53
S315080057800CF322EA03024FF0FF3303FA0EF321EA81
S31508005790030303FA0CF313431B010028DBB20ADBED
S315080057A000F1604000F5614080F800335DF804FBC5
S315080057B000229446E7E7044A00F00F0002441376F5
S315080057C05DF804FB00ED00E0FCEC00E0002807DBD8
S315080057D04109044A00F01F000123834042F82130A2
S315080057E0704700BF00E100E038B50446FFF77CFDCE
S315080057F0002C75D023680022022184F8351084F81D
S3150800580034201A6822F0010205461A6005E0FFF7FF
S315080058106BFD431B052B39D823681A68D107F6D4C4
S31508005820D4E90120E16802430A43D4E90451A06996
S315080058302A430A43E1691D6802430A43324929405B
S31508005840256A2A430A43616A042926D01A605A69D6
S3150800585022F007021143D8B22C4A59611038A2FB2C
S31508005860005212092A4923F47F73895CE16523F003
S3150800587003035F2888BF04333F228A40A3650020BC
S315080058809A600123606584F8353038BD03232022E9
S31508005890626584F83530184638BDD4E90B5129437A
S315080058A0114319605969A26A21F00701114341F0B1
S315080058B00401002DCFD028B9012A21D032F00202E6
S315080058C0C9D106E0B0F5005F0CD0022A03D9032A35
S315080058D0C1D1EA01BFD540220123626584F835307B
S315080058E0012038BD032AB6D801A050F822F000BF1F
S315080058F0D7580008D3580008D75800080159000897
S31508005900B5F1C07FA7D1E6E73F8010F0ABAAAAAAF7
S315080059108CA9000870B490F83440856D012C0AD023
S3150800592090F835404FF0010C644580F834C005D036
S31508005930002380F83430022070BC7047022680F8B5
S315080059403560046800264665266826F480262660A3
S3150800595063608368402B0EBFA260A160E260C26DDF
S3150800596008BFE1603F239340AB602368026C43F0B5
S31508005970160323601AB1236843F0080323602368DB
S3150800598043F001030020236070BC704770B50446DD
S31508005990866DFFF7A9FC94F83530022B06D08023D4
S315080059A06365002384F83430012070BD23681A68C3
S315080059B022F016021A605A6922F080025A61226C95
S315080059C0054642B31A6822F008021A601A6822F0DD
S315080059D001021A6005E0FFF787FC431B052B10D868
S315080059E023681B6813F00103F5D1E16D3F228A4055
S315080059F0184601210023B26084F8351084F8343043
S31508005A0070BD032320226265184684F835300023CA
S31508005A1084F8343070BDA26C002AD3D1D6E700BF13
S31508005A2090F83530022B03D0802343650120704758
S31508005A300268052380F83530136823F00103002037
S31508005A4013607047F0B583B0674A876D1668002300
S31508005A500193C36D3D6808229A402A42044603D042
S31508005A6001680868400778D401229A402A4203D080
S31508005A702168496908066AD404229A402A4203D052
S31508005A802168096889075CD410229A402A4203D003
S31508005A9021680868000741D420229A402A4214D077
S31508005AA021680868C00610D5BA6094F83520052A1A
S31508005AB063D00B6813F4802F0B687ED0190340F16E
S31508005AC08980E36B0BB120469847636D23B3636DFA
S31508005AD0DA071AD522684549052384F8353013684C
S31508005AE0A1FB061623F00103B60A136002E0136849
S31508005AF0DB0704D5019B0133B3420193F7D9012291
S31508005B00002384F8352084F83430E36C23B120462A
S31508005B1003B0BDE8F040184703B0F0BDBA600A68A4
S31508005B2012F4802F0A6822D1D20503D40A6822F01B
S31508005B3008020A60226C002AAED020469047E36D20
S31508005B40AAE7BA60626D42F0040262659CE7BA6031
S31508005B50626D42F0020262658EE7086820F0040072
S31508005B600860BA60626D42F0010262657CE7110363
S31508005B70E0D5A26C002AE0D18EE70A6822F0160268
S31508005B800A604A6922F080024A61226C3AB30A68BE
S31508005B9022F008020A603F2202FA03F3216DBB6075
S31508005BA00122002384F8352084F834300029B3D044
S31508005BB0204603B0BDE8F040084713F4807380D14F
S31508005BC00A6822F010020A60012284F8352084F857
S31508005BD0343076E7636C002B7FF475AF75E7A26CFB
S31508005BE0002AD4D1D7E700BF00000020B5814E1B9C
S31508005BF090F83500704700BF2DE9F04F00230C6878
S31508005C00DFF8D4A185B04FF0010B894603E00133D4
S31508005C10102B00F082800BFA03F202EA0408A24372
S31508005C20F5D1D9F8041001F003024FEA430C032515
S31508005C30571E05FA0CF5012F6FEA050570D9032AD8
S31508005C4040F0A780076802FA0CF23D402A4311F497
S31508005C50403F0260DBD000220392DAF8442042F487
S31508005C608042CAF84420DAF8442002F480420392BB
S31508005C70039A23F0030202F1804203F003070F267A
S31508005C8002F59C32BF0006FA07FC504E9568B042F2
S31508005C9025EA0C0518D006F58066B04200F0848027
S31508005CA04B4EB04200F08680DFF830C1604500F008
S31508005CB08780DFF82CC160450CBF4FF0040C4FF00D
S31508005CC0070C0CFA07F73D439560424A9268CE02E4
S31508005CD06FEA08053F4E54BF2A4048EA0202B260FE
S31508005CE0F2683C4E8F0254BF2A4048EA0202F2602C
S31508005CF072688E03374E54BF2A4048EA0202726021
S31508005D003268C90303F10103324954BF2A4048EAFD
S31508005D100202102B0A607FF47EAF05B0BDE8F08F53
S31508005D20876807EA050ED9F80C7007FA0CF747EAF0
S31508005D300E078760476827EA080EC1F300179F40D9
S31508005D4047EA0E074760C76807EA050ED9F80870DC
S31508005D5007FA0CF747EA0E07022AC7607FF472AF04
S31508005D60DF0800EB870701973E6AD9F8107000969E
S31508005D7003F0070E4FEA8E0E0F2607FA0EF706FAFD
S31508005D800EFE009E26EA0E0E019E47EA0E073762B1
S31508005D9058E7C76807EA050ED9F8087007FA0CF736
S31508005DA047EA0E07C7604DE74FF0010C0CFA07F7F4
S31508005DB03D4389E74FF0020C0CFA07F73D4383E7AA
S31508005DC04FF0030C0CFA07F73D437DE7000002404D
S31508005DD000080240003C014000380240000C024026
S31508005DE0001002400369194214BF012000207047C1
S31508005DF002B9090481617047436901EA030221EA8D
S31508005E00030141EA02418161704700BF002800F0A2
S31508005E10B88070B590F83D30044603F0FF02002BB9
S31508005E2000F098802368242284F83D201A6822F01E
S31508005E3001021A601A6842F400421A601A6822F4CB
S31508005E4000421A6001F002FB65684F4B9D424FD82D
S31508005E504E4B98427CD94E4B6A00A3FB0035431E35
S31508005E60B3FBF2F32268516821F03F0141EA9541FC
S31508005E705160116A4FEA954C0CF1010C21F03F0173
S31508005E8041EA0C011162D16940F6FC70013321F434
S31508005E904F41034221F0FF0161D104230B43D36133
S31508005EA0D4E907301168034321F0C0010B4313609E
S31508005EB09168D4E9030321F40341034321F0FF0168
S31508005EC00B439360D4E90530D168034321F0FF0101
S31508005ED00B43D3601168002341F0010120201160B3
S31508005EE0236484F83D00236384F83E30184670BD69
S31508005EF0284B98422CD92268254B274EA3FB003CF9
S31508005F00431E506820F03F0040EA9C4050604FEA2C
S31508005F109C414FF4967000FB01F1A6FB0161106AE3
S31508005F20890920F03F00013101431162D169A06857
S31508005F3021F44F4121F0FF01A0B905EB4505B3FB5C
S31508005F40F5F30133C3F30B03CBB143F40043A5E7E1
S31508005F50012070BD80F83C20FEF776FC62E7C3F3AB
S31508005F600B039BE705EB850505EB8505B3FBF5F309
S31508005F700133C3F30B0313B143F440438EE7012304
S31508005F808CE70120704700BFA08601007F841E00B1
S31508005F9083DE1B43FF083D00D34D6210F0B482B088
S31508005FA00024019490F83D40BDF81CC0202C26D151
S31508005FB0304C314D2468E408A5FB0454240A04EB4C
S31508005FC0840404EB8404019403E00468A569AE071D
S31508005FD019D5019C013C0194019C002CF5D1202384
S31508005FE0046380F83D3080F83E40036C80F83C40FE
S31508005FF043F020030364012002B0F0BC704702207E
S3150800600002B0F0BC704790F83C50012DF7D02568D7
S31508006010ED0703D4256845F0010525602568174F67
S3150800602025F400652560069D4562222580F83D50C9
S315080060300026402580F83E500664A0F82AC0458D03
S31508006040C76241648264C36406652268ADB242F4DD
S31508006050806205852260226842F48072226080F898
S315080060603C601DB1636843F4E0636360002002B0DE
S31508006070F0BC70470000002089B5F8140000FFFF47
S31508006080704700BF704700BF704700BF704700BF2A
S31508006090704700BF704700BF704700BF90F83D20AB
S315080060A0016D034659B9C26C0168012A826C0DD08C
S315080060B0C2F307220A61026D013202657047016D5B
S315080060C0012909D0016D02290ED07047D2B20A61A2
S315080060D0026D023202657047826C0168D2B20A61AB
S315080060E0026D013202657047D2B2222A1FD0418D55
S315080060F089B2C1B9418D89B20029E6D1212AE4D1F4
S31508006100026810B5546824F4E0645460146844F4D2
S31508006110007414602022016380F83D2080F83E1048
S31508006120FFF7BAFF10BD212A0AD05B8D70470168B8
S315080061300A6842F480720A60026D0132026570478D
S31508006140416A026811F8010B10615A8D5962013AC9
S3150800615092B25A85704700BF704700BF704700BFAC
S31508006160704700BF70B53A4B3A4A1B68806B82B0DD
S31508006170DB080021A2FB032301911B0A90F83D10BE
S31508006180026803EB8303C3EBC303C9B2019305E0BB
S31508006190019B013B019313689B0506D5019B002BC8
S315080061A0F6D1036C43F020030364D0E90D4344B3EE
S315080061B00025E563F3B11668DD6326F4806616608C
S315080061C04585256500241C65136823F001031360C3
S315080061D090F83D30602B29D001F02801282918D0E5
S315080061E02022002380F83D2080F83E30FFF7B6FFD6
S315080061F002B070BD156825F4806515604385236572
S31508006200E2E7F3B11568DC6325F48065156044851B
S31508006210D8E7136843F0010313601368002443F4B6
S3150800622080631360046380F83D10DFE700232022B3
S3150800623080F83D2080F83E300364FFF791FF02B0F6
S3150800624070BD146824F4806414604385BCE700BFFD
S315080062500000002089B5F81410B590F83D2090F894
S315080062603E30102B0446D2B239D0D9B2402936D0A6
S3150800627002F02801282923683CD05968080507D464
S31508006280602A05D02021002284F83D1084F83E209B
S31508006290002222635A6812F4006233D194F83D1042
S315080062A0602974D05A69500605D5626A1B6913704D
S315080062B0636A013363622046FFF750FF236C1907B0
S315080062C004D02268536823F4E063536094F83D30A1
S315080062D0226C5207DBB201D5282B2ED010BD222AFC
S315080062E0C6D123681A6822F400621A605A68120531
S315080062F0C8D5CDE70022226384F83D105A6812F407
S315080063000062CBD05A68606B22F400625A6090F83B
S315080063103530012B1ED0294B0365FFF781FB00287A
S31508006320CCD02268606B1368202123F00103136028
S3150800633084F83D10036D9847C0E700232049E162C1
S3150800634020222363204684F83D2084F83E30FFF758
S31508006350A1FE10BDA06B194B0365FFF761FB002872
S31508006360ACD023685A69510606D5626A1B69137050
S31508006370626A2368013262621A68A06B22F001021F
S3150800638020211A6084F83D10036D984796E720216E
S3150800639084F83D1022645A69520606D5626A1B695A
S315080063A01370626A2368013262621A6822F0010277
S315080063B020461A60FFF7D4FE80E700BF6561000833
S315080063C00000FFFFF0B503685F68C56A90F83E20D5
S315080063D090F83D10102A04468FB0C9B2D0B221D029
S315080063E040281FD0226C002A00F097805A690020A6
S315080063F012F0020559D0BD055AD5226C02B198692A
S3150800640094F83D2002F02802282A00F03082002263
S315080064100C9259690C919B690C930C9B84F83C204F
S315080064200FB0F0BD9E695A6912F0010F1AD1B5F581
S315080064302A0FF5D0B5F12A4FF2D0150770D5BD054C
S3150800644040F18680626C616BD2B21A61002900F055
S31508006450FB81CA6B002A00F0F7815A6842F4006291
S315080064605A60DDE7BD0571D5E26AB2F52A0F00F07C
S31508006470FB81E26AB2F12A4F04BF0822E26294F86D
S315080064803E20402A00F0E9812269B2F5804F00F0EB
S31508006490CA81226D002A40F0FE81626CD21102F098
S315080064A0060242F0F0021A61BAE7D60600F18A80BF
S315080064B001F0F701212902F0040000F0E0805106FE
S315080064C040F113817A0540F11081002840F01081CF
S315080064D094F83D10628D92B2C9B2002AA0D0626AC1
S315080064E01B691370638D626A013B9BB26385638D7A
S315080064F001329BB26262002B92D12A2990D122687E
S3150800650053682225282123F4806353602046256397
S3150800651084F83D10FFF7BAFD82E798695A6967E77C
S31508006520950715D5BD0513D594F83E20E06A256B69
S3150800653094F83D102229D2B200F0BF8100220A92B7
S315080065405A690A929B690A930A9B69E71507E7D570
S31508006550760740F1D9805D682D053FF561AF1606CF
S3150800656002F0040540F1F9807A0540F1F680002D25
S3150800657040F0F68094F83D20208D94F83E10E56AA8
S31508006580D2B2C9B2002840F04682212A00F05483CC
S3150800659040297FF445AF222A7FF442AF628D92B23A
S315080065A0002A00F07E8294F83E20402A00F0E1801E
S315080065B0626A12F8011B1961638D6262013B9BB224
S315080065C063852DE7B8057FF573AF94F83D605A6883
S315080065D022F4E0625A600D955A690D921A6842F0E3
S315080065E001021A600D9A1A6822F480621A605A68C3
S315080065F01105F6B200F1E680638D9BB213B32368EA
S315080066005A6952070AD5626A1B691370628D636AF2
S31508006610013A591C92B22368616262855A69570623
S3150800662009D5626A1B691370638D626A013B013280
S315080066309BB262626385638D9BB21BB1236C43F088
S3150800664004032364236C002B40F0E7802A2E00F015
S31508006650728194F83D30282B00F07D81236B222B24
S3150800666002D0222E7FF4DCAE0023202223632046AC
S3150800667084F83D2084F83E30FFF708FDD0E616067C
S3150800668027D57D0525D538BB94F83D00628D92B295
S31508006690C0B2002A3FF4C4AE626A12F8015B1D61FB
S315080066A06262628D013A92B26285628D92B2002A66
S315080066B07FF4B6AE29287FF4B3AE5A68282522F4AB
S315080066C080625A602046216384F83D50FFF7DCFC5F
S315080066D0A6E600283FF4A4AEB8057FF5A1AE628D04
S315080066E092B2002A3FF49CAE62E700283FF498AEC7
S315080066F0BE057FF595AE628D92B2002A3FF490AE44
S31508006700626A1B69137020E059680D053FF588AE6B
S31508006710500602F0040132D400293FF481AEBE05CA
S315080067207FF57EAEE06A628D616A92B2042A00F055
S315080067304081628D92B2032A00F07F81628D92B207
S31508006740022A00F0B3811B690B70638D626A013BF4
S3150800675001329BB26262638562E6002D3FF460AE49
S31508006760BE057FF55DAE212900F02A8140287FF419
S3150800677057AE20460FB0BDE8F040FFF78FBC7A054C
S31508006780CAD50029CBD194F83D20222A7FF448AEF9
S31508006790628D92B2032A40F21682626A1B691370EE
S315080067A0638D626A013B9BB26385638D9BB201323E
S315080067B0032B62627FF434AE2268536823F4806345
S315080067C053602DE606F0F702222A00F09380606BEC
S315080067D00268526892B26285628D92B21AB1226CD0
S315080067E042F0040222645A6822F400625A60FFF7F3
S315080067F0FFF9012808D0606B974B0365FFF710F97E
S3150800680010B1606B036D9847638D9BB2002B7FF4C4
S31508006810F6AE236C002B3FF41CAF20460FB0BDE844
S31508006820F040FFF719BD94F83D20212A626C16BF87
S3150800683042F0010202F0FE02D2B21A61626B1AB18C
S31508006840D26B002A7FF409AEA26B002A3FF4E8ADAA
S31508006850D26B002A7FF401AEE2E5226D3ABB626C88
S3150800686002F0FE021A61DBE50122E26207E65A68D7
S3150800687022F480625A60070680F004014FF0000394
S3150800688054BFA289228B84F83C30C1F3800120468C
S31508006890FFF7FEFBC4E5226D012A7FF4C1AD626CE9
S315080068A0D21102F0060242F0F1021A61B8E5626CF2
S315080068B042F00102D2B21A61B2E5216D11B9402A3D
S315080068C000F0A280226D22B92169B1F5404F00F08F
S315080068D0A680628D92B2002A4AD103925A6903921F
S315080068E09A690392039A1A6842F400721A6000239E
S315080068F0236595E5A06B0268526892B26285628D3F
S3150800690092B21AB1226C42F0040222645A6822F446
S3150800691000625A60FFF76CF901283FF46DAEA06B70
S315080069204D4B0365FFF77CF800283FF465AEA06B76
S31508006930036D984760E628222363204684F83D20A5
S31508006940FFF7A4FB94F83D30282B04D0236B222BA9
S315080069507FF466AD88E600234049E162202223637E
S31508006960204684F83D2084F83E30FFF793FB57E530
S31508006970628D92B2012A73D0628D92B2022A00F019
S31508006980D9801A6842F480621A605A68120508D5D6
S31508006990202800F2FB80072800F2ED80012800F08D
S315080069A0F080002209925A6909929B690993099B0A
S315080069B09DE75A6822F480625A601B690B70C4E628
S315080069C0E16A94F83D20212A7FF42AAD628D92B2BD
S315080069D0002A7FF4EDAD082900F0DD80202900F0BB
S315080069E0DA8011F5803F00F0D680596821F4E0611D
S315080069F0596011202023206384F83E20204684F81D
S31508006A003D30FFF73DFB0BE501915A6901929B6901
S31508006A100193019B04E5212A7FF4BAADBEE50292F3
S31508006A205A6902929A690292029A1A6842F4807224
S31508006A301A60236D01332365F2E45A68042822F4A8
S31508006A4080625A603FF47FAE02283FF47CAE1A6833
S31508006A5022F480621A6076E6656100080000FFFF8E
S31508006A6010F5803F00F02981082800F0FD802028D5
S31508006A7000F0FA80122D00F05081102800F24F81A4
S31508006A809C4A0241D20700F14A811A6842F48062A0
S31508006A901A60002206925A6906929B690693069B1B
S31508006AA025E75A6822F480625A60B9E401380F284B
S31508006AB009D8DFE800F03A35083508080808080854
S31508006AC008080808083A1A6842F400721A601B692E
S31508006AD00B70638D626A2168013B9BB263850B6903
S31508006AE0511C61625370638D2168626A013B9BB2D7
S31508006AF063854B68013223F44073202062624B6041
S31508006B0084F83D0094F83E30402B00F0EA800022DD
S31508006B10122384F83E2020462363FFF7B3FA7FE466
S31508006B201A6842F480621A60D1E71A6822F4806211
S31508006B301A60CCE7102804D86F4AC240D70700F17C
S31508006B40A3801A6822F480621A601A6842F4006206
S31508006B501A605A68160506D5202840F29D8010F559
S31508006B60803F00F09E80002208925A6908929B692D
S31508006B700893089BBBE6614A0838C240D7077FF5E9
S31508006B8010AF5A6842F480525A600AE710F5803FFF
S31508006B907FF407AFF5E7596821F4E0615960196891
S31508006BA00022202041F400711960226384F83D0018
S31508006BB094F83E3084F83E20402B20467FF421AFDF
S31508006BC0FFF76AFA2CE4E06A02283FF46AAF012A62
S31508006BD03FF667AF4A4A0B91126846F2A810B2FB15
S31508006BE0F0F202EB82020B9204E01A6812F40072C9
S31508006BF000F09A800B9A013A0B920B990029F4D16E
S31508006C00226C606A42F0200222645A6822F4E0622A
S31508006C105A601B690370638D626A013B01329BB23D
S31508006C2020206385626284F83D00204684F83E1081
S31508006C30FFF794FAFFF7F4BB082DACD0202DAAD0A5
S31508006C4015F5803FA7D05A6822F4E0625A601120F1
S31508006C5000212023206384F83E10204684F83D3026
S31508006C60FFF70EFAFFF7DCBB1A68002122F48062F0
S31508006C701A6007915A6907929A690792079A1A68D9
S31508006C8042F400721A6032E61A6842F480621A60A8
S31508006C905A6815057FF567AF072807D801287FF4D6
S31508006CA062AF5A6842F480525A605CE7134A083861
S31508006CB0C240D1077FF557AFF3E71A6822F480621E
S31508006CC01A605A6812F400621CD01A68002122F46D
S31508006CD080621A6004915A6904929B690493049B22
S31508006CE005E6002384F83E3020462363FFF734FA8E
S31508006CF0FFF796BBEBFFFEFF140001000101000140
S31508006D000000002005925A6905929A690592059A2B
S31508006D101A6842F400721A60E9E50128A4D11A68D3
S31508006D2022F480621A60B4E61968606A21F4806108
S31508006D301960596821F4E06159601B690370638D15
S31508006D40013B20219BB2638584F83D10636A94F861
S31508006D503E100133402963627FF4DAAE84F83E20A0
S31508006D6020462263FFF7F8F9FFF75ABBF0B5036828
S31508006D705C695A6890F83E10E50583B0C9B210D52B
S31508006D8012F4807614D06FF48072A7055A615FD525
S31508006D9003256FF400725A61620512D422054AD49B
S31508006DA04EE0A50506D512F480763ED00225F0E71A
S31508006DB0A5053AD414F4806539D012F4807634D017
S31508006DC00025428D90F83DC0076B202992B25FFAE4
S31508006DD08CFC10D06FF48062102945F004055A61C6
S31508006DE001D040293ED11A68270542F400721A607C
S31508006DF026D506BB24E082BB0CF0F702212A04D074
S31508006E00BCF1280F29D1212F27D190F83D20C16A3E
S31508006E100829D2B22FD020292DD0212A46D06FF4A6
S31508006E2080625A61270522D455B903B0F0BD210501
S31508006E30FBD5D605F9D56FF4006245F008055A6109
S31508006E40036C2B43036403B0BDE8F040FFF704BAB4
S31508006E5067054FF00105B4D4A0E76FF4806245F0EA
S31508006E6004055A612405EBD5002EE4D1E8E7002E87
S31508006E70DAD00368DFE7282ACFD1194AC2625A68EE
S31508006E80019022F4E0625A606FF480625A611A68CF
S31508006E9022F480621A6000232022036380F83D20D2
S31508006EA080F83E30FFF7F6F80198BBE70C49C16257
S31508006EB00263202280F83D20002280F83E205A688E
S31508006EC0019022F4E0625A606FF480625A611A688F
S31508006ED022F480621A60FFF7D7F80198A2E700BF8C
S31508006EE00000FFFF002800F0D8812DE9F041036873
S31508006EF0DD0782B004462FD59D498A6802F00C0248
S31508006F00042A00F0EC808A6802F00C02082A00F0D5
S31508006F10E2806368B3F5803F00F0EB80B3F5A02FFD
S31508006F2000F07381924D2A6822F480322A602A681A
S31508006F3022F480222A60002B40F0E080FEF7D4F984
S31508006F40064605E0FEF7D0F9801B642800F20081AA
S31508006F502B689F03F6D423689D0728D5844A916831
S31508006F6011F00C0F00F09B80916801F00C010829C4
S31508006F7000F09180E368002B00F00C817D4B7C4E7D
S31508006F8001221A60FEF7B0F9054605E0FEF7ACF9EE
S31508006F90401B022800F2DC8033689F07F6D5336869
S31508006FA0226923F0F80343EAC203336023681A0709
S31508006FB05CD45D073AD56E4A136C13F0805340F0E3
S31508006FC088800193136C43F080531364136C03F0A9
S31508006FD080530193019B0125674E3368D80540F11C
S31508006FE0A780A368012B00F0B780052B00F01D8150
S31508006FF05F4E326F22F001023267326F22F00402CE
S315080070003267002B40F0AD80FEF76EF941F2883802
S31508007010074605E0FEF768F9C01B404500F2988070
S31508007020336F9B07F6D4002D40F0F980A369CBB1E6
S315080070304F4DAA6802F00C02082A00F0BC80022B09
S315080070404C4B4FF000021A6600F0F980FEF74CF937
S31508007050044604E0FEF748F9001B022878D82B6896
S315080070609B01F7D4002002B0BDE8F0816369FBB14B
S31508007070404B3F4E0122C3F8802EFEF735F90546F0
S3150800708004E0FEF731F9401B022861D8736F9B07AD
S31508007090F7D523688DE7526851023FF56BAF344A3E
S315080070A01268920738D5E268012A35D00120DAE756
S315080070B0304A2F4EC2F8803EFEF716F9054604E020
S315080070C0FEF712F9401B022842D8736F9F07F7D4C0
S315080070D0DFE7002580E74A6851027FF51AAF244AA0
S315080070E0126892037FF538AF6268002A7FF434AFDE
S315080070F0DCE71F4A136843F480331360FEF7F4F89D
S315080071001B4E054604E0FEF7EFF8401B64281FD81F
S3150800711033689B03F7D51EE7154920690A6822F0EC
S31508007120F80242EAC0020A601A077FF542AF9DE7F5
S31508007130336843F480733360FEF7D6F8074633683E
S31508007140D9053FF54EAFFEF7CFF8C01B0228F6D992
S31508007150032002B0BDE8F081054A136F43F001032E
S315080071601367FEF7C1F8024F064641F288380AE06F
S31508007170003802400000474200700040FEF7B4F8AD
S31508007180801B4045E4D83B6F9A07F7D5002D3FF49E
S315080071904DAF44E0424A434E1360FEF7A5F8054654
S315080071A004E0FEF7A1F8401B0228D1D833689907F6
S315080071B0F7D42368FBE6012B3FF478AF6B68E269E6
S315080071C003F4800191427FF471AF226A03F03F0114
S315080071D091427FF46BAF616A47F6C0721A40B2EB10
S315080071E0811F7FF463AFA26A520803F44031013A63
S315080071F0B1EB024F7FF45AAFE26A03F07063B3EB68
S31508007200026F14BF012000202DE7264B1A6842F4AE
S3150800721080221A601A6842F480321A606EE7214AA0
S31508007220136C23F08053136400E71E4B1A6F42F069
S3150800723004021A671A6F42F001021A6791E7FEF70D
S3150800724053F8064605E0FEF74FF8801B02283FF67E
S315080072507FAF2B689901F6D4D4E90731626A0B43EC
S3150800726043EA8213D4E90A21520843EA0163013A40
S315080072700B4943EA024301226B600A66FEF734F8BB
S31508007280084D044605E0FEF72FF8001B02283FF6D6
S315080072905FAF2B689A01F6D5E4E60120704700BF78
S315080072A00000474200380240164908B58B6803F0CB
S315080072B00C03042B1BD0082B17D14A684B68496866
S315080072C013F4800302F03F0213D10F48C1F388116B
S315080072D0A1FB0001FCF7A4FF0A4B5B68C3F301435B
S315080072E001335B00B0FBF3F008BD074808BD07484B
S315080072F008BD0648C1F388110023A1FB0001FCF76D
S315080073008FFFE9E7003802400024F400001BB700AD
S31508007310002800F08780484A136803F007038B4269
S315080073202DE9F0410D46044609D2CBB21370136815
S3150800733003F007038B4202D00120BDE8F0812368E1
S31508007340980714D5590704D53C498A6842F4E0528F
S315080073508A601A0704D539498A6842F460428A6005
S315080073603649A0688A6822F0F00202438A60DF077D
S3150800737021D56268012A57D0931E012B2F4B1B6813
S315080073804DD99907D8D52D4EB36823F00303134377
S31508007390B360FDF7A9FF41F28838074604E0FDF718
S315080073A0A3FFC01B404544D8B368626803F00C03CA
S315080073B0B3EB820FF3D1204A136803F00703AB42FD
S315080073C006D9EBB21370136803F00703AB42B3D1C7
S315080073D023685A0706D51949E0688A6822F4E052F4
S315080073E002438A601B0707D5144A2169936823F468
S315080073F0604343EAC1039360FFF756FF0F4A104CF8
S3150800740092681049C2F303120346A25C0E48D340A1
S3150800741000680B60FDF7D2FB0020BDE8F0819801FB
S31508007420B1D489E701207047044B1B689E03AAD490
S3150800743082E7032081E700BF003C02400038024093
S315080074407CA900080000002008000020044B05491C
S315080074509B68054A0868C3F38223D35CD840704703
S31508007460003802400000002074A90008044B0549B2
S315080074709B68054A0868C3F34233D35CD840704713
S31508007480003802400000002074A900080E4B0F22A5
S3150800749002609A6802F0030242609A6802F0F002FB
S315080074A082609A6802F4E052C2609B68DB0810B4F6
S315080074B003F4E053054C036123685DF8044B03F0BD
S315080074C007030B60704700BF00380240003C0240CB
S315080074D02DE9F04182B01E4614460D460746FDF7D3
S315080074E003FF2644361AFDF7FFFE264B1B68C3F337
S315080074F0CB3306FB03F3804601933A6801E0631C2D
S3150800750007D1936835EA0303F9D0002002B0BDE835
S31508007510F081FDF7E9FEA0EB0800B04208D2019B16
S31508007520002B019B03F1FF3308BF00260193E4E714
S31508007530D7E900315A68B1F5827F22F0E0025A6035
S3150800754013D0BA6AB2F5005F07D11A6822F400525E
S315080075501A601A6842F400521A600122002387F85A
S31508007560512087F850300320D0E7BA68B2F5004FAB
S3150800757002D0B2F5806FE4D11A6822F040021A6090
S31508007580DFE700BF0000002038B513464268B2F5B1
S31508007590827F044606D00A460121FFF799FF78B98B
S315080075A0002038BD8268B2F5004F1BD0B2F5806F57
S315080075B00CD00A4620468021FFF78AFF0028EFD024
S315080075C0636D43F020036365032038BD05680A46EA
S315080075D0296821F0400129600121FFF779FF002879
S315080075E0DED0EDE70068026822F0400202600A4633
S315080075F020468021FFF76CFF0028D1D0E0E700BFC6
S3150800760030B5164B164D1B68A5FB035C83B04FEAD5
S315080076105C5C4FF47A7303FB0CF301934368B3F590
S31508007620827F044607D10CE0019B2268013B019347
S3150800763093681B0602D5019B002BF5D1002003B0E9
S3150800764030BD13460A468021FFF742FF0028F5D0D1
S31508007650636D43F0200303206365F0E70000002014
S31508007660819F5E1600285CD070B50446406A0028E3
S3150800767047D00023C4E9043394F851300022A262AB
S3150800768003F0FF01002B42D094462168A568A26941
S31508007690266A022384F851300B6823F040030B60F6
S315080076A0636805F4044503F482732B43E56805F41F
S315080076B000652B43256905F002052B43656905F02E
S315080076C001052B43E56906F0800E02F4007605F005
S315080076D0380533432B43120C00F0100043EA0E031F
S315080076E002F0040243EA0C0302430B604A60CB69CA
S315080076F0002023F400630122CB61606584F85120E1
S3150800770070BD6368B3F5827FB6D0E061B4E7204602
S3150800771084F85010FDF79AF9D4E9090303F4005CDC
S31508007720B3E70120704700BF38B5044690F850000B
S3150800773001286AD0012084F8500094F85100656841
S3150800774001285FFA80FC0DD0B5F5827F04D00220AF
S31508007750002384F8503038BDA0680028F7D1BCF162
S31508007760040FF4D1002959D0002A57D0002B55D040
S3150800777094F85100216304284FF000051CBF05202A
S3150800778084F851006565E06CE386E38794F8511048
S31508007790A386C4E91055A387A2630565204DE38F28
S315080077A00429204918BF29461F4D01641F49C16491
S315080077B01F4918BF2946C16321689BB20C31FEF7E1
S315080077C0A9F8014618BB2268A06C536843F0010368
S315080077D05360E38E0C32C0E90F11C0E913119BB256
S315080077E0216BFEF797F890B923681A68520603D4F6
S315080077F01A6842F040021A605A6842F020025A603B
S315080078005A6842F002025A60A2E7022038BD636D48
S31508007810012243F01003636584F85120012097E79D
S31508007820B9780008A978000859790008C9780008C5
S31508007830ED78000890F85020012A0DD010B404689D
S3150800784062680346002142F00302626083F8501022
S3150800785008465DF8044B70470220704738B5044661
S31508007860806C10B1FEF792F8A0B90025E06C38B12B
S31508007870FEF78CF820B1636D43F0100301256365AC
S3150800788022685368012123F00303536084F85110DA
S31508007890284638BD636D43F0100301256365E5E7A7
S315080078A0704700BF704700BF08B5806BFFF7FAFF47
S315080078B008BD00BF704700BF08B5806BFFF7FAFF29
S315080078C008BD00BF704700BF806B026808B55368E3
S315080078D023F003035360436D012143F0100343650E
S315080078E080F85110FFF7EEFF08BD00BF38B5054612
S315080078F0846BFDF7F9FC2B681B68DB0517D4236836
S3150800790059680246A06821F020015960B0B159684B
S3150800791021F00101596064212046FFF735FE50B970
S3150800792001230022E28784F85130636D7BB9204633
S31508007930FFF7B6FF38BD20236365F1E76168B1F547
S31508007940827FE4D1596821F003015960E3E72046B4
S31508007950FFF7B8FF38BD00BF38B50546846BFDF79D
S31508007960C3FC2B681B68DB051BD4024620684368EA
S3150800797023F02003436064212046FFF741FE18B137
S31508007980636D43F02003636521684B68002223F08A
S31508007990030301204B60E286E28784F85100636D99
S315080079A01BB92046FDF70EF838BD2046FFF78AFFBB
S315080079B038BD00BF026810B55168936803F0410CE2
S315080079C0BCF1010F84B004465AD0980701D50806C1
S315080079D05ED413F4B07F51D088064FD558060ED51D
S315080079E094F8510003285DD0606D40F0040060658E
S315080079F000200090D0680090906800900098980643
S31508007A000CD5606D40F0010060650020029090681A
S31508007A100290106820F0400010600298D80508D53A
S31508007A20636D002043F0080363650390936803932E
S31508007A30039B636D13B3536823F0E003536001207F
S31508007A408B0784F8510029D05368E06C23F00303B0
S31508007A50536040B1174B0365FDF7E2FF18B1636D3C
S31508007A6043F040036365A06C40B1124B0365FDF714
S31508007A70D7FF18B1636D43F04003636504B010BDCA
S31508007A8011F0400FA1D0036C04B0BDE810401847B0
S31508007A90636C204604B0BDE8104018472046FFF73F
S31508007AA011FFEBE700230193D368019393680193D1
S31508007AB0019BE3E7B97A000808B5806B0023C38702
S31508007AC0C386FFF7FFFE08BD036A23F001030362BE
S31508007AD0036A70B4446882690D6822F073022A4307
S31508007AE08D6823F002032B430B4DA84206D0496844
S31508007AF04460826170BC416303627047CD6823F0BD
S31508007B0008032B43D1E9055624F44074354323F082
S31508007B1004032C43EBE700BF00000140036A23F48B
S31508007B2080730362036A70B44468C2690D6822F000
S31508007B3073022A438D6823F4007343EA05230C4D28
S31508007B40A84206D049684460C26170BCC16303623A
S31508007B507047CD6823F4006343EA0523D1E9055647
S31508007B6024F44054354323F4806344EA0514E9E7D2
S31508007B7000000140036A23F480530362036A30B4A9
S31508007B804468C2690D6822F4E64242EA05228D6815
S31508007B9023F4005343EA0533074DA84206D0496843
S31508007BA04460C26130BC0164036270474D6924F4C5
S31508007BB0804444EA8514F2E70000014090F83D301D
S31508007BC0012B27D103681449022280F83D20DA6880
S31508007BD08B4242F00102DA6011D0B3F1804F0ED029
S31508007BE00E4A93420BD002F58062934207D002F503
S31508007BF08062934203D002F59A32934204D19A687E
S31508007C0002F00702062A03D01A6842F001021A6037
S31508007C100020704701207047000001400004004022
S31508007C2091BB90F83E30012B36D1022380F83E30C6
S31508007C30036801F01F01186A01228A4020EA02003F
S31508007C401862186A224902438B421A622AD0B3F193
S31508007C50804F0ED01F4A93420BD002F580629342A2
S31508007C6007D002F58062934203D002F59A32934216
S31508007C7004D19A6802F00702062A03D01A6842F06D
S31508007C8001021A6000207047042910D0082916D06E
S31508007C9090F84130012B01D001207047022380F86B
S31508007CA04130C5E75A6C42F400425A64E1E790F85D
S31508007CB03F30012BF0D1022380F83F30B8E790F827
S31508007CC04030012BE8D1022380F84030B0E700BFEE
S31508007CD00000014000040040704700BFFFF7A0BF46
S31508007CE090F83C30012B71D0024630B40223046868
S31508007CF082F83D30012082F83C00A36823F47F43D4
S31508007D0023F07703A3600B68602B61D024D8402B3F
S31508007D1077D04AD9502B17D14B68C868216A21F009
S31508007D200A011943236A23F001032362A36923F096
S31508007D30F00343EA0013A3612162A36823F07003EA
S31508007D4043F05703A36000200121002382F83D1069
S31508007D5082F83C3030BC7047B3F5805FF3D0B3F59A
S31508007D60005F10D1D1E90153A0682B43CD6820F4F8
S31508007D707F4143EA05230B43A360A36843F480438A
S31508007D80A3600020E0E7702BDED1D1E90153A0689B
S31508007D902B43CD6820F47F4143EA05230B43A360B8
S31508007DA0A36843F07703A360CDE7202B02D009D957
S31508007DB0302BC9D1A16821F070010B4343F00703AA
S31508007DC0A360C0E733F01001BED1F3E70220704785
S31508007DD0236A4868CD6823F010032362A169236AE1
S31508007DE021F4704123F0A00343EA001341EA053168
S31508007DF0A1612362A36823F0700343F06703A360BD
S31508007E00A1E74B68C868216A21F00A011943236A69
S31508007E1023F001032362A36923F0F00343EA001366
S31508007E20A3612162A36823F0700343F04703A360AC
S31508007E3089E700BF704700BF704700BF704700BFA3
S31508007E40704700BF03681A69910710B5044602D542
S31508007E50DA6892075FD41A69500702D5DA685107BB
S31508007E6046D41A69120702D5DA6810072ED41A6999
S31508007E70D20602D5DA68D00618D41A69D10702D50F
S31508007E80DA68D2075DD41A69100602D5DA681106CF
S31508007E905FD41A69520602D5DA68500661D41A699F
S31508007EA0910602D5DA68920643D410BD6FF0100128
S31508007EB0082219612277DB6913F4407F204664D0D3
S31508007EC0FFF7BAFF002223682277D6E76FF008018A
S31508007ED0042219612277DB699907204652D1FFF7F8
S31508007EE0A9FF2046FFF7AAFF002223682277BEE7EC
S31508007EF06FF004010222196122779B6913F4407F0F
S31508007F0020463CD1FFF796FF2046FFF797FF002251
S31508007F1023682277A5E76FF002010122196102772B
S31508007F209B699B0725D0FFF787FF002223682277E6
S31508007F3091E76FF0200220461A61BDE8104000F074
S31508007F40C5B96FF001021A612046FCF745FD2368A2
S31508007F5099E76FF080021A61204600F0B9F92368A4
S31508007F6097E76FF040021A612046FFF769FF23681A
S31508007F7095E7FFF75FFF2046FFF760FFD5E7FFF7B6
S31508007F805BFFC4E7FFF758FFAEE7FFF753FF20464E
S31508007F90FFF754FF96E700BF70B4244E0A680368DB
S31508007FA08C684D69B0422CD0B0F1804F17D0A6F539
S31508007FB07C46B04213D006F58066B0420FD006F56F
S31508007FC08066B0420BD01A4EB0420CD006F58066D9
S31508007FD0B04208D006F58066B04208D103E04E6884
S31508007FE023F070033343C96823F440730B4323F02B
S31508007FF080032B4303600123C462826270BC436121
S3150800800070474E6823F070033343CE6823F44073F9
S31508008010334323F080032B430360C46282620B69F7
S315080080200363012370BC4361704700BF0000014031
S315080080300040014050B310B590F83D30044603F0B7
S31508008040FF02F3B12146022384F83D3051F8040BB0
S31508008050FFF7A2FF012384F8463084F83E3084F8FF
S315080080603F3084F8403084F8413084F8423084F850
S31508008070433084F8443084F8453084F83D30002095
S3150800808010BD80F83C20FCF763FEDBE70120704753
S3150800809050B310B590F83D30044603F0FF02F3B133
S315080080A02146022384F83D3051F8040BFFF774FF8C
S315080080B0012384F8463084F83E3084F83F3084F84B
S315080080C0403084F8413084F8423084F8433084F8EC
S315080080D0443084F8453084F83D30002010BD80F8DF
S315080080E03C20FFF7F9FDDBE701207047036A23F020
S315080080F010030362036A70B4446882690D6822F447
S31508008100E64242EA05228D6823F0200343EA051376
S315080081100C4DA84206D049684460826170BC8163F0
S3150800812003627047CD6823F0800343EA0513D1E95B
S31508008130055624F44064354323F0400344EA850495
S31508008140E9E700BF0000014038B590F83C30012B44
S3150800815057D0012304460D4680F83C300C2A08D82F
S31508008160DFE802F01E0707072E0707073F0707077E
S315080081700C000120002384F83C3038BD0068FFF766
S31508008180F9FCC3692A6943F40063C361C36923F42C
S315080081908063C361C36943EA0223C3610020E9E738
S315080081A00068FFF791FC83692A6943F00803836135
S315080081B0836923F004038361836913438361EDE7CD
S315080081C00068FFF793FF83692A6943F400638361B4
S315080081D0836923F480638361836943EA02238361A5
S315080081E0DCE70068FFF79AFCC3692A6943F00803CD
S315080081F0C361C36923F00403C361C3691343C3613D
S31508008200CCE7022038BD00BF90F83C20012A2FD0C9
S3150800821003460268022030B483F83D0050680D68B2
S31508008220946820F07000284350601248824212D0A9
S31508008230B2F1804F0FD0A0F57C4082420BD000F5FA
S315080082408060824207D000F58060824203D000F544
S315080082509A30824204D1496824F080040C43946021
S315080082600020012283F83D2083F83C0030BC70478B
S31508008270022070470000014090F83C30012B23D0C3
S3150800828010B4D1E9024323F44073024623434868F5
S315080082900C6823F48063034323F4006308692343CB
S315080082A023F4805303434869CC6923F400530343FA
S315080082B023F48043106800212343436482F83C106A
S315080082C008465DF8044B704702207047704700BFA8
S315080082D0704700BF2DE9F04F11F00F081CBF08F1D9
S315080082E0FF385FFA88F80D0993B0064600F09680C5
S315080082F0013D5FFA85FA4FF4E77525FA0AF505F0A8
S3150800830001057A4F7A4A06EBC603534407EB8313F3
S315080083104FEAC6095B68934200F09780754A934214
S315080083207ED0754A934200F0B88009EB06035344A1
S3150800833007EB83131A6B714B9A4200F09380B2F1E4
S31508008340804F00F09D806E4B9A4200F0B3806D4BD3
S315080083509A4200F0BD8009EB0603534407EB8314E9
S315080083604FEA831B684BE06A33F818C00221CDE94F
S315080083700F11012100230E91C0E9002C4FF47A72E7
S31508008380C0E904338360C260FFF754FE4FF480529D
S3150800839009A9E06A0992FFF7A3FCE06AFFF778FEED
S315080083A00023089307A92023E06A0793FFF72CFF09
S315080083B0E36837F80B10227A60680E9323691193E5
S315080083C00D91FDF715FD60680DA9FDF715FC236AEB
S315080083D0A18AA0690E93227F636A0D911193FDF716
S315080083E007FDA0690DA9FDF707FCB8F1000F24D019
S315080083F0B8F1010F06D1454AA9EB060340F6082154
S3150800840022F833103DB1B144D14407EB8917D7E9B7
S315080084100A10FFF763FC13B0BDE8F08FAA4670E7B1
S315080084203B4B002205921A6B42F002021A631B6B41
S3150800843003F002030593059B77E7344AA9EB060385
S3150800844041F20E0122F83310DCE7314B0022049288
S315080084501A6B42F001021A631B6B03F001030493C3
S31508008460049B62E703F59C3300210091596C41F0A7
S31508008470010159645B6C03F001030093009B6AE7F2
S31508008480234B00210191196C41F0010119641B6C01
S3150800849003F001030193019B5DE71D4B0022069241
S315080084A01A6B42F004021A631B6B03F0040306936B
S315080084B0069B3AE703F50D3300210291196C41F04A
S315080084C0020119641B6C03F002030293029B42E744
S315080084D003F50C3300210391196C41F0040119646A
S315080084E01B6C03F004030393039B34E7640000202A
S315080084F0000002400004024000080240000001405B
S315080085000004004000080040E40D00208C0E002006
S3150800851000380240F8B5134E747D14F07F0400D07D
S31508008520F8BD01221048114D114F4FF40041FDF7D7
S315080085305FFC737D012203F07F03B27573752646CF
S315080085403B7885F8246003F00703072BE0B204F1B3
S31508008550010402D12978FFF7BDFE062C05F128058E
S31508008560EED1F8BD18170020000402402816002096
S3150800857032170020F8B5154E96F91530002B24DD74
S3150800858000221348134D144F4FF40041FDF730FCF9
S31508008590727D737C002462F07F020133B4757275B4
S315080085A0737401263B7885F8246003F00703072BCC
S315080085B0E0B204F1010404D1297801F00F01FFF7B4
S315080085C089FE062C05F12805ECD1F8BD1817002000
S315080085D0000402402816002032170020037813B141
S315080085E08278012A00D07047C278162AFBD1027910
S315080085F0022A19D0032AF6D14379012BF3D1334A3B
S3150800860000F108032C3033F802CC53F8061B9160AE
S315080086109842A2F802C002F12802F4D12C4A137833
S3150800862043F00403137070474279012A02D0022AE4
S3150800863034D0704770B5274D244AEB7400F1050E07
S3150800864000F10A0100F10B0641F27B5441F27C501D
S315080086501EF8013F137031F8023F938291F80CC05F
S3150800866082F826C003F1FF3C1FFA8CFCA44588BF9C
S31508008670034691F80DC082F827C0B645938202F1E9
S315080086802802E5D11249AB7C0A7843F0100342F080
S3150800869001020A200A70AB74288370BD0B4A031DB9
S315080086A0103033F8021FD18299891183834202F16F
S315080086B02802F6D107480649827C0B7822F0100278
S315080086C043F0020382740B70704700BF281600201F
S315080086D0321700201817002038B5284D0C46EA7CBA
S315080086E00A702B234B7016220221A170E2702B8888
S315080086F0E3800421012221716271214BE988AA884D
S315080087002181A4F8292093F89D2093F8C500A97C17
S315080087101203000400F4702092B2024393F8250075
S3150800872000F00F00024493F8ED00000500F4700015
S31508008730090601F0F85102440A4493F8750093F8C3
S315080087404D100002090100F47060C9B201430A44E1
S31508008750C4F8162004F1140004F10802598A22F814
S31508008760021F99881182904203F12803F6D12B2122
S31508008770204601F0B3F884F82B0038BD18170020FE
S315080087802816002038B50F4D2B7813F0080018D09E
S31508008790002400E02B7803F00703072B20464FF050
S315080087A0110101D1FFF796FD0134E4B2062CF1D18F
S315080087B0054B197C9A7C0120014442F00802197481
S315080087C09A7438BD321700201817002010B50D4BC3
S315080087D00D48DA7C0D490E4C0023C0E90041120110
S315080087E04FF48041C0E90232C0E90413C0E90633F8
S315080087F00362FDF70BFB00B910BDBDE81040FCF79E
S3150800880007B900BF1817002040130020E0930400A2
S3150800881000580040084B094941F27C52002048752F
S315080088209A829A87A3F86420A3F88C20A3F8B42028
S31508008830A3F8DC20704700BF281600201817002070
S315080088402DE9F0473A4E3378072B84B002D004B0AE
S31508008850BDE8F087FFF7BAFF4FF0000ADFF8E480BB
S31508008860344CDFF8E490344D574607EB0A0308EB1F
S31508008870831301205A6B6946CDE90020022320465E
S315080088800293FCF7ADFE2046FCF7E0FD4FF4FA71C3
S315080088902046FCF74BFE78B32B780133DBB2052B69
S315080088A02B70E2D904220123CDE90023694602236D
S315080088B020480293FCF794FE1E48FCF7C7FD1D48A6
S315080088C04FF4FA71FCF732FE28B333781B4D0024B7
S315080088D003F00702072A04D12978E0B2FFF7FAFC69
S315080088E033780134062C05F12805F1D143F0080345
S315080088F0337004B0BDE8F0872046FCF76DFE29F812
S315080089001A000AF1010A5FFA8AFABAF1060FC9D003
S315080089104FEACA07A9E70748FCF75EFE6FF4FA6351
S3150800892080B2C318B3F5957F9CBF054B1880CCE77A
S31508008930321700205010002022160020281600208A
S315080089400E00002064000020100000202DE9F04FE2
S31508008950DFF8F08298F80030180783B040F13181CB
S31508008960B14DDFF8E4922C464F46002623781B09C2
S3150800897015D094F824105A1E0129D2B20CD0023B05
S31508008980072B0CD8DFE813F020012001200138015D
S3150800899038017C010B009A01062A00F08E82013606
S315080089A0062E04F1280407F51077DFD19F4E737C55
S315080089B00E2B00F2F782F188338901F1190292B27F
S315080089C0AF2A40F24381B3F5FA7F40F2A982737D5C
S315080089D04FF47A7243F0010373753281FFF7CAFDCB
S315080089E0002293484FF48041FDF702FAB37C002237
S315080089F043F00103F275B3748E4CB2882388002BBA
S31508008A0000F0B281013B9BB2B2F5FA5F238000F217
S31508008A10A682B2F5FA5F0BD0FFF7ACFD737D43F083
S31508008A20020373754FF47A732380834B00221A70FE
S31508008A307D4CDFF80CB2002742F2283A44F250691E
S31508008A400FE0524212B2934211DB94F8253013F02C
S31508008A50010240F0CD81A2830137062F04F12804D4
S31508008A6037D0B4F91030A28A9342F8B2E9DD5344FC
S31508008A709AB24A45A38B02D9FA339BB2A38340F62E
S31508008A80B732934240F2948198F8003003F0070316
S31508008A900122072B84F8242004D1217801F00F0144
S31508008AA0FFF718FC94F8253043F0010384F82530C5
S31508008AB0737C013373744FF4FA53A383013700238D
S31508008AC0ABF80030062F4FF00103337504F1280484
S31508008AD0C7D10027544CB9464FF0010A0FE0228C43
S31508008AE0531C9BB2052A238400F26B81628C9A423E
S31508008AF000D263840137062F04F128040AD0E38BD9
S31508008B00B3F52F6FEBD80137062FA4F8209004F1A0
S31508008B102804F4D10023494FC6F80A301C461846E3
S31508008B209C46194605E02835BD4299B24FF0010C1E
S31508008B300DD0B5F910309AB2002B02EB0103F2DC26
S31508008B402835801ABD4280B24FF00104F1D104B134
S31508008B50B081BCF1000F00F0628143F69823994278
S31508008B60718140F25C8146F2A813994240F26B810A
S31508008B70F3891E339BB240F6B732591C9342F181F2
S31508008B8000F26F81B37C327D43F00403B3746AB993
S31508008B902B490B884EF65F20834240F2DD81737CB9
S31508008BA00A80013BDBB20D2B98BF7374B6F900300F
S31508008BB05A2B00F36E81B27C920702D53B2B40F309
S31508008BC0DC8103B0BDE8F08F06EBC603134409EB5E
S31508008BD08313D3E90A3162880968B2F57A7F80F08F
S31508008BE09381002B00F0D481042B00F02482082BFB
S31508008BF00CBFCA630A64D2E606EBC60313449A019D
S31508008C0009EB831339F8021062885868002A40F085
S31508008C107781FDF7EDF80136062E04F1280407F5ED
S31508008C2010777FF4A3AEC1E6281600201817002097
S31508008C30000402401E1600201D16002018170020EA
S31508008C40261600203217002064000020002B7ED153
S31508008C50BA4801224FF48041FDF7CAF83489012346
S31508008C60F375002C7FF4C8AE737DD9077FF5C4AEC3
S31508008C7023F001037375FFF74DFCB4743481BBE62A
S31508008C80D7F8AC31D7F8A82119686388002B40F0CB
S31508008C9020816383A380002A00F07A81042A00F0E9
S31508008CA08A81082A00F03A810136062E0B6404F1FF
S31508008CB0280407F510777FF459AE77E694F826105E
S31508008CC0DFF890A2CDF800A00223019394F827209C
S31508008CD09B4809010123FDF761F99A49E28ABAF826
S31508008CE00030A1FB021261885209CB1A02FB03F37A
S31508008CF007EE903A238B07EE103AF8EEE77AB8EECD
S31508008D00C77A77EE277AF5EEC07AF1EE10FA3DDDEE
S31508008D1000293BD0D7F82C32D7F828221968FCEE60
S31508008D20E77A17EE903A9BB2B3F57A7FC0F0E48003
S31508008D30002A40F0718140F2E9330136062E4B6372
S31508008D4004F1280407F510777FF410AE2EE6013BF0
S31508008D509BB2B3F5C87F3381FFF47AAF7A4CB288F9
S31508008D602388002B7FF44EAEB2F5FA5F7FF651AE3C
S31508008D70764C2378002B7FF45BAE737D23F00203D9
S31508008D807375FFF7C7FB0123237051E6D7F82C321A
S31508008D901A68D7F82832002B00F0E580042B00F07B
S31508008DA04781082B4FF000030CBFD3631364F6E525
S31508008DB001339BB240F6B8329342A3837FF44CAE9C
S31508008DC062E698F8003084F824A003F00703072B1E
S31508008DD005D12178F8B201F00F01FFF77BFA94F874
S31508008DE02530A4F8209043F0020384F8253081E664
S31508008DF0A28B002A5AD1727C0E2A3FF62DAE98F81D
S31508008E00002002F00702072A00F0008123F0010380
S31508008E1084F825300023A38384F824301CE6B3891C
S31508008E2043F6982293420FD8B37C13F0040300F05C
S31508008E30D280F389002B40F0E280737C0E2B40F23F
S31508008E40FE80327DA3E6B38946F2A81293423FF626
S31508008E508FAEF38940F6B732591C9342F1817FF6FB
S31508008E6091AE737D43F008037375FFF783FBB37CFC
S31508008E70374A43F00403B374B6F90030002141F2CF
S31508008E80883011805A2B4FF00102F08132757FF736
S31508008E9092AE737D43F020037375FFF76BFBB37CCB
S31508008EA043F00203B37403B0BDE8F08F013A92B2FF
S31508008EB0A283002A7FF4D0AD9DE701360023062E53
S31508008EC06383A38007F5107704F128047FF44EAD79
S31508008ED06CE5608BB4F818C084456ED90130E38A16
S31508008EE06083B4F910009842A3887EDB04DD012B69
S31508008EF002D9013B9BB2A380002A7FF4CFAE1CE7C0
S31508008F000122FCF775FF86E6002B3FF414AF042B0D
S31508008F104FD0082B40F2E9337FF4C6AECB633EE56B
S31508008F2001339BB2B3F5FA7F3381BFF450AD2831D4
S31508008F3089B2F0297FF660AD49E500BF000402401A
S31508008F40401300201F85EB511E1600201D16002019
S31508008F50261600202016002001330B8026E6002B5B
S31508008F607FF466AD04E70136062E536304F1280440
S31508008F7007F510777FF4FAAC18E5FFF7CBFA727DA0
S31508008F80B37C22F0200223F002037275B37418E64C
S31508008F900136062E4A6304F1280407F510777FF494
S31508008FA0E5AC03E5737D43F040037375FFF7E2FA1A
S31508008FB001E540F2E9338B63F1E4B4F910C0A08807
S31508008FC09C450BDB04DD012802D9013880B2A0805C
S31508008FD03ABB4863E3E4327DF381D8E5B0F57A7F9E
S31508008FE0F6D8023080B2A080F2E7B3F57A7F83D84C
S31508008FF002339BB2A380002A7FF450AE9DE6013B64
S315080090009BB2F381002B7FF41CAF16E72178FFF79C
S3150800901061F994F82530F9E6042ACAD040F2E93312
S315080090203FE6042A09D0082A0CBFC8630864B6E4D8
S3150800903000239363B3E48A63B1E48863AFE4737D82
S3150800904023F008037375FFF765FAB37C327D23F0C6
S315080090500403B3749BE500BF1E4B1B781B0730D572
S3150800906070B51D4C1D4D04F1F00604E02834B442D9
S3150800907005F5107524D094F82430012BF6D0237802
S315080090801B09082BF2D16288B2F5FA7F4FF0640308
S3150800909004D8BAB14CF25033B3FBF2F3E268511C70
S315080090A09A42E160E2D9B5F8D411D5F8D801FCF7AF
S315080090B0A3FE0023E3602834B44205F51075DAD11F
S315080090C070BD7047B5F8D411D5F8D801FCF790FEF5
S315080090D0CCE700BF321700202816002064000020C5
S315080090E02DE9F047DFF8F492DFF8F4A2A94E86B02E
S315080090F04C46554609F1F008012717E0AB6B049773
S31508009100CDE90237FCF76CFA3046FCF79FF94FF4C5
S31508009110FA713046FCF70AFA18B93046FCF75CFAD9
S31508009120E0832834A04505F510750CD094F8243052
S31508009130012B02A93046E1D1002323612834A0453A
S3150800914005F51075F2D1012302A90F22914804935F
S31508009150CDE90223FCF744FA8E48FCF777F98D48E7
S315080091604FF4FA71FCF7E2F910BB8B4B1A78012A17
S3150800917000F0EB808748894CFCF72EFA07EE100AB8
S31508009180DFED877ADFED876AB8EE477AB2EE046AD2
S3150800919027EE277A2046C7EE067A67EEA67AFCEE11
S315080091A0E77A17EE903A99B200F0AEFA002865D041
S315080091B0012302A9042277480493CDE90223FCF788
S315080091C00FFA7448FCF742F972484FF4FA71FCF743
S315080091D0ADF970B9744B1A78012A00F0B1806D4860
S315080091E0FCF7FAF9714A724B128880B21883801A12
S315080091F0D880012302A9062266480493CDE90223F2
S31508009200FCF7EEF96348FCF721F962484FF4FA7166
S31508009210FCF78CF9002835D0664B1B7818072AD539
S31508009220654C237803EB8302D00019F8321009073E
S3150800923009EBC20219D092F82420012A7BD003EB4D
S31508009240C3030AEB831302A95B6B029351480123FC
S315080092500493FCF7C5F94F48FCF7F8F84D484FF466
S31508009260FA71FCF763F9237828B3042B9ABF013304
S31508009270DBB20023237006B0BDE8F0874C4B62884A
S315080092809A8095E743484A4C4C4DFCF7A5F94C4A59
S315080092904C4983B21380B4F9002000924A4811223F
S315080092A000F092FA81B2284600F02EFA0028B3D1CF
S315080092B06B882380B0E7454E3648C3EBC30306EBFD
S315080092C0C305FCF789F981B2284600F01DFA237810
S315080092D00028CAD103EBC3010AEB811AC3EBC30109
S315080092E09AF83C503A4A06EBC106012D32F813208B
S315080092F071882FD0521A07EE902A9FED297A9FED92
S31508009300356AF8EEE77A67EE877A9FED337AC7EE25
S31508009310866AC6EE877AFDEEE77A17EE902A12B2CB
S3150800932062F30F0062F31F4003EB830209EBC209E5
S31508009330C9F8100099E71030002249F8002094E790
S3150800934018701448FCF748F953E718701148FCF7E9
S3150800935043F92DE78A1A07EE902A9FED117A9FEDB9
S315080093601D6AF8EEE77A67EE877A9FED1B7AC7EEF5
S31508009370866AC6EE877AFDEEE77A17EE902A12B26B
S3150800938062F30F0062F31F4003EB830209EBC2028C
S3150800939010616AE7501000200D0000201C0E002006
S315080093A0E54C4E3F0000DC420C0000200E00002079
S315080093B018170020321700201C160020540E002013
S315080093C0241600201C000020400000208C0E0020DF
S315080093D010000020000048420AD7233B2816002028
S315080093E06400002010B50D4C2046FEF737FA2046DB
S315080093F0FEF720FA23689B681B0600D510BD0848AF
S315080094004FF40041FCF7EEFC0028F7D02046054A49
S315080094100549BDE810402C23FEF786B958140020EC
S315080094200000024054170020881700202DE98848BC
S31508009430414CDFF82881414F414EDFF82491414DD8
S31508009440DFF814B1DFF81CA14EE03388B3F57A7F54
S315080094503CBF01333380012A03D13388B3F5167F25
S3150800946055D899F80030002B3BD028882288B5F8C3
S3150800947002C0688083183448A5F804C06344A0FB7A
S3150800948003035B08D81E0021824231802A803B8074
S3150800949004DB03339A42CCBF00210121002388F85C
S315080094A00010238089F8003001224FF400515046FD
S315080094B0FCF79EFCDBF800309B681B060BD42348A0
S315080094C04FF40041FCF78EFC28B1214A2149224875
S315080094D02C23FEF729F900224FF400515046FCF7D9
S315080094E087FC012000F03EFA2388398898F8002086
S315080094F001339BB205398B422380A6D1012A16D0A7
