S017000032302D32302D332D352D302D302D312E7372656342
S3150800400000000120915000081D4E0008254E0008AA
S315080040102D4E0008354E00083D4E000800000000F1
S31508004020000000000000000000000000A1AD00082C
S31508004030454E000800000000F1AF000859B000081E
S31508004040E1500008E1500008E1500008E15000087E
S31508004050E1500008E1500008E1500008E15000086E
S31508004060E1500008E1500008E1500008E15000085E
S31508004070E1500008E1500008E1500008E15000084E
S31508004080E1500008E1500008E15000080000000077
S31508004090000000000000000000000000E1500008D9
S315080040A0E1500008554E0008714E0008E15000081E
S315080040B0E1500008E1500008E1500008E15000080E
S315080040C0E1500008E1500008E1500008E1500008FE
S315080040D0E1500008E1500008E15000080000000027
S315080040E0E1500008E1500008E15000080000000017
S315080040F0000000000000000000000000E150000879
S3150800410000000000E1500008E1500008E1500008F6
S315080041100000000000000000000000000000000091
S315080041208D4E0008E1500008E1500008A14E000835
S31508004130E150000800000000000000000000000038
S31508004140000000000000000000000000E150000828
S31508004150E1500008E1500008E1500008E15000086D
S31508004160E1500008E15000080000000000000000CF
S315080041700000000000000000000000000000000031
S3150800418000000000E15000080000000000000000E8
S31508004190E1500008000000000000000000000000D8
S315080041A00000000000000000000000000000000001
S315080041B000000000000000000000000000000000F1
S315080041C000000000000000000000000000000000E1
S315080041D00000000000000000FFFFFFFFEE11AA55D7
S315080041E010B5054C237833B9044B13B10448AFF323
S315080041F000800123237010BD8C07002000000000FA
S3150800420098B6000808B5034B1BB103490348AFF33A
S31508004210008008BD000000009007002098B600083E
S3150800422053B94AB9002908BF00281CBF4FF0FF310F
S315080042304FF0FF3000F088B9ADF1080C6DE904CEF7
S3150800424000F006F8DDF804E0DDE9022304B0704763
S315080042502DE9F047089D8E4604468846002B4AD12C
S315080042608A42174662D9B2FA82F64EB1C6F12003DF
S3150800427001FA06F820FA03F3B74043EA0808B440FF
S315080042804FEA174E1FFA87FCB8FBFEF1230C0EFB0C
S31508004290118843EA084301FB0CF29A4209D9FB1834
S315080042A001F1FF3080F0EA809A4240F2E780023955
S315080042B03B449A1AA3B2B2FBFEF00EFB102243EA65
S315080042C0024300FB0CFC9C4509D9FB1800F1FF32A0
S315080042D080F0D6809C4540F2D3803B44023840EAC1
S315080042E00140A3EB0C0300211DB1F3400022C5E9F0
S315080042F00032BDE8F0878B4205D90DB1C5E900014A
S3150800430000210846F5E7B3FA83F1002946D173453B
S3150800431002D3824200F20581841A6EEB0302012061
S315080043209046002DE5D0C5E90048E2E7002A00F0EE
S315080043309080B2FA82F6002E40F0A4808A1A030C06
S315080043404FEA174E80B2BCB20121B2FBFEFC0EFB4F
S315080043501C2243EA024304FB0CF29A4207D9FB18D3
S315080043600CF1FF3802D29A4200F2E080C4469B1A4A
S31508004370B3FBFEF20EFB123340EA034302FB04F4DE
S315080043809C4207D9FB1802F1FF3002D29C4200F288
S31508004390CA8002461B1B42EA0C40A5E7C1F120066B
S315080043A08B4022FA06F71F430EFA01F420FA06F3A9
S315080043B02EFA06FE4FEA1749234300FA01F81FFAB8
S315080043C087FCBEFBF9F01C0C09FB10EE44EA0E4410
S315080043D000FB0CFEA64502FA01F209D93C1900F1C8
S315080043E0FF3A80F09C80A64540F2998002383C440A
S315080043F0A4EB0E041FFA83FEB4FBF9F309FB13447E
S315080044004EEA044403FB0CFCA44508D93C1903F105
S31508004410FF3E80F08280A4457FD9023B3C4443EAB4
S315080044200040A4EB0C04A0FB02EC64457346E1468D
S3150800443062D35FD05DB1B8EB030264EB090404FAFA
S3150800444006F622FA01F31E43CC40C5E900640021B2
S315080044504FE7B1FBF2FC010C41EA0E4180B240EA9B
S3150800446001423B4638463C46B846BE462026B1FB86
S31508004470F7F1A2EB080241EA0C4166E7014618E7A4
S3150800448010462CE7C6F120022EFA02F3B740B140D7
S3150800449020FA02F24FEA174E0A43B3FBFEF8BCB203
S315080044A00EFB1833110C41EA034108FB04F9B0402E
S315080044B089454FEA104380B23ED9791808F1FF3C86
S315080044C001D289451FD8A1EB0901B1FBFEF909FB09
S315080044D004F80EFB191192B242EA0142424529D26A
S315080044E0BA1809F1FF31C4D24245C2D2A9F1020174
S315080044F03A44BEE7F0459DD2BEEB02036CEB070CCF
S315080045000138E14696E7A7EB09094944A8F1020CE8
S31508004510B1FBFEF909FB04F8DBE773467FE7504673
S3150800452066E70846FDE63B44023A33E7ACF1020C7F
S315080045303B441CE749469CE7A1EB0901C446B1FB8D
S31508004540FEF909FB04F8C4E7704700BF80B584B0DC
S3150800455000AF3B4600221A605A609A60DA60214B27
S31508004560214A1A601F4B4FF480325A601D4B0022B5
S315080045709A601C4B00221A611A4B00221A76194BB4
S31508004580002283F82020174B0022DA62154B174ABF
S315080045909A62144B0022DA60124B0122DA61114B3F
S315080045A0002283F830200F4B01225A610D4800F093
S315080045B0DBFD0346002B01D000F08CFA06233B6096
S315080045C001237B600023BB603B461946054800F083
S315080045D05BFF0346002B01D000F07CFA00BF1037C2
S315080045E0BD4680BDA8070020002001400100000F3D
S315080045F080B58AB000AF786007F1140300221A600C
S315080046005A609A60DA601A617B681B68244A93428A
S3150800461041D100233B61234B5B6C224A43F48073F0
S315080046205364204B5B6C03F480733B613B69002346
S31508004630FB601C4B1B6B1B4A43F004031363194BAB
S315080046401B6B03F00403FB60FB680023BB60154B80
S315080046501B6B144A43F001031363124B1B6B03F0E5
S315080046600103BB60BB682A237B610323BB6100236C
S31508004670FB6107F1140319460B4801F0E5FD4023D9
S315080046807B610323BB610023FB6107F11403194611
S31508004690064801F0D9FD00BF2837BD4680BD00BFDA
S315080046A00020014000380240000802400000024095
S315080046B080B582B000AF00237B60104B1B6B0F4A9E
S315080046C043F4800313630D4B1B6B03F480037B6079
S315080046D07B6800220521382001F0ACF9382001F06A
S315080046E0C5F9002205213B2001F0A4F93B2001F081
S315080046F0BDF900BF0837BD4680BD00BF003802407F
S3150800470080B485B000AFF860B9607A60FB68074A84
S315080047101A60BB68064A1A607B6880221A6000BF66
S315080047201437BD465DF8047B704700BFF8070020C4
S3150800473098080020B0B58EB000AF144B07F11C04E2
S315080047401D460FCD0FC495E8070084E8070007F15A
S315080047501C030021184605F044FC03460C4A136066
S315080047600C4B3C461D460FCD0FC495E8070084E860
S3150800477007003B460021184605F033FC0346064A67
S31508004780136000BF3837BD46B0BD00BFBCB60008D1
S31508004790F0070020E4B60008F407002080B582B0D0
S315080047A000AF786004F05EF804F0E0F804F0A2FACE
S315080047B0012005F062FC00BFF6E780B582B000AFC5
S315080047C0786004F033FC012005F057FC00BFF8E7D9
S315080047D080B58AB000AF07F1140300221A605A6048
S315080047E09A60DA601A6100233B61624B1B6B614A6F
S315080047F043F0040313635F4B1B6B03F004033B6135
S315080048003B690023FB605B4B1B6B5A4A43F08003F2
S315080048101363584B1B6B03F08003FB60FB68002394
S31508004820BB60544B1B6B534A43F001031363514B54
S315080048301B6B03F00103BB60BB6800237B604D4B19
S315080048401B6B4C4A43F0020313634A4B1B6B03F082
S3150800485002037B607B6800224FF40051464801F052
S315080048608FFE00224FF40051444801F089FE4FF4B0
S3150800487000537B610123BB610023FB6100233B627C
S3150800488007F1140319463C4801F0DEFC00224FF4F8
S315080048900071394801F074FE4FF400737B610123FF
S315080048A0BB610023FB6100233B6207F11403194631
S315080048B0314801F0C9FC00224FF40071304801F07C
S315080048C05FFE4FF400737B610123BB610023FB612C
S315080048D000233B6207F114031946294801F0B4FC8A
S315080048E095237B610023BB610023FB6107F1140359
S315080048F01946214801F0A8FC4FF408637B610023A0
S31508004900BB610023FB6107F1140319461C4801F03B
S315080049109BFC4DF203037B610023BB610023FB6113
S3150800492007F114031946154801F08EFC4FF480630D
S315080049307B611223BB610023FB6103233B620423D3
S315080049407B6207F1140319460C4801F07DFC4FF40D
S3150800495000537B610123BB610023FB6100233B629B
S3150800496007F114031946054801F06EFC00BF283705
S31508004970BD4680BD003802400008024000040240DF
S315080049800000024080B500AF00F0ACFB00F012F862
S31508004990FFF71EFFFFF78CFEFFF7D8FD00F0A2F821
S315080049A000F09AFA04F046FFFFF7C4FE05F012FB82
S315080049B000BFFDE780B594B000AF07F120033022B1
S315080049C00021184606F086FD07F10C0300221A603E
S315080049D05A609A60DA601A610023BB60294B1B6C27
S315080049E0284A43F080531364264B1B6C03F080530C
S315080049F0BB60BB6800237B60234B1B6823F44043E2
S31508004A00214A43F4004313601F4B1B6803F44043D9
S31508004A107B607B6809233B624FF480337B6201230A
S31508004A207B630223BB634FF48003FB6306233B646B
S31508004A3054237B640223BB640423FB6407F120032D
S31508004A40184601F0B7FD0346002B01D000F042F8E6
S31508004A500F23FB6002233B6100237B614FF48053E5
S31508004A60BB610023FB6107F10C030221184602F023
S31508004A7019F80346002B01D000F02CF800BF503778
S31508004A80BD4680BD003802400070004080B582B047
S31508004A9000AF78607B681B68044A934201D104F032
S31508004AA02BFF00BF0837BD4680BD00BF0030014060
S31508004AB080B582B000AF78607B681B68044A934271
S31508004AC001D100F031FB00BF0837BD4680BD00BFED
S31508004AD00048014080B400AF00BFBD465DF8047BC6
S31508004AE07047000080B500AF154B164A1A60144B84
S31508004AF000225A60124B00229A60114B0022DA609B
S31508004B000F4B00221A610E4B00225A610C4B0022F1
S31508004B109A610B4B00221A62094B00225A62084B13
S31508004B2000229A62064B0A22DA62054802F0B8F9B0
S31508004B300346002B01D0FFF7CDFF00BF80BD00BFA5
S31508004B40980A00200030014080B58AB000AF78602E
S31508004B5007F1140300221A605A609A60DA601A6133
S31508004B607B681B68564A934240F0A68000233B6147
S31508004B70544B5B6C534A43F480535364514B5B6C00
S31508004B8003F480533B613B690023FB604D4B1B6B71
S31508004B904C4A43F0010313634A4B1B6B03F00103B2
S31508004BA0FB60FB680023BB60464B1B6B454A43F022
S31508004BB002031363434B1B6B03F00203BB60BB6822
S31508004BC030237B610223BB610023FB6103233B6225
S31508004BD005237B6207F1140319463B4801F034FBB1
S31508004BE030237B610223BB610023FB6103233B6205
S31508004BF005237B6207F114031946344801F024FBA8
S31508004C00334B344A1A60324B4FF0C0625A60304B0D
S31508004C1000229A602E4B0022DA602D4B4FF48062F8
S31508004C201A612B4B00225A61294B00229A61284BA4
S31508004C300022DA61264B00221A62254B00225A62AC
S31508004C40234800F021FF0346002B01D0FFF742FF5F
S31508004C507B681F4ADA641E4A7B6893631E4B1F4AA9
S31508004C601A601D4B4FF0C0625A601B4B40229A6077
S31508004C70194B0022DA60184B4FF480621A61164B02
S31508004C8000225A61144B00229A61134B0022DA6102
S31508004C90114B00221A62104B00225A620E4800F08D
S31508004CA0F3FE0346002B01D0FFF714FF7B680A4A80
S31508004CB09A64094A7B68936300BF2837BD4680BD5E
S31508004CC00030014000380240000002400004024063
S31508004CD0F00A002010640240500B0020586402407D
S31508004CE080B582B000AF00237B60124B5B6C114A23
S31508004CF043F4804353640F4B5B6C03F480437B603F
S31508004D007B6800233B600B4B1B6C0A4A43F08053BD
S31508004D101364084B1B6C03F080533B603B6800220E
S31508004D200F216FF0010000F085FE00BF0837BD4671
S31508004D3080BD00BF0038024080B58CB000AF7860F7
S31508004D400023BB6200237B620023BB602E4B5B6C97
S31508004D502D4A43F4802353642B4B5B6C03F4802366
S31508004D60BB60BB6807F10C0207F110031146184631
S31508004D7002F064F802F04EF8B862BB6A234AA2FB56
S31508004D8003239B0C013B7B62214B224A1A60204B72
S31508004D9040F2E732DA601E4A7B6A53601C4B0022F7
S31508004DA01A611B4B00229A60194B00229A61184817
S31508004DB002F094FC034687F82F3097F82F30002B23
S31508004DC01BD1134802F0DAFC034687F82F3097F810
S31508004DD02F30002B11D11A2000F048FE7B680F2BCC
S31508004DE008D8002279681A2000F024FE0A4A7B684F
S31508004DF0136002E0012387F82F3097F82F30184602
S31508004E003037BD4680BD00BF0038024083DE1B43F5
S31508004E10B00B0020004801400400002080B400AF19
S31508004E2000BFFDE780B400AF00BFFDE780B400AF68
S31508004E3000BFFDE780B400AF00BFFDE780B400AF58
S31508004E4000BFFDE780B400AF00BFBD465DF8047B38
S31508004E507047000080B500AF034802F0F1FD034833
S31508004E6002F0EEFD00BF80BDF80B0020600D0020AB
S31508004E7080B500AF034802F0E3FD034802F0E0FD09
S31508004E8000BF80BDF80B0020B00B002080B500AF36
S31508004E90024800F06FFF00BF80BD00BFF00A002087
S31508004EA080B500AF024800F065FF00BF80BD00BFB7
S31508004EB0500B002080B400AF064BD3F88830054A63
S31508004EC043F47003C2F8883000BFBD465DF8047B22
S31508004ED0704700BF00ED00E080B500AF124B134AE3
S31508004EE01A60114B00225A600F4B00229A600E4B33
S31508004EF040F29F12DA600C4B00221A610A4B00221C
S31508004F009A61094802F0EAFB0346002B01D0FFF735
S31508004F10E1FD054802F032FC0346002B01D0FFF7FD
S31508004F20D9FD00BF80BD00BF600D002000440140D0
S31508004F3080B586B000AF78607B681B682A4A9342C2
S31508004F401ED100237B61294B5B6C284A43F0010381
S31508004F505364264B5B6C03F001037B617B6900227B
S31508004F600521192000F066FD192000F07FFD0022BA
S31508004F7000211A2000F05EFD1A2000F077FD2EE0D1
S31508004F807B681B681A4A93420ED100233B61174B74
S31508004F901B6C164A43F002031364144B1B6C03F094
S31508004FA002033B613B691AE07B681B68114A93421E
S31508004FB015D10023FB600D4B5B6C0C4A43F40033A0
S31508004FC053640A4B5B6C03F40033FB60FB680022F6
S31508004FD00521192000F02EFD192000F047FD00BF1D
S31508004FE01837BD4680BD00BF0000014000380240AA
S31508004FF0000400400044014080B487B000AF7860E8
S315080050007B681B68B3F1804F0ED100237B611D4B73
S315080050101B6C1C4A43F0010313641A4B1B6C03F008
S3150800502001037B617B6926E07B681B68164A93420D
S315080050300ED100233B61134B1B6C124A43F0040349
S315080050401364104B1B6C03F004033B613B6912E0CD
S315080050507B681B680D4A93420DD10023FB60094B00
S315080050601B6C084A43F008031364064B1B6C03F0D9
S315080050700803FB60FB6800BF1C37BD465DF8047B70
S31508005080704700BF0038024000080040000C00408E
S31508005090DFF834D00D480E490E4A002302E0D458F2
S315080050A0C4500433C4188C42F9D30B4A0B4C002362
S315080050B001E013600432A242FBD3FFF7FBFE06F0C1
S315080050C06FFAFFF75FFC7047000001200000002020
S315080050D08C0700206CB700088C070020F04D0020D4
S315080050E0FEE7000080B500AF0E4B1B680D4A43F47F
S315080050F0007313600B4B1B680A4A43F48063136002
S31508005100084B1B68074A43F480731360032000F0BA
S3150800511086FC0020FFF710FEFFF7E2FD0023184685
S3150800512080BD00BF003C024080B400AF064B1B7830
S315080051301A46064B1B681344044A136000BFBD4653
S315080051405DF8047B704700BF08000020A80D00200A
S3150800515080B400AF034B1B681846BD465DF8047B58
S31508005160704700BFA80D002080B584B000AF7860F6
S315080051700023FB737B68002B01D1012333E07B6896
S315080051801B6C002B09D17868FFF732FA7B6800227E
S315080051905A647B68002283F83C207B681B6C03F00A
S315080051A01003002B18D17B681B6C23F4885323F05B
S315080051B0020343F002027B681A64786800F086FAF4
S315080051C07B6800225A647B681B6C23F0030343F058
S315080051D001027B681A6401E00123FB737B680022E5
S315080051E083F83C20FB7B18461037BD4680BD00007F
S315080051F080B485B000AF78600023BB607B6893F805
S315080052003C30012B01D1022397E07B68012283F809
S315080052103C207B681B689B6803F00103012B18D0B0
S315080052207B681B689A687B681B6842F001029A6073
S31508005230454B1B68454AA2FB03239A0C13465B00A1
S315080052401344BB6002E0BB68013BBB60BB68002B34
S31508005250F9D17B681B689B6803F00103012B5FD1BA
S315080052607B681B6C23F4E06323F0010343F480722C
S315080052707B681A647B681B685B6803F48063002B91
S3150800528007D07B681B6C23F4405343F480527B6839
S315080052901A647B681B6C03F48053B3F5805F06D1F0
S315080052A07B685B6C23F006027B685A6402E07B68C5
S315080052B000225A647B68002283F83C20244BFB605A
S315080052C07B681B686FF022021A60FB685B6803F054
S315080052D01F03002B0FD17B681B689B6803F04053A4
S315080052E0002B29D17B681B689A687B681B6842F08B
S315080052F080429A6020E07B681B68164A93421BD15D
S315080053007B681B689B6803F04053002B14D17B68AD
S315080053101B689A687B681B6842F080429A600BE0BB
S315080053207B681B6C43F010027B681A647B685B6CB5
S3150800533043F001027B685A64002318461437BD46B9
S315080053405DF8047B704700BF0000002083DE1B4326
S31508005350002301400020014080B584B000AF78608A
S3150800536039600023FB607B681B689B6803F48063D5
S31508005370B3F5806F13D17B681B689B6803F4807351
S31508005380B3F5807F0BD17B681B6C43F020027B68EA
S315080053901A647B68002283F83C20012363E0FFF748
S315080053A0D7FEF86021E03B68B3F1FF3F1DD03B68AC
S315080053B0002B07D0FFF7CCFE0246FB68D31A3A68E3
S315080053C09A4212D27B681B681B6803F00203022B01
S315080053D00BD07B681B6C43F004027B681A647B68FD
S315080053E0002283F83C2003233DE07B681B681B688A
S315080053F003F00203022BD6D17B681B686FF01202FA
S315080054001A607B681B6C43F400727B681A647B68BD
S315080054101B689B6803F04053002B23D17B681B7ED7
S31508005420002B1FD17B681B68DB6A03F47003002B13
S3150800543006D07B681B689B6803F48063002B11D138
S315080054407B681B6C23F480727B681A647B681B6C10
S3150800545003F48053002B05D17B681B6C43F00102D3
S315080054607B681A64002318461037BD4680BD80B491
S3150800547083B000AF78607B681B68DB6C18460C3716
S31508005480BD465DF8047B704780B485B000AF786090
S3150800549039600023BB607B6893F83C30012B01D14F
S315080054A0022305E17B68012283F83C203B681B68E0
S315080054B0092B25D97B681B68D9683B681B689BB292
S315080054C01A4613465B0013441E3B072202FA03F3EF
S315080054D0DA437B681B680A40DA607B681B68D96810
S315080054E03B689A683B681B689BB2184603465B0094
S315080054F003441E3B9A407B681B680A43DA6022E035
S315080055007B681B6819693B681B689BB21A46134679
S315080055105B001344072202FA03F3DA437B681B682D
S315080055200A401A617B681B6819693B689A683B6878
S315080055301B689BB2184603465B0003449A407B6887
S315080055401B680A431A613B685B68062B24D87B688C
S315080055501B68596B3B685A6813469B001344053B06
S315080055601F2202FA03F3DA437B681B680A405A6370
S315080055707B681B68596B3B681B689BB218463B687F
S315080055805A6813469B001344053B00FA03F27B68EE
S315080055901B680A435A634CE03B685B680C2B24D8AB
S315080055A07B681B68196B3B685A6813469B00134453
S315080055B0233B1F2202FA03F3DA437B681B680A407F
S315080055C01A637B681B68196B3B681B689BB2184695
S315080055D03B685A6813469B001344233B00FA03F2C0
S315080055E07B681B680A431A6323E07B681B68D96AD1
S315080055F03B685A6813469B001344413B1F2202FA34
S3150800560003F3DA437B681B680A40DA627B681B6827
S31508005610D96A3B681B689BB218463B685A681346AA
S315080056209B001344413B00FA03F27B681B680A435C
S31508005630DA62224BFB607B681B68214A934209D1D8
S315080056403B681B68122B05D1FB685B6843F4800234
S31508005650FB685A607B681B68194A934223D13B68EA
S315080056601B68102B03D03B681B68112B1BD1FB68EA
S315080056705B6843F40002FB685A603B681B68102BA2
S3150800568011D1104B1B68104AA2FB03239A0C134630
S315080056909B0013445B00BB6002E0BB68013BBB6038
S315080056A0BB68002BF9D17B68002283F83C200023D5
S315080056B018461437BD465DF8047B70470023014041
S315080056C0002001400000002083DE1B4380B485B023
S315080056D000AF7860794BFB60FB685B6823F4403267
S315080056E0FB685A60FB685A687B685B681A43FB6804
S315080056F05A607B681B685A687B681B6822F480724C
S315080057005A607B681B6859687B681B691A027B6844
S315080057101B680A435A607B681B685A687B681B6863
S3150800572022F040725A607B681B6859687B689A68E1
S315080057307B681B680A435A607B681B689A687B68A3
S315080057401B6822F400629A607B681B6899687B680C
S31508005750DA687B681B680A439A607B689B6A584AC2
S31508005760934222D07B681B689A687B681B6822F084
S3150800577070629A607B681B6899687B689A6A7B681E
S315080057801B680A439A607B681B689A687B681B6873
S3150800579022F040529A607B681B6899687B68DA6ACF
S315080057A07B681B680A439A600FE07B681B689A68E7
S315080057B07B681B6822F070629A607B681B689A682F
S315080057C07B681B6822F040529A607B681B689A685F
S315080057D07B681B6822F002029A607B681B689968DE
S315080057E07B681B7E5A007B681B680A439A607B6845
S315080057F093F82030002B1BD07B681B685A687B689F
S315080058001B6842F400625A607B681B685A687B68AA
S315080058101B6822F460425A607B681B6859687B687B
S315080058205B6A013B5A037B681B680A435A6007E0B8
S315080058307B681B685A687B681B6822F400625A609A
S315080058407B681B68DA6A7B681B6822F47002DA6276
S315080058507B681B68D96A7B68DB69013B1A057B682C
S315080058601B680A43DA627B681B689A687B681B6850
S3150800587022F400729A607B681B6899687B6893F8C3
S3150800588030305A027B681B680A439A607B681B683B
S315080058909A687B681B6822F480629A607B681B683A
S315080058A099687B685B699A027B681B680A439A60F9
S315080058B000BF1437BD465DF8047B704700230140DE
S315080058C00100000F80B485B000AF78607B6803F0F4
S315080058D00703FB600C4BDB68BB60BA684FF6FF0337
S315080058E01340BB60FB681A02BB68134343F0BF63EF
S315080058F043F40033BB60044ABB68D36000BF143767
S31508005900BD465DF8047B704700ED00E080B400AF4B
S31508005910044BDB681B0A03F007031846BD465DF80F
S31508005920047B704700ED00E080B483B000AF034607
S31508005930FB7197F90730002B0BDBFB7903F01F028D
S31508005940074997F907305B09012000FA02F241F886
S31508005950232000BF0C37BD465DF8047B704700BFA7
S3150800596000E100E080B483B000AF03463960FB7104
S3150800597097F90730002B0ADB3B68DAB20C4997F92E
S3150800598007301201D2B20B4483F800230AE03B68C1
S31508005990DAB20849FB7903F00F03043B1201D2B2CD
S315080059A00B441A7600BF0C37BD465DF8047B70477A
S315080059B000E100E000ED00E080B489B000AFF860D7
S315080059C0B9607A60FB6803F00703FB61FB69C3F102
S315080059D00703042B28BF0423BB61FB690433062B8A
S315080059E002D9FB69033B00E000237B614FF0FF32DD
S315080059F0BB6902FA03F3DA43BB681A407B699A402B
S31508005A004FF0FF317B6901FA03F3D9437B680B40FA
S31508005A10134318462437BD465DF8047B704780B5A6
S31508005A2082B000AF78607868FFF74CFF00BF083790
S31508005A30BD4680BD80B586B000AF0346B9607A60C2
S31508005A40FB7300237B61FFF761FF78617A68B968A9
S31508005A507869FFF7B1FF024697F90F3011461846E5
S31508005A60FFF780FF00BF1837BD4680BD80B582B0FE
S31508005A7000AF0346FB7197F907301846FFF754FF46
S31508005A8000BF0837BD4680BD80B586B000AF7860D8
S31508005A9000237B61FFF75CFB38617B68002B01D133
S31508005AA0012399E07B68022283F835207B6800226F
S31508005AB083F834207B681B681A687B681B6822F0A9
S31508005AC001021A600FE0FFF743FB02463B69D31A4F
S31508005AD0052B08D97B6820225A657B68032283F840
S31508005AE03520032378E07B681B681B6803F00103F5
S31508005AF0002BE8D17B681B681B687B617A69384B89
S31508005B0013407B617B685A687B689B681A437B688D
S31508005B10DB681A437B681B691A437B685B691A430F
S31508005B207B689B691A437B68DB691A437B681B6A37
S31508005B3013437A6913437B617B685B6A042B07D13D
S31508005B407B68DA6A7B681B6B13437A6913437B614C
S31508005B507B681B687A691A607B681B685B697B616E
S31508005B607B6923F007037B617B685B6A7A69134369
S31508005B707B617B685B6A042B17D17B689B6A7A69B1
S31508005B8013437B617B68DB6A002B0ED0786800F0D4
S31508005B90DFFA0346002B08D07B6840225A657B68EB
S31508005BA0012283F83520012316E07B681B687A6991
S31508005BB05A61786800F096FA0346FB607B68DB6DED
S31508005BC03F229A40FB689A607B6800225A657B6888
S31508005BD0012283F83520002318461837BD4680BDB4
S31508005BE03F8010F080B586B000AFF860B9607A6083
S31508005BF03B600023FB75FB689B6D3B61FB6893F874
S31508005C003430012B01D1022340E0FB68012283F8DE
S31508005C103420FB6893F83530DBB2012B2FD1FB68B3
S31508005C20022283F83520FB6800225A653B687A68A9
S31508005C30B968F86800F028FAFB68DB6D3F229A40DD
S31508005C403B699A60FB681B681A68FB681B6842F028
S31508005C5016021A60FB681B6C002B07D0FB681B68D2
S31508005C601A68FB681B6842F008021A60FB681B6822
S31508005C701A68FB681B6842F001021A6005E0FB68B7
S31508005C80002283F834200223FB75FB7D184618375B
S31508005C90BD4680BD80B584B000AF78607B689B6DDB
S31508005CA0FB60FFF755FAB8607B6893F83530DBB2CE
S31508005CB0022B08D07B6880225A657B68002283F80D
S31508005CC03420012352E07B681B681A687B681B68CE
S31508005CD022F016021A607B681B685A697B681B6883
S31508005CE022F080025A617B681B6C002B03D17B680B
S31508005CF09B6C002B07D07B681B681A687B681B683F
S31508005D0022F008021A607B681B681A687B681B68A1
S31508005D1022F001021A6013E0FFF71AFA0246BB687E
S31508005D20D31A052B0CD97B6820225A657B68032277
S31508005D3083F835207B68002283F83420032315E096
S31508005D407B681B681B6803F00103002BE4D17B68A2
S31508005D50DB6D3F229A40FB689A607B68012283F8D4
S31508005D6035207B68002283F8342000231846103734
S31508005D70BD4680BD80B586B000AF78600023BB60A5
S31508005D808E4B1B688E4AA2FB03239B0A7B617B68AA
S31508005D909B6D3B613B691B68FB607B68DB6D08227A
S31508005DA09A40FB681340002B1AD07B681B681B6857
S31508005DB003F00403002B13D07B681B681A687B6802
S31508005DC01B6822F004021A607B68DB6D08229A4081
S31508005DD03B699A607B685B6D43F001027B685A6594
S31508005DE07B68DB6D01229A40FB681340002B12D0BA
S31508005DF07B681B685B6903F08003002B0BD07B680C
S31508005E00DB6D01229A403B699A607B685B6D43F0C3
S31508005E1002027B685A657B68DB6D04229A40FB6840
S31508005E201340002B12D07B681B681B6803F0020323
S31508005E30002B0BD07B68DB6D04229A403B699A6085
S31508005E407B685B6D43F004027B685A657B68DB6D93
S31508005E5010229A40FB681340002B43D07B681B68CE
S31508005E601B6803F00803002B3CD07B68DB6D10220F
S31508005E709A403B699A607B681B681B6803F4802319
S31508005E80002B18D07B681B681B6803F40023002BC3
S31508005E9008D17B681B6C002B24D07B681B6C786848
S31508005EA098471FE07B689B6C002B1BD07B689B6C1C
S31508005EB07868984716E07B681B681B6803F480734C
S31508005EC0002B07D17B681B681A687B681B6822F061
S31508005ED008021A607B681B6C002B03D07B681B6C5E
S31508005EE0786898477B68DB6D20229A40FB681340E8
S31508005EF0002B00F08F807B681B681B6803F010037B
S31508005F00002B00F087807B68DB6D20229A403B6976
S31508005F109A607B6893F83530DBB2052B36D17B68FF
S31508005F201B681A687B681B6822F016021A607B6871
S31508005F301B685A697B681B6822F080025A617B6875
S31508005F401B6C002B03D17B689B6C002B07D07B68EE
S31508005F501B681A687B681B6822F008021A607B684F
S31508005F60DB6D3F229A403B699A607B68012283F881
S31508005F7035207B68002283F834207B681B6D002B54
S31508005F807ED07B681B6D7868984779E07B681B68CC
S31508005F901B6803F48023002B1DD07B681B681B68D5
S31508005FA003F40023002B0DD17B685B6C002B31D0EA
S31508005FB07B685B6C786898472CE000BF000000207F
S31508005FC0B5814E1B7B68DB6B002B23D07B68DB6BB4
S31508005FD0786898471EE07B681B681B6803F4807323
S31508005FE0002B0FD17B681B681A687B681B6822F038
S31508005FF010021A607B68012283F835207B6800222C
S3150800600083F834207B68DB6B002B03D07B68DB6B63
S31508006010786898477B685B6D002B32D07B685B6D30
S3150800602003F00103002B22D07B68052283F8352074
S315080060307B681B681A687B681B6822F001021A6075
S31508006040BB680133BB607A699A4207D37B681B68D1
S315080060501B6803F00103002BF2D100E000BF7B6848
S31508006060012283F835207B68002283F834207B6878
S31508006070DB6C002B05D07B68DB6C7868984700E002
S3150800608000BF1837BD4680BD80B485B000AFF86044
S31508006090B9607A603B60FB681B681A68FB681B6816
S315080060A022F480221A60FB681B683A685A60FB680B
S315080060B09B68402B08D1FB681B687A689A60FB6866
S315080060C01B68BA68DA6007E0FB681B68BA689A60FA
S315080060D0FB681B687A68DA6000BF1437BD465DF84E
S315080060E0047B704780B485B000AF78607B681B6816
S315080060F0DBB2103B144AA2FB03231B09FB60134ABD
S31508006100FB6813441B781A467B68DA65FB68032B21
S3150800611009D97B681B6823F47F7323F003031A1DD0
S315080061207B689A6507E07B681B6823F47F7323F016
S3150800613003037A6893657B689B6D18461437BD46DA
S315080061405DF8047B704700BFABAAAAAA54B700083B
S3150800615080B485B000AF78600023FB737B689B6AC8
S31508006160BB607B689B69002B1FD1BB68032B56D885
S3150800617001A252F823F000BF896100089B6100085C
S31508006180896100081F6200087B68DB6A03F0807378
S31508006190002B46D00123FB7343E07B68DB6AB3F12F
S315080061A0C07F40D10123FB733DE07B689B69B3F553
S315080061B0005F21D1BB68032B37D801A252F823F020
S315080061C0D1610008D7610008D1610008E9610008BB
S315080061D00123FB7330E07B68DB6A03F08073002BD6
S315080061E025D00123FB7322E07B68DB6AB3F1C07F0D
S315080061F01FD10123FB731CE0BB68022B03D9BB68C4
S31508006200032B03D018E00123FB7315E07B68DB6AD8
S3150800621003F08073002B0ED00123FB730BE000BF45
S315080062200AE000BF08E000BF06E000BF04E000BFC8
S3150800623002E000BF00E000BFFB7B18461437BD46EE
S315080062405DF8047B704700BF80B489B000AF786002
S31508006250396000237B6100233B610023BB61002377
S31508006260FB6159E10122FB6902FA03F37B613B6892
S315080062701B687A6913403B613A697B699A4240F028
S3150800628048813B685B6803F00303012B05D03B6834
S315080062905B6803F00303022B30D17B689B68BB6104
S315080062A0FB695B00032202FA03F3DB43BA69134076
S315080062B0BB613B68DA68FB695B0002FA03F3BA69FB
S315080062C01343BB617B68BA699A607B685B68BB618C
S315080062D00122FB6902FA03F3DB43BA691340BB6187
S315080062E03B685B681B0903F00102FB6902FA03F3CA
S315080062F0BA691343BB617B68BA695A603B685B68D5
S3150800630003F00303032B17D07B68DB68BB61FB69CB
S315080063105B00032202FA03F3DB43BA691340BB614D
S315080063203B689A68FB695B0002FA03F3BA69134390
S31508006330BB617B68BA69DA603B685B6803F0030394
S31508006340022B23D1FB69DA087B68083253F822301E
S31508006350BB61FB6903F007039B000F2202FA03F3F4
S31508006360DB43BA691340BB613B681A69FB6903F0F2
S3150800637007039B0002FA03F3BA691343BB61FB697F
S31508006380DA087B680832B96943F822107B681B680B
S31508006390BB61FB695B00032202FA03F3DB43BA69BC
S315080063A01340BB613B685B6803F00302FB695B0053
S315080063B002FA03F3BA691343BB617B68BA691A60C8
S315080063C03B685B6803F44033002B00F0A28000238F
S315080063D0FB60574B5B6C564A43F480435364544BFB
S315080063E05B6C03F48043FB60FB68524AFB699B08BD
S315080063F0023352F82330BB61FB6903F003039B00A9
S315080064000F2202FA03F3DB43BA691340BB617B68C8
S31508006410494A934219D07B68484A934213D07B680D
S31508006420474A93420DD07B68464A934207D07B6819
S31508006430454A934201D1042308E0072306E00323D3
S3150800644004E0022302E0012300E00023FA6902F0D7
S31508006450030292009340BA691343BB613549FB694D
S315080064609B080233BA6941F82320384B9B68BB6105
S315080064703B69DB43BA691340BB613B685B6803F45D
S315080064808013002B03D0BA693B691343BB612F4ABB
S31508006490BB6993602D4BDB68BB613B69DB43BA691B
S315080064A01340BB613B685B6803F40013002B03D001
S315080064B0BA693B691343BB61244ABB69D360234B62
S315080064C05B68BB613B69DB43BA691340BB613B68E8
S315080064D05B6803F40033002B03D0BA693B691343A6
S315080064E0BB611A4ABB695360184B1B68BB613B69A1
S315080064F0DB43BA691340BB613B685B6803F48033CE
S31508006500002B03D0BA693B691343BB610F4ABB69C9
S315080065101360FB690133FB61FB690F2B7FF6A2AEA3
S3150800652000BF00BF2437BD465DF8047B704700BF37
S3150800653000380240003801400000024000040240D2
S3150800654000080240000C024000100240003C0140D6
S3150800655080B485B000AF78600B467B807B681A698B
S315080065607B881340002B02D00123FB7301E0002334
S31508006570FB73FB7B18461437BD465DF8047B7047F2
S3150800658080B483B000AF78600B467B8013467B707F
S315080065907B78002B03D07A887B689A6103E07B8836
S315080065A01A047B689A6100BF0C37BD465DF8047B08
S315080065B07047000080B586B000AF78607B68002B16
S315080065C001D1012367E27B681B6803F00103002BF6
S315080065D075D0884B9B6803F00C03042B0CD0854BB5
S315080065E09B6803F00C03082B12D1824B5B6803F4FB
S315080065F08003B3F5800F0BD17E4B1B6803F4003381
S31508006600002B5BD07B685B68002B57D1012342E2E5
S315080066107B685B68B3F5803F06D1764B1B68754A85
S3150800662043F4803313601DE07B685B68B3F5A02FE5
S315080066300CD1704B1B686F4A43F4802313606D4B73
S315080066401B686C4A43F4803313600BE0694B1B6884
S31508006650684A23F480331360664B1B68654A23F443
S31508006660802313607B685B68002B13D0FEF770FDF0
S31508006670386108E0FEF76CFD02463B69D31A642BC5
S3150800668001D9032307E25B4B1B6803F40033002B95
S31508006690F0D014E0FEF75CFD386108E0FEF758FD1F
S315080066A002463B69D31A642B01D90323F3E1514B04
S315080066B01B6803F40033002BF0D100E000BF7B68B1
S315080066C01B6803F00203002B63D04A4B9B6803F058
S315080066D00C03002B0BD0474B9B6803F00C03082BCD
S315080066E01CD1444B5B6803F48003002B16D1414B45
S315080066F01B6803F00203002B05D07B68DB68012BBF
S3150800670001D00123C7E13B4B1B6823F0F8027B68E5
S315080067101B69DB00374913430B603AE07B68DB688B
S31508006720002B20D0344B01221A60FEF711FD386188
S3150800673008E0FEF70DFD02463B69D31A022B01D984
S315080067400323A8E12B4B1B6803F00203002BF0D0B0
S31508006750284B1B6823F0F8027B681B69DB00254978
S3150800676013430B6015E0244B00221A60FEF7F0FC79
S31508006770386108E0FEF7ECFC02463B69D31A022BA7
S3150800678001D9032387E11B4B1B6803F00203002B87
S31508006790F0D17B681B6803F00803002B36D07B68B2
S315080067A05B69002B16D0154B01221A60FEF7D0FC48
S315080067B0386108E0FEF7CCFC02463B69D31A022B87
S315080067C001D9032367E10B4B5B6F03F00203002B30
S315080067D0F0D01BE0094B00221A60FEF7B9FC3861BD
S315080067E00EE0FEF7B5FC02463B69D31A022B07D921
S315080067F0032350E10038024000004742800E47421A
S31508006800884B5B6F03F00203002BEAD17B681B6899
S3150800681003F00403002B00F097800023FB75814BDF
S315080068201B6C03F08053002B0FD10023BB607D4BFC
S315080068301B6C7C4A43F0805313647A4B1B6C03F041
S315080068408053BB60BB680123FB75774B1B6803F459
S315080068508073002B18D1744B1B68734A43F48073FA
S315080068601360FEF775FC386108E0FEF771FC024616
S315080068703B69D31A022B01D903230CE16A4B1B6827
S3150800688003F48073002BF0D07B689B68012B06D13C
S31508006890644B1B6F634A43F0010313671CE07B6874
S315080068A09B68052B0CD15F4B1B6F5E4A43F00403B4
S315080068B013675C4B1B6F5B4A43F0010313670BE0DE
S315080068C0584B1B6F574A23F001031367554B1B6F31
S315080068D0544A23F0040313677B689B68002B15D082
S315080068E0FEF736FC38610AE0FEF732FC02463B69E1
S315080068F0D31A41F28832934201D90323CBE0494B9C
S315080069001B6F03F00203002BEED014E0FEF720FC09
S3150800691038610AE0FEF71CFC02463B69D31A41F2CD
S315080069208832934201D90323B5E03E4B1B6F03F02F
S315080069300203002BEED1FB7D012B05D1394B1B6CD5
S31508006940384A23F0805313647B689B69002B00F058
S31508006950A180344B9B6803F00C03082B5CD07B6842
S315080069609B69022B41D1314B00221A60FEF7F0FBDE
S31508006970386108E0FEF7ECFB02463B69D31A022BA6
S3150800698001D9032387E0274B1B6803F00073002B0C
S31508006990F0D17B68DA697B681B6A1A437B685B6A95
S315080069A09B011A437B689B6A5B08013B1B041A43DD
S315080069B07B68DB6A1B061B4913434B601B4B012292
S315080069C01A60FEF7C5FB386108E0FEF7C1FB024610
S315080069D03B69D31A022B01D903235CE0114B1B68D0
S315080069E003F00073002BF0D054E0104B00221A601D
S315080069F0FEF7AEFB386108E0FEF7AAFB02463B69E4
S31508006A00D31A022B01D9032345E0064B1B6803F072
S31508006A100073002BF0D13DE07B689B69012B07D101
S31508006A20012338E000380240007000406000474209
S31508006A301B4B5B68FB607B689B69012B28D0FB6856
S31508006A4003F480027B68DB699A4221D1FB6803F074
S31508006A503F027B681B6A9A421AD1FA6847F6C073E6
S31508006A6013407A68526A9201934211D1FB6803F483
S31508006A7040327B689B6A5B08013B1B049A4207D13C
S31508006A80FB6803F070627B68DB6A1B069A4201D0DA
S31508006A90012300E0002318461837BD4680BD00BF15
S31508006AA00038024080B584B000AF786039607B68F2
S31508006AB0002B01D10123CCE0684B1B6803F00703C8
S31508006AC03A689A420CD9654B3A68D2B21A70634B47
S31508006AD01B6803F007033A689A4201D00123B8E01D
S31508006AE07B681B6803F00203002B20D07B681B68B9
S31508006AF003F00403002B05D0594B9B68584A43F40E
S31508006B00E05393607B681B6803F00803002B05D0ED
S31508006B10534B9B68524A43F460439360504B9B68BF
S31508006B2023F0F0027B689B684D4913438B607B68B2
S31508006B301B6803F00103002B44D07B685B68012BBC
S31508006B4007D1474B1B6803F40033002B19D10123E7
S31508006B507FE07B685B68022B03D07B685B68032B4E
S31508006B6007D13F4B1B6803F00073002B09D10123A3
S31508006B706FE03B4B1B6803F00203002B01D1012396
S31508006B8067E0374B9B6823F003027B685B683449F0
S31508006B9013438B60FEF7DCFAF8600AE0FEF7D8FAD2
S31508006BA00246FB68D31A41F28832934201D903237D
S31508006BB04FE02B4B9B6803F00C027B685B689B00DD
S31508006BC09A42EBD1254B1B6803F007033A689A42B1
S31508006BD00CD2224B3A68D2B21A70204B1B6803F0CB
S31508006BE007033A689A4201D0012332E07B681B68A2
S31508006BF003F00403002B08D0194B9B6823F4E052DA
S31508006C007B68DB68164913438B607B681B6803F057
S31508006C100803002B09D0124B9B6823F460427B685B
S31508006C201B69DB000E4913438B6000F021F802460E
S31508006C300B4B9B681B0903F00F030A49CB5C22FA2E
S31508006C4003F3094A1360094B1B681846FEF774F8E4
S31508006C50002318461037BD4680BD00BF003C0240E1
S31508006C60003802403CB7000800000020040000205D
S31508006C702DE9B04F90B000AF00237B630023FB6380
S31508006C8000233B630023BB63594B9B6803F00C034B
S31508006C90082B0DD0082B00F2A180002B02D0042B64
S31508006CA003D09BE0534BBB639BE0534BBB6398E01D
S31508006CB04F4B5B6803F03F037B634D4B5B6803F404
S31508006CC08003002B28D04A4B5B689B0900223B6255
S31508006CD07A623B6AC3F308000021474B03FB01F2C3
S31508006CE0002300FB03F31344434AA0FB0212FA6293
S31508006CF00A46BA62FA6A1344FB627B6B0022BB61DE
S31508006D00FA61D7E90623D7E90A01FDF789FA0246A7
S31508006D100B461346FB6353E0354B5B689B09002221
S31508006D203B617A613B69C3F3080A4FF0000B524690
S31508006D305B464FF000004FF00001590141EAD2616D
S31508006D40500102460B46B2EB0A0863EB0B094FF0FB
S31508006D5000024FF000034FEA891343EA98634FEAAB
S31508006D608812B2EB080463EB09054FF000024FF0F6
S31508006D700003EB0043EA5473E20014461D4614EB85
S31508006D800A033B6045EB0B037B604FF000024FF0B4
S31508006D900003D7E9004529468B02214643EA915369
S31508006DA021468A02104619467B6B0022BB60FA60B0
S31508006DB0D7E90223FDF734FA02460B461346FB636E
S31508006DC00B4B5B681B0C03F0030301335B003B634F
S31508006DD0FA6B3B6BB2FBF3F3BB6302E0054BBB6399
S31508006DE000BFBB6B18464037BD46BDE8B08F00BF35
S31508006DF0003802400024F400001BB70080B400AF3E
S31508006E00034B1B681846BD465DF8047B704700BFF8
S31508006E100000002080B500AFFFF7F0FF0246054BE3
S31508006E209B685B0B03F007030349CB5C22FA03F369
S31508006E30184680BD003802404CB7000880B483B0BD
S31508006E4000AF786039607B680F221A60124B9B6826
S31508006E5003F003027B685A600F4B9B6803F0F0024D
S31508006E607B689A600C4B9B6803F4E0527B68DA6097
S31508006E70094B9B68DB0803F4E0527B681A61074BF1
S31508006E801B6803F007023B681A6000BF0C37BD4653
S31508006E905DF8047B704700BF00380240003C0240A2
S31508006EA080B582B000AF78607B68002B01D10123E2
S31508006EB07BE07B685B6A002B08D17B685B68B3F56F
S31508006EC0827F09D07B680022DA6105E07B680022B0
S31508006ED01A617B6800225A617B6800229A627B6885
S31508006EE093F85130DBB2002B06D17B68002283F879
S31508006EF050207868FDF728FE7B68022283F8512027
S31508006F007B681B681A687B681B6822F040021A6057
S31508006F107B685B6803F482727B689B6803F40443AE
S31508006F201A437B68DB6803F400631A437B681B69B2
S31508006F3003F002031A437B685B6903F001031A43F3
S31508006F407B689B6903F400731A437B68DB6903F06B
S31508006F5038031A437B681B6A03F0800342EA03017D
S31508006F607B689B6A03F400527B681B680A431A60B5
S31508006F707B689B691B0C03F004017B685B6A03F062
S31508006F8010027B681B680A435A607B681B68DA69CB
S31508006F907B681B6822F40062DA617B6800225A6506
S31508006FA07B68012283F85120002318460837BD461E
S31508006FB080BD000080B586B000AFF860B9607A6021
S31508006FC07B800023FB75FB6893F85030012B01D1B9
S31508006FD00223E3E0FB68012283F85020FB6893F85C
S31508006FE05130BB75FB685B683B61BB7D012B0DD0DF
S31508006FF03B69B3F5827F06D1FB689B68002B02D1FB
S31508007000BB7D042B02D00223FB75C2E0BB68002BB4
S3150800701005D07B68002B02D07B88002B02D1012388
S31508007020FB75B6E0FB6893F85130DBB2042B03D04E
S31508007030FB68052283F85120FB6800225A65FB6825
S31508007040BA681A63FB687A889A86FB687A88DA8649
S31508007050FB687A689A63FB687A889A87FB687A88F5
S31508007060DA87FB6800221A64FB6800225A64FB6808
S3150800707093F85130DBB2042B08D1FB68DB6C494A24
S315080070801A64FB68DB6C484ADA6307E0FB68DB6C6A
S31508007090464A1A64FB68DB6C454ADA63FB68DB6CB4
S315080070A0444ADA64FB68DB6C00221A65FB68D86C14
S315080070B0FB681B680C331946FB689B6B1A46FB6812
S315080070C0DB8F9BB2FEF78EFD0346002B0CD0FB68C8
S315080070D05B6D43F01002FB685A650123FB75FB687C
S315080070E0012283F8512054E0FB681B685A68FB6844
S315080070F01B6842F001025A60FB689B6C00221A6406
S31508007100FB689B6C0022DA63FB689B6C0022DA64DE
S31508007110FB689B6C00221A65FB68986CFB681B6B06
S315080071201946FB681B680C331A46FB68DB8E9BB254
S31508007130FEF758FD0346002B0CD0FB685B6D43F049
S315080071401002FB685A650123FB75FB68012283F868
S3150800715051201EE0FB681B681B6803F04003402BA8
S3150800716007D0FB681B681A68FB681B6842F0400278
S315080071701A60FB681B685A68FB681B6842F02002A5
S315080071805A60FB681B685A68FB681B6842F0020273
S315080071905A60FB68002283F85020FB7D1846183792
S315080071A0BD4680BD03740008CB7200081F74000832
S315080071B0737300083B74000880B483B000AF78602E
S315080071C07B6893F85030012B01D1022310E07B68CD
S315080071D0012283F850207B681B685A687B681B6805
S315080071E042F003025A607B68002283F8502000238D
S315080071F018460C37BD465DF8047B704780B584B0E9
S3150800720000AF78600023FB737B689B6C002B0FD064
S315080072107B689B6C1846FEF73DFD0346002B07D09E
S315080072207B685B6D43F010027B685A650123FB732C
S315080072307B68DB6C002B0FD07B68DB6C1846FEF78F
S3150800724029FD0346002B07D07B685B6D43F01002CF
S315080072507B685A650123FB737B681B685A687B68E1
S315080072601B6822F003025A607B68012283F85120CA
S31508007270FB7B18461037BD4680BD80B483B000AF8F
S31508007280786000BF0C37BD465DF8047B704780B454
S3150800729083B000AF786000BF0C37BD465DF8047B4D
S315080072A0704780B483B000AF786000BF0C37BD4626
S315080072B05DF8047B704780B483B000AF786000BF88
S315080072C00C37BD465DF8047B704780B584B000AFC7
S315080072D078607B689B6BFB60FDF73AFFB8607B685C
S315080072E01B681B6803F48073B3F5807F3BD0FB688B
S315080072F01B685A68FB681B6822F020025A60FB6804
S315080073009B68002B0DD1FB685B68B3F5827F08D1BB
S31508007310FB681B685A68FB681B6822F003025A6000
S3150800732007E0FB681B685A68FB681B6822F00102C5
S315080073305A60BA686421F86800F028F90346002BF9
S3150800734002D0FB6820225A65FB680022DA87FB68B0
S31508007350012283F85120FB685B6D002B03D0F86887
S31508007360FFF7A9FF02E0F868FFF787FF1037BD4669
S3150800737080BD80B584B000AF78607B689B6BFB608E
S31508007380FDF7E6FEB8607B681B681B6803F480732C
S31508007390B3F5807F2FD0FB681B685A68FB681B68AB
S315080073A022F020025A60BA686421F86800F054F99D
S315080073B00346002B05D0FB685B6D43F02002FB6893
S315080073C05A65FB681B685A68FB681B6822F003024B
S315080073D05A60FB680022DA86FB680022DA87FB68B7
S315080073E0012283F85120FB685B6D002B03D0F868F7
S315080073F0FFF761FF02E0F868FDF748FB1037BD4666
S3150800740080BD80B584B000AF78607B689B6BFB60FD
S31508007410F868FFF73CFF00BF1037BD4680BD80B552
S3150800742084B000AF78607B689B6BFB60F868FFF7F9
S3150800743038FF00BF1037BD4680BD80B584B000AFA9
S3150800744078607B689B6BFB60FB681B685A68FB6807
S315080074501B6822F003025A60FB685B6D43F010025A
S31508007460FB685A65FB68012283F85120F868FFF724
S3150800747022FF00BF1037BD4680BD000080B588B02A
S3150800748000AFF860B9603B601346FB71FDF760FE1C
S315080074900246BB6A9B1A3A681344FB61FDF758FE1D
S315080074A0B861394B1B685B011B0DFA6902FB03F3D4
S315080074B07B6154E03B68B3F1FF3F50D0FDF748FECF
S315080074C00246BB69D31AFA699A4202D9FB69002BAC
S315080074D03DD1FB681B685A68FB681B6822F0E0020E
S315080074E05A60FB685B68B3F5827F11D1FB689B68BD
S315080074F0B3F5004F04D0FB689B68B3F5806F07D1DE
S31508007500FB681B681A68FB681B6822F040021A6051
S31508007510FB689B6AB3F5005F0FD1FB681B681A68A6
S31508007520FB681B6822F400521A60FB681B681A681D
S31508007530FB681B6842F400521A60FB68012283F854
S315080075405120FB68002283F85020032317E07B694B
S31508007550002B01D10023FB617B69013B7B61FB6842
S315080075601B689A68BB681340BA689A420CBF012325
S315080075700023DBB21A46FB799A429BD100231846B0
S315080075802037BD4680BD00BF0000002080B586B00C
S3150800759002AFF860B9607A60FB685B68B3F5827F12
S315080075A011D1FB689B68B3F5004F04D0FB689B6854
S315080075B0B3F5806F07D1FB681B681A68FB681B6800
S315080075C022F040021A60FB685B68B3F5827F2AD115
S315080075D0FB689B68B3F5806F12D07B680093BB6825
S315080075E000228021F868FFF749FF0346002B2DD0BB
S315080075F0FB685B6D43F02002FB685A65032326E0AF
S315080076007B680093BB6800220121F868FFF736FF04
S315080076100346002B1AD0FB685B6D43F02002FB681B
S315080076205A65032313E07B680093BB680022012197
S31508007630F868FFF723FF0346002B07D0FB685B6D4E
S3150800764043F02002FB685A65032300E0002318462E
S315080076501037BD4680BD000080B588B002AFF8601F
S31508007660B9607A601B4B1B681B4AA2FB03235B0DA0
S315080076704FF47A7202FB03F37B61FB685B68B3F530
S31508007680827F12D17B680093BB6800228021F8684C
S31508007690FFF7F4FE0346002B16D0FB685B6D43F03C
S315080076A02002FB685A6503230FE07B69002B0AD08A
S315080076B07B69013B7B61FB681B689B6803F0800361
S315080076C0802BF2D000E000BF002318461837BD46CD
S315080076D080BD00BF00000020819F5E1680B582B085
S315080076E000AF78607B68002B01D1012341E07B68FD
S315080076F093F83D30DBB2002B06D17B68002283F875
S315080077003C207868FDF714FC7B68022283F83D204C
S315080077107B681A687B6804331946104600F04AFCF1
S315080077207B68012283F846207B68012283F83E2085
S315080077307B68012283F83F207B68012283F840207A
S315080077407B68012283F841207B68012283F8422066
S315080077507B68012283F843207B68012283F8442052
S315080077607B68012283F845207B68012283F83D2047
S31508007770002318460837BD4680BD000080B485B092
S3150800778000AF78607B6893F83D30DBB2012B01D0FF
S31508007790012344E07B68022283F83D207B681B684E
S315080077A0DA687B681B6842F00102DA607B681B684E
S315080077B01E4A934218D07B681B68B3F1804F13D0DA
S315080077C07B681B681A4A93420ED07B681B68194A65
S315080077D0934209D07B681B68174A934204D07B689A
S315080077E01B68164A934211D17B681B689B6803F095
S315080077F00703FB60FB68062B10D07B681B681A68BA
S315080078007B681B6842F001021A6007E07B681B6808
S315080078101A687B681B6842F001021A600023184642
S315080078201437BD465DF8047B704700BF0000014071
S315080078300004004000080040000C004000400140E1
S3150800784080B582B000AF78607B68002B01D1012338
S3150800785041E07B6893F83D30DBB2002B06D17B68AC
S31508007860002283F83C207868FDF7C6FB7B68022275
S3150800787083F83D207B681A687B68043319461046EE
S3150800788000F098FB7B68012283F846207B6801227A
S3150800789083F83E207B68012283F83F207B6801221B
S315080078A083F840207B68012283F841207B68012207
S315080078B083F842207B68012283F843207B680122F3
S315080078C083F844207B68012283F845207B680122DF
S315080078D083F83D20002318460837BD4680BD0000C2
S315080078E080B584B000AF786039603B68002B09D159
S315080078F07B6893F83E30DBB2012B14BF01230023CB
S31508007900DBB222E03B68042B09D17B6893F83F3051
S31508007910DBB2012B14BF01230023DBB215E03B6861
S31508007920082B09D17B6893F84030DBB2012B14BFD2
S3150800793001230023DBB208E07B6893F84130DBB211
S31508007940012B14BF01230023DBB2002B01D0012336
S3150800795068E03B68002B04D17B68022283F83E204E
S3150800796013E03B68042B04D17B68022283F83F208E
S315080079700BE03B68082B04D17B68022283F8402081
S3150800798003E07B68022283F841207B681B6801229A
S315080079903968184600F0B4FD7B681B68234A934291
S315080079A007D17B681B685A6C7B681B6842F40042E7
S315080079B05A647B681B681D4A934218D07B681B680B
S315080079C0B3F1804F13D07B681B68194A93420ED0D7
S315080079D07B681B68174A934209D07B681B68164A5E
S315080079E0934204D07B681B68144A934211D17B6882
S315080079F01B689B6803F00703FB60FB68062B10D027
S31508007A007B681B681A687B681B6842F001021A606B
S31508007A1007E07B681B681A687B681B6842F00102EE
S31508007A201A60002318461037BD4680BD0000014085
S31508007A300004004000080040000C004000400140DF
S31508007A4080B582B000AF78607B681B681B6903F05D
S31508007A500203022B22D17B681B68DB6803F0020352
S31508007A60022B1BD17B681B686FF002021A617B68C8
S31508007A7001221A777B681B689B6903F00303002BB6
S31508007A8003D0786800F077FA05E0786800F069FABC
S31508007A90786800F07AFA7B6800221A777B681B6898
S31508007AA01B6903F00403042B22D17B681B68DB687F
S31508007AB003F00403042B1BD17B681B686FF00402D8
S31508007AC01A617B6802221A777B681B689B6903F434
S31508007AD04073002B03D0786800F04DFA05E078680B
S31508007AE000F03FFA786800F050FA7B6800221A77AF
S31508007AF07B681B681B6903F00803082B22D17B6887
S31508007B001B68DB6803F00803082B1BD17B681B681E
S31508007B106FF008021A617B6804221A777B681B6873
S31508007B20DB6903F00303002B03D0786800F023FA1F
S31508007B3005E0786800F015FA786800F026FA7B68A0
S31508007B4000221A777B681B681B6903F01003102B49
S31508007B5022D17B681B68DB6803F01003102B1BD14E
S31508007B607B681B686FF010021A617B6808221A7717
S31508007B707B681B68DB6903F44073002B03D07868C5
S31508007B8000F0F9F905E0786800F0EBF9786800F09C
S31508007B90FCF97B6800221A777B681B681B6903F06F
S31508007BA00103012B0ED17B681B68DB6803F0010318
S31508007BB0012B07D17B681B686FF001021A61786890
S31508007BC0FCF776FF7B681B681B6903F08003802B34
S31508007BD00ED17B681B68DB6803F08003802B07D116
S31508007BE07B681B686FF080021A61786800F026FDD2
S31508007BF07B681B681B6903F04003402B0ED17B682A
S31508007C001B68DB6803F04003402B07D17B681B68C1
S31508007C106FF040021A61786800F0C1F97B681B684A
S31508007C201B6903F02003202B0ED17B681B68DB68D9
S31508007C3003F02003202B07D17B681B686FF0200216
S31508007C401A61786800F0F0FC00BF0837BD4680BDB1
S31508007C5080B586B000AFF860B9607A600023FB751E
S31508007C60FB6893F83C30012B01D10223AEE0FB6898
S31508007C70012283F83C207B680C2B00F29F8001A22E
S31508007C8052F823F0B97C0008BD7D0008BD7D0008C8
S31508007C90BD7D0008F97C0008BD7D0008BD7D000893
S31508007CA0BD7D00083B7D0008BD7D0008BD7D000840
S31508007CB0BD7D00087B7D0008FB681B68B96818460F
S31508007CC000F0F8F9FB681B689A69FB681B6842F0C4
S31508007CD008029A61FB681B689A69FB681B6822F0B0
S31508007CE004029A61FB681B689969BB681A69FB6894
S31508007CF01B680A439A6164E0FB681B68B968184602
S31508007D0000F03EFAFB681B689A69FB681B6842F438
S31508007D1000629A61FB681B689A69FB681B6822F413
S31508007D2080629A61FB681B689969BB681B691A02BD
S31508007D30FB681B680A439A6143E0FB681B68B968DD
S31508007D40184600F089FAFB681B68DA69FB681B6845
S31508007D5042F00802DA61FB681B68DA69FB681B688F
S31508007D6022F00402DA61FB681B68D969BB681A69E4
S31508007D70FB681B680A43DA6123E0FB681B68B9687D
S31508007D80184600F0D3FAFB681B68DA69FB681B68BB
S31508007D9042F40062DA61FB681B68DA69FB681B68F3
S31508007DA022F48062DA61FB681B68D969BB681B69C3
S31508007DB01A02FB681B680A43DA6102E00123FB75B5
S31508007DC000BFFB68002283F83C20FB7D1846183765
S31508007DD0BD4680BD80B584B000AF786039600023A9
S31508007DE0FB737B6893F83C30012B01D10223B4E086
S31508007DF07B68012283F83C207B68022283F83D20B9
S31508007E007B681B689B68BB60BB6823F07703BB6015
S31508007E10BB6823F47F43BB607B681B68BA689A60BB
S31508007E203B681B68B3F5005F3ED0B3F5005F00F210
S31508007E308780B3F5805F00F08680B3F5805F7FD8D2
S31508007E40702B1AD0702B7BD8602B50D0602B77D82C
S31508007E50502B3CD0502B73D8402B58D0402B6FD882
S31508007E60302B64D0302B6BD8202B60D0202B67D8D2
S31508007E70002B5CD0102B5AD062E07B6818683B68F0
S31508007E8099683B685A683B68DB6800F019FB7B68B1
S31508007E901B689B68BB60BB6843F07703BB607B6865
S31508007EA01B68BA689A604FE07B6818683B689968EF
S31508007EB03B685A683B68DB6800F002FB7B681B6816
S31508007EC09A687B681B6842F480429A603CE07B684B
S31508007ED018683B6859683B68DB681A4600F076FA0A
S31508007EE07B681B685021184600F0CFFA2CE07B68A7
S31508007EF018683B6859683B68DB681A4600F095FACB
S31508007F007B681B686021184600F0BFFA1CE07B6896
S31508007F1018683B6859683B68DB681A4600F056FAE9
S31508007F207B681B684021184600F0AFFA0CE07B68B6
S31508007F301A683B681B681946104600F0A6FA03E063
S31508007F400123FB7300E000BF7B68012283F83D2014
S31508007F507B68002283F83C20FB7B18461037BD4619
S31508007F6080BD80B483B000AF786000BF0C37BD46D3
S31508007F705DF8047B704780B483B000AF786000BFBB
S31508007F800C37BD465DF8047B704780B483B000AFFC
S31508007F90786000BF0C37BD465DF8047B704780B437
S31508007FA083B000AF786000BF0C37BD465DF8047B30
S31508007FB07047000080B485B000AF786039607B6890
S31508007FC01B68FB607B68344A93420FD07B68B3F129
S31508007FD0804F0BD07B68314A934207D07B68304A82
S31508007FE0934203D07B682F4A934208D1FB6823F05B
S31508007FF07003FB603B685B68FA681343FB607B6849
S31508008000254A93421BD07B68B3F1804F17D07B6813
S31508008010224A934213D07B68214A93420FD07B6849
S31508008020204A93420BD07B681F4A934207D07B684D
S315080080301E4A934203D07B681D4A934208D1FB68C7
S3150800804023F44073FB603B68DB68FA681343FB6004
S31508008050FB6823F080023B685B691343FB607B681F
S31508008060FA681A603B689A687B68DA623B681A683D
S315080080707B689A627B68084A934203D13B681A690F
S315080080807B681A637B6801225A6100BF1437BD46B4
S315080080905DF8047B704700BF000001400004004003
S315080080A000080040000C0040004001400044014028
S315080080B00048014080B487B000AF786039607B68BB
S315080080C01B6A23F001027B681A627B681B6A7B6164
S315080080D07B685B683B617B689B69FB60FB6823F098
S315080080E07003FB60FB6823F00303FB603B681B68B7
S315080080F0FA681343FB607B6923F002037B613B68E4
S315080081009B687A6913437B617B681C4A93420CD14E
S315080081107B6923F008037B613B68DB687A69134354
S315080081207B617B6923F004037B617B68134A934276
S3150800813011D13B6923F480733B613B6923F40073D7
S315080081403B613B685B693A6913433B613B689B69E2
S315080081503A6913433B617B683A695A607B68FA68F7
S315080081609A613B685A687B685A637B687A691A62BF
S3150800817000BF1C37BD465DF8047B70470000014010
S3150800818080B487B000AF786039607B681B6A23F0DB
S3150800819010027B681A627B681B6A7B617B685B6876
S315080081A03B617B689B69FB60FB6823F4E043FB60EB
S315080081B0FB6823F44073FB603B681B681B02FA6884
S315080081C01343FB607B6923F020037B613B689B6854
S315080081D01B017A6913437B617B681E4A93420DD162
S315080081E07B6923F080037B613B68DB681B017A6946
S315080081F013437B617B6923F040037B617B68154AE7
S31508008200934213D13B6923F480633B613B6923F4B2
S3150800821000633B613B685B699B003A6913433B61BA
S315080082203B689B699B003A6913433B617B683A69E3
S315080082305A607B68FA689A613B685A687B689A63F1
S315080082407B687A691A6200BF1C37BD465DF8047BF5
S31508008250704700BF0000014080B487B000AF786067
S3150800826039607B681B6A23F480727B681A627B68B4
S315080082701B6A7B617B685B683B617B68DB69FB60CB
S31508008280FB6823F07003FB60FB6823F00303FB60C5
S315080082903B681B68FA681343FB607B6923F4007329
S315080082A07B613B689B681B027A6913437B617B6829
S315080082B01D4A93420DD17B6923F400637B613B68B9
S315080082C0DB681B027A6913437B617B6923F480634D
S315080082D07B617B68144A934213D13B6923F480532C
S315080082E03B613B6923F400533B613B685B691B01B7
S315080082F03A6913433B613B689B691B013A6913431F
S315080083003B617B683A695A607B68FA68DA613B6860
S315080083105A687B68DA637B687A691A6200BF1C3719
S31508008320BD465DF8047B70470000014080B487B005
S3150800833000AF786039607B681B6A23F480527B68DB
S315080083401A627B681B6A3B617B685B687B617B683A
S31508008350DB69FB60FB6823F4E043FB60FB6823F4FE
S315080083604073FB603B681B681B02FA681343FB609B
S315080083703B6923F400533B613B689B681B033A69DE
S3150800838013433B617B68104A934209D17B6923F406
S3150800839080437B613B685B699B017A6913437B6118
S315080083A07B687A695A607B68FA68DA613B685A685A
S315080083B07B681A647B683A691A6200BF1C37BD4637
S315080083C05DF8047B704700BF0000014080B487B0A9
S315080083D000AFF860B9607A60FB681B6A7B61FB686E
S315080083E01B6A23F00102FB681A62FB689B693B6102
S315080083F03B6923F0F0033B617B681B013A69134331
S315080084003B617B6923F00A037B617A69BB68134386
S315080084107B61FB683A699A61FB687A691A6200BFF0
S315080084201C37BD465DF8047B704780B487B000AF43
S31508008430F860B9607A60FB681B6A23F01002FB6873
S315080084401A62FB689B697B61FB681B6A3B617B69F7
S3150800845023F470437B617B681B037A6913437B6152
S315080084603B6923F0A0033B61BB681B013A691343D0
S315080084703B61FB687A699A61FB683A691A6200BFD0
S315080084801C37BD465DF8047B704780B485B000AFE5
S31508008490786039607B689B68FB60FB6823F0700333
S315080084A0FB603A68FB68134343F00703FB607B688D
S315080084B0FA689A6000BF1437BD465DF8047B7047BA
S315080084C080B487B000AFF860B9607A603B60FB683B
S315080084D09B687B617B6923F47F437B613B681A0257
S315080084E07B681A43BB6813437A6913437B61FB684D
S315080084F07A699A6000BF1C37BD465DF8047B7047F1
S3150800850080B487B000AFF860B9607A60BB6803F0E2
S315080085101F03012202FA03F37B61FB681A6A7B696F
S31508008520DB431A40FB681A62FB681A6ABB6803F0E9
S315080085301F03796801FA03F31A43FB681A6200BF3E
S315080085401C37BD465DF8047B7047000080B485B0D3
S3150800855000AF786039607B6893F83C30012B01D115
S31508008560022350E07B68012283F83C207B680222C4
S3150800857083F83D207B681B685B68FB607B681B682B
S315080085809B68BB60FB6823F07003FB603B681B6855
S31508008590FA681343FB607B681B68FA685A607B6855
S315080085A01B681C4A934218D07B681B68B3F1804F3E
S315080085B013D07B681B68184A93420ED07B681B68E9
S315080085C0164A934209D07B681B68154A934204D021
S315080085D07B681B68134A93420CD1BB6823F080035F
S315080085E0BB603B685B68BA681343BB607B681B6803
S315080085F0BA689A607B68012283F83D207B6800226E
S3150800860083F83C20002318461437BD465DF8047BE2
S31508008610704700BF00000140000400400008004009
S31508008620000C00400040014080B483B000AF786081
S3150800863000BF0C37BD465DF8047B704780B483B035
S3150800864000AF786000BF0C37BD465DF8047B704705
S3150800865080B485B000AF786039607B681B78002BE2
S3150800866036D07B6802331B78012B31D17B68033304
S315080086701B78172B2CD17B6804331B78022B27D148
S315080086807B6805331B78012B22D17B681A782F4B20
S315080086905A750023FB7310E0FB7B06337A68134494
S315080086A0FA7B18782A4913465B001344DB000B440F
S315080086B002461A70FB7B0133FB73FB7B092BEBD954
S315080086C0244B1B7843F00103DAB2224B1A7037E0C9
S315080086D07B681B78002B33D07B6802331B78012B11
S315080086E02ED17B6803331B78172B29D17B6804337B
S315080086F01B78032B24D17B6805331B78012B1FD1EC
S315080087000023BB7312E0BB7B5B0006337A68134415
S31508008710BA7B18880E4913465B001344DB000B44EA
S31508008720023302461A80BB7B0133BB73BB7B092B22
S31508008730E9D9084B1B7843F00403DAB2054B1A70E3
S3150800874000BF1437BD465DF8047B7047B00D0020A6
S31508008750CC0D0020AC0D002080B582B000AF78604B
S3150800876039603968786800F005F800BF0837BD46F3
S3150800877080BD000090B583B000AF78603960204BAB
S315080087805A7D3B681A703B68013330221A703B6881
S31508008790023302221A703B68033317221A703B68A9
S315080087A0043304221A703B68053301221A703B68A9
S315080087B00633134AB2F900201A803B680833104A78
S315080087C0B2F906201A803B680A330D4A92881A8045
S315080087D03B680C330A4AB2F90C201A80084B1A7DFA
S315080087E03B6816331A603B6803F130043021386859
S315080087F001F0B8FB0346237000BF0C37BD4690BD99
S31508008800B00D002080B582B000AF144B1B7803F082
S315080088100803002B01D100231BE00023FB7107E0AE
S31508008820FB791121184600F0CFF8FB790133FB716B
S31508008830FB79092BF4D90A4B9B7C0133DAB2084B36
S315080088409A74074B1B7D43F01003DAB2044B1A7572
S31508008850012318460837BD4680BD00BFAC0D002071
S31508008860B00D002080B489B000AF3E4B0022DA7507
S315080088703C4B40F23A725A830023FB613A4B5B6CDD
S31508008880394A43F001035364374B5B6C03F0010329
S31508008890FB61FB690023BB61334B1B6C324A43F017
S315080088A001031364304B1B6C03F00103BB61BB6906
S315080088B000237B612C4B1B6C2B4A43F00203136489
S315080088C0294B1B6C03F002037B617B6900233B6128
S315080088D0254B1B6C244A43F004031364224B1B6C80
S315080088E003F004033B613B690023FB601E4B1B6CD2
S315080088F01D4A43F0080313641B4B1B6C03F0080363
S31508008900FB60FB680023BB60174B1B6B164A43F0E2
S3150800891001031363144B1B6B03F00103BB60BB68B5
S3150800892000237B60104B1B6B0F4A43F00203136353
S315080089300D4B1B6B03F002037B607B6800233B60D7
S31508008940094B1B6B084A43F004031363064B1B6B66
S3150800895003F004033B603B6800BF2437BD465DF85F
S31508008960047B7047B00D00200038024080B582B005
S3150800897000AF134B1B78052B1ED100F0FDFD00231D
S31508008980FB710FE0FA790F4913465B001344DB00CD
S315080089900B441A78FB791146184600F015F8FB794E
S315080089A00133FB71FB79092BECD9054B1B7843F096
S315080089B00803DAB2024B1A7000BF0837BD4680BDFD
S315080089C0AC0D0020CC0D0020B0B596B000AF034624
S315080089D00A46FB711346BB71C34B1B7803F00503AC
S315080089E0052B40F07D81002387F85730BB7903F0CB
S315080089F00F03002B06DDBB7903F00F03DBB2013B47
S31508008A0087F85730002387F85630BB791B09DBB245
S31508008A10002B05D0BB791B09DBB2013B87F8563022
S31508008A20FA7997F85600F97997F85640AF4D0B46FC
S31508008A309B000B4423445B012B4418331968AB4C49
S31508008A4013469B00134403445B0123441C331B68F1
S31508008A500B60FA7997F85610A44813469B001344FE
S31508008A600B445B01034418331B6800229A60FA79A9
S31508008A7097F856109D4813469B0013440B445B0118
S31508008A80034418331B6800221A61FA7997F85610BE
S31508008A90964813469B0013440B445B010344183362
S31508008AA01B6800225A61FA7997F856108F481346C0
S31508008AB09B0013440B445B01034418331B684FF4B3
S31508008AC07A72DA6097F85730894A32F81340FA7999
S31508008AD097F85610854813469B0013440B445B01D0
S31508008AE0034418331B6822465A60FA7997F85610D9
S31508008AF07E4813469B0013440B445B01034418331A
S31508008B001B681846FEF7EAFD4FF480537B64FA7932
S31508008B1097F85610754813469B0013440B445B019F
S31508008B20034418331B6807F1440211461846FFF739
S31508008B3051F9FA7997F856106C4813469B00134476
S31508008B400B445B01034418331B681846FEF778FE8E
S31508008B502023FB6300233B64FA7997F85610634891
S31508008B6013469B0013440B445B01034418331B68EC
S31508008B7007F13C0211461846FFF7E8FC07F1200307
S31508008B8000221A605A609A60DA601A615A619A611C
S31508008B9060233B6200237B620023BB6200233B63A6
S31508008BA0FA7997F85610514813469B0013440B441C
S31508008BB05B01034418331868FA7997F856104B4C3A
S31508008BC013469B0013440B445B01234414331A6871
S31508008BD007F120031946FFF73BF8FA7997F856107C
S31508008BE0424813469B0013440B445B0103441B880D
S31508008BF0FB60FA7997F856103C4813469B001344D5
S31508008C000B445B0103440C331B683B6100237B6107
S31508008C100223BB61FA7997F85610344813469B002D
S31508008C2013440B445B01034410331B68FB61FA7958
S31508008C3097F856102D4813469B0013440B445B01C6
S31508008C40034404331868FA7997F85610274C1346E4
S31508008C509B0013440B445B0123441C88FA7997F85C
S31508008C605610224D13469B0013440B445B012B44BC
S31508008C7008331B781A462146FDF782FCFA7997F8DD
S31508008C8056101A4813469B0013440B445B010344D1
S31508008C9004331B6807F10C0211461846FDF7D4FA8F
S31508008CA097F85630012B1CD1FA7997F856100F48C9
S31508008CB013469B0013440B445B010344183318689E
S31508008CC0FA7997F85610094C13469B0013440B443F
S31508008CD05B01234414331B681946FEF701FE00E0C6
S31508008CE000BF5837BD46B0BDAC0D0020F8000020C7
S31508008CF07000002080B582B000AF154B1B7803F0DA
S31508008D000103002B1DD000F09DF900F0AFF900F02B
S31508008D1031FA00F081FA00F011FB0D4B1B7803F0D5
S31508008D200803002B0FD00023FB7106E0FB791846D9
S31508008D3000F010F8FB790133FB71FB79092BF5D9A3
S31508008D4002E000BF00E000BF0837BD4680BD00BF97
S31508008D50AC0D002090B585B000AF0346FB71FA79DB
S31508008D60B04913465B001344DB000B4414331B78ED
S31508008D70012B00F05181FA79AA4913465B00134486
S31508008D80DB000B441B781B09DBB2013BFB73FB7B47
S31508008D90022B00F24381FB7B012B40F0FB80FA7922
S31508008DA0A04913465B001344DB000B4402331B88BF
S31508008DB0B3F57A7F80F08780FA79F97B9A4813466B
S31508008DC09B0013440B445B01034414331B68002BBC
S31508008DD017D1FA79934913465B001344DB000B4419
S31508008DE002331C88FA79F97B8F4813469B00134493
S31508008DF00B445B01034418331B681B6822465A63FD
S31508008E000DE1FA79F97B884813469B0013440B4415
S31508008E105B01034414331B68042B17D1FA79814983
S31508008E2013465B001344DB000B4402331C88FA79B3
S31508008E30F97B7D4813469B0013440B445B010344AE
S31508008E4018331B681A6823469363E8E0FA79F97BB6
S31508008E50754813469B0013440B445B0103441433C3
S31508008E601B68082B17D1FA796E4913465B00134421
S31508008E70DB000B4402331C88FA79F97B6A481346EF
S31508008E809B0013440B445B01034418331B681A68A0
S31508008E902346D363C3E0FA79624913465B00134459
S31508008EA0DB000B4402331C88FA79F97B5E481346CB
S31508008EB09B0013440B445B01034418331B681A6870
S31508008EC023461364ABE0FA79F97B574813469B00AF
S31508008ED013440B445B01034414331B68002B0FD166
S31508008EE0FA79F97B504813469B0013440B445B01FF
S31508008EF0034418331B681B6840F2E9325A638EE054
S31508008F00FA79F97B484813469B0013440B445B01E6
S31508008F10034414331B68042B0FD1FA79F97B4248B2
S31508008F2013469B0013440B445B01034418331B6828
S31508008F301A6840F2E933936371E0FA79F97B3A48A3
S31508008F4013469B0013440B445B01034414331B680C
S31508008F50082B0FD1FA79F97B334813469B00134443
S31508008F600B445B01034418331B681A6840F2E93363
S31508008F70D36354E0FA79F97B2B4813469B001344D4
S31508008F800B445B01034418331B681A6840F2E93343
S31508008F90136444E0FB7B022B41D1FA79214913463D
S31508008FA05B001344DB000B4402331B88002B19D1EA
S31508008FB0FA79F97B1C4813469B0013440B445B0162
S31508008FC0034404331868FA79F97B174C13469B0057
S31508008FD013440B445B0123441B8800221946FDF702
S31508008FE0CFFA1CE0FA79F97B0F4813469B00134425
S31508008FF00B445B01034404331868FA79F97B0A4C7D
S3150800900013469B0013440B445B0123441B8801222F
S315080090101946FDF7B5FA02E000BF00E000BF1437B5
S31508009020BD4690BDCC0D0020F800002080B500AFED
S3150800903000F036FB00F094FB00F052FA00F0C6FA96
S3150800904000BF80BD80B500AF074BDB7C0E2B09D96E
S31508009050054BDB7D43F01003DAB2034BDA7500F0FB
S31508009060A5F900BF80BD00BFB00D002080B500AFD8
S315080090703E4BB3F90630962B05DC3C4BB3F906306C
S3150800908013F1190F38DA394B1B89B3F5FA7F05D86E
S31508009090364B1B8901339AB2344B1A81334B1B89E1
S315080090A0B3F5FA7F0AD2314BB3F90630C82B05DC83
S315080090B02E4BB3F9063013F1280F53DA2B4B4FF426
S315080090C07A721A81294BDB7D43F00103DAB2274B0A
S315080090D0DA7500F06BF900224FF400712448FDF7A9
S315080090E04FFA224B00225A76204B1B7D43F0010390
S315080090F0DAB21E4B1A7535E01C4B1B89002B05D0BE
S315080091001A4B1B89013B9AB2184B1A81174B1B89BC
S31508009110B3F5C87F08D201224FF400711448FDF751
S315080091202FFA124B01225A76104B1B89002B1AD1A3
S315080091300E4BDB7D03F00103002B14D00B4BDB7DBC
S3150800914023F00103DAB2094BDA7500F085F9074B0B
S315080091501B7D23F00103DAB2044B1A75034B002278
S315080091601A8100E000BF00BF80BD00BFB00D00201F
S315080091700008024080B500AF244B1B88002B05D0A1
S31508009180224B1B88013B9AB2204B1A80204B9B88A6
S31508009190B3F5FA5F1BD91D4B1B88002B17D11D4B46
S315080091A01B78002B13D11A4BDB7D23F00203DAB2AE
S315080091B0174BDA7500F050F9164B01221A70144B4A
S315080091C01B7D23F00203DAB2114B1A751BE0104B14
S315080091D09B88B3F5FA5F16D200F0E8F80C4BDB7DF6
S315080091E043F00203DAB20A4BDA75084B4FF47A7287
S315080091F01A80084B00221A70054B1B7D43F00203A8
S31508009200DAB2034B1A7500BF80BD00BFCA0E002034
S31508009210B00D0020CC0E002080B500AF454BB3F949
S315080092200C3042F21072934231DD424BB3F90C30E6
S3150800923042F6E062934205DD3E4BDB891E339AB265
S315080092403C4BDA813B4BDB895A1C91B2394AD181B6
S3150800925040F6B732934212D9364BDB7D43F008030A
S31508009260DAB2344BDA7500F0A1F8324B41F28832A3
S31508009270DA81314B00221A802E4B01229A752D4B2A
S315080092801B7D43F00803DAB22A4B1A7531E0294BE5
S315080092901B7D03F00803002B22D0264BDB89002B0D
S315080092A005D0244BDB89013B9AB2224BDA81214B4C
S315080092B0DB89002B1DD11F4BDB7C0E2B19D81D4BD0
S315080092C0DB7D23F00803DAB21A4BDA7500F0C4F82E
S315080092D0184B1B7D23F00803DAB2164B1A7508E003
S315080092E0144B1B7D03F00803002B02D1114B0022FF
S315080092F0DA81104B9B7D002B1AD10F4B1B885A1C09
S3150800930091B20D4A11804EF65F22934210D90A4B4C
S3150800931000221A80074BDB7C002B09D0054BDB7C2F
S315080093200E2B05D8034BDB7C013BDAB2014BDA7412
S3150800933000BF80BDB00D0020BC0E002080B500AF78
S31508009340194BB3F900305A2B10DD174BDB7D43F070
S315080093500403DAB2144BDA7500F028F8124B1B7DB9
S3150800936043F00403DAB2104B1A751AE00E4B1B7D54
S3150800937003F00403002B14D00B4BB3F900303B2B3E
S315080093800FDC094BDB7D23F00403DAB2064BDA75F2
S3150800939000F062F8044B1B7D23F00403DAB2024B9B
S315080093A01A7500BF80BD00BFB00D002080B582B021
S315080093B000AF264BDB7D03F02003002B3FD1234B68
S315080093C0DB7D03F01F03002B3BD000224FF4007116
S315080093D01F48FDF7D5F81D4B00221A761B4BDB7D7F
S315080093E043F02003DAB2194BDA75184BDB7C0133EC
S315080093F0DAB2164BDA740023FB711CE0FA791549C8
S3150800940013465B001344DB000B44143301221A7025
S31508009410FA79104913465B001344DB000B441B78AA
S3150800942003F00F03DAB2FB7911461846FFF7CCFAB8
S31508009430FB790133FB71FB79092BDFD902E000BF09
S3150800944000E000BF0837BD4680BD00BFB00D002054
S3150800945000000240CC0D002080B582B000AF1D4B45
S31508009460DB7D03F01F03002B30DC01224FF4007173
S315080094701948FDF785F8174B01221A76154BDB7D3F
S3150800948023F02003DAB2134BDA750023FB7119E0D7
S31508009490FA79124913465B001344DB000B44143374
S315080094A000221A70FA790D4913465B001344DB0053
S315080094B00B441A78FB7911461846FFF785FAFB79AB
S315080094C00133FB71FB79092BE2D900E000BF0837AD
S315080094D0BD4680BDB00D002000000240CC0D002026
S315080094E080B588B002AF06237B600123BB600323E7
S315080094F0FB603B1D19461A48FBF7C6FF1848FBF7E1
