S017000032302D33302D332D332D302D302D322E7372656342
S3150800400000000120A56100086D58000873580008D3
S31508004010795800087F5800088558000800000000F5
S3150800402000000000000000000000000061D7000842
S315080040308B58000800000000B1D9000819DA0008FA
S31508004040F5610008F5610008F5610008F5610008EA
S31508004050F5610008F5610008F5610008F5610008DA
S31508004060F5610008F5610008F5610008F5610008CA
S31508004070F5610008F5610008F5610008F5610008BA
S31508004080F5610008F5610008F56100080000000008
S31508004090000000000000000000000000F5610008B4
S315080040A0F5610008F561000899580008F5610008EF
S315080040B0F5610008F5610008F5610008F56100087A
S315080040C0F5610008F5610008F5610008F56100086A
S315080040D0AD580008F5610008F56100080000000009
S315080040E0F5610008F5610008F561000800000000A8
S315080040F0000000000000000000000000F561000854
S3150800410000000000F5610008F5610008F561000887
S315080041100000000000000000000000000000000091
S31508004120C1580008F5610008F5610008D55800086F
S31508004130F561000800000000000000000000000013
S31508004140000000000000000000000000F561000803
S31508004150F5610008F5610008F5610008F5610008D9
S31508004160F5610008F5610008000000000000000085
S315080041700000000000000000000000000000000031
S3150800418000000000F56100080000000000000000C3
S30908004190F5610008BF
S315080041A010B5054C237833B9044B13B10448AFF363
S315080041B000800123237010BDCC05002000000000FC
S315080041C0DC13010808B5034B1BB103490348AFF3D9
S315080041D0008008BD00000000D0050020DC1301089F
S315080041E0034613F8012B002AFBD1181A0138704729
S315080041F001F0FF01102A2BDB10F0070F08D010F88A
S31508004200013B013A8B422DD010F0070F42B3F6D18D
S31508004210F0B441EA012141EA014122F007047FF0A6
S3150800422000070023F0E80256083C85EA010586EAFD
S31508004230010685FA47F5A3FA87F586FA47F6A5FA39
S3150800424087F68EB9EED1F0BC01F0FF0102F0070245
S3150800425032B110F8013B013A83EA010313B1F8D1F0
S315080042600020704701387047002D06BF35460338D1
S31508004270073815F0010F07D1013015F4807F02BF0A
S31508004280013015F4C03F0130F0BC0138704700BF5B
S3150800429081F0004102E000BF83F0004330B54FEAE9
S315080042A041044FEA430594EA050F08BF90EA020F56
S315080042B01FBF54EA000C55EA020C7FEA645C7FEAE9
S315080042C0655C00F0E2804FEA5454D4EB5555B8BF0C
S315080042D06D420CDD2C4480EA020281EA030382EA7D
S315080042E0000083EA010180EA020281EA0303362D0F
S315080042F088BF30BD11F0004F4FEA01314FF4801CE2
S315080043004CEA113102D0404261EB410113F0004FF3
S315080043104FEA03334CEA133302D0524263EB4303AA
S3150800432094EA050F00F0A780A4F10104D5F1200E48
S315080043300DDB02FA0EFC22FA05F2801841F10001A3
S3150800434003FA0EF2801843FA05F359410EE0A5F177
S3150800435020050EF1200E012A03FA0EFC28BF4CF0A8
S31508004360020C43FA05F3C01851EBE37101F000455E
S3150800437007D54FF0000EDCF1000C7EEB00006EEB6B
S315080043800101B1F5801F1BD3B1F5001F0CD34908F5
S315080043905FEA30004FEA3C0C04F101044FEA44524C
S315080043A012F5800F80F09A80BCF1004F08BF5FEAD3
S315080043B0500C50F1000041EB045141EA050130BDB3
S315080043C05FEA4C0C404141EB0101013C28BFB1F5C5
S315080043D0801FE9D291F0000F04BF01460020B1FA10
S315080043E081F308BF2033A3F10B03B3F120020CDAE3
S315080043F00C3208DD02F1140CC2F10C0201FA0CF0C1
S3150800440021FA02F10CE002F11402D8BFC2F1200C25
S3150800441001FA02F120FA0CFCDCBF41EA0C019040DB
S31508004420E41AA2BF01EB0451294330BD6FEA040424
S315080044301F3C1CDA0C340EDC04F11404C4F120020F
S3150800444020FA04F001FA02F340EA030021FA04F321
S3150800445045EA030130BDC4F10C04C4F1200220FA78
S3150800446002F001FA04F340EA0300294630BD21FAB6
S3150800447004F0294630BD94F0000F83F4801306BF7C
S3150800448081F480110134013D4EE77FEA645C18BF70
S315080044907FEA655C29D094EA050F08BF90EA020F07
S315080044A005D054EA000C04BF1946104630BD91EAFF
S315080044B0030F1EBF0021002030BD5FEA545C05D102
S315080044C04000494128BF41F0004130BD14F5800441
S315080044D03CBF01F5801130BD01F0004545F0FE41B5
S315080044E041F470014FF0000030BD7FEA645C1ABFEA
S315080044F0194610467FEA655C1CBF0B46024650EA21
S31508004500013406BF52EA033591EA030F41F400214C
S3150800451030BD00BF90F0000F04BF0021704730B5D2
S315080045204FF4806404F132044FF000054FF00001A7
S3150800453050E700BF90F0000F04BF0021704730B568
S315080045404FF4806404F1320410F0004548BF40423D
S315080045504FF000013EE700BF42004FEAE2014FEA92
S3150800456031014FEA02701FBF12F07F4393F07F4F6D
S3150800457081F06051704732F07F4208BF704793F070
S315080045807F4F04BF41F40021704730B54FF4607483
S3150800459001F0004521F000411CE700BF50EA010286
S315080045A008BF704730B54FF000050AE050EA01022F
S315080045B008BF704730B511F0004502D5404261EB9F
S315080045C041014FF4806404F132045FEA915C3FF4E0
S315080045D0D8AE4FF003025FEADC0C18BF03325FEA7D
S315080045E0DC0C18BF033202EBDC02C2F1200300FA2E
S315080045F003FC20FA02F001FA03FE40EA0E0021FA53
S3150800460002F11444BDE600BF70B54FF0FF0C4CF440
S31508004610E06C1CEA11541DBF1CEA135594EA0C0FF2
S3150800462095EA0C0F00F0DEF82C4481EA030621EA2D
S315080046304C5123EA4C5350EA013518BF52EA033568
S3150800464041F4801143F4801338D0A0FB02CE4FF01A
S315080046500005E1FB02E506F00042E0FB03E54FF04A
S315080046600006E1FB03569CF0000F18BF4EF0010E42
S31508004670A4F1FF04B6F5007F64F5407404D25FEA3E
S315080046804E0E6D4146EB060642EAC62141EA5551F1
S315080046904FEAC52040EA5E504FEACE2EB4F1FD0C33
S315080046A088BFBCF5E06F1ED8BEF1004F08BF5FEAB1
S315080046B0500E50F1000041EB045170BD06F0004663
S315080046C046EA010140EA020081EA0301B4EB5C0410
S315080046D0C2BFD4EB0C0541EA045170BD41F4801108
S315080046E04FF0000E013C00F3AB8014F1360FDEBF2D
S315080046F0002001F0004170BDC4F10004203C35DA09
S315080047000C341BDC04F11404C4F1200500FA05F38B
S3150800471020FA04F001FA05F240EA020001F000422C
S3150800472021F0004110EBD37021FA04F642EB0601A2
S315080047305EEA430E08BF20EAD37070BDC4F10C04CC
S31508004740C4F1200500FA04F320FA05F001FA04F290
S3150800475040EA020001F0004110EBD37041F100017C
S315080047605EEA430E08BF20EAD37070BDC4F1200587
S3150800477000FA05F24EEA020E20FA04F301FA05F2EF
S3150800478043EA020321FA04F001F0004121FA04F297
S3150800479020EA020000EBD3705EEA430E08BF20EA67
S315080047A0D37070BD94F0000F0FD101F000464000A1
S315080047B041EB010111F4801F08BF013CF7D041EA23
S315080047C0060195F0000F18BF704703F00046520027
S315080047D043EB030313F4801F08BF013DF7D043EAF8
S315080047E00603704794EA0C0F0CEA135518BF95EAAE
S315080047F00C0F0CD050EA410618BF52EA4306D1D135
S3150800480081EA030101F000414FF0000070BD50EA53
S31508004810410606BF1046194652EA430619D094EADD
S315080048200C0F02D150EA013613D195EA0C0F05D1C7
S3150800483052EA03361CBF104619460AD181EA03011B
S3150800484001F0004141F0FE4141F470014FF00000D3
S3150800485070BD41F0FE4141F4780170BD70B54FF06E
S31508004860FF0C4CF4E06C1CEA11541DBF1CEA1355EE
S3150800487094EA0C0F95EA0C0F00F0A7F8A4EB0504D0
S3150800488081EA030E52EA03354FEA013100F08880C7
S315080048904FEA03334FF0805545EA131343EA126390
S315080048A04FEA022245EA111545EA10654FEA002645
S315080048B00EF000419D4208BF964244F1FD0404F5FE
S315080048C0407402D25B084FEA3202B61A65EB03055A
S315080048D05B084FEA32024FF480104FF4002CB6EB17
S315080048E0020E75EB030E22BFB61A754640EA0C0097
S315080048F05B084FEA3202B6EB020E75EB030E22BFD7
S31508004900B61A754640EA5C005B084FEA3202B6EB17
S31508004910020E75EB030E22BFB61A754640EA9C00D6
S315080049205B084FEA3202B6EB020E75EB030E22BFA6
S31508004930B61A754640EADC0055EA060E18D04FEA64
S31508004940051545EA16754FEA06164FEAC30343EA04
S3150800495052734FEAC2025FEA1C1CC0D111F4801FD1
S315080049600BD141EA00014FF000004FF0004CB6E7CA
S3150800497011F4801F04BF01430020B4F1FD0C88BF69
S31508004980BCF5E06F3FF6AFAEB5EB030C04BFB6EB74
S31508004990020C5FEA500C50F1000041EB045170BD67
S315080049A00EF0004E4EEA113114EB5C04C2BFD4EB94
S315080049B00C0541EA045170BD41F480114FF0000E18
S315080049C0013C90E645EA060E8DE60CEA135594EA94
S315080049D00C0F08BF95EA0C0F3FF43BAF94EA0C0F97
S315080049E00AD150EA01347FF434AF95EA0C0F7FF40C
S315080049F025AF104619462CE795EA0C0F06D152EA60
S31508004A0003353FF4FDAE1046194622E750EA410643
S31508004A1018BF52EA43067FF4C5AE50EA41047FF454
S31508004A200DAF52EA43057FF4EBAE12E74FF0FF3CB9
S31508004A3006E000BF4FF0010C02E000BF4FF0010C8A
S31508004A404DF804CD4FEA410C7FEA6C5C4FEA430C03
S31508004A5018BF7FEA6C5C1BD001B050EA410C0CBF52
S31508004A6052EA430C91EA030F02BF90EA020F0020B4
S31508004A70704710F1000F91EA030F58BF994208BF1B
S31508004A8090422CBFD8176FEAE37040F001007047D8
S31508004A904FEA410C7FEA6C5C02D150EA013C07D12F
S31508004AA04FEA430C7FEA6C5CD6D152EA033CD3D07A
S31508004AB05DF8040B704700BF8446104662468C4674
S31508004AC01946634600E000BF01B5FFF7B7FF0028A7
S31508004AD048BF10F1000F01BD4DF808EDFFF7F4FFD0
S31508004AE00CBF012000205DF808FB00BF4DF808ED5B
S31508004AF0FFF7EAFF34BF012000205DF808FB00BF7E
S31508004B004DF808EDFFF7E0FF94BF012000205DF89F
S31508004B1008FB00BF4DF808EDFFF7CEFF94BF012054
S31508004B2000205DF808FB00BF4DF808EDFFF7C4FF4D
S31508004B3034BF012000205DF808FB00BF4FEA410C96
S31508004B407FEA6C5C02D150EA013C0AD14FEA430C79
S31508004B507FEA6C5C02D152EA033C02D14FF00000B6
S31508004B6070474FF0010070474FEA410212F50012F4
S31508004B7015D211D56FF47873B3EB625212D94FEA96
S31508004B80C12343F0004343EA505311F0004F23FA80
S31508004B9002F018BF404270474FF00000704750EAD5
S31508004BA0013005D111F0004008BF6FF00040704792
S31508004BB04FF00000704700BF53B94AB9002908BF33
S31508004BC000281CBF4FF0FF314FF0FF3000F074B9DA
S31508004BD0ADF1080C6DE904CE00F006F8DDF804E046
S31508004BE0DDE9022304B070472DE9F047089D044625
S31508004BF08E46002B4DD18A42944669D9B2FA82F282
S31508004C0052B101FA02F3C2F1200120FA01F10CFABD
S31508004C1002FC41EA030E94404FEA1C48210CBEFBF5
S31508004C20F8F61FFA8CF708FB16E341EA034306FB7E
S31508004C3007F199420AD91CEB030306F1FF3080F00D
S31508004C401F81994240F21C81023E63445B1AA4B25A
S31508004C50B3FBF8F008FB103344EA034400FB07F7FC
S31508004C60A7420AD91CEB040400F1FF3380F00A813D
S31508004C70A74240F207816444023840EA0640E41B32
S31508004C8000261DB1D4400023C5E900433146BDE8DE
S31508004C90F0878B4209D9002D00F0EF800026C5E980
S31508004CA0000130463146BDE8F087B3FA83F6002E98
S31508004CB04AD18B4202D3824200F2F980841A61EB10
S31508004CC0030301209E46002DE0D0C5E9004EDDE72E
S31508004CD002B9FFDEB2FA82F2002A40F09280A1EB16
S31508004CE00C014FEA1C471FFA8CFE0126200CB1FB6B
S31508004CF0F7F307FB131140EA01410EFB03F0884264
S31508004D0008D91CEB010103F1FF3802D2884200F2F0
S31508004D10CB804346091AA4B2B1FBF7F007FB101182
S31508004D2044EA01440EFB00FEA64508D91CEB040420
S31508004D3000F1FF3102D2A64500F2BB800846A4EB7B
S31508004D400E0440EA03409CE7C6F12007B34022FA66
S31508004D5007FC4CEA030C20FA07F401FA06F31C4395
S31508004D60F9404FEA1C4900FA06F3B1FBF9F8200CA2
S31508004D701FFA8CFE09FB181140EA014108FB0EF0E8
S31508004D80884202FA06F20BD91CEB010108F1FF3A38
S31508004D9080F08880884240F28580A8F10208614444
S31508004DA0091AA4B2B1FBF9F009FB101144EA014152
S31508004DB000FB0EFE8E4508D91CEB010100F1FF34FD
S31508004DC06CD28E456AD90238614440EA0840A0FB95
S31508004DD00294A1EB0E01A142C846A64656D353D06B
S31508004DE05DB1B3EB080261EB0E0101FA07F722FA8F
S31508004DF006F3F1401F43C5E9007100263146BDE8B8
S31508004E00F087C2F12003D8400CFA02FC21FA03F31A
S31508004E10914001434FEA1C471FFA8CFEB3FBF7F09B
S31508004E2007FB10360B0C43EA064300FB0EF69E42C0
S31508004E3004FA02F408D91CEB030300F1FF382FD259
S31508004E409E422DD9023863449B1B89B2B3FBF7F601
S31508004E5007FB163341EA034106FB0EF38B4208D9DA
S31508004E601CEB010106F1FF3816D28B4214D9023E1B
S31508004E706144C91A46EA004638E72E46284605E739
S31508004E800646E3E61846F8E64B45A9D2B9EB02080A
S31508004E9064EB0C0E0138A3E74646EAE7204694E79A
S31508004EA04046D1E7D0467BE7023B614432E73046CD
S31508004EB009E76444023842E7704700BF80B584B00A
S31508004EC000AF3B4600221A605A609A60DA60214BAE
S31508004ED0214A1A601F4B4FF480325A601D4B00223C
S31508004EE09A601C4B00221A611A4B00221A76194B3B
S31508004EF0002283F82020174B0022DA62154B174A46
S31508004F009A62144B0022DA60124B0122DA61114BC5
S31508004F10002283F830200F4B01225A610D4801F018
S31508004F20ADF90346002B01D000F0C2FA00233B601E
S31508004F3001237B600023BB603B461946054801F008
S31508004F402DFB0346002B01D000F0B2FA00BF103744
S31508004F50BD4680BDE8050020002001400100000F85
S31508004F6080B58AB000AF786007F1140300221A6092
S31508004F705A609A60DA601A617B681B68244A934211
S31508004F8041D100233B61234B5B6C224A43F4807377
S31508004F905364204B5B6C03F480733B613B690023CD
S31508004FA0FB601C4B1B6B1B4A43F001031363194B35
S31508004FB01B6B03F00103FB60FB680023BB60154B0A
S31508004FC01B6B144A43F004031363124B1B6B03F069
S31508004FD00403BB60BB6803237B610323BB61002317
S31508004FE0FB6107F1140319460B4802F0D9F930237F
S31508004FF07B610323BB610023FB6107F11403194698
S31508005000064802F0CDF900BF2837BD4680BD00BF6F
S31508005010002001400038024000000240000802401B
S3150800502080B582B000AF00237B60104B1B6B0F4A24
S3150800503043F4800313630D4B1B6B03F480037B60FF
S315080050407B6800220521382001F07EFD382001F01A
S3150800505097FD002205213B2001F076FD3B2001F05B
S315080050608FFD00BF0837BD4680BD00BF003802402F
S3150800507080B485B000AFF860B9607A60FB68074A0B
S315080050801A60BB68064A1A607B6880221A6000BFED
S315080050901437BD465DF8047B704700BF3C06002008
S315080050A0F0060020B0B596B000AF1D4B07F13C04E2
S315080050B01D460FCD0FC495E8070084E8070007F1E1
S315080050C03C030021184607F07CFC0346154A13608A
S315080050D0154B07F120041D460FCD0FC495E80700B0
S315080050E084E8070007F120030021184607F069FC49
S315080050F003460E4A13600E4B3C1D1D460FCD0FC4CA
S3150800510095E8070084E807003B1D0021184607F0CC
S3150800511058FC0346074A136000BF5837BD46B0BD62
S315080051202414010830060020401401083406002023
S315080051305C1401083806002080B582B000AF78609C
S3150800514005F028FD06F04EF80A2007F086FCF7E77A
S3150800515080B582B000AF786006F02CF806F051F8FA
S31508005160012007F07AFCF7E780B582B000AF7860D7
S3150800517006F03FF8642007F070FCF9E780B58AB0BE
S3150800518000AF07F1140300221A605A609A60DA60C9
S315080051901A6100233B61624B1B6B614A43F00403AF
S315080051A013635F4B1B6B03F004033B613B690023EE
S315080051B0FB605B4B1B6B5A4A43F080031363584BE7
S315080051C01B6B03F08003FB60FB680023BB60544B3A
S315080051D01B6B534A43F001031363514B1B6B03F0DC
S315080051E00103BB60BB6800237B604D4B1B6B4C4ABD
S315080051F043F0020313634A4B1B6B03F002037B6005
S315080052007B6800233B60464B1B6B454A43F008030B
S315080052101363434B1B6B03F008033B603B68002298
S3150800522043F60B013F4802F057FA012204213D4894
S3150800523002F052FA00224FF4C0513B4802F04CFAF1
S3150800524000220421394802F047FA43F60B037B6132
S315080052500123BB610023FB6100233B6207F11403B2
S315080052601946304802F09CF804237B610123BB6190
S315080052700023FB6101233B6207F114031946294801
S3150800528002F08EF84FF480637B611223BB61002322
S31508005290FB6103233B6204237B6207F1140319466F
S315080052A0234802F07DF84FF480537B614FF488134E
S315080052B0BB610023FB6107F1140319461C4802F081
S315080052C06FF84FF4C0537B610123BB610023FB6178
S315080052D000233B6207F114031946134802F060F8ED
S315080052E04FF480637B610023BB610023FB6107F1F8
S315080052F0140319460B4802F053F804237B61012373
S31508005300BB610023FB6100233B6207F114031946C6
S31508005310064802F045F800BF2837BD4680BD00BFE5
S31508005320003802400008024000000240000C02401B
S315080053300004024080B500AF00F05EFF00F020F8E0
S3150800534000F0AAFB00F000FC00F062FC00F0DAFCBA
S31508005350FFF7B4FDFFF712FFFFF762FE00F0AEF8A5
S3150800536000F0DEF800F0EEFD00F016FE00F03EFE5E
S3150800537007F04EF8FFF796FE07F01CFBFEE7000065
S3150800538080B594B000AF07F12003302200211846FB
S3150800539009F0D7F907F10C0300221A605A609A60DF
S315080053A0DA601A610023BB60294B1B6C284A43F05C
S315080053B080531364264B1B6C03F08053BB60BB6899
S315080053C000237B60234B1B6823F44043214A43F4A4
S315080053D0004313601F4B1B6803F440437B607B68E4
S315080053E009233B624FF480337B6201237B630223EC
S315080053F0BB634FF48003FB6306233B6454237B643F
S315080054000223BB640423FB6407F12003184602F059
S3150800541097F90346002B01D000F04AF80F23FB60EA
S3150800542002233B6100237B614FF48053BB61002359
S31508005430FB6107F10C030221184602F0F9FB03464B
S31508005440002B01D000F034F800BF5037BD4680BDB0
S31508005450003802400070004080B582B000AF786026
S315080054607B681B68044A934201D107F02FF800BFF6
S315080054700837BD4680BD00BF0030014080B582B008
S3150800548000AF78607B681B68074A934201D100F039
S31508005490D5FE7B681B68054A934201D105F074FE68
S315080054A000BF0837BD4680BD0048014000440140A2
S315080054B080B400AF72B600BFFEE7000080B500AF4B
S315080054C0154B164A1A60144B00225A60124B0022DA
S315080054D09A60114B0022DA600F4B00221A610E4BBC
S315080054E000225A610C4B00229A610B4B00221A6269
S315080054F0094B00225A62084B00229A62064B0A227E
S31508005500DA62054802F0A6FD0346002B01D0FFF734
S31508005510CFFF00BF80BD00BFF0080020003001406B
S3150800552080B500AF174B184A1A60164B4FF48272B3
S315080055305A60144B00229A60124B0022DA60114B13
S3150800554000221A610F4B00225A610E4B4FF400726B
S315080055509A610C4B1022DA610A4B00221A62094B37
S3150800556000225A62074B00229A62064B0A22DA6226
S31508005570044802F06FFD0346002B01D0FFF798FFA1
S3150800558000BF80BD480900200038004080B58CB0B7
S3150800559000AF786007F11C0300221A605A609A600F
S315080055A0DA601A617B681B68654A934240F0898015
S315080055B00023BB61634B5B6C624A43F480535364BC
S315080055C0604B5B6C03F48053BB61BB6900237B6152
S315080055D05C4B1B6B5B4A43F001031363594B1B6B14
S315080055E003F001037B617B69F023FB6102233B62C5
S315080055F000237B620323BB620523FB6207F11C03BE
S315080056001946514801F0CCFE504B514A1A604F4B8F
S315080056104FF0C0625A604D4B00229A604B4B0022F5
S31508005620DA604A4B4FF480621A61484B00225A618D
S31508005630464B00229A61454B0022DA61434B002211
S315080056401A62424B00225A62404801F0A7FA034602
S31508005650002B01D0FFF72CFF7B683C4ADA643B4AF3
S315080056607B6893633B4B3C4A1A603A4B4FF0C062E7
S315080056705A60384B40229A60364B0022DA60354B26
S315080056804FF480621A61334B00225A61314B002273
S315080056909A61304B0022DA612E4B00221A622D4B9A
S315080056A000225A622B4801F079FA0346002B01D0F2
S315080056B0FFF7FEFE7B68274A9A64264A7B6893634F
S315080056C039E07B681B68254A934234D100233B6145
S315080056D01C4B1B6C1B4A43F480431364194B1B6C0D
S315080056E003F480433B613B690023FB60154B1B6B4E
S315080056F0144A43F002031363124B1B6B03F00203B5
S31508005700FB60FB684FF46043FB6102233B620023A6
S315080057107B620323BB620523FB6207F11C03194660
S315080057200F4801F03DFE00220521242001F00CFA65
S31508005730242001F025FA00BF3037BD4680BD00BFE2
S31508005740003001400038024000000240A009002055
S3150800575010640240000A00205864024000380040E5
S315080057600004024080B582B000AF00237B60124B74
S315080057705B6C114A43F4804353640F4B5B6C03F430
S3150800578080437B607B6800233B600B4B1B6C0A4A9B
S3150800579043F080531364084B1B6C03F080533B6043
S315080057A03B6800220F216FF0010001F0CDF900BF20
S315080057B00837BD4680BD00BF0038024080B58CB0B2
S315080057C000AF78600023FB620023BB620022796881
S315080057D01A2001F0B9F91A2001F0D2F90023FB606A
S315080057E01E4B5B6C1D4A43F4802353641B4B5B6C56
S315080057F003F48023FB60FB6807F1100207F114032A
S315080058001146184602F0F4FB02F0DEFBF862FB6A6A
S31508005810134AA2FB03239B0C013BBB62114B124AA2
S315080058201A60104B40F2E732DA600E4ABB6A5360E0
S315080058300C4B00221A610B4B00229A60094803F0B0
S3150800584037FD0346002B04D1064803F081FD0346C5
S3150800585000E0012318463037BD4680BD00380240B7
S3150800586083DE1B43600A00200048014080B400AF75
S31508005870FEE780B400AFFEE780B400AFFEE780B471
S3150800588000AFFEE780B400AFFEE780B400AF00BF0C
S31508005890BD465DF8047B704780B500AF024803F04B
S315080058A0B9FE00BF80BD00BF600A002080B500AF0A
S315080058B0024803F0ABF900BF80BD00BF48090020CD
S315080058C080B500AF024801F001FB00BF80BD00BFF4
S315080058D0A009002080B500AF024801F0F7FA00BF22
S315080058E080BD00BF000A002080B400AF012318461F
S315080058F0BD465DF8047B704780B582B000AF78601E
S31508005900396008F0EDFD034616221A604FF0FF33A2
S3150800591018460837BD4680BD80B582B000AF7860AE
S315080059204FF0FF317868FFF7E7FFFEE780B586B0EE
S3150800593000AFF860B9607A6000237B610AE0AFF3D4
S3150800594000800146BB685A1CBA60CAB21A707B69E5
S3150800595001337B617A697B689A42F0DB7B6818467B
S315080059601837BD4680BD80B586B000AFF860B9600F
S315080059707A6000237B6109E0BB685A1CBA601B7811
S315080059801846AFF300807B6901337B617A697B68CF
S315080059909A42F1DB7B6818461837BD4680BD80B44D
S315080059A083B000AF78604FF0FF3318460C37BD461A
S315080059B05DF8047B704780B483B000AF78603960C7
S315080059C03B684FF400525A60002318460C37BD4610
S315080059D05DF8047B704780B483B000AF786001231C
S315080059E018460C37BD465DF8047B704780B485B011
S315080059F000AFF860B9607A60002318461437BD46D0
S31508005A005DF8047B7047000080B586B000AF78600B
S31508005A10144A154BD31A7B617B693B61134B1B6890
S31508005A20002B02D1114B124A1A60104B1A687B6878
S31508005A3013443A699A4207D208F052FD03460C22EB
S31508005A401A604FF0FF3309E0084B1B68FB60074BF1
S31508005A501A687B681344054A1360FB6818461837AA
S31508005A60BD4680BD0000012000080000A80A0020ED
S31508005A70604B002080B400AF064BD3F88830054A47
S31508005A8043F47003C2F8883000BFBD465DF8047B56
S31508005A90704700BF00ED00E080B58AB000AF07F19F
S31508005AA0200300221A605A603B1D00221A605A60C1
S31508005AB09A60DA601A615A619A61224B4FF0804205
S31508005AC01A60204B00225A601E4B00229A601D4B1A
S31508005AD08822DA601B4B00221A611A4B00229A614F
S31508005AE0184803F097FC0346002B01D0FFF7E0FCAB
S31508005AF000233B6200237B6207F120031946114805
S31508005B0004F00EFB0346002B01D0FFF7D1FC6023FF
S31508005B107B604423BB600023FB6000237B613B1D45
S31508005B2000221946074803F07DFE0346002B01D0E4
S31508005B30FFF7BEFC034800F07DF900BF2837BD46D5
S31508005B4080BD00BFAC0A002080B58AB000AF07F15F
S31508005B50200300221A605A603B1D00221A605A6010
S31508005B609A60DA601A615A619A61274B274A1A6065
S31508005B70254B54225A60244B00229A60224B4FF43C
S31508005B807A72DA60204B00221A611F4B00229A6152
S31508005B901D4803F03FFC0346002B01D0FFF788FCA5
S31508005BA000233B6200237B6207F12003194616484F
S31508005BB004F0B6FA0346002B01D0FFF779FC602300
S31508005BC07B600023BB600023FB6000237B613B1DD9
S31508005BD0082219460C4803F025FE0346002B01D07F
S31508005BE0FFF766FC3B1D0C221946074803F01AFE10
S31508005BF00346002B01D0FFF75BFC034800F01AF9B7
S31508005C0000BF2837BD4680BDF40A002000040040C6
S31508005C1080B58AB000AF07F1200300221A605A60E7
S31508005C203B1D00221A605A609A60DA601A615A614E
S31508005C309A61324B324A1A60304B00225A602F4B17
S31508005C4000229A602D4B4FF6FF72DA602B4B00222A
S31508005C501A612A4B00229A61284803F0DBFB0346A7
S31508005C60002B01D0FFF724FC00233B6200237B6254
S31508005C7007F120031946214804F052FA0346002B7F
S31508005C8001D0FFF715FC60237B600023BB6000236F
S31508005C90FB6000237B613B1D00221946174803F071
S31508005CA0C1FD0346002B01D0FFF702FC3B1D042271
S31508005CB01946124803F0B6FD0346002B01D0FFF73C
S31508005CC0F7FB3B1D082219460C4803F0ABFD0346BB
S31508005CD0002B01D0FFF7ECFB3B1D0C2219460748A9
S31508005CE003F0A0FD0346002B01D0FFF7E1FB0348B4
S31508005CF000F0A0F800BF2837BD4680BD3C0B002049
S31508005D000008004080B500AF114B124A1A60104BCC
S31508005D1000225A600E4B00229A600D4B5422DA601C
S31508005D200B4B00221A610A4B00229A61084803F0BD
S31508005D30BFFA0346002B01D0FFF7BAFB044803F06D
S31508005D4007FB0346002B01D0FFF7B2FB00BF80BD5F
S31508005D50840B00200044014080B487B000AF78600F
S31508005D607B681B68B3F1804F0ED100237B611D4B06
S31508005D701B6C1C4A43F0010313641A4B1B6C03F09B
S31508005D8001037B617B6926E07B681B68164A9342A0
S31508005D900ED100233B61134B1B6C124A43F00203DE
S31508005DA01364104B1B6C03F002033B613B6912E062
S31508005DB07B681B680D4A93420DD10023FB60094B93
S31508005DC01B6C084A43F004031364064B1B6C03F070
S31508005DD00403FB60FB6800BF1C37BD465DF8047B07
S31508005DE0704700BF00380240000400400008004029
S31508005DF080B485B000AF78607B681B680B4A934215
S31508005E000DD10023FB600A4B5B6C094A43F400334F
S31508005E105364074B5B6C03F40033FB60FB6800BFFD
S31508005E201437BD465DF8047B704700BF0044014047
S31508005E300038024080B58AB000AF786007F11403D5
S31508005E4000221A605A609A60DA601A617B681B68D9
S31508005E50B3F1804F1FD100233B61354B1B6B344A8E
S31508005E6043F001031363324B1B6B03F001033B61E1
S31508005E703B694FF400437B610223BB610023FB614E
S31508005E8000233B6201237B6207F114031946294864
S31508005E9001F086FA47E07B681B68274A93421ED1C1
S31508005EA00023FB60224B1B6B214A43F0020313635A
S31508005EB01F4B1B6B03F00203FB60FB6803237B612C
S31508005EC00223BB610023FB6100233B6202237B6242
S31508005ED007F114031946194801F062FA23E07B68B2
S31508005EE01B68174A93421ED10023BB60104B1B6BDD
S31508005EF00F4A43F0020313630D4B1B6B03F00203B7
S31508005F00BB60BB684FF470737B610223BB610023DF
S31508005F10FB6100233B6202237B6207F114031946E7
S31508005F20064801F03DFA00BF2837BD4680BD00BFD0
S31508005F30003802400000024000040040000402400D
S31508005F400008004080B500AF114B124A1A60104B8A
S31508005F504FF416425A600E4B00229A600C4B0022F0
S31508005F60DA600B4B00221A61094B0C225A61084B66
S31508005F7000229A61064B0022DA61054804F052F9BC
S31508005F800346002B01D0FFF793FA00BF80BD00BF80
S31508005F90CC0B00200010014080B500AF114B124A0F
S31508005FA01A60104B4FF416425A600E4B00229A6044
S31508005FB00C4B0022DA600B4B00221A61094B0C22AB
S31508005FC05A61084B00229A61064B0022DA6105489D
S31508005FD004F028F90346002B01D0FFF769FA00BF41
S31508005FE080BD00BF100C00200044004080B500AF03
S31508005FF0114B124A1A60104B4FF416425A600E4B58
S3150800600000229A600C4B0022DA600B4B00221A61C0
S31508006010094B0C225A61084B00229A61064B002252
S31508006020DA61054804F0FEF80346002B01D0FFF7B5
S315080060303FFA00BF80BD00BF540C00200014014089
S3150800604080B58EB000AF786007F1240300221A608D
S315080060505A609A60DA601A617B681B684B4A9342F9
S315080060602DD100233B624A4B5B6C494A43F010032F
S315080060705364474B5B6C03F010033B623B6A002397
S31508006080FB61434B1B6B424A43F001031363404BCE
S315080060901B6B03F00103FB61FB694FF4C0637B6272
S315080060A00223BB620023FB6203233B6307237B6354
S315080060B007F124031946374801F072F962E07B6854
S315080060C01B68354A93422CD10023BB61304B1B6CAD
S315080060D02F4A43F4003313642D4B1B6C03F400332F
S315080060E0BB61BB6900237B61294B1B6B284A43F0C4
S315080060F001031363264B1B6B03F001037B617B696A
S315080061000C237B620223BB620023FB6203233B63EF
S3150800611007237B6307F1240319461E4801F040F95B
S3150800612030E07B681B681D4A93422BD100233B61F4
S31508006130174B5B6C164A43F020035364144B5B6C95
S3150800614003F020033B613B690023FB60104B1B6B8C
S315080061500F4A43F0040313630D4B1B6B03F0040350
S31508006160FB60FB68C0237B620223BB620023FB62E1
S3150800617003233B6308237B6307F124031946084876
S3150800618001F00EF900BF3837BD4680BD001001404A
S31508006190003802400000024000440040001401405C
S315080061A000080240DFF834D00D480E490E4A002395
S315080061B002E0D458C4500433C4188C42F9D30B4AAD
S315080061C00B4C002301E013600432A242FBD3FFF715
S315080061D051FC08F081FAFFF7ADF87047000001207E
S315080061E000000020CC05002044190108CC05002039
S315080061F05C4B0020FEE7000080B500AF0E4B1B6825
S315080062000D4A43F4007313600B4B1B680A4A43F4A8
S3150800621080631360084B1B68074A43F48073136056
S31508006220032000F086FC0F20FFF7C8FAFFF79AFA5A
S315080062300023184680BD00BF003C024080B400AF72
S31508006240064B1B781A46064B1B681344044A136010
S3150800625000BFBD465DF8047B704700BF08000020FC
S31508006260980C002080B400AF034B1B681846BD4647
S315080062705DF8047B704700BF980C002080B584B099
S3150800628000AF78600023FB737B68002B01D10123E4
S3150800629033E07B681B6C002B09D17868FEF760FE3B
S315080062A07B6800225A647B68002283F83C207B685E
S315080062B01B6C03F01003002B18D17B681B6C23F4AE
S315080062C0885323F0020343F002027B681A64786855
S315080062D000F086FA7B6800225A647B681B6C23F000
S315080062E0030343F001027B681A6401E00123FB7390
S315080062F07B68002283F83C20FB7B18461037BD4696
S3150800630080BD000080B485B000AF78600023BB6014
S315080063107B6893F83C30012B01D1022397E07B6818
S31508006320012283F83C207B681B689B6803F0010305
S31508006330012B18D07B681B689A687B681B6842F03B
S3150800634001029A60454B1B68454AA2FB03239A0C37
S3150800635013465B001344BB6002E0BB68013BBB60AD
S31508006360BB68002BF9D17B681B689B6803F00103A7
S31508006370012B5FD17B681B6C23F4E06323F00103D8
S3150800638043F480727B681A647B681B685B6803F455
S315080063908063002B07D07B681B6C23F4405343F4BF
S315080063A080527B681A647B681B6C03F48053B3F5D0
S315080063B0805F06D17B685B6C23F006027B685A64B3
S315080063C002E07B6800225A647B68002283F83C203E
S315080063D0244BFB607B681B686FF022021A60FB681F
S315080063E05B6803F01F03002B0FD17B681B689B6853
S315080063F003F04053002B29D17B681B689A687B6899
S315080064001B6842F080429A6020E07B681B68164A47
S3150800641093421BD17B681B689B6803F04053002B93
S3150800642014D17B681B689A687B681B6842F08042B7
S315080064309A600BE07B681B6C43F010027B681A6459
S315080064407B685B6C43F001027B685A64002318463C
S315080064501437BD465DF8047B704700BF0000002076
S3150800646083DE1B43002301400020014080B584B031
S3150800647000AF786039600023FB607B681B689B6807
S3150800648003F48063B3F5806F13D17B681B689B6840
S3150800649003F48073B3F5807F0BD17B681B6C43F0E4
S315080064A020027B681A647B68002283F83C2001235B
S315080064B063E0FFF7D7FEF86021E03B68B3F1FF3FE2
S315080064C01DD03B68002B07D0FFF7CCFE0246FB68C1
S315080064D0D31A3A689A4212D27B681B681B6803F083
S315080064E00203022B0BD07B681B6C43F004027B680B
S315080064F01A647B68002283F83C2003233DE07B680E
S315080065001B681B6803F00203022BD6D17B681B6845
S315080065106FF012021A607B681B6C43F400727B688A
S315080065201A647B681B689B6803F04053002B23D1D1
S315080065307B681B7E002B1FD17B681B68DB6A03F414
S315080065407003002B06D07B681B689B6803F4806386
S31508006550002B11D17B681B6C23F480727B681A644C
S315080065607B681B6C03F48053002B05D17B681B6C7E
S3150800657043F001027B681A64002318461037BD46AB
S3150800658080BD80B483B000AF78607B681B68DB6C25
S3150800659018460C37BD465DF8047B704780B485B055
S315080065A000AF786039600023BB607B6893F83C30A5
S315080065B0012B01D1022305E17B68012283F83C20E7
S315080065C03B681B68092B25D97B681B68D9683B681B
S315080065D01B689BB21A4613465B0013441E3B0722F0
S315080065E002FA03F3DA437B681B680A40DA607B68C1
S315080065F01B68D9683B689A683B681B689BB2184653
S3150800660003465B0003441E3B9A407B681B680A43AB
S31508006610DA6022E07B681B6819693B681B689BB2D5
S315080066201A4613465B001344072202FA03F3DA43B9
S315080066307B681B680A401A617B681B6819693B6896
S315080066409A683B681B689BB2184603465B0003447E
S315080066509A407B681B680A431A613B685B68062B8D
S3150800666024D87B681B68596B3B685A6813469B009D
S315080066701344053B1F2202FA03F3DA437B681B68BF
S315080066800A405A637B681B68596B3B681B689BB258
S3150800669018463B685A6813469B001344053B00FAA4
S315080066A003F27B681B680A435A634CE03B685B68E5
S315080066B00C2B24D87B681B68196B3B685A681346F1
S315080066C09B001344233B1F2202FA03F3DA437B6839
S315080066D01B680A401A637B681B68196B3B681B6852
S315080066E09BB218463B685A6813469B001344233BE3
S315080066F000FA03F27B681B680A431A6323E07B6887
S315080067001B68D96A3B685A6813469B001344413B89
S315080067101F2202FA03F3DA437B681B680A40DA622F
S315080067207B681B68D96A3B681B689BB218463B683E
S315080067305A6813469B001344413B00FA03F27B68F0
S315080067401B680A43DA62224BFB607B681B68214A96
S31508006750934209D13B681B68122B05D1FB685B681D
S3150800676043F48002FB685A607B681B68194A9342A7
S3150800677023D13B681B68102B03D03B681B68112B81
S315080067801BD1FB685B6843F40002FB685A603B68F0
S315080067901B68102B11D1104B1B68104AA2FB032350
S315080067A09A0C13469B0013445B00BB6002E0BB686F
S315080067B0013BBB60BB68002BF9D17B68002283F8DC
S315080067C03C20002318461437BD465DF8047B704705
S315080067D000230140002001400000002083DE1B4307
S315080067E080B485B000AF7860794BFB60FB685B6866
S315080067F023F44032FB685A60FB685A687B685B681A
S315080068001A43FB685A607B681B685A687B681B6872
S3150800681022F480725A607B681B6859687B681B691A
S315080068201A027B681B680A435A607B681B685A68A9
S315080068307B681B6822F040725A607B681B6859683F
S315080068407B689A687B681B680A435A607B681B6882
S315080068509A687B681B6822F400629A607B681B68EA
S3150800686099687B68DA687B681B680A439A607B6864
S315080068709B6A584A934222D07B681B689A687B6851
S315080068801B6822F070629A607B681B6899687B684F
S315080068909A6A7B681B680A439A607B681B689A68D1
S315080068A07B681B6822F040529A607B681B6899686F
S315080068B07B68DA6A7B681B680A439A600FE07B6824
S315080068C01B689A687B681B6822F070629A607B680E
S315080068D01B689A687B681B6822F040529A607B683E
S315080068E01B689A687B681B6822F002029A607B68BC
S315080068F01B6899687B681B7E5A007B681B680A437D
S315080069009A607B6893F82030002B1BD07B681B6845
S315080069105A687B681B6842F400625A607B681B6889
S315080069205A687B681B6822F460425A607B681B6859
S3150800693059687B685B6A013B5A037B681B680A4394
S315080069405A6007E07B681B685A687B681B6822F4F4
S3150800695000625A607B681B68DA6A7B681B6822F4E7
S315080069607002DA627B681B68D96A7B68DB69013B5F
S315080069701A057B681B680A43DA627B681B689A6893
S315080069807B681B6822F400729A607B681B689968AA
S315080069907B6893F830305A027B681B680A439A6012
S315080069A07B681B689A687B681B6822F480629A6019
S315080069B07B681B6899687B685B699A027B681B68B9
S315080069C00A439A6000BF1437BD465DF8047B7047DA
S315080069D0002301400100000F80B485B000AF786045
S315080069E07B6803F00703FB600C4BDB68BB60BA6887
S315080069F04FF6FF031340BB60FB681A02BB681343DC
S31508006A0043F0BF6343F40033BB60044ABB68D360FA
S31508006A1000BF1437BD465DF8047B704700ED00E003
S31508006A2080B400AF044BDB681B0A03F00703184663
S31508006A30BD465DF8047B704700ED00E080B483B086
S31508006A4000AF0346FB7197F90730002B0BDBFB7988
S31508006A5003F01F02074997F907305B09012000FA7E
S31508006A6002F241F8232000BF0C37BD465DF8047BCF
S31508006A70704700BF00E100E080B483B000AF034672
S31508006A803960FB7197F90730002B0ADB3B68DAB2ED
S31508006A900C4997F907301201D2B20B4483F8002348
S31508006AA00AE03B68DAB20849FB7903F00F03043BB6
S31508006AB01201D2B20B441A7600BF0C37BD465DF8F8
S31508006AC0047B704700E100E000ED00E080B489B087
S31508006AD000AFF860B9607A60FB6803F00703FB61F2
S31508006AE0FB69C3F10703042B28BF0423BB61FB69B9
S31508006AF00433062B02D9FB69033B00E000237B61C4
S31508006B004FF0FF32BB6902FA03F3DA43BB681A4057
S31508006B107B699A404FF0FF317B6901FA03F3D94349
S31508006B207B680B40134318462437BD465DF8047B43
S31508006B30704780B582B000AF78607868FFF74CFF81
S31508006B4000BF0837BD4680BD80B586B000AF034696
S31508006B50B9607A60FB7300237B61FFF761FF786198
S31508006B607A68B9687869FFF7B1FF024697F90F3076
S31508006B7011461846FFF780FF00BF1837BD4680BD8F
S31508006B8080B582B000AF0346FB7197F90730184607
S31508006B90FFF754FF00BF0837BD4680BD80B586B0F5
S31508006BA000AF786000237B61FFF75CFB38617B6888
S31508006BB0002B01D1012399E07B68022283F8352056
S31508006BC07B68002283F834207B681B681A687B6818
S31508006BD01B6822F001021A600FE0FFF743FB02462A
S31508006BE03B69D31A052B08D97B6820225A657B682E
S31508006BF0032283F83520032378E07B681B681B682B
S31508006C0003F00103002BE8D17B681B681B687B61D6
S31508006C107A69384B13407B617B685A687B689B6846
S31508006C201A437B68DB681A437B681B691A437B68CF
S31508006C305B691A437B689B691A437B68DB691A435D
S31508006C407B681B6A13437A6913437B617B685B6ABB
S31508006C50042B07D17B68DA6A7B681B6B13437A6956
S31508006C6013437B617B681B687A691A607B681B68BB
S31508006C705B697B617B6923F007037B617B685B6AE1
S31508006C807A6913437B617B685B6A042B17D17B683F
S31508006C909B6A7A6913437B617B68DB6A002B0ED09B
S31508006CA0786800F001FB0346002B08D07B68402279
S31508006CB05A657B68012283F83520012316E07B6834
S31508006CC01B687A695A61786800F0B8FA0346FB606F
S31508006CD07B68DB6D3F229A40FB689A607B680022DE
S31508006CE05A657B68012283F8352000231846183731
S31508006CF0BD4680BD3F8010F080B586B000AFF86015
S31508006D00B9607A603B600023FB75FB689B6D3B614D
S31508006D10FB6893F83430012B01D1022340E0FB686D
S31508006D20012283F83420FB6893F83530DBB2012B57
S31508006D302FD1FB68022283F83520FB6800225A65AA
S31508006D403B687A68B968F86800F04AFAFB68DB6D50
S31508006D503F229A403B699A60FB681B681A68FB6881
S31508006D601B6842F016021A60FB681B6C002B07D0E2
S31508006D70FB681B681A68FB681B6842F008021A6001
S31508006D80FB681B681A68FB681B6842F001021A60F8
S31508006D9005E0FB68002283F834200223FB75FB7D9F
S31508006DA018461837BD4680BD80B584B000AF7860F8
S31508006DB07B689B6DFB60FFF755FAB8607B6893F8B4
S31508006DC03530DBB2022B08D07B6880225A657B6897
S31508006DD0002283F83420012352E07B681B681A6876
S31508006DE07B681B6822F016021A607B681B685A6962
S31508006DF07B681B6822F080025A617B681B6C002B3B
S31508006E0003D17B689B6C002B07D07B681B681A68CC
S31508006E107B681B6822F008021A607B681B681A6880
S31508006E207B681B6822F001021A6013E0FFF71AFA62
S31508006E300246BB68D31A052B0CD97B6820225A65F3
S31508006E407B68032283F835207B68002283F8342088
S31508006E50032315E07B681B681B6803F00103002BFE
S31508006E60E4D17B68DB6D3F229A40FB689A607B68B9
S31508006E70012283F835207B68002283F8342000231A
S31508006E8018461037BD4680BD80B483B000AF786021
S31508006E907B6893F83530DBB2022B04D07B688022FE
S31508006EA05A6501230CE07B68052283F835207B6848
S31508006EB01B681A687B681B6822F001021A600023A7
S31508006EC018460C37BD465DF8047B704780B586B01A
S31508006ED000AF78600023BB608E4B1B688E4AA2FB0E
S31508006EE003239B0A7B617B689B6D3B613B691B683F
S31508006EF0FB607B68DB6D08229A40FB681340002B19
S31508006F001AD07B681B681B6803F00403002B13D098
S31508006F107B681B681A687B681B6822F004021A6083
S31508006F207B68DB6D08229A403B699A607B685B6DDB
S31508006F3043F001027B685A657B68DB6D01229A4043
S31508006F40FB681340002B12D07B681B685B6903F053
S31508006F508003002B0BD07B68DB6D01229A403B69CE
S31508006F609A607B685B6D43F002027B685A657B68B2
S31508006F70DB6D04229A40FB681340002B12D07B6815
S31508006F801B681B6803F00203002B0BD07B68DB6DC4
S31508006F9004229A403B699A607B685B6D43F0040261
S31508006FA07B685A657B68DB6D10229A40FB68134044
S31508006FB0002B43D07B681B681B6803F00803002B73
S31508006FC03CD07B68DB6D10229A403B699A607B68EF
S31508006FD01B681B6803F48023002B18D07B681B688A
S31508006FE01B6803F40023002B08D17B681B6C002B5D
S31508006FF024D07B681B6C786898471FE07B689B6C7D
S31508007000002B1BD07B689B6C7868984716E07B68DA
S315080070101B681B6803F48073002B07D17B681B6809
S315080070201A687B681B6822F008021A607B681B6C6A
S31508007030002B03D07B681B6C786898477B68DB6DF0
S3150800704020229A40FB681340002B00F08F807B6853
S315080070501B681B6803F01003002B00F087807B6811
S31508007060DB6D20229A403B699A607B6893F835303D
S31508007070DBB2052B36D17B681B681A687B681B68F0
S3150800708022F016021A607B681B685A697B681B68BF
S3150800709022F080025A617B681B6C002B03D17B6847
S315080070A09B6C002B07D07B681B681A687B681B687B
S315080070B022F008021A607B68DB6D3F229A403B6922
S315080070C09A607B68012283F835207B68002283F862
S315080070D034207B681B6D002B7ED07B681B6D78681F
S315080070E0984779E07B681B681B6803F48023002BAC
S315080070F01DD07B681B681B6803F40023002B0DD189
S315080071007B685B6C002B31D07B685B6C7868984732
S315080071102CE000BF00000020B5814E1B7B68DB6BAE
S31508007120002B23D07B68DB6B786898471EE07B686A
S315080071301B681B6803F48073002B0FD17B681B68E0
S315080071401A687B681B6822F010021A607B680122A5
S3150800715083F835207B68002283F834207B68DB6B54
S31508007160002B03D07B68DB6B786898477B685B6D80
S31508007170002B32D07B685B6D03F00103002B22D015
S315080071807B68052283F835207B681B681A687B684C
S315080071901B6822F001021A60BB680133BB607A697A
S315080071A09A4207D37B681B681B6803F00103002B10
S315080071B0F2D100E000BF7B68012283F835207B68A6
S315080071C0002283F834207B68DB6C002B05D07B68B3
S315080071D0DB6C7868984700E000BF1837BD4680BD6D
S315080071E080B485B000AFF860B9607A603B60FB6830
S315080071F01B681A68FB681B6822F480221A60FB6801
S315080072001B683A685A60FB689B68402B08D1FB6884
S315080072101B687A689A60FB681B68BA68DA6007E0D8
S31508007220FB681B68BA689A60FB681B687A68DA604C
S3150800723000BF1437BD465DF8047B704780B485B03F
S3150800724000AF78607B681B68DBB2103B144AA2FB70
S3150800725003231B09FB60134AFB6813441B781A4671
S315080072607B68DA65FB68032B09D97B681B6823F4FE
S315080072707F7323F003031A1D7B689A6507E07B6812
S315080072801B6823F47F7323F003037A6893657B688E
S315080072909B6D18461437BD465DF8047B704700BFE2
S315080072A0ABAAAAAA5015010880B485B000AF7860C9
S315080072B00023FB737B689B6ABB607B689B69002B1A
S315080072C01FD1BB68032B56D801A252F823F000BF82
S315080072D0E1720008F3720008E1720008777300088B
S315080072E07B68DB6A03F08073002B46D00123FB73AF
S315080072F043E07B68DB6AB3F1C07F40D10123FB73AF
S315080073003DE07B689B69B3F5005F21D1BB68032B21
S3150800731037D801A252F823F0297300082F73000802
S3150800732029730008417300080123FB7330E07B686A
S31508007330DB6A03F08073002B25D00123FB7322E060
S315080073407B68DB6AB3F1C07F1FD10123FB731CE0A6
S31508007350BB68022B03D9BB68032B03D018E00123B3
S31508007360FB7315E07B68DB6A03F08073002B0ED095
S315080073700123FB730BE000BF0AE000BF08E000BF73
S3150800738006E000BF04E000BF02E000BF00E000BF67
S31508007390FB7B18461437BD465DF8047B704700BF73
S315080073A080B489B000AF7860396000237B61002320
S315080073B03B610023BB610023FB6159E10122FB69A4
S315080073C002FA03F37B613B681B687A6913403B61E9
S315080073D03A697B699A4240F048813B685B6803F0EA
S315080073E00303012B05D03B685B6803F00303022BFC
S315080073F030D17B689B68BB61FB695B00032202FA9C
S3150800740003F3DB43BA691340BB613B68DA68FB697F
S315080074105B0002FA03F3BA691343BB617B68BA6976
S315080074209A607B685B68BB610122FB6902FA03F319
S31508007430DB43BA691340BB613B685B681B0903F011
S315080074400102FB6902FA03F3BA691343BB617B685D
S31508007450BA695A603B685B6803F00303032B17D0CD
S315080074607B68DB68BB61FB695B00032202FA03F3F6
S31508007470DB43BA691340BB613B689A68FB695B00EA
S3150800748002FA03F3BA691343BB617B68BA69DA6027
S315080074903B685B6803F00303022B23D1FB69DA0818
S315080074A07B68083253F82230BB61FB6903F0070397
S315080074B09B000F2202FA03F3DB43BA691340BB6150
S315080074C03B681A69FB6903F007039B0002FA03F39A
S315080074D0BA691343BB61FB69DA087B680832B96984
S315080074E043F822107B681B68BB61FB695B000322BB
S315080074F002FA03F3DB43BA691340BB613B685B6876
S3150800750003F00302FB695B0002FA03F3BA6913434B
S31508007510BB617B68BA691A603B685B6803F44033F1
S31508007520002B00F0A2800023FB60574B5B6C564A89
S3150800753043F480435364544B5B6C03F48043FB6011
S31508007540FB68524AFB699B08023352F82330BB6139
S31508007550FB6903F003039B000F2202FA03F3DB43E4
S31508007560BA691340BB617B68494A934219D07B6864
S31508007570484A934213D07B68474A93420DD07B68AA
S31508007580464A934207D07B68454A934201D1042371
S3150800759008E0072306E0032304E0022302E00123B0
S315080075A000E00023FA6902F0030292009340BA69E8
S315080075B01343BB613549FB699B080233BA6941F835
S315080075C02320384B9B68BB613B69DB43BA69134090
S315080075D0BB613B685B6803F48013002B03D0BA6970
S315080075E03B691343BB612F4ABB6993602D4BDB682C
S315080075F0BB613B69DB43BA691340BB613B685B68A7
S3150800760003F40013002B03D0BA693B691343BB612B
S31508007610244ABB69D360234B5B68BB613B69DB4388
S31508007620BA691340BB613B685B6803F40033002BFF
S3150800763003D0BA693B691343BB611A4ABB695360F5
S31508007640184B1B68BB613B69DB43BA691340BB61D6
S315080076503B685B6803F48033002B03D0BA693B6947
S315080076601343BB610F4ABB691360FB690133FB61B6
S31508007670FB690F2B7FF6A2AE00BF00BF2437BD46BD
S315080076805DF8047B704700BF0038024000380140AF
S31508007690000002400004024000080240000C0240BC
S315080076A000100240003C014080B485B000AF78600D
S315080076B00B467B807B681A697B881340002B02D0B7
S315080076C00123FB7301E00023FB73FB7B1846143789
S315080076D0BD465DF8047B704780B483B000AF786020
S315080076E00B467B8013467B707B78002B03D07A8809
S315080076F07B689A6103E07B881A047B689A6100BFFD
S315080077000C37BD465DF8047B704780B485B000AF82
S3150800771078600B467B807B685B69FB607A88FB68D0
S3150800772013401A04FB68D9437B880B401A437B68CD
S315080077309A6100BF1437BD465DF8047B70470000A8
S3150800774080B586B000AF78607B68002B01D1012335
S3150800775067E27B681B6803F00103002B75D0884B32
S315080077609B6803F00C03042B0CD0854B9B6803F035
S315080077700C03082B12D1824B5B6803F48003B3F524
S31508007780800F0BD17E4B1B6803F40033002B5BD0B4
S315080077907B685B68002B57D1012342E27B685B68F4
S315080077A0B3F5803F06D1764B1B68754A43F48033A0
S315080077B013601DE07B685B68B3F5A02F0CD1704B96
S315080077C01B686F4A43F4802313606D4B1B686C4A31
S315080077D043F4803313600BE0694B1B68684A23F453
S315080077E080331360664B1B68654A23F48023136055
S315080077F07B685B68002B13D0FEF734FD386108E020
S31508007800FEF730FD02463B69D31A642B01D90323E0
S3150800781007E25B4B1B6803F40033002BF0D014E03F
S31508007820FEF720FD386108E0FEF71CFD02463B69BD
S31508007830D31A642B01D90323F3E1514B1B6803F4D4
S315080078400033002BF0D100E000BF7B681B6803F013
S315080078500203002B63D04A4B9B6803F00C03002BF2
S315080078600BD0474B9B6803F00C03082B1CD1444BE9
S315080078705B6803F48003002B16D1414B1B6803F0A9
S315080078800203002B05D07B68DB68012B01D001239E
S31508007890C7E13B4B1B6823F0F8027B681B69DB00DA
S315080078A0374913430B603AE07B68DB68002B20D02E
S315080078B0344B01221A60FEF7D5FC386108E0FEF762
S315080078C0D1FC02463B69D31A022B01D90323A8E14E
S315080078D02B4B1B6803F00203002BF0D0284B1B68C8
S315080078E023F0F8027B681B69DB00254913430B600C
S315080078F015E0244B00221A60FEF7B4FC386108E054
S31508007900FEF7B0FC02463B69D31A022B01D90323C2
S3150800791087E11B4B1B6803F00203002BF0D17B6841
S315080079201B6803F00803002B36D07B685B69002BC5
S3150800793016D0154B01221A60FEF794FC386108E050
S31508007940FEF790FC02463B69D31A022B01D90323A2
S3150800795067E10B4B5B6F03F00203002BF0D01BE0D3
S31508007960094B00221A60FEF77DFC38610EE0FEF72F
S3150800797079FC02463B69D31A022B07D9032350E147
S315080079800038024000004742800E4742884B5B6F32
S3150800799003F00203002BEAD17B681B6803F004039B
S315080079A0002B00F097800023FB75814B1B6C03F0BE
S315080079B08053002B0FD10023BB607D4B1B6C7C4A88
S315080079C043F0805313647A4B1B6C03F08053BB60FF
S315080079D0BB680123FB75774B1B6803F48073002B88
S315080079E018D1744B1B68734A43F480731360FEF70F
S315080079F039FC386108E0FEF735FC02463B69D31AC4
S31508007A00022B01D903230CE16A4B1B6803F480732C
S31508007A10002BF0D07B689B68012B06D1644B1B6F4B
S31508007A20634A43F0010313671CE07B689B68052BD8
S31508007A300CD15F4B1B6F5E4A43F0040313675C4B24
S31508007A401B6F5B4A43F0010313670BE0584B1B6F30
S31508007A50574A23F001031367554B1B6F544A23F00B
S31508007A60040313677B689B68002B15D0FEF7FAFBA7
S31508007A7038610AE0FEF7F6FB02463B69D31A41F283
S31508007A808832934201D90323CBE0494B1B6F03F09D
S31508007A900203002BEED014E0FEF7E4FB38610AE09F
S31508007AA0FEF7E0FB02463B69D31A41F2883293425D
S31508007AB001D90323B5E03E4B1B6F03F00203002BED
S31508007AC0EED1FB7D012B05D1394B1B6C384A23F0CF
S31508007AD0805313647B689B69002B00F0A180344BAC
S31508007AE09B6803F00C03082B5CD07B689B69022B10
S31508007AF041D1314B00221A60FEF7B4FB386108E029
S31508007B00FEF7B0FB02463B69D31A022B01D90323C1
S31508007B1087E0274B1B6803F00073002BF0D17B68C6
S31508007B20DA697B681B6A1A437B685B6A9B011A439E
S31508007B307B689B6A5B08013B1B041A437B68DB6A0C
S31508007B401B061B4913434B601B4B01221A60FEF7A9
S31508007B5089FB386108E0FEF785FB02463B69D31AC4
S31508007B60022B01D903235CE0114B1B6803F0007359
S31508007B70002BF0D054E0104B00221A60FEF772FB7F
S31508007B80386108E0FEF76EFB02463B69D31A022B02
S31508007B9001D9032345E0064B1B6803F00073002B4D
S31508007BA0F0D13DE07B689B69012B07D1012338E0C2
S31508007BB00038024000700040600047421B4B5B687B
S31508007BC0FB607B689B69012B28D0FB6803F4800265
S31508007BD07B68DB699A4221D1FB6803F03F027B6828
S31508007BE01B6A9A421AD1FA6847F6C07313407A6834
S31508007BF0526A9201934211D1FB6803F440327B68C2
S31508007C009B6A5B08013B1B049A4207D1FB6803F099
S31508007C1070627B68DB6A1B069A4201D0012300E08A
S31508007C20002318461837BD4680BD00BF00380240FD
S31508007C3080B584B000AF786039607B68002B01D1CD
S31508007C400123CCE0684B1B6803F007033A689A42A5
S31508007C500CD9654B3A68D2B21A70634B1B6803F0AD
S31508007C6007033A689A4201D00123B8E07B681B688B
S31508007C7003F00203002B20D07B681B6803F0040383
S31508007C80002B05D0594B9B68584A43F4E053936040
S31508007C907B681B6803F00803002B05D0534B9B68D1
S31508007CA0524A43F460439360504B9B6823F0F002BA
S31508007CB07B689B684D4913438B607B681B6803F0A0
S31508007CC00103002B44D07B685B68012B07D1474B27
S31508007CD01B6803F40033002B19D101237FE07B686E
S31508007CE05B68022B03D07B685B68032B07D13F4B8D
S31508007CF01B6803F00073002B09D101236FE03B4B8F
S31508007D001B6803F00203002B01D1012367E0374B00
S31508007D109B6823F003027B685B68344913438B60D6
S31508007D20FEF7A0FAF8600AE0FEF79CFA0246FB683E
S31508007D30D31A41F28832934201D903234FE02B4BE1
S31508007D409B6803F00C027B685B689B009A42EBD148
S31508007D50254B1B6803F007033A689A420CD2224B5C
S31508007D603A68D2B21A70204B1B6803F007033A68C8
S31508007D709A4201D0012332E07B681B6803F00403B2
S31508007D80002B08D0194B9B6823F4E0527B68DB680C
S31508007D90164913438B607B681B6803F00803002BA6
S31508007DA009D0124B9B6823F460427B681B69DB0091
S31508007DB00E4913438B6000F021F802460B4B9B6873
S31508007DC01B0903F00F030A49CB5C22FA03F3094A9D
S31508007DD01360094B1B681846FDF7F0FC002318468C
S31508007DE01037BD4680BD00BF003C02400038024047
S31508007DF03815010800000020040000202DE9B04FC6
S31508007E0090B000AF00237B630023FB6300233B6332
S31508007E100023BB63594B9B6803F00C03082B0DD05A
S31508007E20082B00F2A180002B02D0042B03D09BE084
S31508007E30534BBB639BE0534BBB6398E04F4B5B686C
S31508007E4003F03F037B634D4B5B6803F48003002B11
S31508007E5028D04A4B5B689B0900223B627A623B6AE0
S31508007E60C3F308000021474B03FB01F2002300FB84
S31508007E7003F31344434AA0FB0212FA620A46BA62A3
S31508007E80FA6A1344FB627B6B0022BB61FA61D7E98D
S31508007E900623D7E90A01FCF78FFE02460B4613466E
S31508007EA0FB6353E0354B5B689B0900223B617A61B3
S31508007EB03B69C3F3080A4FF0000B52465B464FF086
S31508007EC000004FF00001590141EAD2615001024613
S31508007ED00B46B2EB0A0863EB0B094FF000024FF0B2
S31508007EE000034FEA891343EA98634FEA8812B2EB14
S31508007EF0080463EB09054FF000024FF00003EB009E
S31508007F0043EA5473E20014461D4614EB0A033B6029
S31508007F1045EB0B037B604FF000024FF00003D7E9F7
S31508007F20004529468B02214643EA915321468A0297
S31508007F30104619467B6B0022BB60FA60D7E902231C
S31508007F40FCF73AFE02460B461346FB630B4B5B688F
S31508007F501B0C03F0030301335B003B63FA6B3B6BBB
S31508007F60B2FBF3F3BB6302E0054BBB6300BFBB6B1D
S31508007F7018464037BD46BDE8B08F00BF00380240FE
S31508007F800024F400001BB70080B400AF034B1B6845
S31508007F901846BD465DF8047B704700BF0000002008
S31508007FA080B500AFFFF7F0FF0246054B9B689B0ABA
S31508007FB003F007030349CB5C22FA03F3184680BD96
S31508007FC0003802404815010880B500AFFFF7DCFF0E
S31508007FD00246054B9B685B0B03F007030349CB5C22
S31508007FE022FA03F3184680BD0038024048150108F6
S31508007FF080B483B000AF786039607B680F221A605E
S31508008000124B9B6803F003027B685A600F4B9B6810
S3150800801003F0F0027B689A600C4B9B6803F4E0520D
S315080080207B68DA60094B9B68DB0803F4E0527B68DF
S315080080301A61074B1B6803F007023B681A6000BF0A
S315080080400C37BD465DF8047B704700BF0038024018
S31508008050003C024080B582B000AF78607B68002B98
S3150800806001D101237BE07B685B6A002B08D17B6822
S315080080705B68B3F5827F09D07B680022DA6105E088
S315080080807B6800221A617B6800225A617B6800229D
S315080080909A627B6893F85130DBB2002B06D17B6875
S315080080A0002283F850207868FDF770FA7B68022270
S315080080B083F851207B681B681A687B681B6822F066
S315080080C040021A607B685B6803F482727B689B686F
S315080080D003F404431A437B68DB6803F400631A431A
S315080080E07B681B6903F002031A437B685B6903F02C
S315080080F001031A437B689B6903F400731A437B6880
S31508008100DB6903F038031A437B681B6A03F08003B4
S3150800811042EA03017B689B6A03F400527B681B688A
S315080081200A431A607B689B691B0C03F004017B6891
S315080081305B6A03F010027B681B680A435A607B6817
S315080081401B68DA697B681B6822F40062DA617B685F
S3150800815000225A657B68012283F8512000231846BD
S315080081600837BD4680BD80B588B000AFF860B960F5
S315080081703B601346FB800023FB77FB6893F850307F
S31508008180012B01D1022326E1FB68012283F8502046
S31508008190FEF768F8B861FB88FB82FB6893F85130F4
S315080081A0DBB2012B02D00223FB770BE1BB68002B65
S315080081B002D0FB88002B02D10123FB7702E1FB6882
S315080081C0032283F85120FB6800225A65FB68BA68C7
S315080081D01A63FB68FA889A86FB68FA88DA86FB6867
S315080081E000229A63FB6800229A87FB680022DA87D6
S315080081F0FB6800225A64FB6800221A64FB689B68C5
S31508008200B3F5004F0FD1FB681B681A68FB681B683B
S3150800821022F040021A60FB681B681A68FB681B6834
S3150800822042F480421A60FB681B681B6803F040032F
S31508008230402B07D0FB681B681A68FB681B6842F06E
S3150800824040021A60FB68DB68B3F5006F4BD1FB6828
S315080082505B68002B02D0FB8A012B3ED1FB681B6BA7
S315080082601A88FB681B68DA60FB681B6B9A1CFB683C
S315080082701A63FB68DB8E9BB2013B9AB2FB68DA860F
S315080082802BE0FB681B689B6803F00203022B12D1E4
S31508008290FB681B6B1A88FB681B68DA60FB681B6B3C
S315080082A09A1CFB681A63FB68DB8E9BB2013B9AB289
S315080082B0FB68DA8611E0FDF7D5FF0246BB69D31ADB
S315080082C03A689A4203D83B68B3F1FF3F02D13B684C
S315080082D0002B02D10323FB7774E0FB68DB8E9BB28D
S315080082E0002BCED14CE0FB685B68002B02D0FB8AE2
S315080082F0012B40D1FB681A6BFB681B680C3312789C
S315080083001A70FB681B6B5A1CFB681A63FB68DB8ECA
S315080083109BB2013B9AB2FB68DA862CE0FB681B68C5
S315080083209B6803F00203022B13D1FB681A6BFB68E8
S315080083301B680C3312781A70FB681B6B5A1CFB6897
S315080083401A63FB68DB8E9BB2013B9AB2FB68DA863E
S3150800835011E0FDF787FF0246BB69D31A3A689A42CD
S3150800836003D83B68B3F1FF3F02D13B68002B02D12B
S315080083700323FB7726E0FB68DB8E9BB2002BCDD16F
S31508008380BA693968F86800F051FF0346002B02D035
S31508008390FB6820225A65FB689B68002B0AD10023DC
S315080083A03B61FB681B68DB683B61FB681B689B6875
S315080083B03B613B69FB685B6D002B02D00123FB77B1
S315080083C000E000BFFB68012283F85120FB68002209
S315080083D083F85020FB7F18462037BD4680BD80B500
S315080083E088B002AFF860B9603B601346FB80002393
S315080083F0FB75FB685B68B3F5827F12D1FB689B68E7
S31508008400002B0ED1FB68042283F85120FA883B68BA
S3150800841000931346BA68B968F86800F0F1F803469D
S31508008420EAE0FB6893F85030012B01D10223E3E020
S31508008430FB68012283F85020FDF714FF3861FB68BA
S3150800844093F85130DBB2012B02D00223FB75CAE048
S31508008450BB68002B02D0FB88002B02D10123FB75D9
S31508008460C1E0FB68042283F85120FB6800225A65A4
S31508008470FB68BA689A63FB68FA889A87FB68FA8881
S31508008480DA87FB6800221A63FB6800229A86FB6873
S315080084900022DA86FB6800221A64FB6800225A6406
S315080084A0FB689B68B3F5004F0FD1FB681B681A6819
S315080084B0FB681B6822F040021A60FB681B681A6892
S315080084C0FB681B6822F480421A60FB681B681B68FD
S315080084D003F04003402B07D0FB681B681A68FB684B
S315080084E01B6842F040021A60FB68DB68002B62D109
S315080084F02EE0FB681B689B6803F00103012B15D16E
S31508008500FB681B6803F10C02FB689B6B1278D2B2FE
S315080085101A70FB689B6B5A1CFB689A63FB68DB8FB7
S315080085209BB2013B9AB2FB68DA8711E0FDF79AFE27
S3150800853002463B69D31A3A689A4203D83B68B3F1B4
S31508008540FF3F02D13B68002B02D10323FB754AE0AB
S31508008550FB68DB8F9BB2002BCBD131E0FB681B6835
S315080085609B6803F00103012B13D1FB681B68DA68CB
S31508008570FB689B6B92B21A80FB689B6B9A1CFB6824
S315080085809A63FB68DB8F9BB2013B9AB2FB68DA877A
S3150800859011E0FDF767FE02463B69D31A3A689A422C
S315080085A003D83B68B3F1FF3F02D13B68002B02D1E9
S315080085B00323FB7517E0FB68DB8F9BB2002BCDD13D
S315080085C03A693968F86800F0CBFD0346002B02D0FB
S315080085D0FB6820225A65FB685B6D002B02D00123DD
S315080085E0FB7500E000BFFB68012283F85120FB6899
S315080085F0002283F85020FB7D18461837BD4680BDFB
S3150800860080B58CB000AFF860B9607A607B800123D2
S31508008610FB62002387F82B30FB6893F85030012B58
S3150800862001D102238AE1FB68012283F85020FDF775
S3150800863019FE7862FB6893F8513087F82330FB6897
S315080086405B68FB617B887B8397F82330012B0FD00F
S31508008650FB69B3F5827F07D1FB689B68002B03D1C2
S3150800866097F82330042B03D0022387F82B305BE1DD
S31508008670BB68002B05D07B68002B02D07B88002BBB
S3150800868003D1012387F82B304EE1FB6893F851306C
S31508008690DBB2042B03D0FB68052283F85120FB6864
S315080086A000225A65FB687A689A63FB687A88DA87D3
S315080086B0FB687A889A87FB68BA681A63FB687A88BF
S315080086C0DA86FB687A889A86FB6800221A64FB6851
S315080086D000225A64FB681B681B6803F04003402BA2
S315080086E007D0FB681B681A68FB681B6842F04002E3
S315080086F01A60FB68DB68B3F5006F78D1FB685B68C6
S31508008700002B02D07B8B012B66D1FB681B6B1A886A
S31508008710FB681B68DA60FB681B6B9A1CFB681A63AC
S31508008720FB68DB8E9BB2013B9AB2FB68DA8653E0A4
S31508008730FB681B689B6803F00203022B1BD1FB68CE
S31508008740DB8E9BB2002B16D0FB6A012B13D1FB687C
S315080087501B6B1A88FB681B68DA60FB681B6B9A1C24
S31508008760FB681A63FB68DB8E9BB2013B9AB2FB6817
S31508008770DA860023FB62FB681B689B6803F001032B
S31508008780012B19D1FB68DB8F9BB2002B14D0FB6839
S315080087901B68DA68FB689B6B92B21A80FB689B6B56
S315080087A09A1CFB689A63FB68DB8F9BB2013B9AB203
S315080087B0FB68DA870123FB62FDF754FD02467B6AF4
S315080087C0D31ABA6B9A4207D8BB6BB3F1FF3F03D0F3
S315080087D0032387F82B30A7E0FB68DB8E9BB2002BC0
S315080087E0A6D1FB68DB8F9BB2002BA1D17CE0FB688E
S315080087F05B68002B02D07B8B012B6BD1FB681A6B55
S31508008800FB681B680C3312781A70FB681B6B5A1CC2
S31508008810FB681A63FB68DB8E9BB2013B9AB2FB6866
S31508008820DA8657E0FB681B689B6803F00203022B95
S315080088301CD1FB68DB8E9BB2002B17D0FB6A012B81
S3150800884014D1FB681A6BFB681B680C3312781A7014
S31508008850FB681B6B5A1CFB681A63FB68DB8E9BB2B2
S31508008860013B9AB2FB68DA860023FB62FB681B6849
S315080088709B6803F00103012B19D1FB68DB8F9BB2C0
S31508008880002B14D0FB681B68DA68FB689B6BD2B2B6
S315080088901A70FB689B6B5A1CFB689A63FB68DB8F34
S315080088A09BB2013B9AB2FB68DA870123FB62FDF7AC
S315080088B0D9FC02467B6AD31ABA6B9A4203D8BB6BB9
S315080088C0B3F1FF3F02D1BB6B002B03D1032387F81B
S315080088D02B3029E0FB68DB8E9BB2002BA2D1FB680C
S315080088E0DB8F9BB2002B9DD17A6AB96BF86800F0D2
S315080088F09DFC0346002B06D0012387F82B30FB6826
S3150800890020225A6510E0FB689B68002B0BD10023D8
S315080089107B61FB681B68DB687B61FB681B689B687F
S315080089207B617B6900E000BFFB68012283F8512068
S31508008930FB68002283F8502097F82B30184630370A
S31508008940BD4680BD80B586B000AFF860B9607A6074
S315080089507B800023FB75FB6893F85030012B01D10F
S315080089600223E3E0FB68012283F85020FB6893F8B2
S315080089705130BB75FB685B683B61BB7D012B0DD035
S315080089803B69B3F5827F06D1FB689B68002B02D151
S31508008990BB7D042B02D00223FB75C2E0BB68002B0B
S315080089A005D07B68002B02D07B88002B02D10123DF
S315080089B0FB75B6E0FB6893F85130DBB2042B03D0A5
S315080089C0FB68052283F85120FB6800225A65FB687C
S315080089D0BA681A63FB687A889A86FB687A88DA86A0
S315080089E0FB687A689A63FB687A889A87FB687A884C
S315080089F0DA87FB6800221A64FB6800225A64FB685F
S31508008A0093F85130DBB2042B08D1FB68DB6C494A7A
S31508008A101A64FB68DB6C484ADA6307E0FB68DB6CC0
S31508008A20464A1A64FB68DB6C454ADA63FB68DB6C0A
S31508008A30444ADA64FB68DB6C00221A65FB68D86C6A
S31508008A40FB681B680C331946FB689B6B1A46FB6868
S31508008A50DB8F9BB2FEF750F90346002B0CD0FB6860
S31508008A605B6D43F01002FB685A650123FB75FB68D2
S31508008A70012283F8512054E0FB681B685A68FB689A
S31508008A801B6842F001025A60FB689B6C00221A645C
S31508008A90FB689B6C0022DA63FB689B6C0022DA6435
S31508008AA0FB689B6C00221A65FB68986CFB681B6B5D
S31508008AB01946FB681B680C331A46FB68DB8E9BB2AB
S31508008AC0FEF71AF90346002B0CD0FB685B6D43F0E2
S31508008AD01002FB685A650123FB75FB68012283F8BF
S31508008AE051201EE0FB681B681B6803F04003402BFF
S31508008AF007D0FB681B681A68FB681B6842F04002CF
S31508008B001A60FB681B685A68FB681B6842F02002FB
S31508008B105A60FB681B685A68FB681B6842F00202C9
S31508008B205A60FB68002283F85020FB7D18461837E8
S31508008B30BD4680BDB18F0008798E0008CD8F00082C
S31508008B40218F0008E98F000880B483B000AF7860F1
S31508008B507B6893F85030012B01D1022310E07B6823
S31508008B60012283F850207B681B685A687B681B685B
S31508008B7042F003025A607B68002283F850200023E3
S31508008B8018460C37BD465DF8047B704780B584B03F
S31508008B9000AF78600023FB737B689B6C002B0FD0BB
S31508008BA07B689B6C1846FEF7FFF80346002B07D038
S31508008BB07B685B6D43F010027B685A650123FB7383
S31508008BC07B68DB6C002B0FD07B68DB6C1846FEF7E6
S31508008BD0EBF80346002B07D07B685B6D43F0100269
S31508008BE07B685A650123FB737B681B685A687B6838
S31508008BF01B6822F003025A607B68012283F8512021
S31508008C00FB7B18461037BD4680BD000080B588B08E
S31508008C1000AF78607B681B685B68FB617B681B68D4
S31508008C209B68BB61BB699B0903F00103002B0FD14D
S31508008C30BB6903F00103002B0AD0FB699B0903F00B
S31508008C400103002B04D07B681B6C78689847D7E033
S31508008C50BB695B0803F00103002B0AD0FB69DB093B
S31508008C6003F00103002B04D07B685B6C7868984797
S31508008C70C6E0BB695B0903F00103002B0CD1BB6995
S31508008C809B0903F00103002B06D1BB691B0A03F0FD
S31508008C900103002B00F0B480FB695B0903F00103B4
S31508008CA0002B00F0AD80BB699B0903F00103002B84
S31508008CB023D07B6893F85130DBB2032B11D07B6845
S31508008CC05B6D43F004027B685A6500237B617B6811
S31508008CD01B68DB687B617B681B689B687B617B69BB
S31508008CE00BE000233B617B681B68DB683B617B68A4
S31508008CF01B689B683B613B6982E0BB695B0903F0C3
S31508008D000103002B14D07B685B6D43F001027B687E
S31508008D105A650023FB607B681B689B68FB607B6861
S31508008D201B681A687B681B6822F040021A60FB6899
S31508008D30BB691B0A03F00103002B0CD07B685B6D33
S31508008D4043F008027B685A650023BB607B681B6892
S31508008D509B68BB60BB687B685B6D002B4FD07B68EC
S31508008D601B685A687B681B6822F0E0025A607B68B9
S31508008D70012283F85120FB6903F00203002B04D17A
S31508008D80FB6903F00103002B34D07B681B685A6823
S31508008D907B681B6822F003025A607B68DB6C002B39
S31508008DA011D07B68DB6C184A1A657B68DB6C184641
S31508008DB0FEF76AF80346002B05D07B685B6D43F027
S31508008DC040027B685A657B689B6C002B16D07B68D3
S31508008DD09B6C0D4A1A657B689B6C1846FEF754F81F
S31508008DE00346002B0AD07B685B6D43F040027B6824
S31508008DF05A6503E0786800F027F800E000BF00BF76
S31508008E002037BD4680BD00BF2990000880B483B0D6
S31508008E1000AF786000BF0C37BD465DF8047B70472D
S31508008E2080B483B000AF786000BF0C37BD465DF8EC
S31508008E30047B704780B483B000AF786000BF0C37FE
S31508008E40BD465DF8047B704780B483B000AF786098
S31508008E5000BF0C37BD465DF8047B704780B483B00D
S31508008E6000AF78607B6893F85130DBB218460C3750
S31508008E70BD465DF8047B704780B584B000AF786066
S31508008E807B689B6BFB60FDF7EDF9B8607B681B6838
S31508008E901B6803F48073B3F5807F3BD0FB681B68BF
S31508008EA05A68FB681B6822F020025A60FB689B68B8
S31508008EB0002B0DD1FB685B68B3F5827F08D1FB6890
S31508008EC01B685A68FB681B6822F003025A6007E0B1
S31508008ED0FB681B685A68FB681B6822F001025A6027
S31508008EE0BA686421F86800F03BF90346002B02D003
S31508008EF0FB6820225A65FB680022DA87FB68012294
S31508008F0083F85120FB685B6D002B03D0F868FFF7E8
S31508008F109BFF02E0F868FFF779FF1037BD4680BD72
S31508008F2080B584B000AF78607B689B6BFB60FDF70B
S31508008F3099F9B8607B681B681B6803F48073B3F5FE
S31508008F40807F2FD0FB681B685A68FB681B6822F075
S31508008F5020025A60BA686421F86800F067F9034687
S31508008F60002B05D0FB685B6D43F02002FB685A6551
S31508008F70FB681B685A68FB681B6822F003025A6084
S31508008F80FB680022DA86FB680022DA87FB68012282
S31508008F9083F85120FB685B6D002B03D0F868FFF758
S31508008FA053FF02E0F868FCF757FA1037BD4680BD54
S31508008FB080B584B000AF78607B689B6BFB60F8680F
S31508008FC0FFF72EFF00BF1037BD4680BD80B584B0C1
S31508008FD000AF78607B689B6BFB60F868FFF72AFF39
S31508008FE000BF1037BD4680BD80B584B000AF78603D
S31508008FF07B689B6BFB60FB681B685A68FB681B6891
S3150800900022F003025A60FB685B6D43F01002FB68AE
S315080090105A65FB68012283F85120F868FFF714FFA8
S3150800902000BF1037BD4680BD80B584B000AF7860FC
S315080090307B689B6BFB60FB680022DA87FB68002273
S31508009040DA86F868FFF700FF00BF1037BD4680BD17
S3150800905080B588B000AFF860B9603B601346FB7115
S31508009060FDF700F90246BB6A9B1A3A681344FB618E
S31508009070FDF7F8F8B861394B1B685B011B0DFA69F7
S3150800908002FB03F37B6154E03B68B3F1FF3F50D02A
S31508009090FDF7E8F80246BB69D31AFA699A4202D97B
S315080090A0FB69002B3DD1FB681B685A68FB681B6887
S315080090B022F0E0025A60FB685B68B3F5827F11D143
S315080090C0FB689B68B3F5004F04D0FB689B68B3F553
S315080090D0806F07D1FB681B681A68FB681B6822F05B
S315080090E040021A60FB689B6AB3F5005F0FD1FB6804
S315080090F01B681A68FB681B6822F400521A60FB6832
S315080091001B681A68FB681B6842F400521A60FB6801
S31508009110012283F85120FB68002283F8502003239C
S3150800912017E07B69002B01D10023FB617B69013BBA
S315080091307B61FB681B689A68BB681340BA689A42E9
S315080091400CBF01230023DBB21A46FB799A429BD156
S31508009150002318462037BD4680BD00BF000000200A
S3150800916080B586B002AFF860B9607A60FB685B6864
S31508009170B3F5827F11D1FB689B68B3F5004F04D025
S31508009180FB689B68B3F5806F07D1FB681B681A6894
S31508009190FB681B6822F040021A60FB685B68B3F53F
S315080091A0827F2AD1FB689B68B3F5806F12D07B68F3
S315080091B00093BB6800228021F868FFF749FF034641
S315080091C0002B2DD0FB685B6D43F02002FB685A65C7
S315080091D0032326E07B680093BB6800220121F86818
S315080091E0FFF736FF0346002B1AD0FB685B6D43F08A
S315080091F02002FB685A65032313E07B680093BB686B
S3150800920000220121F868FFF723FF0346002B07D049
S31508009210FB685B6D43F02002FB685A65032300E098
S31508009220002318461037BD4680BD000080B588B0BB
S3150800923002AFF860B9607A601B4B1B681B4AA2FB39
S3150800924003235B0D4FF47A7202FB03F37B61FB6821
S315080092505B68B3F5827F12D17B680093BB680022F6
S315080092608021F868FFF7F4FE0346002B16D0FB684A
S315080092705B6D43F02002FB685A6503230FE07B69A8
S31508009280002B0AD07B69013B7B61FB681B689B68E6
S3150800929003F08003802BF2D000E000BF00231846BD
S315080092A01837BD4680BD00BF00000020819F5E16AE
S315080092B080B582B000AF78607B68002B01D10123AE
S315080092C041E07B6893F83D30DBB2002B06D17B6822
S315080092D0002283F83C207868FCF78AFD7B68022226
S315080092E083F83D207B681A687B6804331946104664
S315080092F000F04AFC7B68012283F846207B6801223D
S3150800930083F83E207B68012283F83F207B68012290
S3150800931083F840207B68012283F841207B6801227C
S3150800932083F842207B68012283F843207B68012268
S3150800933083F844207B68012283F845207B68012254
S3150800934083F83D20002318460837BD4680BD000037
S3150800935080B485B000AF78607B6893F83D30DBB2A7
S31508009360012B01D0012344E07B68022283F83D20CB
S315080093707B681B68DA687B681B6842F00102DA6062
S315080093807B681B681E4A934218D07B681B68B3F13A
S31508009390804F13D07B681B681A4A93420ED07B68AD
S315080093A01B68194A934209D07B681B68174A93427F
S315080093B004D07B681B68164A934211D17B681B68E8
S315080093C09B6803F00703FB60FB68062B10D07B68DD
S315080093D01B681A687B681B6842F001021A6007E07E
S315080093E07B681B681A687B681B6842F001021A6072
S315080093F0002318461437BD465DF8047B704700BF46
S31508009400000001400004004000080040000C004035
S315080094100040014080B582B000AF78607B68002BC1
S3150800942001D1012341E07B6893F83D30DBB2002B84
S3150800943006D17B68002283F83C207868FCF78CFC10
S315080094407B68022283F83D207B681A687B680433B0
S315080094501946104600F098FB7B68012283F84620DF
S315080094607B68012283F83E207B68012283F83F202F
S315080094707B68012283F840207B68012283F841201B
S315080094807B68012283F842207B68012283F8432007
S315080094907B68012283F844207B68012283F84520F3
S315080094A07B68012283F83D20002318460837BD460D
S315080094B080BD000080B584B000AF786039603B6835
S315080094C0002B09D17B6893F83E30DBB2012B14BF21
S315080094D001230023DBB222E03B68042B09D17B6819
S315080094E093F83F30DBB2012B14BF01230023DBB214
S315080094F015E03B68082B09D17B6893F84030DBB24E
S31508009500012B14BF01230023DBB208E07B6893F824
