S017000032302D32302D322D332D302D302D322E7372656344
S315080040000000012025500008FD4A0008014B000861
S31508004010054B0008094B00080D4B0008000000007E
S315080040200000000000000000000000006182000897
S31508004030114B000800000000F182000855830008B3
S31508004040755000087550000875500008755000082E
S31508004050755000087550000875500008755000081E
S31508004060755000087550000875500008755000080E
S3150800407075500008755000087550000875500008FE
S3150800408075500008755000087550000800000000BB
S315080040900000000000000000000000007550000845
S315080040A07550000875500008154B00087550000833
S315080040B075500008755000087550000875500008BE
S315080040C0755000087550000875500008314B0008F7
S315080040D0755000087550000875500008000000006B
S315080040E0755000087550000875500008000000005B
S315080040F000000000000000000000000075500008E5
S31508004100000000007550000875500008755000083A
S315080041100000000000000000000000000000000091
S315080041203D4B00087550000875500008494B0008BB
S3150800413075500008000000000000000000000000A4
S315080041400000000000000000000000007550000894
S31508004150755000087550000875500008755000081D
S3150800416075500008755000080000000000000000A7
S315080041700000000000000000000000000000000031
S315080041800000000075500008000000000000000054
S315080041907550000800000000000000000000000044
S315080041A00000000000000000000000000000000001
S315080041B000000000000000000000000000000000F1
S315080041C000000000000000000000000000000000E1
S315080041D00000000000000000FFFFFFFFEE11AA55D7
S315080041E010B5054C237833B9044B13B10448AFF323
S315080041F000800123237010BD940D002000000000EC
S315080042000C88000808B5034B1BB103490348AFF3F4
S31508004210008008BD00000000980D00200C880008EA
S3150800422053B94AB9002908BF00281CBF4FF0FF310F
S315080042304FF0FF3000F072B9ADF1080C6DE904CE0D
S3150800424000F006F8DDF804E0DDE9022304B0704763
S315080042502DE9F047089E04468846002B4BD18A4232
S31508004260154667D9B2FA82F24AB1C2F1200701FAB5
S3150800427002F320FA07F7954047EA030894404FEA05
S31508004280154E230CB8FBFEF71FFA85FC0EFB1788A4
S3150800429043EA084307FB0CF1994209D9EB1807F1E1
S315080042A0FF3080F01B81994240F21881023F2B446F
S315080042B05B1AA4B2B3FBFEF00EFB103344EA0344C8
S315080042C000FB0CFCA44509D92C1900F1FF3380F03A
S315080042D00781A44540F2048102382C4440EA07408D
S315080042E0A4EB0C0400271EB1D4400023C6E9004302
S315080042F03946BDE8F0878B4209D9002E00F0EB80DD
S315080043000027C6E9000138463946BDE8F087B3FA02
S3150800431083F7002F47D18B4202D3824200F2FA80FC
S31508004320841A61EB030301209846002EE0D0C6E903
S315080043300048DDE702B9FFDEB2FA82F2002A40F051
S315080043408F80491B4FEA154E1FFA85F80127B1FBE6
S31508004350FEFC230C0EFB1C1143EA014308FB0CF17F
S31508004360994207D9EB180CF1FF3002D2994200F2B4
S31508004370CD808446591AA3B2B1FBFEF00EFB101489
S3150800438043EA044408FB00F8A04507D92C1900F1B4
S31508004390FF3302D2A04500F2B6801846A4EB080403
S315080043A040EA0C409FE7C7F1200CBB4022FA0CFEFE
S315080043B04EEA030E01FA07F420FA0CF521FA0CF37B
S315080043C04FEA1E482543B3FBF8F92C0C08FB1933B2
S315080043D01FFA8EFA44EA034309FB0AF49C4202FADE
S315080043E007F200FA07F10BD91EEB030309F1FF30B8
S315080043F080F087809C4240F28480A9F102097344C8
S315080044001B1BADB2B3FBF8F008FB103345EA0344B7
S3150800441000FB0AFAA24508D91EEB040400F1FF3393
S315080044206BD2A24569D90238744440EA0940A0FB18
S315080044300289A4EB0A044C45C2464B4654D351D0D4
S31508004440002E69D0B1EB0A0564EB030404FA0CFCF0
S31508004450FD40FC404CEA0505C6E90054002747E73D
S31508004460C2F1200320FA03F7954001FA02F021FA77
S3150800447003F34FEA154E3843010CB3FBFEF71FFA58
S3150800448085F80EFB173341EA034107FB08F38B4215
S3150800449004FA02F407D9691807F1FF3C2FD28B42B8
S315080044A02DD9023F2944CB1A81B2B3FBFEF00EFB8D
S315080044B0103341EA034100FB08F38B4207D9691818
S315080044C000F1FF3C17D28B4215D902382944C91A84
S315080044D040EA07473BE73746304609E70746E7E637
S315080044E01846FBE64145ABD2B8EB020A69EB0E0269
S315080044F001381346A4E76046E9E7184695E7674694
S31508004500D1E781467CE702382C4447E7ACF1020C38
S315080045102B442FE7384608E73746E9E6704700BFD9
S3150800452038B50F4B0F4A104C1A60012100224FF480
S31508004530803518465D609C629A601A611A7683F81F
S315080045402020DA62DA6083F83020D961596100F0F8
S31508004550BFFD00B938BDBDE8384000F0D5B900BF89
S31508004560D84D0020002001400100000F70B50268F8
S31508004570254B88B000249A42CDE90344CDE9054489
S31508004580079401D008B070BD03F58C3300945A6CBB
S315080045901E4842F480725A645A6C02F48072009281
S315080045A0009A01941A6B42F004021A631A6B02F01D
S315080045B004020192019A02941A6B42F002021A63EB
S315080045C01B6B03F00203032502933F2603A9029BF4
S315080045D0CDE9036501F0F4F903A90D480594CDE981
S315080045E0035501F0EDF903A908480594CDE90365DB
S315080045F001F0E6F903A906480594CDE9035501F04B
S31508004600DFF908B070BD00BF002001400008024075
S315080046100004024010B582B000240F4B01941A6BB7
S3150800462042F480021A631B6B03F48003224601934B
S3150800463005213820019B00F077FF382000F0AAFFFB
S31508004640224605213B2000F06FFF3B2002B0BDE863
S31508004650104000F09FBF00BF0038024008B502F0C6
S315080046605FFC02F035FD02F0CBFE012003F080F975
S31508004670F7E700BF80B5134CDFF854A0DFF8549075
S31508004680DFF85480104F114E0025238801339BB262
S31508004690B3F57A7F23800ED3DAF8000003F070FDB5
S315080046A0A9F80000D8F8000003F06AFD388003F086
S315080046B0FFFF2580308002F043FC012003F058F903
S315080046C0E3E700BFB20D0020B60D0020B00D0020B4
S315080046D0204E0020B40D0020244E0020044B036019
S315080046E010B48023034C0C6013605DF8044B7047CC
S315080046F0B80F0020B80D002070B5104C26460FCE16
S315080047008EB06D460FC596E8070085E807000021BC
S31508004710684603F003F90A4B1C3418600FCC07AD42
S315080047200FC594E8070085E80700002107A803F0ED
S31508004730F5F8044B18600EB070BD00BF2488000859
S31508004740204E0020244E0020F0B500248BB0CDE981
S315080047500544CDE907442B4B019409941A6B2A4E5C
S315080047602A4D42F004021A631A6B02F004020192FF
S31508004770019A02941A6B42F080021A631A6B02F0CD
S3150800478080020292029A03941A6B42F001021A639B
S315080047901A6B02F001020392039A04941A6B42F010
S315080047A002021A631B6B03F00203049330460122CC
S315080047B04FF40051049B01F0DFF922462846802178
S315080047C001F0DAF90127304605A94FF40053CDE97F
S315080047D00537CDE9074401F0F3F80D4B079440225D
S315080047E005A92846CDE9052301F0EAF8802305A99D
S315080047F02846CDE906740894059301F0E1F80BB054
S31508004800F0BD00BF00380240000802400004024024
S315080048100000111030B5002495B0CDE90A44CDE961
S315080048200444CDE906441F4B01940C940394196C77
S315080048301D4A41F0805119641B6C03F080530193A3
S31508004840019B0294136823F4404343F40043136026
S31508004850136803F440430293092308934FF4803105
S3150800486001224FF480030225029809910D92062130
S3150800487054220F9308A804231091119213930E95AE
S31508004880129501F07DF90F224FF4805303A82946AB
S31508004890CDE9045407940392069301F085FB15B0FD
S315080048A030BD00BF003802400070004008B500F077
S315080048B0E3FBFFF7AFFF00F04DFB00F0D9FA00F07D
S315080048C049FAFFF72DFEFFF73FFFFFF7A3FE00F0BB
S315080048D01DF802F05BFEFFF70FFF03F019F8FEE77D
S315080048E00268034B9A4200D0704702F08FBE00BFA1
S315080048F0003001400268034B9A4200D0704700F02E
S31508004900D5BB00BF00480140704700BF08B50C4B37
S315080049100C4A1A600A2100221846D962C3E9012204
S31508004920C3E90322C3E90522C3E908229A6201F012
S31508004930B3FC00B908BDBDE80840FFF7E5BF00BFF6
S31508004940284E00200030014070B50268364B88B00A
S3150800495000249A42CDE90344CDE90544079401D0E1
S3150800496008B070BD03F5843301945A6C2F4D42F498
S3150800497080525A645A6C02F480520192019A029447
S315080049801A6B42F001021A631B6B03F001030293D0
S31508004990F0230393022303A904934FF0030C052382
S315080049A006462348029ACDE906C301F009F82149CB
S315080049B0AC604FF0C0624FF480632846EC60C5E9EE
S315080049C00544C5E907446C62C5E900122B6100F08D
S315080049D0EFFD18BB184C194820604FF0C063402102
S315080049E04FF480626360F56400232046AE63A160DD
S315080049F0C4E90332C4E90533C4E90733636200F046
S31508004A00D7FD70B900220521B4642320A66300F0FF
S31508004A108BFD232000F0BEFD08B070BDFFF774FFC4
S31508004A20D8E7FFF771FFEDE700300140804E002020
S31508004A300000024010640240E04E00205864024024
S31508004A4082B00E4B00220092596C41F480415964A1
S31508004A50596C01F48041009100990192196C41F05A
S31508004A60805119641B6C03F080530193019B0F213D
S31508004A706FF0010002B000F057BD00BF00380240D9
S31508004A8030B5014689B000221A2000F04DFD1A20E3
S31508004A9000F080FD0025154B02955A6C144C42F423
S31508004AA080225A645B6C03F4802301A9029303A84D
S31508004AB0029B01F027FB01F015FB0E4B0E49256101
S31508004AC0A3FB00239B0C013B40F2E7322046C4E9D6
S31508004AD001352160E26002F05DF810B1012009B0ED
S31508004AE030BD204601F078FE09B030BD00380240DE
S31508004AF0404F002083DE1B4300480140704700BF3B
S31508004B00FEE700BFFEE700BFFEE700BFFEE700BF07
S31508004B10704700BF08B5044801F046FF0348BDE8E2
S31508004B20084001F041BF00BF00500020404F002060
S31508004B30014801F027BD00BF284E0020014800F0BB
S31508004B4069BE00BF804E0020014800F063BE00BF6A
S31508004B50E04E00200D490E4BD1F888200D4842F44E
S31508004B607002C1F888201A68002142F001021A6012
S31508004B7099601A6822F0847222F480321A605860AA
S31508004B801A6822F480221A60D960704700ED00E0A6
S31508004B90003802401030002400B503682D4A9342BD
S31508004BA085B029D0B3F1804F3CD02B4A934214D01C
S31508004BB02A4A934202D005B05DF804FB284B00222E
S31508004BC003921A6C42F004021A641B6C03F0040385
S31508004BD00393039B05B05DF804FB214B0022029268
S31508004BE01A6C42F002021A641B6C03F00203029369
S31508004BF0029B05B05DF804FB0022194B0092596C24
S31508004C0041F0010159645B6C03F0010300931146FE
S31508004C101A20009B00F088FC1A2005B05DF804EB0A
S31508004C2000F0B8BC002203F50E330192196C41F06E
S31508004C30010119641B6C03F00103019305211C2073
S31508004C40019B00F071FC1C2005B05DF804EB00F038
S31508004C50A1BC00BF0000014000040040000800405D
S31508004C600038024030B50268334989B000238A42C9
S31508004C70CDE90333CDE90533079320D0B2F1804F50
S31508004C8035D02E498A423FD02D498A4201D009B0F3
S31508004C9030BD2C4A0293136B2B4843F0020313636F
S31508004CA0136B03F0020302930F22022303A9029C4B
S31508004CB00793CDE9032300F083FE09B030BD214AEE
S31508004CC00093136B214843F001031363136B03F03E
S31508004CD0010300930222012303A94FF47064009D87
S31508004CE00793CDE9034200F06BFE09B030BD0222FE
S31508004CF0012303A90F241548CDE90342CDE906335C
S31508004D0000F05EFE09B030BD0E4A0193136B1048E1
S31508004D1043F004031363136B03F0040301934FF486
S31508004D207072022303A9019C0793CDE9032300F0BF
S31508004D3047FE09B030BD00BF000001400004004036
S31508004D40000800400038024000040240000002400B
S31508004D500008024010B5002496B0202221460EA86D
S31508004D60CDE90344CDE90544019407940294CDE9BD
S31508004D700844CDE90A44CDE90C4403F0C3FC3A4B98
S31508004D803A4A5C601846C3E90244C3E904449C6194
S31508004D901A6001F0FFFE002862D14FF4805303A980
S31508004DA03148039301F052FD002856D12E4801F0F0
S31508004DB00DFF00284ED1002301A92B48CDE9013368
S31508004DC001F0CAFF002842D1002360241A4607A929
S31508004DD025480794CDE90833CDE90A33CDE90C33E4
S31508004DE001F03EFF80BB042207A91F4801F038FFE7
S31508004DF038BB082207A91C4801F032FFF0B907A9F9
S31508004E000C22194801F02CFFA8B900234FF40052D0
S31508004E100EA915481293CDE90E33CDE91033159333
S31508004E20139201F0D7FF08B1FFF76EFD0E48FFF7A2
S31508004E3019FF16B010BDFFF767FDE6E7FFF764FD3B
S31508004E40DDE7FFF761FDD4E7FFF75EFDCBE7FFF788
S31508004E505BFDB9E7FFF758FDADE7FFF755FDA5E799
S31508004E60FFF752FD99E700BF0050002000000140FF
S31508004E7010B5364A364B13608EB000231046536081
S31508004E80039301930793C2E9023313619361CDE952
S31508004E90043306930293CDE90833CDE90A33CDE905
S31508004EA00C3301F077FE00284CD14FF4805303A948
S31508004EB02648039301F0CAFC002840D1234801F094
S31508004EC085FE002838D1002301A92048CDE9013301
S31508004ED001F042FF68BB002360241A4607A91B4855
S31508004EE00B93CDE90833079401F0BAFEF0B9042212
S31508004EF007A9164801F0B4FEA8B9082207A913485D
S31508004F0001F0AEFE60B907A90C22104801F0A8FE10
S31508004F1008B1FFF7F9FC0D48FFF7A4FE0EB010BD67
S31508004F20FFF7F2FCEFE7FFF7EFFCE6E7FFF7ECFC2D
S31508004F30DDE7FFF7E9FCCEE7FFF7E6FCC3E7FFF797
S31508004F40E3FCBBE7FFF7E0FCAFE700BFC04F00207C
S31508004F500004004030B5324B00228FB04FF0804538
S31508004F60C8244FF47A711846C3E90054C3E90221EC
S31508004F701A6101F00FFE00284ED10EA94FF4805396
S31508004F8041F82C3D264801F061FC002841D124480F
S31508004F9001F01CFE002839D12022002301A920484F
S31508004FA0CDE9012301F0D8FE68BB002360241A4628
S31508004FB007A91B480B93CDE90833079401F050FE67
S31508004FC0F0B9042207A9164801F04AFEA8B9082232
S31508004FD007A9134801F044FE60B907A90C22104836
S31508004FE001F03EFE08B1FFF78FFC0D48FFF73AFEC9
S31508004FF00FB030BDFFF788FCEFE7FFF785FCE6E763
S31508005000FFF782FCDDE7FFF77FFCCEE7FFF77CFCC6
S31508005010C2E7FFF779FCBAE7FFF776FCADE700BF12
S3150800502040500020DFF834D0002103E00C4B5B58D9
S31508005030435004310B480C4B42189A42F6D30B4A9C
S3150800504002E0002342F8043B094B9A42F9D3FFF7E2
S3150800505081FD03F033FBFFF729FC704700000120B0
S31508005060E088000800000020940D0020940D002020
S3150800507050510020FEE7000008B50B4B1A6842F4B1
S3150800508000721A601A6842F480621A601A6842F45A
S3150800509080721A60032000F035FA0020FFF7F0FC52
S315080050A0FFF7CEFC002008BD003C0240034A044B33
S315080050B011681B780B441360704700BF80500020AE
S315080050C004000020014B1868704700BF805000207C
S315080050D0002800F09180F8B5056C0446002D00F014
S315080050E08180236CDB0604D50023012084F83C303C
S315080050F0F8BD226C4D4923684D4D22F4885222F0A2
S31508005100020242F0020222644A6822F440324A60ED
S315080051104A68606802434A6058682169A768E66871
S3150800512020F4807058605A6842EA01225A6058682A
S3150800513020F0407058605968A06A394359609968E8
S3150800514021F4006199609A68A84242EA06029A60C8
S3150800515054D09968E56A21F0706199609A6810439D
S315080051609860996821F0405199609A682A439A6034
S315080051709968257E94F8200021F0020199609A68C2
S3150800518042EA45029A605A68002840D122F4006231
S315080051905A60DA6AE56994F83070666922F4700232
S315080051A0DA62D86A013D40EA0550D862986820F468
S315080051B000709860996841EA47219960996821F4D6
S315080051C0806199609A68002042EA86229A60606443
S315080051D0236C23F0030343F001032364002384F8BC
S315080051E03C30F8BDFFF7C2F96564236C84F83C507F
S315080051F0DB063FF579AF7CE7012070479A6822F015
S3150800520070629A609A6822F040529A60B0E742F457
S315080052100062616A5A605A6822F460425A605A68A3
S31508005220013942EA41325A60B3E700BF0023014020
S315080052300100000F10B490F83C3083B00022012B17
S31508005240019255D0026893680121DB0780F83C106B
S3150800525014D42A4B2A4C1B689168A4FB03439B0C65
S3150800526003EB430341F0010191600193019B2BB1CC
S31508005270019B013B0193019B002BF9D19368DC0745
S3150800528025D5036C23F4E06323F0010343F480730C
S3150800529003645368590505D5036C23F4405343F456
S315080052A080530364036C13F480531CBF436C23F0D0
S315080052B00603436400246FF02201124B80F83C4039
S315080052C011605B68DB0607D00F4B9A4204D00020BA
S315080052D003B05DF8044B7047906810F04050F6D163
S315080052E0936843F08043936003B05DF8044B7047BE
S315080052F0022003B05DF8044B704700BF0000002091
S3150800530083DE1B43002301400020014003689A689E
S31508005310520502D59B68DB053ED470B50C4605469A
S31508005320FFF7D0FE06462A6801E0601C25D11368FF
S315080053309907FAD56FF0120313602B6C43F40073C8
S315080053402B64936813F0405F15D12B7E9BB9D36A03
S3150800535013F4700F02D093685B050CD42B6C23F4FE
S3150800536080732B64286C10F4805004D12B6C43F0A6
S3150800537001032B6470BD002070BD24B1FFF7A2FEA7
S31508005380801BA042CFD92B6C002243F004032B6468
S3150800539085F83C200320EDE7036C002243F0200348
S315080053A0036480F83C200120704700BF0368D86C6E
S315080053B0704700BFF0B490F83C3082B00022012B51
S315080053C0019200F095800D688A6803680124092D0A
S315080053D0AFB280F83C4029D81C6905EB45064FF06A
S315080053E0070C0CFA06FC24EA0C041C611C6902FA78
S315080053F006F626431E614E68062E06EB86022AD856
S31508005400596B053A1F24944021EA04015963596BE4
S3150800541007FA02F20A435A63374A93422DD0002309
S3150800542080F83C30184602B0F0BC704707EB4706D8
S31508005430DC681E3E4FF0070C0CFA06FC24EA0C0446
S31508005440DC60DC6802FA06F62643DE604E68062E45
S3150800545006EB8602D4D90C2E35D8A2F123041F21D7
S315080054601A6BA14022EA01021A63196B07FA04F2C1
S315080054700A431A63204A9342D1D1122D31D0A5F19D
S315080054801003012BCBD81D4A5368102D43F4000393
S315080054905360C4D11A4B02F1467202F52E321B68CC
S315080054A002F28332A2FB03239B0C03EB83035B000C
S315080054B00193019B002BB2D0019B013B0193019BF9
S315080054C0002BF9D1ABE7A2F141011F24DA6A8C401F
S315080054D022EA0402DA62DC6A07FA01F22243DA6295
S315080054E09AE7D2F8043343F48003C2F8043396E704
S315080054F0022002B0F0BC70470020014000230140A2
S3150800550000000020074AD3684FF6FF010B4000024F
S3150800551043F0BF6300F4E06043F400330343D36011
S31508005520704700BF00ED00E0184BDB68C3F30223A9
S3150800553030B4C3F10705042D03F1040428BF04257C
S31508005540062C19D9033B4FF0FF349C4022EA040489
S315080055504FF0FF32AA4021EA020101FA03F2224380
S3150800556012010028D2B20ADB00F1604000F5614062
S3150800557080F8002330BC704700242346E8E7044B34
S3150800558000F00F0003441A7630BC704700ED00E0C7
S31508005590FCEC00E0002807DB00F01F0101234009AE
S315080055A0024A8B4042F82030704700BF00E100E015
S315080055B0F8B50446FFF786FD002C54D0022223686E
S315080055C084F835201A68002122F0010284F8341084
S315080055D005461A6005E0FFF775FD401B05283BD810
S315080055E023681A68D107F6D4D4E90126D4E9035109
S315080055F0324360691F682A43D4E906650A430243B1
S31508005600216A354832432A430A43616A38400429E5
S3150800561042EA000229D01A605A6922F007021143A9
S31508005620DAB22E485961103AA0FB021212092C4927
S3150800563023F47F73895CE16523F00303032A88BF9B
S3150800564004333F228A4001250021A36508469A6053
S31508005650616584F83550F8BD032320226265184633
S3150800566084F83530F8BD0120F8BDD4E90B010143B3
S315080056700A43A56A1A605A6945F0040122F007022E
S3150800568011430028CCD07EB1B6F5005F16D0022DA6
S3150800569003D9032DC4D1C201C2D5012340226265B4
S315080056A0184684F83530F8BD012D03D0F3D3022D02
S315080056B0B6D1F0E7B0F1C07FB2D1EEE7032DAFD88F
S315080056C001A252F825F000BF9B560008975600081D
S315080056D09B560008B55600083F8010F0ABAAAAAA48
S315080056E08C880008F0B490F83440012C35D090F836
S315080056F03540866D0125AC4280F8345027D10468C0
S315080057000227002580F8357045652568876825F4E1
S315080057108025402F256063600ABFA260A160E16012
S31508005720C16D18BFE2603F238B40026CB3602368EB
S3150800573043F0160323601AB1236843F00803236075
S31508005740236843F0010323600020F0BC7047002360
S3150800575080F83430F0BC022070470220F0BC704755
S3150800576070B50446866DFFF7ADFC94F83530022B0C
S3150800577006D080220023626584F83430012070BD8B
S315080057802368216C1A6822F016021A605A6922F0F8
S31508005790800205465A6131B31A6822F008021A6077
S315080057A01A6822F001021A6005E0FFF78BFC401B1D
S315080057B005280FD823681B6813F00103F5D1E16D9E
S315080057C03F228A400121B260184684F8343084F8B2
S315080057D0351070BD202200230320626584F834301A
S315080057E084F8350070BDA26C002AD5D1D8E700BF71
S315080057F090F83530022B03D080234365012070478B
S315080058000268052380F83530136823F00103136016
S3150800581000207047F0B583B00023876D0193C36DF0
S315080058203D68654908229A402A4204460E6803D014
S3150800583001680868400759D401229A402A4203D0D1
S3150800584021684969080674D404229A402A4203D07A
S3150800585021680968890766D410229A402A4203D02B
S315080058602168086800074BD420229A402A4214D09F
S3150800587021680868C00610D5BA6094F83520052A4C
S3150800588063D00B6813F4802F0B687ED0190340F1A0
S315080058908980E36B0BB120469847636D23B3636D2C
S315080058A0DA071AD50523226884F835301368434980
S315080058B023F00103A1FB06161360B60A02E013687B
S315080058C0DB0704D5019B0133B3420193F7D90022C4
S315080058D0012384F8342084F83530E36C23B120465C
S315080058E003B0BDE8F040184703B0F0BD086820F0E3
S315080058F004000860BA60626D42F0010262659BE7C7
S31508005900BA600A6812F4802F0A6818D1D20503D43F
S315080059100A6822F008020A60226C002AA4D02046EF
S315080059209047E36DA0E7BA60626D42F004026265D3
S3150800593092E7BA60626D42F00202626584E711037B
S31508005940EAD5A26C002AEAD18EE70A68206C22F012
S3150800595016020A604A6922F080024A6138B30A6868
S3150800596022F008020A603F22216D02FA03F30020A2
S315080059700122BB6084F8340084F835200029B3D0AE
S31508005980204603B0BDE8F040084713F4807380D181
S315080059900A68012022F010020A6084F8343084F87C
S315080059A0350076E7636C002B7FF475AF75E7A26C5C
S315080059B0002AD4D1D7E700BF00000020B5814E1BCE
S315080059C02DE9F04F884683B0D1F800B0DFF898E1AA
S315080059D000244FF0010902E00134102C77D009FAAF
S315080059E004F20BEA02039A42F6D1D8E9012522F01D
S315080059F0100C66000CF1FF370321B140012F6FEA46
S31508005A00010105FA06F565D9C7680F403D43C5602B
S31508005A10076802F003050F4005FA06F63E43D7006D
S31508005A200660D9D54B4D00210191696C41F480413E
S31508005A306964696C24F0030606F1804601F4804126
S31508005A4006F59C36019104F003050199B768AD0087
S31508005A500F21A94027EA01013F4FB84211D007F5A7
S31508005A608067B84268D03D4FB84269D03C4FB842CB
S31508005A706BD03C4FB8420CBF0427072707FA05F539
S31508005A802943B160DEF80010DD43D60354BF294030
S31508005A901943CEF80010DEF80410970354BF2940C6
S31508005AA01943CEF80410DEF80810D60254BF294070
S31508005AB01943CEF80810DEF80C10920204F101041E
S31508005AC054BF29401943102CCEF80C1087D103B0C7
S31508005AD0BDE8F08F876807EA010AD8F80C70B74066
S31508005AE047EA0A078760D0F804A0C2F300172AEA33
S31508005AF0030AA74047EA0A074760C7680F403D43BD
S31508005B00BCF1020FC56083D14FEAD40A00EB8A0ABA
S31508005B1004F00705DAF82070AD004FF00F0C0CFA08
S31508005B2005FC27EA0C0CD8F8107007FA05F545EAC3
S31508005B300C05CAF820506BE709FA05F52943A0E7D2
S31508005B40022707FA05F529439BE7032707FA05F510
S31508005B50294396E700380240000002400008024048
S31508005B60000C024000100240003C01400369194243
S31508005B7014BF01200020704702B9090481617047EB
S31508005B80002800F032812DE9F0410368DD0782B074
S31508005B9004462FD5AC498A6802F00C02042A00F0A4
S31508005BA0EA808A6802F00C02082A00F0E08063683E
S31508005BB0B3F5803F00F0E980B3F5A02F00F07881B7
S31508005BC0A14D2A6822F480322A602A6822F48022AB
S31508005BD02A60002B40F0DE80FFF774FA064605E0DF
S31508005BE0FFF770FA801B642800F2F2802B689B038B
S31508005BF0F6D423689F0775D41A0715D56369002B51
S31508005C0000F0A580914B904D01221A60FFF75AFAD1
S31508005C10064605E0FFF756FA801B022800F2D880F0
S31508005C206B6F9B07F6D5236858073BD5864A136CD6
S31508005C3013F0805340F0DB800193136C43F08053DC
S31508005C401364136C03F080530193019B0126804D66
S31508005C502A68D10540F1AC80A368012B00F0C98001
S31508005C60052B00F02F81784D2A6F22F001022A6752
S31508005C702A6F22F004022A67002B40F0BF80FFF744
S31508005C8021FA41F28837804606E0FFF71BFAA0EBB7
S31508005C900800B84200F29C802B6F9807F5D4002EB6
S31508005CA040F0DC80A069C8B1674DAA6802F00C0212
S31508005CB0082A00F0D980674A00210228116000F0FE
S31508005CC00B81FFF7FFF92C46054604E0FFF7FAF9C2
S31508005CD0401B02287CD823689B01F7D4002002B019
S31508005CE0BDE8F081584A916811F00C0F24D09168EC
S31508005CF001F00C0108291CD0E368002B00F0928003
S31508005D00554B514D01221A60FFF7DCF9064604E0AF
S31508005D10FFF7D8F9801B02285AD82B689807F7D5B9
S31508005D202B68226923F0F80343EAC2032B60236831
S31508005D3062E752685602DFD4434A126895074BD584
S31508005D40E268012A48D0012002B0BDE8F0813F4A46
S31508005D503D4D1360FFF7B6F9064604E0FFF7B2F9C2
S31508005D60801B022834D86B6F9F07F7D45BE74A6815
S31508005D7050027FF51CAF344A126891037FF53AAF9B
S31508005D806268002A7FF436AFDDE72F4A136843F4CA
S31508005D9080331360FFF796F92B4D064604E0FFF7AC
S31508005DA091F9801B642813D82B689A03F7D520E746
S31508005DB02A6842F480722A60FFF784F907462B683E
S31508005DC0DA053FF549AFFFF77DF9C01B0228F6D97A
S31508005DD0032002B0BDE8F0811B4920690A6822F059
S31508005DE0F80242EAC0020A6006E701207047002668
S31508005DF02DE7154A136F43F001031367FFF762F99E
S31508005E00114D804641F2883705E0FFF75BF9A0EBB4
S31508005E100800B842DCD82B6F9B07F6D5002E3FF456
S31508005E2041AF1BE00C4A084D1360FFF74BF90646D5
S31508005E3004E0FFF747F9801B0228C9D82B689907A1
S31508005E40F7D42368D8E600BF00380240800E4742E0
S31508005E50007000406000474200004742354A136C14
S31508005E6023F0805313641DE701283FF46DAFAB6838
S31508005E70E26903F4800191427FF465AF226A03F078
S31508005E803F0191427FF45FAF47F6C072616A1A40DC
S31508005E908A427FF458AFA26A03F4403191427FF4F4
S31508005EA052AFE06A03F07063181A18BF01204BE777
S31508005EB0204B1A6842F480221A601A6842F480322B
S31508005EC01A6067E71B4B1A6F42F004021A671A6FCB
S31508005ED042F001021A6791E7FFF7F4F8064605E073
S31508005EE0FFF7F0F8801B02283FF672AF2B6899017E
S31508005EF0F6D4D4E90736D4E90902E16A0D4C3343EE
S31508005F0043EA8013520843EA0163013A0A4943EA1D
S31508005F10024301226B600A60FFF7D4F8054605E0E4
S31508005F20FFF7D0F8401B02283FF652AF23689A01C4
S31508005F30F6D5D3E60038024060004742174908B54F
S31508005F408B6803F00C03042B1BD0082B17D14A6867
S31508005F504B6813F4800302F03F0214D149681048D5
S31508005F60C1F38811A1FB0001FEF75AF90B4B5B68D8
S31508005F70C3F3014301335B00B0FBF3F008BD0848E7
S31508005F8008BD084808BD4B680648C3F38813A3FB39
S31508005F9000010023FEF744F9E8E700BF0038024095
S31508005FA00024F400001BB70060B1494A136803F0E7
S31508005FB00F038B4208D2CBB21370136803F00F039A
S31508005FC08B4201D00120704703682DE9F0419D07F7
S31508005FD014D55C0704D53F4CA26842F4E052A2608F
S31508005FE01A0704D53B4CA26842F46042A260394CB9
S31508005FF08568A26822F0F0022A43A260DF070446F9
S315080060000D4622D54268012A57D0931E012B314BE3
S315080060101B6859D9990725D52E4EB36823F0030373
S315080060201343B360FFF74EF841F28837804605E020
S31508006030FFF748F8A0EB0800B84243D8B36862688F
S3150800604003F00C03B3EB820FF2D1214A136803F075
S315080060500F03AB4209D9EBB21370136803F00F03B1
S31508006060AB4202D00120BDE8F08123685A0706D565
S315080060701849E0688A6822F4E05202438A601B07DE
S3150800608012D4FFF75BFF134B134C9B681349144A52
S31508006090C3F30313E35C20FA03F308681360FEF7FF
S315080060A0EFFC0020BDE8F0810A4A2169936823F4D1
S315080060B0604343EAC1039360E3E7064B1B689E030C
S315080060C0AAD4CFE70320EDE79801A5D4CAE700BF15
S315080060D0003C02400038024074880008080000208E
S315080060E000000020044B054A9B680549C3F3423368
S315080060F00868D35CD8407047003802408488000896
S31508006100000000200E4B0F2202609A6802F003027C
S3150800611042609A6802F0F00282609A6802F4E052DD
S31508006120C2609B68DB0810B403F4E053054C0361B6
S3150800613023685DF8044B03F00F030B60704700BF3C
S3150800614000380240003C02402DE9F04107460D4662
S31508006150164698463C6801E0731C06D1A06835EAE5
S315080061600003F9D00020BDE8F081FEF7ABFFA0EBF5
S3150800617008008642EED8D7E900315A68B1F5827F21
S3150800618022F0E0025A6014D0BA6AB2F5005F07D06E
S315080061900122002387F8512087F850300320E2E7D0
S315080061A01A6822F400521A601A6842F400521A60F9
S315080061B0EEE7BA68B2F5004F02D0B2F5806FE3D1C8
S315080061C01A6822F040021A60DEE700BF70B545681B
S315080061D0B5F5827F0446134606D00A460121FFF725
S315080061E0B3FF98B9002070BD8268B2F5004F13D08E
S315080061F0B2F5806F15D10668356825F040050A4660
S3150800620035600121FFF7A0FF0028EBD0636D43F04E
S3150800621020036365032070BD0068026822F040020F
S3150800622002600A4620468021FFF78EFF0028EDD13E
S315080062300020D8E7164B30B51B68164DA5FB03534F
S315080062405B0D4FF47A7505FB03F3456883B0B5F526
S31508006250827F0446019307D10CE0019B2268013B2B
S31508006260019393681B0602D5019B002BF5D10020EC
S3150800627003B030BD13460A468021FFF765FF0028A4
S31508006280F5D0636D43F0200363650320F0E700BF94
S3150800629000000020819F5E1600283BD090F8512010
S315080062A0002370B502F0FF010446836262B3184604
S315080062B0D4E90135D4E903212B4313436269E5691F
S315080062C0266A0B431343A26921682B43022584F8E7
S315080062D05150334302F400750E682B43120C656A5D
S315080062E002F0040203432A4326F040060E600B60C0
S315080062F04A60CB69002223F400630125CB6110466E
S31508006300626584F8515070BD80F85010FEF71CFB8A
S31508006310A06ACDE70120704738B590F85040012CA7
S315080063204ED0044690F851000125C0B2A84284F820
S3150800633050500DD06568B5F5827F04D00220002341
S3150800634084F8503038BDA568002DF7D10428F5D15A
S31508006350002933D0002A31D0002B2FD094F85100D1
S31508006360216304281CBF052084F8510000206065BD
S31508006370E386E38794F85150A386042DA387C4E9DE
S31508006380100008BF2149E06C0EBF214B2149224B62
S31508006390A263224DC0E90F312168E38FC564002549
S315080063A00C310565FFF79EF960B1636D012243F074
S315080063B010036365104684F85120C0E70120BEE744
S315080063C0022038BD2268A56C5368216B43F001038F
S315080063D05360E38E2864E863C5E913000C32284647
S315080063E0FFF780F90028E0D123681A68520603D41B
S315080063F01A6842F040021A605A6842F020025A604F
S315080064005A6842F002025A6099E700BF9164000890
S31508006410D5640008A164000829650008B16400086D
S3150800642090F85020012A034609D0006842680021E6
S3150800643042F003024260084683F850107047022073
S31508006440704700BF38B50446806C10B1FFF788F96D
S31508006450A0B90025E06C38B1FFF782F920B1636D69
S3150800646043F010036365012522685368012123F070
S3150800647003035360284684F8511038BD636D43F012
S31508006480100363650125E5E7704700BF704700BF45
S3150800649008B5806BFFF7FAFF08BD00BF704700BF5D
S315080064A008B5806BFFF7FAFF08BD00BF704700BF4D
S315080064B008B5836B19684A6822F003024A605A6D68
S315080064C0012142F010025A65184683F85110FFF769
S315080064D0EDFF08BD38B50546846BFEF7F3FD2B685E
S315080064E01B68DB0517D42368596821F02001596019
S315080064F0596821F003010246596020466421FFF7D6
S3150800650065FE08B12023636501230022E28784F82B
S315080065105130636D1BB92046FFF7B6FF38BD2046DC
S31508006520FFF7C4FF38BD00BF38B50546846BFEF7D4
S31508006530C9FD2B681B68DB051BD421684B6823F053
S31508006540200302464B6020466421FFF773FE18B10C
S31508006550636D43F02003636521684B68002223F0CE
S31508006560030301204B60E286E28784F85100636DDD
S315080065701BB92046FEF7B4F938BD2046FFF796FF4B
S3150800658038BD00BF30B501684D688B68C3F3801409
S3150800659085B0024654B913F0010F07D015F0400F25
S315080065A004D0036C05B0BDE830401847980707D5F6
S315080065B0280605D5536C104605B0BDE83040184787
S315080065C0C3F3401000283DD1002C4ED0AC0637D579
S315080065D092F85140032C5AD0546D44F00404546583
S315080065E00090C8680090886800900098C3F300235C
S315080065F0002B3ED1536D1BB34B68144623F0E003C2
S315080066000122AD074B6084F8512048D04B68E06CF6
S3150800661023F003034B6040B12A4B0365FFF7E8F804
S3150800662018B1636D43F040036365A06C40B1254B18
S315080066300365FFF7DDF818B1636D43F04003636542
S3150800664005B030BDA806FBD5ECB9C3F30023506DE1
S31508006650002440F00100506502948868029008689A
S3150800666020F0400008600298C2E7DC05E8D5AB06D2
S31508006670E6D5536D002043F00803536503908B68F5
S315080066800393039BB6E792F8510003280BD1002326
S315080066900193CB6801938B680193019BD0E7204651
S315080066A0FFF704FFCCE7506D002440F00400506566
S315080066B00094C868009088680090C3F30023009887
S315080066C0C5E700BFC966000808B5836B0022DA87EC
S315080066D01846DA86FFF7EAFE08BD00BFF0B4046A7A
S315080066E0D1F808C00E68124D24F001040462036A4A
S315080066F04768826923F0020322F07302A84243EA3C
S315080067000C0342EA060206D0496847608261F0BC7B
S31508006710416303627047D1E90545CE6823F0080353
S3150800672027F4407733432C4323F004032743EBE74E
S3150800673000000140F0B4046AD1F808C00E68134D91
S3150800674024F480740462036A4768C26923F40073F8
S3150800675022F07302A84243EA0C2342EA060206D054
S3150800676049684760C261F0BCC16303627047D1E9FA
S315080067700545CE6823F4006327F4405743EA062309
S315080067802C4323F4806347EA0417E9E70000014035
S31508006790F0B4046A8F680E680E4D24F480540462BF
S315080067A0036A4468C26923F4005322F4E642A84205
S315080067B043EA073342EA062204D14D6924F48044A9
S315080067C044EA851449684460C261F0BC0164036206
S315080067D0704700BF000001400368DA6842F0010212
S315080067E0DA609A6802F00702062A03D01A6842F0AD
S315080067F001021A600020704703680122186A01F036
S315080068001F0102FA01F120EA010010B418621A6A9F
S315080068100B4C1143A34219620CD09A6802F0070286
S31508006820062A03D01A6842F001021A6000205DF8B1
S31508006830044B70475A6C42F400425A64EDE700BFB5
S3150800684000000140704700BFFFF7D6BF90F83C3004
S31508006850012B5AD002220368F0B480F83D209A68CA
S315080068600C6822F47F4222F077020125402C80F83A
S315080068703C509A6074D04AD9602C2DD056D9702CC9
S315080068801AD0B4F5005F0ED1D1E90152CC689968E7
S315080068902A4342EA042221F47F410A439A609A680D
S315080068A042F480429A600023012280F83D2080F855
S315080068B03C30F0BC18467047D1E90152CC6899685B
S315080068C02A4342EA042221F47F410A439A609A68DD
S315080068D042F077029A60E6E71C6A4D68CE6824F0B3
S315080068E010041C6299691A6A21F4704122F0A00208
S315080068F042EA051241EA063199611A629A6822F05B
S31508006900700242F067029A60CDE702207047102CA9
S3150800691004D03DD9202C01D0302CC4D19A6844F03B
S31508006920070422F0700214439C60BCE7502CBAD1CD
S315080069301D6A1E6A4C68CF6826F001061E629A69AF
S3150800694025F00A0122F0F00242EA071221439A6171
S3150800695019629A6822F0700242F057029A60A2E71A
S315080069601D6A1E6A4C68CF6826F001061E629A697F
S3150800697025F00A0122F0F00242EA071221439A6141
S3150800698019629A6822F0700242F047029A608AE712
S31508006990002CC3D087E700BF704700BF704700BF11
S315080069A0704700BF704700BF03681A69910710B5A2
S315080069B0044602D5DA6892075FD41A69500702D5E9
S315080069C0DA68510746D41A69120702D5DA68100739
S315080069D02ED41A69D20602D5DA68D00618D41A69EE
S315080069E0D10702D5DA68D2075DD41A69100602D52E
S315080069F0DA6811065FD41A69520602D5DA685006B3
S31508006A0061D41A69910602D5DA68920643D410BD94
S31508006A106FF010021A61DB69082213F4407F2277AF
S31508006A20204664D0FFF7BAFF002223682277D6E70C
S31508006A306FF008021A61DB6904229907227720465B
S31508006A4052D1FFF7A9FF2046FFF7AAFF00222368C5
S31508006A502277BEE76FF004021A619B69022213F4DB
S31508006A60407F227720463CD1FFF796FF2046FFF766
S31508006A7097FF002223682277A5E76FF002021A61C2
S31508006A809B6901229B07027725D0FFF787FF002223
S31508006A902368227791E76FF0200220461A61BDE845
S31508006AA0104000F0C1B96FF001021A612046FDF7E7
S31508006AB021FF236899E76FF080021A61204600F0EB
S31508006AC0B5F9236897E76FF040021A612046FFF789
S31508006AD069FF236895E7FFF75FFF2046FFF760FF2A
S31508006AE0D5E7FFF75BFFC4E7FFF758FFAEE7FFF709
S31508006AF053FF2046FFF754FF96E700BFF0B4244D36
S31508006B0003684E698C680A68A8422DD0B0F1804F98
S31508006B1018D0A5F57C45A84214D005F58065A8428D
S31508006B2010D005F58065A8420CD005F59A35A8421F
S31508006B300CD005F58065A84208D005F58065A84201
S31508006B4008D103E04D6823F070032B43C96823F48A
S31508006B5040730B4323F08003334303600123C4626D
S31508006B608262F0BC436170474F68CD6823F07003BA
S31508006B703B4323F440732B4323F0800333430360E2
S31508006B80C46282620B69036301234361F0BC7047E8
S31508006B9000000140B8B190F83D3010B503F0FF028F
S31508006BA004465BB1022384F83D302068211DFFF7B7
S31508006BB0A5FF012384F83D30002010BD80F83C2055
S31508006BC0FDF7EAFFEEE70120704700BFB8B190F87D
S31508006BD03D3010B503F0FF0204465BB1022384F88A
S31508006BE03D302068211DFFF789FF012384F83D30D9
S31508006BF0002010BD80F83C20FFF724FEEEE70120B8
S31508006C00704700BFF0B4046AD1F808C00E68134D87
S31508006C1024F010040462036A4768826923F020039B
S31508006C2022F4E642A84243EA0C1342EA062206D0B8
S31508006C30496847608261F0BC816303627047D1E9A5
S31508006C400545CE6823F0800327F4406743EA061318
S31508006C502C4323F0400347EA8407E9E70000014094
S31508006C6038B590F83C30012B74D00D46022301212B
S31508006C70044680F83C1080F83D300C2A19D8DFE825
S31508006C8002F00718181838181818511818181F007D
S31508006C9029460068FFF722FD23682869996941F0AB
S31508006CA008019961996921F0040199619A69024379
S31508006CB09A610123002084F83D3084F83C0038BDF1
S31508006CC029460068FFF764FD23682869D96941F4F5
S31508006CD00061D961D96921F48061D961DA6942EA2A
S31508006CE00022DA610020012384F83D3084F83C0054
S31508006CF0E5E729460068FFF785FF2368286999694B
S31508006D0041F400619961996921F4806199619A69F0
S31508006D1042EA00229A610020012384F83D3084F873
S31508006D203C00CCE729460068FFF704FD236828697C
S31508006D30D96941F00801D961D96921F00401D961FD
S31508006D40DA690243DA610020012384F83D3084F8C9
S31508006D503C00B4E7022038BD90F83C30012B32D015
S31508006D600368022270B480F83D205A680E68174DF1
S31508006D709C6822F070023243AB424FF0010680F85D
S31508006D803C605A6011D0B3F1804F0ED0104A93423E
S31508006D900BD002F58062934207D002F580629342D7
S31508006DA003D002F59A32934204D14A6824F080044B
S31508006DB014439C600023012280F83D2080F83C3073
S31508006DC070BC184670470220704700BF000001409B
S31508006DD00004004090F83C30012B21D030B4D1E9B2
S31508006DE00253D1E9002423F440732B4323F4806330
S31508006DF0234323F40063D1E90454134323F4805353
S31508006E002B4323F40053C9690268234323F48043C0
S31508006E100B430021536430BC80F83C100846704789
S31508006E2002231846704700BF704700BF704700BF6F
S31508006E30234901230B700378012B02D000230B7022
S31508006E407047D0F80230652BF0B41CD0662B03D0FF
S31508006E5000230B70F0BC70471A4A00F108032C3067
S31508006E6033F8025C53F8064B54608342558002F1AE
S31508006E701C02F5D11448154A012303701370002328
S31508006E800B70F0BC70470F4B421D00F10A054FF41A
S31508006E907A670B3012F8014F1C7035F8024F661EE0
S31508006EA0B6F57A6F34BF9C819F81824203F11C0339
S31508006EB0F0D1074B01221A7000230B70F0BC704703
S31508006EC00F100020845000200D1000200E10002006
S31508006ED00C10002038B50C460F4A01212B2363708D
S31508006EE02170234610889188E0806725C4F80250EF
S31508006EF00A4A23F8081F04F11400518923F8021FCF
S31508006F00834202F11C02F8D12B21204600F0F0FC46
S31508006F1084F82B0038BD00BF305100208450002073
S31508006F20064B4FF47A629A811A85A3F84420A3F88F
S31508006F306020A3F87C20A3F898207047845000208E
S31508006F402DE9F04786B002A9012203230F245348EE
S31508006F500493CDE90242FEF72DFA5048FEF76AF986
S31508006F604FF4FA714D48FEF7D1F9E0B94C4A117859
S31508006F70012900F08C8049484A4CFEF717FA07EEBB
S31508006F80900A9FED497AF8EE677A204667EE877A87
S31508006F90FCEEE77A17EE903A99B200F0B3FB10B917
S31508006FA0424B62889A800122032302A90E243B4899
S31508006FB00493CDE90242FEF7FDF93848FEF73AF99F
S31508006FC04FF4FA713548FEF7A1F9002843D0384C3A
S31508006FD0384E324FDFF8F080DFF8F090002525E0D4
S31508006FE0736B04920293FEF7E5F93846FEF722F929
S31508006FF04FF4FA71384605EB080AFEF787F970B9B7
S315080070003846FEF7D3F981B2504600F07BFB30B91B
S31508007010BAF80230A9FB0323DB08238163812235F2
S31508007020CC2D04F11C0406F5A87611D0237E012B7D
S3150800703002A94FF002023846D2D1638B638122350A
S315080070400023CC2D238106F5A87604F11C04EDD186
S3150800705006B0BDE8F0871148144C174DFEF7A6F99F
S31508007060A3881649B4F90020009280B2C31A088092
S315080070709BB213491348112200F0B0FB81B228468F
S3150800708000F040FB0028A2D16B8823809FE70346C7
S3150800709002481370FEF78AF985E700BFD84D00202D
S315080070A01800002018090020E54C4E3F30510020FA
S315080070B0845000206C0000203C0900202C51002040
S315080070C048000020240000204C080020CDCCCCCC61
S315080070D0944B1A78012A00D07047934A1278012AED
S315080070E0FAD12DE9F04FDFF86882904D904C0021D7
S315080070F095B01746464605F10C0919704FF0020A75
S31508007100736B0F930FA920461097CDF844A0FEF78E
S3150800711051F92046FEF78EF84FF4FA712046FEF72D
S31508007120F5F82046FEF742F925F8020BA94506F5BB
S31508007130A876E5D1DFF81CB2DFF81CA200274FF4C9
S31508007140A8799BE0681EAB1EC0B2DDB2C3001C1A4C
S3150800715009FB07F101EBC4014144764C4968A14299
S3150800716000F09D80744CA14200F0B380734CA1429C
S315080071700BD17349002408940C6B44F004040C6387
S31508007180096B01F00401089108996E4E191A09FB5A
S3150800719007F404EBC1014144096BB14200F08C804D
S315080071A0B1F1804F00F0A280674CA14200F0AB809D
S315080071B0664CA1420CD104F50C3400260596266CC3
S315080071C046F004062664246C04F004040594059C21
S315080071D01B1A09FB07F000EBC30308EB030401269F
S315080071E0E06A10964FF0020C0026CDE9116C01609A
S315080071F01AF8022042604FF47A728660C0E9046683
S31508007200C2600193FFF7C6FC4FF480520BA9E06AEF
S315080072100B92FFF71BFBE06AFFF7D8FC202209A9AF
S31508007220E06A0A960992FFF797FD019B227A38F8D9
S3150800723003106068D4E90363CDE90F161393FEF7CC
S315080072409BFC0FA96068FEF7BBFBD4E90836A18A48
S31508007250227FA0691396CDE90F13FEF78DFC0FA9BF
S31508007260A069FEF7ADFB022D03D8D4E90A10FFF793
S31508007270EBFA0137062F0BF11C0B0DD09BF80050CB
S3150800728015F00F021CBF02F1FF32D2B22D097FF4AE
S3150800729059AF2846FF2559E715B0BDE8F08F2849AC
S315080072A0002406940C6B44F001040C63096B01F08E
S315080072B001010691069968E7214C00260296666C3C
S315080072C046F001066664646C04F001040294029CAC
S315080072D07EE71B49002407940C6B44F002040C63F8
S315080072E0096B01F00201079107994EE7144C002635
S315080072F00396266C46F001062664246C04F0010405
S315080073000394039C64E704F50D3400260496266C62
S3150800731046F002062664246C04F002040494049CD5
S3150800732056E700BF0C1000200E1000200C000020AD
S31508007330D84D002000000240000402400008024028
S3150800734000380240000001400004004000080040E8
S315080073506C000020845000201C000020090900D180
S31508007360704730B44D1F4B1E012D1446DBB213D89F
S315080073704FF4A87101FB00F0C3EBC3031F4900EBF0
S31508007380C303C818C95A406812B930BCFEF7F4BB23
S31508007390012230BCFEF7F0BB0239022916D84FF499
S315080073A0A87202FB00F0C3EBC303144A00EBC30345
S315080073B01344D3E90A32B4F57A7F126808D88BB138
S315080073C0042B15D0082B0CBFD463146430BC70474B
S315080073D053B1042B0ED0082B4FF47A730CBFD3632A
S315080073E01364F3E75463F1E74FF47A735363EDE7F5
S315080073F09463EBE74FF47A739363E7E76C00002036
S3150800740070B50E4E3378012B00D070BD0C4D00249C
S3150800741003E0062C05F11C050CD02B7EE0B20134E6
S31508007420002BF6D16A882978FFF798FF062C05F114
S315080074301C05F2D10023337070BD00BF0D1000206B
S3150800744084500020012808D04FF0500383F3118898
S31508007450BFF36F8FBFF34F8FFEE72DE9804883B0E8
S31508007460324C0190324DDFF8E480324EDFF8E0B05E
S31508007470314FDFF8E090DFF8E0A002E0012000F0ED
S315080074801DFE23882A8801339BB2053A934223803E
S315080074903ED03378002BF1D010212848FEF766FB42
S315080074A00028EBD0DBF8000000F06AFEB7F800C051
S315080074B02288234B79881880DFF8A0E03A800CEB05
S315080074C002030B44AEFB03035B08D81E8242A7F8EF
S315080074D002C0B9802B8024DB03339A4221DC019B4E
S315080074E088F80030002323803370484601224FF481
S315080074F00051FEF741FB52462C2312491248FEF76B
S315080075000BFF00224FF400514846FEF735FBB5E75E
S3150800751098F80030012BBCD10A495046FFF7DAFC2F
S31508007520E3E7002388F80030DCE700BF8810002076
S315080075308A100020751000207C10002000000240F0
S315080075404451002044100020284E00208C100020B2
S31508007550781000200008024010100020ABAAAAAA42
S3150800756010B5074C2046FEF76DFF2046FEF758FF7C
S3150800757020462C23034A0449BDE81040FEF7CCBE3A
S31508007580284E0020101000204410002030B5154C5D
S31508007590154A164B236083B0012540F20233204674
S315080075A02B21C4E90123257300F0A2F9214684F8AA
S315080075B02B002C230E4A0F48FEF7AEFE2A464FF440
S315080075C000510D48FEF7D8FA0C4B019300222B46C2
S315080075D000920B490B48802200F0D4FB0A4B186036
S315080075E003B030BD4410002000001414012B6500C0
S315080075F010100020284E00200008024078100020B5
S31508007600948800084574000840510020F0B501220E
S3150800761083B080213348344DFEF7AEFA40F22D147C
S3150800762001E0002C5BD010212846FEF79FFA013CAA
S31508007630A4B20028F5D02D4E2D4F2B21384600F048
S3150800764057F997F82B30834241D02A4D32782C6867
S31508007650002038700B230127A168013B11F0020FA7
S315080076609BB230D101221046002BF5D13770FFF7B7
S3150800767077FF2C68204800230193E3680193A368E9
S31508007680019301224FF40051019BFEF775FA296810
S315080076904FF4FA7300E0FBB18C68013B14F0020466
S315080076A09BB2F8D1154B1448224601254FF40051D8
S315080076B01D70FEF761FA0B482246802103B0BDE82B
S315080076C0F040FEF759BA0028D4D03270D2E70C49F8
S315080076D03846FFF7ADFBB8E7FFF742FFD7E7034E9B
S315080076E03470A9E700040240000002404651002019
S315080076F010100020284E00200008024075100020B7
S3150800770044100020F0B50246407801280CD94500FF
S31508007710841EAB1CE4B215441344A5EB440433F8A9
S31508007720025D5D80A342FAD192F8203014789180E8
S315080077309C4249D8002382F82030002849D0941C5E
S3150800774019461D46264602EB410736F802CFBF8882
S31508007750BC4528BF1F4603F1010328BF2946DDB2F1
S3150800776038BF0F46A842EED8002319461D462646BE
S3150800777002EB410C36F802EFBCF804C0E64598BFA8
S315080077809C4603F1010398BF2946DDB288BF8C46A3
S31508007790A842EDD8451EEBB2151D05EB430500239F
S315080077A034F8021FA5420B44FAD102EB470702EB55
S315080077B04C0CBC88BCF804101B1B591A831E0020ED
S315080077C0B1FBF3F35380F0BD013382F8203001207A
S315080077D0F0BD844607460346E7E700BF2DE9F043B8
S315080077E00788BDF91CC09F4266D202F10044013CDD
S315080077F030F8145031F914E09D424BD9012A70D95A
S315080078000124651E26B2EDB2BB424FEA45054FEA92
S31508007810460942D330F8168098453ED90D44A8EB60
S315080078200303A8EB070707EE103A07EE907AB8EEBF
S31508007830C77AF8EEE77A31F90930B5F90020B1F9D7
S31508007840001087EE876A9A1A714507EE902AB8EEF5
S31508007850E77A07EE903AC7EE066AF8EEE77A07EE99
S31508007860101A77EEE67AB8EEC77AF4EEC77A28DA0F
S31508007870F1EE10FA31DD07EE10EAB8EEC77AB4EE8B
S31508007880E77AF1EE10FA28DDFDEEE77A17EE903A80
S315080078900FFA83FE7046BDE8F0830134E4B29442E1
S315080078A04FEA460530F81670ABD324B20D4430F8CB
S315080078B014804FEA4409B2E7B1F900E07046BDE822
S315080078C0F083F1EE10FA08D507EE10EAB8EEC77A9B
S315080078D0B4EEE77AF1EE10FAD6D4E6467046BDE87D
S315080078E0F083B0F802800D464FF0020997E700BF13
S315080078F059B1013950FA81F2431E002013F8011FCD
S3150800790008449342C0B2F9D170470846704700BF91
S3150800791008B500F06BFA002008BD00BF70B54569D0
S315080079200269B0F908400B4686B0D0E900166DB179
S31508007930806958B1842C14BF03340024CDE9015062
S315080079400094304600F0E6F906B070BD842C14BFEA
S315080079500334002405AD92B200943046019500F038
S3150800796011FA01280CBF0598002006B070BD00BFAB
S3150800797008B5002808BF012000F0A0FB002008BDBC
S3150800798000F108034FF0FF31002281600260436076
S31508007990C0E90333704700BF00230361704700BF87
S315080079A04368026810B49C688C609C684B6001321E
S315080079B0616099605DF8044B08610260704700BF1A
S315080079C030B40D686B1C11D000F1080200E01A46AD
S315080079D053681C68AC42FAD904684B600134996054
S315080079E08A6051600861046030BC70470269536858
S315080079F0F2E700BF42688168036910B49160816844
S31508007A005C684A601A68844208BF5960013A0021D6
S31508007A1001611A6018685DF8044B70472DE9F84350
S31508007A20044600F02FFC354A354D136801331360C0
S31508007A302B68002B34D0334FE06A3B6843B3DFF83A
S31508007A40E880DFF8E8C0304EDCF800203168012312
S31508007A50834000EB80000B43013208EB8000211DB8
S31508007A603360CCF80020FFF79BFF00F02DFC3B6845
S31508007A7063B12A68E36AD26A9A4207D2234B4FF067
S31508007A8080521A60BFF34F8FBFF36F8FBDE8F8833C
S31508007A902B68DFF89480DB6A834298BF2C60D0E7B6
S31508007AA02C601368012B04D0E06ADFF87C80154F40
S31508007AB0C7E7DFF87480464608F18C073046143667
S31508007AC0FFF75EFFB742F9D1DFF86490104E0D4F0D
S31508007AD04846FFF755FF3046FFF752FF0D48FFF7B8
S31508007AE04FFF0D48FFF74CFF0C48FFF749FF0C4ABC
S31508007AF00C4BC2F80090E06A1E60A2E7281100202D
S31508007B0090100020841100203C11002004ED00E0B4
S31508007B1054110020701100209C11002088110020AB
S31508007B2094100020981000209C1000203811002086
S31508007B304011002090F8513063B1012B14D0022B6C
S31508007B4014D04FF0500383F31188BFF36F8FBFF340
S31508007B504F8FFEE710B50446006B00F071FD204616
S31508007B60BDE8104000F06CBD00F06ABD704700BF6C
S31508007B7080B5154C154E164DDFF858A0DFF858900D
S31508007B804FF0805811E000F07DFBF368DF68381D80
S31508007B90FFF730FF2B68013B2B602368013B23600E
S31508007BA000F092FB3846FFF7C5FF2368002BEAD1A1
S31508007BB0DAF80030012BF8D9C9F80080BFF34F8FE7
S31508007BC0BFF36F8FF1E700BF2C1100209C11002036
S31508007BD0281100209C10002004ED00E0034A044B05
S31508007BE01268D268D26852681A60704794100020EA
S31508007BF0681100202DE9F0470A9C4FEA82098A4657
S31508007C004A46A5210746206B9846DDE9085600F046
S31508007C1079FD236BA9F10409994429F007090AF1AA
S31508007C20FF330AF10F0104F1330201E08B4206D05B
S31508007C3013F8010F02F8010F18780028F6D1062D5F
S31508007C4028BF06254FF0000AE5626564201D84F802
S31508007C5043A0C4F848A0FFF79FFEC5F1070504F145
S31508007C601800FFF799FEC4F84CA0A561246184F8B2
S31508007C7050A0646242463946484600F0D7FA20606A
S31508007C8006B13460BDE8F087F8B51B4B1B4E1C687F
S31508007C9033680546181D0F46FFF7ACFE40B9336832
S31508007CA01749D86A0B680122824023EA02030B604F
S31508007CB06B1C17D0336864195C600BD2114B1868BB
S31508007CC031680431FFF77CFE0F4B1A68A24288BF61
S31508007CD01C60F8BD0D4B18683168BDE8F8400431E2
S31508007CE0FFF76EBE002FE5D0316809480431BDE8BC
S31508007CF0F840FFF755BE00BFB011002090100020D5
S31508007D003C110020941000206811002098100020D3
S31508007D1088110020F0B587B0DDE90C650E9CBDB171
S31508007D206CB154270497049F542F1AD04FF0500370
S31508007D3083F31188BFF36F8FBFF34F8FFEE74FF0C2
S31508007D40500383F31188BFF36F8FBFF34F8FFEE79E
S31508007D504FF0500383F31188BFF36F8FBFF34F8F34
S31508007D60FEE72563022705AD0294009684F8517054
S31508007D700195FFF73FFF2046FFF750FE059807B02D
S31508007D80F0BD00BF2DE9F043074685B090001646C2
S31508007D908846994600F0C2FB20B30546542000F0F9
S31508007DA0BDFB0446B0B105634FF0000C0D9D84F889
S31508007DB051C001950C9D02944B46324641463846C1
S31508007DC00095FFF717FF2046FFF728FE012005B0AC
S31508007DD0BDE8F083284600F033FC4FF0FF3005B0CD
S31508007DE0BDE8F0834FF0FF30F1E700BF30B589B04A
S31508007DF0002407AA06A905A8CDE90544FCF76EFCE8
S31508007E0005A807C82346CDE9011000940C490D487A
S31508007E10FFF780FF90B14FF0500383F31188BFF34B
S31508007E206F8FBFF34F8F0848084A094B4FF0FF354D
S31508007E300121056011601C6000F0C0FA09B030BD70
S31508007E40C0880008717B0008681100208411002092
S31508007E50B0110020024A136801331360704700BF4F
S31508007E60341100202DE9F84F464B1B68CBB9464B19
S31508007E701E6801361E600EB3DFF82CB1DBF8002051
S31508007E80B24229D9414FDFF824810024D8F80030BE
S31508007E90DB6A03EB83039B00FB58022B28BF0124F4
S31508007EA004E03B4A1368013313600024394B1B680E
S31508007EB0002B0CBF20460120BDE8F88F364D2B68F5
S31508007EC01B68002B48D04FF0500383F31188BFF38B
S31508007ED06F8FBFF34F8FFEE72F4D2C4FDFF8CC8007
S31508007EE000242DE02A68D268D2F80C90D9F804103C
S31508007EF009F1040A8E4250462BD3FFF77BFDD9F8C9
S31508007F00281009F1180009B1FFF774FD234AD9F8BA
S31508007F102C001368012101FA00FC00EB8000514691
S31508007F2007EB80004CEA030CC2F800C0FFF738FDE7
S31508007F30D8F80000D9F82C10C26A914228BF01244B
S31508007F402A681268002ACDD14FF0FF32CBF80020FC
S31508007F509CE7CBF8001099E7114B2968114A186875
S31508007F60286019601368013313602B681B6833B9DE
S31508007F70DFF834B04FF0FF32CBF800207EE7FFF78A
S31508007F802DFE79E734110020B01100209C10002046
S31508007F9030110020B4110020941000203C1100205C
S31508007FA0981000206C110020681100209010002005
S31508007FB02DE9F84F364C236843B94FF0500383F345
S31508007FC01188BFF36F8FBFF34F8FFEE700F05AF9A2
S31508007FD02368013B236024687CBB2E4B1B6863B374
S31508007FE02D4DDFF8CCA02D4EDFF8C890DFF8C8B0CD
S31508007FF0DAF80030012733B3DAF80C30DC6804F11C
S31508008000040804F11800FFF7F5FC4046FFF7F2FCF8
S31508008010E06A326807FA00F300EB80001343414632
S3150800802009EB80003360FFF7BBFCDBF80030E26A3F
S31508008030DB6A9A42DCD32F60DAE7002400F044F9C1
S315080080402046BDE8F88F3CB1154B1B681B68DBB9A9
S31508008050144B4FF0FF321A60134E34683CB10127B7
S31508008060FFF700FF00B12F60013CF9D134602B689F
S31508008070002BE2D00D4B4FF080521A60BFF34F8FA2
S31508008080BFF36F8F0124D9E7FFF7A8FDE4E700BF28
S315080080903411002028110020B41100203C110020C2
S315080080A094100020681100203011002004ED00E033
S315080080B0701100209C1000209010002008B598B17F
S315080080C00E4B196841B14FF0500383F31188BFF383
S315080080D06F8FBFF34F8FFEE71A6801321A60FFF7FA
S315080080E0D3FDFFF765FF38B9054B4FF080521A608C
S315080080F0BFF34F8FBFF36F8F08BD00BF3411002049
S3150800810004ED00E0194B1B68EBB91949194A10B47C
S315080081100B601368B3FA83F3DBB2C3F11F0303EBF7
S315080081208302920014488158841881B16168083224
S31508008130496861600244914212D0104BCA681A60BD
S315080081405DF8044B70470A4B01221A6070474FF0DE
S31508008150500383F31188BFF36F8FBFF34F8FFEE78A
S31508008160142202FB030349685960E6E7341100202C
S31508008170B41100203C1100209C1000209010002013
S3150800818060B1016B0B78A52B0ED14B1C581A13F84E
S31508008190012BA52AFAD0C0F38F007047034B186845
S315080081A0016B0B78A52BF0D00020704790100020AB
S315080081B00E4B1B6882B000220133019208D04FF0A3
S315080081C0500383F31188BFF36F8FBFF34F8FFEE71A
S315080081D04FF0500383F31188BFF36F8FBFF34F8FB0
S315080081E0019B002BFCD002B0704700BF600900203D
S315080081F008480068006880F308884FF0000080F39C
S31508008200148862B661B6BFF34F8FBFF36F8F00DF76
S3150800821000BF000008ED00E0DFF80C00016841F43B
S31508008220700101607047000088ED00E030B421F06D
S3150800823001014FF08075074C40F80C4C6FF00203B3
S3150800824040F8202C40E9021540F8243C30BC44385C
S31508008250704700BFB1810008000000000000000060
S31508008260074B19680868B0E8F04F80F30988BFF330
S315080082706F8F4FF0000080F311887047AFF30080CE
S31508008280901000204FF0500383F31188BFF36F8FCF
S31508008290BFF34F8F0A4A13680133012B136000D0CE
S315080082A07047084B1B6813F0FF0FF9D04FF05003C7
S315080082B083F31188BFF36F8FBFF34F8FFEE700BFBD
S315080082C06009002004ED00E0084A136843B94FF03E
S315080082D0500383F31188BFF36F8FBFF34F8FFEE709
S315080082E0013B13600BB983F31188704760090020BE
S315080082F0EFF30980BFF36F8F154B1A681EF0100F46
S3150800830008BF20ED108A20E9F04F10602DE909001A
S315080083104FF0500080F31188BFF34F8FBFF36F8F74
S31508008320FFF7F0FE4FF0000080F3118809BC1968CA
S315080083300868B0E8F04F1EF0100F08BFB0EC108ABE
S3150800834080F30988BFF36F8F704700BFAFF30080D3
S315080083509010002008B54FF0500383F31188BFF33F
S315080083606F8FBFF34F8FFFF77DFD18B1034B4FF0AB
S3150800837080521A60002383F3118808BD04ED00E0DB
S3150800838030B4094A094D0A4B0A4C0B4800211160C2
S3150800839029601B68A4FB03139B09013B07210360A3
S315080083A030BC1160704700BF10E000E018E000E044
S315080083B000000020D34D621014E000E03A4B3B4A1F
S315080083C01968914240D01A68394B9A4233D010B591
S315080083D0384B39481A78394C82B0D2B2FF2101920B
S315080083E019701B78DBB28DF803309DF803309DF8C1
S315080083F00320072103F0500301601106237011D5ED
S31508008400062300E00B469DF803205200D2B28DF8F1
S3150800841003209DF80320120603F1FF31F2D4032B43
S3150800842003601AD04FF0500383F31188BFF36F8FA0
S31508008430BFF34F8FFEE74FF0500383F31188BFF366
S315080084406F8FBFF34F8FFEE74FF0500383F311880A
S31508008450BFF36F8FBFF34F8FFEE70199154C184A8C
S315080084601B02C9B203F4E06303602170136843F486
S3150800847070031360136843F070431360FFF780FFBF
S31508008480104B00241C60FFF7C7FE0F4A136843F021
S3150800849040431360FFF7ACFEFFF734FEFFF788FE94
S315080084A0204602B010BD00BF00ED00E071C20F41CA
S315080084B070C20F4100E400E0BC110020B811002092
S315080084C020ED00E06009002034EF00E010B4114B05
S315080084D01A68824201D21346FAE75C68191988427B
S315080084E003D14168214459601846446801198A42F3
S315080084F009D1094909688A4205D0D2E900212144EF
S315080085000260416000E00260984218BF18605DF89A
S31508008510044B7047D04D0020C01100202DE9F041D2
S315080085200446FFF797FC3F480368002B5CD03E4B98
S315080085301D682C4251D1002C4FD004F1080359076D
S315080085401CBF23F007030833002B46D0374F3E687D
S315080085509E4242D336490C6806E0D4F800C0BCF106
S31508008560000F04D02146644662689A42F5D3006833
S31508008570A04232D02068D1F800800860D11A1029AC
S3150800858010D9E018420708D04FF0500383F311883A
S31508008590BFF36F8FBFF34F8FFEE741606360FFF74E
S315080085A095FF626823480168B61A00232A438E425B
S315080085B0626008F10808236038BF06603E60FFF76E
S315080085C0F7FC18F0070F0CD04FF0500383F311880F
S315080085D0BFF36F8FBFF34F8FFEE7FFF7E9FC4FF04E
S315080085E000084046BDE8F081134B144A114F104E5F
S315080085F05D0718BF073322F0070218BF23F00703E9
S315080086000A4D02601946D31A3B602B60064F0025B7
S31508008610C2E9005575604FF000450A604B6031604D
S315080086203D6086E7C0110020C44D0020C84D0020DB
S31508008630D04D0020CC4D0020C4110020BC4D002098
S31508008640D0B1194A50F8043C1268134208D14FF0C9
S31508008650500383F31188BFF36F8FBFF34F8FFEE785
S3150800866050F8081C49B14FF0500383F31188BFF343
S315080086706F8FBFF34F8FFEE7704723EA020310B5EB
S3150800868040F8043C0446FFF7E5FB084A54F8043C66
S315080086901168A4F108000B441360FFF717FFBDE843
S315080086A01040FFF785BC00BFC44D0020C84D002010
S315080086B0014B1868704700BFC84D002070B50D4EB5
S315080086C00D4CA41BA4100025A54209D10B4E0C4C39
S315080086D000F09CF8A41BA4100025A54205D170BD86
S315080086E056F8253098470135EEE756F8253098476D
S315080086F00135F2E7D4880008D4880008D488000831
S31508008700DC88000802440346934200D1704703F808
S31508008710011BF9E7024B13B1024800F005B8704790
S315080087200000000035870008002301461A4618464F
S3150800873000F016B838B5074D074C641BA4101CB9D1
S31508008740BDE8384000F068B8013C55F82430984731
S31508008750F5E700BFDC880008E08800087047704726
S315080087602DE9F843264C0646206898460F4691465A
S31508008770FFF7F4FF234B1D68D5F8480118B905F52E
S31508008780A670C5F8480143681F2B19DD1E4B33B97F
S315080087902068FFF7E4FF4FF0FF30BDE8F8834FF499
S315080087A0C870AFF300800028F2D0D5F848310360CE
S315080087B000224260C5F84801C0F88821C0F88C211B
S315080087C043689EB100EB83050122C5F88890D0F86E
S315080087D088119A401143022EC0F88811C5F80881FD
S315080087E002BFD0F88C110A43C0F88C215A1C0233F8
S315080087F0426040F823702068FFF7B1FF0020CCE7FD
S31508008800900D0020C888000800000000F8B500BFD9
S31508008810F8BC08BC9E467047F8B500BFF8BC08BC53
S309080088209E467047AB
S31508008824688800085D460008000000000000000093
S315080088340002000000000000000000005C88000838
S3150800884475460008FDFF0000000000000002000055
S3150800885400000000000000006D6F6E69746F7254AA
S3150800886461736B00636F6E74726F6C5461736B0023
S3150800887400000000000000000102030406070809BE
S315080088840000000001020304000610160006101674
S315080088944D6F64756C65436F6D6D756E6963617450
S315080088A4696F6E5F436F6E6E656374696F6E506F42
S315080088B46C6C696E675461736B00000049444C45DF
S30D080088C400000000680900200D
S30D080088CC84B9FF7F01000000DA
S30D080088D415870008054200089B
S309080088DCE141000860
S315080088E00024F40001000000100000004B074B07AD
S315080088F04B074B074B074B07010000005028100891
S31508008900050403000000000100020003000400053E
S315080089100006000700080009000A000B000C000DFD
S31508008920000E000F001000009600690050003F007E
S3150800893036002D0026002000190012000C00050044
S31508008940FEFFF5FFEBFFDCFFDCFF00000100000087
S3150800895000000240000000000100000000000000C6
S3150800896002000000000002400000000001000000B4
S3150800897000000000040000004050002000000040F5
S31508008980080000000200000000000240010000008C
S315080089900100000000000000010000000000024085
S315080089A000000000020000000100000000000000B6
S315080089B040500020000000400800000001000000B0
S315080089C00000024000000000010000000000000056
S315080089D00200000000000240000000000200000043
S315080089E00100000004000000405000200000004084
S315080089F0080000000100000000000240010000001D
S31508008A000100000000000000020000000000024013
S31508008A100000000002000000010000000400000041
S31508008A20405000200000004008000000020000003E
S31508008A3000000240000000000100000000000000E5
S31508008A4001000000000002400000000001000000D4
S31508008A500000000004000000405000200000004014
S31508008A6008000000020000000000024001000000AB
S31508008A7001000000000000000100000000000240A4
S31508008A8001000000010000000000000004000000D2
S31508008A9040500020000000400800000004000000CC
S31508008AA00000024000000000010000000000000075
S31508008AB0080000000000024000000000010000005D
S31508008AC0000000000C00000040500020000000409C
S31508008AD00900000008000000000002400100000034
S31508008AE00100000000000000040000000000024031
S31508008AF0000000000200000001000000080000005D
S31508008B00405000200000004009000000040000005A
S31508008B100000024000000000010000000000000004
S31508008B2008000000000002400000000002000000EB
S31508008B30010000000C00000040500020000000402A
S31508008B4009000000040000000000024001000000C7
S31508008B5001000000000000000800000000000240BC
S31508008B600000000002000000010000000C000000E8
S31508008B7040500020000000400900000008000000E6
S31508008B800000024000000000010000000000000094
S31508008B900400000000000240000000000100000080
S31508008BA0000000000C0000004050002000000040BB
S31508008BB00900000008000000000002400100000053
S31508008BC00100000000000000040000000000024050
S31508008BD00100000001000000000000000C00000079
S31508008BE0405000200000004009000000400000003E
S31508008BF0000802400000000001000000000000001C
S31508008C00800000000008024000000000010000008B
S31508008C100000000004000000C04F002000040040CF
S31508008C200A00000080000000000802400100000061
S31508008C30010000000000000040000000000802409B
S31508008C400000000002000000020000000000000012
S31508008C50C04F0020000400400A0000004000000049
S31508008C6000080240000000000100000000000000AB
S31508008C70800000000008024000000000020000001A
S31508008C800200000004000000C04F0020000400405D
S31508008C900A00000040000000000802400100000031
S31508008CA001000000000000008000000000080240EB
S31508008CB0000000000200000002000000040000009E
S31508008CC0C04F0020000400400A0000008000000099
S31508008CD0000802400000000001000000000000003B
S31508008CE040000000000802400000000001000000EB
S31508008CF00000000004000000C04F002000040040EF
S31508008D000A00000080000000000802400100000080
S31508008D1001000000000000004000000000080240BA
S31508008D20010000000100000000000000040000002F
S31508008D30C04F0020000400400A00000000010000A7
S31508008D4000080240000000000100000000000000CA
S31508008D5000020000000802400000000001000000B8
S31508008D60000000000C000000C04F00200004004076
S31508008D700B0000000002000000080240010000008D
S31508008D800100000000000000000100000008024089
S31508008D9000000000020000000200000008000000B9
S31508008DA0C04F0020000400400B0000000001000036
S31508008DB0000802400000000001000000000000005A
S31508008DC00002000000080240000000000200000047
S31508008DD0020000000C000000C04F00200004004004
S31508008DE00B0000000001000000080240010000001E
S31508008DF00100000000000000000200000008024018
S31508008E000000000002000000020000000C00000044
S31508008E10C04F0020000400400B00000000020000C4
S31508008E2000080240000000000100000000000000E9
S31508008E3000010000000802400000000001000000D8
S31508008E40000000000C000000C04F00200004004095
S31508008E500B000000000200000008024001000000AC
S31508008E6001000000000000000001000000080240A8
S31508008E700100000001000000000000000C000000D6
S31508008E80C04F0020000400400B0000000001000055
S31508008E900000024000000000010000000000000081
S31508008EA0000200000000024000000000010000006F
S31508008EB000000000040000000050002000000140EF
S31508008EC00C00000000020000000002400100000043
S31508008ED00100000000000000000100000000024040
S31508008EE00000000002000000010000000000000071
S31508008EF000500020000001400C00000000010000A6
S31508008F000000024000000000010000000000000010
S31508008F1000020000000002400000000002000000FD
S31508008F20010000000400000000500020000001407D
S31508008F300C000000000100000000024001000000D3
S31508008F4001000000000000000002000000000240CE
S31508008F5000000000020000000100000004000000FC
S31508008F6000500020000001400C0000000002000034
S31508008F7000000240000000000100000000000000A0
S31508008F80000100000000024000000000010000008F
S31508008F90000000000400000000500020000001400E
S31508008FA00C00000000020000000002400100000062
S31508008FB0010000000000000000010000000002405F
S31508008FC0010000000100000000000000040000008D
S31508008FD000500020000001400C00000000040000C2
S31508008FE00000024000000000010000000000000030
S31508008FF00008000000000240000000000100000018
S31508009000000000000C000000005000200000014095
S315080090100D000000000800000000024001000000EA
S3150800902001000000000000000004000000000240EB
S315080090300000000002000000010000000800000017
S3150800904000500020000001400D0000000004000050
S3150800905000000240000000000100000000000000BF
S3150800906000080000000002400000000002000000A6
S31508009070010000000C000000005000200000014024
S315080090800D0000000004000000000240010000007E
S315080090900100000000000000000800000000024077
S315080090A00000000002000000010000000C000000A3
S315080090B000500020000001400D00000000080000DC
S315080090C0000002400000000001000000000000004F
S315080090D0000400000000024000000000010000003B
S315080090E0000000000C0000000050002000000140B5
S315080090F00D0000000008000000000240010000000A
S31508009100010000000000000000040000000002400A
S315080091100100000001000000000000000C00000033
S3150800912000500020000001400D0000000608000065
S315080091300000000000000000000000000000000021
S315080091400000000000000000000000000000060803
S315080091500000000000000000000000000000000001
S3150800916000000000000000000000000000000000F1
S3150800917006080000000000000000000000000000D3
S3150800918000000000000000000000000000000000D1
S3150800919000000608000000000000000000000000B3
S315080091A000000000000000000000000000000000B1
S315080091B00000000006080000000000000000000093
S315080091C00000000000000000000000000000000091
S315080091D00000000000000608000000000000000073
S315080091E00000000000000000000000000000000071
S315080091F000000000000000000A0C0000000000004B
S315080092000000000000000000000000000000000050
S315080092100000000000000000000000000608000032
S315080092200000000000000000000000000000000030
S315080092300000000000000000000000000000000020
S31508009240AAAAAAAA0000000000000000540C0020E8
S31508009250BC0C0020240D00200000000000000000C7
S3150800926000000000000000000000000000000000F0
S3150800927000000000000000000000000000000000E0
S3150800928000000000000000000000000000000000D0
S3150800929000000000000000000000000000000000C0
S315080092A000000000000000000000000000000000B0
S315080092B000000000000000000000000000000000A0
S315080092C00000000000000000000000000000000090
S315080092D00000000000000000000000000000000080
S315080092E00000000000000000000000000000000070
S315080092F001000000000000000E33CDAB34126DE60D
S31508009300ECDE05000B000000000000000000000075
S31508009310000000000000000000000000000000003F
S31508009320000000000000000000000000000000002F
S31508009330000000000000000000000000000000001F
S31508009340000000000000000000000000000000000F
S309080096704751002030
S705080050257D
